{
	"Project.sol": {
		"DIDRegistryWithRoles": {
			"abi": [
				{
					"inputs": [],
					"stateMutability": "nonpayable",
					"type": "constructor"
				},
				{
					"anonymous": false,
					"inputs": [
						{
							"indexed": true,
							"internalType": "address",
							"name": "owner",
							"type": "address"
						},
						{
							"indexed": false,
							"internalType": "string",
							"name": "identifier",
							"type": "string"
						}
					],
					"name": "DIDCreated",
					"type": "event"
				},
				{
					"anonymous": false,
					"inputs": [
						{
							"indexed": true,
							"internalType": "address",
							"name": "user",
							"type": "address"
						},
						{
							"indexed": false,
							"internalType": "string",
							"name": "role",
							"type": "string"
						}
					],
					"name": "RoleAssign",
					"type": "event"
				},
				{
					"anonymous": false,
					"inputs": [
						{
							"indexed": true,
							"internalType": "address",
							"name": "user",
							"type": "address"
						},
						{
							"indexed": false,
							"internalType": "address",
							"name": "receiver",
							"type": "address"
						},
						{
							"indexed": false,
							"internalType": "string",
							"name": "role",
							"type": "string"
						},
						{
							"indexed": false,
							"internalType": "bytes32",
							"name": "hash",
							"type": "bytes32"
						}
					],
					"name": "RoleIssued",
					"type": "event"
				},
				{
					"anonymous": false,
					"inputs": [
						{
							"indexed": true,
							"internalType": "address",
							"name": "owner",
							"type": "address"
						},
						{
							"indexed": false,
							"internalType": "string",
							"name": "name",
							"type": "string"
						},
						{
							"indexed": false,
							"internalType": "string",
							"name": "email",
							"type": "string"
						},
						{
							"indexed": false,
							"internalType": "string",
							"name": "profilePicture",
							"type": "string"
						}
					],
					"name": "SetMetaData",
					"type": "event"
				},
				{
					"anonymous": false,
					"inputs": [
						{
							"indexed": true,
							"internalType": "address",
							"name": "user",
							"type": "address"
						},
						{
							"indexed": false,
							"internalType": "uint256",
							"name": "grade",
							"type": "uint256"
						},
						{
							"indexed": false,
							"internalType": "uint256",
							"name": "gradedTime",
							"type": "uint256"
						}
					],
					"name": "TestGraded",
					"type": "event"
				},
				{
					"anonymous": false,
					"inputs": [
						{
							"indexed": true,
							"internalType": "address",
							"name": "user",
							"type": "address"
						},
						{
							"indexed": false,
							"internalType": "string",
							"name": "answersHash",
							"type": "string"
						},
						{
							"indexed": false,
							"internalType": "uint256",
							"name": "submissionTime",
							"type": "uint256"
						}
					],
					"name": "TestSubmitted",
					"type": "event"
				},
				{
					"inputs": [
						{
							"internalType": "address",
							"name": "_user",
							"type": "address"
						},
						{
							"internalType": "string",
							"name": "_role",
							"type": "string"
						}
					],
					"name": "assignRole",
					"outputs": [],
					"stateMutability": "nonpayable",
					"type": "function"
				},
				{
					"inputs": [
						{
							"internalType": "string",
							"name": "_identifier",
							"type": "string"
						}
					],
					"name": "createDID",
					"outputs": [],
					"stateMutability": "nonpayable",
					"type": "function"
				},
				{
					"inputs": [],
					"name": "getDID",
					"outputs": [
						{
							"internalType": "string",
							"name": "",
							"type": "string"
						}
					],
					"stateMutability": "view",
					"type": "function"
				},
				{
					"inputs": [],
					"name": "getMetadata",
					"outputs": [
						{
							"components": [
								{
									"internalType": "string",
									"name": "name",
									"type": "string"
								},
								{
									"internalType": "string",
									"name": "email",
									"type": "string"
								},
								{
									"internalType": "string",
									"name": "profilePicture",
									"type": "string"
								},
								{
									"internalType": "uint256",
									"name": "totalTestsSubmitted",
									"type": "uint256"
								},
								{
									"internalType": "uint256",
									"name": "lastTestScore",
									"type": "uint256"
								}
							],
							"internalType": "struct DIDRegistryWithRoles.MetaData",
							"name": "",
							"type": "tuple"
						}
					],
					"stateMutability": "view",
					"type": "function"
				},
				{
					"inputs": [],
					"name": "getRole",
					"outputs": [
						{
							"internalType": "string[]",
							"name": "",
							"type": "string[]"
						}
					],
					"stateMutability": "view",
					"type": "function"
				},
				{
					"inputs": [],
					"name": "getTestSubmissions",
					"outputs": [
						{
							"components": [
								{
									"internalType": "string",
									"name": "answersHash",
									"type": "string"
								},
								{
									"internalType": "uint256",
									"name": "submissionTime",
									"type": "uint256"
								},
								{
									"internalType": "uint256",
									"name": "grade",
									"type": "uint256"
								},
								{
									"internalType": "bool",
									"name": "graded",
									"type": "bool"
								}
							],
							"internalType": "struct DIDRegistryWithRoles.TestSubmission[]",
							"name": "",
							"type": "tuple[]"
						}
					],
					"stateMutability": "view",
					"type": "function"
				},
				{
					"inputs": [
						{
							"internalType": "address",
							"name": "user",
							"type": "address"
						},
						{
							"internalType": "uint256",
							"name": "testIndex",
							"type": "uint256"
						},
						{
							"internalType": "uint256",
							"name": "grade",
							"type": "uint256"
						}
					],
					"name": "gradeTest",
					"outputs": [],
					"stateMutability": "nonpayable",
					"type": "function"
				},
				{
					"inputs": [
						{
							"internalType": "address",
							"name": "_user",
							"type": "address"
						},
						{
							"internalType": "string",
							"name": "_role",
							"type": "string"
						}
					],
					"name": "issueRole",
					"outputs": [],
					"stateMutability": "nonpayable",
					"type": "function"
				},
				{
					"inputs": [
						{
							"internalType": "string",
							"name": "name",
							"type": "string"
						},
						{
							"internalType": "string",
							"name": "email",
							"type": "string"
						},
						{
							"internalType": "string",
							"name": "profilePicture",
							"type": "string"
						}
					],
					"name": "setMetadata",
					"outputs": [],
					"stateMutability": "nonpayable",
					"type": "function"
				},
				{
					"inputs": [
						{
							"internalType": "string",
							"name": "answersHash",
							"type": "string"
						}
					],
					"name": "submitTest",
					"outputs": [],
					"stateMutability": "nonpayable",
					"type": "function"
				}
			],
			"devdoc": {
				"kind": "dev",
				"methods": {},
				"version": 1
			},
			"evm": {
				"assembly": "    /* \"Project.sol\":57:6092  contract DIDRegistryWithRoles {... */\n  mstore(0x40, 0x80)\n    /* \"Project.sol\":1128:1245  constructor() {... */\n  callvalue\n  dup1\n  iszero\n  tag_1\n  jumpi\n  0x00\n  dup1\n  revert\ntag_1:\n  pop\n    /* \"Project.sol\":1152:1185  roles[msg.sender] = \"super admin\" */\n  mload(0x40)\n  dup1\n  0x40\n  add\n  0x40\n  mstore\n  dup1\n  0x0b\n  dup2\n  mstore\n  0x20\n  add\n  0x73757065722061646d696e000000000000000000000000000000000000000000\n  dup2\n  mstore\n  pop\n    /* \"Project.sol\":1152:1157  roles */\n  0x01\n    /* \"Project.sol\":1152:1169  roles[msg.sender] */\n  0x00\n    /* \"Project.sol\":1158:1168  msg.sender */\n  caller\n    /* \"Project.sol\":1152:1169  roles[msg.sender] */\n  0xffffffffffffffffffffffffffffffffffffffff\n  and\n  0xffffffffffffffffffffffffffffffffffffffff\n  and\n  dup2\n  mstore\n  0x20\n  add\n  swap1\n  dup2\n  mstore\n  0x20\n  add\n  0x00\n  keccak256\n    /* \"Project.sol\":1152:1185  roles[msg.sender] = \"super admin\" */\n  swap1\n  dup2\n  tag_4\n  swap2\n  swap1\n  tag_5\n  jump\t// in\ntag_4:\n  pop\n    /* \"Project.sol\":1195:1206  roleHistory */\n  0x02\n    /* \"Project.sol\":1195:1218  roleHistory[msg.sender] */\n  0x00\n    /* \"Project.sol\":1207:1217  msg.sender */\n  caller\n    /* \"Project.sol\":1195:1218  roleHistory[msg.sender] */\n  0xffffffffffffffffffffffffffffffffffffffff\n  and\n  0xffffffffffffffffffffffffffffffffffffffff\n  and\n  dup2\n  mstore\n  0x20\n  add\n  swap1\n  dup2\n  mstore\n  0x20\n  add\n  0x00\n  keccak256\n    /* \"Project.sol\":1195:1238  roleHistory[msg.sender].push(\"super admin\") */\n  dup1\n  0x01\n  dup2\n  sload\n  add\n  dup1\n  dup3\n  sstore\n  dup1\n  swap2\n  pop\n  pop\n  0x01\n  swap1\n  sub\n  swap1\n  0x00\n  mstore\n  keccak256(0x00, 0x20)\n  add\n  0x00\n  mload(0x40)\n  dup1\n  0x40\n  add\n  0x40\n  mstore\n  dup1\n  0x0b\n  dup2\n  mstore\n  0x20\n  add\n  0x73757065722061646d696e000000000000000000000000000000000000000000\n  dup2\n  mstore\n  pop\n  swap1\n  swap2\n  swap1\n  swap2\n  pop\n  swap1\n  dup2\n  tag_7\n  swap2\n  swap1\n  tag_5\n  jump\t// in\ntag_7:\n  pop\n    /* \"Project.sol\":57:6092  contract DIDRegistryWithRoles {... */\n  jump(tag_8)\n    /* \"#utility.yul\":7:106   */\ntag_9:\n    /* \"#utility.yul\":59:65   */\n  0x00\n    /* \"#utility.yul\":93:98   */\n  dup2\n    /* \"#utility.yul\":87:99   */\n  mload\n    /* \"#utility.yul\":77:99   */\n  swap1\n  pop\n    /* \"#utility.yul\":7:106   */\n  swap2\n  swap1\n  pop\n  jump\t// out\n    /* \"#utility.yul\":112:292   */\ntag_10:\n    /* \"#utility.yul\":160:237   */\n  0x4e487b7100000000000000000000000000000000000000000000000000000000\n    /* \"#utility.yul\":157:158   */\n  0x00\n    /* \"#utility.yul\":150:238   */\n  mstore\n    /* \"#utility.yul\":257:261   */\n  0x41\n    /* \"#utility.yul\":254:255   */\n  0x04\n    /* \"#utility.yul\":247:262   */\n  mstore\n    /* \"#utility.yul\":281:285   */\n  0x24\n    /* \"#utility.yul\":278:279   */\n  0x00\n    /* \"#utility.yul\":271:286   */\n  revert\n    /* \"#utility.yul\":298:478   */\ntag_11:\n    /* \"#utility.yul\":346:423   */\n  0x4e487b7100000000000000000000000000000000000000000000000000000000\n    /* \"#utility.yul\":343:344   */\n  0x00\n    /* \"#utility.yul\":336:424   */\n  mstore\n    /* \"#utility.yul\":443:447   */\n  0x22\n    /* \"#utility.yul\":440:441   */\n  0x04\n    /* \"#utility.yul\":433:448   */\n  mstore\n    /* \"#utility.yul\":467:471   */\n  0x24\n    /* \"#utility.yul\":464:465   */\n  0x00\n    /* \"#utility.yul\":457:472   */\n  revert\n    /* \"#utility.yul\":484:804   */\ntag_12:\n    /* \"#utility.yul\":528:534   */\n  0x00\n    /* \"#utility.yul\":565:566   */\n  0x02\n    /* \"#utility.yul\":559:563   */\n  dup3\n    /* \"#utility.yul\":555:567   */\n  div\n    /* \"#utility.yul\":545:567   */\n  swap1\n  pop\n    /* \"#utility.yul\":612:613   */\n  0x01\n    /* \"#utility.yul\":606:610   */\n  dup3\n    /* \"#utility.yul\":602:614   */\n  and\n    /* \"#utility.yul\":633:651   */\n  dup1\n    /* \"#utility.yul\":623:704   */\n  tag_34\n  jumpi\n    /* \"#utility.yul\":689:693   */\n  0x7f\n    /* \"#utility.yul\":681:687   */\n  dup3\n    /* \"#utility.yul\":677:694   */\n  and\n    /* \"#utility.yul\":667:694   */\n  swap2\n  pop\n    /* \"#utility.yul\":623:704   */\ntag_34:\n    /* \"#utility.yul\":751:753   */\n  0x20\n    /* \"#utility.yul\":743:749   */\n  dup3\n    /* \"#utility.yul\":740:754   */\n  lt\n    /* \"#utility.yul\":720:738   */\n  dup2\n    /* \"#utility.yul\":717:755   */\n  sub\n    /* \"#utility.yul\":714:798   */\n  tag_35\n  jumpi\n    /* \"#utility.yul\":770:788   */\n  tag_36\n  tag_11\n  jump\t// in\ntag_36:\n    /* \"#utility.yul\":714:798   */\ntag_35:\n    /* \"#utility.yul\":535:804   */\n  pop\n    /* \"#utility.yul\":484:804   */\n  swap2\n  swap1\n  pop\n  jump\t// out\n    /* \"#utility.yul\":810:951   */\ntag_13:\n    /* \"#utility.yul\":859:863   */\n  0x00\n    /* \"#utility.yul\":882:885   */\n  dup2\n    /* \"#utility.yul\":874:885   */\n  swap1\n  pop\n    /* \"#utility.yul\":905:908   */\n  dup2\n    /* \"#utility.yul\":902:903   */\n  0x00\n    /* \"#utility.yul\":895:909   */\n  mstore\n    /* \"#utility.yul\":939:943   */\n  0x20\n    /* \"#utility.yul\":936:937   */\n  0x00\n    /* \"#utility.yul\":926:944   */\n  keccak256\n    /* \"#utility.yul\":918:944   */\n  swap1\n  pop\n    /* \"#utility.yul\":810:951   */\n  swap2\n  swap1\n  pop\n  jump\t// out\n    /* \"#utility.yul\":957:1050   */\ntag_14:\n    /* \"#utility.yul\":994:1000   */\n  0x00\n    /* \"#utility.yul\":1041:1043   */\n  0x20\n    /* \"#utility.yul\":1036:1038   */\n  0x1f\n    /* \"#utility.yul\":1029:1034   */\n  dup4\n    /* \"#utility.yul\":1025:1039   */\n  add\n    /* \"#utility.yul\":1021:1044   */\n  div\n    /* \"#utility.yul\":1011:1044   */\n  swap1\n  pop\n    /* \"#utility.yul\":957:1050   */\n  swap2\n  swap1\n  pop\n  jump\t// out\n    /* \"#utility.yul\":1056:1163   */\ntag_15:\n    /* \"#utility.yul\":1100:1108   */\n  0x00\n    /* \"#utility.yul\":1150:1155   */\n  dup3\n    /* \"#utility.yul\":1144:1148   */\n  dup3\n    /* \"#utility.yul\":1140:1156   */\n  shl\n    /* \"#utility.yul\":1119:1156   */\n  swap1\n  pop\n    /* \"#utility.yul\":1056:1163   */\n  swap3\n  swap2\n  pop\n  pop\n  jump\t// out\n    /* \"#utility.yul\":1169:1562   */\ntag_16:\n    /* \"#utility.yul\":1238:1244   */\n  0x00\n    /* \"#utility.yul\":1288:1289   */\n  0x08\n    /* \"#utility.yul\":1276:1286   */\n  dup4\n    /* \"#utility.yul\":1272:1290   */\n  mul\n    /* \"#utility.yul\":1311:1408   */\n  tag_41\n    /* \"#utility.yul\":1341:1407   */\n  0xffffffffffffffffffffffffffffffffffffffffffffffffffffffffffffffff\n    /* \"#utility.yul\":1330:1339   */\n  dup3\n    /* \"#utility.yul\":1311:1408   */\n  tag_15\n  jump\t// in\ntag_41:\n    /* \"#utility.yul\":1429:1468   */\n  tag_42\n    /* \"#utility.yul\":1459:1467   */\n  dup7\n    /* \"#utility.yul\":1448:1457   */\n  dup4\n    /* \"#utility.yul\":1429:1468   */\n  tag_15\n  jump\t// in\ntag_42:\n    /* \"#utility.yul\":1417:1468   */\n  swap6\n  pop\n    /* \"#utility.yul\":1501:1505   */\n  dup1\n    /* \"#utility.yul\":1497:1506   */\n  not\n    /* \"#utility.yul\":1490:1495   */\n  dup5\n    /* \"#utility.yul\":1486:1507   */\n  and\n    /* \"#utility.yul\":1477:1507   */\n  swap4\n  pop\n    /* \"#utility.yul\":1550:1554   */\n  dup1\n    /* \"#utility.yul\":1540:1548   */\n  dup7\n    /* \"#utility.yul\":1536:1555   */\n  and\n    /* \"#utility.yul\":1529:1534   */\n  dup5\n    /* \"#utility.yul\":1526:1556   */\n  or\n    /* \"#utility.yul\":1516:1556   */\n  swap3\n  pop\n    /* \"#utility.yul\":1245:1562   */\n  pop\n  pop\n    /* \"#utility.yul\":1169:1562   */\n  swap4\n  swap3\n  pop\n  pop\n  pop\n  jump\t// out\n    /* \"#utility.yul\":1568:1645   */\ntag_17:\n    /* \"#utility.yul\":1605:1612   */\n  0x00\n    /* \"#utility.yul\":1634:1639   */\n  dup2\n    /* \"#utility.yul\":1623:1639   */\n  swap1\n  pop\n    /* \"#utility.yul\":1568:1645   */\n  swap2\n  swap1\n  pop\n  jump\t// out\n    /* \"#utility.yul\":1651:1711   */\ntag_18:\n    /* \"#utility.yul\":1679:1682   */\n  0x00\n    /* \"#utility.yul\":1700:1705   */\n  dup2\n    /* \"#utility.yul\":1693:1705   */\n  swap1\n  pop\n    /* \"#utility.yul\":1651:1711   */\n  swap2\n  swap1\n  pop\n  jump\t// out\n    /* \"#utility.yul\":1717:1859   */\ntag_19:\n    /* \"#utility.yul\":1767:1776   */\n  0x00\n    /* \"#utility.yul\":1800:1853   */\n  tag_46\n    /* \"#utility.yul\":1818:1852   */\n  tag_47\n    /* \"#utility.yul\":1827:1851   */\n  tag_48\n    /* \"#utility.yul\":1845:1850   */\n  dup5\n    /* \"#utility.yul\":1827:1851   */\n  tag_17\n  jump\t// in\ntag_48:\n    /* \"#utility.yul\":1818:1852   */\n  tag_18\n  jump\t// in\ntag_47:\n    /* \"#utility.yul\":1800:1853   */\n  tag_17\n  jump\t// in\ntag_46:\n    /* \"#utility.yul\":1787:1853   */\n  swap1\n  pop\n    /* \"#utility.yul\":1717:1859   */\n  swap2\n  swap1\n  pop\n  jump\t// out\n    /* \"#utility.yul\":1865:1940   */\ntag_20:\n    /* \"#utility.yul\":1908:1911   */\n  0x00\n    /* \"#utility.yul\":1929:1934   */\n  dup2\n    /* \"#utility.yul\":1922:1934   */\n  swap1\n  pop\n    /* \"#utility.yul\":1865:1940   */\n  swap2\n  swap1\n  pop\n  jump\t// out\n    /* \"#utility.yul\":1946:2215   */\ntag_21:\n    /* \"#utility.yul\":2056:2095   */\n  tag_51\n    /* \"#utility.yul\":2087:2094   */\n  dup4\n    /* \"#utility.yul\":2056:2095   */\n  tag_19\n  jump\t// in\ntag_51:\n    /* \"#utility.yul\":2117:2208   */\n  tag_52\n    /* \"#utility.yul\":2166:2207   */\n  tag_53\n    /* \"#utility.yul\":2190:2206   */\n  dup3\n    /* \"#utility.yul\":2166:2207   */\n  tag_20\n  jump\t// in\ntag_53:\n    /* \"#utility.yul\":2158:2164   */\n  dup5\n    /* \"#utility.yul\":2151:2155   */\n  dup5\n    /* \"#utility.yul\":2145:2156   */\n  sload\n    /* \"#utility.yul\":2117:2208   */\n  tag_16\n  jump\t// in\ntag_52:\n    /* \"#utility.yul\":2111:2115   */\n  dup3\n    /* \"#utility.yul\":2104:2209   */\n  sstore\n    /* \"#utility.yul\":2022:2215   */\n  pop\n    /* \"#utility.yul\":1946:2215   */\n  pop\n  pop\n  pop\n  jump\t// out\n    /* \"#utility.yul\":2221:2294   */\ntag_22:\n    /* \"#utility.yul\":2266:2269   */\n  0x00\n    /* \"#utility.yul\":2221:2294   */\n  swap1\n  jump\t// out\n    /* \"#utility.yul\":2300:2489   */\ntag_23:\n    /* \"#utility.yul\":2377:2409   */\n  tag_56\n  tag_22\n  jump\t// in\ntag_56:\n    /* \"#utility.yul\":2418:2483   */\n  tag_57\n    /* \"#utility.yul\":2476:2482   */\n  dup2\n    /* \"#utility.yul\":2468:2474   */\n  dup5\n    /* \"#utility.yul\":2462:2466   */\n  dup5\n    /* \"#utility.yul\":2418:2483   */\n  tag_21\n  jump\t// in\ntag_57:\n    /* \"#utility.yul\":2353:2489   */\n  pop\n    /* \"#utility.yul\":2300:2489   */\n  pop\n  pop\n  jump\t// out\n    /* \"#utility.yul\":2495:2681   */\ntag_24:\n    /* \"#utility.yul\":2555:2675   */\ntag_59:\n    /* \"#utility.yul\":2572:2575   */\n  dup2\n    /* \"#utility.yul\":2565:2570   */\n  dup2\n    /* \"#utility.yul\":2562:2576   */\n  lt\n    /* \"#utility.yul\":2555:2675   */\n  iszero\n  tag_61\n  jumpi\n    /* \"#utility.yul\":2626:2665   */\n  tag_62\n    /* \"#utility.yul\":2663:2664   */\n  0x00\n    /* \"#utility.yul\":2656:2661   */\n  dup3\n    /* \"#utility.yul\":2626:2665   */\n  tag_23\n  jump\t// in\ntag_62:\n    /* \"#utility.yul\":2599:2600   */\n  0x01\n    /* \"#utility.yul\":2592:2597   */\n  dup2\n    /* \"#utility.yul\":2588:2601   */\n  add\n    /* \"#utility.yul\":2579:2601   */\n  swap1\n  pop\n    /* \"#utility.yul\":2555:2675   */\n  jump(tag_59)\ntag_61:\n    /* \"#utility.yul\":2495:2681   */\n  pop\n  pop\n  jump\t// out\n    /* \"#utility.yul\":2687:3230   */\ntag_25:\n    /* \"#utility.yul\":2788:2790   */\n  0x1f\n    /* \"#utility.yul\":2783:2786   */\n  dup3\n    /* \"#utility.yul\":2780:2791   */\n  gt\n    /* \"#utility.yul\":2777:3223   */\n  iszero\n  tag_64\n  jumpi\n    /* \"#utility.yul\":2822:2860   */\n  tag_65\n    /* \"#utility.yul\":2854:2859   */\n  dup2\n    /* \"#utility.yul\":2822:2860   */\n  tag_13\n  jump\t// in\ntag_65:\n    /* \"#utility.yul\":2906:2935   */\n  tag_66\n    /* \"#utility.yul\":2924:2934   */\n  dup5\n    /* \"#utility.yul\":2906:2935   */\n  tag_14\n  jump\t// in\ntag_66:\n    /* \"#utility.yul\":2896:2904   */\n  dup2\n    /* \"#utility.yul\":2892:2936   */\n  add\n    /* \"#utility.yul\":3089:3091   */\n  0x20\n    /* \"#utility.yul\":3077:3087   */\n  dup6\n    /* \"#utility.yul\":3074:3092   */\n  lt\n    /* \"#utility.yul\":3071:3120   */\n  iszero\n  tag_67\n  jumpi\n    /* \"#utility.yul\":3110:3118   */\n  dup2\n    /* \"#utility.yul\":3095:3118   */\n  swap1\n  pop\n    /* \"#utility.yul\":3071:3120   */\ntag_67:\n    /* \"#utility.yul\":3133:3213   */\n  tag_68\n    /* \"#utility.yul\":3189:3211   */\n  tag_69\n    /* \"#utility.yul\":3207:3210   */\n  dup6\n    /* \"#utility.yul\":3189:3211   */\n  tag_14\n  jump\t// in\ntag_69:\n    /* \"#utility.yul\":3179:3187   */\n  dup4\n    /* \"#utility.yul\":3175:3212   */\n  add\n    /* \"#utility.yul\":3162:3173   */\n  dup3\n    /* \"#utility.yul\":3133:3213   */\n  tag_24\n  jump\t// in\ntag_68:\n    /* \"#utility.yul\":2792:3223   */\n  pop\n  pop\n    /* \"#utility.yul\":2777:3223   */\ntag_64:\n    /* \"#utility.yul\":2687:3230   */\n  pop\n  pop\n  pop\n  jump\t// out\n    /* \"#utility.yul\":3236:3353   */\ntag_26:\n    /* \"#utility.yul\":3290:3298   */\n  0x00\n    /* \"#utility.yul\":3340:3345   */\n  dup3\n    /* \"#utility.yul\":3334:3338   */\n  dup3\n    /* \"#utility.yul\":3330:3346   */\n  shr\n    /* \"#utility.yul\":3309:3346   */\n  swap1\n  pop\n    /* \"#utility.yul\":3236:3353   */\n  swap3\n  swap2\n  pop\n  pop\n  jump\t// out\n    /* \"#utility.yul\":3359:3528   */\ntag_27:\n    /* \"#utility.yul\":3403:3409   */\n  0x00\n    /* \"#utility.yul\":3436:3487   */\n  tag_72\n    /* \"#utility.yul\":3484:3485   */\n  0x00\n    /* \"#utility.yul\":3480:3486   */\n  not\n    /* \"#utility.yul\":3472:3477   */\n  dup5\n    /* \"#utility.yul\":3469:3470   */\n  0x08\n    /* \"#utility.yul\":3465:3478   */\n  mul\n    /* \"#utility.yul\":3436:3487   */\n  tag_26\n  jump\t// in\ntag_72:\n    /* \"#utility.yul\":3432:3488   */\n  not\n    /* \"#utility.yul\":3517:3521   */\n  dup1\n    /* \"#utility.yul\":3511:3515   */\n  dup4\n    /* \"#utility.yul\":3507:3522   */\n  and\n    /* \"#utility.yul\":3497:3522   */\n  swap2\n  pop\n    /* \"#utility.yul\":3410:3528   */\n  pop\n    /* \"#utility.yul\":3359:3528   */\n  swap3\n  swap2\n  pop\n  pop\n  jump\t// out\n    /* \"#utility.yul\":3533:3828   */\ntag_28:\n    /* \"#utility.yul\":3609:3613   */\n  0x00\n    /* \"#utility.yul\":3755:3784   */\n  tag_74\n    /* \"#utility.yul\":3780:3783   */\n  dup4\n    /* \"#utility.yul\":3774:3778   */\n  dup4\n    /* \"#utility.yul\":3755:3784   */\n  tag_27\n  jump\t// in\ntag_74:\n    /* \"#utility.yul\":3747:3784   */\n  swap2\n  pop\n    /* \"#utility.yul\":3817:3820   */\n  dup3\n    /* \"#utility.yul\":3814:3815   */\n  0x02\n    /* \"#utility.yul\":3810:3821   */\n  mul\n    /* \"#utility.yul\":3804:3808   */\n  dup3\n    /* \"#utility.yul\":3801:3822   */\n  or\n    /* \"#utility.yul\":3793:3822   */\n  swap1\n  pop\n    /* \"#utility.yul\":3533:3828   */\n  swap3\n  swap2\n  pop\n  pop\n  jump\t// out\n    /* \"#utility.yul\":3833:5228   */\ntag_5:\n    /* \"#utility.yul\":3950:3987   */\n  tag_76\n    /* \"#utility.yul\":3983:3986   */\n  dup3\n    /* \"#utility.yul\":3950:3987   */\n  tag_9\n  jump\t// in\ntag_76:\n    /* \"#utility.yul\":4052:4070   */\n  0xffffffffffffffff\n    /* \"#utility.yul\":4044:4050   */\n  dup2\n    /* \"#utility.yul\":4041:4071   */\n  gt\n    /* \"#utility.yul\":4038:4094   */\n  iszero\n  tag_77\n  jumpi\n    /* \"#utility.yul\":4074:4092   */\n  tag_78\n  tag_10\n  jump\t// in\ntag_78:\n    /* \"#utility.yul\":4038:4094   */\ntag_77:\n    /* \"#utility.yul\":4118:4156   */\n  tag_79\n    /* \"#utility.yul\":4150:4154   */\n  dup3\n    /* \"#utility.yul\":4144:4155   */\n  sload\n    /* \"#utility.yul\":4118:4156   */\n  tag_12\n  jump\t// in\ntag_79:\n    /* \"#utility.yul\":4203:4270   */\n  tag_80\n    /* \"#utility.yul\":4263:4269   */\n  dup3\n    /* \"#utility.yul\":4255:4261   */\n  dup3\n    /* \"#utility.yul\":4249:4253   */\n  dup6\n    /* \"#utility.yul\":4203:4270   */\n  tag_25\n  jump\t// in\ntag_80:\n    /* \"#utility.yul\":4297:4298   */\n  0x00\n    /* \"#utility.yul\":4321:4325   */\n  0x20\n    /* \"#utility.yul\":4308:4325   */\n  swap1\n  pop\n    /* \"#utility.yul\":4353:4355   */\n  0x1f\n    /* \"#utility.yul\":4345:4351   */\n  dup4\n    /* \"#utility.yul\":4342:4356   */\n  gt\n    /* \"#utility.yul\":4370:4371   */\n  0x01\n    /* \"#utility.yul\":4365:4983   */\n  dup2\n  eq\n  tag_82\n  jumpi\n    /* \"#utility.yul\":5027:5028   */\n  0x00\n    /* \"#utility.yul\":5044:5050   */\n  dup5\n    /* \"#utility.yul\":5041:5118   */\n  iszero\n  tag_83\n  jumpi\n    /* \"#utility.yul\":5093:5102   */\n  dup3\n    /* \"#utility.yul\":5088:5091   */\n  dup8\n    /* \"#utility.yul\":5084:5103   */\n  add\n    /* \"#utility.yul\":5078:5104   */\n  mload\n    /* \"#utility.yul\":5069:5104   */\n  swap1\n  pop\n    /* \"#utility.yul\":5041:5118   */\ntag_83:\n    /* \"#utility.yul\":5144:5211   */\n  tag_84\n    /* \"#utility.yul\":5204:5210   */\n  dup6\n    /* \"#utility.yul\":5197:5202   */\n  dup3\n    /* \"#utility.yul\":5144:5211   */\n  tag_28\n  jump\t// in\ntag_84:\n    /* \"#utility.yul\":5138:5142   */\n  dup7\n    /* \"#utility.yul\":5131:5212   */\n  sstore\n    /* \"#utility.yul\":5000:5222   */\n  pop\n    /* \"#utility.yul\":4335:5222   */\n  jump(tag_81)\n    /* \"#utility.yul\":4365:4983   */\ntag_82:\n    /* \"#utility.yul\":4417:4421   */\n  0x1f\n    /* \"#utility.yul\":4413:4422   */\n  not\n    /* \"#utility.yul\":4405:4411   */\n  dup5\n    /* \"#utility.yul\":4401:4423   */\n  and\n    /* \"#utility.yul\":4451:4488   */\n  tag_85\n    /* \"#utility.yul\":4483:4487   */\n  dup7\n    /* \"#utility.yul\":4451:4488   */\n  tag_13\n  jump\t// in\ntag_85:\n    /* \"#utility.yul\":4510:4511   */\n  0x00\n    /* \"#utility.yul\":4524:4732   */\ntag_86:\n    /* \"#utility.yul\":4538:4545   */\n  dup3\n    /* \"#utility.yul\":4535:4536   */\n  dup2\n    /* \"#utility.yul\":4532:4546   */\n  lt\n    /* \"#utility.yul\":4524:4732   */\n  iszero\n  tag_88\n  jumpi\n    /* \"#utility.yul\":4617:4626   */\n  dup5\n    /* \"#utility.yul\":4612:4615   */\n  dup10\n    /* \"#utility.yul\":4608:4627   */\n  add\n    /* \"#utility.yul\":4602:4628   */\n  mload\n    /* \"#utility.yul\":4594:4600   */\n  dup3\n    /* \"#utility.yul\":4587:4629   */\n  sstore\n    /* \"#utility.yul\":4668:4669   */\n  0x01\n    /* \"#utility.yul\":4660:4666   */\n  dup3\n    /* \"#utility.yul\":4656:4670   */\n  add\n    /* \"#utility.yul\":4646:4670   */\n  swap2\n  pop\n    /* \"#utility.yul\":4715:4717   */\n  0x20\n    /* \"#utility.yul\":4704:4713   */\n  dup6\n    /* \"#utility.yul\":4700:4718   */\n  add\n    /* \"#utility.yul\":4687:4718   */\n  swap5\n  pop\n    /* \"#utility.yul\":4561:4565   */\n  0x20\n    /* \"#utility.yul\":4558:4559   */\n  dup2\n    /* \"#utility.yul\":4554:4566   */\n  add\n    /* \"#utility.yul\":4549:4566   */\n  swap1\n  pop\n    /* \"#utility.yul\":4524:4732   */\n  jump(tag_86)\ntag_88:\n    /* \"#utility.yul\":4760:4766   */\n  dup7\n    /* \"#utility.yul\":4751:4758   */\n  dup4\n    /* \"#utility.yul\":4748:4767   */\n  lt\n    /* \"#utility.yul\":4745:4924   */\n  iszero\n  tag_89\n  jumpi\n    /* \"#utility.yul\":4818:4827   */\n  dup5\n    /* \"#utility.yul\":4813:4816   */\n  dup10\n    /* \"#utility.yul\":4809:4828   */\n  add\n    /* \"#utility.yul\":4803:4829   */\n  mload\n    /* \"#utility.yul\":4861:4909   */\n  tag_90\n    /* \"#utility.yul\":4903:4907   */\n  0x1f\n    /* \"#utility.yul\":4895:4901   */\n  dup10\n    /* \"#utility.yul\":4891:4908   */\n  and\n    /* \"#utility.yul\":4880:4889   */\n  dup3\n    /* \"#utility.yul\":4861:4909   */\n  tag_27\n  jump\t// in\ntag_90:\n    /* \"#utility.yul\":4853:4859   */\n  dup4\n    /* \"#utility.yul\":4846:4910   */\n  sstore\n    /* \"#utility.yul\":4768:4924   */\n  pop\n    /* \"#utility.yul\":4745:4924   */\ntag_89:\n    /* \"#utility.yul\":4970:4971   */\n  0x01\n    /* \"#utility.yul\":4966:4967   */\n  0x02\n    /* \"#utility.yul\":4958:4964   */\n  dup9\n    /* \"#utility.yul\":4954:4968   */\n  mul\n    /* \"#utility.yul\":4950:4972   */\n  add\n    /* \"#utility.yul\":4944:4948   */\n  dup9\n    /* \"#utility.yul\":4937:4973   */\n  sstore\n    /* \"#utility.yul\":4372:4983   */\n  pop\n  pop\n  pop\n    /* \"#utility.yul\":4335:5222   */\ntag_81:\n  pop\n    /* \"#utility.yul\":3925:5228   */\n  pop\n  pop\n  pop\n    /* \"#utility.yul\":3833:5228   */\n  pop\n  pop\n  jump\t// out\n    /* \"Project.sol\":57:6092  contract DIDRegistryWithRoles {... */\ntag_8:\n  dataSize(sub_0)\n  dup1\n  dataOffset(sub_0)\n  0x00\n  codecopy\n  0x00\n  return\nstop\n\nsub_0: assembly {\n        /* \"Project.sol\":57:6092  contract DIDRegistryWithRoles {... */\n      mstore(0x40, 0x80)\n      callvalue\n      dup1\n      iszero\n      tag_1\n      jumpi\n      0x00\n      dup1\n      revert\n    tag_1:\n      pop\n      jumpi(tag_2, lt(calldatasize, 0x04))\n      shr(0xe0, calldataload(0x00))\n      dup1\n      0xb7dfcbee\n      gt\n      tag_13\n      jumpi\n      dup1\n      0xb7dfcbee\n      eq\n      tag_8\n      jumpi\n      dup1\n      0xbc9c2d55\n      eq\n      tag_9\n      jumpi\n      dup1\n      0xc303e541\n      eq\n      tag_10\n      jumpi\n      dup1\n      0xde6db5c7\n      eq\n      tag_11\n      jumpi\n      dup1\n      0xfde08174\n      eq\n      tag_12\n      jumpi\n      jump(tag_2)\n    tag_13:\n      dup1\n      0x022bf9c1\n      eq\n      tag_3\n      jumpi\n      dup1\n      0x0890d80c\n      eq\n      tag_4\n      jumpi\n      dup1\n      0x3457d3e2\n      eq\n      tag_5\n      jumpi\n      dup1\n      0x7a5b4f59\n      eq\n      tag_6\n      jumpi\n      dup1\n      0xb4f30a54\n      eq\n      tag_7\n      jumpi\n    tag_2:\n      0x00\n      dup1\n      revert\n        /* \"Project.sol\":2254:2809  function issueRole(address _user, string memory _role) public {... */\n    tag_3:\n      tag_14\n      0x04\n      dup1\n      calldatasize\n      sub\n      dup2\n      add\n      swap1\n      tag_15\n      swap2\n      swap1\n      tag_16\n      jump\t// in\n    tag_15:\n      tag_17\n      jump\t// in\n    tag_14:\n      stop\n        /* \"Project.sol\":3394:4050  function setMetadata(... */\n    tag_4:\n      tag_18\n      0x04\n      dup1\n      calldatasize\n      sub\n      dup2\n      add\n      swap1\n      tag_19\n      swap2\n      swap1\n      tag_20\n      jump\t// in\n    tag_19:\n      tag_21\n      jump\t// in\n    tag_18:\n      stop\n        /* \"Project.sol\":2815:3154  function createDID(string memory _identifier) public {... */\n    tag_5:\n      tag_22\n      0x04\n      dup1\n      calldatasize\n      sub\n      dup2\n      add\n      swap1\n      tag_23\n      swap2\n      swap1\n      tag_24\n      jump\t// in\n    tag_23:\n      tag_25\n      jump\t// in\n    tag_22:\n      stop\n        /* \"Project.sol\":4056:4240  function getMetadata() public view returns (MetaData memory) {... */\n    tag_6:\n      tag_26\n      tag_27\n      jump\t// in\n    tag_26:\n      mload(0x40)\n      tag_28\n      swap2\n      swap1\n      tag_29\n      jump\t// in\n    tag_28:\n      mload(0x40)\n      dup1\n      swap2\n      sub\n      swap1\n      return\n        /* \"Project.sol\":5298:5869  function gradeTest(... */\n    tag_7:\n      tag_30\n      0x04\n      dup1\n      calldatasize\n      sub\n      dup2\n      add\n      swap1\n      tag_31\n      swap2\n      swap1\n      tag_32\n      jump\t// in\n    tag_31:\n      tag_33\n      jump\t// in\n    tag_30:\n      stop\n        /* \"Project.sol\":1864:2248  function assignRole(address _user, string memory _role) public {... */\n    tag_8:\n      tag_34\n      0x04\n      dup1\n      calldatasize\n      sub\n      dup2\n      add\n      swap1\n      tag_35\n      swap2\n      swap1\n      tag_16\n      jump\t// in\n    tag_35:\n      tag_36\n      jump\t// in\n    tag_34:\n      stop\n        /* \"Project.sol\":3160:3388  function getDID() public view returns (string memory) {... */\n    tag_9:\n      tag_37\n      tag_38\n      jump\t// in\n    tag_37:\n      mload(0x40)\n      tag_39\n      swap2\n      swap1\n      tag_40\n      jump\t// in\n    tag_39:\n      mload(0x40)\n      dup1\n      swap2\n      sub\n      swap1\n      return\n        /* \"Project.sol\":4766:5244  function submitTest(string memory answersHash) public {... */\n    tag_10:\n      tag_41\n      0x04\n      dup1\n      calldatasize\n      sub\n      dup2\n      add\n      swap1\n      tag_42\n      swap2\n      swap1\n      tag_24\n      jump\t// in\n    tag_42:\n      tag_43\n      jump\t// in\n    tag_41:\n      stop\n        /* \"Project.sol\":5875:6090  function getTestSubmissions() public view returns (TestSubmission[] memory) {... */\n    tag_11:\n      tag_44\n      tag_45\n      jump\t// in\n    tag_44:\n      mload(0x40)\n      tag_46\n      swap2\n      swap1\n      tag_47\n      jump\t// in\n    tag_46:\n      mload(0x40)\n      dup1\n      swap2\n      sub\n      swap1\n      return\n        /* \"Project.sol\":4246:4697  function getRole() public view returns (string[] memory) {... */\n    tag_12:\n      tag_48\n      tag_49\n      jump\t// in\n    tag_48:\n      mload(0x40)\n      tag_50\n      swap2\n      swap1\n      tag_51\n      jump\t// in\n    tag_50:\n      mload(0x40)\n      dup1\n      swap2\n      sub\n      swap1\n      return\n        /* \"Project.sol\":2254:2809  function issueRole(address _user, string memory _role) public {... */\n    tag_17:\n        /* \"Project.sol\":2368:2369  0 */\n      0x00\n        /* \"Project.sol\":2334:2370  dids[msg.sender].owner != address(0) */\n      0xffffffffffffffffffffffffffffffffffffffff\n      and\n        /* \"Project.sol\":2334:2338  dids */\n      0x00\n        /* \"Project.sol\":2334:2350  dids[msg.sender] */\n      dup1\n        /* \"Project.sol\":2339:2349  msg.sender */\n      caller\n        /* \"Project.sol\":2334:2350  dids[msg.sender] */\n      0xffffffffffffffffffffffffffffffffffffffff\n      and\n      0xffffffffffffffffffffffffffffffffffffffff\n      and\n      dup2\n      mstore\n      0x20\n      add\n      swap1\n      dup2\n      mstore\n      0x20\n      add\n      0x00\n      keccak256\n        /* \"Project.sol\":2334:2356  dids[msg.sender].owner */\n      0x01\n      add\n      0x00\n      swap1\n      sload\n      swap1\n      0x0100\n      exp\n      swap1\n      div\n      0xffffffffffffffffffffffffffffffffffffffff\n      and\n        /* \"Project.sol\":2334:2370  dids[msg.sender].owner != address(0) */\n      0xffffffffffffffffffffffffffffffffffffffff\n      and\n      sub\n        /* \"Project.sol\":2326:2397  require(dids[msg.sender].owner != address(0), \"Issuer must have a DID\") */\n      tag_53\n      jumpi\n      mload(0x40)\n      0x08c379a000000000000000000000000000000000000000000000000000000000\n      dup2\n      mstore\n      0x04\n      add\n      tag_54\n      swap1\n      tag_55\n      jump\t// in\n    tag_54:\n      mload(0x40)\n      dup1\n      swap2\n      sub\n      swap1\n      revert\n    tag_53:\n        /* \"Project.sol\":2437:2438  0 */\n      0x00\n        /* \"Project.sol\":2421:2426  _role */\n      dup2\n        /* \"Project.sol\":2415:2434  bytes(_role).length */\n      mload\n        /* \"Project.sol\":2415:2438  bytes(_role).length > 0 */\n      gt\n        /* \"Project.sol\":2407:2463  require(bytes(_role).length > 0, \"Role cannot be empty\") */\n      tag_56\n      jumpi\n      mload(0x40)\n      0x08c379a000000000000000000000000000000000000000000000000000000000\n      dup2\n      mstore\n      0x04\n      add\n      tag_57\n      swap1\n      tag_58\n      jump\t// in\n    tag_57:\n      mload(0x40)\n      dup1\n      swap2\n      sub\n      swap1\n      revert\n    tag_56:\n        /* \"Project.sol\":2474:2490  bytes32 roleHash */\n      0x00\n        /* \"Project.sol\":2533:2543  msg.sender */\n      caller\n        /* \"Project.sol\":2545:2550  _user */\n      dup4\n        /* \"Project.sol\":2552:2557  _role */\n      dup4\n        /* \"Project.sol\":2559:2574  block.timestamp */\n      timestamp\n        /* \"Project.sol\":2516:2575  abi.encodePacked(msg.sender, _user, _role, block.timestamp) */\n      add(0x20, mload(0x40))\n      tag_59\n      swap5\n      swap4\n      swap3\n      swap2\n      swap1\n      tag_60\n      jump\t// in\n    tag_59:\n      mload(0x40)\n      0x20\n      dup2\n      dup4\n      sub\n      sub\n      dup2\n      mstore\n      swap1\n      0x40\n      mstore\n        /* \"Project.sol\":2493:2585  keccak256(... */\n      dup1\n      mload\n      swap1\n      0x20\n      add\n      keccak256\n        /* \"Project.sol\":2474:2585  bytes32 roleHash = keccak256(... */\n      swap1\n      pop\n        /* \"Project.sol\":2596:2607  credentials */\n      0x04\n        /* \"Project.sol\":2596:2614  credentials[_user] */\n      0x00\n        /* \"Project.sol\":2608:2613  _user */\n      dup5\n        /* \"Project.sol\":2596:2614  credentials[_user] */\n      0xffffffffffffffffffffffffffffffffffffffff\n      and\n      0xffffffffffffffffffffffffffffffffffffffff\n      and\n      dup2\n      mstore\n      0x20\n      add\n      swap1\n      dup2\n      mstore\n      0x20\n      add\n      0x00\n      keccak256\n        /* \"Project.sol\":2633:2689  credential(msg.sender, _role, block.timestamp, roleHash) */\n      mload(0x40)\n      dup1\n      0x80\n      add\n      0x40\n      mstore\n      dup1\n        /* \"Project.sol\":2644:2654  msg.sender */\n      caller\n        /* \"Project.sol\":2633:2689  credential(msg.sender, _role, block.timestamp, roleHash) */\n      0xffffffffffffffffffffffffffffffffffffffff\n      and\n      dup2\n      mstore\n      0x20\n      add\n        /* \"Project.sol\":2656:2661  _role */\n      dup5\n        /* \"Project.sol\":2633:2689  credential(msg.sender, _role, block.timestamp, roleHash) */\n      dup2\n      mstore\n      0x20\n      add\n        /* \"Project.sol\":2663:2678  block.timestamp */\n      timestamp\n        /* \"Project.sol\":2633:2689  credential(msg.sender, _role, block.timestamp, roleHash) */\n      dup2\n      mstore\n      0x20\n      add\n        /* \"Project.sol\":2680:2688  roleHash */\n      dup4\n        /* \"Project.sol\":2633:2689  credential(msg.sender, _role, block.timestamp, roleHash) */\n      dup2\n      mstore\n      pop\n        /* \"Project.sol\":2596:2699  credentials[_user].push(... */\n      swap1\n      dup1\n      0x01\n      dup2\n      sload\n      add\n      dup1\n      dup3\n      sstore\n      dup1\n      swap2\n      pop\n      pop\n      0x01\n      swap1\n      sub\n      swap1\n      0x00\n      mstore\n      keccak256(0x00, 0x20)\n      swap1\n      0x04\n      mul\n      add\n      0x00\n      swap1\n      swap2\n      swap1\n      swap2\n      swap1\n      swap2\n      pop\n      0x00\n      dup3\n      add\n      mload\n      dup2\n      0x00\n      add\n      exp(0x0100, 0x00)\n      dup2\n      sload\n      dup2\n      0xffffffffffffffffffffffffffffffffffffffff\n      mul\n      not\n      and\n      swap1\n      dup4\n      0xffffffffffffffffffffffffffffffffffffffff\n      and\n      mul\n      or\n      swap1\n      sstore\n      pop\n      0x20\n      dup3\n      add\n      mload\n      dup2\n      0x01\n      add\n      swap1\n      dup2\n      tag_62\n      swap2\n      swap1\n      tag_63\n      jump\t// in\n    tag_62:\n      pop\n      0x40\n      dup3\n      add\n      mload\n      dup2\n      0x02\n      add\n      sstore\n      0x60\n      dup3\n      add\n      mload\n      dup2\n      0x03\n      add\n      sstore\n      pop\n      pop\n        /* \"Project.sol\":2710:2721  roleHistory */\n      0x02\n        /* \"Project.sol\":2710:2728  roleHistory[_user] */\n      0x00\n        /* \"Project.sol\":2722:2727  _user */\n      dup5\n        /* \"Project.sol\":2710:2728  roleHistory[_user] */\n      0xffffffffffffffffffffffffffffffffffffffff\n      and\n      0xffffffffffffffffffffffffffffffffffffffff\n      and\n      dup2\n      mstore\n      0x20\n      add\n      swap1\n      dup2\n      mstore\n      0x20\n      add\n      0x00\n      keccak256\n        /* \"Project.sol\":2734:2739  _role */\n      dup3\n        /* \"Project.sol\":2710:2740  roleHistory[_user].push(_role) */\n      swap1\n      dup1\n      0x01\n      dup2\n      sload\n      add\n      dup1\n      dup3\n      sstore\n      dup1\n      swap2\n      pop\n      pop\n      0x01\n      swap1\n      sub\n      swap1\n      0x00\n      mstore\n      keccak256(0x00, 0x20)\n      add\n      0x00\n      swap1\n      swap2\n      swap1\n      swap2\n      swap1\n      swap2\n      pop\n      swap1\n      dup2\n      tag_65\n      swap2\n      swap1\n      tag_63\n      jump\t// in\n    tag_65:\n      pop\n        /* \"Project.sol\":2767:2777  msg.sender */\n      caller\n        /* \"Project.sol\":2756:2802  RoleIssued(msg.sender, _user, _role, roleHash) */\n      0xffffffffffffffffffffffffffffffffffffffff\n      and\n      0xf4313cb022699889c6eddb590e42342301cdae4824fd424ffdfdeb23d4cdbbe9\n        /* \"Project.sol\":2779:2784  _user */\n      dup5\n        /* \"Project.sol\":2786:2791  _role */\n      dup5\n        /* \"Project.sol\":2793:2801  roleHash */\n      dup5\n        /* \"Project.sol\":2756:2802  RoleIssued(msg.sender, _user, _role, roleHash) */\n      mload(0x40)\n      tag_66\n      swap4\n      swap3\n      swap2\n      swap1\n      tag_67\n      jump\t// in\n    tag_66:\n      mload(0x40)\n      dup1\n      swap2\n      sub\n      swap1\n      log2\n        /* \"Project.sol\":2316:2809  {... */\n      pop\n        /* \"Project.sol\":2254:2809  function issueRole(address _user, string memory _role) public {... */\n      pop\n      pop\n      jump\t// out\n        /* \"Project.sol\":3394:4050  function setMetadata(... */\n    tag_21:\n        /* \"Project.sol\":3588:3589  0 */\n      0x00\n        /* \"Project.sol\":3554:3590  dids[msg.sender].owner != address(0) */\n      0xffffffffffffffffffffffffffffffffffffffff\n      and\n        /* \"Project.sol\":3554:3558  dids */\n      0x00\n        /* \"Project.sol\":3554:3570  dids[msg.sender] */\n      dup1\n        /* \"Project.sol\":3559:3569  msg.sender */\n      caller\n        /* \"Project.sol\":3554:3570  dids[msg.sender] */\n      0xffffffffffffffffffffffffffffffffffffffff\n      and\n      0xffffffffffffffffffffffffffffffffffffffff\n      and\n      dup2\n      mstore\n      0x20\n      add\n      swap1\n      dup2\n      mstore\n      0x20\n      add\n      0x00\n      keccak256\n        /* \"Project.sol\":3554:3576  dids[msg.sender].owner */\n      0x01\n      add\n      0x00\n      swap1\n      sload\n      swap1\n      0x0100\n      exp\n      swap1\n      div\n      0xffffffffffffffffffffffffffffffffffffffff\n      and\n        /* \"Project.sol\":3554:3590  dids[msg.sender].owner != address(0) */\n      0xffffffffffffffffffffffffffffffffffffffff\n      and\n      sub\n        /* \"Project.sol\":3533:3645  require(... */\n      tag_69\n      jumpi\n      mload(0x40)\n      0x08c379a000000000000000000000000000000000000000000000000000000000\n      dup2\n      mstore\n      0x04\n      add\n      tag_70\n      swap1\n      tag_71\n      jump\t// in\n    tag_70:\n      mload(0x40)\n      dup1\n      swap2\n      sub\n      swap1\n      revert\n    tag_69:\n        /* \"Project.sol\":3684:3685  0 */\n      0x00\n        /* \"Project.sol\":3669:3673  name */\n      dup4\n        /* \"Project.sol\":3663:3681  bytes(name).length */\n      mload\n        /* \"Project.sol\":3663:3685  bytes(name).length > 0 */\n      gt\n        /* \"Project.sol\":3655:3710  require(bytes(name).length > 0, \"Name cannot be empty\") */\n      tag_72\n      jumpi\n      mload(0x40)\n      0x08c379a000000000000000000000000000000000000000000000000000000000\n      dup2\n      mstore\n      0x04\n      add\n      tag_73\n      swap1\n      tag_74\n      jump\t// in\n    tag_73:\n      mload(0x40)\n      dup1\n      swap2\n      sub\n      swap1\n      revert\n    tag_72:\n        /* \"Project.sol\":3750:3751  0 */\n      0x00\n        /* \"Project.sol\":3734:3739  email */\n      dup3\n        /* \"Project.sol\":3728:3747  bytes(email).length */\n      mload\n        /* \"Project.sol\":3728:3751  bytes(email).length > 0 */\n      gt\n        /* \"Project.sol\":3720:3777  require(bytes(email).length > 0, \"Email cannot be empty\") */\n      tag_75\n      jumpi\n      mload(0x40)\n      0x08c379a000000000000000000000000000000000000000000000000000000000\n      dup2\n      mstore\n      0x04\n      add\n      tag_76\n      swap1\n      tag_77\n      jump\t// in\n    tag_76:\n      mload(0x40)\n      dup1\n      swap2\n      sub\n      swap1\n      revert\n    tag_75:\n        /* \"Project.sol\":3839:3840  0 */\n      0x00\n        /* \"Project.sol\":3814:3828  profilePicture */\n      dup2\n        /* \"Project.sol\":3808:3836  bytes(profilePicture).length */\n      mload\n        /* \"Project.sol\":3808:3840  bytes(profilePicture).length > 0 */\n      gt\n        /* \"Project.sol\":3787:3897  require(... */\n      tag_78\n      jumpi\n      mload(0x40)\n      0x08c379a000000000000000000000000000000000000000000000000000000000\n      dup2\n      mstore\n      0x04\n      add\n      tag_79\n      swap1\n      tag_80\n      jump\t// in\n    tag_79:\n      mload(0x40)\n      dup1\n      swap2\n      sub\n      swap1\n      revert\n    tag_78:\n        /* \"Project.sol\":3932:3975  MetaData(name, email, profilePicture, 0, 0) */\n      mload(0x40)\n      dup1\n      0xa0\n      add\n      0x40\n      mstore\n      dup1\n        /* \"Project.sol\":3941:3945  name */\n      dup5\n        /* \"Project.sol\":3932:3975  MetaData(name, email, profilePicture, 0, 0) */\n      dup2\n      mstore\n      0x20\n      add\n        /* \"Project.sol\":3947:3952  email */\n      dup4\n        /* \"Project.sol\":3932:3975  MetaData(name, email, profilePicture, 0, 0) */\n      dup2\n      mstore\n      0x20\n      add\n        /* \"Project.sol\":3954:3968  profilePicture */\n      dup3\n        /* \"Project.sol\":3932:3975  MetaData(name, email, profilePicture, 0, 0) */\n      dup2\n      mstore\n      0x20\n      add\n        /* \"Project.sol\":3970:3971  0 */\n      0x00\n        /* \"Project.sol\":3932:3975  MetaData(name, email, profilePicture, 0, 0) */\n      dup2\n      mstore\n      0x20\n      add\n        /* \"Project.sol\":3973:3974  0 */\n      0x00\n        /* \"Project.sol\":3932:3975  MetaData(name, email, profilePicture, 0, 0) */\n      dup2\n      mstore\n      pop\n        /* \"Project.sol\":3908:3917  metadatas */\n      0x03\n        /* \"Project.sol\":3908:3929  metadatas[msg.sender] */\n      0x00\n        /* \"Project.sol\":3918:3928  msg.sender */\n      caller\n        /* \"Project.sol\":3908:3929  metadatas[msg.sender] */\n      0xffffffffffffffffffffffffffffffffffffffff\n      and\n      0xffffffffffffffffffffffffffffffffffffffff\n      and\n      dup2\n      mstore\n      0x20\n      add\n      swap1\n      dup2\n      mstore\n      0x20\n      add\n      0x00\n      keccak256\n        /* \"Project.sol\":3908:3975  metadatas[msg.sender] = MetaData(name, email, profilePicture, 0, 0) */\n      0x00\n      dup3\n      add\n      mload\n      dup2\n      0x00\n      add\n      swap1\n      dup2\n      tag_81\n      swap2\n      swap1\n      tag_63\n      jump\t// in\n    tag_81:\n      pop\n      0x20\n      dup3\n      add\n      mload\n      dup2\n      0x01\n      add\n      swap1\n      dup2\n      tag_82\n      swap2\n      swap1\n      tag_63\n      jump\t// in\n    tag_82:\n      pop\n      0x40\n      dup3\n      add\n      mload\n      dup2\n      0x02\n      add\n      swap1\n      dup2\n      tag_83\n      swap2\n      swap1\n      tag_63\n      jump\t// in\n    tag_83:\n      pop\n      0x60\n      dup3\n      add\n      mload\n      dup2\n      0x03\n      add\n      sstore\n      0x80\n      dup3\n      add\n      mload\n      dup2\n      0x04\n      add\n      sstore\n      swap1\n      pop\n      pop\n        /* \"Project.sol\":4003:4013  msg.sender */\n      caller\n        /* \"Project.sol\":3991:4043  SetMetaData(msg.sender, name, email, profilePicture) */\n      0xffffffffffffffffffffffffffffffffffffffff\n      and\n      0x65d0ee13464c98c4cc59b1e8669c3b1e26d6ccc62ec1811070773f0c7903df2f\n        /* \"Project.sol\":4015:4019  name */\n      dup5\n        /* \"Project.sol\":4021:4026  email */\n      dup5\n        /* \"Project.sol\":4028:4042  profilePicture */\n      dup5\n        /* \"Project.sol\":3991:4043  SetMetaData(msg.sender, name, email, profilePicture) */\n      mload(0x40)\n      tag_84\n      swap4\n      swap3\n      swap2\n      swap1\n      tag_85\n      jump\t// in\n    tag_84:\n      mload(0x40)\n      dup1\n      swap2\n      sub\n      swap1\n      log2\n        /* \"Project.sol\":3394:4050  function setMetadata(... */\n      pop\n      pop\n      pop\n      jump\t// out\n        /* \"Project.sol\":2815:3154  function createDID(string memory _identifier) public {... */\n    tag_25:\n        /* \"Project.sol\":2914:2915  0 */\n      0x00\n        /* \"Project.sol\":2892:2903  _identifier */\n      dup2\n        /* \"Project.sol\":2886:2911  bytes(_identifier).length */\n      mload\n        /* \"Project.sol\":2886:2915  bytes(_identifier).length > 0 */\n      gt\n        /* \"Project.sol\":2878:2946  require(bytes(_identifier).length > 0, \"Identifier cannot be empty\") */\n      tag_87\n      jumpi\n      mload(0x40)\n      0x08c379a000000000000000000000000000000000000000000000000000000000\n      dup2\n      mstore\n      0x04\n      add\n      tag_88\n      swap1\n      tag_89\n      jump\t// in\n    tag_88:\n      mload(0x40)\n      dup1\n      swap2\n      sub\n      swap1\n      revert\n    tag_87:\n        /* \"Project.sol\":2998:2999  0 */\n      0x00\n        /* \"Project.sol\":2964:3000  dids[msg.sender].owner == address(0) */\n      0xffffffffffffffffffffffffffffffffffffffff\n      and\n        /* \"Project.sol\":2964:2968  dids */\n      0x00\n        /* \"Project.sol\":2964:2980  dids[msg.sender] */\n      dup1\n        /* \"Project.sol\":2969:2979  msg.sender */\n      caller\n        /* \"Project.sol\":2964:2980  dids[msg.sender] */\n      0xffffffffffffffffffffffffffffffffffffffff\n      and\n      0xffffffffffffffffffffffffffffffffffffffff\n      and\n      dup2\n      mstore\n      0x20\n      add\n      swap1\n      dup2\n      mstore\n      0x20\n      add\n      0x00\n      keccak256\n        /* \"Project.sol\":2964:2986  dids[msg.sender].owner */\n      0x01\n      add\n      0x00\n      swap1\n      sload\n      swap1\n      0x0100\n      exp\n      swap1\n      div\n      0xffffffffffffffffffffffffffffffffffffffff\n      and\n        /* \"Project.sol\":2964:3000  dids[msg.sender].owner == address(0) */\n      0xffffffffffffffffffffffffffffffffffffffff\n      and\n      eq\n        /* \"Project.sol\":2956:3023  require(dids[msg.sender].owner == address(0), \"DID already exists\") */\n      tag_90\n      jumpi\n      mload(0x40)\n      0x08c379a000000000000000000000000000000000000000000000000000000000\n      dup2\n      mstore\n      0x04\n      add\n      tag_91\n      swap1\n      tag_92\n      jump\t// in\n    tag_91:\n      mload(0x40)\n      dup1\n      swap2\n      sub\n      swap1\n      revert\n    tag_90:\n        /* \"Project.sol\":3052:3097  DID(_identifier, msg.sender, block.timestamp) */\n      mload(0x40)\n      dup1\n      0x60\n      add\n      0x40\n      mstore\n      dup1\n        /* \"Project.sol\":3056:3067  _identifier */\n      dup3\n        /* \"Project.sol\":3052:3097  DID(_identifier, msg.sender, block.timestamp) */\n      dup2\n      mstore\n      0x20\n      add\n        /* \"Project.sol\":3069:3079  msg.sender */\n      caller\n        /* \"Project.sol\":3052:3097  DID(_identifier, msg.sender, block.timestamp) */\n      0xffffffffffffffffffffffffffffffffffffffff\n      and\n      dup2\n      mstore\n      0x20\n      add\n        /* \"Project.sol\":3081:3096  block.timestamp */\n      timestamp\n        /* \"Project.sol\":3052:3097  DID(_identifier, msg.sender, block.timestamp) */\n      dup2\n      mstore\n      pop\n        /* \"Project.sol\":3033:3037  dids */\n      0x00\n        /* \"Project.sol\":3033:3049  dids[msg.sender] */\n      dup1\n        /* \"Project.sol\":3038:3048  msg.sender */\n      caller\n        /* \"Project.sol\":3033:3049  dids[msg.sender] */\n      0xffffffffffffffffffffffffffffffffffffffff\n      and\n      0xffffffffffffffffffffffffffffffffffffffff\n      and\n      dup2\n      mstore\n      0x20\n      add\n      swap1\n      dup2\n      mstore\n      0x20\n      add\n      0x00\n      keccak256\n        /* \"Project.sol\":3033:3097  dids[msg.sender] = DID(_identifier, msg.sender, block.timestamp) */\n      0x00\n      dup3\n      add\n      mload\n      dup2\n      0x00\n      add\n      swap1\n      dup2\n      tag_93\n      swap2\n      swap1\n      tag_63\n      jump\t// in\n    tag_93:\n      pop\n      0x20\n      dup3\n      add\n      mload\n      dup2\n      0x01\n      add\n      exp(0x0100, 0x00)\n      dup2\n      sload\n      dup2\n      0xffffffffffffffffffffffffffffffffffffffff\n      mul\n      not\n      and\n      swap1\n      dup4\n      0xffffffffffffffffffffffffffffffffffffffff\n      and\n      mul\n      or\n      swap1\n      sstore\n      pop\n      0x40\n      dup3\n      add\n      mload\n      dup2\n      0x02\n      add\n      sstore\n      swap1\n      pop\n      pop\n        /* \"Project.sol\":3123:3133  msg.sender */\n      caller\n        /* \"Project.sol\":3112:3147  DIDCreated(msg.sender, _identifier) */\n      0xffffffffffffffffffffffffffffffffffffffff\n      and\n      0x1b7934654ba536b6962955e057ce42885353bbaad8c605a5ce0678e632f28410\n        /* \"Project.sol\":3135:3146  _identifier */\n      dup3\n        /* \"Project.sol\":3112:3147  DIDCreated(msg.sender, _identifier) */\n      mload(0x40)\n      tag_94\n      swap2\n      swap1\n      tag_40\n      jump\t// in\n    tag_94:\n      mload(0x40)\n      dup1\n      swap2\n      sub\n      swap1\n      log2\n        /* \"Project.sol\":2815:3154  function createDID(string memory _identifier) public {... */\n      pop\n      jump\t// out\n        /* \"Project.sol\":4056:4240  function getMetadata() public view returns (MetaData memory) {... */\n    tag_27:\n        /* \"Project.sol\":4100:4115  MetaData memory */\n      tag_95\n      tag_96\n      jump\t// in\n    tag_95:\n        /* \"Project.sol\":4169:4170  0 */\n      0x00\n        /* \"Project.sol\":4135:4171  dids[msg.sender].owner != address(0) */\n      0xffffffffffffffffffffffffffffffffffffffff\n      and\n        /* \"Project.sol\":4135:4139  dids */\n      0x00\n        /* \"Project.sol\":4135:4151  dids[msg.sender] */\n      dup1\n        /* \"Project.sol\":4140:4150  msg.sender */\n      caller\n        /* \"Project.sol\":4135:4151  dids[msg.sender] */\n      0xffffffffffffffffffffffffffffffffffffffff\n      and\n      0xffffffffffffffffffffffffffffffffffffffff\n      and\n      dup2\n      mstore\n      0x20\n      add\n      swap1\n      dup2\n      mstore\n      0x20\n      add\n      0x00\n      keccak256\n        /* \"Project.sol\":4135:4157  dids[msg.sender].owner */\n      0x01\n      add\n      0x00\n      swap1\n      sload\n      swap1\n      0x0100\n      exp\n      swap1\n      div\n      0xffffffffffffffffffffffffffffffffffffffff\n      and\n        /* \"Project.sol\":4135:4171  dids[msg.sender].owner != address(0) */\n      0xffffffffffffffffffffffffffffffffffffffff\n      and\n      sub\n        /* \"Project.sol\":4127:4195  require(dids[msg.sender].owner != address(0), \"Data does not exist\") */\n      tag_98\n      jumpi\n      mload(0x40)\n      0x08c379a000000000000000000000000000000000000000000000000000000000\n      dup2\n      mstore\n      0x04\n      add\n      tag_99\n      swap1\n      tag_100\n      jump\t// in\n    tag_99:\n      mload(0x40)\n      dup1\n      swap2\n      sub\n      swap1\n      revert\n    tag_98:\n        /* \"Project.sol\":4212:4221  metadatas */\n      0x03\n        /* \"Project.sol\":4212:4233  metadatas[msg.sender] */\n      0x00\n        /* \"Project.sol\":4222:4232  msg.sender */\n      caller\n        /* \"Project.sol\":4212:4233  metadatas[msg.sender] */\n      0xffffffffffffffffffffffffffffffffffffffff\n      and\n      0xffffffffffffffffffffffffffffffffffffffff\n      and\n      dup2\n      mstore\n      0x20\n      add\n      swap1\n      dup2\n      mstore\n      0x20\n      add\n      0x00\n      keccak256\n        /* \"Project.sol\":4205:4233  return metadatas[msg.sender] */\n      mload(0x40)\n      dup1\n      0xa0\n      add\n      0x40\n      mstore\n      swap1\n      dup2\n      0x00\n      dup3\n      add\n      dup1\n      sload\n      tag_101\n      swap1\n      tag_102\n      jump\t// in\n    tag_101:\n      dup1\n      0x1f\n      add\n      0x20\n      dup1\n      swap2\n      div\n      mul\n      0x20\n      add\n      mload(0x40)\n      swap1\n      dup2\n      add\n      0x40\n      mstore\n      dup1\n      swap3\n      swap2\n      swap1\n      dup2\n      dup2\n      mstore\n      0x20\n      add\n      dup3\n      dup1\n      sload\n      tag_103\n      swap1\n      tag_102\n      jump\t// in\n    tag_103:\n      dup1\n      iszero\n      tag_104\n      jumpi\n      dup1\n      0x1f\n      lt\n      tag_105\n      jumpi\n      0x0100\n      dup1\n      dup4\n      sload\n      div\n      mul\n      dup4\n      mstore\n      swap2\n      0x20\n      add\n      swap2\n      jump(tag_104)\n    tag_105:\n      dup3\n      add\n      swap2\n      swap1\n      0x00\n      mstore\n      keccak256(0x00, 0x20)\n      swap1\n    tag_106:\n      dup2\n      sload\n      dup2\n      mstore\n      swap1\n      0x01\n      add\n      swap1\n      0x20\n      add\n      dup1\n      dup4\n      gt\n      tag_106\n      jumpi\n      dup3\n      swap1\n      sub\n      0x1f\n      and\n      dup3\n      add\n      swap2\n    tag_104:\n      pop\n      pop\n      pop\n      pop\n      pop\n      dup2\n      mstore\n      0x20\n      add\n      0x01\n      dup3\n      add\n      dup1\n      sload\n      tag_107\n      swap1\n      tag_102\n      jump\t// in\n    tag_107:\n      dup1\n      0x1f\n      add\n      0x20\n      dup1\n      swap2\n      div\n      mul\n      0x20\n      add\n      mload(0x40)\n      swap1\n      dup2\n      add\n      0x40\n      mstore\n      dup1\n      swap3\n      swap2\n      swap1\n      dup2\n      dup2\n      mstore\n      0x20\n      add\n      dup3\n      dup1\n      sload\n      tag_108\n      swap1\n      tag_102\n      jump\t// in\n    tag_108:\n      dup1\n      iszero\n      tag_109\n      jumpi\n      dup1\n      0x1f\n      lt\n      tag_110\n      jumpi\n      0x0100\n      dup1\n      dup4\n      sload\n      div\n      mul\n      dup4\n      mstore\n      swap2\n      0x20\n      add\n      swap2\n      jump(tag_109)\n    tag_110:\n      dup3\n      add\n      swap2\n      swap1\n      0x00\n      mstore\n      keccak256(0x00, 0x20)\n      swap1\n    tag_111:\n      dup2\n      sload\n      dup2\n      mstore\n      swap1\n      0x01\n      add\n      swap1\n      0x20\n      add\n      dup1\n      dup4\n      gt\n      tag_111\n      jumpi\n      dup3\n      swap1\n      sub\n      0x1f\n      and\n      dup3\n      add\n      swap2\n    tag_109:\n      pop\n      pop\n      pop\n      pop\n      pop\n      dup2\n      mstore\n      0x20\n      add\n      0x02\n      dup3\n      add\n      dup1\n      sload\n      tag_112\n      swap1\n      tag_102\n      jump\t// in\n    tag_112:\n      dup1\n      0x1f\n      add\n      0x20\n      dup1\n      swap2\n      div\n      mul\n      0x20\n      add\n      mload(0x40)\n      swap1\n      dup2\n      add\n      0x40\n      mstore\n      dup1\n      swap3\n      swap2\n      swap1\n      dup2\n      dup2\n      mstore\n      0x20\n      add\n      dup3\n      dup1\n      sload\n      tag_113\n      swap1\n      tag_102\n      jump\t// in\n    tag_113:\n      dup1\n      iszero\n      tag_114\n      jumpi\n      dup1\n      0x1f\n      lt\n      tag_115\n      jumpi\n      0x0100\n      dup1\n      dup4\n      sload\n      div\n      mul\n      dup4\n      mstore\n      swap2\n      0x20\n      add\n      swap2\n      jump(tag_114)\n    tag_115:\n      dup3\n      add\n      swap2\n      swap1\n      0x00\n      mstore\n      keccak256(0x00, 0x20)\n      swap1\n    tag_116:\n      dup2\n      sload\n      dup2\n      mstore\n      swap1\n      0x01\n      add\n      swap1\n      0x20\n      add\n      dup1\n      dup4\n      gt\n      tag_116\n      jumpi\n      dup3\n      swap1\n      sub\n      0x1f\n      and\n      dup3\n      add\n      swap2\n    tag_114:\n      pop\n      pop\n      pop\n      pop\n      pop\n      dup2\n      mstore\n      0x20\n      add\n      0x03\n      dup3\n      add\n      sload\n      dup2\n      mstore\n      0x20\n      add\n      0x04\n      dup3\n      add\n      sload\n      dup2\n      mstore\n      pop\n      pop\n      swap1\n      pop\n        /* \"Project.sol\":4056:4240  function getMetadata() public view returns (MetaData memory) {... */\n      swap1\n      jump\t// out\n        /* \"Project.sol\":5298:5869  function gradeTest(... */\n    tag_33:\n        /* \"Project.sol\":5454:5455  0 */\n      0x00\n        /* \"Project.sol\":5420:5456  dids[msg.sender].owner != address(0) */\n      0xffffffffffffffffffffffffffffffffffffffff\n      and\n        /* \"Project.sol\":5420:5424  dids */\n      0x00\n        /* \"Project.sol\":5420:5436  dids[msg.sender] */\n      dup1\n        /* \"Project.sol\":5425:5435  msg.sender */\n      caller\n        /* \"Project.sol\":5420:5436  dids[msg.sender] */\n      0xffffffffffffffffffffffffffffffffffffffff\n      and\n      0xffffffffffffffffffffffffffffffffffffffff\n      and\n      dup2\n      mstore\n      0x20\n      add\n      swap1\n      dup2\n      mstore\n      0x20\n      add\n      0x00\n      keccak256\n        /* \"Project.sol\":5420:5442  dids[msg.sender].owner */\n      0x01\n      add\n      0x00\n      swap1\n      sload\n      swap1\n      0x0100\n      exp\n      swap1\n      div\n      0xffffffffffffffffffffffffffffffffffffffff\n      and\n        /* \"Project.sol\":5420:5456  dids[msg.sender].owner != address(0) */\n      0xffffffffffffffffffffffffffffffffffffffff\n      and\n      sub\n        /* \"Project.sol\":5412:5483  require(dids[msg.sender].owner != address(0), \"Issuer must have a DID\") */\n      tag_118\n      jumpi\n      mload(0x40)\n      0x08c379a000000000000000000000000000000000000000000000000000000000\n      dup2\n      mstore\n      0x04\n      add\n      tag_119\n      swap1\n      tag_55\n      jump\t// in\n    tag_119:\n      mload(0x40)\n      dup1\n      swap2\n      sub\n      swap1\n      revert\n    tag_118:\n        /* \"Project.sol\":5513:5528  testSubmissions */\n      0x05\n        /* \"Project.sol\":5513:5534  testSubmissions[user] */\n      0x00\n        /* \"Project.sol\":5529:5533  user */\n      dup5\n        /* \"Project.sol\":5513:5534  testSubmissions[user] */\n      0xffffffffffffffffffffffffffffffffffffffff\n      and\n      0xffffffffffffffffffffffffffffffffffffffff\n      and\n      dup2\n      mstore\n      0x20\n      add\n      swap1\n      dup2\n      mstore\n      0x20\n      add\n      0x00\n      keccak256\n        /* \"Project.sol\":5513:5541  testSubmissions[user].length */\n      dup1\n      sload\n      swap1\n      pop\n        /* \"Project.sol\":5501:5510  testIndex */\n      dup3\n        /* \"Project.sol\":5501:5541  testIndex < testSubmissions[user].length */\n      lt\n        /* \"Project.sol\":5493:5564  require(testIndex < testSubmissions[user].length, \"Invalid test index\") */\n      tag_120\n      jumpi\n      mload(0x40)\n      0x08c379a000000000000000000000000000000000000000000000000000000000\n      dup2\n      mstore\n      0x04\n      add\n      tag_121\n      swap1\n      tag_122\n      jump\t// in\n    tag_121:\n      mload(0x40)\n      dup1\n      swap2\n      sub\n      swap1\n      revert\n    tag_120:\n        /* \"Project.sol\":5583:5598  testSubmissions */\n      0x05\n        /* \"Project.sol\":5583:5604  testSubmissions[user] */\n      0x00\n        /* \"Project.sol\":5599:5603  user */\n      dup5\n        /* \"Project.sol\":5583:5604  testSubmissions[user] */\n      0xffffffffffffffffffffffffffffffffffffffff\n      and\n      0xffffffffffffffffffffffffffffffffffffffff\n      and\n      dup2\n      mstore\n      0x20\n      add\n      swap1\n      dup2\n      mstore\n      0x20\n      add\n      0x00\n      keccak256\n        /* \"Project.sol\":5605:5614  testIndex */\n      dup3\n        /* \"Project.sol\":5583:5615  testSubmissions[user][testIndex] */\n      dup2\n      sload\n      dup2\n      lt\n      tag_123\n      jumpi\n      tag_124\n      tag_125\n      jump\t// in\n    tag_124:\n    tag_123:\n      swap1\n      0x00\n      mstore\n      keccak256(0x00, 0x20)\n      swap1\n      0x04\n      mul\n      add\n        /* \"Project.sol\":5583:5622  testSubmissions[user][testIndex].graded */\n      0x03\n      add\n      0x00\n      swap1\n      sload\n      swap1\n      0x0100\n      exp\n      swap1\n      div\n      0xff\n      and\n        /* \"Project.sol\":5582:5622  !testSubmissions[user][testIndex].graded */\n      iszero\n        /* \"Project.sol\":5574:5646  require(!testSubmissions[user][testIndex].graded, \"Test already graded\") */\n      tag_127\n      jumpi\n      mload(0x40)\n      0x08c379a000000000000000000000000000000000000000000000000000000000\n      dup2\n      mstore\n      0x04\n      add\n      tag_128\n      swap1\n      tag_129\n      jump\t// in\n    tag_128:\n      mload(0x40)\n      dup1\n      swap2\n      sub\n      swap1\n      revert\n    tag_127:\n        /* \"Project.sol\":5698:5703  grade */\n      dup1\n        /* \"Project.sol\":5657:5672  testSubmissions */\n      0x05\n        /* \"Project.sol\":5657:5678  testSubmissions[user] */\n      0x00\n        /* \"Project.sol\":5673:5677  user */\n      dup6\n        /* \"Project.sol\":5657:5678  testSubmissions[user] */\n      0xffffffffffffffffffffffffffffffffffffffff\n      and\n      0xffffffffffffffffffffffffffffffffffffffff\n      and\n      dup2\n      mstore\n      0x20\n      add\n      swap1\n      dup2\n      mstore\n      0x20\n      add\n      0x00\n      keccak256\n        /* \"Project.sol\":5679:5688  testIndex */\n      dup4\n        /* \"Project.sol\":5657:5689  testSubmissions[user][testIndex] */\n      dup2\n      sload\n      dup2\n      lt\n      tag_130\n      jumpi\n      tag_131\n      tag_125\n      jump\t// in\n    tag_131:\n    tag_130:\n      swap1\n      0x00\n      mstore\n      keccak256(0x00, 0x20)\n      swap1\n      0x04\n      mul\n      add\n        /* \"Project.sol\":5657:5695  testSubmissions[user][testIndex].grade */\n      0x02\n      add\n        /* \"Project.sol\":5657:5703  testSubmissions[user][testIndex].grade = grade */\n      dup2\n      swap1\n      sstore\n      pop\n        /* \"Project.sol\":5755:5759  true */\n      0x01\n        /* \"Project.sol\":5713:5728  testSubmissions */\n      0x05\n        /* \"Project.sol\":5713:5734  testSubmissions[user] */\n      0x00\n        /* \"Project.sol\":5729:5733  user */\n      dup6\n        /* \"Project.sol\":5713:5734  testSubmissions[user] */\n      0xffffffffffffffffffffffffffffffffffffffff\n      and\n      0xffffffffffffffffffffffffffffffffffffffff\n      and\n      dup2\n      mstore\n      0x20\n      add\n      swap1\n      dup2\n      mstore\n      0x20\n      add\n      0x00\n      keccak256\n        /* \"Project.sol\":5735:5744  testIndex */\n      dup4\n        /* \"Project.sol\":5713:5745  testSubmissions[user][testIndex] */\n      dup2\n      sload\n      dup2\n      lt\n      tag_133\n      jumpi\n      tag_134\n      tag_125\n      jump\t// in\n    tag_134:\n    tag_133:\n      swap1\n      0x00\n      mstore\n      keccak256(0x00, 0x20)\n      swap1\n      0x04\n      mul\n      add\n        /* \"Project.sol\":5713:5752  testSubmissions[user][testIndex].graded */\n      0x03\n      add\n      0x00\n        /* \"Project.sol\":5713:5759  testSubmissions[user][testIndex].graded = true */\n      0x0100\n      exp\n      dup2\n      sload\n      dup2\n      0xff\n      mul\n      not\n      and\n      swap1\n      dup4\n      iszero\n      iszero\n      mul\n      or\n      swap1\n      sstore\n      pop\n        /* \"Project.sol\":5801:5806  grade */\n      dup1\n        /* \"Project.sol\":5769:5778  metadatas */\n      0x03\n        /* \"Project.sol\":5769:5784  metadatas[user] */\n      0x00\n        /* \"Project.sol\":5779:5783  user */\n      dup6\n        /* \"Project.sol\":5769:5784  metadatas[user] */\n      0xffffffffffffffffffffffffffffffffffffffff\n      and\n      0xffffffffffffffffffffffffffffffffffffffff\n      and\n      dup2\n      mstore\n      0x20\n      add\n      swap1\n      dup2\n      mstore\n      0x20\n      add\n      0x00\n      keccak256\n        /* \"Project.sol\":5769:5798  metadatas[user].lastTestScore */\n      0x04\n      add\n        /* \"Project.sol\":5769:5806  metadatas[user].lastTestScore = grade */\n      dup2\n      swap1\n      sstore\n      pop\n        /* \"Project.sol\":5833:5837  user */\n      dup3\n        /* \"Project.sol\":5822:5862  TestGraded(user, grade, block.timestamp) */\n      0xffffffffffffffffffffffffffffffffffffffff\n      and\n      0x209c5757f1301fd786e1870f9a0a61aee25af7d7b1a9c3940a421b72b68cae26\n        /* \"Project.sol\":5839:5844  grade */\n      dup3\n        /* \"Project.sol\":5846:5861  block.timestamp */\n      timestamp\n        /* \"Project.sol\":5822:5862  TestGraded(user, grade, block.timestamp) */\n      mload(0x40)\n      tag_136\n      swap3\n      swap2\n      swap1\n      tag_137\n      jump\t// in\n    tag_136:\n      mload(0x40)\n      dup1\n      swap2\n      sub\n      swap1\n      log2\n        /* \"Project.sol\":5298:5869  function gradeTest(... */\n      pop\n      pop\n      pop\n      jump\t// out\n        /* \"Project.sol\":1864:2248  function assignRole(address _user, string memory _role) public {... */\n    tag_36:\n        /* \"Project.sol\":1979:1980  0 */\n      0x00\n        /* \"Project.sol\":1945:1981  dids[msg.sender].owner != address(0) */\n      0xffffffffffffffffffffffffffffffffffffffff\n      and\n        /* \"Project.sol\":1945:1949  dids */\n      0x00\n        /* \"Project.sol\":1945:1961  dids[msg.sender] */\n      dup1\n        /* \"Project.sol\":1950:1960  msg.sender */\n      caller\n        /* \"Project.sol\":1945:1961  dids[msg.sender] */\n      0xffffffffffffffffffffffffffffffffffffffff\n      and\n      0xffffffffffffffffffffffffffffffffffffffff\n      and\n      dup2\n      mstore\n      0x20\n      add\n      swap1\n      dup2\n      mstore\n      0x20\n      add\n      0x00\n      keccak256\n        /* \"Project.sol\":1945:1967  dids[msg.sender].owner */\n      0x01\n      add\n      0x00\n      swap1\n      sload\n      swap1\n      0x0100\n      exp\n      swap1\n      div\n      0xffffffffffffffffffffffffffffffffffffffff\n      and\n        /* \"Project.sol\":1945:1981  dids[msg.sender].owner != address(0) */\n      0xffffffffffffffffffffffffffffffffffffffff\n      and\n      sub\n        /* \"Project.sol\":1937:2008  require(dids[msg.sender].owner != address(0), \"Issuer must have a DID\") */\n      tag_139\n      jumpi\n      mload(0x40)\n      0x08c379a000000000000000000000000000000000000000000000000000000000\n      dup2\n      mstore\n      0x04\n      add\n      tag_140\n      swap1\n      tag_55\n      jump\t// in\n    tag_140:\n      mload(0x40)\n      dup1\n      swap2\n      sub\n      swap1\n      revert\n    tag_139:\n        /* \"Project.sol\":2048:2049  0 */\n      0x00\n        /* \"Project.sol\":2032:2037  _role */\n      dup2\n        /* \"Project.sol\":2026:2045  bytes(_role).length */\n      mload\n        /* \"Project.sol\":2026:2049  bytes(_role).length > 0 */\n      gt\n        /* \"Project.sol\":2018:2074  require(bytes(_role).length > 0, \"Role cannot be empty\") */\n      tag_141\n      jumpi\n      mload(0x40)\n      0x08c379a000000000000000000000000000000000000000000000000000000000\n      dup2\n      mstore\n      0x04\n      add\n      tag_142\n      swap1\n      tag_58\n      jump\t// in\n    tag_142:\n      mload(0x40)\n      dup1\n      swap2\n      sub\n      swap1\n      revert\n    tag_141:\n        /* \"Project.sol\":2099:2104  _role */\n      dup1\n        /* \"Project.sol\":2084:2089  roles */\n      0x01\n        /* \"Project.sol\":2084:2096  roles[_user] */\n      0x00\n        /* \"Project.sol\":2090:2095  _user */\n      dup5\n        /* \"Project.sol\":2084:2096  roles[_user] */\n      0xffffffffffffffffffffffffffffffffffffffff\n      and\n      0xffffffffffffffffffffffffffffffffffffffff\n      and\n      dup2\n      mstore\n      0x20\n      add\n      swap1\n      dup2\n      mstore\n      0x20\n      add\n      0x00\n      keccak256\n        /* \"Project.sol\":2084:2104  roles[_user] = _role */\n      swap1\n      dup2\n      tag_143\n      swap2\n      swap1\n      tag_63\n      jump\t// in\n    tag_143:\n      pop\n        /* \"Project.sol\":2172:2183  roleHistory */\n      0x02\n        /* \"Project.sol\":2172:2190  roleHistory[_user] */\n      0x00\n        /* \"Project.sol\":2184:2189  _user */\n      dup4\n        /* \"Project.sol\":2172:2190  roleHistory[_user] */\n      0xffffffffffffffffffffffffffffffffffffffff\n      and\n      0xffffffffffffffffffffffffffffffffffffffff\n      and\n      dup2\n      mstore\n      0x20\n      add\n      swap1\n      dup2\n      mstore\n      0x20\n      add\n      0x00\n      keccak256\n        /* \"Project.sol\":2196:2201  _role */\n      dup2\n        /* \"Project.sol\":2172:2202  roleHistory[_user].push(_role) */\n      swap1\n      dup1\n      0x01\n      dup2\n      sload\n      add\n      dup1\n      dup3\n      sstore\n      dup1\n      swap2\n      pop\n      pop\n      0x01\n      swap1\n      sub\n      swap1\n      0x00\n      mstore\n      keccak256(0x00, 0x20)\n      add\n      0x00\n      swap1\n      swap2\n      swap1\n      swap2\n      swap1\n      swap2\n      pop\n      swap1\n      dup2\n      tag_145\n      swap2\n      swap1\n      tag_63\n      jump\t// in\n    tag_145:\n      pop\n        /* \"Project.sol\":2228:2233  _user */\n      dup2\n        /* \"Project.sol\":2217:2241  RoleAssign(_user, _role) */\n      0xffffffffffffffffffffffffffffffffffffffff\n      and\n      0x955a8164e26d3082026a4713bbcc2102183cd483ccf49d50cc35fb4e97d540d0\n        /* \"Project.sol\":2235:2240  _role */\n      dup3\n        /* \"Project.sol\":2217:2241  RoleAssign(_user, _role) */\n      mload(0x40)\n      tag_146\n      swap2\n      swap1\n      tag_40\n      jump\t// in\n    tag_146:\n      mload(0x40)\n      dup1\n      swap2\n      sub\n      swap1\n      log2\n        /* \"Project.sol\":1864:2248  function assignRole(address _user, string memory _role) public {... */\n      pop\n      pop\n      jump\t// out\n        /* \"Project.sol\":3160:3388  function getDID() public view returns (string memory) {... */\n    tag_38:\n        /* \"Project.sol\":3199:3212  string memory */\n      0x60\n        /* \"Project.sol\":3279:3280  0 */\n      0x00\n        /* \"Project.sol\":3245:3281  dids[msg.sender].owner != address(0) */\n      0xffffffffffffffffffffffffffffffffffffffff\n      and\n        /* \"Project.sol\":3245:3249  dids */\n      0x00\n        /* \"Project.sol\":3245:3261  dids[msg.sender] */\n      dup1\n        /* \"Project.sol\":3250:3260  msg.sender */\n      caller\n        /* \"Project.sol\":3245:3261  dids[msg.sender] */\n      0xffffffffffffffffffffffffffffffffffffffff\n      and\n      0xffffffffffffffffffffffffffffffffffffffff\n      and\n      dup2\n      mstore\n      0x20\n      add\n      swap1\n      dup2\n      mstore\n      0x20\n      add\n      0x00\n      keccak256\n        /* \"Project.sol\":3245:3267  dids[msg.sender].owner */\n      0x01\n      add\n      0x00\n      swap1\n      sload\n      swap1\n      0x0100\n      exp\n      swap1\n      div\n      0xffffffffffffffffffffffffffffffffffffffff\n      and\n        /* \"Project.sol\":3245:3281  dids[msg.sender].owner != address(0) */\n      0xffffffffffffffffffffffffffffffffffffffff\n      and\n      sub\n        /* \"Project.sol\":3224:3336  require(... */\n      tag_148\n      jumpi\n      mload(0x40)\n      0x08c379a000000000000000000000000000000000000000000000000000000000\n      dup2\n      mstore\n      0x04\n      add\n      tag_149\n      swap1\n      tag_71\n      jump\t// in\n    tag_149:\n      mload(0x40)\n      dup1\n      swap2\n      sub\n      swap1\n      revert\n    tag_148:\n        /* \"Project.sol\":3354:3358  dids */\n      0x00\n        /* \"Project.sol\":3354:3370  dids[msg.sender] */\n      dup1\n        /* \"Project.sol\":3359:3369  msg.sender */\n      caller\n        /* \"Project.sol\":3354:3370  dids[msg.sender] */\n      0xffffffffffffffffffffffffffffffffffffffff\n      and\n      0xffffffffffffffffffffffffffffffffffffffff\n      and\n      dup2\n      mstore\n      0x20\n      add\n      swap1\n      dup2\n      mstore\n      0x20\n      add\n      0x00\n      keccak256\n        /* \"Project.sol\":3354:3381  dids[msg.sender].identifier */\n      0x00\n      add\n        /* \"Project.sol\":3347:3381  return dids[msg.sender].identifier */\n      dup1\n      sload\n      tag_150\n      swap1\n      tag_102\n      jump\t// in\n    tag_150:\n      dup1\n      0x1f\n      add\n      0x20\n      dup1\n      swap2\n      div\n      mul\n      0x20\n      add\n      mload(0x40)\n      swap1\n      dup2\n      add\n      0x40\n      mstore\n      dup1\n      swap3\n      swap2\n      swap1\n      dup2\n      dup2\n      mstore\n      0x20\n      add\n      dup3\n      dup1\n      sload\n      tag_151\n      swap1\n      tag_102\n      jump\t// in\n    tag_151:\n      dup1\n      iszero\n      tag_152\n      jumpi\n      dup1\n      0x1f\n      lt\n      tag_153\n      jumpi\n      0x0100\n      dup1\n      dup4\n      sload\n      div\n      mul\n      dup4\n      mstore\n      swap2\n      0x20\n      add\n      swap2\n      jump(tag_152)\n    tag_153:\n      dup3\n      add\n      swap2\n      swap1\n      0x00\n      mstore\n      keccak256(0x00, 0x20)\n      swap1\n    tag_154:\n      dup2\n      sload\n      dup2\n      mstore\n      swap1\n      0x01\n      add\n      swap1\n      0x20\n      add\n      dup1\n      dup4\n      gt\n      tag_154\n      jumpi\n      dup3\n      swap1\n      sub\n      0x1f\n      and\n      dup3\n      add\n      swap2\n    tag_152:\n      pop\n      pop\n      pop\n      pop\n      pop\n      swap1\n      pop\n        /* \"Project.sol\":3160:3388  function getDID() public view returns (string memory) {... */\n      swap1\n      jump\t// out\n        /* \"Project.sol\":4766:5244  function submitTest(string memory answersHash) public {... */\n    tag_43:\n        /* \"Project.sol\":4872:4873  0 */\n      0x00\n        /* \"Project.sol\":4838:4874  dids[msg.sender].owner != address(0) */\n      0xffffffffffffffffffffffffffffffffffffffff\n      and\n        /* \"Project.sol\":4838:4842  dids */\n      0x00\n        /* \"Project.sol\":4838:4854  dids[msg.sender] */\n      dup1\n        /* \"Project.sol\":4843:4853  msg.sender */\n      caller\n        /* \"Project.sol\":4838:4854  dids[msg.sender] */\n      0xffffffffffffffffffffffffffffffffffffffff\n      and\n      0xffffffffffffffffffffffffffffffffffffffff\n      and\n      dup2\n      mstore\n      0x20\n      add\n      swap1\n      dup2\n      mstore\n      0x20\n      add\n      0x00\n      keccak256\n        /* \"Project.sol\":4838:4860  dids[msg.sender].owner */\n      0x01\n      add\n      0x00\n      swap1\n      sload\n      swap1\n      0x0100\n      exp\n      swap1\n      div\n      0xffffffffffffffffffffffffffffffffffffffff\n      and\n        /* \"Project.sol\":4838:4874  dids[msg.sender].owner != address(0) */\n      0xffffffffffffffffffffffffffffffffffffffff\n      and\n      sub\n        /* \"Project.sol\":4830:4908  require(dids[msg.sender].owner != address(0), \"No DID found for this address\") */\n      tag_156\n      jumpi\n      mload(0x40)\n      0x08c379a000000000000000000000000000000000000000000000000000000000\n      dup2\n      mstore\n      0x04\n      add\n      tag_157\n      swap1\n      tag_71\n      jump\t// in\n    tag_157:\n      mload(0x40)\n      dup1\n      swap2\n      sub\n      swap1\n      revert\n    tag_156:\n        /* \"Project.sol\":4954:4955  0 */\n      0x00\n        /* \"Project.sol\":4932:4943  answersHash */\n      dup2\n        /* \"Project.sol\":4926:4951  bytes(answersHash).length */\n      mload\n        /* \"Project.sol\":4926:4955  bytes(answersHash).length > 0 */\n      gt\n        /* \"Project.sol\":4918:4988  require(bytes(answersHash).length > 0, \"Answers hash cannot be empty\") */\n      tag_158\n      jumpi\n      mload(0x40)\n      0x08c379a000000000000000000000000000000000000000000000000000000000\n      dup2\n      mstore\n      0x04\n      add\n      tag_159\n      swap1\n      tag_160\n      jump\t// in\n    tag_159:\n      mload(0x40)\n      dup1\n      swap2\n      sub\n      swap1\n      revert\n    tag_158:\n        /* \"Project.sol\":4999:5014  testSubmissions */\n      0x05\n        /* \"Project.sol\":4999:5026  testSubmissions[msg.sender] */\n      0x00\n        /* \"Project.sol\":5015:5025  msg.sender */\n      caller\n        /* \"Project.sol\":4999:5026  testSubmissions[msg.sender] */\n      0xffffffffffffffffffffffffffffffffffffffff\n      and\n      0xffffffffffffffffffffffffffffffffffffffff\n      and\n      dup2\n      mstore\n      0x20\n      add\n      swap1\n      dup2\n      mstore\n      0x20\n      add\n      0x00\n      keccak256\n        /* \"Project.sol\":5045:5099  TestSubmission(answersHash, block.timestamp, 0, false) */\n      mload(0x40)\n      dup1\n      0x80\n      add\n      0x40\n      mstore\n      dup1\n        /* \"Project.sol\":5060:5071  answersHash */\n      dup4\n        /* \"Project.sol\":5045:5099  TestSubmission(answersHash, block.timestamp, 0, false) */\n      dup2\n      mstore\n      0x20\n      add\n        /* \"Project.sol\":5073:5088  block.timestamp */\n      timestamp\n        /* \"Project.sol\":5045:5099  TestSubmission(answersHash, block.timestamp, 0, false) */\n      dup2\n      mstore\n      0x20\n      add\n        /* \"Project.sol\":5090:5091  0 */\n      0x00\n        /* \"Project.sol\":5045:5099  TestSubmission(answersHash, block.timestamp, 0, false) */\n      dup2\n      mstore\n      0x20\n      add\n        /* \"Project.sol\":5093:5098  false */\n      0x00\n        /* \"Project.sol\":5045:5099  TestSubmission(answersHash, block.timestamp, 0, false) */\n      iszero\n      iszero\n      dup2\n      mstore\n      pop\n        /* \"Project.sol\":4999:5109  testSubmissions[msg.sender].push(... */\n      swap1\n      dup1\n      0x01\n      dup2\n      sload\n      add\n      dup1\n      dup3\n      sstore\n      dup1\n      swap2\n      pop\n      pop\n      0x01\n      swap1\n      sub\n      swap1\n      0x00\n      mstore\n      keccak256(0x00, 0x20)\n      swap1\n      0x04\n      mul\n      add\n      0x00\n      swap1\n      swap2\n      swap1\n      swap2\n      swap1\n      swap2\n      pop\n      0x00\n      dup3\n      add\n      mload\n      dup2\n      0x00\n      add\n      swap1\n      dup2\n      tag_162\n      swap2\n      swap1\n      tag_63\n      jump\t// in\n    tag_162:\n      pop\n      0x20\n      dup3\n      add\n      mload\n      dup2\n      0x01\n      add\n      sstore\n      0x40\n      dup3\n      add\n      mload\n      dup2\n      0x02\n      add\n      sstore\n      0x60\n      dup3\n      add\n      mload\n      dup2\n      0x03\n      add\n      exp(0x0100, 0x00)\n      dup2\n      sload\n      dup2\n      0xff\n      mul\n      not\n      and\n      swap1\n      dup4\n      iszero\n      iszero\n      mul\n      or\n      swap1\n      sstore\n      pop\n      pop\n      pop\n        /* \"Project.sol\":5165:5166  1 */\n      0x01\n        /* \"Project.sol\":5120:5129  metadatas */\n      0x03\n        /* \"Project.sol\":5120:5141  metadatas[msg.sender] */\n      0x00\n        /* \"Project.sol\":5130:5140  msg.sender */\n      caller\n        /* \"Project.sol\":5120:5141  metadatas[msg.sender] */\n      0xffffffffffffffffffffffffffffffffffffffff\n      and\n      0xffffffffffffffffffffffffffffffffffffffff\n      and\n      dup2\n      mstore\n      0x20\n      add\n      swap1\n      dup2\n      mstore\n      0x20\n      add\n      0x00\n      keccak256\n        /* \"Project.sol\":5120:5161  metadatas[msg.sender].totalTestsSubmitted */\n      0x03\n      add\n      0x00\n        /* \"Project.sol\":5120:5166  metadatas[msg.sender].totalTestsSubmitted += 1 */\n      dup3\n      dup3\n      sload\n      tag_163\n      swap2\n      swap1\n      tag_164\n      jump\t// in\n    tag_163:\n      swap3\n      pop\n      pop\n      dup2\n      swap1\n      sstore\n      pop\n        /* \"Project.sol\":5196:5206  msg.sender */\n      caller\n        /* \"Project.sol\":5182:5237  TestSubmitted(msg.sender, answersHash, block.timestamp) */\n      0xffffffffffffffffffffffffffffffffffffffff\n      and\n      0x6253da222cb28e9028c656200e285440d573c04aad5ce44901c38e3836276efe\n        /* \"Project.sol\":5208:5219  answersHash */\n      dup3\n        /* \"Project.sol\":5221:5236  block.timestamp */\n      timestamp\n        /* \"Project.sol\":5182:5237  TestSubmitted(msg.sender, answersHash, block.timestamp) */\n      mload(0x40)\n      tag_165\n      swap3\n      swap2\n      swap1\n      tag_166\n      jump\t// in\n    tag_165:\n      mload(0x40)\n      dup1\n      swap2\n      sub\n      swap1\n      log2\n        /* \"Project.sol\":4766:5244  function submitTest(string memory answersHash) public {... */\n      pop\n      jump\t// out\n        /* \"Project.sol\":5875:6090  function getTestSubmissions() public view returns (TestSubmission[] memory) {... */\n    tag_45:\n        /* \"Project.sol\":5926:5949  TestSubmission[] memory */\n      0x60\n        /* \"Project.sol\":6003:6004  0 */\n      0x00\n        /* \"Project.sol\":5969:6005  dids[msg.sender].owner != address(0) */\n      0xffffffffffffffffffffffffffffffffffffffff\n      and\n        /* \"Project.sol\":5969:5973  dids */\n      0x00\n        /* \"Project.sol\":5969:5985  dids[msg.sender] */\n      dup1\n        /* \"Project.sol\":5974:5984  msg.sender */\n      caller\n        /* \"Project.sol\":5969:5985  dids[msg.sender] */\n      0xffffffffffffffffffffffffffffffffffffffff\n      and\n      0xffffffffffffffffffffffffffffffffffffffff\n      and\n      dup2\n      mstore\n      0x20\n      add\n      swap1\n      dup2\n      mstore\n      0x20\n      add\n      0x00\n      keccak256\n        /* \"Project.sol\":5969:5991  dids[msg.sender].owner */\n      0x01\n      add\n      0x00\n      swap1\n      sload\n      swap1\n      0x0100\n      exp\n      swap1\n      div\n      0xffffffffffffffffffffffffffffffffffffffff\n      and\n        /* \"Project.sol\":5969:6005  dids[msg.sender].owner != address(0) */\n      0xffffffffffffffffffffffffffffffffffffffff\n      and\n      sub\n        /* \"Project.sol\":5961:6039  require(dids[msg.sender].owner != address(0), \"No DID found for this address\") */\n      tag_168\n      jumpi\n      mload(0x40)\n      0x08c379a000000000000000000000000000000000000000000000000000000000\n      dup2\n      mstore\n      0x04\n      add\n      tag_169\n      swap1\n      tag_71\n      jump\t// in\n    tag_169:\n      mload(0x40)\n      dup1\n      swap2\n      sub\n      swap1\n      revert\n    tag_168:\n        /* \"Project.sol\":6056:6071  testSubmissions */\n      0x05\n        /* \"Project.sol\":6056:6083  testSubmissions[msg.sender] */\n      0x00\n        /* \"Project.sol\":6072:6082  msg.sender */\n      caller\n        /* \"Project.sol\":6056:6083  testSubmissions[msg.sender] */\n      0xffffffffffffffffffffffffffffffffffffffff\n      and\n      0xffffffffffffffffffffffffffffffffffffffff\n      and\n      dup2\n      mstore\n      0x20\n      add\n      swap1\n      dup2\n      mstore\n      0x20\n      add\n      0x00\n      keccak256\n        /* \"Project.sol\":6049:6083  return testSubmissions[msg.sender] */\n      dup1\n      sload\n      dup1\n      0x20\n      mul\n      0x20\n      add\n      mload(0x40)\n      swap1\n      dup2\n      add\n      0x40\n      mstore\n      dup1\n      swap3\n      swap2\n      swap1\n      dup2\n      dup2\n      mstore\n      0x20\n      add\n      0x00\n      swap1\n    tag_170:\n      dup3\n      dup3\n      lt\n      iszero\n      tag_171\n      jumpi\n      dup4\n      dup3\n      swap1\n      0x00\n      mstore\n      keccak256(0x00, 0x20)\n      swap1\n      0x04\n      mul\n      add\n      mload(0x40)\n      dup1\n      0x80\n      add\n      0x40\n      mstore\n      swap1\n      dup2\n      0x00\n      dup3\n      add\n      dup1\n      sload\n      tag_173\n      swap1\n      tag_102\n      jump\t// in\n    tag_173:\n      dup1\n      0x1f\n      add\n      0x20\n      dup1\n      swap2\n      div\n      mul\n      0x20\n      add\n      mload(0x40)\n      swap1\n      dup2\n      add\n      0x40\n      mstore\n      dup1\n      swap3\n      swap2\n      swap1\n      dup2\n      dup2\n      mstore\n      0x20\n      add\n      dup3\n      dup1\n      sload\n      tag_174\n      swap1\n      tag_102\n      jump\t// in\n    tag_174:\n      dup1\n      iszero\n      tag_175\n      jumpi\n      dup1\n      0x1f\n      lt\n      tag_176\n      jumpi\n      0x0100\n      dup1\n      dup4\n      sload\n      div\n      mul\n      dup4\n      mstore\n      swap2\n      0x20\n      add\n      swap2\n      jump(tag_175)\n    tag_176:\n      dup3\n      add\n      swap2\n      swap1\n      0x00\n      mstore\n      keccak256(0x00, 0x20)\n      swap1\n    tag_177:\n      dup2\n      sload\n      dup2\n      mstore\n      swap1\n      0x01\n      add\n      swap1\n      0x20\n      add\n      dup1\n      dup4\n      gt\n      tag_177\n      jumpi\n      dup3\n      swap1\n      sub\n      0x1f\n      and\n      dup3\n      add\n      swap2\n    tag_175:\n      pop\n      pop\n      pop\n      pop\n      pop\n      dup2\n      mstore\n      0x20\n      add\n      0x01\n      dup3\n      add\n      sload\n      dup2\n      mstore\n      0x20\n      add\n      0x02\n      dup3\n      add\n      sload\n      dup2\n      mstore\n      0x20\n      add\n      0x03\n      dup3\n      add\n      0x00\n      swap1\n      sload\n      swap1\n      0x0100\n      exp\n      swap1\n      div\n      0xff\n      and\n      iszero\n      iszero\n      iszero\n      iszero\n      dup2\n      mstore\n      pop\n      pop\n      dup2\n      mstore\n      0x20\n      add\n      swap1\n      0x01\n      add\n      swap1\n      jump(tag_170)\n    tag_171:\n      pop\n      pop\n      pop\n      pop\n      swap1\n      pop\n        /* \"Project.sol\":5875:6090  function getTestSubmissions() public view returns (TestSubmission[] memory) {... */\n      swap1\n      jump\t// out\n        /* \"Project.sol\":4246:4697  function getRole() public view returns (string[] memory) {... */\n    tag_49:\n        /* \"Project.sol\":4286:4301  string[] memory */\n      0x60\n        /* \"Project.sol\":4514:4515  0 */\n      0x00\n        /* \"Project.sol\":4480:4516  dids[msg.sender].owner != address(0) */\n      0xffffffffffffffffffffffffffffffffffffffff\n      and\n        /* \"Project.sol\":4480:4484  dids */\n      0x00\n        /* \"Project.sol\":4480:4496  dids[msg.sender] */\n      dup1\n        /* \"Project.sol\":4485:4495  msg.sender */\n      caller\n        /* \"Project.sol\":4480:4496  dids[msg.sender] */\n      0xffffffffffffffffffffffffffffffffffffffff\n      and\n      0xffffffffffffffffffffffffffffffffffffffff\n      and\n      dup2\n      mstore\n      0x20\n      add\n      swap1\n      dup2\n      mstore\n      0x20\n      add\n      0x00\n      keccak256\n        /* \"Project.sol\":4480:4502  dids[msg.sender].owner */\n      0x01\n      add\n      0x00\n      swap1\n      sload\n      swap1\n      0x0100\n      exp\n      swap1\n      div\n      0xffffffffffffffffffffffffffffffffffffffff\n      and\n        /* \"Project.sol\":4480:4516  dids[msg.sender].owner != address(0) */\n      0xffffffffffffffffffffffffffffffffffffffff\n      and\n      sub\n        /* \"Project.sol\":4459:4571  require(... */\n      tag_179\n      jumpi\n      mload(0x40)\n      0x08c379a000000000000000000000000000000000000000000000000000000000\n      dup2\n      mstore\n      0x04\n      add\n      tag_180\n      swap1\n      tag_71\n      jump\t// in\n    tag_180:\n      mload(0x40)\n      dup1\n      swap2\n      sub\n      swap1\n      revert\n    tag_179:\n        /* \"Project.sol\":4623:4624  0 */\n      0x00\n        /* \"Project.sol\":4590:4601  roleHistory */\n      0x02\n        /* \"Project.sol\":4590:4613  roleHistory[msg.sender] */\n      0x00\n        /* \"Project.sol\":4602:4612  msg.sender */\n      caller\n        /* \"Project.sol\":4590:4613  roleHistory[msg.sender] */\n      0xffffffffffffffffffffffffffffffffffffffff\n      and\n      0xffffffffffffffffffffffffffffffffffffffff\n      and\n      dup2\n      mstore\n      0x20\n      add\n      swap1\n      dup2\n      mstore\n      0x20\n      add\n      0x00\n      keccak256\n        /* \"Project.sol\":4590:4620  roleHistory[msg.sender].length */\n      dup1\n      sload\n      swap1\n      pop\n        /* \"Project.sol\":4590:4624  roleHistory[msg.sender].length > 0 */\n      gt\n        /* \"Project.sol\":4582:4650  require(roleHistory[msg.sender].length > 0, \"No roles assigned yet\") */\n      tag_181\n      jumpi\n      mload(0x40)\n      0x08c379a000000000000000000000000000000000000000000000000000000000\n      dup2\n      mstore\n      0x04\n      add\n      tag_182\n      swap1\n      tag_183\n      jump\t// in\n    tag_182:\n      mload(0x40)\n      dup1\n      swap2\n      sub\n      swap1\n      revert\n    tag_181:\n        /* \"Project.sol\":4667:4678  roleHistory */\n      0x02\n        /* \"Project.sol\":4667:4690  roleHistory[msg.sender] */\n      0x00\n        /* \"Project.sol\":4679:4689  msg.sender */\n      caller\n        /* \"Project.sol\":4667:4690  roleHistory[msg.sender] */\n      0xffffffffffffffffffffffffffffffffffffffff\n      and\n      0xffffffffffffffffffffffffffffffffffffffff\n      and\n      dup2\n      mstore\n      0x20\n      add\n      swap1\n      dup2\n      mstore\n      0x20\n      add\n      0x00\n      keccak256\n        /* \"Project.sol\":4660:4690  return roleHistory[msg.sender] */\n      dup1\n      sload\n      dup1\n      0x20\n      mul\n      0x20\n      add\n      mload(0x40)\n      swap1\n      dup2\n      add\n      0x40\n      mstore\n      dup1\n      swap3\n      swap2\n      swap1\n      dup2\n      dup2\n      mstore\n      0x20\n      add\n      0x00\n      swap1\n    tag_184:\n      dup3\n      dup3\n      lt\n      iszero\n      tag_185\n      jumpi\n      dup4\n      dup3\n      swap1\n      0x00\n      mstore\n      keccak256(0x00, 0x20)\n      add\n      dup1\n      sload\n      tag_187\n      swap1\n      tag_102\n      jump\t// in\n    tag_187:\n      dup1\n      0x1f\n      add\n      0x20\n      dup1\n      swap2\n      div\n      mul\n      0x20\n      add\n      mload(0x40)\n      swap1\n      dup2\n      add\n      0x40\n      mstore\n      dup1\n      swap3\n      swap2\n      swap1\n      dup2\n      dup2\n      mstore\n      0x20\n      add\n      dup3\n      dup1\n      sload\n      tag_188\n      swap1\n      tag_102\n      jump\t// in\n    tag_188:\n      dup1\n      iszero\n      tag_189\n      jumpi\n      dup1\n      0x1f\n      lt\n      tag_190\n      jumpi\n      0x0100\n      dup1\n      dup4\n      sload\n      div\n      mul\n      dup4\n      mstore\n      swap2\n      0x20\n      add\n      swap2\n      jump(tag_189)\n    tag_190:\n      dup3\n      add\n      swap2\n      swap1\n      0x00\n      mstore\n      keccak256(0x00, 0x20)\n      swap1\n    tag_191:\n      dup2\n      sload\n      dup2\n      mstore\n      swap1\n      0x01\n      add\n      swap1\n      0x20\n      add\n      dup1\n      dup4\n      gt\n      tag_191\n      jumpi\n      dup3\n      swap1\n      sub\n      0x1f\n      and\n      dup3\n      add\n      swap2\n    tag_189:\n      pop\n      pop\n      pop\n      pop\n      pop\n      dup2\n      mstore\n      0x20\n      add\n      swap1\n      0x01\n      add\n      swap1\n      jump(tag_184)\n    tag_185:\n      pop\n      pop\n      pop\n      pop\n      swap1\n      pop\n        /* \"Project.sol\":4246:4697  function getRole() public view returns (string[] memory) {... */\n      swap1\n      jump\t// out\n    tag_96:\n      mload(0x40)\n      dup1\n      0xa0\n      add\n      0x40\n      mstore\n      dup1\n      0x60\n      dup2\n      mstore\n      0x20\n      add\n      0x60\n      dup2\n      mstore\n      0x20\n      add\n      0x60\n      dup2\n      mstore\n      0x20\n      add\n      0x00\n      dup2\n      mstore\n      0x20\n      add\n      0x00\n      dup2\n      mstore\n      pop\n      swap1\n      jump\t// out\n        /* \"#utility.yul\":7:82   */\n    tag_192:\n        /* \"#utility.yul\":40:46   */\n      0x00\n        /* \"#utility.yul\":73:75   */\n      0x40\n        /* \"#utility.yul\":67:76   */\n      mload\n        /* \"#utility.yul\":57:76   */\n      swap1\n      pop\n        /* \"#utility.yul\":7:82   */\n      swap1\n      jump\t// out\n        /* \"#utility.yul\":88:205   */\n    tag_193:\n        /* \"#utility.yul\":197:198   */\n      0x00\n        /* \"#utility.yul\":194:195   */\n      dup1\n        /* \"#utility.yul\":187:199   */\n      revert\n        /* \"#utility.yul\":211:328   */\n    tag_194:\n        /* \"#utility.yul\":320:321   */\n      0x00\n        /* \"#utility.yul\":317:318   */\n      dup1\n        /* \"#utility.yul\":310:322   */\n      revert\n        /* \"#utility.yul\":334:460   */\n    tag_195:\n        /* \"#utility.yul\":371:378   */\n      0x00\n        /* \"#utility.yul\":411:453   */\n      0xffffffffffffffffffffffffffffffffffffffff\n        /* \"#utility.yul\":404:409   */\n      dup3\n        /* \"#utility.yul\":400:454   */\n      and\n        /* \"#utility.yul\":389:454   */\n      swap1\n      pop\n        /* \"#utility.yul\":334:460   */\n      swap2\n      swap1\n      pop\n      jump\t// out\n        /* \"#utility.yul\":466:562   */\n    tag_196:\n        /* \"#utility.yul\":503:510   */\n      0x00\n        /* \"#utility.yul\":532:556   */\n      tag_296\n        /* \"#utility.yul\":550:555   */\n      dup3\n        /* \"#utility.yul\":532:556   */\n      tag_195\n      jump\t// in\n    tag_296:\n        /* \"#utility.yul\":521:556   */\n      swap1\n      pop\n        /* \"#utility.yul\":466:562   */\n      swap2\n      swap1\n      pop\n      jump\t// out\n        /* \"#utility.yul\":568:690   */\n    tag_197:\n        /* \"#utility.yul\":641:665   */\n      tag_298\n        /* \"#utility.yul\":659:664   */\n      dup2\n        /* \"#utility.yul\":641:665   */\n      tag_196\n      jump\t// in\n    tag_298:\n        /* \"#utility.yul\":634:639   */\n      dup2\n        /* \"#utility.yul\":631:666   */\n      eq\n        /* \"#utility.yul\":621:684   */\n      tag_299\n      jumpi\n        /* \"#utility.yul\":680:681   */\n      0x00\n        /* \"#utility.yul\":677:678   */\n      dup1\n        /* \"#utility.yul\":670:682   */\n      revert\n        /* \"#utility.yul\":621:684   */\n    tag_299:\n        /* \"#utility.yul\":568:690   */\n      pop\n      jump\t// out\n        /* \"#utility.yul\":696:835   */\n    tag_198:\n        /* \"#utility.yul\":742:747   */\n      0x00\n        /* \"#utility.yul\":780:786   */\n      dup2\n        /* \"#utility.yul\":767:787   */\n      calldataload\n        /* \"#utility.yul\":758:787   */\n      swap1\n      pop\n        /* \"#utility.yul\":796:829   */\n      tag_301\n        /* \"#utility.yul\":823:828   */\n      dup2\n        /* \"#utility.yul\":796:829   */\n      tag_197\n      jump\t// in\n    tag_301:\n        /* \"#utility.yul\":696:835   */\n      swap3\n      swap2\n      pop\n      pop\n      jump\t// out\n        /* \"#utility.yul\":841:958   */\n    tag_199:\n        /* \"#utility.yul\":950:951   */\n      0x00\n        /* \"#utility.yul\":947:948   */\n      dup1\n        /* \"#utility.yul\":940:952   */\n      revert\n        /* \"#utility.yul\":964:1081   */\n    tag_200:\n        /* \"#utility.yul\":1073:1074   */\n      0x00\n        /* \"#utility.yul\":1070:1071   */\n      dup1\n        /* \"#utility.yul\":1063:1075   */\n      revert\n        /* \"#utility.yul\":1087:1189   */\n    tag_201:\n        /* \"#utility.yul\":1128:1134   */\n      0x00\n        /* \"#utility.yul\":1179:1181   */\n      0x1f\n        /* \"#utility.yul\":1175:1182   */\n      not\n        /* \"#utility.yul\":1170:1172   */\n      0x1f\n        /* \"#utility.yul\":1163:1168   */\n      dup4\n        /* \"#utility.yul\":1159:1173   */\n      add\n        /* \"#utility.yul\":1155:1183   */\n      and\n        /* \"#utility.yul\":1145:1183   */\n      swap1\n      pop\n        /* \"#utility.yul\":1087:1189   */\n      swap2\n      swap1\n      pop\n      jump\t// out\n        /* \"#utility.yul\":1195:1375   */\n    tag_202:\n        /* \"#utility.yul\":1243:1320   */\n      0x4e487b7100000000000000000000000000000000000000000000000000000000\n        /* \"#utility.yul\":1240:1241   */\n      0x00\n        /* \"#utility.yul\":1233:1321   */\n      mstore\n        /* \"#utility.yul\":1340:1344   */\n      0x41\n        /* \"#utility.yul\":1337:1338   */\n      0x04\n        /* \"#utility.yul\":1330:1345   */\n      mstore\n        /* \"#utility.yul\":1364:1368   */\n      0x24\n        /* \"#utility.yul\":1361:1362   */\n      0x00\n        /* \"#utility.yul\":1354:1369   */\n      revert\n        /* \"#utility.yul\":1381:1662   */\n    tag_203:\n        /* \"#utility.yul\":1464:1491   */\n      tag_307\n        /* \"#utility.yul\":1486:1490   */\n      dup3\n        /* \"#utility.yul\":1464:1491   */\n      tag_201\n      jump\t// in\n    tag_307:\n        /* \"#utility.yul\":1456:1462   */\n      dup2\n        /* \"#utility.yul\":1452:1492   */\n      add\n        /* \"#utility.yul\":1594:1600   */\n      dup2\n        /* \"#utility.yul\":1582:1592   */\n      dup2\n        /* \"#utility.yul\":1579:1601   */\n      lt\n        /* \"#utility.yul\":1558:1576   */\n      0xffffffffffffffff\n        /* \"#utility.yul\":1546:1556   */\n      dup3\n        /* \"#utility.yul\":1543:1577   */\n      gt\n        /* \"#utility.yul\":1540:1602   */\n      or\n        /* \"#utility.yul\":1537:1625   */\n      iszero\n      tag_308\n      jumpi\n        /* \"#utility.yul\":1605:1623   */\n      tag_309\n      tag_202\n      jump\t// in\n    tag_309:\n        /* \"#utility.yul\":1537:1625   */\n    tag_308:\n        /* \"#utility.yul\":1645:1655   */\n      dup1\n        /* \"#utility.yul\":1641:1643   */\n      0x40\n        /* \"#utility.yul\":1634:1656   */\n      mstore\n        /* \"#utility.yul\":1424:1662   */\n      pop\n        /* \"#utility.yul\":1381:1662   */\n      pop\n      pop\n      jump\t// out\n        /* \"#utility.yul\":1668:1797   */\n    tag_204:\n        /* \"#utility.yul\":1702:1708   */\n      0x00\n        /* \"#utility.yul\":1729:1749   */\n      tag_311\n      tag_192\n      jump\t// in\n    tag_311:\n        /* \"#utility.yul\":1719:1749   */\n      swap1\n      pop\n        /* \"#utility.yul\":1758:1791   */\n      tag_312\n        /* \"#utility.yul\":1786:1790   */\n      dup3\n        /* \"#utility.yul\":1778:1784   */\n      dup3\n        /* \"#utility.yul\":1758:1791   */\n      tag_203\n      jump\t// in\n    tag_312:\n        /* \"#utility.yul\":1668:1797   */\n      swap2\n      swap1\n      pop\n      jump\t// out\n        /* \"#utility.yul\":1803:2111   */\n    tag_205:\n        /* \"#utility.yul\":1865:1869   */\n      0x00\n        /* \"#utility.yul\":1955:1973   */\n      0xffffffffffffffff\n        /* \"#utility.yul\":1947:1953   */\n      dup3\n        /* \"#utility.yul\":1944:1974   */\n      gt\n        /* \"#utility.yul\":1941:1997   */\n      iszero\n      tag_314\n      jumpi\n        /* \"#utility.yul\":1977:1995   */\n      tag_315\n      tag_202\n      jump\t// in\n    tag_315:\n        /* \"#utility.yul\":1941:1997   */\n    tag_314:\n        /* \"#utility.yul\":2015:2044   */\n      tag_316\n        /* \"#utility.yul\":2037:2043   */\n      dup3\n        /* \"#utility.yul\":2015:2044   */\n      tag_201\n      jump\t// in\n    tag_316:\n        /* \"#utility.yul\":2007:2044   */\n      swap1\n      pop\n        /* \"#utility.yul\":2099:2103   */\n      0x20\n        /* \"#utility.yul\":2093:2097   */\n      dup2\n        /* \"#utility.yul\":2089:2104   */\n      add\n        /* \"#utility.yul\":2081:2104   */\n      swap1\n      pop\n        /* \"#utility.yul\":1803:2111   */\n      swap2\n      swap1\n      pop\n      jump\t// out\n        /* \"#utility.yul\":2117:2265   */\n    tag_206:\n        /* \"#utility.yul\":2215:2221   */\n      dup3\n        /* \"#utility.yul\":2210:2213   */\n      dup2\n        /* \"#utility.yul\":2205:2208   */\n      dup4\n        /* \"#utility.yul\":2192:2222   */\n      calldatacopy\n        /* \"#utility.yul\":2256:2257   */\n      0x00\n        /* \"#utility.yul\":2247:2253   */\n      dup4\n        /* \"#utility.yul\":2242:2245   */\n      dup4\n        /* \"#utility.yul\":2238:2254   */\n      add\n        /* \"#utility.yul\":2231:2258   */\n      mstore\n        /* \"#utility.yul\":2117:2265   */\n      pop\n      pop\n      pop\n      jump\t// out\n        /* \"#utility.yul\":2271:2696   */\n    tag_207:\n        /* \"#utility.yul\":2349:2354   */\n      0x00\n        /* \"#utility.yul\":2374:2440   */\n      tag_319\n        /* \"#utility.yul\":2390:2439   */\n      tag_320\n        /* \"#utility.yul\":2432:2438   */\n      dup5\n        /* \"#utility.yul\":2390:2439   */\n      tag_205\n      jump\t// in\n    tag_320:\n        /* \"#utility.yul\":2374:2440   */\n      tag_204\n      jump\t// in\n    tag_319:\n        /* \"#utility.yul\":2365:2440   */\n      swap1\n      pop\n        /* \"#utility.yul\":2463:2469   */\n      dup3\n        /* \"#utility.yul\":2456:2461   */\n      dup2\n        /* \"#utility.yul\":2449:2470   */\n      mstore\n        /* \"#utility.yul\":2501:2505   */\n      0x20\n        /* \"#utility.yul\":2494:2499   */\n      dup2\n        /* \"#utility.yul\":2490:2506   */\n      add\n        /* \"#utility.yul\":2539:2542   */\n      dup5\n        /* \"#utility.yul\":2530:2536   */\n      dup5\n        /* \"#utility.yul\":2525:2528   */\n      dup5\n        /* \"#utility.yul\":2521:2537   */\n      add\n        /* \"#utility.yul\":2518:2543   */\n      gt\n        /* \"#utility.yul\":2515:2627   */\n      iszero\n      tag_321\n      jumpi\n        /* \"#utility.yul\":2546:2625   */\n      tag_322\n      tag_200\n      jump\t// in\n    tag_322:\n        /* \"#utility.yul\":2515:2627   */\n    tag_321:\n        /* \"#utility.yul\":2636:2690   */\n      tag_323\n        /* \"#utility.yul\":2683:2689   */\n      dup5\n        /* \"#utility.yul\":2678:2681   */\n      dup3\n        /* \"#utility.yul\":2673:2676   */\n      dup6\n        /* \"#utility.yul\":2636:2690   */\n      tag_206\n      jump\t// in\n    tag_323:\n        /* \"#utility.yul\":2355:2696   */\n      pop\n        /* \"#utility.yul\":2271:2696   */\n      swap4\n      swap3\n      pop\n      pop\n      pop\n      jump\t// out\n        /* \"#utility.yul\":2716:3056   */\n    tag_208:\n        /* \"#utility.yul\":2772:2777   */\n      0x00\n        /* \"#utility.yul\":2821:2824   */\n      dup3\n        /* \"#utility.yul\":2814:2818   */\n      0x1f\n        /* \"#utility.yul\":2806:2812   */\n      dup4\n        /* \"#utility.yul\":2802:2819   */\n      add\n        /* \"#utility.yul\":2798:2825   */\n      slt\n        /* \"#utility.yul\":2788:2910   */\n      tag_325\n      jumpi\n        /* \"#utility.yul\":2829:2908   */\n      tag_326\n      tag_199\n      jump\t// in\n    tag_326:\n        /* \"#utility.yul\":2788:2910   */\n    tag_325:\n        /* \"#utility.yul\":2946:2952   */\n      dup2\n        /* \"#utility.yul\":2933:2953   */\n      calldataload\n        /* \"#utility.yul\":2971:3050   */\n      tag_327\n        /* \"#utility.yul\":3046:3049   */\n      dup5\n        /* \"#utility.yul\":3038:3044   */\n      dup3\n        /* \"#utility.yul\":3031:3035   */\n      0x20\n        /* \"#utility.yul\":3023:3029   */\n      dup7\n        /* \"#utility.yul\":3019:3036   */\n      add\n        /* \"#utility.yul\":2971:3050   */\n      tag_207\n      jump\t// in\n    tag_327:\n        /* \"#utility.yul\":2962:3050   */\n      swap2\n      pop\n        /* \"#utility.yul\":2778:3056   */\n      pop\n        /* \"#utility.yul\":2716:3056   */\n      swap3\n      swap2\n      pop\n      pop\n      jump\t// out\n        /* \"#utility.yul\":3062:3716   */\n    tag_16:\n        /* \"#utility.yul\":3140:3146   */\n      0x00\n        /* \"#utility.yul\":3148:3154   */\n      dup1\n        /* \"#utility.yul\":3197:3199   */\n      0x40\n        /* \"#utility.yul\":3185:3194   */\n      dup4\n        /* \"#utility.yul\":3176:3183   */\n      dup6\n        /* \"#utility.yul\":3172:3195   */\n      sub\n        /* \"#utility.yul\":3168:3200   */\n      slt\n        /* \"#utility.yul\":3165:3284   */\n      iszero\n      tag_329\n      jumpi\n        /* \"#utility.yul\":3203:3282   */\n      tag_330\n      tag_193\n      jump\t// in\n    tag_330:\n        /* \"#utility.yul\":3165:3284   */\n    tag_329:\n        /* \"#utility.yul\":3323:3324   */\n      0x00\n        /* \"#utility.yul\":3348:3401   */\n      tag_331\n        /* \"#utility.yul\":3393:3400   */\n      dup6\n        /* \"#utility.yul\":3384:3390   */\n      dup3\n        /* \"#utility.yul\":3373:3382   */\n      dup7\n        /* \"#utility.yul\":3369:3391   */\n      add\n        /* \"#utility.yul\":3348:3401   */\n      tag_198\n      jump\t// in\n    tag_331:\n        /* \"#utility.yul\":3338:3401   */\n      swap3\n      pop\n        /* \"#utility.yul\":3294:3411   */\n      pop\n        /* \"#utility.yul\":3478:3480   */\n      0x20\n        /* \"#utility.yul\":3467:3476   */\n      dup4\n        /* \"#utility.yul\":3463:3481   */\n      add\n        /* \"#utility.yul\":3450:3482   */\n      calldataload\n        /* \"#utility.yul\":3509:3527   */\n      0xffffffffffffffff\n        /* \"#utility.yul\":3501:3507   */\n      dup2\n        /* \"#utility.yul\":3498:3528   */\n      gt\n        /* \"#utility.yul\":3495:3612   */\n      iszero\n      tag_332\n      jumpi\n        /* \"#utility.yul\":3531:3610   */\n      tag_333\n      tag_194\n      jump\t// in\n    tag_333:\n        /* \"#utility.yul\":3495:3612   */\n    tag_332:\n        /* \"#utility.yul\":3636:3699   */\n      tag_334\n        /* \"#utility.yul\":3691:3698   */\n      dup6\n        /* \"#utility.yul\":3682:3688   */\n      dup3\n        /* \"#utility.yul\":3671:3680   */\n      dup7\n        /* \"#utility.yul\":3667:3689   */\n      add\n        /* \"#utility.yul\":3636:3699   */\n      tag_208\n      jump\t// in\n    tag_334:\n        /* \"#utility.yul\":3626:3699   */\n      swap2\n      pop\n        /* \"#utility.yul\":3421:3709   */\n      pop\n        /* \"#utility.yul\":3062:3716   */\n      swap3\n      pop\n      swap3\n      swap1\n      pop\n      jump\t// out\n        /* \"#utility.yul\":3722:4881   */\n    tag_20:\n        /* \"#utility.yul\":3829:3835   */\n      0x00\n        /* \"#utility.yul\":3837:3843   */\n      dup1\n        /* \"#utility.yul\":3845:3851   */\n      0x00\n        /* \"#utility.yul\":3894:3896   */\n      0x60\n        /* \"#utility.yul\":3882:3891   */\n      dup5\n        /* \"#utility.yul\":3873:3880   */\n      dup7\n        /* \"#utility.yul\":3869:3892   */\n      sub\n        /* \"#utility.yul\":3865:3897   */\n      slt\n        /* \"#utility.yul\":3862:3981   */\n      iszero\n      tag_336\n      jumpi\n        /* \"#utility.yul\":3900:3979   */\n      tag_337\n      tag_193\n      jump\t// in\n    tag_337:\n        /* \"#utility.yul\":3862:3981   */\n    tag_336:\n        /* \"#utility.yul\":4048:4049   */\n      0x00\n        /* \"#utility.yul\":4037:4046   */\n      dup5\n        /* \"#utility.yul\":4033:4050   */\n      add\n        /* \"#utility.yul\":4020:4051   */\n      calldataload\n        /* \"#utility.yul\":4078:4096   */\n      0xffffffffffffffff\n        /* \"#utility.yul\":4070:4076   */\n      dup2\n        /* \"#utility.yul\":4067:4097   */\n      gt\n        /* \"#utility.yul\":4064:4181   */\n      iszero\n      tag_338\n      jumpi\n        /* \"#utility.yul\":4100:4179   */\n      tag_339\n      tag_194\n      jump\t// in\n    tag_339:\n        /* \"#utility.yul\":4064:4181   */\n    tag_338:\n        /* \"#utility.yul\":4205:4268   */\n      tag_340\n        /* \"#utility.yul\":4260:4267   */\n      dup7\n        /* \"#utility.yul\":4251:4257   */\n      dup3\n        /* \"#utility.yul\":4240:4249   */\n      dup8\n        /* \"#utility.yul\":4236:4258   */\n      add\n        /* \"#utility.yul\":4205:4268   */\n      tag_208\n      jump\t// in\n    tag_340:\n        /* \"#utility.yul\":4195:4268   */\n      swap4\n      pop\n        /* \"#utility.yul\":3991:4278   */\n      pop\n        /* \"#utility.yul\":4345:4347   */\n      0x20\n        /* \"#utility.yul\":4334:4343   */\n      dup5\n        /* \"#utility.yul\":4330:4348   */\n      add\n        /* \"#utility.yul\":4317:4349   */\n      calldataload\n        /* \"#utility.yul\":4376:4394   */\n      0xffffffffffffffff\n        /* \"#utility.yul\":4368:4374   */\n      dup2\n        /* \"#utility.yul\":4365:4395   */\n      gt\n        /* \"#utility.yul\":4362:4479   */\n      iszero\n      tag_341\n      jumpi\n        /* \"#utility.yul\":4398:4477   */\n      tag_342\n      tag_194\n      jump\t// in\n    tag_342:\n        /* \"#utility.yul\":4362:4479   */\n    tag_341:\n        /* \"#utility.yul\":4503:4566   */\n      tag_343\n        /* \"#utility.yul\":4558:4565   */\n      dup7\n        /* \"#utility.yul\":4549:4555   */\n      dup3\n        /* \"#utility.yul\":4538:4547   */\n      dup8\n        /* \"#utility.yul\":4534:4556   */\n      add\n        /* \"#utility.yul\":4503:4566   */\n      tag_208\n      jump\t// in\n    tag_343:\n        /* \"#utility.yul\":4493:4566   */\n      swap3\n      pop\n        /* \"#utility.yul\":4288:4576   */\n      pop\n        /* \"#utility.yul\":4643:4645   */\n      0x40\n        /* \"#utility.yul\":4632:4641   */\n      dup5\n        /* \"#utility.yul\":4628:4646   */\n      add\n        /* \"#utility.yul\":4615:4647   */\n      calldataload\n        /* \"#utility.yul\":4674:4692   */\n      0xffffffffffffffff\n        /* \"#utility.yul\":4666:4672   */\n      dup2\n        /* \"#utility.yul\":4663:4693   */\n      gt\n        /* \"#utility.yul\":4660:4777   */\n      iszero\n      tag_344\n      jumpi\n        /* \"#utility.yul\":4696:4775   */\n      tag_345\n      tag_194\n      jump\t// in\n    tag_345:\n        /* \"#utility.yul\":4660:4777   */\n    tag_344:\n        /* \"#utility.yul\":4801:4864   */\n      tag_346\n        /* \"#utility.yul\":4856:4863   */\n      dup7\n        /* \"#utility.yul\":4847:4853   */\n      dup3\n        /* \"#utility.yul\":4836:4845   */\n      dup8\n        /* \"#utility.yul\":4832:4854   */\n      add\n        /* \"#utility.yul\":4801:4864   */\n      tag_208\n      jump\t// in\n    tag_346:\n        /* \"#utility.yul\":4791:4864   */\n      swap2\n      pop\n        /* \"#utility.yul\":4586:4874   */\n      pop\n        /* \"#utility.yul\":3722:4881   */\n      swap3\n      pop\n      swap3\n      pop\n      swap3\n      jump\t// out\n        /* \"#utility.yul\":4887:5396   */\n    tag_24:\n        /* \"#utility.yul\":4956:4962   */\n      0x00\n        /* \"#utility.yul\":5005:5007   */\n      0x20\n        /* \"#utility.yul\":4993:5002   */\n      dup3\n        /* \"#utility.yul\":4984:4991   */\n      dup5\n        /* \"#utility.yul\":4980:5003   */\n      sub\n        /* \"#utility.yul\":4976:5008   */\n      slt\n        /* \"#utility.yul\":4973:5092   */\n      iszero\n      tag_348\n      jumpi\n        /* \"#utility.yul\":5011:5090   */\n      tag_349\n      tag_193\n      jump\t// in\n    tag_349:\n        /* \"#utility.yul\":4973:5092   */\n    tag_348:\n        /* \"#utility.yul\":5159:5160   */\n      0x00\n        /* \"#utility.yul\":5148:5157   */\n      dup3\n        /* \"#utility.yul\":5144:5161   */\n      add\n        /* \"#utility.yul\":5131:5162   */\n      calldataload\n        /* \"#utility.yul\":5189:5207   */\n      0xffffffffffffffff\n        /* \"#utility.yul\":5181:5187   */\n      dup2\n        /* \"#utility.yul\":5178:5208   */\n      gt\n        /* \"#utility.yul\":5175:5292   */\n      iszero\n      tag_350\n      jumpi\n        /* \"#utility.yul\":5211:5290   */\n      tag_351\n      tag_194\n      jump\t// in\n    tag_351:\n        /* \"#utility.yul\":5175:5292   */\n    tag_350:\n        /* \"#utility.yul\":5316:5379   */\n      tag_352\n        /* \"#utility.yul\":5371:5378   */\n      dup5\n        /* \"#utility.yul\":5362:5368   */\n      dup3\n        /* \"#utility.yul\":5351:5360   */\n      dup6\n        /* \"#utility.yul\":5347:5369   */\n      add\n        /* \"#utility.yul\":5316:5379   */\n      tag_208\n      jump\t// in\n    tag_352:\n        /* \"#utility.yul\":5306:5379   */\n      swap2\n      pop\n        /* \"#utility.yul\":5102:5389   */\n      pop\n        /* \"#utility.yul\":4887:5396   */\n      swap3\n      swap2\n      pop\n      pop\n      jump\t// out\n        /* \"#utility.yul\":5402:5501   */\n    tag_209:\n        /* \"#utility.yul\":5454:5460   */\n      0x00\n        /* \"#utility.yul\":5488:5493   */\n      dup2\n        /* \"#utility.yul\":5482:5494   */\n      mload\n        /* \"#utility.yul\":5472:5494   */\n      swap1\n      pop\n        /* \"#utility.yul\":5402:5501   */\n      swap2\n      swap1\n      pop\n      jump\t// out\n        /* \"#utility.yul\":5507:5666   */\n    tag_210:\n        /* \"#utility.yul\":5581:5592   */\n      0x00\n        /* \"#utility.yul\":5615:5621   */\n      dup3\n        /* \"#utility.yul\":5610:5613   */\n      dup3\n        /* \"#utility.yul\":5603:5622   */\n      mstore\n        /* \"#utility.yul\":5655:5659   */\n      0x20\n        /* \"#utility.yul\":5650:5653   */\n      dup3\n        /* \"#utility.yul\":5646:5660   */\n      add\n        /* \"#utility.yul\":5631:5660   */\n      swap1\n      pop\n        /* \"#utility.yul\":5507:5666   */\n      swap3\n      swap2\n      pop\n      pop\n      jump\t// out\n        /* \"#utility.yul\":5672:5811   */\n    tag_211:\n        /* \"#utility.yul\":5761:5767   */\n      dup3\n        /* \"#utility.yul\":5756:5759   */\n      dup2\n        /* \"#utility.yul\":5751:5754   */\n      dup4\n        /* \"#utility.yul\":5745:5768   */\n      mcopy\n        /* \"#utility.yul\":5802:5803   */\n      0x00\n        /* \"#utility.yul\":5793:5799   */\n      dup4\n        /* \"#utility.yul\":5788:5791   */\n      dup4\n        /* \"#utility.yul\":5784:5800   */\n      add\n        /* \"#utility.yul\":5777:5804   */\n      mstore\n        /* \"#utility.yul\":5672:5811   */\n      pop\n      pop\n      pop\n      jump\t// out\n        /* \"#utility.yul\":5817:6174   */\n    tag_212:\n        /* \"#utility.yul\":5895:5898   */\n      0x00\n        /* \"#utility.yul\":5923:5962   */\n      tag_357\n        /* \"#utility.yul\":5956:5961   */\n      dup3\n        /* \"#utility.yul\":5923:5962   */\n      tag_209\n      jump\t// in\n    tag_357:\n        /* \"#utility.yul\":5978:6039   */\n      tag_358\n        /* \"#utility.yul\":6032:6038   */\n      dup2\n        /* \"#utility.yul\":6027:6030   */\n      dup6\n        /* \"#utility.yul\":5978:6039   */\n      tag_210\n      jump\t// in\n    tag_358:\n        /* \"#utility.yul\":5971:6039   */\n      swap4\n      pop\n        /* \"#utility.yul\":6048:6113   */\n      tag_359\n        /* \"#utility.yul\":6106:6112   */\n      dup2\n        /* \"#utility.yul\":6101:6104   */\n      dup6\n        /* \"#utility.yul\":6094:6098   */\n      0x20\n        /* \"#utility.yul\":6087:6092   */\n      dup7\n        /* \"#utility.yul\":6083:6099   */\n      add\n        /* \"#utility.yul\":6048:6113   */\n      tag_211\n      jump\t// in\n    tag_359:\n        /* \"#utility.yul\":6138:6167   */\n      tag_360\n        /* \"#utility.yul\":6160:6166   */\n      dup2\n        /* \"#utility.yul\":6138:6167   */\n      tag_201\n      jump\t// in\n    tag_360:\n        /* \"#utility.yul\":6133:6136   */\n      dup5\n        /* \"#utility.yul\":6129:6168   */\n      add\n        /* \"#utility.yul\":6122:6168   */\n      swap2\n      pop\n        /* \"#utility.yul\":5899:6174   */\n      pop\n        /* \"#utility.yul\":5817:6174   */\n      swap3\n      swap2\n      pop\n      pop\n      jump\t// out\n        /* \"#utility.yul\":6180:6257   */\n    tag_213:\n        /* \"#utility.yul\":6217:6224   */\n      0x00\n        /* \"#utility.yul\":6246:6251   */\n      dup2\n        /* \"#utility.yul\":6235:6251   */\n      swap1\n      pop\n        /* \"#utility.yul\":6180:6257   */\n      swap2\n      swap1\n      pop\n      jump\t// out\n        /* \"#utility.yul\":6263:6371   */\n    tag_214:\n        /* \"#utility.yul\":6340:6364   */\n      tag_363\n        /* \"#utility.yul\":6358:6363   */\n      dup2\n        /* \"#utility.yul\":6340:6364   */\n      tag_213\n      jump\t// in\n    tag_363:\n        /* \"#utility.yul\":6335:6338   */\n      dup3\n        /* \"#utility.yul\":6328:6365   */\n      mstore\n        /* \"#utility.yul\":6263:6371   */\n      pop\n      pop\n      jump\t// out\n        /* \"#utility.yul\":6461:7764   */\n    tag_215:\n        /* \"#utility.yul\":6578:6581   */\n      0x00\n        /* \"#utility.yul\":6614:6618   */\n      0xa0\n        /* \"#utility.yul\":6609:6612   */\n      dup4\n        /* \"#utility.yul\":6605:6619   */\n      add\n        /* \"#utility.yul\":6701:6705   */\n      0x00\n        /* \"#utility.yul\":6694:6699   */\n      dup4\n        /* \"#utility.yul\":6690:6706   */\n      add\n        /* \"#utility.yul\":6684:6707   */\n      mload\n        /* \"#utility.yul\":6754:6757   */\n      dup5\n        /* \"#utility.yul\":6748:6752   */\n      dup3\n        /* \"#utility.yul\":6744:6758   */\n      sub\n        /* \"#utility.yul\":6737:6741   */\n      0x00\n        /* \"#utility.yul\":6732:6735   */\n      dup7\n        /* \"#utility.yul\":6728:6742   */\n      add\n        /* \"#utility.yul\":6721:6759   */\n      mstore\n        /* \"#utility.yul\":6780:6853   */\n      tag_365\n        /* \"#utility.yul\":6848:6852   */\n      dup3\n        /* \"#utility.yul\":6834:6846   */\n      dup3\n        /* \"#utility.yul\":6780:6853   */\n      tag_212\n      jump\t// in\n    tag_365:\n        /* \"#utility.yul\":6772:6853   */\n      swap2\n      pop\n        /* \"#utility.yul\":6629:6864   */\n      pop\n        /* \"#utility.yul\":6947:6951   */\n      0x20\n        /* \"#utility.yul\":6940:6945   */\n      dup4\n        /* \"#utility.yul\":6936:6952   */\n      add\n        /* \"#utility.yul\":6930:6953   */\n      mload\n        /* \"#utility.yul\":7000:7003   */\n      dup5\n        /* \"#utility.yul\":6994:6998   */\n      dup3\n        /* \"#utility.yul\":6990:7004   */\n      sub\n        /* \"#utility.yul\":6983:6987   */\n      0x20\n        /* \"#utility.yul\":6978:6981   */\n      dup7\n        /* \"#utility.yul\":6974:6988   */\n      add\n        /* \"#utility.yul\":6967:7005   */\n      mstore\n        /* \"#utility.yul\":7026:7099   */\n      tag_366\n        /* \"#utility.yul\":7094:7098   */\n      dup3\n        /* \"#utility.yul\":7080:7092   */\n      dup3\n        /* \"#utility.yul\":7026:7099   */\n      tag_212\n      jump\t// in\n    tag_366:\n        /* \"#utility.yul\":7018:7099   */\n      swap2\n      pop\n        /* \"#utility.yul\":6874:7110   */\n      pop\n        /* \"#utility.yul\":7202:7206   */\n      0x40\n        /* \"#utility.yul\":7195:7200   */\n      dup4\n        /* \"#utility.yul\":7191:7207   */\n      add\n        /* \"#utility.yul\":7185:7208   */\n      mload\n        /* \"#utility.yul\":7255:7258   */\n      dup5\n        /* \"#utility.yul\":7249:7253   */\n      dup3\n        /* \"#utility.yul\":7245:7259   */\n      sub\n        /* \"#utility.yul\":7238:7242   */\n      0x40\n        /* \"#utility.yul\":7233:7236   */\n      dup7\n        /* \"#utility.yul\":7229:7243   */\n      add\n        /* \"#utility.yul\":7222:7260   */\n      mstore\n        /* \"#utility.yul\":7281:7354   */\n      tag_367\n        /* \"#utility.yul\":7349:7353   */\n      dup3\n        /* \"#utility.yul\":7335:7347   */\n      dup3\n        /* \"#utility.yul\":7281:7354   */\n      tag_212\n      jump\t// in\n    tag_367:\n        /* \"#utility.yul\":7273:7354   */\n      swap2\n      pop\n        /* \"#utility.yul\":7120:7365   */\n      pop\n        /* \"#utility.yul\":7462:7466   */\n      0x60\n        /* \"#utility.yul\":7455:7460   */\n      dup4\n        /* \"#utility.yul\":7451:7467   */\n      add\n        /* \"#utility.yul\":7445:7468   */\n      mload\n        /* \"#utility.yul\":7481:7544   */\n      tag_368\n        /* \"#utility.yul\":7538:7542   */\n      0x60\n        /* \"#utility.yul\":7533:7536   */\n      dup7\n        /* \"#utility.yul\":7529:7543   */\n      add\n        /* \"#utility.yul\":7515:7527   */\n      dup3\n        /* \"#utility.yul\":7481:7544   */\n      tag_214\n      jump\t// in\n    tag_368:\n        /* \"#utility.yul\":7375:7554   */\n      pop\n        /* \"#utility.yul\":7645:7649   */\n      0x80\n        /* \"#utility.yul\":7638:7643   */\n      dup4\n        /* \"#utility.yul\":7634:7650   */\n      add\n        /* \"#utility.yul\":7628:7651   */\n      mload\n        /* \"#utility.yul\":7664:7727   */\n      tag_369\n        /* \"#utility.yul\":7721:7725   */\n      0x80\n        /* \"#utility.yul\":7716:7719   */\n      dup7\n        /* \"#utility.yul\":7712:7726   */\n      add\n        /* \"#utility.yul\":7698:7710   */\n      dup3\n        /* \"#utility.yul\":7664:7727   */\n      tag_214\n      jump\t// in\n    tag_369:\n        /* \"#utility.yul\":7564:7737   */\n      pop\n        /* \"#utility.yul\":7754:7758   */\n      dup1\n        /* \"#utility.yul\":7747:7758   */\n      swap2\n      pop\n        /* \"#utility.yul\":6583:7764   */\n      pop\n        /* \"#utility.yul\":6461:7764   */\n      swap3\n      swap2\n      pop\n      pop\n      jump\t// out\n        /* \"#utility.yul\":7770:8139   */\n    tag_29:\n        /* \"#utility.yul\":7911:7915   */\n      0x00\n        /* \"#utility.yul\":7949:7951   */\n      0x20\n        /* \"#utility.yul\":7938:7947   */\n      dup3\n        /* \"#utility.yul\":7934:7952   */\n      add\n        /* \"#utility.yul\":7926:7952   */\n      swap1\n      pop\n        /* \"#utility.yul\":7998:8007   */\n      dup2\n        /* \"#utility.yul\":7992:7996   */\n      dup2\n        /* \"#utility.yul\":7988:8008   */\n      sub\n        /* \"#utility.yul\":7984:7985   */\n      0x00\n        /* \"#utility.yul\":7973:7982   */\n      dup4\n        /* \"#utility.yul\":7969:7986   */\n      add\n        /* \"#utility.yul\":7962:8009   */\n      mstore\n        /* \"#utility.yul\":8026:8132   */\n      tag_371\n        /* \"#utility.yul\":8127:8131   */\n      dup2\n        /* \"#utility.yul\":8118:8124   */\n      dup5\n        /* \"#utility.yul\":8026:8132   */\n      tag_215\n      jump\t// in\n    tag_371:\n        /* \"#utility.yul\":8018:8132   */\n      swap1\n      pop\n        /* \"#utility.yul\":7770:8139   */\n      swap3\n      swap2\n      pop\n      pop\n      jump\t// out\n        /* \"#utility.yul\":8145:8267   */\n    tag_216:\n        /* \"#utility.yul\":8218:8242   */\n      tag_373\n        /* \"#utility.yul\":8236:8241   */\n      dup2\n        /* \"#utility.yul\":8218:8242   */\n      tag_213\n      jump\t// in\n    tag_373:\n        /* \"#utility.yul\":8211:8216   */\n      dup2\n        /* \"#utility.yul\":8208:8243   */\n      eq\n        /* \"#utility.yul\":8198:8261   */\n      tag_374\n      jumpi\n        /* \"#utility.yul\":8257:8258   */\n      0x00\n        /* \"#utility.yul\":8254:8255   */\n      dup1\n        /* \"#utility.yul\":8247:8259   */\n      revert\n        /* \"#utility.yul\":8198:8261   */\n    tag_374:\n        /* \"#utility.yul\":8145:8267   */\n      pop\n      jump\t// out\n        /* \"#utility.yul\":8273:8412   */\n    tag_217:\n        /* \"#utility.yul\":8319:8324   */\n      0x00\n        /* \"#utility.yul\":8357:8363   */\n      dup2\n        /* \"#utility.yul\":8344:8364   */\n      calldataload\n        /* \"#utility.yul\":8335:8364   */\n      swap1\n      pop\n        /* \"#utility.yul\":8373:8406   */\n      tag_376\n        /* \"#utility.yul\":8400:8405   */\n      dup2\n        /* \"#utility.yul\":8373:8406   */\n      tag_216\n      jump\t// in\n    tag_376:\n        /* \"#utility.yul\":8273:8412   */\n      swap3\n      swap2\n      pop\n      pop\n      jump\t// out\n        /* \"#utility.yul\":8418:9037   */\n    tag_32:\n        /* \"#utility.yul\":8495:8501   */\n      0x00\n        /* \"#utility.yul\":8503:8509   */\n      dup1\n        /* \"#utility.yul\":8511:8517   */\n      0x00\n        /* \"#utility.yul\":8560:8562   */\n      0x60\n        /* \"#utility.yul\":8548:8557   */\n      dup5\n        /* \"#utility.yul\":8539:8546   */\n      dup7\n        /* \"#utility.yul\":8535:8558   */\n      sub\n        /* \"#utility.yul\":8531:8563   */\n      slt\n        /* \"#utility.yul\":8528:8647   */\n      iszero\n      tag_378\n      jumpi\n        /* \"#utility.yul\":8566:8645   */\n      tag_379\n      tag_193\n      jump\t// in\n    tag_379:\n        /* \"#utility.yul\":8528:8647   */\n    tag_378:\n        /* \"#utility.yul\":8686:8687   */\n      0x00\n        /* \"#utility.yul\":8711:8764   */\n      tag_380\n        /* \"#utility.yul\":8756:8763   */\n      dup7\n        /* \"#utility.yul\":8747:8753   */\n      dup3\n        /* \"#utility.yul\":8736:8745   */\n      dup8\n        /* \"#utility.yul\":8732:8754   */\n      add\n        /* \"#utility.yul\":8711:8764   */\n      tag_198\n      jump\t// in\n    tag_380:\n        /* \"#utility.yul\":8701:8764   */\n      swap4\n      pop\n        /* \"#utility.yul\":8657:8774   */\n      pop\n        /* \"#utility.yul\":8813:8815   */\n      0x20\n        /* \"#utility.yul\":8839:8892   */\n      tag_381\n        /* \"#utility.yul\":8884:8891   */\n      dup7\n        /* \"#utility.yul\":8875:8881   */\n      dup3\n        /* \"#utility.yul\":8864:8873   */\n      dup8\n        /* \"#utility.yul\":8860:8882   */\n      add\n        /* \"#utility.yul\":8839:8892   */\n      tag_217\n      jump\t// in\n    tag_381:\n        /* \"#utility.yul\":8829:8892   */\n      swap3\n      pop\n        /* \"#utility.yul\":8784:8902   */\n      pop\n        /* \"#utility.yul\":8941:8943   */\n      0x40\n        /* \"#utility.yul\":8967:9020   */\n      tag_382\n        /* \"#utility.yul\":9012:9019   */\n      dup7\n        /* \"#utility.yul\":9003:9009   */\n      dup3\n        /* \"#utility.yul\":8992:9001   */\n      dup8\n        /* \"#utility.yul\":8988:9010   */\n      add\n        /* \"#utility.yul\":8967:9020   */\n      tag_217\n      jump\t// in\n    tag_382:\n        /* \"#utility.yul\":8957:9020   */\n      swap2\n      pop\n        /* \"#utility.yul\":8912:9030   */\n      pop\n        /* \"#utility.yul\":8418:9037   */\n      swap3\n      pop\n      swap3\n      pop\n      swap3\n      jump\t// out\n        /* \"#utility.yul\":9043:9212   */\n    tag_218:\n        /* \"#utility.yul\":9127:9138   */\n      0x00\n        /* \"#utility.yul\":9161:9167   */\n      dup3\n        /* \"#utility.yul\":9156:9159   */\n      dup3\n        /* \"#utility.yul\":9149:9168   */\n      mstore\n        /* \"#utility.yul\":9201:9205   */\n      0x20\n        /* \"#utility.yul\":9196:9199   */\n      dup3\n        /* \"#utility.yul\":9192:9206   */\n      add\n        /* \"#utility.yul\":9177:9206   */\n      swap1\n      pop\n        /* \"#utility.yul\":9043:9212   */\n      swap3\n      swap2\n      pop\n      pop\n      jump\t// out\n        /* \"#utility.yul\":9218:9595   */\n    tag_219:\n        /* \"#utility.yul\":9306:9309   */\n      0x00\n        /* \"#utility.yul\":9334:9373   */\n      tag_385\n        /* \"#utility.yul\":9367:9372   */\n      dup3\n        /* \"#utility.yul\":9334:9373   */\n      tag_209\n      jump\t// in\n    tag_385:\n        /* \"#utility.yul\":9389:9460   */\n      tag_386\n        /* \"#utility.yul\":9453:9459   */\n      dup2\n        /* \"#utility.yul\":9448:9451   */\n      dup6\n        /* \"#utility.yul\":9389:9460   */\n      tag_218\n      jump\t// in\n    tag_386:\n        /* \"#utility.yul\":9382:9460   */\n      swap4\n      pop\n        /* \"#utility.yul\":9469:9534   */\n      tag_387\n        /* \"#utility.yul\":9527:9533   */\n      dup2\n        /* \"#utility.yul\":9522:9525   */\n      dup6\n        /* \"#utility.yul\":9515:9519   */\n      0x20\n        /* \"#utility.yul\":9508:9513   */\n      dup7\n        /* \"#utility.yul\":9504:9520   */\n      add\n        /* \"#utility.yul\":9469:9534   */\n      tag_211\n      jump\t// in\n    tag_387:\n        /* \"#utility.yul\":9559:9588   */\n      tag_388\n        /* \"#utility.yul\":9581:9587   */\n      dup2\n        /* \"#utility.yul\":9559:9588   */\n      tag_201\n      jump\t// in\n    tag_388:\n        /* \"#utility.yul\":9554:9557   */\n      dup5\n        /* \"#utility.yul\":9550:9589   */\n      add\n        /* \"#utility.yul\":9543:9589   */\n      swap2\n      pop\n        /* \"#utility.yul\":9310:9595   */\n      pop\n        /* \"#utility.yul\":9218:9595   */\n      swap3\n      swap2\n      pop\n      pop\n      jump\t// out\n        /* \"#utility.yul\":9601:9914   */\n    tag_40:\n        /* \"#utility.yul\":9714:9718   */\n      0x00\n        /* \"#utility.yul\":9752:9754   */\n      0x20\n        /* \"#utility.yul\":9741:9750   */\n      dup3\n        /* \"#utility.yul\":9737:9755   */\n      add\n        /* \"#utility.yul\":9729:9755   */\n      swap1\n      pop\n        /* \"#utility.yul\":9801:9810   */\n      dup2\n        /* \"#utility.yul\":9795:9799   */\n      dup2\n        /* \"#utility.yul\":9791:9811   */\n      sub\n        /* \"#utility.yul\":9787:9788   */\n      0x00\n        /* \"#utility.yul\":9776:9785   */\n      dup4\n        /* \"#utility.yul\":9772:9789   */\n      add\n        /* \"#utility.yul\":9765:9812   */\n      mstore\n        /* \"#utility.yul\":9829:9907   */\n      tag_390\n        /* \"#utility.yul\":9902:9906   */\n      dup2\n        /* \"#utility.yul\":9893:9899   */\n      dup5\n        /* \"#utility.yul\":9829:9907   */\n      tag_219\n      jump\t// in\n    tag_390:\n        /* \"#utility.yul\":9821:9907   */\n      swap1\n      pop\n        /* \"#utility.yul\":9601:9914   */\n      swap3\n      swap2\n      pop\n      pop\n      jump\t// out\n        /* \"#utility.yul\":9920:10064   */\n    tag_220:\n        /* \"#utility.yul\":10017:10023   */\n      0x00\n        /* \"#utility.yul\":10051:10056   */\n      dup2\n        /* \"#utility.yul\":10045:10057   */\n      mload\n        /* \"#utility.yul\":10035:10057   */\n      swap1\n      pop\n        /* \"#utility.yul\":9920:10064   */\n      swap2\n      swap1\n      pop\n      jump\t// out\n        /* \"#utility.yul\":10070:10284   */\n    tag_221:\n        /* \"#utility.yul\":10199:10210   */\n      0x00\n        /* \"#utility.yul\":10233:10239   */\n      dup3\n        /* \"#utility.yul\":10228:10231   */\n      dup3\n        /* \"#utility.yul\":10221:10240   */\n      mstore\n        /* \"#utility.yul\":10273:10277   */\n      0x20\n        /* \"#utility.yul\":10268:10271   */\n      dup3\n        /* \"#utility.yul\":10264:10278   */\n      add\n        /* \"#utility.yul\":10249:10278   */\n      swap1\n      pop\n        /* \"#utility.yul\":10070:10284   */\n      swap3\n      swap2\n      pop\n      pop\n      jump\t// out\n        /* \"#utility.yul\":10290:10452   */\n    tag_222:\n        /* \"#utility.yul\":10387:10391   */\n      0x00\n        /* \"#utility.yul\":10410:10413   */\n      dup2\n        /* \"#utility.yul\":10402:10413   */\n      swap1\n      pop\n        /* \"#utility.yul\":10440:10444   */\n      0x20\n        /* \"#utility.yul\":10435:10438   */\n      dup3\n        /* \"#utility.yul\":10431:10445   */\n      add\n        /* \"#utility.yul\":10423:10445   */\n      swap1\n      pop\n        /* \"#utility.yul\":10290:10452   */\n      swap2\n      swap1\n      pop\n      jump\t// out\n        /* \"#utility.yul\":10458:10548   */\n    tag_223:\n        /* \"#utility.yul\":10492:10499   */\n      0x00\n        /* \"#utility.yul\":10535:10540   */\n      dup2\n        /* \"#utility.yul\":10528:10541   */\n      iszero\n        /* \"#utility.yul\":10521:10542   */\n      iszero\n        /* \"#utility.yul\":10510:10542   */\n      swap1\n      pop\n        /* \"#utility.yul\":10458:10548   */\n      swap2\n      swap1\n      pop\n      jump\t// out\n        /* \"#utility.yul\":10554:10653   */\n    tag_224:\n        /* \"#utility.yul\":10625:10646   */\n      tag_396\n        /* \"#utility.yul\":10640:10645   */\n      dup2\n        /* \"#utility.yul\":10625:10646   */\n      tag_223\n      jump\t// in\n    tag_396:\n        /* \"#utility.yul\":10620:10623   */\n      dup3\n        /* \"#utility.yul\":10613:10647   */\n      mstore\n        /* \"#utility.yul\":10554:10653   */\n      pop\n      pop\n      jump\t// out\n        /* \"#utility.yul\":10755:11723   */\n    tag_225:\n        /* \"#utility.yul\":10874:10877   */\n      0x00\n        /* \"#utility.yul\":10910:10914   */\n      0x80\n        /* \"#utility.yul\":10905:10908   */\n      dup4\n        /* \"#utility.yul\":10901:10915   */\n      add\n        /* \"#utility.yul\":11004:11008   */\n      0x00\n        /* \"#utility.yul\":10997:11002   */\n      dup4\n        /* \"#utility.yul\":10993:11009   */\n      add\n        /* \"#utility.yul\":10987:11010   */\n      mload\n        /* \"#utility.yul\":11057:11060   */\n      dup5\n        /* \"#utility.yul\":11051:11055   */\n      dup3\n        /* \"#utility.yul\":11047:11061   */\n      sub\n        /* \"#utility.yul\":11040:11044   */\n      0x00\n        /* \"#utility.yul\":11035:11038   */\n      dup7\n        /* \"#utility.yul\":11031:11045   */\n      add\n        /* \"#utility.yul\":11024:11062   */\n      mstore\n        /* \"#utility.yul\":11083:11156   */\n      tag_398\n        /* \"#utility.yul\":11151:11155   */\n      dup3\n        /* \"#utility.yul\":11137:11149   */\n      dup3\n        /* \"#utility.yul\":11083:11156   */\n      tag_212\n      jump\t// in\n    tag_398:\n        /* \"#utility.yul\":11075:11156   */\n      swap2\n      pop\n        /* \"#utility.yul\":10925:11167   */\n      pop\n        /* \"#utility.yul\":11259:11263   */\n      0x20\n        /* \"#utility.yul\":11252:11257   */\n      dup4\n        /* \"#utility.yul\":11248:11264   */\n      add\n        /* \"#utility.yul\":11242:11265   */\n      mload\n        /* \"#utility.yul\":11278:11341   */\n      tag_399\n        /* \"#utility.yul\":11335:11339   */\n      0x20\n        /* \"#utility.yul\":11330:11333   */\n      dup7\n        /* \"#utility.yul\":11326:11340   */\n      add\n        /* \"#utility.yul\":11312:11324   */\n      dup3\n        /* \"#utility.yul\":11278:11341   */\n      tag_214\n      jump\t// in\n    tag_399:\n        /* \"#utility.yul\":11177:11351   */\n      pop\n        /* \"#utility.yul\":11434:11438   */\n      0x40\n        /* \"#utility.yul\":11427:11432   */\n      dup4\n        /* \"#utility.yul\":11423:11439   */\n      add\n        /* \"#utility.yul\":11417:11440   */\n      mload\n        /* \"#utility.yul\":11453:11516   */\n      tag_400\n        /* \"#utility.yul\":11510:11514   */\n      0x40\n        /* \"#utility.yul\":11505:11508   */\n      dup7\n        /* \"#utility.yul\":11501:11515   */\n      add\n        /* \"#utility.yul\":11487:11499   */\n      dup3\n        /* \"#utility.yul\":11453:11516   */\n      tag_214\n      jump\t// in\n    tag_400:\n        /* \"#utility.yul\":11361:11526   */\n      pop\n        /* \"#utility.yul\":11610:11614   */\n      0x60\n        /* \"#utility.yul\":11603:11608   */\n      dup4\n        /* \"#utility.yul\":11599:11615   */\n      add\n        /* \"#utility.yul\":11593:11616   */\n      mload\n        /* \"#utility.yul\":11629:11686   */\n      tag_401\n        /* \"#utility.yul\":11680:11684   */\n      0x60\n        /* \"#utility.yul\":11675:11678   */\n      dup7\n        /* \"#utility.yul\":11671:11685   */\n      add\n        /* \"#utility.yul\":11657:11669   */\n      dup3\n        /* \"#utility.yul\":11629:11686   */\n      tag_224\n      jump\t// in\n    tag_401:\n        /* \"#utility.yul\":11536:11696   */\n      pop\n        /* \"#utility.yul\":11713:11717   */\n      dup1\n        /* \"#utility.yul\":11706:11717   */\n      swap2\n      pop\n        /* \"#utility.yul\":10879:11723   */\n      pop\n        /* \"#utility.yul\":10755:11723   */\n      swap3\n      swap2\n      pop\n      pop\n      jump\t// out\n        /* \"#utility.yul\":11729:12005   */\n    tag_226:\n        /* \"#utility.yul\":11858:11868   */\n      0x00\n        /* \"#utility.yul\":11893:11999   */\n      tag_403\n        /* \"#utility.yul\":11995:11998   */\n      dup4\n        /* \"#utility.yul\":11987:11993   */\n      dup4\n        /* \"#utility.yul\":11893:11999   */\n      tag_225\n      jump\t// in\n    tag_403:\n        /* \"#utility.yul\":11879:11999   */\n      swap1\n      pop\n        /* \"#utility.yul\":11729:12005   */\n      swap3\n      swap2\n      pop\n      pop\n      jump\t// out\n        /* \"#utility.yul\":12011:12154   */\n    tag_227:\n        /* \"#utility.yul\":12111:12115   */\n      0x00\n        /* \"#utility.yul\":12143:12147   */\n      0x20\n        /* \"#utility.yul\":12138:12141   */\n      dup3\n        /* \"#utility.yul\":12134:12148   */\n      add\n        /* \"#utility.yul\":12126:12148   */\n      swap1\n      pop\n        /* \"#utility.yul\":12011:12154   */\n      swap2\n      swap1\n      pop\n      jump\t// out\n        /* \"#utility.yul\":12260:13411   */\n    tag_228:\n        /* \"#utility.yul\":12439:12442   */\n      0x00\n        /* \"#utility.yul\":12468:12552   */\n      tag_406\n        /* \"#utility.yul\":12546:12551   */\n      dup3\n        /* \"#utility.yul\":12468:12552   */\n      tag_220\n      jump\t// in\n    tag_406:\n        /* \"#utility.yul\":12568:12684   */\n      tag_407\n        /* \"#utility.yul\":12677:12683   */\n      dup2\n        /* \"#utility.yul\":12672:12675   */\n      dup6\n        /* \"#utility.yul\":12568:12684   */\n      tag_221\n      jump\t// in\n    tag_407:\n        /* \"#utility.yul\":12561:12684   */\n      swap4\n      pop\n        /* \"#utility.yul\":12710:12713   */\n      dup4\n        /* \"#utility.yul\":12755:12759   */\n      0x20\n        /* \"#utility.yul\":12747:12753   */\n      dup3\n        /* \"#utility.yul\":12743:12760   */\n      mul\n        /* \"#utility.yul\":12738:12741   */\n      dup6\n        /* \"#utility.yul\":12734:12761   */\n      add\n        /* \"#utility.yul\":12785:12871   */\n      tag_408\n        /* \"#utility.yul\":12865:12870   */\n      dup6\n        /* \"#utility.yul\":12785:12871   */\n      tag_222\n      jump\t// in\n    tag_408:\n        /* \"#utility.yul\":12894:12901   */\n      dup1\n        /* \"#utility.yul\":12925:12926   */\n      0x00\n        /* \"#utility.yul\":12910:13366   */\n    tag_409:\n        /* \"#utility.yul\":12935:12941   */\n      dup6\n        /* \"#utility.yul\":12932:12933   */\n      dup2\n        /* \"#utility.yul\":12929:12942   */\n      lt\n        /* \"#utility.yul\":12910:13366   */\n      iszero\n      tag_411\n      jumpi\n        /* \"#utility.yul\":13006:13015   */\n      dup5\n        /* \"#utility.yul\":13000:13004   */\n      dup5\n        /* \"#utility.yul\":12996:13016   */\n      sub\n        /* \"#utility.yul\":12991:12994   */\n      dup10\n        /* \"#utility.yul\":12984:13017   */\n      mstore\n        /* \"#utility.yul\":13057:13063   */\n      dup2\n        /* \"#utility.yul\":13051:13064   */\n      mload\n        /* \"#utility.yul\":13085:13209   */\n      tag_412\n        /* \"#utility.yul\":13204:13208   */\n      dup6\n        /* \"#utility.yul\":13189:13202   */\n      dup3\n        /* \"#utility.yul\":13085:13209   */\n      tag_226\n      jump\t// in\n    tag_412:\n        /* \"#utility.yul\":13077:13209   */\n      swap5\n      pop\n        /* \"#utility.yul\":13232:13322   */\n      tag_413\n        /* \"#utility.yul\":13315:13321   */\n      dup4\n        /* \"#utility.yul\":13232:13322   */\n      tag_227\n      jump\t// in\n    tag_413:\n        /* \"#utility.yul\":13222:13322   */\n      swap3\n      pop\n        /* \"#utility.yul\":13351:13355   */\n      0x20\n        /* \"#utility.yul\":13346:13349   */\n      dup11\n        /* \"#utility.yul\":13342:13356   */\n      add\n        /* \"#utility.yul\":13335:13356   */\n      swap10\n      pop\n        /* \"#utility.yul\":12970:13366   */\n      pop\n        /* \"#utility.yul\":12957:12958   */\n      0x01\n        /* \"#utility.yul\":12954:12955   */\n      dup2\n        /* \"#utility.yul\":12950:12959   */\n      add\n        /* \"#utility.yul\":12945:12959   */\n      swap1\n      pop\n        /* \"#utility.yul\":12910:13366   */\n      jump(tag_409)\n    tag_411:\n        /* \"#utility.yul\":12914:12928   */\n      pop\n        /* \"#utility.yul\":13382:13386   */\n      dup3\n        /* \"#utility.yul\":13375:13386   */\n      swap8\n      pop\n        /* \"#utility.yul\":13402:13405   */\n      dup8\n        /* \"#utility.yul\":13395:13405   */\n      swap6\n      pop\n        /* \"#utility.yul\":12444:13411   */\n      pop\n      pop\n      pop\n      pop\n      pop\n        /* \"#utility.yul\":12260:13411   */\n      swap3\n      swap2\n      pop\n      pop\n      jump\t// out\n        /* \"#utility.yul\":13417:13910   */\n    tag_47:\n        /* \"#utility.yul\":13620:13624   */\n      0x00\n        /* \"#utility.yul\":13658:13660   */\n      0x20\n        /* \"#utility.yul\":13647:13656   */\n      dup3\n        /* \"#utility.yul\":13643:13661   */\n      add\n        /* \"#utility.yul\":13635:13661   */\n      swap1\n      pop\n        /* \"#utility.yul\":13707:13716   */\n      dup2\n        /* \"#utility.yul\":13701:13705   */\n      dup2\n        /* \"#utility.yul\":13697:13717   */\n      sub\n        /* \"#utility.yul\":13693:13694   */\n      0x00\n        /* \"#utility.yul\":13682:13691   */\n      dup4\n        /* \"#utility.yul\":13678:13695   */\n      add\n        /* \"#utility.yul\":13671:13718   */\n      mstore\n        /* \"#utility.yul\":13735:13903   */\n      tag_415\n        /* \"#utility.yul\":13898:13902   */\n      dup2\n        /* \"#utility.yul\":13889:13895   */\n      dup5\n        /* \"#utility.yul\":13735:13903   */\n      tag_228\n      jump\t// in\n    tag_415:\n        /* \"#utility.yul\":13727:13903   */\n      swap1\n      pop\n        /* \"#utility.yul\":13417:13910   */\n      swap3\n      swap2\n      pop\n      pop\n      jump\t// out\n        /* \"#utility.yul\":13916:14040   */\n    tag_229:\n        /* \"#utility.yul\":13993:13999   */\n      0x00\n        /* \"#utility.yul\":14027:14032   */\n      dup2\n        /* \"#utility.yul\":14021:14033   */\n      mload\n        /* \"#utility.yul\":14011:14033   */\n      swap1\n      pop\n        /* \"#utility.yul\":13916:14040   */\n      swap2\n      swap1\n      pop\n      jump\t// out\n        /* \"#utility.yul\":14046:14240   */\n    tag_230:\n        /* \"#utility.yul\":14155:14166   */\n      0x00\n        /* \"#utility.yul\":14189:14195   */\n      dup3\n        /* \"#utility.yul\":14184:14187   */\n      dup3\n        /* \"#utility.yul\":14177:14196   */\n      mstore\n        /* \"#utility.yul\":14229:14233   */\n      0x20\n        /* \"#utility.yul\":14224:14227   */\n      dup3\n        /* \"#utility.yul\":14220:14234   */\n      add\n        /* \"#utility.yul\":14205:14234   */\n      swap1\n      pop\n        /* \"#utility.yul\":14046:14240   */\n      swap3\n      swap2\n      pop\n      pop\n      jump\t// out\n        /* \"#utility.yul\":14246:14388   */\n    tag_231:\n        /* \"#utility.yul\":14323:14327   */\n      0x00\n        /* \"#utility.yul\":14346:14349   */\n      dup2\n        /* \"#utility.yul\":14338:14349   */\n      swap1\n      pop\n        /* \"#utility.yul\":14376:14380   */\n      0x20\n        /* \"#utility.yul\":14371:14374   */\n      dup3\n        /* \"#utility.yul\":14367:14381   */\n      add\n        /* \"#utility.yul\":14359:14381   */\n      swap1\n      pop\n        /* \"#utility.yul\":14246:14388   */\n      swap2\n      swap1\n      pop\n      jump\t// out\n        /* \"#utility.yul\":14394:14590   */\n    tag_232:\n        /* \"#utility.yul\":14483:14493   */\n      0x00\n        /* \"#utility.yul\":14518:14584   */\n      tag_420\n        /* \"#utility.yul\":14580:14583   */\n      dup4\n        /* \"#utility.yul\":14572:14578   */\n      dup4\n        /* \"#utility.yul\":14518:14584   */\n      tag_212\n      jump\t// in\n    tag_420:\n        /* \"#utility.yul\":14504:14584   */\n      swap1\n      pop\n        /* \"#utility.yul\":14394:14590   */\n      swap3\n      swap2\n      pop\n      pop\n      jump\t// out\n        /* \"#utility.yul\":14596:14719   */\n    tag_233:\n        /* \"#utility.yul\":14676:14680   */\n      0x00\n        /* \"#utility.yul\":14708:14712   */\n      0x20\n        /* \"#utility.yul\":14703:14706   */\n      dup3\n        /* \"#utility.yul\":14699:14713   */\n      add\n        /* \"#utility.yul\":14691:14713   */\n      swap1\n      pop\n        /* \"#utility.yul\":14596:14719   */\n      swap2\n      swap1\n      pop\n      jump\t// out\n        /* \"#utility.yul\":14753:15744   */\n    tag_234:\n        /* \"#utility.yul\":14892:14895   */\n      0x00\n        /* \"#utility.yul\":14921:14985   */\n      tag_423\n        /* \"#utility.yul\":14979:14984   */\n      dup3\n        /* \"#utility.yul\":14921:14985   */\n      tag_229\n      jump\t// in\n    tag_423:\n        /* \"#utility.yul\":15001:15097   */\n      tag_424\n        /* \"#utility.yul\":15090:15096   */\n      dup2\n        /* \"#utility.yul\":15085:15088   */\n      dup6\n        /* \"#utility.yul\":15001:15097   */\n      tag_230\n      jump\t// in\n    tag_424:\n        /* \"#utility.yul\":14994:15097   */\n      swap4\n      pop\n        /* \"#utility.yul\":15123:15126   */\n      dup4\n        /* \"#utility.yul\":15168:15172   */\n      0x20\n        /* \"#utility.yul\":15160:15166   */\n      dup3\n        /* \"#utility.yul\":15156:15173   */\n      mul\n        /* \"#utility.yul\":15151:15154   */\n      dup6\n        /* \"#utility.yul\":15147:15174   */\n      add\n        /* \"#utility.yul\":15198:15264   */\n      tag_425\n        /* \"#utility.yul\":15258:15263   */\n      dup6\n        /* \"#utility.yul\":15198:15264   */\n      tag_231\n      jump\t// in\n    tag_425:\n        /* \"#utility.yul\":15287:15294   */\n      dup1\n        /* \"#utility.yul\":15318:15319   */\n      0x00\n        /* \"#utility.yul\":15303:15699   */\n    tag_426:\n        /* \"#utility.yul\":15328:15334   */\n      dup6\n        /* \"#utility.yul\":15325:15326   */\n      dup2\n        /* \"#utility.yul\":15322:15335   */\n      lt\n        /* \"#utility.yul\":15303:15699   */\n      iszero\n      tag_428\n      jumpi\n        /* \"#utility.yul\":15399:15408   */\n      dup5\n        /* \"#utility.yul\":15393:15397   */\n      dup5\n        /* \"#utility.yul\":15389:15409   */\n      sub\n        /* \"#utility.yul\":15384:15387   */\n      dup10\n        /* \"#utility.yul\":15377:15410   */\n      mstore\n        /* \"#utility.yul\":15450:15456   */\n      dup2\n        /* \"#utility.yul\":15444:15457   */\n      mload\n        /* \"#utility.yul\":15478:15562   */\n      tag_429\n        /* \"#utility.yul\":15557:15561   */\n      dup6\n        /* \"#utility.yul\":15542:15555   */\n      dup3\n        /* \"#utility.yul\":15478:15562   */\n      tag_232\n      jump\t// in\n    tag_429:\n        /* \"#utility.yul\":15470:15562   */\n      swap5\n      pop\n        /* \"#utility.yul\":15585:15655   */\n      tag_430\n        /* \"#utility.yul\":15648:15654   */\n      dup4\n        /* \"#utility.yul\":15585:15655   */\n      tag_233\n      jump\t// in\n    tag_430:\n        /* \"#utility.yul\":15575:15655   */\n      swap3\n      pop\n        /* \"#utility.yul\":15684:15688   */\n      0x20\n        /* \"#utility.yul\":15679:15682   */\n      dup11\n        /* \"#utility.yul\":15675:15689   */\n      add\n        /* \"#utility.yul\":15668:15689   */\n      swap10\n      pop\n        /* \"#utility.yul\":15363:15699   */\n      pop\n        /* \"#utility.yul\":15350:15351   */\n      0x01\n        /* \"#utility.yul\":15347:15348   */\n      dup2\n        /* \"#utility.yul\":15343:15352   */\n      add\n        /* \"#utility.yul\":15338:15352   */\n      swap1\n      pop\n        /* \"#utility.yul\":15303:15699   */\n      jump(tag_426)\n    tag_428:\n        /* \"#utility.yul\":15307:15321   */\n      pop\n        /* \"#utility.yul\":15715:15719   */\n      dup3\n        /* \"#utility.yul\":15708:15719   */\n      swap8\n      pop\n        /* \"#utility.yul\":15735:15738   */\n      dup8\n        /* \"#utility.yul\":15728:15738   */\n      swap6\n      pop\n        /* \"#utility.yul\":14897:15744   */\n      pop\n      pop\n      pop\n      pop\n      pop\n        /* \"#utility.yul\":14753:15744   */\n      swap3\n      swap2\n      pop\n      pop\n      jump\t// out\n        /* \"#utility.yul\":15750:16163   */\n    tag_51:\n        /* \"#utility.yul\":15913:15917   */\n      0x00\n        /* \"#utility.yul\":15951:15953   */\n      0x20\n        /* \"#utility.yul\":15940:15949   */\n      dup3\n        /* \"#utility.yul\":15936:15954   */\n      add\n        /* \"#utility.yul\":15928:15954   */\n      swap1\n      pop\n        /* \"#utility.yul\":16000:16009   */\n      dup2\n        /* \"#utility.yul\":15994:15998   */\n      dup2\n        /* \"#utility.yul\":15990:16010   */\n      sub\n        /* \"#utility.yul\":15986:15987   */\n      0x00\n        /* \"#utility.yul\":15975:15984   */\n      dup4\n        /* \"#utility.yul\":15971:15988   */\n      add\n        /* \"#utility.yul\":15964:16011   */\n      mstore\n        /* \"#utility.yul\":16028:16156   */\n      tag_432\n        /* \"#utility.yul\":16151:16155   */\n      dup2\n        /* \"#utility.yul\":16142:16148   */\n      dup5\n        /* \"#utility.yul\":16028:16156   */\n      tag_234\n      jump\t// in\n    tag_432:\n        /* \"#utility.yul\":16020:16156   */\n      swap1\n      pop\n        /* \"#utility.yul\":15750:16163   */\n      swap3\n      swap2\n      pop\n      pop\n      jump\t// out\n        /* \"#utility.yul\":16169:16341   */\n    tag_235:\n        /* \"#utility.yul\":16309:16333   */\n      0x497373756572206d757374206861766520612044494400000000000000000000\n        /* \"#utility.yul\":16305:16306   */\n      0x00\n        /* \"#utility.yul\":16297:16303   */\n      dup3\n        /* \"#utility.yul\":16293:16307   */\n      add\n        /* \"#utility.yul\":16286:16334   */\n      mstore\n        /* \"#utility.yul\":16169:16341   */\n      pop\n      jump\t// out\n        /* \"#utility.yul\":16347:16713   */\n    tag_236:\n        /* \"#utility.yul\":16489:16492   */\n      0x00\n        /* \"#utility.yul\":16510:16577   */\n      tag_435\n        /* \"#utility.yul\":16574:16576   */\n      0x16\n        /* \"#utility.yul\":16569:16572   */\n      dup4\n        /* \"#utility.yul\":16510:16577   */\n      tag_218\n      jump\t// in\n    tag_435:\n        /* \"#utility.yul\":16503:16577   */\n      swap2\n      pop\n        /* \"#utility.yul\":16586:16679   */\n      tag_436\n        /* \"#utility.yul\":16675:16678   */\n      dup3\n        /* \"#utility.yul\":16586:16679   */\n      tag_235\n      jump\t// in\n    tag_436:\n        /* \"#utility.yul\":16704:16706   */\n      0x20\n        /* \"#utility.yul\":16699:16702   */\n      dup3\n        /* \"#utility.yul\":16695:16707   */\n      add\n        /* \"#utility.yul\":16688:16707   */\n      swap1\n      pop\n        /* \"#utility.yul\":16347:16713   */\n      swap2\n      swap1\n      pop\n      jump\t// out\n        /* \"#utility.yul\":16719:17138   */\n    tag_55:\n        /* \"#utility.yul\":16885:16889   */\n      0x00\n        /* \"#utility.yul\":16923:16925   */\n      0x20\n        /* \"#utility.yul\":16912:16921   */\n      dup3\n        /* \"#utility.yul\":16908:16926   */\n      add\n        /* \"#utility.yul\":16900:16926   */\n      swap1\n      pop\n        /* \"#utility.yul\":16972:16981   */\n      dup2\n        /* \"#utility.yul\":16966:16970   */\n      dup2\n        /* \"#utility.yul\":16962:16982   */\n      sub\n        /* \"#utility.yul\":16958:16959   */\n      0x00\n        /* \"#utility.yul\":16947:16956   */\n      dup4\n        /* \"#utility.yul\":16943:16960   */\n      add\n        /* \"#utility.yul\":16936:16983   */\n      mstore\n        /* \"#utility.yul\":17000:17131   */\n      tag_438\n        /* \"#utility.yul\":17126:17130   */\n      dup2\n        /* \"#utility.yul\":17000:17131   */\n      tag_236\n      jump\t// in\n    tag_438:\n        /* \"#utility.yul\":16992:17131   */\n      swap1\n      pop\n        /* \"#utility.yul\":16719:17138   */\n      swap2\n      swap1\n      pop\n      jump\t// out\n        /* \"#utility.yul\":17144:17314   */\n    tag_237:\n        /* \"#utility.yul\":17284:17306   */\n      0x526f6c652063616e6e6f7420626520656d707479000000000000000000000000\n        /* \"#utility.yul\":17280:17281   */\n      0x00\n        /* \"#utility.yul\":17272:17278   */\n      dup3\n        /* \"#utility.yul\":17268:17282   */\n      add\n        /* \"#utility.yul\":17261:17307   */\n      mstore\n        /* \"#utility.yul\":17144:17314   */\n      pop\n      jump\t// out\n        /* \"#utility.yul\":17320:17686   */\n    tag_238:\n        /* \"#utility.yul\":17462:17465   */\n      0x00\n        /* \"#utility.yul\":17483:17550   */\n      tag_441\n        /* \"#utility.yul\":17547:17549   */\n      0x14\n        /* \"#utility.yul\":17542:17545   */\n      dup4\n        /* \"#utility.yul\":17483:17550   */\n      tag_218\n      jump\t// in\n    tag_441:\n        /* \"#utility.yul\":17476:17550   */\n      swap2\n      pop\n        /* \"#utility.yul\":17559:17652   */\n      tag_442\n        /* \"#utility.yul\":17648:17651   */\n      dup3\n        /* \"#utility.yul\":17559:17652   */\n      tag_237\n      jump\t// in\n    tag_442:\n        /* \"#utility.yul\":17677:17679   */\n      0x20\n        /* \"#utility.yul\":17672:17675   */\n      dup3\n        /* \"#utility.yul\":17668:17680   */\n      add\n        /* \"#utility.yul\":17661:17680   */\n      swap1\n      pop\n        /* \"#utility.yul\":17320:17686   */\n      swap2\n      swap1\n      pop\n      jump\t// out\n        /* \"#utility.yul\":17692:18111   */\n    tag_58:\n        /* \"#utility.yul\":17858:17862   */\n      0x00\n        /* \"#utility.yul\":17896:17898   */\n      0x20\n        /* \"#utility.yul\":17885:17894   */\n      dup3\n        /* \"#utility.yul\":17881:17899   */\n      add\n        /* \"#utility.yul\":17873:17899   */\n      swap1\n      pop\n        /* \"#utility.yul\":17945:17954   */\n      dup2\n        /* \"#utility.yul\":17939:17943   */\n      dup2\n        /* \"#utility.yul\":17935:17955   */\n      sub\n        /* \"#utility.yul\":17931:17932   */\n      0x00\n        /* \"#utility.yul\":17920:17929   */\n      dup4\n        /* \"#utility.yul\":17916:17933   */\n      add\n        /* \"#utility.yul\":17909:17956   */\n      mstore\n        /* \"#utility.yul\":17973:18104   */\n      tag_444\n        /* \"#utility.yul\":18099:18103   */\n      dup2\n        /* \"#utility.yul\":17973:18104   */\n      tag_238\n      jump\t// in\n    tag_444:\n        /* \"#utility.yul\":17965:18104   */\n      swap1\n      pop\n        /* \"#utility.yul\":17692:18111   */\n      swap2\n      swap1\n      pop\n      jump\t// out\n        /* \"#utility.yul\":18117:18211   */\n    tag_239:\n        /* \"#utility.yul\":18150:18158   */\n      0x00\n        /* \"#utility.yul\":18198:18203   */\n      dup2\n        /* \"#utility.yul\":18194:18196   */\n      0x60\n        /* \"#utility.yul\":18190:18204   */\n      shl\n        /* \"#utility.yul\":18169:18204   */\n      swap1\n      pop\n        /* \"#utility.yul\":18117:18211   */\n      swap2\n      swap1\n      pop\n      jump\t// out\n        /* \"#utility.yul\":18217:18311   */\n    tag_240:\n        /* \"#utility.yul\":18256:18263   */\n      0x00\n        /* \"#utility.yul\":18285:18305   */\n      tag_447\n        /* \"#utility.yul\":18299:18304   */\n      dup3\n        /* \"#utility.yul\":18285:18305   */\n      tag_239\n      jump\t// in\n    tag_447:\n        /* \"#utility.yul\":18274:18305   */\n      swap1\n      pop\n        /* \"#utility.yul\":18217:18311   */\n      swap2\n      swap1\n      pop\n      jump\t// out\n        /* \"#utility.yul\":18317:18417   */\n    tag_241:\n        /* \"#utility.yul\":18356:18363   */\n      0x00\n        /* \"#utility.yul\":18385:18411   */\n      tag_449\n        /* \"#utility.yul\":18405:18410   */\n      dup3\n        /* \"#utility.yul\":18385:18411   */\n      tag_240\n      jump\t// in\n    tag_449:\n        /* \"#utility.yul\":18374:18411   */\n      swap1\n      pop\n        /* \"#utility.yul\":18317:18417   */\n      swap2\n      swap1\n      pop\n      jump\t// out\n        /* \"#utility.yul\":18423:18580   */\n    tag_242:\n        /* \"#utility.yul\":18528:18573   */\n      tag_451\n        /* \"#utility.yul\":18548:18572   */\n      tag_452\n        /* \"#utility.yul\":18566:18571   */\n      dup3\n        /* \"#utility.yul\":18548:18572   */\n      tag_196\n      jump\t// in\n    tag_452:\n        /* \"#utility.yul\":18528:18573   */\n      tag_241\n      jump\t// in\n    tag_451:\n        /* \"#utility.yul\":18523:18526   */\n      dup3\n        /* \"#utility.yul\":18516:18574   */\n      mstore\n        /* \"#utility.yul\":18423:18580   */\n      pop\n      pop\n      jump\t// out\n        /* \"#utility.yul\":18586:18734   */\n    tag_243:\n        /* \"#utility.yul\":18688:18699   */\n      0x00\n        /* \"#utility.yul\":18725:18728   */\n      dup2\n        /* \"#utility.yul\":18710:18728   */\n      swap1\n      pop\n        /* \"#utility.yul\":18586:18734   */\n      swap3\n      swap2\n      pop\n      pop\n      jump\t// out\n        /* \"#utility.yul\":18740:19130   */\n    tag_244:\n        /* \"#utility.yul\":18846:18849   */\n      0x00\n        /* \"#utility.yul\":18874:18913   */\n      tag_455\n        /* \"#utility.yul\":18907:18912   */\n      dup3\n        /* \"#utility.yul\":18874:18913   */\n      tag_209\n      jump\t// in\n    tag_455:\n        /* \"#utility.yul\":18929:19018   */\n      tag_456\n        /* \"#utility.yul\":19011:19017   */\n      dup2\n        /* \"#utility.yul\":19006:19009   */\n      dup6\n        /* \"#utility.yul\":18929:19018   */\n      tag_243\n      jump\t// in\n    tag_456:\n        /* \"#utility.yul\":18922:19018   */\n      swap4\n      pop\n        /* \"#utility.yul\":19027:19092   */\n      tag_457\n        /* \"#utility.yul\":19085:19091   */\n      dup2\n        /* \"#utility.yul\":19080:19083   */\n      dup6\n        /* \"#utility.yul\":19073:19077   */\n      0x20\n        /* \"#utility.yul\":19066:19071   */\n      dup7\n        /* \"#utility.yul\":19062:19078   */\n      add\n        /* \"#utility.yul\":19027:19092   */\n      tag_211\n      jump\t// in\n    tag_457:\n        /* \"#utility.yul\":19117:19123   */\n      dup1\n        /* \"#utility.yul\":19112:19115   */\n      dup5\n        /* \"#utility.yul\":19108:19124   */\n      add\n        /* \"#utility.yul\":19101:19124   */\n      swap2\n      pop\n        /* \"#utility.yul\":18850:19130   */\n      pop\n        /* \"#utility.yul\":18740:19130   */\n      swap3\n      swap2\n      pop\n      pop\n      jump\t// out\n        /* \"#utility.yul\":19136:19215   */\n    tag_245:\n        /* \"#utility.yul\":19175:19182   */\n      0x00\n        /* \"#utility.yul\":19204:19209   */\n      dup2\n        /* \"#utility.yul\":19193:19209   */\n      swap1\n      pop\n        /* \"#utility.yul\":19136:19215   */\n      swap2\n      swap1\n      pop\n      jump\t// out\n        /* \"#utility.yul\":19221:19378   */\n    tag_246:\n        /* \"#utility.yul\":19326:19371   */\n      tag_460\n        /* \"#utility.yul\":19346:19370   */\n      tag_461\n        /* \"#utility.yul\":19364:19369   */\n      dup3\n        /* \"#utility.yul\":19346:19370   */\n      tag_213\n      jump\t// in\n    tag_461:\n        /* \"#utility.yul\":19326:19371   */\n      tag_245\n      jump\t// in\n    tag_460:\n        /* \"#utility.yul\":19321:19324   */\n      dup3\n        /* \"#utility.yul\":19314:19372   */\n      mstore\n        /* \"#utility.yul\":19221:19378   */\n      pop\n      pop\n      jump\t// out\n        /* \"#utility.yul\":19384:20082   */\n    tag_60:\n        /* \"#utility.yul\":19600:19603   */\n      0x00\n        /* \"#utility.yul\":19615:19690   */\n      tag_463\n        /* \"#utility.yul\":19686:19689   */\n      dup3\n        /* \"#utility.yul\":19677:19683   */\n      dup8\n        /* \"#utility.yul\":19615:19690   */\n      tag_242\n      jump\t// in\n    tag_463:\n        /* \"#utility.yul\":19715:19717   */\n      0x14\n        /* \"#utility.yul\":19710:19713   */\n      dup3\n        /* \"#utility.yul\":19706:19718   */\n      add\n        /* \"#utility.yul\":19699:19718   */\n      swap2\n      pop\n        /* \"#utility.yul\":19728:19803   */\n      tag_464\n        /* \"#utility.yul\":19799:19802   */\n      dup3\n        /* \"#utility.yul\":19790:19796   */\n      dup7\n        /* \"#utility.yul\":19728:19803   */\n      tag_242\n      jump\t// in\n    tag_464:\n        /* \"#utility.yul\":19828:19830   */\n      0x14\n        /* \"#utility.yul\":19823:19826   */\n      dup3\n        /* \"#utility.yul\":19819:19831   */\n      add\n        /* \"#utility.yul\":19812:19831   */\n      swap2\n      pop\n        /* \"#utility.yul\":19848:19943   */\n      tag_465\n        /* \"#utility.yul\":19939:19942   */\n      dup3\n        /* \"#utility.yul\":19930:19936   */\n      dup6\n        /* \"#utility.yul\":19848:19943   */\n      tag_244\n      jump\t// in\n    tag_465:\n        /* \"#utility.yul\":19841:19943   */\n      swap2\n      pop\n        /* \"#utility.yul\":19953:20028   */\n      tag_466\n        /* \"#utility.yul\":20024:20027   */\n      dup3\n        /* \"#utility.yul\":20015:20021   */\n      dup5\n        /* \"#utility.yul\":19953:20028   */\n      tag_246\n      jump\t// in\n    tag_466:\n        /* \"#utility.yul\":20053:20055   */\n      0x20\n        /* \"#utility.yul\":20048:20051   */\n      dup3\n        /* \"#utility.yul\":20044:20056   */\n      add\n        /* \"#utility.yul\":20037:20056   */\n      swap2\n      pop\n        /* \"#utility.yul\":20073:20076   */\n      dup2\n        /* \"#utility.yul\":20066:20076   */\n      swap1\n      pop\n        /* \"#utility.yul\":19384:20082   */\n      swap6\n      swap5\n      pop\n      pop\n      pop\n      pop\n      pop\n      jump\t// out\n        /* \"#utility.yul\":20088:20268   */\n    tag_247:\n        /* \"#utility.yul\":20136:20213   */\n      0x4e487b7100000000000000000000000000000000000000000000000000000000\n        /* \"#utility.yul\":20133:20134   */\n      0x00\n        /* \"#utility.yul\":20126:20214   */\n      mstore\n        /* \"#utility.yul\":20233:20237   */\n      0x22\n        /* \"#utility.yul\":20230:20231   */\n      0x04\n        /* \"#utility.yul\":20223:20238   */\n      mstore\n        /* \"#utility.yul\":20257:20261   */\n      0x24\n        /* \"#utility.yul\":20254:20255   */\n      0x00\n        /* \"#utility.yul\":20247:20262   */\n      revert\n        /* \"#utility.yul\":20274:20594   */\n    tag_102:\n        /* \"#utility.yul\":20318:20324   */\n      0x00\n        /* \"#utility.yul\":20355:20356   */\n      0x02\n        /* \"#utility.yul\":20349:20353   */\n      dup3\n        /* \"#utility.yul\":20345:20357   */\n      div\n        /* \"#utility.yul\":20335:20357   */\n      swap1\n      pop\n        /* \"#utility.yul\":20402:20403   */\n      0x01\n        /* \"#utility.yul\":20396:20400   */\n      dup3\n        /* \"#utility.yul\":20392:20404   */\n      and\n        /* \"#utility.yul\":20423:20441   */\n      dup1\n        /* \"#utility.yul\":20413:20494   */\n      tag_469\n      jumpi\n        /* \"#utility.yul\":20479:20483   */\n      0x7f\n        /* \"#utility.yul\":20471:20477   */\n      dup3\n        /* \"#utility.yul\":20467:20484   */\n      and\n        /* \"#utility.yul\":20457:20484   */\n      swap2\n      pop\n        /* \"#utility.yul\":20413:20494   */\n    tag_469:\n        /* \"#utility.yul\":20541:20543   */\n      0x20\n        /* \"#utility.yul\":20533:20539   */\n      dup3\n        /* \"#utility.yul\":20530:20544   */\n      lt\n        /* \"#utility.yul\":20510:20528   */\n      dup2\n        /* \"#utility.yul\":20507:20545   */\n      sub\n        /* \"#utility.yul\":20504:20588   */\n      tag_470\n      jumpi\n        /* \"#utility.yul\":20560:20578   */\n      tag_471\n      tag_247\n      jump\t// in\n    tag_471:\n        /* \"#utility.yul\":20504:20588   */\n    tag_470:\n        /* \"#utility.yul\":20325:20594   */\n      pop\n        /* \"#utility.yul\":20274:20594   */\n      swap2\n      swap1\n      pop\n      jump\t// out\n        /* \"#utility.yul\":20600:20741   */\n    tag_248:\n        /* \"#utility.yul\":20649:20653   */\n      0x00\n        /* \"#utility.yul\":20672:20675   */\n      dup2\n        /* \"#utility.yul\":20664:20675   */\n      swap1\n      pop\n        /* \"#utility.yul\":20695:20698   */\n      dup2\n        /* \"#utility.yul\":20692:20693   */\n      0x00\n        /* \"#utility.yul\":20685:20699   */\n      mstore\n        /* \"#utility.yul\":20729:20733   */\n      0x20\n        /* \"#utility.yul\":20726:20727   */\n      0x00\n        /* \"#utility.yul\":20716:20734   */\n      keccak256\n        /* \"#utility.yul\":20708:20734   */\n      swap1\n      pop\n        /* \"#utility.yul\":20600:20741   */\n      swap2\n      swap1\n      pop\n      jump\t// out\n        /* \"#utility.yul\":20747:20840   */\n    tag_249:\n        /* \"#utility.yul\":20784:20790   */\n      0x00\n        /* \"#utility.yul\":20831:20833   */\n      0x20\n        /* \"#utility.yul\":20826:20828   */\n      0x1f\n        /* \"#utility.yul\":20819:20824   */\n      dup4\n        /* \"#utility.yul\":20815:20829   */\n      add\n        /* \"#utility.yul\":20811:20834   */\n      div\n        /* \"#utility.yul\":20801:20834   */\n      swap1\n      pop\n        /* \"#utility.yul\":20747:20840   */\n      swap2\n      swap1\n      pop\n      jump\t// out\n        /* \"#utility.yul\":20846:20953   */\n    tag_250:\n        /* \"#utility.yul\":20890:20898   */\n      0x00\n        /* \"#utility.yul\":20940:20945   */\n      dup3\n        /* \"#utility.yul\":20934:20938   */\n      dup3\n        /* \"#utility.yul\":20930:20946   */\n      shl\n        /* \"#utility.yul\":20909:20946   */\n      swap1\n      pop\n        /* \"#utility.yul\":20846:20953   */\n      swap3\n      swap2\n      pop\n      pop\n      jump\t// out\n        /* \"#utility.yul\":20959:21352   */\n    tag_251:\n        /* \"#utility.yul\":21028:21034   */\n      0x00\n        /* \"#utility.yul\":21078:21079   */\n      0x08\n        /* \"#utility.yul\":21066:21076   */\n      dup4\n        /* \"#utility.yul\":21062:21080   */\n      mul\n        /* \"#utility.yul\":21101:21198   */\n      tag_476\n        /* \"#utility.yul\":21131:21197   */\n      0xffffffffffffffffffffffffffffffffffffffffffffffffffffffffffffffff\n        /* \"#utility.yul\":21120:21129   */\n      dup3\n        /* \"#utility.yul\":21101:21198   */\n      tag_250\n      jump\t// in\n    tag_476:\n        /* \"#utility.yul\":21219:21258   */\n      tag_477\n        /* \"#utility.yul\":21249:21257   */\n      dup7\n        /* \"#utility.yul\":21238:21247   */\n      dup4\n        /* \"#utility.yul\":21219:21258   */\n      tag_250\n      jump\t// in\n    tag_477:\n        /* \"#utility.yul\":21207:21258   */\n      swap6\n      pop\n        /* \"#utility.yul\":21291:21295   */\n      dup1\n        /* \"#utility.yul\":21287:21296   */\n      not\n        /* \"#utility.yul\":21280:21285   */\n      dup5\n        /* \"#utility.yul\":21276:21297   */\n      and\n        /* \"#utility.yul\":21267:21297   */\n      swap4\n      pop\n        /* \"#utility.yul\":21340:21344   */\n      dup1\n        /* \"#utility.yul\":21330:21338   */\n      dup7\n        /* \"#utility.yul\":21326:21345   */\n      and\n        /* \"#utility.yul\":21319:21324   */\n      dup5\n        /* \"#utility.yul\":21316:21346   */\n      or\n        /* \"#utility.yul\":21306:21346   */\n      swap3\n      pop\n        /* \"#utility.yul\":21035:21352   */\n      pop\n      pop\n        /* \"#utility.yul\":20959:21352   */\n      swap4\n      swap3\n      pop\n      pop\n      pop\n      jump\t// out\n        /* \"#utility.yul\":21358:21418   */\n    tag_252:\n        /* \"#utility.yul\":21386:21389   */\n      0x00\n        /* \"#utility.yul\":21407:21412   */\n      dup2\n        /* \"#utility.yul\":21400:21412   */\n      swap1\n      pop\n        /* \"#utility.yul\":21358:21418   */\n      swap2\n      swap1\n      pop\n      jump\t// out\n        /* \"#utility.yul\":21424:21566   */\n    tag_253:\n        /* \"#utility.yul\":21474:21483   */\n      0x00\n        /* \"#utility.yul\":21507:21560   */\n      tag_480\n        /* \"#utility.yul\":21525:21559   */\n      tag_481\n        /* \"#utility.yul\":21534:21558   */\n      tag_482\n        /* \"#utility.yul\":21552:21557   */\n      dup5\n        /* \"#utility.yul\":21534:21558   */\n      tag_213\n      jump\t// in\n    tag_482:\n        /* \"#utility.yul\":21525:21559   */\n      tag_252\n      jump\t// in\n    tag_481:\n        /* \"#utility.yul\":21507:21560   */\n      tag_213\n      jump\t// in\n    tag_480:\n        /* \"#utility.yul\":21494:21560   */\n      swap1\n      pop\n        /* \"#utility.yul\":21424:21566   */\n      swap2\n      swap1\n      pop\n      jump\t// out\n        /* \"#utility.yul\":21572:21647   */\n    tag_254:\n        /* \"#utility.yul\":21615:21618   */\n      0x00\n        /* \"#utility.yul\":21636:21641   */\n      dup2\n        /* \"#utility.yul\":21629:21641   */\n      swap1\n      pop\n        /* \"#utility.yul\":21572:21647   */\n      swap2\n      swap1\n      pop\n      jump\t// out\n        /* \"#utility.yul\":21653:21922   */\n    tag_255:\n        /* \"#utility.yul\":21763:21802   */\n      tag_485\n        /* \"#utility.yul\":21794:21801   */\n      dup4\n        /* \"#utility.yul\":21763:21802   */\n      tag_253\n      jump\t// in\n    tag_485:\n        /* \"#utility.yul\":21824:21915   */\n      tag_486\n        /* \"#utility.yul\":21873:21914   */\n      tag_487\n        /* \"#utility.yul\":21897:21913   */\n      dup3\n        /* \"#utility.yul\":21873:21914   */\n      tag_254\n      jump\t// in\n    tag_487:\n        /* \"#utility.yul\":21865:21871   */\n      dup5\n        /* \"#utility.yul\":21858:21862   */\n      dup5\n        /* \"#utility.yul\":21852:21863   */\n      sload\n        /* \"#utility.yul\":21824:21915   */\n      tag_251\n      jump\t// in\n    tag_486:\n        /* \"#utility.yul\":21818:21822   */\n      dup3\n        /* \"#utility.yul\":21811:21916   */\n      sstore\n        /* \"#utility.yul\":21729:21922   */\n      pop\n        /* \"#utility.yul\":21653:21922   */\n      pop\n      pop\n      pop\n      jump\t// out\n        /* \"#utility.yul\":21928:22001   */\n    tag_256:\n        /* \"#utility.yul\":21973:21976   */\n      0x00\n        /* \"#utility.yul\":21928:22001   */\n      swap1\n      jump\t// out\n        /* \"#utility.yul\":22007:22196   */\n    tag_257:\n        /* \"#utility.yul\":22084:22116   */\n      tag_490\n      tag_256\n      jump\t// in\n    tag_490:\n        /* \"#utility.yul\":22125:22190   */\n      tag_491\n        /* \"#utility.yul\":22183:22189   */\n      dup2\n        /* \"#utility.yul\":22175:22181   */\n      dup5\n        /* \"#utility.yul\":22169:22173   */\n      dup5\n        /* \"#utility.yul\":22125:22190   */\n      tag_255\n      jump\t// in\n    tag_491:\n        /* \"#utility.yul\":22060:22196   */\n      pop\n        /* \"#utility.yul\":22007:22196   */\n      pop\n      pop\n      jump\t// out\n        /* \"#utility.yul\":22202:22388   */\n    tag_258:\n        /* \"#utility.yul\":22262:22382   */\n    tag_493:\n        /* \"#utility.yul\":22279:22282   */\n      dup2\n        /* \"#utility.yul\":22272:22277   */\n      dup2\n        /* \"#utility.yul\":22269:22283   */\n      lt\n        /* \"#utility.yul\":22262:22382   */\n      iszero\n      tag_495\n      jumpi\n        /* \"#utility.yul\":22333:22372   */\n      tag_496\n        /* \"#utility.yul\":22370:22371   */\n      0x00\n        /* \"#utility.yul\":22363:22368   */\n      dup3\n        /* \"#utility.yul\":22333:22372   */\n      tag_257\n      jump\t// in\n    tag_496:\n        /* \"#utility.yul\":22306:22307   */\n      0x01\n        /* \"#utility.yul\":22299:22304   */\n      dup2\n        /* \"#utility.yul\":22295:22308   */\n      add\n        /* \"#utility.yul\":22286:22308   */\n      swap1\n      pop\n        /* \"#utility.yul\":22262:22382   */\n      jump(tag_493)\n    tag_495:\n        /* \"#utility.yul\":22202:22388   */\n      pop\n      pop\n      jump\t// out\n        /* \"#utility.yul\":22394:22937   */\n    tag_259:\n        /* \"#utility.yul\":22495:22497   */\n      0x1f\n        /* \"#utility.yul\":22490:22493   */\n      dup3\n        /* \"#utility.yul\":22487:22498   */\n      gt\n        /* \"#utility.yul\":22484:22930   */\n      iszero\n      tag_498\n      jumpi\n        /* \"#utility.yul\":22529:22567   */\n      tag_499\n        /* \"#utility.yul\":22561:22566   */\n      dup2\n        /* \"#utility.yul\":22529:22567   */\n      tag_248\n      jump\t// in\n    tag_499:\n        /* \"#utility.yul\":22613:22642   */\n      tag_500\n        /* \"#utility.yul\":22631:22641   */\n      dup5\n        /* \"#utility.yul\":22613:22642   */\n      tag_249\n      jump\t// in\n    tag_500:\n        /* \"#utility.yul\":22603:22611   */\n      dup2\n        /* \"#utility.yul\":22599:22643   */\n      add\n        /* \"#utility.yul\":22796:22798   */\n      0x20\n        /* \"#utility.yul\":22784:22794   */\n      dup6\n        /* \"#utility.yul\":22781:22799   */\n      lt\n        /* \"#utility.yul\":22778:22827   */\n      iszero\n      tag_501\n      jumpi\n        /* \"#utility.yul\":22817:22825   */\n      dup2\n        /* \"#utility.yul\":22802:22825   */\n      swap1\n      pop\n        /* \"#utility.yul\":22778:22827   */\n    tag_501:\n        /* \"#utility.yul\":22840:22920   */\n      tag_502\n        /* \"#utility.yul\":22896:22918   */\n      tag_503\n        /* \"#utility.yul\":22914:22917   */\n      dup6\n        /* \"#utility.yul\":22896:22918   */\n      tag_249\n      jump\t// in\n    tag_503:\n        /* \"#utility.yul\":22886:22894   */\n      dup4\n        /* \"#utility.yul\":22882:22919   */\n      add\n        /* \"#utility.yul\":22869:22880   */\n      dup3\n        /* \"#utility.yul\":22840:22920   */\n      tag_258\n      jump\t// in\n    tag_502:\n        /* \"#utility.yul\":22499:22930   */\n      pop\n      pop\n        /* \"#utility.yul\":22484:22930   */\n    tag_498:\n        /* \"#utility.yul\":22394:22937   */\n      pop\n      pop\n      pop\n      jump\t// out\n        /* \"#utility.yul\":22943:23060   */\n    tag_260:\n        /* \"#utility.yul\":22997:23005   */\n      0x00\n        /* \"#utility.yul\":23047:23052   */\n      dup3\n        /* \"#utility.yul\":23041:23045   */\n      dup3\n        /* \"#utility.yul\":23037:23053   */\n      shr\n        /* \"#utility.yul\":23016:23053   */\n      swap1\n      pop\n        /* \"#utility.yul\":22943:23060   */\n      swap3\n      swap2\n      pop\n      pop\n      jump\t// out\n        /* \"#utility.yul\":23066:23235   */\n    tag_261:\n        /* \"#utility.yul\":23110:23116   */\n      0x00\n        /* \"#utility.yul\":23143:23194   */\n      tag_506\n        /* \"#utility.yul\":23191:23192   */\n      0x00\n        /* \"#utility.yul\":23187:23193   */\n      not\n        /* \"#utility.yul\":23179:23184   */\n      dup5\n        /* \"#utility.yul\":23176:23177   */\n      0x08\n        /* \"#utility.yul\":23172:23185   */\n      mul\n        /* \"#utility.yul\":23143:23194   */\n      tag_260\n      jump\t// in\n    tag_506:\n        /* \"#utility.yul\":23139:23195   */\n      not\n        /* \"#utility.yul\":23224:23228   */\n      dup1\n        /* \"#utility.yul\":23218:23222   */\n      dup4\n        /* \"#utility.yul\":23214:23229   */\n      and\n        /* \"#utility.yul\":23204:23229   */\n      swap2\n      pop\n        /* \"#utility.yul\":23117:23235   */\n      pop\n        /* \"#utility.yul\":23066:23235   */\n      swap3\n      swap2\n      pop\n      pop\n      jump\t// out\n        /* \"#utility.yul\":23240:23535   */\n    tag_262:\n        /* \"#utility.yul\":23316:23320   */\n      0x00\n        /* \"#utility.yul\":23462:23491   */\n      tag_508\n        /* \"#utility.yul\":23487:23490   */\n      dup4\n        /* \"#utility.yul\":23481:23485   */\n      dup4\n        /* \"#utility.yul\":23462:23491   */\n      tag_261\n      jump\t// in\n    tag_508:\n        /* \"#utility.yul\":23454:23491   */\n      swap2\n      pop\n        /* \"#utility.yul\":23524:23527   */\n      dup3\n        /* \"#utility.yul\":23521:23522   */\n      0x02\n        /* \"#utility.yul\":23517:23528   */\n      mul\n        /* \"#utility.yul\":23511:23515   */\n      dup3\n        /* \"#utility.yul\":23508:23529   */\n      or\n        /* \"#utility.yul\":23500:23529   */\n      swap1\n      pop\n        /* \"#utility.yul\":23240:23535   */\n      swap3\n      swap2\n      pop\n      pop\n      jump\t// out\n        /* \"#utility.yul\":23540:24935   */\n    tag_63:\n        /* \"#utility.yul\":23657:23694   */\n      tag_510\n        /* \"#utility.yul\":23690:23693   */\n      dup3\n        /* \"#utility.yul\":23657:23694   */\n      tag_209\n      jump\t// in\n    tag_510:\n        /* \"#utility.yul\":23759:23777   */\n      0xffffffffffffffff\n        /* \"#utility.yul\":23751:23757   */\n      dup2\n        /* \"#utility.yul\":23748:23778   */\n      gt\n        /* \"#utility.yul\":23745:23801   */\n      iszero\n      tag_511\n      jumpi\n        /* \"#utility.yul\":23781:23799   */\n      tag_512\n      tag_202\n      jump\t// in\n    tag_512:\n        /* \"#utility.yul\":23745:23801   */\n    tag_511:\n        /* \"#utility.yul\":23825:23863   */\n      tag_513\n        /* \"#utility.yul\":23857:23861   */\n      dup3\n        /* \"#utility.yul\":23851:23862   */\n      sload\n        /* \"#utility.yul\":23825:23863   */\n      tag_102\n      jump\t// in\n    tag_513:\n        /* \"#utility.yul\":23910:23977   */\n      tag_514\n        /* \"#utility.yul\":23970:23976   */\n      dup3\n        /* \"#utility.yul\":23962:23968   */\n      dup3\n        /* \"#utility.yul\":23956:23960   */\n      dup6\n        /* \"#utility.yul\":23910:23977   */\n      tag_259\n      jump\t// in\n    tag_514:\n        /* \"#utility.yul\":24004:24005   */\n      0x00\n        /* \"#utility.yul\":24028:24032   */\n      0x20\n        /* \"#utility.yul\":24015:24032   */\n      swap1\n      pop\n        /* \"#utility.yul\":24060:24062   */\n      0x1f\n        /* \"#utility.yul\":24052:24058   */\n      dup4\n        /* \"#utility.yul\":24049:24063   */\n      gt\n        /* \"#utility.yul\":24077:24078   */\n      0x01\n        /* \"#utility.yul\":24072:24690   */\n      dup2\n      eq\n      tag_516\n      jumpi\n        /* \"#utility.yul\":24734:24735   */\n      0x00\n        /* \"#utility.yul\":24751:24757   */\n      dup5\n        /* \"#utility.yul\":24748:24825   */\n      iszero\n      tag_517\n      jumpi\n        /* \"#utility.yul\":24800:24809   */\n      dup3\n        /* \"#utility.yul\":24795:24798   */\n      dup8\n        /* \"#utility.yul\":24791:24810   */\n      add\n        /* \"#utility.yul\":24785:24811   */\n      mload\n        /* \"#utility.yul\":24776:24811   */\n      swap1\n      pop\n        /* \"#utility.yul\":24748:24825   */\n    tag_517:\n        /* \"#utility.yul\":24851:24918   */\n      tag_518\n        /* \"#utility.yul\":24911:24917   */\n      dup6\n        /* \"#utility.yul\":24904:24909   */\n      dup3\n        /* \"#utility.yul\":24851:24918   */\n      tag_262\n      jump\t// in\n    tag_518:\n        /* \"#utility.yul\":24845:24849   */\n      dup7\n        /* \"#utility.yul\":24838:24919   */\n      sstore\n        /* \"#utility.yul\":24707:24929   */\n      pop\n        /* \"#utility.yul\":24042:24929   */\n      jump(tag_515)\n        /* \"#utility.yul\":24072:24690   */\n    tag_516:\n        /* \"#utility.yul\":24124:24128   */\n      0x1f\n        /* \"#utility.yul\":24120:24129   */\n      not\n        /* \"#utility.yul\":24112:24118   */\n      dup5\n        /* \"#utility.yul\":24108:24130   */\n      and\n        /* \"#utility.yul\":24158:24195   */\n      tag_519\n        /* \"#utility.yul\":24190:24194   */\n      dup7\n        /* \"#utility.yul\":24158:24195   */\n      tag_248\n      jump\t// in\n    tag_519:\n        /* \"#utility.yul\":24217:24218   */\n      0x00\n        /* \"#utility.yul\":24231:24439   */\n    tag_520:\n        /* \"#utility.yul\":24245:24252   */\n      dup3\n        /* \"#utility.yul\":24242:24243   */\n      dup2\n        /* \"#utility.yul\":24239:24253   */\n      lt\n        /* \"#utility.yul\":24231:24439   */\n      iszero\n      tag_522\n      jumpi\n        /* \"#utility.yul\":24324:24333   */\n      dup5\n        /* \"#utility.yul\":24319:24322   */\n      dup10\n        /* \"#utility.yul\":24315:24334   */\n      add\n        /* \"#utility.yul\":24309:24335   */\n      mload\n        /* \"#utility.yul\":24301:24307   */\n      dup3\n        /* \"#utility.yul\":24294:24336   */\n      sstore\n        /* \"#utility.yul\":24375:24376   */\n      0x01\n        /* \"#utility.yul\":24367:24373   */\n      dup3\n        /* \"#utility.yul\":24363:24377   */\n      add\n        /* \"#utility.yul\":24353:24377   */\n      swap2\n      pop\n        /* \"#utility.yul\":24422:24424   */\n      0x20\n        /* \"#utility.yul\":24411:24420   */\n      dup6\n        /* \"#utility.yul\":24407:24425   */\n      add\n        /* \"#utility.yul\":24394:24425   */\n      swap5\n      pop\n        /* \"#utility.yul\":24268:24272   */\n      0x20\n        /* \"#utility.yul\":24265:24266   */\n      dup2\n        /* \"#utility.yul\":24261:24273   */\n      add\n        /* \"#utility.yul\":24256:24273   */\n      swap1\n      pop\n        /* \"#utility.yul\":24231:24439   */\n      jump(tag_520)\n    tag_522:\n        /* \"#utility.yul\":24467:24473   */\n      dup7\n        /* \"#utility.yul\":24458:24465   */\n      dup4\n        /* \"#utility.yul\":24455:24474   */\n      lt\n        /* \"#utility.yul\":24452:24631   */\n      iszero\n      tag_523\n      jumpi\n        /* \"#utility.yul\":24525:24534   */\n      dup5\n        /* \"#utility.yul\":24520:24523   */\n      dup10\n        /* \"#utility.yul\":24516:24535   */\n      add\n        /* \"#utility.yul\":24510:24536   */\n      mload\n        /* \"#utility.yul\":24568:24616   */\n      tag_524\n        /* \"#utility.yul\":24610:24614   */\n      0x1f\n        /* \"#utility.yul\":24602:24608   */\n      dup10\n        /* \"#utility.yul\":24598:24615   */\n      and\n        /* \"#utility.yul\":24587:24596   */\n      dup3\n        /* \"#utility.yul\":24568:24616   */\n      tag_261\n      jump\t// in\n    tag_524:\n        /* \"#utility.yul\":24560:24566   */\n      dup4\n        /* \"#utility.yul\":24553:24617   */\n      sstore\n        /* \"#utility.yul\":24475:24631   */\n      pop\n        /* \"#utility.yul\":24452:24631   */\n    tag_523:\n        /* \"#utility.yul\":24677:24678   */\n      0x01\n        /* \"#utility.yul\":24673:24674   */\n      0x02\n        /* \"#utility.yul\":24665:24671   */\n      dup9\n        /* \"#utility.yul\":24661:24675   */\n      mul\n        /* \"#utility.yul\":24657:24679   */\n      add\n        /* \"#utility.yul\":24651:24655   */\n      dup9\n        /* \"#utility.yul\":24644:24680   */\n      sstore\n        /* \"#utility.yul\":24079:24690   */\n      pop\n      pop\n      pop\n        /* \"#utility.yul\":24042:24929   */\n    tag_515:\n      pop\n        /* \"#utility.yul\":23632:24935   */\n      pop\n      pop\n      pop\n        /* \"#utility.yul\":23540:24935   */\n      pop\n      pop\n      jump\t// out\n        /* \"#utility.yul\":24941:25059   */\n    tag_263:\n        /* \"#utility.yul\":25028:25052   */\n      tag_526\n        /* \"#utility.yul\":25046:25051   */\n      dup2\n        /* \"#utility.yul\":25028:25052   */\n      tag_196\n      jump\t// in\n    tag_526:\n        /* \"#utility.yul\":25023:25026   */\n      dup3\n        /* \"#utility.yul\":25016:25053   */\n      mstore\n        /* \"#utility.yul\":24941:25059   */\n      pop\n      pop\n      jump\t// out\n        /* \"#utility.yul\":25065:25142   */\n    tag_264:\n        /* \"#utility.yul\":25102:25109   */\n      0x00\n        /* \"#utility.yul\":25131:25136   */\n      dup2\n        /* \"#utility.yul\":25120:25136   */\n      swap1\n      pop\n        /* \"#utility.yul\":25065:25142   */\n      swap2\n      swap1\n      pop\n      jump\t// out\n        /* \"#utility.yul\":25148:25266   */\n    tag_265:\n        /* \"#utility.yul\":25235:25259   */\n      tag_529\n        /* \"#utility.yul\":25253:25258   */\n      dup2\n        /* \"#utility.yul\":25235:25259   */\n      tag_264\n      jump\t// in\n    tag_529:\n        /* \"#utility.yul\":25230:25233   */\n      dup3\n        /* \"#utility.yul\":25223:25260   */\n      mstore\n        /* \"#utility.yul\":25148:25266   */\n      pop\n      pop\n      jump\t// out\n        /* \"#utility.yul\":25272:25805   */\n    tag_67:\n        /* \"#utility.yul\":25441:25445   */\n      0x00\n        /* \"#utility.yul\":25479:25481   */\n      0x60\n        /* \"#utility.yul\":25468:25477   */\n      dup3\n        /* \"#utility.yul\":25464:25482   */\n      add\n        /* \"#utility.yul\":25456:25482   */\n      swap1\n      pop\n        /* \"#utility.yul\":25492:25563   */\n      tag_531\n        /* \"#utility.yul\":25560:25561   */\n      0x00\n        /* \"#utility.yul\":25549:25558   */\n      dup4\n        /* \"#utility.yul\":25545:25562   */\n      add\n        /* \"#utility.yul\":25536:25542   */\n      dup7\n        /* \"#utility.yul\":25492:25563   */\n      tag_263\n      jump\t// in\n    tag_531:\n        /* \"#utility.yul\":25610:25619   */\n      dup2\n        /* \"#utility.yul\":25604:25608   */\n      dup2\n        /* \"#utility.yul\":25600:25620   */\n      sub\n        /* \"#utility.yul\":25595:25597   */\n      0x20\n        /* \"#utility.yul\":25584:25593   */\n      dup4\n        /* \"#utility.yul\":25580:25598   */\n      add\n        /* \"#utility.yul\":25573:25621   */\n      mstore\n        /* \"#utility.yul\":25638:25716   */\n      tag_532\n        /* \"#utility.yul\":25711:25715   */\n      dup2\n        /* \"#utility.yul\":25702:25708   */\n      dup6\n        /* \"#utility.yul\":25638:25716   */\n      tag_219\n      jump\t// in\n    tag_532:\n        /* \"#utility.yul\":25630:25716   */\n      swap1\n      pop\n        /* \"#utility.yul\":25726:25798   */\n      tag_533\n        /* \"#utility.yul\":25794:25796   */\n      0x40\n        /* \"#utility.yul\":25783:25792   */\n      dup4\n        /* \"#utility.yul\":25779:25797   */\n      add\n        /* \"#utility.yul\":25770:25776   */\n      dup5\n        /* \"#utility.yul\":25726:25798   */\n      tag_265\n      jump\t// in\n    tag_533:\n        /* \"#utility.yul\":25272:25805   */\n      swap5\n      swap4\n      pop\n      pop\n      pop\n      pop\n      jump\t// out\n        /* \"#utility.yul\":25811:25990   */\n    tag_266:\n        /* \"#utility.yul\":25951:25982   */\n      0x4e6f2044494420666f756e6420666f7220746869732061646472657373000000\n        /* \"#utility.yul\":25947:25948   */\n      0x00\n        /* \"#utility.yul\":25939:25945   */\n      dup3\n        /* \"#utility.yul\":25935:25949   */\n      add\n        /* \"#utility.yul\":25928:25983   */\n      mstore\n        /* \"#utility.yul\":25811:25990   */\n      pop\n      jump\t// out\n        /* \"#utility.yul\":25996:26362   */\n    tag_267:\n        /* \"#utility.yul\":26138:26141   */\n      0x00\n        /* \"#utility.yul\":26159:26226   */\n      tag_536\n        /* \"#utility.yul\":26223:26225   */\n      0x1d\n        /* \"#utility.yul\":26218:26221   */\n      dup4\n        /* \"#utility.yul\":26159:26226   */\n      tag_218\n      jump\t// in\n    tag_536:\n        /* \"#utility.yul\":26152:26226   */\n      swap2\n      pop\n        /* \"#utility.yul\":26235:26328   */\n      tag_537\n        /* \"#utility.yul\":26324:26327   */\n      dup3\n        /* \"#utility.yul\":26235:26328   */\n      tag_266\n      jump\t// in\n    tag_537:\n        /* \"#utility.yul\":26353:26355   */\n      0x20\n        /* \"#utility.yul\":26348:26351   */\n      dup3\n        /* \"#utility.yul\":26344:26356   */\n      add\n        /* \"#utility.yul\":26337:26356   */\n      swap1\n      pop\n        /* \"#utility.yul\":25996:26362   */\n      swap2\n      swap1\n      pop\n      jump\t// out\n        /* \"#utility.yul\":26368:26787   */\n    tag_71:\n        /* \"#utility.yul\":26534:26538   */\n      0x00\n        /* \"#utility.yul\":26572:26574   */\n      0x20\n        /* \"#utility.yul\":26561:26570   */\n      dup3\n        /* \"#utility.yul\":26557:26575   */\n      add\n        /* \"#utility.yul\":26549:26575   */\n      swap1\n      pop\n        /* \"#utility.yul\":26621:26630   */\n      dup2\n        /* \"#utility.yul\":26615:26619   */\n      dup2\n        /* \"#utility.yul\":26611:26631   */\n      sub\n        /* \"#utility.yul\":26607:26608   */\n      0x00\n        /* \"#utility.yul\":26596:26605   */\n      dup4\n        /* \"#utility.yul\":26592:26609   */\n      add\n        /* \"#utility.yul\":26585:26632   */\n      mstore\n        /* \"#utility.yul\":26649:26780   */\n      tag_539\n        /* \"#utility.yul\":26775:26779   */\n      dup2\n        /* \"#utility.yul\":26649:26780   */\n      tag_267\n      jump\t// in\n    tag_539:\n        /* \"#utility.yul\":26641:26780   */\n      swap1\n      pop\n        /* \"#utility.yul\":26368:26787   */\n      swap2\n      swap1\n      pop\n      jump\t// out\n        /* \"#utility.yul\":26793:26963   */\n    tag_268:\n        /* \"#utility.yul\":26933:26955   */\n      0x4e616d652063616e6e6f7420626520656d707479000000000000000000000000\n        /* \"#utility.yul\":26929:26930   */\n      0x00\n        /* \"#utility.yul\":26921:26927   */\n      dup3\n        /* \"#utility.yul\":26917:26931   */\n      add\n        /* \"#utility.yul\":26910:26956   */\n      mstore\n        /* \"#utility.yul\":26793:26963   */\n      pop\n      jump\t// out\n        /* \"#utility.yul\":26969:27335   */\n    tag_269:\n        /* \"#utility.yul\":27111:27114   */\n      0x00\n        /* \"#utility.yul\":27132:27199   */\n      tag_542\n        /* \"#utility.yul\":27196:27198   */\n      0x14\n        /* \"#utility.yul\":27191:27194   */\n      dup4\n        /* \"#utility.yul\":27132:27199   */\n      tag_218\n      jump\t// in\n    tag_542:\n        /* \"#utility.yul\":27125:27199   */\n      swap2\n      pop\n        /* \"#utility.yul\":27208:27301   */\n      tag_543\n        /* \"#utility.yul\":27297:27300   */\n      dup3\n        /* \"#utility.yul\":27208:27301   */\n      tag_268\n      jump\t// in\n    tag_543:\n        /* \"#utility.yul\":27326:27328   */\n      0x20\n        /* \"#utility.yul\":27321:27324   */\n      dup3\n        /* \"#utility.yul\":27317:27329   */\n      add\n        /* \"#utility.yul\":27310:27329   */\n      swap1\n      pop\n        /* \"#utility.yul\":26969:27335   */\n      swap2\n      swap1\n      pop\n      jump\t// out\n        /* \"#utility.yul\":27341:27760   */\n    tag_74:\n        /* \"#utility.yul\":27507:27511   */\n      0x00\n        /* \"#utility.yul\":27545:27547   */\n      0x20\n        /* \"#utility.yul\":27534:27543   */\n      dup3\n        /* \"#utility.yul\":27530:27548   */\n      add\n        /* \"#utility.yul\":27522:27548   */\n      swap1\n      pop\n        /* \"#utility.yul\":27594:27603   */\n      dup2\n        /* \"#utility.yul\":27588:27592   */\n      dup2\n        /* \"#utility.yul\":27584:27604   */\n      sub\n        /* \"#utility.yul\":27580:27581   */\n      0x00\n        /* \"#utility.yul\":27569:27578   */\n      dup4\n        /* \"#utility.yul\":27565:27582   */\n      add\n        /* \"#utility.yul\":27558:27605   */\n      mstore\n        /* \"#utility.yul\":27622:27753   */\n      tag_545\n        /* \"#utility.yul\":27748:27752   */\n      dup2\n        /* \"#utility.yul\":27622:27753   */\n      tag_269\n      jump\t// in\n    tag_545:\n        /* \"#utility.yul\":27614:27753   */\n      swap1\n      pop\n        /* \"#utility.yul\":27341:27760   */\n      swap2\n      swap1\n      pop\n      jump\t// out\n        /* \"#utility.yul\":27766:27937   */\n    tag_270:\n        /* \"#utility.yul\":27906:27929   */\n      0x456d61696c2063616e6e6f7420626520656d7074790000000000000000000000\n        /* \"#utility.yul\":27902:27903   */\n      0x00\n        /* \"#utility.yul\":27894:27900   */\n      dup3\n        /* \"#utility.yul\":27890:27904   */\n      add\n        /* \"#utility.yul\":27883:27930   */\n      mstore\n        /* \"#utility.yul\":27766:27937   */\n      pop\n      jump\t// out\n        /* \"#utility.yul\":27943:28309   */\n    tag_271:\n        /* \"#utility.yul\":28085:28088   */\n      0x00\n        /* \"#utility.yul\":28106:28173   */\n      tag_548\n        /* \"#utility.yul\":28170:28172   */\n      0x15\n        /* \"#utility.yul\":28165:28168   */\n      dup4\n        /* \"#utility.yul\":28106:28173   */\n      tag_218\n      jump\t// in\n    tag_548:\n        /* \"#utility.yul\":28099:28173   */\n      swap2\n      pop\n        /* \"#utility.yul\":28182:28275   */\n      tag_549\n        /* \"#utility.yul\":28271:28274   */\n      dup3\n        /* \"#utility.yul\":28182:28275   */\n      tag_270\n      jump\t// in\n    tag_549:\n        /* \"#utility.yul\":28300:28302   */\n      0x20\n        /* \"#utility.yul\":28295:28298   */\n      dup3\n        /* \"#utility.yul\":28291:28303   */\n      add\n        /* \"#utility.yul\":28284:28303   */\n      swap1\n      pop\n        /* \"#utility.yul\":27943:28309   */\n      swap2\n      swap1\n      pop\n      jump\t// out\n        /* \"#utility.yul\":28315:28734   */\n    tag_77:\n        /* \"#utility.yul\":28481:28485   */\n      0x00\n        /* \"#utility.yul\":28519:28521   */\n      0x20\n        /* \"#utility.yul\":28508:28517   */\n      dup3\n        /* \"#utility.yul\":28504:28522   */\n      add\n        /* \"#utility.yul\":28496:28522   */\n      swap1\n      pop\n        /* \"#utility.yul\":28568:28577   */\n      dup2\n        /* \"#utility.yul\":28562:28566   */\n      dup2\n        /* \"#utility.yul\":28558:28578   */\n      sub\n        /* \"#utility.yul\":28554:28555   */\n      0x00\n        /* \"#utility.yul\":28543:28552   */\n      dup4\n        /* \"#utility.yul\":28539:28556   */\n      add\n        /* \"#utility.yul\":28532:28579   */\n      mstore\n        /* \"#utility.yul\":28596:28727   */\n      tag_551\n        /* \"#utility.yul\":28722:28726   */\n      dup2\n        /* \"#utility.yul\":28596:28727   */\n      tag_271\n      jump\t// in\n    tag_551:\n        /* \"#utility.yul\":28588:28727   */\n      swap1\n      pop\n        /* \"#utility.yul\":28315:28734   */\n      swap2\n      swap1\n      pop\n      jump\t// out\n        /* \"#utility.yul\":28740:28921   */\n    tag_272:\n        /* \"#utility.yul\":28880:28913   */\n      0x50726f66696c6520706963747572652063616e6e6f7420626520656d70747900\n        /* \"#utility.yul\":28876:28877   */\n      0x00\n        /* \"#utility.yul\":28868:28874   */\n      dup3\n        /* \"#utility.yul\":28864:28878   */\n      add\n        /* \"#utility.yul\":28857:28914   */\n      mstore\n        /* \"#utility.yul\":28740:28921   */\n      pop\n      jump\t// out\n        /* \"#utility.yul\":28927:29293   */\n    tag_273:\n        /* \"#utility.yul\":29069:29072   */\n      0x00\n        /* \"#utility.yul\":29090:29157   */\n      tag_554\n        /* \"#utility.yul\":29154:29156   */\n      0x1f\n        /* \"#utility.yul\":29149:29152   */\n      dup4\n        /* \"#utility.yul\":29090:29157   */\n      tag_218\n      jump\t// in\n    tag_554:\n        /* \"#utility.yul\":29083:29157   */\n      swap2\n      pop\n        /* \"#utility.yul\":29166:29259   */\n      tag_555\n        /* \"#utility.yul\":29255:29258   */\n      dup3\n        /* \"#utility.yul\":29166:29259   */\n      tag_272\n      jump\t// in\n    tag_555:\n        /* \"#utility.yul\":29284:29286   */\n      0x20\n        /* \"#utility.yul\":29279:29282   */\n      dup3\n        /* \"#utility.yul\":29275:29287   */\n      add\n        /* \"#utility.yul\":29268:29287   */\n      swap1\n      pop\n        /* \"#utility.yul\":28927:29293   */\n      swap2\n      swap1\n      pop\n      jump\t// out\n        /* \"#utility.yul\":29299:29718   */\n    tag_80:\n        /* \"#utility.yul\":29465:29469   */\n      0x00\n        /* \"#utility.yul\":29503:29505   */\n      0x20\n        /* \"#utility.yul\":29492:29501   */\n      dup3\n        /* \"#utility.yul\":29488:29506   */\n      add\n        /* \"#utility.yul\":29480:29506   */\n      swap1\n      pop\n        /* \"#utility.yul\":29552:29561   */\n      dup2\n        /* \"#utility.yul\":29546:29550   */\n      dup2\n        /* \"#utility.yul\":29542:29562   */\n      sub\n        /* \"#utility.yul\":29538:29539   */\n      0x00\n        /* \"#utility.yul\":29527:29536   */\n      dup4\n        /* \"#utility.yul\":29523:29540   */\n      add\n        /* \"#utility.yul\":29516:29563   */\n      mstore\n        /* \"#utility.yul\":29580:29711   */\n      tag_557\n        /* \"#utility.yul\":29706:29710   */\n      dup2\n        /* \"#utility.yul\":29580:29711   */\n      tag_273\n      jump\t// in\n    tag_557:\n        /* \"#utility.yul\":29572:29711   */\n      swap1\n      pop\n        /* \"#utility.yul\":29299:29718   */\n      swap2\n      swap1\n      pop\n      jump\t// out\n        /* \"#utility.yul\":29724:30439   */\n    tag_85:\n        /* \"#utility.yul\":29933:29937   */\n      0x00\n        /* \"#utility.yul\":29971:29973   */\n      0x60\n        /* \"#utility.yul\":29960:29969   */\n      dup3\n        /* \"#utility.yul\":29956:29974   */\n      add\n        /* \"#utility.yul\":29948:29974   */\n      swap1\n      pop\n        /* \"#utility.yul\":30020:30029   */\n      dup2\n        /* \"#utility.yul\":30014:30018   */\n      dup2\n        /* \"#utility.yul\":30010:30030   */\n      sub\n        /* \"#utility.yul\":30006:30007   */\n      0x00\n        /* \"#utility.yul\":29995:30004   */\n      dup4\n        /* \"#utility.yul\":29991:30008   */\n      add\n        /* \"#utility.yul\":29984:30031   */\n      mstore\n        /* \"#utility.yul\":30048:30126   */\n      tag_559\n        /* \"#utility.yul\":30121:30125   */\n      dup2\n        /* \"#utility.yul\":30112:30118   */\n      dup7\n        /* \"#utility.yul\":30048:30126   */\n      tag_219\n      jump\t// in\n    tag_559:\n        /* \"#utility.yul\":30040:30126   */\n      swap1\n      pop\n        /* \"#utility.yul\":30173:30182   */\n      dup2\n        /* \"#utility.yul\":30167:30171   */\n      dup2\n        /* \"#utility.yul\":30163:30183   */\n      sub\n        /* \"#utility.yul\":30158:30160   */\n      0x20\n        /* \"#utility.yul\":30147:30156   */\n      dup4\n        /* \"#utility.yul\":30143:30161   */\n      add\n        /* \"#utility.yul\":30136:30184   */\n      mstore\n        /* \"#utility.yul\":30201:30279   */\n      tag_560\n        /* \"#utility.yul\":30274:30278   */\n      dup2\n        /* \"#utility.yul\":30265:30271   */\n      dup6\n        /* \"#utility.yul\":30201:30279   */\n      tag_219\n      jump\t// in\n    tag_560:\n        /* \"#utility.yul\":30193:30279   */\n      swap1\n      pop\n        /* \"#utility.yul\":30326:30335   */\n      dup2\n        /* \"#utility.yul\":30320:30324   */\n      dup2\n        /* \"#utility.yul\":30316:30336   */\n      sub\n        /* \"#utility.yul\":30311:30313   */\n      0x40\n        /* \"#utility.yul\":30300:30309   */\n      dup4\n        /* \"#utility.yul\":30296:30314   */\n      add\n        /* \"#utility.yul\":30289:30337   */\n      mstore\n        /* \"#utility.yul\":30354:30432   */\n      tag_561\n        /* \"#utility.yul\":30427:30431   */\n      dup2\n        /* \"#utility.yul\":30418:30424   */\n      dup5\n        /* \"#utility.yul\":30354:30432   */\n      tag_219\n      jump\t// in\n    tag_561:\n        /* \"#utility.yul\":30346:30432   */\n      swap1\n      pop\n        /* \"#utility.yul\":29724:30439   */\n      swap5\n      swap4\n      pop\n      pop\n      pop\n      pop\n      jump\t// out\n        /* \"#utility.yul\":30445:30621   */\n    tag_274:\n        /* \"#utility.yul\":30585:30613   */\n      0x4964656e7469666965722063616e6e6f7420626520656d707479000000000000\n        /* \"#utility.yul\":30581:30582   */\n      0x00\n        /* \"#utility.yul\":30573:30579   */\n      dup3\n        /* \"#utility.yul\":30569:30583   */\n      add\n        /* \"#utility.yul\":30562:30614   */\n      mstore\n        /* \"#utility.yul\":30445:30621   */\n      pop\n      jump\t// out\n        /* \"#utility.yul\":30627:30993   */\n    tag_275:\n        /* \"#utility.yul\":30769:30772   */\n      0x00\n        /* \"#utility.yul\":30790:30857   */\n      tag_564\n        /* \"#utility.yul\":30854:30856   */\n      0x1a\n        /* \"#utility.yul\":30849:30852   */\n      dup4\n        /* \"#utility.yul\":30790:30857   */\n      tag_218\n      jump\t// in\n    tag_564:\n        /* \"#utility.yul\":30783:30857   */\n      swap2\n      pop\n        /* \"#utility.yul\":30866:30959   */\n      tag_565\n        /* \"#utility.yul\":30955:30958   */\n      dup3\n        /* \"#utility.yul\":30866:30959   */\n      tag_274\n      jump\t// in\n    tag_565:\n        /* \"#utility.yul\":30984:30986   */\n      0x20\n        /* \"#utility.yul\":30979:30982   */\n      dup3\n        /* \"#utility.yul\":30975:30987   */\n      add\n        /* \"#utility.yul\":30968:30987   */\n      swap1\n      pop\n        /* \"#utility.yul\":30627:30993   */\n      swap2\n      swap1\n      pop\n      jump\t// out\n        /* \"#utility.yul\":30999:31418   */\n    tag_89:\n        /* \"#utility.yul\":31165:31169   */\n      0x00\n        /* \"#utility.yul\":31203:31205   */\n      0x20\n        /* \"#utility.yul\":31192:31201   */\n      dup3\n        /* \"#utility.yul\":31188:31206   */\n      add\n        /* \"#utility.yul\":31180:31206   */\n      swap1\n      pop\n        /* \"#utility.yul\":31252:31261   */\n      dup2\n        /* \"#utility.yul\":31246:31250   */\n      dup2\n        /* \"#utility.yul\":31242:31262   */\n      sub\n        /* \"#utility.yul\":31238:31239   */\n      0x00\n        /* \"#utility.yul\":31227:31236   */\n      dup4\n        /* \"#utility.yul\":31223:31240   */\n      add\n        /* \"#utility.yul\":31216:31263   */\n      mstore\n        /* \"#utility.yul\":31280:31411   */\n      tag_567\n        /* \"#utility.yul\":31406:31410   */\n      dup2\n        /* \"#utility.yul\":31280:31411   */\n      tag_275\n      jump\t// in\n    tag_567:\n        /* \"#utility.yul\":31272:31411   */\n      swap1\n      pop\n        /* \"#utility.yul\":30999:31418   */\n      swap2\n      swap1\n      pop\n      jump\t// out\n        /* \"#utility.yul\":31424:31592   */\n    tag_276:\n        /* \"#utility.yul\":31564:31584   */\n      0x44494420616c7265616479206578697374730000000000000000000000000000\n        /* \"#utility.yul\":31560:31561   */\n      0x00\n        /* \"#utility.yul\":31552:31558   */\n      dup3\n        /* \"#utility.yul\":31548:31562   */\n      add\n        /* \"#utility.yul\":31541:31585   */\n      mstore\n        /* \"#utility.yul\":31424:31592   */\n      pop\n      jump\t// out\n        /* \"#utility.yul\":31598:31964   */\n    tag_277:\n        /* \"#utility.yul\":31740:31743   */\n      0x00\n        /* \"#utility.yul\":31761:31828   */\n      tag_570\n        /* \"#utility.yul\":31825:31827   */\n      0x12\n        /* \"#utility.yul\":31820:31823   */\n      dup4\n        /* \"#utility.yul\":31761:31828   */\n      tag_218\n      jump\t// in\n    tag_570:\n        /* \"#utility.yul\":31754:31828   */\n      swap2\n      pop\n        /* \"#utility.yul\":31837:31930   */\n      tag_571\n        /* \"#utility.yul\":31926:31929   */\n      dup3\n        /* \"#utility.yul\":31837:31930   */\n      tag_276\n      jump\t// in\n    tag_571:\n        /* \"#utility.yul\":31955:31957   */\n      0x20\n        /* \"#utility.yul\":31950:31953   */\n      dup3\n        /* \"#utility.yul\":31946:31958   */\n      add\n        /* \"#utility.yul\":31939:31958   */\n      swap1\n      pop\n        /* \"#utility.yul\":31598:31964   */\n      swap2\n      swap1\n      pop\n      jump\t// out\n        /* \"#utility.yul\":31970:32389   */\n    tag_92:\n        /* \"#utility.yul\":32136:32140   */\n      0x00\n        /* \"#utility.yul\":32174:32176   */\n      0x20\n        /* \"#utility.yul\":32163:32172   */\n      dup3\n        /* \"#utility.yul\":32159:32177   */\n      add\n        /* \"#utility.yul\":32151:32177   */\n      swap1\n      pop\n        /* \"#utility.yul\":32223:32232   */\n      dup2\n        /* \"#utility.yul\":32217:32221   */\n      dup2\n        /* \"#utility.yul\":32213:32233   */\n      sub\n        /* \"#utility.yul\":32209:32210   */\n      0x00\n        /* \"#utility.yul\":32198:32207   */\n      dup4\n        /* \"#utility.yul\":32194:32211   */\n      add\n        /* \"#utility.yul\":32187:32234   */\n      mstore\n        /* \"#utility.yul\":32251:32382   */\n      tag_573\n        /* \"#utility.yul\":32377:32381   */\n      dup2\n        /* \"#utility.yul\":32251:32382   */\n      tag_277\n      jump\t// in\n    tag_573:\n        /* \"#utility.yul\":32243:32382   */\n      swap1\n      pop\n        /* \"#utility.yul\":31970:32389   */\n      swap2\n      swap1\n      pop\n      jump\t// out\n        /* \"#utility.yul\":32395:32564   */\n    tag_278:\n        /* \"#utility.yul\":32535:32556   */\n      0x4461746120646f6573206e6f7420657869737400000000000000000000000000\n        /* \"#utility.yul\":32531:32532   */\n      0x00\n        /* \"#utility.yul\":32523:32529   */\n      dup3\n        /* \"#utility.yul\":32519:32533   */\n      add\n        /* \"#utility.yul\":32512:32557   */\n      mstore\n        /* \"#utility.yul\":32395:32564   */\n      pop\n      jump\t// out\n        /* \"#utility.yul\":32570:32936   */\n    tag_279:\n        /* \"#utility.yul\":32712:32715   */\n      0x00\n        /* \"#utility.yul\":32733:32800   */\n      tag_576\n        /* \"#utility.yul\":32797:32799   */\n      0x13\n        /* \"#utility.yul\":32792:32795   */\n      dup4\n        /* \"#utility.yul\":32733:32800   */\n      tag_218\n      jump\t// in\n    tag_576:\n        /* \"#utility.yul\":32726:32800   */\n      swap2\n      pop\n        /* \"#utility.yul\":32809:32902   */\n      tag_577\n        /* \"#utility.yul\":32898:32901   */\n      dup3\n        /* \"#utility.yul\":32809:32902   */\n      tag_278\n      jump\t// in\n    tag_577:\n        /* \"#utility.yul\":32927:32929   */\n      0x20\n        /* \"#utility.yul\":32922:32925   */\n      dup3\n        /* \"#utility.yul\":32918:32930   */\n      add\n        /* \"#utility.yul\":32911:32930   */\n      swap1\n      pop\n        /* \"#utility.yul\":32570:32936   */\n      swap2\n      swap1\n      pop\n      jump\t// out\n        /* \"#utility.yul\":32942:33361   */\n    tag_100:\n        /* \"#utility.yul\":33108:33112   */\n      0x00\n        /* \"#utility.yul\":33146:33148   */\n      0x20\n        /* \"#utility.yul\":33135:33144   */\n      dup3\n        /* \"#utility.yul\":33131:33149   */\n      add\n        /* \"#utility.yul\":33123:33149   */\n      swap1\n      pop\n        /* \"#utility.yul\":33195:33204   */\n      dup2\n        /* \"#utility.yul\":33189:33193   */\n      dup2\n        /* \"#utility.yul\":33185:33205   */\n      sub\n        /* \"#utility.yul\":33181:33182   */\n      0x00\n        /* \"#utility.yul\":33170:33179   */\n      dup4\n        /* \"#utility.yul\":33166:33183   */\n      add\n        /* \"#utility.yul\":33159:33206   */\n      mstore\n        /* \"#utility.yul\":33223:33354   */\n      tag_579\n        /* \"#utility.yul\":33349:33353   */\n      dup2\n        /* \"#utility.yul\":33223:33354   */\n      tag_279\n      jump\t// in\n    tag_579:\n        /* \"#utility.yul\":33215:33354   */\n      swap1\n      pop\n        /* \"#utility.yul\":32942:33361   */\n      swap2\n      swap1\n      pop\n      jump\t// out\n        /* \"#utility.yul\":33367:33535   */\n    tag_280:\n        /* \"#utility.yul\":33507:33527   */\n      0x496e76616c6964207465737420696e6465780000000000000000000000000000\n        /* \"#utility.yul\":33503:33504   */\n      0x00\n        /* \"#utility.yul\":33495:33501   */\n      dup3\n        /* \"#utility.yul\":33491:33505   */\n      add\n        /* \"#utility.yul\":33484:33528   */\n      mstore\n        /* \"#utility.yul\":33367:33535   */\n      pop\n      jump\t// out\n        /* \"#utility.yul\":33541:33907   */\n    tag_281:\n        /* \"#utility.yul\":33683:33686   */\n      0x00\n        /* \"#utility.yul\":33704:33771   */\n      tag_582\n        /* \"#utility.yul\":33768:33770   */\n      0x12\n        /* \"#utility.yul\":33763:33766   */\n      dup4\n        /* \"#utility.yul\":33704:33771   */\n      tag_218\n      jump\t// in\n    tag_582:\n        /* \"#utility.yul\":33697:33771   */\n      swap2\n      pop\n        /* \"#utility.yul\":33780:33873   */\n      tag_583\n        /* \"#utility.yul\":33869:33872   */\n      dup3\n        /* \"#utility.yul\":33780:33873   */\n      tag_280\n      jump\t// in\n    tag_583:\n        /* \"#utility.yul\":33898:33900   */\n      0x20\n        /* \"#utility.yul\":33893:33896   */\n      dup3\n        /* \"#utility.yul\":33889:33901   */\n      add\n        /* \"#utility.yul\":33882:33901   */\n      swap1\n      pop\n        /* \"#utility.yul\":33541:33907   */\n      swap2\n      swap1\n      pop\n      jump\t// out\n        /* \"#utility.yul\":33913:34332   */\n    tag_122:\n        /* \"#utility.yul\":34079:34083   */\n      0x00\n        /* \"#utility.yul\":34117:34119   */\n      0x20\n        /* \"#utility.yul\":34106:34115   */\n      dup3\n        /* \"#utility.yul\":34102:34120   */\n      add\n        /* \"#utility.yul\":34094:34120   */\n      swap1\n      pop\n        /* \"#utility.yul\":34166:34175   */\n      dup2\n        /* \"#utility.yul\":34160:34164   */\n      dup2\n        /* \"#utility.yul\":34156:34176   */\n      sub\n        /* \"#utility.yul\":34152:34153   */\n      0x00\n        /* \"#utility.yul\":34141:34150   */\n      dup4\n        /* \"#utility.yul\":34137:34154   */\n      add\n        /* \"#utility.yul\":34130:34177   */\n      mstore\n        /* \"#utility.yul\":34194:34325   */\n      tag_585\n        /* \"#utility.yul\":34320:34324   */\n      dup2\n        /* \"#utility.yul\":34194:34325   */\n      tag_281\n      jump\t// in\n    tag_585:\n        /* \"#utility.yul\":34186:34325   */\n      swap1\n      pop\n        /* \"#utility.yul\":33913:34332   */\n      swap2\n      swap1\n      pop\n      jump\t// out\n        /* \"#utility.yul\":34338:34518   */\n    tag_125:\n        /* \"#utility.yul\":34386:34463   */\n      0x4e487b7100000000000000000000000000000000000000000000000000000000\n        /* \"#utility.yul\":34383:34384   */\n      0x00\n        /* \"#utility.yul\":34376:34464   */\n      mstore\n        /* \"#utility.yul\":34483:34487   */\n      0x32\n        /* \"#utility.yul\":34480:34481   */\n      0x04\n        /* \"#utility.yul\":34473:34488   */\n      mstore\n        /* \"#utility.yul\":34507:34511   */\n      0x24\n        /* \"#utility.yul\":34504:34505   */\n      0x00\n        /* \"#utility.yul\":34497:34512   */\n      revert\n        /* \"#utility.yul\":34524:34693   */\n    tag_282:\n        /* \"#utility.yul\":34664:34685   */\n      0x5465737420616c72656164792067726164656400000000000000000000000000\n        /* \"#utility.yul\":34660:34661   */\n      0x00\n        /* \"#utility.yul\":34652:34658   */\n      dup3\n        /* \"#utility.yul\":34648:34662   */\n      add\n        /* \"#utility.yul\":34641:34686   */\n      mstore\n        /* \"#utility.yul\":34524:34693   */\n      pop\n      jump\t// out\n        /* \"#utility.yul\":34699:35065   */\n    tag_283:\n        /* \"#utility.yul\":34841:34844   */\n      0x00\n        /* \"#utility.yul\":34862:34929   */\n      tag_589\n        /* \"#utility.yul\":34926:34928   */\n      0x13\n        /* \"#utility.yul\":34921:34924   */\n      dup4\n        /* \"#utility.yul\":34862:34929   */\n      tag_218\n      jump\t// in\n    tag_589:\n        /* \"#utility.yul\":34855:34929   */\n      swap2\n      pop\n        /* \"#utility.yul\":34938:35031   */\n      tag_590\n        /* \"#utility.yul\":35027:35030   */\n      dup3\n        /* \"#utility.yul\":34938:35031   */\n      tag_282\n      jump\t// in\n    tag_590:\n        /* \"#utility.yul\":35056:35058   */\n      0x20\n        /* \"#utility.yul\":35051:35054   */\n      dup3\n        /* \"#utility.yul\":35047:35059   */\n      add\n        /* \"#utility.yul\":35040:35059   */\n      swap1\n      pop\n        /* \"#utility.yul\":34699:35065   */\n      swap2\n      swap1\n      pop\n      jump\t// out\n        /* \"#utility.yul\":35071:35490   */\n    tag_129:\n        /* \"#utility.yul\":35237:35241   */\n      0x00\n        /* \"#utility.yul\":35275:35277   */\n      0x20\n        /* \"#utility.yul\":35264:35273   */\n      dup3\n        /* \"#utility.yul\":35260:35278   */\n      add\n        /* \"#utility.yul\":35252:35278   */\n      swap1\n      pop\n        /* \"#utility.yul\":35324:35333   */\n      dup2\n        /* \"#utility.yul\":35318:35322   */\n      dup2\n        /* \"#utility.yul\":35314:35334   */\n      sub\n        /* \"#utility.yul\":35310:35311   */\n      0x00\n        /* \"#utility.yul\":35299:35308   */\n      dup4\n        /* \"#utility.yul\":35295:35312   */\n      add\n        /* \"#utility.yul\":35288:35335   */\n      mstore\n        /* \"#utility.yul\":35352:35483   */\n      tag_592\n        /* \"#utility.yul\":35478:35482   */\n      dup2\n        /* \"#utility.yul\":35352:35483   */\n      tag_283\n      jump\t// in\n    tag_592:\n        /* \"#utility.yul\":35344:35483   */\n      swap1\n      pop\n        /* \"#utility.yul\":35071:35490   */\n      swap2\n      swap1\n      pop\n      jump\t// out\n        /* \"#utility.yul\":35496:35614   */\n    tag_284:\n        /* \"#utility.yul\":35583:35607   */\n      tag_594\n        /* \"#utility.yul\":35601:35606   */\n      dup2\n        /* \"#utility.yul\":35583:35607   */\n      tag_213\n      jump\t// in\n    tag_594:\n        /* \"#utility.yul\":35578:35581   */\n      dup3\n        /* \"#utility.yul\":35571:35608   */\n      mstore\n        /* \"#utility.yul\":35496:35614   */\n      pop\n      pop\n      jump\t// out\n        /* \"#utility.yul\":35620:35952   */\n    tag_137:\n        /* \"#utility.yul\":35741:35745   */\n      0x00\n        /* \"#utility.yul\":35779:35781   */\n      0x40\n        /* \"#utility.yul\":35768:35777   */\n      dup3\n        /* \"#utility.yul\":35764:35782   */\n      add\n        /* \"#utility.yul\":35756:35782   */\n      swap1\n      pop\n        /* \"#utility.yul\":35792:35863   */\n      tag_596\n        /* \"#utility.yul\":35860:35861   */\n      0x00\n        /* \"#utility.yul\":35849:35858   */\n      dup4\n        /* \"#utility.yul\":35845:35862   */\n      add\n        /* \"#utility.yul\":35836:35842   */\n      dup6\n        /* \"#utility.yul\":35792:35863   */\n      tag_284\n      jump\t// in\n    tag_596:\n        /* \"#utility.yul\":35873:35945   */\n      tag_597\n        /* \"#utility.yul\":35941:35943   */\n      0x20\n        /* \"#utility.yul\":35930:35939   */\n      dup4\n        /* \"#utility.yul\":35926:35944   */\n      add\n        /* \"#utility.yul\":35917:35923   */\n      dup5\n        /* \"#utility.yul\":35873:35945   */\n      tag_284\n      jump\t// in\n    tag_597:\n        /* \"#utility.yul\":35620:35952   */\n      swap4\n      swap3\n      pop\n      pop\n      pop\n      jump\t// out\n        /* \"#utility.yul\":35958:36136   */\n    tag_285:\n        /* \"#utility.yul\":36098:36128   */\n      0x416e737765727320686173682063616e6e6f7420626520656d70747900000000\n        /* \"#utility.yul\":36094:36095   */\n      0x00\n        /* \"#utility.yul\":36086:36092   */\n      dup3\n        /* \"#utility.yul\":36082:36096   */\n      add\n        /* \"#utility.yul\":36075:36129   */\n      mstore\n        /* \"#utility.yul\":35958:36136   */\n      pop\n      jump\t// out\n        /* \"#utility.yul\":36142:36508   */\n    tag_286:\n        /* \"#utility.yul\":36284:36287   */\n      0x00\n        /* \"#utility.yul\":36305:36372   */\n      tag_600\n        /* \"#utility.yul\":36369:36371   */\n      0x1c\n        /* \"#utility.yul\":36364:36367   */\n      dup4\n        /* \"#utility.yul\":36305:36372   */\n      tag_218\n      jump\t// in\n    tag_600:\n        /* \"#utility.yul\":36298:36372   */\n      swap2\n      pop\n        /* \"#utility.yul\":36381:36474   */\n      tag_601\n        /* \"#utility.yul\":36470:36473   */\n      dup3\n        /* \"#utility.yul\":36381:36474   */\n      tag_285\n      jump\t// in\n    tag_601:\n        /* \"#utility.yul\":36499:36501   */\n      0x20\n        /* \"#utility.yul\":36494:36497   */\n      dup3\n        /* \"#utility.yul\":36490:36502   */\n      add\n        /* \"#utility.yul\":36483:36502   */\n      swap1\n      pop\n        /* \"#utility.yul\":36142:36508   */\n      swap2\n      swap1\n      pop\n      jump\t// out\n        /* \"#utility.yul\":36514:36933   */\n    tag_160:\n        /* \"#utility.yul\":36680:36684   */\n      0x00\n        /* \"#utility.yul\":36718:36720   */\n      0x20\n        /* \"#utility.yul\":36707:36716   */\n      dup3\n        /* \"#utility.yul\":36703:36721   */\n      add\n        /* \"#utility.yul\":36695:36721   */\n      swap1\n      pop\n        /* \"#utility.yul\":36767:36776   */\n      dup2\n        /* \"#utility.yul\":36761:36765   */\n      dup2\n        /* \"#utility.yul\":36757:36777   */\n      sub\n        /* \"#utility.yul\":36753:36754   */\n      0x00\n        /* \"#utility.yul\":36742:36751   */\n      dup4\n        /* \"#utility.yul\":36738:36755   */\n      add\n        /* \"#utility.yul\":36731:36778   */\n      mstore\n        /* \"#utility.yul\":36795:36926   */\n      tag_603\n        /* \"#utility.yul\":36921:36925   */\n      dup2\n        /* \"#utility.yul\":36795:36926   */\n      tag_286\n      jump\t// in\n    tag_603:\n        /* \"#utility.yul\":36787:36926   */\n      swap1\n      pop\n        /* \"#utility.yul\":36514:36933   */\n      swap2\n      swap1\n      pop\n      jump\t// out\n        /* \"#utility.yul\":36939:37119   */\n    tag_287:\n        /* \"#utility.yul\":36987:37064   */\n      0x4e487b7100000000000000000000000000000000000000000000000000000000\n        /* \"#utility.yul\":36984:36985   */\n      0x00\n        /* \"#utility.yul\":36977:37065   */\n      mstore\n        /* \"#utility.yul\":37084:37088   */\n      0x11\n        /* \"#utility.yul\":37081:37082   */\n      0x04\n        /* \"#utility.yul\":37074:37089   */\n      mstore\n        /* \"#utility.yul\":37108:37112   */\n      0x24\n        /* \"#utility.yul\":37105:37106   */\n      0x00\n        /* \"#utility.yul\":37098:37113   */\n      revert\n        /* \"#utility.yul\":37125:37316   */\n    tag_164:\n        /* \"#utility.yul\":37165:37168   */\n      0x00\n        /* \"#utility.yul\":37184:37204   */\n      tag_606\n        /* \"#utility.yul\":37202:37203   */\n      dup3\n        /* \"#utility.yul\":37184:37204   */\n      tag_213\n      jump\t// in\n    tag_606:\n        /* \"#utility.yul\":37179:37204   */\n      swap2\n      pop\n        /* \"#utility.yul\":37218:37238   */\n      tag_607\n        /* \"#utility.yul\":37236:37237   */\n      dup4\n        /* \"#utility.yul\":37218:37238   */\n      tag_213\n      jump\t// in\n    tag_607:\n        /* \"#utility.yul\":37213:37238   */\n      swap3\n      pop\n        /* \"#utility.yul\":37261:37262   */\n      dup3\n        /* \"#utility.yul\":37258:37259   */\n      dup3\n        /* \"#utility.yul\":37254:37263   */\n      add\n        /* \"#utility.yul\":37247:37263   */\n      swap1\n      pop\n        /* \"#utility.yul\":37282:37285   */\n      dup1\n        /* \"#utility.yul\":37279:37280   */\n      dup3\n        /* \"#utility.yul\":37276:37286   */\n      gt\n        /* \"#utility.yul\":37273:37309   */\n      iszero\n      tag_608\n      jumpi\n        /* \"#utility.yul\":37289:37307   */\n      tag_609\n      tag_287\n      jump\t// in\n    tag_609:\n        /* \"#utility.yul\":37273:37309   */\n    tag_608:\n        /* \"#utility.yul\":37125:37316   */\n      swap3\n      swap2\n      pop\n      pop\n      jump\t// out\n        /* \"#utility.yul\":37322:37745   */\n    tag_166:\n        /* \"#utility.yul\":37463:37467   */\n      0x00\n        /* \"#utility.yul\":37501:37503   */\n      0x40\n        /* \"#utility.yul\":37490:37499   */\n      dup3\n        /* \"#utility.yul\":37486:37504   */\n      add\n        /* \"#utility.yul\":37478:37504   */\n      swap1\n      pop\n        /* \"#utility.yul\":37550:37559   */\n      dup2\n        /* \"#utility.yul\":37544:37548   */\n      dup2\n        /* \"#utility.yul\":37540:37560   */\n      sub\n        /* \"#utility.yul\":37536:37537   */\n      0x00\n        /* \"#utility.yul\":37525:37534   */\n      dup4\n        /* \"#utility.yul\":37521:37538   */\n      add\n        /* \"#utility.yul\":37514:37561   */\n      mstore\n        /* \"#utility.yul\":37578:37656   */\n      tag_611\n        /* \"#utility.yul\":37651:37655   */\n      dup2\n        /* \"#utility.yul\":37642:37648   */\n      dup6\n        /* \"#utility.yul\":37578:37656   */\n      tag_219\n      jump\t// in\n    tag_611:\n        /* \"#utility.yul\":37570:37656   */\n      swap1\n      pop\n        /* \"#utility.yul\":37666:37738   */\n      tag_612\n        /* \"#utility.yul\":37734:37736   */\n      0x20\n        /* \"#utility.yul\":37723:37732   */\n      dup4\n        /* \"#utility.yul\":37719:37737   */\n      add\n        /* \"#utility.yul\":37710:37716   */\n      dup5\n        /* \"#utility.yul\":37666:37738   */\n      tag_284\n      jump\t// in\n    tag_612:\n        /* \"#utility.yul\":37322:37745   */\n      swap4\n      swap3\n      pop\n      pop\n      pop\n      jump\t// out\n        /* \"#utility.yul\":37751:37922   */\n    tag_288:\n        /* \"#utility.yul\":37891:37914   */\n      0x4e6f20726f6c65732061737369676e6564207965740000000000000000000000\n        /* \"#utility.yul\":37887:37888   */\n      0x00\n        /* \"#utility.yul\":37879:37885   */\n      dup3\n        /* \"#utility.yul\":37875:37889   */\n      add\n        /* \"#utility.yul\":37868:37915   */\n      mstore\n        /* \"#utility.yul\":37751:37922   */\n      pop\n      jump\t// out\n        /* \"#utility.yul\":37928:38294   */\n    tag_289:\n        /* \"#utility.yul\":38070:38073   */\n      0x00\n        /* \"#utility.yul\":38091:38158   */\n      tag_615\n        /* \"#utility.yul\":38155:38157   */\n      0x15\n        /* \"#utility.yul\":38150:38153   */\n      dup4\n        /* \"#utility.yul\":38091:38158   */\n      tag_218\n      jump\t// in\n    tag_615:\n        /* \"#utility.yul\":38084:38158   */\n      swap2\n      pop\n        /* \"#utility.yul\":38167:38260   */\n      tag_616\n        /* \"#utility.yul\":38256:38259   */\n      dup3\n        /* \"#utility.yul\":38167:38260   */\n      tag_288\n      jump\t// in\n    tag_616:\n        /* \"#utility.yul\":38285:38287   */\n      0x20\n        /* \"#utility.yul\":38280:38283   */\n      dup3\n        /* \"#utility.yul\":38276:38288   */\n      add\n        /* \"#utility.yul\":38269:38288   */\n      swap1\n      pop\n        /* \"#utility.yul\":37928:38294   */\n      swap2\n      swap1\n      pop\n      jump\t// out\n        /* \"#utility.yul\":38300:38719   */\n    tag_183:\n        /* \"#utility.yul\":38466:38470   */\n      0x00\n        /* \"#utility.yul\":38504:38506   */\n      0x20\n        /* \"#utility.yul\":38493:38502   */\n      dup3\n        /* \"#utility.yul\":38489:38507   */\n      add\n        /* \"#utility.yul\":38481:38507   */\n      swap1\n      pop\n        /* \"#utility.yul\":38553:38562   */\n      dup2\n        /* \"#utility.yul\":38547:38551   */\n      dup2\n        /* \"#utility.yul\":38543:38563   */\n      sub\n        /* \"#utility.yul\":38539:38540   */\n      0x00\n        /* \"#utility.yul\":38528:38537   */\n      dup4\n        /* \"#utility.yul\":38524:38541   */\n      add\n        /* \"#utility.yul\":38517:38564   */\n      mstore\n        /* \"#utility.yul\":38581:38712   */\n      tag_618\n        /* \"#utility.yul\":38707:38711   */\n      dup2\n        /* \"#utility.yul\":38581:38712   */\n      tag_289\n      jump\t// in\n    tag_618:\n        /* \"#utility.yul\":38573:38712   */\n      swap1\n      pop\n        /* \"#utility.yul\":38300:38719   */\n      swap2\n      swap1\n      pop\n      jump\t// out\n\n    auxdata: 0xa26469706673582212200cbf59ac60411d4f0fd85654b5c479fe43fb3ff94db6afa9140be25fb3fa220f64736f6c634300081a0033\n}\n",
				"bytecode": {
					"linkReferences": {},
					"object": "608060405234801561000f575f80fd5b506040518060400160405280600b81526020017f73757065722061646d696e00000000000000000000000000000000000000000081525060015f3373ffffffffffffffffffffffffffffffffffffffff1673ffffffffffffffffffffffffffffffffffffffff1681526020019081526020015f20908161008f919061036e565b5060025f3373ffffffffffffffffffffffffffffffffffffffff1673ffffffffffffffffffffffffffffffffffffffff1681526020019081526020015f208060018154018082558091505060019003905f5260205f20015f6040518060400160405280600b81526020017f73757065722061646d696e0000000000000000000000000000000000000000008152509091909150908161012e919061036e565b5061043d565b5f81519050919050565b7f4e487b71000000000000000000000000000000000000000000000000000000005f52604160045260245ffd5b7f4e487b71000000000000000000000000000000000000000000000000000000005f52602260045260245ffd5b5f60028204905060018216806101af57607f821691505b6020821081036101c2576101c161016b565b5b50919050565b5f819050815f5260205f209050919050565b5f6020601f8301049050919050565b5f82821b905092915050565b5f600883026102247fffffffffffffffffffffffffffffffffffffffffffffffffffffffffffffffff826101e9565b61022e86836101e9565b95508019841693508086168417925050509392505050565b5f819050919050565b5f819050919050565b5f61027261026d61026884610246565b61024f565b610246565b9050919050565b5f819050919050565b61028b83610258565b61029f61029782610279565b8484546101f5565b825550505050565b5f90565b6102b36102a7565b6102be818484610282565b505050565b5b818110156102e1576102d65f826102ab565b6001810190506102c4565b5050565b601f821115610326576102f7816101c8565b610300846101da565b8101602085101561030f578190505b61032361031b856101da565b8301826102c3565b50505b505050565b5f82821c905092915050565b5f6103465f198460080261032b565b1980831691505092915050565b5f61035e8383610337565b9150826002028217905092915050565b61037782610134565b67ffffffffffffffff8111156103905761038f61013e565b5b61039a8254610198565b6103a58282856102e5565b5f60209050601f8311600181146103d6575f84156103c4578287015190505b6103ce8582610353565b865550610435565b601f1984166103e4866101c8565b5f5b8281101561040b578489015182556001820191506020850194506020810190506103e6565b868310156104285784890151610424601f891682610337565b8355505b6001600288020188555050505b505050505050565b612cbf8061044a5f395ff3fe608060405234801561000f575f80fd5b506004361061009c575f3560e01c8063b7dfcbee11610064578063b7dfcbee1461012e578063bc9c2d551461014a578063c303e54114610168578063de6db5c714610184578063fde08174146101a25761009c565b8063022bf9c1146100a05780630890d80c146100bc5780633457d3e2146100d85780637a5b4f59146100f4578063b4f30a5414610112575b5f80fd5b6100ba60048036038101906100b59190611c82565b6101c0565b005b6100d660048036038101906100d19190611cdc565b6104cd565b005b6100f260048036038101906100ed9190611d80565b610774565b005b6100fc6109a8565b6040516101099190611ec0565b60405180910390f35b61012c60048036038101906101279190611f0a565b610c8c565b005b61014860048036038101906101439190611c82565b610ff8565b005b610152611211565b60405161015f9190611fa2565b60405180910390f35b610182600480360381019061017d9190611d80565b6113a9565b005b61018c611631565b60405161019991906120f7565b60405180910390f35b6101aa611851565b6040516101b791906121d2565b60405180910390f35b5f73ffffffffffffffffffffffffffffffffffffffff165f803373ffffffffffffffffffffffffffffffffffffffff1673ffffffffffffffffffffffffffffffffffffffff1681526020019081526020015f206001015f9054906101000a900473ffffffffffffffffffffffffffffffffffffffff1673ffffffffffffffffffffffffffffffffffffffff160361028c576040517f08c379a00000000000000000000000000000000000000000000000000000000081526004016102839061223c565b60405180910390fd5b5f8151116102cf576040517f08c379a00000000000000000000000000000000000000000000000000000000081526004016102c6906122a4565b60405180910390fd5b5f338383426040516020016102e79493929190612361565b60405160208183030381529060405280519060200120905060045f8473ffffffffffffffffffffffffffffffffffffffff1673ffffffffffffffffffffffffffffffffffffffff1681526020019081526020015f2060405180608001604052803373ffffffffffffffffffffffffffffffffffffffff16815260200184815260200142815260200183815250908060018154018082558091505060019003905f5260205f2090600402015f909190919091505f820151815f015f6101000a81548173ffffffffffffffffffffffffffffffffffffffff021916908373ffffffffffffffffffffffffffffffffffffffff16021790555060208201518160010190816103f291906125a4565b506040820151816002015560608201518160030155505060025f8473ffffffffffffffffffffffffffffffffffffffff1673ffffffffffffffffffffffffffffffffffffffff1681526020019081526020015f2082908060018154018082558091505060019003905f5260205f20015f90919091909150908161047591906125a4565b503373ffffffffffffffffffffffffffffffffffffffff167ff4313cb022699889c6eddb590e42342301cdae4824fd424ffdfdeb23d4cdbbe98484846040516104c09392919061269a565b60405180910390a2505050565b5f73ffffffffffffffffffffffffffffffffffffffff165f803373ffffffffffffffffffffffffffffffffffffffff1673ffffffffffffffffffffffffffffffffffffffff1681526020019081526020015f206001015f9054906101000a900473ffffffffffffffffffffffffffffffffffffffff1673ffffffffffffffffffffffffffffffffffffffff1603610599576040517f08c379a000000000000000000000000000000000000000000000000000000000815260040161059090612720565b60405180910390fd5b5f8351116105dc576040517f08c379a00000000000000000000000000000000000000000000000000000000081526004016105d390612788565b60405180910390fd5b5f82511161061f576040517f08c379a0000000000000000000000000000000000000000000000000000000008152600401610616906127f0565b60405180910390fd5b5f815111610662576040517f08c379a000000000000000000000000000000000000000000000000000000000815260040161065990612858565b60405180910390fd5b6040518060a001604052808481526020018381526020018281526020015f81526020015f81525060035f3373ffffffffffffffffffffffffffffffffffffffff1673ffffffffffffffffffffffffffffffffffffffff1681526020019081526020015f205f820151815f0190816106d991906125a4565b5060208201518160010190816106ef91906125a4565b50604082015181600201908161070591906125a4565b5060608201518160030155608082015181600401559050503373ffffffffffffffffffffffffffffffffffffffff167f65d0ee13464c98c4cc59b1e8669c3b1e26d6ccc62ec1811070773f0c7903df2f84848460405161076793929190612876565b60405180910390a2505050565b5f8151116107b7576040517f08c379a00000000000000000000000000000000000000000000000000000000081526004016107ae9061290a565b60405180910390fd5b5f73ffffffffffffffffffffffffffffffffffffffff165f803373ffffffffffffffffffffffffffffffffffffffff1673ffffffffffffffffffffffffffffffffffffffff1681526020019081526020015f206001015f9054906101000a900473ffffffffffffffffffffffffffffffffffffffff1673ffffffffffffffffffffffffffffffffffffffff1614610883576040517f08c379a000000000000000000000000000000000000000000000000000000000815260040161087a90612972565b60405180910390fd5b60405180606001604052808281526020013373ffffffffffffffffffffffffffffffffffffffff168152602001428152505f803373ffffffffffffffffffffffffffffffffffffffff1673ffffffffffffffffffffffffffffffffffffffff1681526020019081526020015f205f820151815f01908161090391906125a4565b506020820151816001015f6101000a81548173ffffffffffffffffffffffffffffffffffffffff021916908373ffffffffffffffffffffffffffffffffffffffff160217905550604082015181600201559050503373ffffffffffffffffffffffffffffffffffffffff167f1b7934654ba536b6962955e057ce42885353bbaad8c605a5ce0678e632f284108260405161099d9190611fa2565b60405180910390a250565b6109b0611aae565b5f73ffffffffffffffffffffffffffffffffffffffff165f803373ffffffffffffffffffffffffffffffffffffffff1673ffffffffffffffffffffffffffffffffffffffff1681526020019081526020015f206001015f9054906101000a900473ffffffffffffffffffffffffffffffffffffffff1673ffffffffffffffffffffffffffffffffffffffff1603610a7c576040517f08c379a0000000000000000000000000000000000000000000000000000000008152600401610a73906129da565b60405180910390fd5b60035f3373ffffffffffffffffffffffffffffffffffffffff1673ffffffffffffffffffffffffffffffffffffffff1681526020019081526020015f206040518060a00160405290815f82018054610ad3906123d7565b80601f0160208091040260200160405190810160405280929190818152602001828054610aff906123d7565b8015610b4a5780601f10610b2157610100808354040283529160200191610b4a565b820191905f5260205f20905b815481529060010190602001808311610b2d57829003601f168201915b50505050508152602001600182018054610b63906123d7565b80601f0160208091040260200160405190810160405280929190818152602001828054610b8f906123d7565b8015610bda5780601f10610bb157610100808354040283529160200191610bda565b820191905f5260205f20905b815481529060010190602001808311610bbd57829003601f168201915b50505050508152602001600282018054610bf3906123d7565b80601f0160208091040260200160405190810160405280929190818152602001828054610c1f906123d7565b8015610c6a5780601f10610c4157610100808354040283529160200191610c6a565b820191905f5260205f20905b815481529060010190602001808311610c4d57829003601f168201915b5050505050815260200160038201548152602001600482015481525050905090565b5f73ffffffffffffffffffffffffffffffffffffffff165f803373ffffffffffffffffffffffffffffffffffffffff1673ffffffffffffffffffffffffffffffffffffffff1681526020019081526020015f206001015f9054906101000a900473ffffffffffffffffffffffffffffffffffffffff1673ffffffffffffffffffffffffffffffffffffffff1603610d58576040517f08c379a0000000000000000000000000000000000000000000000000000000008152600401610d4f9061223c565b60405180910390fd5b60055f8473ffffffffffffffffffffffffffffffffffffffff1673ffffffffffffffffffffffffffffffffffffffff1681526020019081526020015f20805490508210610dda576040517f08c379a0000000000000000000000000000000000000000000000000000000008152600401610dd190612a42565b60405180910390fd5b60055f8473ffffffffffffffffffffffffffffffffffffffff1673ffffffffffffffffffffffffffffffffffffffff1681526020019081526020015f208281548110610e2957610e28612a60565b5b905f5260205f2090600402016003015f9054906101000a900460ff1615610e85576040517f08c379a0000000000000000000000000000000000000000000000000000000008152600401610e7c90612ad7565b60405180910390fd5b8060055f8573ffffffffffffffffffffffffffffffffffffffff1673ffffffffffffffffffffffffffffffffffffffff1681526020019081526020015f208381548110610ed557610ed4612a60565b5b905f5260205f20906004020160020181905550600160055f8573ffffffffffffffffffffffffffffffffffffffff1673ffffffffffffffffffffffffffffffffffffffff1681526020019081526020015f208381548110610f3957610f38612a60565b5b905f5260205f2090600402016003015f6101000a81548160ff0219169083151502179055508060035f8573ffffffffffffffffffffffffffffffffffffffff1673ffffffffffffffffffffffffffffffffffffffff1681526020019081526020015f20600401819055508273ffffffffffffffffffffffffffffffffffffffff167f209c5757f1301fd786e1870f9a0a61aee25af7d7b1a9c3940a421b72b68cae268242604051610feb929190612b04565b60405180910390a2505050565b5f73ffffffffffffffffffffffffffffffffffffffff165f803373ffffffffffffffffffffffffffffffffffffffff1673ffffffffffffffffffffffffffffffffffffffff1681526020019081526020015f206001015f9054906101000a900473ffffffffffffffffffffffffffffffffffffffff1673ffffffffffffffffffffffffffffffffffffffff16036110c4576040517f08c379a00000000000000000000000000000000000000000000000000000000081526004016110bb9061223c565b60405180910390fd5b5f815111611107576040517f08c379a00000000000000000000000000000000000000000000000000000000081526004016110fe906122a4565b60405180910390fd5b8060015f8473ffffffffffffffffffffffffffffffffffffffff1673ffffffffffffffffffffffffffffffffffffffff1681526020019081526020015f20908161115191906125a4565b5060025f8373ffffffffffffffffffffffffffffffffffffffff1673ffffffffffffffffffffffffffffffffffffffff1681526020019081526020015f2081908060018154018082558091505060019003905f5260205f20015f9091909190915090816111be91906125a4565b508173ffffffffffffffffffffffffffffffffffffffff167f955a8164e26d3082026a4713bbcc2102183cd483ccf49d50cc35fb4e97d540d0826040516112059190611fa2565b60405180910390a25050565b60605f73ffffffffffffffffffffffffffffffffffffffff165f803373ffffffffffffffffffffffffffffffffffffffff1673ffffffffffffffffffffffffffffffffffffffff1681526020019081526020015f206001015f9054906101000a900473ffffffffffffffffffffffffffffffffffffffff1673ffffffffffffffffffffffffffffffffffffffff16036112df576040517f08c379a00000000000000000000000000000000000000000000000000000000081526004016112d690612720565b60405180910390fd5b5f803373ffffffffffffffffffffffffffffffffffffffff1673ffffffffffffffffffffffffffffffffffffffff1681526020019081526020015f205f018054611328906123d7565b80601f0160208091040260200160405190810160405280929190818152602001828054611354906123d7565b801561139f5780601f106113765761010080835404028352916020019161139f565b820191905f5260205f20905b81548152906001019060200180831161138257829003601f168201915b5050505050905090565b5f73ffffffffffffffffffffffffffffffffffffffff165f803373ffffffffffffffffffffffffffffffffffffffff1673ffffffffffffffffffffffffffffffffffffffff1681526020019081526020015f206001015f9054906101000a900473ffffffffffffffffffffffffffffffffffffffff1673ffffffffffffffffffffffffffffffffffffffff1603611475576040517f08c379a000000000000000000000000000000000000000000000000000000000815260040161146c90612720565b60405180910390fd5b5f8151116114b8576040517f08c379a00000000000000000000000000000000000000000000000000000000081526004016114af90612b75565b60405180910390fd5b60055f3373ffffffffffffffffffffffffffffffffffffffff1673ffffffffffffffffffffffffffffffffffffffff1681526020019081526020015f2060405180608001604052808381526020014281526020015f81526020015f1515815250908060018154018082558091505060019003905f5260205f2090600402015f909190919091505f820151815f01908161155191906125a4565b5060208201518160010155604082015181600201556060820151816003015f6101000a81548160ff0219169083151502179055505050600160035f3373ffffffffffffffffffffffffffffffffffffffff1673ffffffffffffffffffffffffffffffffffffffff1681526020019081526020015f206003015f8282546115d79190612bc0565b925050819055503373ffffffffffffffffffffffffffffffffffffffff167f6253da222cb28e9028c656200e285440d573c04aad5ce44901c38e3836276efe8242604051611626929190612bf3565b60405180910390a250565b60605f73ffffffffffffffffffffffffffffffffffffffff165f803373ffffffffffffffffffffffffffffffffffffffff1673ffffffffffffffffffffffffffffffffffffffff1681526020019081526020015f206001015f9054906101000a900473ffffffffffffffffffffffffffffffffffffffff1673ffffffffffffffffffffffffffffffffffffffff16036116ff576040517f08c379a00000000000000000000000000000000000000000000000000000000081526004016116f690612720565b60405180910390fd5b60055f3373ffffffffffffffffffffffffffffffffffffffff1673ffffffffffffffffffffffffffffffffffffffff1681526020019081526020015f20805480602002602001604051908101604052809291908181526020015f905b82821015611848578382905f5260205f2090600402016040518060800160405290815f8201805461178b906123d7565b80601f01602080910402602001604051908101604052809291908181526020018280546117b7906123d7565b80156118025780601f106117d957610100808354040283529160200191611802565b820191905f5260205f20905b8154815290600101906020018083116117e557829003601f168201915b505050505081526020016001820154815260200160028201548152602001600382015f9054906101000a900460ff1615151515815250508152602001906001019061175b565b50505050905090565b60605f73ffffffffffffffffffffffffffffffffffffffff165f803373ffffffffffffffffffffffffffffffffffffffff1673ffffffffffffffffffffffffffffffffffffffff1681526020019081526020015f206001015f9054906101000a900473ffffffffffffffffffffffffffffffffffffffff1673ffffffffffffffffffffffffffffffffffffffff160361191f576040517f08c379a000000000000000000000000000000000000000000000000000000000815260040161191690612720565b60405180910390fd5b5f60025f3373ffffffffffffffffffffffffffffffffffffffff1673ffffffffffffffffffffffffffffffffffffffff1681526020019081526020015f2080549050116119a1576040517f08c379a000000000000000000000000000000000000000000000000000000000815260040161199890612c6b565b60405180910390fd5b60025f3373ffffffffffffffffffffffffffffffffffffffff1673ffffffffffffffffffffffffffffffffffffffff1681526020019081526020015f20805480602002602001604051908101604052809291908181526020015f905b82821015611aa5578382905f5260205f20018054611a1a906123d7565b80601f0160208091040260200160405190810160405280929190818152602001828054611a46906123d7565b8015611a915780601f10611a6857610100808354040283529160200191611a91565b820191905f5260205f20905b815481529060010190602001808311611a7457829003601f168201915b5050505050815260200190600101906119fd565b50505050905090565b6040518060a001604052806060815260200160608152602001606081526020015f81526020015f81525090565b5f604051905090565b5f80fd5b5f80fd5b5f73ffffffffffffffffffffffffffffffffffffffff82169050919050565b5f611b1582611aec565b9050919050565b611b2581611b0b565b8114611b2f575f80fd5b50565b5f81359050611b4081611b1c565b92915050565b5f80fd5b5f80fd5b5f601f19601f8301169050919050565b7f4e487b71000000000000000000000000000000000000000000000000000000005f52604160045260245ffd5b611b9482611b4e565b810181811067ffffffffffffffff82111715611bb357611bb2611b5e565b5b80604052505050565b5f611bc5611adb565b9050611bd18282611b8b565b919050565b5f67ffffffffffffffff821115611bf057611bef611b5e565b5b611bf982611b4e565b9050602081019050919050565b828183375f83830152505050565b5f611c26611c2184611bd6565b611bbc565b905082815260208101848484011115611c4257611c41611b4a565b5b611c4d848285611c06565b509392505050565b5f82601f830112611c6957611c68611b46565b5b8135611c79848260208601611c14565b91505092915050565b5f8060408385031215611c9857611c97611ae4565b5b5f611ca585828601611b32565b925050602083013567ffffffffffffffff811115611cc657611cc5611ae8565b5b611cd285828601611c55565b9150509250929050565b5f805f60608486031215611cf357611cf2611ae4565b5b5f84013567ffffffffffffffff811115611d1057611d0f611ae8565b5b611d1c86828701611c55565b935050602084013567ffffffffffffffff811115611d3d57611d3c611ae8565b5b611d4986828701611c55565b925050604084013567ffffffffffffffff811115611d6a57611d69611ae8565b5b611d7686828701611c55565b9150509250925092565b5f60208284031215611d9557611d94611ae4565b5b5f82013567ffffffffffffffff811115611db257611db1611ae8565b5b611dbe84828501611c55565b91505092915050565b5f81519050919050565b5f82825260208201905092915050565b8281835e5f83830152505050565b5f611df982611dc7565b611e038185611dd1565b9350611e13818560208601611de1565b611e1c81611b4e565b840191505092915050565b5f819050919050565b611e3981611e27565b82525050565b5f60a083015f8301518482035f860152611e598282611def565b91505060208301518482036020860152611e738282611def565b91505060408301518482036040860152611e8d8282611def565b9150506060830151611ea26060860182611e30565b506080830151611eb56080860182611e30565b508091505092915050565b5f6020820190508181035f830152611ed88184611e3f565b905092915050565b611ee981611e27565b8114611ef3575f80fd5b50565b5f81359050611f0481611ee0565b92915050565b5f805f60608486031215611f2157611f20611ae4565b5b5f611f2e86828701611b32565b9350506020611f3f86828701611ef6565b9250506040611f5086828701611ef6565b9150509250925092565b5f82825260208201905092915050565b5f611f7482611dc7565b611f7e8185611f5a565b9350611f8e818560208601611de1565b611f9781611b4e565b840191505092915050565b5f6020820190508181035f830152611fba8184611f6a565b905092915050565b5f81519050919050565b5f82825260208201905092915050565b5f819050602082019050919050565b5f8115159050919050565b611fff81611feb565b82525050565b5f608083015f8301518482035f86015261201f8282611def565b91505060208301516120346020860182611e30565b5060408301516120476040860182611e30565b50606083015161205a6060860182611ff6565b508091505092915050565b5f6120708383612005565b905092915050565b5f602082019050919050565b5f61208e82611fc2565b6120988185611fcc565b9350836020820285016120aa85611fdc565b805f5b858110156120e557848403895281516120c68582612065565b94506120d183612078565b925060208a019950506001810190506120ad565b50829750879550505050505092915050565b5f6020820190508181035f83015261210f8184612084565b905092915050565b5f81519050919050565b5f82825260208201905092915050565b5f819050602082019050919050565b5f61214b8383611def565b905092915050565b5f602082019050919050565b5f61216982612117565b6121738185612121565b93508360208202850161218585612131565b805f5b858110156121c057848403895281516121a18582612140565b94506121ac83612153565b925060208a01995050600181019050612188565b50829750879550505050505092915050565b5f6020820190508181035f8301526121ea818461215f565b905092915050565b7f497373756572206d7573742068617665206120444944000000000000000000005f82015250565b5f612226601683611f5a565b9150612231826121f2565b602082019050919050565b5f6020820190508181035f8301526122538161221a565b9050919050565b7f526f6c652063616e6e6f7420626520656d7074790000000000000000000000005f82015250565b5f61228e601483611f5a565b91506122998261225a565b602082019050919050565b5f6020820190508181035f8301526122bb81612282565b9050919050565b5f8160601b9050919050565b5f6122d8826122c2565b9050919050565b5f6122e9826122ce565b9050919050565b6123016122fc82611b0b565b6122df565b82525050565b5f81905092915050565b5f61231b82611dc7565b6123258185612307565b9350612335818560208601611de1565b80840191505092915050565b5f819050919050565b61235b61235682611e27565b612341565b82525050565b5f61236c82876122f0565b60148201915061237c82866122f0565b60148201915061238c8285612311565b9150612398828461234a565b60208201915081905095945050505050565b7f4e487b71000000000000000000000000000000000000000000000000000000005f52602260045260245ffd5b5f60028204905060018216806123ee57607f821691505b602082108103612401576124006123aa565b5b50919050565b5f819050815f5260205f209050919050565b5f6020601f8301049050919050565b5f82821b905092915050565b5f600883026124637fffffffffffffffffffffffffffffffffffffffffffffffffffffffffffffffff82612428565b61246d8683612428565b95508019841693508086168417925050509392505050565b5f819050919050565b5f6124a86124a361249e84611e27565b612485565b611e27565b9050919050565b5f819050919050565b6124c18361248e565b6124d56124cd826124af565b848454612434565b825550505050565b5f90565b6124e96124dd565b6124f48184846124b8565b505050565b5b818110156125175761250c5f826124e1565b6001810190506124fa565b5050565b601f82111561255c5761252d81612407565b61253684612419565b81016020851015612545578190505b61255961255185612419565b8301826124f9565b50505b505050565b5f82821c905092915050565b5f61257c5f1984600802612561565b1980831691505092915050565b5f612594838361256d565b9150826002028217905092915050565b6125ad82611dc7565b67ffffffffffffffff8111156125c6576125c5611b5e565b5b6125d082546123d7565b6125db82828561251b565b5f60209050601f83116001811461260c575f84156125fa578287015190505b6126048582612589565b86555061266b565b601f19841661261a86612407565b5f5b828110156126415784890151825560018201915060208501945060208101905061261c565b8683101561265e578489015161265a601f89168261256d565b8355505b6001600288020188555050505b505050505050565b61267c81611b0b565b82525050565b5f819050919050565b61269481612682565b82525050565b5f6060820190506126ad5f830186612673565b81810360208301526126bf8185611f6a565b90506126ce604083018461268b565b949350505050565b7f4e6f2044494420666f756e6420666f72207468697320616464726573730000005f82015250565b5f61270a601d83611f5a565b9150612715826126d6565b602082019050919050565b5f6020820190508181035f830152612737816126fe565b9050919050565b7f4e616d652063616e6e6f7420626520656d7074790000000000000000000000005f82015250565b5f612772601483611f5a565b915061277d8261273e565b602082019050919050565b5f6020820190508181035f83015261279f81612766565b9050919050565b7f456d61696c2063616e6e6f7420626520656d70747900000000000000000000005f82015250565b5f6127da601583611f5a565b91506127e5826127a6565b602082019050919050565b5f6020820190508181035f830152612807816127ce565b9050919050565b7f50726f66696c6520706963747572652063616e6e6f7420626520656d707479005f82015250565b5f612842601f83611f5a565b915061284d8261280e565b602082019050919050565b5f6020820190508181035f83015261286f81612836565b9050919050565b5f6060820190508181035f83015261288e8186611f6a565b905081810360208301526128a28185611f6a565b905081810360408301526128b68184611f6a565b9050949350505050565b7f4964656e7469666965722063616e6e6f7420626520656d7074790000000000005f82015250565b5f6128f4601a83611f5a565b91506128ff826128c0565b602082019050919050565b5f6020820190508181035f830152612921816128e8565b9050919050565b7f44494420616c72656164792065786973747300000000000000000000000000005f82015250565b5f61295c601283611f5a565b915061296782612928565b602082019050919050565b5f6020820190508181035f83015261298981612950565b9050919050565b7f4461746120646f6573206e6f74206578697374000000000000000000000000005f82015250565b5f6129c4601383611f5a565b91506129cf82612990565b602082019050919050565b5f6020820190508181035f8301526129f1816129b8565b9050919050565b7f496e76616c6964207465737420696e64657800000000000000000000000000005f82015250565b5f612a2c601283611f5a565b9150612a37826129f8565b602082019050919050565b5f6020820190508181035f830152612a5981612a20565b9050919050565b7f4e487b71000000000000000000000000000000000000000000000000000000005f52603260045260245ffd5b7f5465737420616c726561647920677261646564000000000000000000000000005f82015250565b5f612ac1601383611f5a565b9150612acc82612a8d565b602082019050919050565b5f6020820190508181035f830152612aee81612ab5565b9050919050565b612afe81611e27565b82525050565b5f604082019050612b175f830185612af5565b612b246020830184612af5565b9392505050565b7f416e737765727320686173682063616e6e6f7420626520656d707479000000005f82015250565b5f612b5f601c83611f5a565b9150612b6a82612b2b565b602082019050919050565b5f6020820190508181035f830152612b8c81612b53565b9050919050565b7f4e487b71000000000000000000000000000000000000000000000000000000005f52601160045260245ffd5b5f612bca82611e27565b9150612bd583611e27565b9250828201905080821115612bed57612bec612b93565b5b92915050565b5f6040820190508181035f830152612c0b8185611f6a565b9050612c1a6020830184612af5565b9392505050565b7f4e6f20726f6c65732061737369676e65642079657400000000000000000000005f82015250565b5f612c55601583611f5a565b9150612c6082612c21565b602082019050919050565b5f6020820190508181035f830152612c8281612c49565b905091905056fea26469706673582212200cbf59ac60411d4f0fd85654b5c479fe43fb3ff94db6afa9140be25fb3fa220f64736f6c634300081a0033",
					"opcodes": "PUSH1 0x80 PUSH1 0x40 MSTORE CALLVALUE DUP1 ISZERO PUSH2 0xF JUMPI PUSH0 DUP1 REVERT JUMPDEST POP PUSH1 0x40 MLOAD DUP1 PUSH1 0x40 ADD PUSH1 0x40 MSTORE DUP1 PUSH1 0xB DUP2 MSTORE PUSH1 0x20 ADD PUSH32 0x73757065722061646D696E000000000000000000000000000000000000000000 DUP2 MSTORE POP PUSH1 0x1 PUSH0 CALLER PUSH20 0xFFFFFFFFFFFFFFFFFFFFFFFFFFFFFFFFFFFFFFFF AND PUSH20 0xFFFFFFFFFFFFFFFFFFFFFFFFFFFFFFFFFFFFFFFF AND DUP2 MSTORE PUSH1 0x20 ADD SWAP1 DUP2 MSTORE PUSH1 0x20 ADD PUSH0 KECCAK256 SWAP1 DUP2 PUSH2 0x8F SWAP2 SWAP1 PUSH2 0x36E JUMP JUMPDEST POP PUSH1 0x2 PUSH0 CALLER PUSH20 0xFFFFFFFFFFFFFFFFFFFFFFFFFFFFFFFFFFFFFFFF AND PUSH20 0xFFFFFFFFFFFFFFFFFFFFFFFFFFFFFFFFFFFFFFFF AND DUP2 MSTORE PUSH1 0x20 ADD SWAP1 DUP2 MSTORE PUSH1 0x20 ADD PUSH0 KECCAK256 DUP1 PUSH1 0x1 DUP2 SLOAD ADD DUP1 DUP3 SSTORE DUP1 SWAP2 POP POP PUSH1 0x1 SWAP1 SUB SWAP1 PUSH0 MSTORE PUSH1 0x20 PUSH0 KECCAK256 ADD PUSH0 PUSH1 0x40 MLOAD DUP1 PUSH1 0x40 ADD PUSH1 0x40 MSTORE DUP1 PUSH1 0xB DUP2 MSTORE PUSH1 0x20 ADD PUSH32 0x73757065722061646D696E000000000000000000000000000000000000000000 DUP2 MSTORE POP SWAP1 SWAP2 SWAP1 SWAP2 POP SWAP1 DUP2 PUSH2 0x12E SWAP2 SWAP1 PUSH2 0x36E JUMP JUMPDEST POP PUSH2 0x43D JUMP JUMPDEST PUSH0 DUP2 MLOAD SWAP1 POP SWAP2 SWAP1 POP JUMP JUMPDEST PUSH32 0x4E487B7100000000000000000000000000000000000000000000000000000000 PUSH0 MSTORE PUSH1 0x41 PUSH1 0x4 MSTORE PUSH1 0x24 PUSH0 REVERT JUMPDEST PUSH32 0x4E487B7100000000000000000000000000000000000000000000000000000000 PUSH0 MSTORE PUSH1 0x22 PUSH1 0x4 MSTORE PUSH1 0x24 PUSH0 REVERT JUMPDEST PUSH0 PUSH1 0x2 DUP3 DIV SWAP1 POP PUSH1 0x1 DUP3 AND DUP1 PUSH2 0x1AF JUMPI PUSH1 0x7F DUP3 AND SWAP2 POP JUMPDEST PUSH1 0x20 DUP3 LT DUP2 SUB PUSH2 0x1C2 JUMPI PUSH2 0x1C1 PUSH2 0x16B JUMP JUMPDEST JUMPDEST POP SWAP2 SWAP1 POP JUMP JUMPDEST PUSH0 DUP2 SWAP1 POP DUP2 PUSH0 MSTORE PUSH1 0x20 PUSH0 KECCAK256 SWAP1 POP SWAP2 SWAP1 POP JUMP JUMPDEST PUSH0 PUSH1 0x20 PUSH1 0x1F DUP4 ADD DIV SWAP1 POP SWAP2 SWAP1 POP JUMP JUMPDEST PUSH0 DUP3 DUP3 SHL SWAP1 POP SWAP3 SWAP2 POP POP JUMP JUMPDEST PUSH0 PUSH1 0x8 DUP4 MUL PUSH2 0x224 PUSH32 0xFFFFFFFFFFFFFFFFFFFFFFFFFFFFFFFFFFFFFFFFFFFFFFFFFFFFFFFFFFFFFFFF DUP3 PUSH2 0x1E9 JUMP JUMPDEST PUSH2 0x22E DUP7 DUP4 PUSH2 0x1E9 JUMP JUMPDEST SWAP6 POP DUP1 NOT DUP5 AND SWAP4 POP DUP1 DUP7 AND DUP5 OR SWAP3 POP POP POP SWAP4 SWAP3 POP POP POP JUMP JUMPDEST PUSH0 DUP2 SWAP1 POP SWAP2 SWAP1 POP JUMP JUMPDEST PUSH0 DUP2 SWAP1 POP SWAP2 SWAP1 POP JUMP JUMPDEST PUSH0 PUSH2 0x272 PUSH2 0x26D PUSH2 0x268 DUP5 PUSH2 0x246 JUMP JUMPDEST PUSH2 0x24F JUMP JUMPDEST PUSH2 0x246 JUMP JUMPDEST SWAP1 POP SWAP2 SWAP1 POP JUMP JUMPDEST PUSH0 DUP2 SWAP1 POP SWAP2 SWAP1 POP JUMP JUMPDEST PUSH2 0x28B DUP4 PUSH2 0x258 JUMP JUMPDEST PUSH2 0x29F PUSH2 0x297 DUP3 PUSH2 0x279 JUMP JUMPDEST DUP5 DUP5 SLOAD PUSH2 0x1F5 JUMP JUMPDEST DUP3 SSTORE POP POP POP POP JUMP JUMPDEST PUSH0 SWAP1 JUMP JUMPDEST PUSH2 0x2B3 PUSH2 0x2A7 JUMP JUMPDEST PUSH2 0x2BE DUP2 DUP5 DUP5 PUSH2 0x282 JUMP JUMPDEST POP POP POP JUMP JUMPDEST JUMPDEST DUP2 DUP2 LT ISZERO PUSH2 0x2E1 JUMPI PUSH2 0x2D6 PUSH0 DUP3 PUSH2 0x2AB JUMP JUMPDEST PUSH1 0x1 DUP2 ADD SWAP1 POP PUSH2 0x2C4 JUMP JUMPDEST POP POP JUMP JUMPDEST PUSH1 0x1F DUP3 GT ISZERO PUSH2 0x326 JUMPI PUSH2 0x2F7 DUP2 PUSH2 0x1C8 JUMP JUMPDEST PUSH2 0x300 DUP5 PUSH2 0x1DA JUMP JUMPDEST DUP2 ADD PUSH1 0x20 DUP6 LT ISZERO PUSH2 0x30F JUMPI DUP2 SWAP1 POP JUMPDEST PUSH2 0x323 PUSH2 0x31B DUP6 PUSH2 0x1DA JUMP JUMPDEST DUP4 ADD DUP3 PUSH2 0x2C3 JUMP JUMPDEST POP POP JUMPDEST POP POP POP JUMP JUMPDEST PUSH0 DUP3 DUP3 SHR SWAP1 POP SWAP3 SWAP2 POP POP JUMP JUMPDEST PUSH0 PUSH2 0x346 PUSH0 NOT DUP5 PUSH1 0x8 MUL PUSH2 0x32B JUMP JUMPDEST NOT DUP1 DUP4 AND SWAP2 POP POP SWAP3 SWAP2 POP POP JUMP JUMPDEST PUSH0 PUSH2 0x35E DUP4 DUP4 PUSH2 0x337 JUMP JUMPDEST SWAP2 POP DUP3 PUSH1 0x2 MUL DUP3 OR SWAP1 POP SWAP3 SWAP2 POP POP JUMP JUMPDEST PUSH2 0x377 DUP3 PUSH2 0x134 JUMP JUMPDEST PUSH8 0xFFFFFFFFFFFFFFFF DUP2 GT ISZERO PUSH2 0x390 JUMPI PUSH2 0x38F PUSH2 0x13E JUMP JUMPDEST JUMPDEST PUSH2 0x39A DUP3 SLOAD PUSH2 0x198 JUMP JUMPDEST PUSH2 0x3A5 DUP3 DUP3 DUP6 PUSH2 0x2E5 JUMP JUMPDEST PUSH0 PUSH1 0x20 SWAP1 POP PUSH1 0x1F DUP4 GT PUSH1 0x1 DUP2 EQ PUSH2 0x3D6 JUMPI PUSH0 DUP5 ISZERO PUSH2 0x3C4 JUMPI DUP3 DUP8 ADD MLOAD SWAP1 POP JUMPDEST PUSH2 0x3CE DUP6 DUP3 PUSH2 0x353 JUMP JUMPDEST DUP7 SSTORE POP PUSH2 0x435 JUMP JUMPDEST PUSH1 0x1F NOT DUP5 AND PUSH2 0x3E4 DUP7 PUSH2 0x1C8 JUMP JUMPDEST PUSH0 JUMPDEST DUP3 DUP2 LT ISZERO PUSH2 0x40B JUMPI DUP5 DUP10 ADD MLOAD DUP3 SSTORE PUSH1 0x1 DUP3 ADD SWAP2 POP PUSH1 0x20 DUP6 ADD SWAP5 POP PUSH1 0x20 DUP2 ADD SWAP1 POP PUSH2 0x3E6 JUMP JUMPDEST DUP7 DUP4 LT ISZERO PUSH2 0x428 JUMPI DUP5 DUP10 ADD MLOAD PUSH2 0x424 PUSH1 0x1F DUP10 AND DUP3 PUSH2 0x337 JUMP JUMPDEST DUP4 SSTORE POP JUMPDEST PUSH1 0x1 PUSH1 0x2 DUP9 MUL ADD DUP9 SSTORE POP POP POP JUMPDEST POP POP POP POP POP POP JUMP JUMPDEST PUSH2 0x2CBF DUP1 PUSH2 0x44A PUSH0 CODECOPY PUSH0 RETURN INVALID PUSH1 0x80 PUSH1 0x40 MSTORE CALLVALUE DUP1 ISZERO PUSH2 0xF JUMPI PUSH0 DUP1 REVERT JUMPDEST POP PUSH1 0x4 CALLDATASIZE LT PUSH2 0x9C JUMPI PUSH0 CALLDATALOAD PUSH1 0xE0 SHR DUP1 PUSH4 0xB7DFCBEE GT PUSH2 0x64 JUMPI DUP1 PUSH4 0xB7DFCBEE EQ PUSH2 0x12E JUMPI DUP1 PUSH4 0xBC9C2D55 EQ PUSH2 0x14A JUMPI DUP1 PUSH4 0xC303E541 EQ PUSH2 0x168 JUMPI DUP1 PUSH4 0xDE6DB5C7 EQ PUSH2 0x184 JUMPI DUP1 PUSH4 0xFDE08174 EQ PUSH2 0x1A2 JUMPI PUSH2 0x9C JUMP JUMPDEST DUP1 PUSH4 0x22BF9C1 EQ PUSH2 0xA0 JUMPI DUP1 PUSH4 0x890D80C EQ PUSH2 0xBC JUMPI DUP1 PUSH4 0x3457D3E2 EQ PUSH2 0xD8 JUMPI DUP1 PUSH4 0x7A5B4F59 EQ PUSH2 0xF4 JUMPI DUP1 PUSH4 0xB4F30A54 EQ PUSH2 0x112 JUMPI JUMPDEST PUSH0 DUP1 REVERT JUMPDEST PUSH2 0xBA PUSH1 0x4 DUP1 CALLDATASIZE SUB DUP2 ADD SWAP1 PUSH2 0xB5 SWAP2 SWAP1 PUSH2 0x1C82 JUMP JUMPDEST PUSH2 0x1C0 JUMP JUMPDEST STOP JUMPDEST PUSH2 0xD6 PUSH1 0x4 DUP1 CALLDATASIZE SUB DUP2 ADD SWAP1 PUSH2 0xD1 SWAP2 SWAP1 PUSH2 0x1CDC JUMP JUMPDEST PUSH2 0x4CD JUMP JUMPDEST STOP JUMPDEST PUSH2 0xF2 PUSH1 0x4 DUP1 CALLDATASIZE SUB DUP2 ADD SWAP1 PUSH2 0xED SWAP2 SWAP1 PUSH2 0x1D80 JUMP JUMPDEST PUSH2 0x774 JUMP JUMPDEST STOP JUMPDEST PUSH2 0xFC PUSH2 0x9A8 JUMP JUMPDEST PUSH1 0x40 MLOAD PUSH2 0x109 SWAP2 SWAP1 PUSH2 0x1EC0 JUMP JUMPDEST PUSH1 0x40 MLOAD DUP1 SWAP2 SUB SWAP1 RETURN JUMPDEST PUSH2 0x12C PUSH1 0x4 DUP1 CALLDATASIZE SUB DUP2 ADD SWAP1 PUSH2 0x127 SWAP2 SWAP1 PUSH2 0x1F0A JUMP JUMPDEST PUSH2 0xC8C JUMP JUMPDEST STOP JUMPDEST PUSH2 0x148 PUSH1 0x4 DUP1 CALLDATASIZE SUB DUP2 ADD SWAP1 PUSH2 0x143 SWAP2 SWAP1 PUSH2 0x1C82 JUMP JUMPDEST PUSH2 0xFF8 JUMP JUMPDEST STOP JUMPDEST PUSH2 0x152 PUSH2 0x1211 JUMP JUMPDEST PUSH1 0x40 MLOAD PUSH2 0x15F SWAP2 SWAP1 PUSH2 0x1FA2 JUMP JUMPDEST PUSH1 0x40 MLOAD DUP1 SWAP2 SUB SWAP1 RETURN JUMPDEST PUSH2 0x182 PUSH1 0x4 DUP1 CALLDATASIZE SUB DUP2 ADD SWAP1 PUSH2 0x17D SWAP2 SWAP1 PUSH2 0x1D80 JUMP JUMPDEST PUSH2 0x13A9 JUMP JUMPDEST STOP JUMPDEST PUSH2 0x18C PUSH2 0x1631 JUMP JUMPDEST PUSH1 0x40 MLOAD PUSH2 0x199 SWAP2 SWAP1 PUSH2 0x20F7 JUMP JUMPDEST PUSH1 0x40 MLOAD DUP1 SWAP2 SUB SWAP1 RETURN JUMPDEST PUSH2 0x1AA PUSH2 0x1851 JUMP JUMPDEST PUSH1 0x40 MLOAD PUSH2 0x1B7 SWAP2 SWAP1 PUSH2 0x21D2 JUMP JUMPDEST PUSH1 0x40 MLOAD DUP1 SWAP2 SUB SWAP1 RETURN JUMPDEST PUSH0 PUSH20 0xFFFFFFFFFFFFFFFFFFFFFFFFFFFFFFFFFFFFFFFF AND PUSH0 DUP1 CALLER PUSH20 0xFFFFFFFFFFFFFFFFFFFFFFFFFFFFFFFFFFFFFFFF AND PUSH20 0xFFFFFFFFFFFFFFFFFFFFFFFFFFFFFFFFFFFFFFFF AND DUP2 MSTORE PUSH1 0x20 ADD SWAP1 DUP2 MSTORE PUSH1 0x20 ADD PUSH0 KECCAK256 PUSH1 0x1 ADD PUSH0 SWAP1 SLOAD SWAP1 PUSH2 0x100 EXP SWAP1 DIV PUSH20 0xFFFFFFFFFFFFFFFFFFFFFFFFFFFFFFFFFFFFFFFF AND PUSH20 0xFFFFFFFFFFFFFFFFFFFFFFFFFFFFFFFFFFFFFFFF AND SUB PUSH2 0x28C JUMPI PUSH1 0x40 MLOAD PUSH32 0x8C379A000000000000000000000000000000000000000000000000000000000 DUP2 MSTORE PUSH1 0x4 ADD PUSH2 0x283 SWAP1 PUSH2 0x223C JUMP JUMPDEST PUSH1 0x40 MLOAD DUP1 SWAP2 SUB SWAP1 REVERT JUMPDEST PUSH0 DUP2 MLOAD GT PUSH2 0x2CF JUMPI PUSH1 0x40 MLOAD PUSH32 0x8C379A000000000000000000000000000000000000000000000000000000000 DUP2 MSTORE PUSH1 0x4 ADD PUSH2 0x2C6 SWAP1 PUSH2 0x22A4 JUMP JUMPDEST PUSH1 0x40 MLOAD DUP1 SWAP2 SUB SWAP1 REVERT JUMPDEST PUSH0 CALLER DUP4 DUP4 TIMESTAMP PUSH1 0x40 MLOAD PUSH1 0x20 ADD PUSH2 0x2E7 SWAP5 SWAP4 SWAP3 SWAP2 SWAP1 PUSH2 0x2361 JUMP JUMPDEST PUSH1 0x40 MLOAD PUSH1 0x20 DUP2 DUP4 SUB SUB DUP2 MSTORE SWAP1 PUSH1 0x40 MSTORE DUP1 MLOAD SWAP1 PUSH1 0x20 ADD KECCAK256 SWAP1 POP PUSH1 0x4 PUSH0 DUP5 PUSH20 0xFFFFFFFFFFFFFFFFFFFFFFFFFFFFFFFFFFFFFFFF AND PUSH20 0xFFFFFFFFFFFFFFFFFFFFFFFFFFFFFFFFFFFFFFFF AND DUP2 MSTORE PUSH1 0x20 ADD SWAP1 DUP2 MSTORE PUSH1 0x20 ADD PUSH0 KECCAK256 PUSH1 0x40 MLOAD DUP1 PUSH1 0x80 ADD PUSH1 0x40 MSTORE DUP1 CALLER PUSH20 0xFFFFFFFFFFFFFFFFFFFFFFFFFFFFFFFFFFFFFFFF AND DUP2 MSTORE PUSH1 0x20 ADD DUP5 DUP2 MSTORE PUSH1 0x20 ADD TIMESTAMP DUP2 MSTORE PUSH1 0x20 ADD DUP4 DUP2 MSTORE POP SWAP1 DUP1 PUSH1 0x1 DUP2 SLOAD ADD DUP1 DUP3 SSTORE DUP1 SWAP2 POP POP PUSH1 0x1 SWAP1 SUB SWAP1 PUSH0 MSTORE PUSH1 0x20 PUSH0 KECCAK256 SWAP1 PUSH1 0x4 MUL ADD PUSH0 SWAP1 SWAP2 SWAP1 SWAP2 SWAP1 SWAP2 POP PUSH0 DUP3 ADD MLOAD DUP2 PUSH0 ADD PUSH0 PUSH2 0x100 EXP DUP2 SLOAD DUP2 PUSH20 0xFFFFFFFFFFFFFFFFFFFFFFFFFFFFFFFFFFFFFFFF MUL NOT AND SWAP1 DUP4 PUSH20 0xFFFFFFFFFFFFFFFFFFFFFFFFFFFFFFFFFFFFFFFF AND MUL OR SWAP1 SSTORE POP PUSH1 0x20 DUP3 ADD MLOAD DUP2 PUSH1 0x1 ADD SWAP1 DUP2 PUSH2 0x3F2 SWAP2 SWAP1 PUSH2 0x25A4 JUMP JUMPDEST POP PUSH1 0x40 DUP3 ADD MLOAD DUP2 PUSH1 0x2 ADD SSTORE PUSH1 0x60 DUP3 ADD MLOAD DUP2 PUSH1 0x3 ADD SSTORE POP POP PUSH1 0x2 PUSH0 DUP5 PUSH20 0xFFFFFFFFFFFFFFFFFFFFFFFFFFFFFFFFFFFFFFFF AND PUSH20 0xFFFFFFFFFFFFFFFFFFFFFFFFFFFFFFFFFFFFFFFF AND DUP2 MSTORE PUSH1 0x20 ADD SWAP1 DUP2 MSTORE PUSH1 0x20 ADD PUSH0 KECCAK256 DUP3 SWAP1 DUP1 PUSH1 0x1 DUP2 SLOAD ADD DUP1 DUP3 SSTORE DUP1 SWAP2 POP POP PUSH1 0x1 SWAP1 SUB SWAP1 PUSH0 MSTORE PUSH1 0x20 PUSH0 KECCAK256 ADD PUSH0 SWAP1 SWAP2 SWAP1 SWAP2 SWAP1 SWAP2 POP SWAP1 DUP2 PUSH2 0x475 SWAP2 SWAP1 PUSH2 0x25A4 JUMP JUMPDEST POP CALLER PUSH20 0xFFFFFFFFFFFFFFFFFFFFFFFFFFFFFFFFFFFFFFFF AND PUSH32 0xF4313CB022699889C6EDDB590E42342301CDAE4824FD424FFDFDEB23D4CDBBE9 DUP5 DUP5 DUP5 PUSH1 0x40 MLOAD PUSH2 0x4C0 SWAP4 SWAP3 SWAP2 SWAP1 PUSH2 0x269A JUMP JUMPDEST PUSH1 0x40 MLOAD DUP1 SWAP2 SUB SWAP1 LOG2 POP POP POP JUMP JUMPDEST PUSH0 PUSH20 0xFFFFFFFFFFFFFFFFFFFFFFFFFFFFFFFFFFFFFFFF AND PUSH0 DUP1 CALLER PUSH20 0xFFFFFFFFFFFFFFFFFFFFFFFFFFFFFFFFFFFFFFFF AND PUSH20 0xFFFFFFFFFFFFFFFFFFFFFFFFFFFFFFFFFFFFFFFF AND DUP2 MSTORE PUSH1 0x20 ADD SWAP1 DUP2 MSTORE PUSH1 0x20 ADD PUSH0 KECCAK256 PUSH1 0x1 ADD PUSH0 SWAP1 SLOAD SWAP1 PUSH2 0x100 EXP SWAP1 DIV PUSH20 0xFFFFFFFFFFFFFFFFFFFFFFFFFFFFFFFFFFFFFFFF AND PUSH20 0xFFFFFFFFFFFFFFFFFFFFFFFFFFFFFFFFFFFFFFFF AND SUB PUSH2 0x599 JUMPI PUSH1 0x40 MLOAD PUSH32 0x8C379A000000000000000000000000000000000000000000000000000000000 DUP2 MSTORE PUSH1 0x4 ADD PUSH2 0x590 SWAP1 PUSH2 0x2720 JUMP JUMPDEST PUSH1 0x40 MLOAD DUP1 SWAP2 SUB SWAP1 REVERT JUMPDEST PUSH0 DUP4 MLOAD GT PUSH2 0x5DC JUMPI PUSH1 0x40 MLOAD PUSH32 0x8C379A000000000000000000000000000000000000000000000000000000000 DUP2 MSTORE PUSH1 0x4 ADD PUSH2 0x5D3 SWAP1 PUSH2 0x2788 JUMP JUMPDEST PUSH1 0x40 MLOAD DUP1 SWAP2 SUB SWAP1 REVERT JUMPDEST PUSH0 DUP3 MLOAD GT PUSH2 0x61F JUMPI PUSH1 0x40 MLOAD PUSH32 0x8C379A000000000000000000000000000000000000000000000000000000000 DUP2 MSTORE PUSH1 0x4 ADD PUSH2 0x616 SWAP1 PUSH2 0x27F0 JUMP JUMPDEST PUSH1 0x40 MLOAD DUP1 SWAP2 SUB SWAP1 REVERT JUMPDEST PUSH0 DUP2 MLOAD GT PUSH2 0x662 JUMPI PUSH1 0x40 MLOAD PUSH32 0x8C379A000000000000000000000000000000000000000000000000000000000 DUP2 MSTORE PUSH1 0x4 ADD PUSH2 0x659 SWAP1 PUSH2 0x2858 JUMP JUMPDEST PUSH1 0x40 MLOAD DUP1 SWAP2 SUB SWAP1 REVERT JUMPDEST PUSH1 0x40 MLOAD DUP1 PUSH1 0xA0 ADD PUSH1 0x40 MSTORE DUP1 DUP5 DUP2 MSTORE PUSH1 0x20 ADD DUP4 DUP2 MSTORE PUSH1 0x20 ADD DUP3 DUP2 MSTORE PUSH1 0x20 ADD PUSH0 DUP2 MSTORE PUSH1 0x20 ADD PUSH0 DUP2 MSTORE POP PUSH1 0x3 PUSH0 CALLER PUSH20 0xFFFFFFFFFFFFFFFFFFFFFFFFFFFFFFFFFFFFFFFF AND PUSH20 0xFFFFFFFFFFFFFFFFFFFFFFFFFFFFFFFFFFFFFFFF AND DUP2 MSTORE PUSH1 0x20 ADD SWAP1 DUP2 MSTORE PUSH1 0x20 ADD PUSH0 KECCAK256 PUSH0 DUP3 ADD MLOAD DUP2 PUSH0 ADD SWAP1 DUP2 PUSH2 0x6D9 SWAP2 SWAP1 PUSH2 0x25A4 JUMP JUMPDEST POP PUSH1 0x20 DUP3 ADD MLOAD DUP2 PUSH1 0x1 ADD SWAP1 DUP2 PUSH2 0x6EF SWAP2 SWAP1 PUSH2 0x25A4 JUMP JUMPDEST POP PUSH1 0x40 DUP3 ADD MLOAD DUP2 PUSH1 0x2 ADD SWAP1 DUP2 PUSH2 0x705 SWAP2 SWAP1 PUSH2 0x25A4 JUMP JUMPDEST POP PUSH1 0x60 DUP3 ADD MLOAD DUP2 PUSH1 0x3 ADD SSTORE PUSH1 0x80 DUP3 ADD MLOAD DUP2 PUSH1 0x4 ADD SSTORE SWAP1 POP POP CALLER PUSH20 0xFFFFFFFFFFFFFFFFFFFFFFFFFFFFFFFFFFFFFFFF AND PUSH32 0x65D0EE13464C98C4CC59B1E8669C3B1E26D6CCC62EC1811070773F0C7903DF2F DUP5 DUP5 DUP5 PUSH1 0x40 MLOAD PUSH2 0x767 SWAP4 SWAP3 SWAP2 SWAP1 PUSH2 0x2876 JUMP JUMPDEST PUSH1 0x40 MLOAD DUP1 SWAP2 SUB SWAP1 LOG2 POP POP POP JUMP JUMPDEST PUSH0 DUP2 MLOAD GT PUSH2 0x7B7 JUMPI PUSH1 0x40 MLOAD PUSH32 0x8C379A000000000000000000000000000000000000000000000000000000000 DUP2 MSTORE PUSH1 0x4 ADD PUSH2 0x7AE SWAP1 PUSH2 0x290A JUMP JUMPDEST PUSH1 0x40 MLOAD DUP1 SWAP2 SUB SWAP1 REVERT JUMPDEST PUSH0 PUSH20 0xFFFFFFFFFFFFFFFFFFFFFFFFFFFFFFFFFFFFFFFF AND PUSH0 DUP1 CALLER PUSH20 0xFFFFFFFFFFFFFFFFFFFFFFFFFFFFFFFFFFFFFFFF AND PUSH20 0xFFFFFFFFFFFFFFFFFFFFFFFFFFFFFFFFFFFFFFFF AND DUP2 MSTORE PUSH1 0x20 ADD SWAP1 DUP2 MSTORE PUSH1 0x20 ADD PUSH0 KECCAK256 PUSH1 0x1 ADD PUSH0 SWAP1 SLOAD SWAP1 PUSH2 0x100 EXP SWAP1 DIV PUSH20 0xFFFFFFFFFFFFFFFFFFFFFFFFFFFFFFFFFFFFFFFF AND PUSH20 0xFFFFFFFFFFFFFFFFFFFFFFFFFFFFFFFFFFFFFFFF AND EQ PUSH2 0x883 JUMPI PUSH1 0x40 MLOAD PUSH32 0x8C379A000000000000000000000000000000000000000000000000000000000 DUP2 MSTORE PUSH1 0x4 ADD PUSH2 0x87A SWAP1 PUSH2 0x2972 JUMP JUMPDEST PUSH1 0x40 MLOAD DUP1 SWAP2 SUB SWAP1 REVERT JUMPDEST PUSH1 0x40 MLOAD DUP1 PUSH1 0x60 ADD PUSH1 0x40 MSTORE DUP1 DUP3 DUP2 MSTORE PUSH1 0x20 ADD CALLER PUSH20 0xFFFFFFFFFFFFFFFFFFFFFFFFFFFFFFFFFFFFFFFF AND DUP2 MSTORE PUSH1 0x20 ADD TIMESTAMP DUP2 MSTORE POP PUSH0 DUP1 CALLER PUSH20 0xFFFFFFFFFFFFFFFFFFFFFFFFFFFFFFFFFFFFFFFF AND PUSH20 0xFFFFFFFFFFFFFFFFFFFFFFFFFFFFFFFFFFFFFFFF AND DUP2 MSTORE PUSH1 0x20 ADD SWAP1 DUP2 MSTORE PUSH1 0x20 ADD PUSH0 KECCAK256 PUSH0 DUP3 ADD MLOAD DUP2 PUSH0 ADD SWAP1 DUP2 PUSH2 0x903 SWAP2 SWAP1 PUSH2 0x25A4 JUMP JUMPDEST POP PUSH1 0x20 DUP3 ADD MLOAD DUP2 PUSH1 0x1 ADD PUSH0 PUSH2 0x100 EXP DUP2 SLOAD DUP2 PUSH20 0xFFFFFFFFFFFFFFFFFFFFFFFFFFFFFFFFFFFFFFFF MUL NOT AND SWAP1 DUP4 PUSH20 0xFFFFFFFFFFFFFFFFFFFFFFFFFFFFFFFFFFFFFFFF AND MUL OR SWAP1 SSTORE POP PUSH1 0x40 DUP3 ADD MLOAD DUP2 PUSH1 0x2 ADD SSTORE SWAP1 POP POP CALLER PUSH20 0xFFFFFFFFFFFFFFFFFFFFFFFFFFFFFFFFFFFFFFFF AND PUSH32 0x1B7934654BA536B6962955E057CE42885353BBAAD8C605A5CE0678E632F28410 DUP3 PUSH1 0x40 MLOAD PUSH2 0x99D SWAP2 SWAP1 PUSH2 0x1FA2 JUMP JUMPDEST PUSH1 0x40 MLOAD DUP1 SWAP2 SUB SWAP1 LOG2 POP JUMP JUMPDEST PUSH2 0x9B0 PUSH2 0x1AAE JUMP JUMPDEST PUSH0 PUSH20 0xFFFFFFFFFFFFFFFFFFFFFFFFFFFFFFFFFFFFFFFF AND PUSH0 DUP1 CALLER PUSH20 0xFFFFFFFFFFFFFFFFFFFFFFFFFFFFFFFFFFFFFFFF AND PUSH20 0xFFFFFFFFFFFFFFFFFFFFFFFFFFFFFFFFFFFFFFFF AND DUP2 MSTORE PUSH1 0x20 ADD SWAP1 DUP2 MSTORE PUSH1 0x20 ADD PUSH0 KECCAK256 PUSH1 0x1 ADD PUSH0 SWAP1 SLOAD SWAP1 PUSH2 0x100 EXP SWAP1 DIV PUSH20 0xFFFFFFFFFFFFFFFFFFFFFFFFFFFFFFFFFFFFFFFF AND PUSH20 0xFFFFFFFFFFFFFFFFFFFFFFFFFFFFFFFFFFFFFFFF AND SUB PUSH2 0xA7C JUMPI PUSH1 0x40 MLOAD PUSH32 0x8C379A000000000000000000000000000000000000000000000000000000000 DUP2 MSTORE PUSH1 0x4 ADD PUSH2 0xA73 SWAP1 PUSH2 0x29DA JUMP JUMPDEST PUSH1 0x40 MLOAD DUP1 SWAP2 SUB SWAP1 REVERT JUMPDEST PUSH1 0x3 PUSH0 CALLER PUSH20 0xFFFFFFFFFFFFFFFFFFFFFFFFFFFFFFFFFFFFFFFF AND PUSH20 0xFFFFFFFFFFFFFFFFFFFFFFFFFFFFFFFFFFFFFFFF AND DUP2 MSTORE PUSH1 0x20 ADD SWAP1 DUP2 MSTORE PUSH1 0x20 ADD PUSH0 KECCAK256 PUSH1 0x40 MLOAD DUP1 PUSH1 0xA0 ADD PUSH1 0x40 MSTORE SWAP1 DUP2 PUSH0 DUP3 ADD DUP1 SLOAD PUSH2 0xAD3 SWAP1 PUSH2 0x23D7 JUMP JUMPDEST DUP1 PUSH1 0x1F ADD PUSH1 0x20 DUP1 SWAP2 DIV MUL PUSH1 0x20 ADD PUSH1 0x40 MLOAD SWAP1 DUP2 ADD PUSH1 0x40 MSTORE DUP1 SWAP3 SWAP2 SWAP1 DUP2 DUP2 MSTORE PUSH1 0x20 ADD DUP3 DUP1 SLOAD PUSH2 0xAFF SWAP1 PUSH2 0x23D7 JUMP JUMPDEST DUP1 ISZERO PUSH2 0xB4A JUMPI DUP1 PUSH1 0x1F LT PUSH2 0xB21 JUMPI PUSH2 0x100 DUP1 DUP4 SLOAD DIV MUL DUP4 MSTORE SWAP2 PUSH1 0x20 ADD SWAP2 PUSH2 0xB4A JUMP JUMPDEST DUP3 ADD SWAP2 SWAP1 PUSH0 MSTORE PUSH1 0x20 PUSH0 KECCAK256 SWAP1 JUMPDEST DUP2 SLOAD DUP2 MSTORE SWAP1 PUSH1 0x1 ADD SWAP1 PUSH1 0x20 ADD DUP1 DUP4 GT PUSH2 0xB2D JUMPI DUP3 SWAP1 SUB PUSH1 0x1F AND DUP3 ADD SWAP2 JUMPDEST POP POP POP POP POP DUP2 MSTORE PUSH1 0x20 ADD PUSH1 0x1 DUP3 ADD DUP1 SLOAD PUSH2 0xB63 SWAP1 PUSH2 0x23D7 JUMP JUMPDEST DUP1 PUSH1 0x1F ADD PUSH1 0x20 DUP1 SWAP2 DIV MUL PUSH1 0x20 ADD PUSH1 0x40 MLOAD SWAP1 DUP2 ADD PUSH1 0x40 MSTORE DUP1 SWAP3 SWAP2 SWAP1 DUP2 DUP2 MSTORE PUSH1 0x20 ADD DUP3 DUP1 SLOAD PUSH2 0xB8F SWAP1 PUSH2 0x23D7 JUMP JUMPDEST DUP1 ISZERO PUSH2 0xBDA JUMPI DUP1 PUSH1 0x1F LT PUSH2 0xBB1 JUMPI PUSH2 0x100 DUP1 DUP4 SLOAD DIV MUL DUP4 MSTORE SWAP2 PUSH1 0x20 ADD SWAP2 PUSH2 0xBDA JUMP JUMPDEST DUP3 ADD SWAP2 SWAP1 PUSH0 MSTORE PUSH1 0x20 PUSH0 KECCAK256 SWAP1 JUMPDEST DUP2 SLOAD DUP2 MSTORE SWAP1 PUSH1 0x1 ADD SWAP1 PUSH1 0x20 ADD DUP1 DUP4 GT PUSH2 0xBBD JUMPI DUP3 SWAP1 SUB PUSH1 0x1F AND DUP3 ADD SWAP2 JUMPDEST POP POP POP POP POP DUP2 MSTORE PUSH1 0x20 ADD PUSH1 0x2 DUP3 ADD DUP1 SLOAD PUSH2 0xBF3 SWAP1 PUSH2 0x23D7 JUMP JUMPDEST DUP1 PUSH1 0x1F ADD PUSH1 0x20 DUP1 SWAP2 DIV MUL PUSH1 0x20 ADD PUSH1 0x40 MLOAD SWAP1 DUP2 ADD PUSH1 0x40 MSTORE DUP1 SWAP3 SWAP2 SWAP1 DUP2 DUP2 MSTORE PUSH1 0x20 ADD DUP3 DUP1 SLOAD PUSH2 0xC1F SWAP1 PUSH2 0x23D7 JUMP JUMPDEST DUP1 ISZERO PUSH2 0xC6A JUMPI DUP1 PUSH1 0x1F LT PUSH2 0xC41 JUMPI PUSH2 0x100 DUP1 DUP4 SLOAD DIV MUL DUP4 MSTORE SWAP2 PUSH1 0x20 ADD SWAP2 PUSH2 0xC6A JUMP JUMPDEST DUP3 ADD SWAP2 SWAP1 PUSH0 MSTORE PUSH1 0x20 PUSH0 KECCAK256 SWAP1 JUMPDEST DUP2 SLOAD DUP2 MSTORE SWAP1 PUSH1 0x1 ADD SWAP1 PUSH1 0x20 ADD DUP1 DUP4 GT PUSH2 0xC4D JUMPI DUP3 SWAP1 SUB PUSH1 0x1F AND DUP3 ADD SWAP2 JUMPDEST POP POP POP POP POP DUP2 MSTORE PUSH1 0x20 ADD PUSH1 0x3 DUP3 ADD SLOAD DUP2 MSTORE PUSH1 0x20 ADD PUSH1 0x4 DUP3 ADD SLOAD DUP2 MSTORE POP POP SWAP1 POP SWAP1 JUMP JUMPDEST PUSH0 PUSH20 0xFFFFFFFFFFFFFFFFFFFFFFFFFFFFFFFFFFFFFFFF AND PUSH0 DUP1 CALLER PUSH20 0xFFFFFFFFFFFFFFFFFFFFFFFFFFFFFFFFFFFFFFFF AND PUSH20 0xFFFFFFFFFFFFFFFFFFFFFFFFFFFFFFFFFFFFFFFF AND DUP2 MSTORE PUSH1 0x20 ADD SWAP1 DUP2 MSTORE PUSH1 0x20 ADD PUSH0 KECCAK256 PUSH1 0x1 ADD PUSH0 SWAP1 SLOAD SWAP1 PUSH2 0x100 EXP SWAP1 DIV PUSH20 0xFFFFFFFFFFFFFFFFFFFFFFFFFFFFFFFFFFFFFFFF AND PUSH20 0xFFFFFFFFFFFFFFFFFFFFFFFFFFFFFFFFFFFFFFFF AND SUB PUSH2 0xD58 JUMPI PUSH1 0x40 MLOAD PUSH32 0x8C379A000000000000000000000000000000000000000000000000000000000 DUP2 MSTORE PUSH1 0x4 ADD PUSH2 0xD4F SWAP1 PUSH2 0x223C JUMP JUMPDEST PUSH1 0x40 MLOAD DUP1 SWAP2 SUB SWAP1 REVERT JUMPDEST PUSH1 0x5 PUSH0 DUP5 PUSH20 0xFFFFFFFFFFFFFFFFFFFFFFFFFFFFFFFFFFFFFFFF AND PUSH20 0xFFFFFFFFFFFFFFFFFFFFFFFFFFFFFFFFFFFFFFFF AND DUP2 MSTORE PUSH1 0x20 ADD SWAP1 DUP2 MSTORE PUSH1 0x20 ADD PUSH0 KECCAK256 DUP1 SLOAD SWAP1 POP DUP3 LT PUSH2 0xDDA JUMPI PUSH1 0x40 MLOAD PUSH32 0x8C379A000000000000000000000000000000000000000000000000000000000 DUP2 MSTORE PUSH1 0x4 ADD PUSH2 0xDD1 SWAP1 PUSH2 0x2A42 JUMP JUMPDEST PUSH1 0x40 MLOAD DUP1 SWAP2 SUB SWAP1 REVERT JUMPDEST PUSH1 0x5 PUSH0 DUP5 PUSH20 0xFFFFFFFFFFFFFFFFFFFFFFFFFFFFFFFFFFFFFFFF AND PUSH20 0xFFFFFFFFFFFFFFFFFFFFFFFFFFFFFFFFFFFFFFFF AND DUP2 MSTORE PUSH1 0x20 ADD SWAP1 DUP2 MSTORE PUSH1 0x20 ADD PUSH0 KECCAK256 DUP3 DUP2 SLOAD DUP2 LT PUSH2 0xE29 JUMPI PUSH2 0xE28 PUSH2 0x2A60 JUMP JUMPDEST JUMPDEST SWAP1 PUSH0 MSTORE PUSH1 0x20 PUSH0 KECCAK256 SWAP1 PUSH1 0x4 MUL ADD PUSH1 0x3 ADD PUSH0 SWAP1 SLOAD SWAP1 PUSH2 0x100 EXP SWAP1 DIV PUSH1 0xFF AND ISZERO PUSH2 0xE85 JUMPI PUSH1 0x40 MLOAD PUSH32 0x8C379A000000000000000000000000000000000000000000000000000000000 DUP2 MSTORE PUSH1 0x4 ADD PUSH2 0xE7C SWAP1 PUSH2 0x2AD7 JUMP JUMPDEST PUSH1 0x40 MLOAD DUP1 SWAP2 SUB SWAP1 REVERT JUMPDEST DUP1 PUSH1 0x5 PUSH0 DUP6 PUSH20 0xFFFFFFFFFFFFFFFFFFFFFFFFFFFFFFFFFFFFFFFF AND PUSH20 0xFFFFFFFFFFFFFFFFFFFFFFFFFFFFFFFFFFFFFFFF AND DUP2 MSTORE PUSH1 0x20 ADD SWAP1 DUP2 MSTORE PUSH1 0x20 ADD PUSH0 KECCAK256 DUP4 DUP2 SLOAD DUP2 LT PUSH2 0xED5 JUMPI PUSH2 0xED4 PUSH2 0x2A60 JUMP JUMPDEST JUMPDEST SWAP1 PUSH0 MSTORE PUSH1 0x20 PUSH0 KECCAK256 SWAP1 PUSH1 0x4 MUL ADD PUSH1 0x2 ADD DUP2 SWAP1 SSTORE POP PUSH1 0x1 PUSH1 0x5 PUSH0 DUP6 PUSH20 0xFFFFFFFFFFFFFFFFFFFFFFFFFFFFFFFFFFFFFFFF AND PUSH20 0xFFFFFFFFFFFFFFFFFFFFFFFFFFFFFFFFFFFFFFFF AND DUP2 MSTORE PUSH1 0x20 ADD SWAP1 DUP2 MSTORE PUSH1 0x20 ADD PUSH0 KECCAK256 DUP4 DUP2 SLOAD DUP2 LT PUSH2 0xF39 JUMPI PUSH2 0xF38 PUSH2 0x2A60 JUMP JUMPDEST JUMPDEST SWAP1 PUSH0 MSTORE PUSH1 0x20 PUSH0 KECCAK256 SWAP1 PUSH1 0x4 MUL ADD PUSH1 0x3 ADD PUSH0 PUSH2 0x100 EXP DUP2 SLOAD DUP2 PUSH1 0xFF MUL NOT AND SWAP1 DUP4 ISZERO ISZERO MUL OR SWAP1 SSTORE POP DUP1 PUSH1 0x3 PUSH0 DUP6 PUSH20 0xFFFFFFFFFFFFFFFFFFFFFFFFFFFFFFFFFFFFFFFF AND PUSH20 0xFFFFFFFFFFFFFFFFFFFFFFFFFFFFFFFFFFFFFFFF AND DUP2 MSTORE PUSH1 0x20 ADD SWAP1 DUP2 MSTORE PUSH1 0x20 ADD PUSH0 KECCAK256 PUSH1 0x4 ADD DUP2 SWAP1 SSTORE POP DUP3 PUSH20 0xFFFFFFFFFFFFFFFFFFFFFFFFFFFFFFFFFFFFFFFF AND PUSH32 0x209C5757F1301FD786E1870F9A0A61AEE25AF7D7B1A9C3940A421B72B68CAE26 DUP3 TIMESTAMP PUSH1 0x40 MLOAD PUSH2 0xFEB SWAP3 SWAP2 SWAP1 PUSH2 0x2B04 JUMP JUMPDEST PUSH1 0x40 MLOAD DUP1 SWAP2 SUB SWAP1 LOG2 POP POP POP JUMP JUMPDEST PUSH0 PUSH20 0xFFFFFFFFFFFFFFFFFFFFFFFFFFFFFFFFFFFFFFFF AND PUSH0 DUP1 CALLER PUSH20 0xFFFFFFFFFFFFFFFFFFFFFFFFFFFFFFFFFFFFFFFF AND PUSH20 0xFFFFFFFFFFFFFFFFFFFFFFFFFFFFFFFFFFFFFFFF AND DUP2 MSTORE PUSH1 0x20 ADD SWAP1 DUP2 MSTORE PUSH1 0x20 ADD PUSH0 KECCAK256 PUSH1 0x1 ADD PUSH0 SWAP1 SLOAD SWAP1 PUSH2 0x100 EXP SWAP1 DIV PUSH20 0xFFFFFFFFFFFFFFFFFFFFFFFFFFFFFFFFFFFFFFFF AND PUSH20 0xFFFFFFFFFFFFFFFFFFFFFFFFFFFFFFFFFFFFFFFF AND SUB PUSH2 0x10C4 JUMPI PUSH1 0x40 MLOAD PUSH32 0x8C379A000000000000000000000000000000000000000000000000000000000 DUP2 MSTORE PUSH1 0x4 ADD PUSH2 0x10BB SWAP1 PUSH2 0x223C JUMP JUMPDEST PUSH1 0x40 MLOAD DUP1 SWAP2 SUB SWAP1 REVERT JUMPDEST PUSH0 DUP2 MLOAD GT PUSH2 0x1107 JUMPI PUSH1 0x40 MLOAD PUSH32 0x8C379A000000000000000000000000000000000000000000000000000000000 DUP2 MSTORE PUSH1 0x4 ADD PUSH2 0x10FE SWAP1 PUSH2 0x22A4 JUMP JUMPDEST PUSH1 0x40 MLOAD DUP1 SWAP2 SUB SWAP1 REVERT JUMPDEST DUP1 PUSH1 0x1 PUSH0 DUP5 PUSH20 0xFFFFFFFFFFFFFFFFFFFFFFFFFFFFFFFFFFFFFFFF AND PUSH20 0xFFFFFFFFFFFFFFFFFFFFFFFFFFFFFFFFFFFFFFFF AND DUP2 MSTORE PUSH1 0x20 ADD SWAP1 DUP2 MSTORE PUSH1 0x20 ADD PUSH0 KECCAK256 SWAP1 DUP2 PUSH2 0x1151 SWAP2 SWAP1 PUSH2 0x25A4 JUMP JUMPDEST POP PUSH1 0x2 PUSH0 DUP4 PUSH20 0xFFFFFFFFFFFFFFFFFFFFFFFFFFFFFFFFFFFFFFFF AND PUSH20 0xFFFFFFFFFFFFFFFFFFFFFFFFFFFFFFFFFFFFFFFF AND DUP2 MSTORE PUSH1 0x20 ADD SWAP1 DUP2 MSTORE PUSH1 0x20 ADD PUSH0 KECCAK256 DUP2 SWAP1 DUP1 PUSH1 0x1 DUP2 SLOAD ADD DUP1 DUP3 SSTORE DUP1 SWAP2 POP POP PUSH1 0x1 SWAP1 SUB SWAP1 PUSH0 MSTORE PUSH1 0x20 PUSH0 KECCAK256 ADD PUSH0 SWAP1 SWAP2 SWAP1 SWAP2 SWAP1 SWAP2 POP SWAP1 DUP2 PUSH2 0x11BE SWAP2 SWAP1 PUSH2 0x25A4 JUMP JUMPDEST POP DUP2 PUSH20 0xFFFFFFFFFFFFFFFFFFFFFFFFFFFFFFFFFFFFFFFF AND PUSH32 0x955A8164E26D3082026A4713BBCC2102183CD483CCF49D50CC35FB4E97D540D0 DUP3 PUSH1 0x40 MLOAD PUSH2 0x1205 SWAP2 SWAP1 PUSH2 0x1FA2 JUMP JUMPDEST PUSH1 0x40 MLOAD DUP1 SWAP2 SUB SWAP1 LOG2 POP POP JUMP JUMPDEST PUSH1 0x60 PUSH0 PUSH20 0xFFFFFFFFFFFFFFFFFFFFFFFFFFFFFFFFFFFFFFFF AND PUSH0 DUP1 CALLER PUSH20 0xFFFFFFFFFFFFFFFFFFFFFFFFFFFFFFFFFFFFFFFF AND PUSH20 0xFFFFFFFFFFFFFFFFFFFFFFFFFFFFFFFFFFFFFFFF AND DUP2 MSTORE PUSH1 0x20 ADD SWAP1 DUP2 MSTORE PUSH1 0x20 ADD PUSH0 KECCAK256 PUSH1 0x1 ADD PUSH0 SWAP1 SLOAD SWAP1 PUSH2 0x100 EXP SWAP1 DIV PUSH20 0xFFFFFFFFFFFFFFFFFFFFFFFFFFFFFFFFFFFFFFFF AND PUSH20 0xFFFFFFFFFFFFFFFFFFFFFFFFFFFFFFFFFFFFFFFF AND SUB PUSH2 0x12DF JUMPI PUSH1 0x40 MLOAD PUSH32 0x8C379A000000000000000000000000000000000000000000000000000000000 DUP2 MSTORE PUSH1 0x4 ADD PUSH2 0x12D6 SWAP1 PUSH2 0x2720 JUMP JUMPDEST PUSH1 0x40 MLOAD DUP1 SWAP2 SUB SWAP1 REVERT JUMPDEST PUSH0 DUP1 CALLER PUSH20 0xFFFFFFFFFFFFFFFFFFFFFFFFFFFFFFFFFFFFFFFF AND PUSH20 0xFFFFFFFFFFFFFFFFFFFFFFFFFFFFFFFFFFFFFFFF AND DUP2 MSTORE PUSH1 0x20 ADD SWAP1 DUP2 MSTORE PUSH1 0x20 ADD PUSH0 KECCAK256 PUSH0 ADD DUP1 SLOAD PUSH2 0x1328 SWAP1 PUSH2 0x23D7 JUMP JUMPDEST DUP1 PUSH1 0x1F ADD PUSH1 0x20 DUP1 SWAP2 DIV MUL PUSH1 0x20 ADD PUSH1 0x40 MLOAD SWAP1 DUP2 ADD PUSH1 0x40 MSTORE DUP1 SWAP3 SWAP2 SWAP1 DUP2 DUP2 MSTORE PUSH1 0x20 ADD DUP3 DUP1 SLOAD PUSH2 0x1354 SWAP1 PUSH2 0x23D7 JUMP JUMPDEST DUP1 ISZERO PUSH2 0x139F JUMPI DUP1 PUSH1 0x1F LT PUSH2 0x1376 JUMPI PUSH2 0x100 DUP1 DUP4 SLOAD DIV MUL DUP4 MSTORE SWAP2 PUSH1 0x20 ADD SWAP2 PUSH2 0x139F JUMP JUMPDEST DUP3 ADD SWAP2 SWAP1 PUSH0 MSTORE PUSH1 0x20 PUSH0 KECCAK256 SWAP1 JUMPDEST DUP2 SLOAD DUP2 MSTORE SWAP1 PUSH1 0x1 ADD SWAP1 PUSH1 0x20 ADD DUP1 DUP4 GT PUSH2 0x1382 JUMPI DUP3 SWAP1 SUB PUSH1 0x1F AND DUP3 ADD SWAP2 JUMPDEST POP POP POP POP POP SWAP1 POP SWAP1 JUMP JUMPDEST PUSH0 PUSH20 0xFFFFFFFFFFFFFFFFFFFFFFFFFFFFFFFFFFFFFFFF AND PUSH0 DUP1 CALLER PUSH20 0xFFFFFFFFFFFFFFFFFFFFFFFFFFFFFFFFFFFFFFFF AND PUSH20 0xFFFFFFFFFFFFFFFFFFFFFFFFFFFFFFFFFFFFFFFF AND DUP2 MSTORE PUSH1 0x20 ADD SWAP1 DUP2 MSTORE PUSH1 0x20 ADD PUSH0 KECCAK256 PUSH1 0x1 ADD PUSH0 SWAP1 SLOAD SWAP1 PUSH2 0x100 EXP SWAP1 DIV PUSH20 0xFFFFFFFFFFFFFFFFFFFFFFFFFFFFFFFFFFFFFFFF AND PUSH20 0xFFFFFFFFFFFFFFFFFFFFFFFFFFFFFFFFFFFFFFFF AND SUB PUSH2 0x1475 JUMPI PUSH1 0x40 MLOAD PUSH32 0x8C379A000000000000000000000000000000000000000000000000000000000 DUP2 MSTORE PUSH1 0x4 ADD PUSH2 0x146C SWAP1 PUSH2 0x2720 JUMP JUMPDEST PUSH1 0x40 MLOAD DUP1 SWAP2 SUB SWAP1 REVERT JUMPDEST PUSH0 DUP2 MLOAD GT PUSH2 0x14B8 JUMPI PUSH1 0x40 MLOAD PUSH32 0x8C379A000000000000000000000000000000000000000000000000000000000 DUP2 MSTORE PUSH1 0x4 ADD PUSH2 0x14AF SWAP1 PUSH2 0x2B75 JUMP JUMPDEST PUSH1 0x40 MLOAD DUP1 SWAP2 SUB SWAP1 REVERT JUMPDEST PUSH1 0x5 PUSH0 CALLER PUSH20 0xFFFFFFFFFFFFFFFFFFFFFFFFFFFFFFFFFFFFFFFF AND PUSH20 0xFFFFFFFFFFFFFFFFFFFFFFFFFFFFFFFFFFFFFFFF AND DUP2 MSTORE PUSH1 0x20 ADD SWAP1 DUP2 MSTORE PUSH1 0x20 ADD PUSH0 KECCAK256 PUSH1 0x40 MLOAD DUP1 PUSH1 0x80 ADD PUSH1 0x40 MSTORE DUP1 DUP4 DUP2 MSTORE PUSH1 0x20 ADD TIMESTAMP DUP2 MSTORE PUSH1 0x20 ADD PUSH0 DUP2 MSTORE PUSH1 0x20 ADD PUSH0 ISZERO ISZERO DUP2 MSTORE POP SWAP1 DUP1 PUSH1 0x1 DUP2 SLOAD ADD DUP1 DUP3 SSTORE DUP1 SWAP2 POP POP PUSH1 0x1 SWAP1 SUB SWAP1 PUSH0 MSTORE PUSH1 0x20 PUSH0 KECCAK256 SWAP1 PUSH1 0x4 MUL ADD PUSH0 SWAP1 SWAP2 SWAP1 SWAP2 SWAP1 SWAP2 POP PUSH0 DUP3 ADD MLOAD DUP2 PUSH0 ADD SWAP1 DUP2 PUSH2 0x1551 SWAP2 SWAP1 PUSH2 0x25A4 JUMP JUMPDEST POP PUSH1 0x20 DUP3 ADD MLOAD DUP2 PUSH1 0x1 ADD SSTORE PUSH1 0x40 DUP3 ADD MLOAD DUP2 PUSH1 0x2 ADD SSTORE PUSH1 0x60 DUP3 ADD MLOAD DUP2 PUSH1 0x3 ADD PUSH0 PUSH2 0x100 EXP DUP2 SLOAD DUP2 PUSH1 0xFF MUL NOT AND SWAP1 DUP4 ISZERO ISZERO MUL OR SWAP1 SSTORE POP POP POP PUSH1 0x1 PUSH1 0x3 PUSH0 CALLER PUSH20 0xFFFFFFFFFFFFFFFFFFFFFFFFFFFFFFFFFFFFFFFF AND PUSH20 0xFFFFFFFFFFFFFFFFFFFFFFFFFFFFFFFFFFFFFFFF AND DUP2 MSTORE PUSH1 0x20 ADD SWAP1 DUP2 MSTORE PUSH1 0x20 ADD PUSH0 KECCAK256 PUSH1 0x3 ADD PUSH0 DUP3 DUP3 SLOAD PUSH2 0x15D7 SWAP2 SWAP1 PUSH2 0x2BC0 JUMP JUMPDEST SWAP3 POP POP DUP2 SWAP1 SSTORE POP CALLER PUSH20 0xFFFFFFFFFFFFFFFFFFFFFFFFFFFFFFFFFFFFFFFF AND PUSH32 0x6253DA222CB28E9028C656200E285440D573C04AAD5CE44901C38E3836276EFE DUP3 TIMESTAMP PUSH1 0x40 MLOAD PUSH2 0x1626 SWAP3 SWAP2 SWAP1 PUSH2 0x2BF3 JUMP JUMPDEST PUSH1 0x40 MLOAD DUP1 SWAP2 SUB SWAP1 LOG2 POP JUMP JUMPDEST PUSH1 0x60 PUSH0 PUSH20 0xFFFFFFFFFFFFFFFFFFFFFFFFFFFFFFFFFFFFFFFF AND PUSH0 DUP1 CALLER PUSH20 0xFFFFFFFFFFFFFFFFFFFFFFFFFFFFFFFFFFFFFFFF AND PUSH20 0xFFFFFFFFFFFFFFFFFFFFFFFFFFFFFFFFFFFFFFFF AND DUP2 MSTORE PUSH1 0x20 ADD SWAP1 DUP2 MSTORE PUSH1 0x20 ADD PUSH0 KECCAK256 PUSH1 0x1 ADD PUSH0 SWAP1 SLOAD SWAP1 PUSH2 0x100 EXP SWAP1 DIV PUSH20 0xFFFFFFFFFFFFFFFFFFFFFFFFFFFFFFFFFFFFFFFF AND PUSH20 0xFFFFFFFFFFFFFFFFFFFFFFFFFFFFFFFFFFFFFFFF AND SUB PUSH2 0x16FF JUMPI PUSH1 0x40 MLOAD PUSH32 0x8C379A000000000000000000000000000000000000000000000000000000000 DUP2 MSTORE PUSH1 0x4 ADD PUSH2 0x16F6 SWAP1 PUSH2 0x2720 JUMP JUMPDEST PUSH1 0x40 MLOAD DUP1 SWAP2 SUB SWAP1 REVERT JUMPDEST PUSH1 0x5 PUSH0 CALLER PUSH20 0xFFFFFFFFFFFFFFFFFFFFFFFFFFFFFFFFFFFFFFFF AND PUSH20 0xFFFFFFFFFFFFFFFFFFFFFFFFFFFFFFFFFFFFFFFF AND DUP2 MSTORE PUSH1 0x20 ADD SWAP1 DUP2 MSTORE PUSH1 0x20 ADD PUSH0 KECCAK256 DUP1 SLOAD DUP1 PUSH1 0x20 MUL PUSH1 0x20 ADD PUSH1 0x40 MLOAD SWAP1 DUP2 ADD PUSH1 0x40 MSTORE DUP1 SWAP3 SWAP2 SWAP1 DUP2 DUP2 MSTORE PUSH1 0x20 ADD PUSH0 SWAP1 JUMPDEST DUP3 DUP3 LT ISZERO PUSH2 0x1848 JUMPI DUP4 DUP3 SWAP1 PUSH0 MSTORE PUSH1 0x20 PUSH0 KECCAK256 SWAP1 PUSH1 0x4 MUL ADD PUSH1 0x40 MLOAD DUP1 PUSH1 0x80 ADD PUSH1 0x40 MSTORE SWAP1 DUP2 PUSH0 DUP3 ADD DUP1 SLOAD PUSH2 0x178B SWAP1 PUSH2 0x23D7 JUMP JUMPDEST DUP1 PUSH1 0x1F ADD PUSH1 0x20 DUP1 SWAP2 DIV MUL PUSH1 0x20 ADD PUSH1 0x40 MLOAD SWAP1 DUP2 ADD PUSH1 0x40 MSTORE DUP1 SWAP3 SWAP2 SWAP1 DUP2 DUP2 MSTORE PUSH1 0x20 ADD DUP3 DUP1 SLOAD PUSH2 0x17B7 SWAP1 PUSH2 0x23D7 JUMP JUMPDEST DUP1 ISZERO PUSH2 0x1802 JUMPI DUP1 PUSH1 0x1F LT PUSH2 0x17D9 JUMPI PUSH2 0x100 DUP1 DUP4 SLOAD DIV MUL DUP4 MSTORE SWAP2 PUSH1 0x20 ADD SWAP2 PUSH2 0x1802 JUMP JUMPDEST DUP3 ADD SWAP2 SWAP1 PUSH0 MSTORE PUSH1 0x20 PUSH0 KECCAK256 SWAP1 JUMPDEST DUP2 SLOAD DUP2 MSTORE SWAP1 PUSH1 0x1 ADD SWAP1 PUSH1 0x20 ADD DUP1 DUP4 GT PUSH2 0x17E5 JUMPI DUP3 SWAP1 SUB PUSH1 0x1F AND DUP3 ADD SWAP2 JUMPDEST POP POP POP POP POP DUP2 MSTORE PUSH1 0x20 ADD PUSH1 0x1 DUP3 ADD SLOAD DUP2 MSTORE PUSH1 0x20 ADD PUSH1 0x2 DUP3 ADD SLOAD DUP2 MSTORE PUSH1 0x20 ADD PUSH1 0x3 DUP3 ADD PUSH0 SWAP1 SLOAD SWAP1 PUSH2 0x100 EXP SWAP1 DIV PUSH1 0xFF AND ISZERO ISZERO ISZERO ISZERO DUP2 MSTORE POP POP DUP2 MSTORE PUSH1 0x20 ADD SWAP1 PUSH1 0x1 ADD SWAP1 PUSH2 0x175B JUMP JUMPDEST POP POP POP POP SWAP1 POP SWAP1 JUMP JUMPDEST PUSH1 0x60 PUSH0 PUSH20 0xFFFFFFFFFFFFFFFFFFFFFFFFFFFFFFFFFFFFFFFF AND PUSH0 DUP1 CALLER PUSH20 0xFFFFFFFFFFFFFFFFFFFFFFFFFFFFFFFFFFFFFFFF AND PUSH20 0xFFFFFFFFFFFFFFFFFFFFFFFFFFFFFFFFFFFFFFFF AND DUP2 MSTORE PUSH1 0x20 ADD SWAP1 DUP2 MSTORE PUSH1 0x20 ADD PUSH0 KECCAK256 PUSH1 0x1 ADD PUSH0 SWAP1 SLOAD SWAP1 PUSH2 0x100 EXP SWAP1 DIV PUSH20 0xFFFFFFFFFFFFFFFFFFFFFFFFFFFFFFFFFFFFFFFF AND PUSH20 0xFFFFFFFFFFFFFFFFFFFFFFFFFFFFFFFFFFFFFFFF AND SUB PUSH2 0x191F JUMPI PUSH1 0x40 MLOAD PUSH32 0x8C379A000000000000000000000000000000000000000000000000000000000 DUP2 MSTORE PUSH1 0x4 ADD PUSH2 0x1916 SWAP1 PUSH2 0x2720 JUMP JUMPDEST PUSH1 0x40 MLOAD DUP1 SWAP2 SUB SWAP1 REVERT JUMPDEST PUSH0 PUSH1 0x2 PUSH0 CALLER PUSH20 0xFFFFFFFFFFFFFFFFFFFFFFFFFFFFFFFFFFFFFFFF AND PUSH20 0xFFFFFFFFFFFFFFFFFFFFFFFFFFFFFFFFFFFFFFFF AND DUP2 MSTORE PUSH1 0x20 ADD SWAP1 DUP2 MSTORE PUSH1 0x20 ADD PUSH0 KECCAK256 DUP1 SLOAD SWAP1 POP GT PUSH2 0x19A1 JUMPI PUSH1 0x40 MLOAD PUSH32 0x8C379A000000000000000000000000000000000000000000000000000000000 DUP2 MSTORE PUSH1 0x4 ADD PUSH2 0x1998 SWAP1 PUSH2 0x2C6B JUMP JUMPDEST PUSH1 0x40 MLOAD DUP1 SWAP2 SUB SWAP1 REVERT JUMPDEST PUSH1 0x2 PUSH0 CALLER PUSH20 0xFFFFFFFFFFFFFFFFFFFFFFFFFFFFFFFFFFFFFFFF AND PUSH20 0xFFFFFFFFFFFFFFFFFFFFFFFFFFFFFFFFFFFFFFFF AND DUP2 MSTORE PUSH1 0x20 ADD SWAP1 DUP2 MSTORE PUSH1 0x20 ADD PUSH0 KECCAK256 DUP1 SLOAD DUP1 PUSH1 0x20 MUL PUSH1 0x20 ADD PUSH1 0x40 MLOAD SWAP1 DUP2 ADD PUSH1 0x40 MSTORE DUP1 SWAP3 SWAP2 SWAP1 DUP2 DUP2 MSTORE PUSH1 0x20 ADD PUSH0 SWAP1 JUMPDEST DUP3 DUP3 LT ISZERO PUSH2 0x1AA5 JUMPI DUP4 DUP3 SWAP1 PUSH0 MSTORE PUSH1 0x20 PUSH0 KECCAK256 ADD DUP1 SLOAD PUSH2 0x1A1A SWAP1 PUSH2 0x23D7 JUMP JUMPDEST DUP1 PUSH1 0x1F ADD PUSH1 0x20 DUP1 SWAP2 DIV MUL PUSH1 0x20 ADD PUSH1 0x40 MLOAD SWAP1 DUP2 ADD PUSH1 0x40 MSTORE DUP1 SWAP3 SWAP2 SWAP1 DUP2 DUP2 MSTORE PUSH1 0x20 ADD DUP3 DUP1 SLOAD PUSH2 0x1A46 SWAP1 PUSH2 0x23D7 JUMP JUMPDEST DUP1 ISZERO PUSH2 0x1A91 JUMPI DUP1 PUSH1 0x1F LT PUSH2 0x1A68 JUMPI PUSH2 0x100 DUP1 DUP4 SLOAD DIV MUL DUP4 MSTORE SWAP2 PUSH1 0x20 ADD SWAP2 PUSH2 0x1A91 JUMP JUMPDEST DUP3 ADD SWAP2 SWAP1 PUSH0 MSTORE PUSH1 0x20 PUSH0 KECCAK256 SWAP1 JUMPDEST DUP2 SLOAD DUP2 MSTORE SWAP1 PUSH1 0x1 ADD SWAP1 PUSH1 0x20 ADD DUP1 DUP4 GT PUSH2 0x1A74 JUMPI DUP3 SWAP1 SUB PUSH1 0x1F AND DUP3 ADD SWAP2 JUMPDEST POP POP POP POP POP DUP2 MSTORE PUSH1 0x20 ADD SWAP1 PUSH1 0x1 ADD SWAP1 PUSH2 0x19FD JUMP JUMPDEST POP POP POP POP SWAP1 POP SWAP1 JUMP JUMPDEST PUSH1 0x40 MLOAD DUP1 PUSH1 0xA0 ADD PUSH1 0x40 MSTORE DUP1 PUSH1 0x60 DUP2 MSTORE PUSH1 0x20 ADD PUSH1 0x60 DUP2 MSTORE PUSH1 0x20 ADD PUSH1 0x60 DUP2 MSTORE PUSH1 0x20 ADD PUSH0 DUP2 MSTORE PUSH1 0x20 ADD PUSH0 DUP2 MSTORE POP SWAP1 JUMP JUMPDEST PUSH0 PUSH1 0x40 MLOAD SWAP1 POP SWAP1 JUMP JUMPDEST PUSH0 DUP1 REVERT JUMPDEST PUSH0 DUP1 REVERT JUMPDEST PUSH0 PUSH20 0xFFFFFFFFFFFFFFFFFFFFFFFFFFFFFFFFFFFFFFFF DUP3 AND SWAP1 POP SWAP2 SWAP1 POP JUMP JUMPDEST PUSH0 PUSH2 0x1B15 DUP3 PUSH2 0x1AEC JUMP JUMPDEST SWAP1 POP SWAP2 SWAP1 POP JUMP JUMPDEST PUSH2 0x1B25 DUP2 PUSH2 0x1B0B JUMP JUMPDEST DUP2 EQ PUSH2 0x1B2F JUMPI PUSH0 DUP1 REVERT JUMPDEST POP JUMP JUMPDEST PUSH0 DUP2 CALLDATALOAD SWAP1 POP PUSH2 0x1B40 DUP2 PUSH2 0x1B1C JUMP JUMPDEST SWAP3 SWAP2 POP POP JUMP JUMPDEST PUSH0 DUP1 REVERT JUMPDEST PUSH0 DUP1 REVERT JUMPDEST PUSH0 PUSH1 0x1F NOT PUSH1 0x1F DUP4 ADD AND SWAP1 POP SWAP2 SWAP1 POP JUMP JUMPDEST PUSH32 0x4E487B7100000000000000000000000000000000000000000000000000000000 PUSH0 MSTORE PUSH1 0x41 PUSH1 0x4 MSTORE PUSH1 0x24 PUSH0 REVERT JUMPDEST PUSH2 0x1B94 DUP3 PUSH2 0x1B4E JUMP JUMPDEST DUP2 ADD DUP2 DUP2 LT PUSH8 0xFFFFFFFFFFFFFFFF DUP3 GT OR ISZERO PUSH2 0x1BB3 JUMPI PUSH2 0x1BB2 PUSH2 0x1B5E JUMP JUMPDEST JUMPDEST DUP1 PUSH1 0x40 MSTORE POP POP POP JUMP JUMPDEST PUSH0 PUSH2 0x1BC5 PUSH2 0x1ADB JUMP JUMPDEST SWAP1 POP PUSH2 0x1BD1 DUP3 DUP3 PUSH2 0x1B8B JUMP JUMPDEST SWAP2 SWAP1 POP JUMP JUMPDEST PUSH0 PUSH8 0xFFFFFFFFFFFFFFFF DUP3 GT ISZERO PUSH2 0x1BF0 JUMPI PUSH2 0x1BEF PUSH2 0x1B5E JUMP JUMPDEST JUMPDEST PUSH2 0x1BF9 DUP3 PUSH2 0x1B4E JUMP JUMPDEST SWAP1 POP PUSH1 0x20 DUP2 ADD SWAP1 POP SWAP2 SWAP1 POP JUMP JUMPDEST DUP3 DUP2 DUP4 CALLDATACOPY PUSH0 DUP4 DUP4 ADD MSTORE POP POP POP JUMP JUMPDEST PUSH0 PUSH2 0x1C26 PUSH2 0x1C21 DUP5 PUSH2 0x1BD6 JUMP JUMPDEST PUSH2 0x1BBC JUMP JUMPDEST SWAP1 POP DUP3 DUP2 MSTORE PUSH1 0x20 DUP2 ADD DUP5 DUP5 DUP5 ADD GT ISZERO PUSH2 0x1C42 JUMPI PUSH2 0x1C41 PUSH2 0x1B4A JUMP JUMPDEST JUMPDEST PUSH2 0x1C4D DUP5 DUP3 DUP6 PUSH2 0x1C06 JUMP JUMPDEST POP SWAP4 SWAP3 POP POP POP JUMP JUMPDEST PUSH0 DUP3 PUSH1 0x1F DUP4 ADD SLT PUSH2 0x1C69 JUMPI PUSH2 0x1C68 PUSH2 0x1B46 JUMP JUMPDEST JUMPDEST DUP2 CALLDATALOAD PUSH2 0x1C79 DUP5 DUP3 PUSH1 0x20 DUP7 ADD PUSH2 0x1C14 JUMP JUMPDEST SWAP2 POP POP SWAP3 SWAP2 POP POP JUMP JUMPDEST PUSH0 DUP1 PUSH1 0x40 DUP4 DUP6 SUB SLT ISZERO PUSH2 0x1C98 JUMPI PUSH2 0x1C97 PUSH2 0x1AE4 JUMP JUMPDEST JUMPDEST PUSH0 PUSH2 0x1CA5 DUP6 DUP3 DUP7 ADD PUSH2 0x1B32 JUMP JUMPDEST SWAP3 POP POP PUSH1 0x20 DUP4 ADD CALLDATALOAD PUSH8 0xFFFFFFFFFFFFFFFF DUP2 GT ISZERO PUSH2 0x1CC6 JUMPI PUSH2 0x1CC5 PUSH2 0x1AE8 JUMP JUMPDEST JUMPDEST PUSH2 0x1CD2 DUP6 DUP3 DUP7 ADD PUSH2 0x1C55 JUMP JUMPDEST SWAP2 POP POP SWAP3 POP SWAP3 SWAP1 POP JUMP JUMPDEST PUSH0 DUP1 PUSH0 PUSH1 0x60 DUP5 DUP7 SUB SLT ISZERO PUSH2 0x1CF3 JUMPI PUSH2 0x1CF2 PUSH2 0x1AE4 JUMP JUMPDEST JUMPDEST PUSH0 DUP5 ADD CALLDATALOAD PUSH8 0xFFFFFFFFFFFFFFFF DUP2 GT ISZERO PUSH2 0x1D10 JUMPI PUSH2 0x1D0F PUSH2 0x1AE8 JUMP JUMPDEST JUMPDEST PUSH2 0x1D1C DUP7 DUP3 DUP8 ADD PUSH2 0x1C55 JUMP JUMPDEST SWAP4 POP POP PUSH1 0x20 DUP5 ADD CALLDATALOAD PUSH8 0xFFFFFFFFFFFFFFFF DUP2 GT ISZERO PUSH2 0x1D3D JUMPI PUSH2 0x1D3C PUSH2 0x1AE8 JUMP JUMPDEST JUMPDEST PUSH2 0x1D49 DUP7 DUP3 DUP8 ADD PUSH2 0x1C55 JUMP JUMPDEST SWAP3 POP POP PUSH1 0x40 DUP5 ADD CALLDATALOAD PUSH8 0xFFFFFFFFFFFFFFFF DUP2 GT ISZERO PUSH2 0x1D6A JUMPI PUSH2 0x1D69 PUSH2 0x1AE8 JUMP JUMPDEST JUMPDEST PUSH2 0x1D76 DUP7 DUP3 DUP8 ADD PUSH2 0x1C55 JUMP JUMPDEST SWAP2 POP POP SWAP3 POP SWAP3 POP SWAP3 JUMP JUMPDEST PUSH0 PUSH1 0x20 DUP3 DUP5 SUB SLT ISZERO PUSH2 0x1D95 JUMPI PUSH2 0x1D94 PUSH2 0x1AE4 JUMP JUMPDEST JUMPDEST PUSH0 DUP3 ADD CALLDATALOAD PUSH8 0xFFFFFFFFFFFFFFFF DUP2 GT ISZERO PUSH2 0x1DB2 JUMPI PUSH2 0x1DB1 PUSH2 0x1AE8 JUMP JUMPDEST JUMPDEST PUSH2 0x1DBE DUP5 DUP3 DUP6 ADD PUSH2 0x1C55 JUMP JUMPDEST SWAP2 POP POP SWAP3 SWAP2 POP POP JUMP JUMPDEST PUSH0 DUP2 MLOAD SWAP1 POP SWAP2 SWAP1 POP JUMP JUMPDEST PUSH0 DUP3 DUP3 MSTORE PUSH1 0x20 DUP3 ADD SWAP1 POP SWAP3 SWAP2 POP POP JUMP JUMPDEST DUP3 DUP2 DUP4 MCOPY PUSH0 DUP4 DUP4 ADD MSTORE POP POP POP JUMP JUMPDEST PUSH0 PUSH2 0x1DF9 DUP3 PUSH2 0x1DC7 JUMP JUMPDEST PUSH2 0x1E03 DUP2 DUP6 PUSH2 0x1DD1 JUMP JUMPDEST SWAP4 POP PUSH2 0x1E13 DUP2 DUP6 PUSH1 0x20 DUP7 ADD PUSH2 0x1DE1 JUMP JUMPDEST PUSH2 0x1E1C DUP2 PUSH2 0x1B4E JUMP JUMPDEST DUP5 ADD SWAP2 POP POP SWAP3 SWAP2 POP POP JUMP JUMPDEST PUSH0 DUP2 SWAP1 POP SWAP2 SWAP1 POP JUMP JUMPDEST PUSH2 0x1E39 DUP2 PUSH2 0x1E27 JUMP JUMPDEST DUP3 MSTORE POP POP JUMP JUMPDEST PUSH0 PUSH1 0xA0 DUP4 ADD PUSH0 DUP4 ADD MLOAD DUP5 DUP3 SUB PUSH0 DUP7 ADD MSTORE PUSH2 0x1E59 DUP3 DUP3 PUSH2 0x1DEF JUMP JUMPDEST SWAP2 POP POP PUSH1 0x20 DUP4 ADD MLOAD DUP5 DUP3 SUB PUSH1 0x20 DUP7 ADD MSTORE PUSH2 0x1E73 DUP3 DUP3 PUSH2 0x1DEF JUMP JUMPDEST SWAP2 POP POP PUSH1 0x40 DUP4 ADD MLOAD DUP5 DUP3 SUB PUSH1 0x40 DUP7 ADD MSTORE PUSH2 0x1E8D DUP3 DUP3 PUSH2 0x1DEF JUMP JUMPDEST SWAP2 POP POP PUSH1 0x60 DUP4 ADD MLOAD PUSH2 0x1EA2 PUSH1 0x60 DUP7 ADD DUP3 PUSH2 0x1E30 JUMP JUMPDEST POP PUSH1 0x80 DUP4 ADD MLOAD PUSH2 0x1EB5 PUSH1 0x80 DUP7 ADD DUP3 PUSH2 0x1E30 JUMP JUMPDEST POP DUP1 SWAP2 POP POP SWAP3 SWAP2 POP POP JUMP JUMPDEST PUSH0 PUSH1 0x20 DUP3 ADD SWAP1 POP DUP2 DUP2 SUB PUSH0 DUP4 ADD MSTORE PUSH2 0x1ED8 DUP2 DUP5 PUSH2 0x1E3F JUMP JUMPDEST SWAP1 POP SWAP3 SWAP2 POP POP JUMP JUMPDEST PUSH2 0x1EE9 DUP2 PUSH2 0x1E27 JUMP JUMPDEST DUP2 EQ PUSH2 0x1EF3 JUMPI PUSH0 DUP1 REVERT JUMPDEST POP JUMP JUMPDEST PUSH0 DUP2 CALLDATALOAD SWAP1 POP PUSH2 0x1F04 DUP2 PUSH2 0x1EE0 JUMP JUMPDEST SWAP3 SWAP2 POP POP JUMP JUMPDEST PUSH0 DUP1 PUSH0 PUSH1 0x60 DUP5 DUP7 SUB SLT ISZERO PUSH2 0x1F21 JUMPI PUSH2 0x1F20 PUSH2 0x1AE4 JUMP JUMPDEST JUMPDEST PUSH0 PUSH2 0x1F2E DUP7 DUP3 DUP8 ADD PUSH2 0x1B32 JUMP JUMPDEST SWAP4 POP POP PUSH1 0x20 PUSH2 0x1F3F DUP7 DUP3 DUP8 ADD PUSH2 0x1EF6 JUMP JUMPDEST SWAP3 POP POP PUSH1 0x40 PUSH2 0x1F50 DUP7 DUP3 DUP8 ADD PUSH2 0x1EF6 JUMP JUMPDEST SWAP2 POP POP SWAP3 POP SWAP3 POP SWAP3 JUMP JUMPDEST PUSH0 DUP3 DUP3 MSTORE PUSH1 0x20 DUP3 ADD SWAP1 POP SWAP3 SWAP2 POP POP JUMP JUMPDEST PUSH0 PUSH2 0x1F74 DUP3 PUSH2 0x1DC7 JUMP JUMPDEST PUSH2 0x1F7E DUP2 DUP6 PUSH2 0x1F5A JUMP JUMPDEST SWAP4 POP PUSH2 0x1F8E DUP2 DUP6 PUSH1 0x20 DUP7 ADD PUSH2 0x1DE1 JUMP JUMPDEST PUSH2 0x1F97 DUP2 PUSH2 0x1B4E JUMP JUMPDEST DUP5 ADD SWAP2 POP POP SWAP3 SWAP2 POP POP JUMP JUMPDEST PUSH0 PUSH1 0x20 DUP3 ADD SWAP1 POP DUP2 DUP2 SUB PUSH0 DUP4 ADD MSTORE PUSH2 0x1FBA DUP2 DUP5 PUSH2 0x1F6A JUMP JUMPDEST SWAP1 POP SWAP3 SWAP2 POP POP JUMP JUMPDEST PUSH0 DUP2 MLOAD SWAP1 POP SWAP2 SWAP1 POP JUMP JUMPDEST PUSH0 DUP3 DUP3 MSTORE PUSH1 0x20 DUP3 ADD SWAP1 POP SWAP3 SWAP2 POP POP JUMP JUMPDEST PUSH0 DUP2 SWAP1 POP PUSH1 0x20 DUP3 ADD SWAP1 POP SWAP2 SWAP1 POP JUMP JUMPDEST PUSH0 DUP2 ISZERO ISZERO SWAP1 POP SWAP2 SWAP1 POP JUMP JUMPDEST PUSH2 0x1FFF DUP2 PUSH2 0x1FEB JUMP JUMPDEST DUP3 MSTORE POP POP JUMP JUMPDEST PUSH0 PUSH1 0x80 DUP4 ADD PUSH0 DUP4 ADD MLOAD DUP5 DUP3 SUB PUSH0 DUP7 ADD MSTORE PUSH2 0x201F DUP3 DUP3 PUSH2 0x1DEF JUMP JUMPDEST SWAP2 POP POP PUSH1 0x20 DUP4 ADD MLOAD PUSH2 0x2034 PUSH1 0x20 DUP7 ADD DUP3 PUSH2 0x1E30 JUMP JUMPDEST POP PUSH1 0x40 DUP4 ADD MLOAD PUSH2 0x2047 PUSH1 0x40 DUP7 ADD DUP3 PUSH2 0x1E30 JUMP JUMPDEST POP PUSH1 0x60 DUP4 ADD MLOAD PUSH2 0x205A PUSH1 0x60 DUP7 ADD DUP3 PUSH2 0x1FF6 JUMP JUMPDEST POP DUP1 SWAP2 POP POP SWAP3 SWAP2 POP POP JUMP JUMPDEST PUSH0 PUSH2 0x2070 DUP4 DUP4 PUSH2 0x2005 JUMP JUMPDEST SWAP1 POP SWAP3 SWAP2 POP POP JUMP JUMPDEST PUSH0 PUSH1 0x20 DUP3 ADD SWAP1 POP SWAP2 SWAP1 POP JUMP JUMPDEST PUSH0 PUSH2 0x208E DUP3 PUSH2 0x1FC2 JUMP JUMPDEST PUSH2 0x2098 DUP2 DUP6 PUSH2 0x1FCC JUMP JUMPDEST SWAP4 POP DUP4 PUSH1 0x20 DUP3 MUL DUP6 ADD PUSH2 0x20AA DUP6 PUSH2 0x1FDC JUMP JUMPDEST DUP1 PUSH0 JUMPDEST DUP6 DUP2 LT ISZERO PUSH2 0x20E5 JUMPI DUP5 DUP5 SUB DUP10 MSTORE DUP2 MLOAD PUSH2 0x20C6 DUP6 DUP3 PUSH2 0x2065 JUMP JUMPDEST SWAP5 POP PUSH2 0x20D1 DUP4 PUSH2 0x2078 JUMP JUMPDEST SWAP3 POP PUSH1 0x20 DUP11 ADD SWAP10 POP POP PUSH1 0x1 DUP2 ADD SWAP1 POP PUSH2 0x20AD JUMP JUMPDEST POP DUP3 SWAP8 POP DUP8 SWAP6 POP POP POP POP POP POP SWAP3 SWAP2 POP POP JUMP JUMPDEST PUSH0 PUSH1 0x20 DUP3 ADD SWAP1 POP DUP2 DUP2 SUB PUSH0 DUP4 ADD MSTORE PUSH2 0x210F DUP2 DUP5 PUSH2 0x2084 JUMP JUMPDEST SWAP1 POP SWAP3 SWAP2 POP POP JUMP JUMPDEST PUSH0 DUP2 MLOAD SWAP1 POP SWAP2 SWAP1 POP JUMP JUMPDEST PUSH0 DUP3 DUP3 MSTORE PUSH1 0x20 DUP3 ADD SWAP1 POP SWAP3 SWAP2 POP POP JUMP JUMPDEST PUSH0 DUP2 SWAP1 POP PUSH1 0x20 DUP3 ADD SWAP1 POP SWAP2 SWAP1 POP JUMP JUMPDEST PUSH0 PUSH2 0x214B DUP4 DUP4 PUSH2 0x1DEF JUMP JUMPDEST SWAP1 POP SWAP3 SWAP2 POP POP JUMP JUMPDEST PUSH0 PUSH1 0x20 DUP3 ADD SWAP1 POP SWAP2 SWAP1 POP JUMP JUMPDEST PUSH0 PUSH2 0x2169 DUP3 PUSH2 0x2117 JUMP JUMPDEST PUSH2 0x2173 DUP2 DUP6 PUSH2 0x2121 JUMP JUMPDEST SWAP4 POP DUP4 PUSH1 0x20 DUP3 MUL DUP6 ADD PUSH2 0x2185 DUP6 PUSH2 0x2131 JUMP JUMPDEST DUP1 PUSH0 JUMPDEST DUP6 DUP2 LT ISZERO PUSH2 0x21C0 JUMPI DUP5 DUP5 SUB DUP10 MSTORE DUP2 MLOAD PUSH2 0x21A1 DUP6 DUP3 PUSH2 0x2140 JUMP JUMPDEST SWAP5 POP PUSH2 0x21AC DUP4 PUSH2 0x2153 JUMP JUMPDEST SWAP3 POP PUSH1 0x20 DUP11 ADD SWAP10 POP POP PUSH1 0x1 DUP2 ADD SWAP1 POP PUSH2 0x2188 JUMP JUMPDEST POP DUP3 SWAP8 POP DUP8 SWAP6 POP POP POP POP POP POP SWAP3 SWAP2 POP POP JUMP JUMPDEST PUSH0 PUSH1 0x20 DUP3 ADD SWAP1 POP DUP2 DUP2 SUB PUSH0 DUP4 ADD MSTORE PUSH2 0x21EA DUP2 DUP5 PUSH2 0x215F JUMP JUMPDEST SWAP1 POP SWAP3 SWAP2 POP POP JUMP JUMPDEST PUSH32 0x497373756572206D757374206861766520612044494400000000000000000000 PUSH0 DUP3 ADD MSTORE POP JUMP JUMPDEST PUSH0 PUSH2 0x2226 PUSH1 0x16 DUP4 PUSH2 0x1F5A JUMP JUMPDEST SWAP2 POP PUSH2 0x2231 DUP3 PUSH2 0x21F2 JUMP JUMPDEST PUSH1 0x20 DUP3 ADD SWAP1 POP SWAP2 SWAP1 POP JUMP JUMPDEST PUSH0 PUSH1 0x20 DUP3 ADD SWAP1 POP DUP2 DUP2 SUB PUSH0 DUP4 ADD MSTORE PUSH2 0x2253 DUP2 PUSH2 0x221A JUMP JUMPDEST SWAP1 POP SWAP2 SWAP1 POP JUMP JUMPDEST PUSH32 0x526F6C652063616E6E6F7420626520656D707479000000000000000000000000 PUSH0 DUP3 ADD MSTORE POP JUMP JUMPDEST PUSH0 PUSH2 0x228E PUSH1 0x14 DUP4 PUSH2 0x1F5A JUMP JUMPDEST SWAP2 POP PUSH2 0x2299 DUP3 PUSH2 0x225A JUMP JUMPDEST PUSH1 0x20 DUP3 ADD SWAP1 POP SWAP2 SWAP1 POP JUMP JUMPDEST PUSH0 PUSH1 0x20 DUP3 ADD SWAP1 POP DUP2 DUP2 SUB PUSH0 DUP4 ADD MSTORE PUSH2 0x22BB DUP2 PUSH2 0x2282 JUMP JUMPDEST SWAP1 POP SWAP2 SWAP1 POP JUMP JUMPDEST PUSH0 DUP2 PUSH1 0x60 SHL SWAP1 POP SWAP2 SWAP1 POP JUMP JUMPDEST PUSH0 PUSH2 0x22D8 DUP3 PUSH2 0x22C2 JUMP JUMPDEST SWAP1 POP SWAP2 SWAP1 POP JUMP JUMPDEST PUSH0 PUSH2 0x22E9 DUP3 PUSH2 0x22CE JUMP JUMPDEST SWAP1 POP SWAP2 SWAP1 POP JUMP JUMPDEST PUSH2 0x2301 PUSH2 0x22FC DUP3 PUSH2 0x1B0B JUMP JUMPDEST PUSH2 0x22DF JUMP JUMPDEST DUP3 MSTORE POP POP JUMP JUMPDEST PUSH0 DUP2 SWAP1 POP SWAP3 SWAP2 POP POP JUMP JUMPDEST PUSH0 PUSH2 0x231B DUP3 PUSH2 0x1DC7 JUMP JUMPDEST PUSH2 0x2325 DUP2 DUP6 PUSH2 0x2307 JUMP JUMPDEST SWAP4 POP PUSH2 0x2335 DUP2 DUP6 PUSH1 0x20 DUP7 ADD PUSH2 0x1DE1 JUMP JUMPDEST DUP1 DUP5 ADD SWAP2 POP POP SWAP3 SWAP2 POP POP JUMP JUMPDEST PUSH0 DUP2 SWAP1 POP SWAP2 SWAP1 POP JUMP JUMPDEST PUSH2 0x235B PUSH2 0x2356 DUP3 PUSH2 0x1E27 JUMP JUMPDEST PUSH2 0x2341 JUMP JUMPDEST DUP3 MSTORE POP POP JUMP JUMPDEST PUSH0 PUSH2 0x236C DUP3 DUP8 PUSH2 0x22F0 JUMP JUMPDEST PUSH1 0x14 DUP3 ADD SWAP2 POP PUSH2 0x237C DUP3 DUP7 PUSH2 0x22F0 JUMP JUMPDEST PUSH1 0x14 DUP3 ADD SWAP2 POP PUSH2 0x238C DUP3 DUP6 PUSH2 0x2311 JUMP JUMPDEST SWAP2 POP PUSH2 0x2398 DUP3 DUP5 PUSH2 0x234A JUMP JUMPDEST PUSH1 0x20 DUP3 ADD SWAP2 POP DUP2 SWAP1 POP SWAP6 SWAP5 POP POP POP POP POP JUMP JUMPDEST PUSH32 0x4E487B7100000000000000000000000000000000000000000000000000000000 PUSH0 MSTORE PUSH1 0x22 PUSH1 0x4 MSTORE PUSH1 0x24 PUSH0 REVERT JUMPDEST PUSH0 PUSH1 0x2 DUP3 DIV SWAP1 POP PUSH1 0x1 DUP3 AND DUP1 PUSH2 0x23EE JUMPI PUSH1 0x7F DUP3 AND SWAP2 POP JUMPDEST PUSH1 0x20 DUP3 LT DUP2 SUB PUSH2 0x2401 JUMPI PUSH2 0x2400 PUSH2 0x23AA JUMP JUMPDEST JUMPDEST POP SWAP2 SWAP1 POP JUMP JUMPDEST PUSH0 DUP2 SWAP1 POP DUP2 PUSH0 MSTORE PUSH1 0x20 PUSH0 KECCAK256 SWAP1 POP SWAP2 SWAP1 POP JUMP JUMPDEST PUSH0 PUSH1 0x20 PUSH1 0x1F DUP4 ADD DIV SWAP1 POP SWAP2 SWAP1 POP JUMP JUMPDEST PUSH0 DUP3 DUP3 SHL SWAP1 POP SWAP3 SWAP2 POP POP JUMP JUMPDEST PUSH0 PUSH1 0x8 DUP4 MUL PUSH2 0x2463 PUSH32 0xFFFFFFFFFFFFFFFFFFFFFFFFFFFFFFFFFFFFFFFFFFFFFFFFFFFFFFFFFFFFFFFF DUP3 PUSH2 0x2428 JUMP JUMPDEST PUSH2 0x246D DUP7 DUP4 PUSH2 0x2428 JUMP JUMPDEST SWAP6 POP DUP1 NOT DUP5 AND SWAP4 POP DUP1 DUP7 AND DUP5 OR SWAP3 POP POP POP SWAP4 SWAP3 POP POP POP JUMP JUMPDEST PUSH0 DUP2 SWAP1 POP SWAP2 SWAP1 POP JUMP JUMPDEST PUSH0 PUSH2 0x24A8 PUSH2 0x24A3 PUSH2 0x249E DUP5 PUSH2 0x1E27 JUMP JUMPDEST PUSH2 0x2485 JUMP JUMPDEST PUSH2 0x1E27 JUMP JUMPDEST SWAP1 POP SWAP2 SWAP1 POP JUMP JUMPDEST PUSH0 DUP2 SWAP1 POP SWAP2 SWAP1 POP JUMP JUMPDEST PUSH2 0x24C1 DUP4 PUSH2 0x248E JUMP JUMPDEST PUSH2 0x24D5 PUSH2 0x24CD DUP3 PUSH2 0x24AF JUMP JUMPDEST DUP5 DUP5 SLOAD PUSH2 0x2434 JUMP JUMPDEST DUP3 SSTORE POP POP POP POP JUMP JUMPDEST PUSH0 SWAP1 JUMP JUMPDEST PUSH2 0x24E9 PUSH2 0x24DD JUMP JUMPDEST PUSH2 0x24F4 DUP2 DUP5 DUP5 PUSH2 0x24B8 JUMP JUMPDEST POP POP POP JUMP JUMPDEST JUMPDEST DUP2 DUP2 LT ISZERO PUSH2 0x2517 JUMPI PUSH2 0x250C PUSH0 DUP3 PUSH2 0x24E1 JUMP JUMPDEST PUSH1 0x1 DUP2 ADD SWAP1 POP PUSH2 0x24FA JUMP JUMPDEST POP POP JUMP JUMPDEST PUSH1 0x1F DUP3 GT ISZERO PUSH2 0x255C JUMPI PUSH2 0x252D DUP2 PUSH2 0x2407 JUMP JUMPDEST PUSH2 0x2536 DUP5 PUSH2 0x2419 JUMP JUMPDEST DUP2 ADD PUSH1 0x20 DUP6 LT ISZERO PUSH2 0x2545 JUMPI DUP2 SWAP1 POP JUMPDEST PUSH2 0x2559 PUSH2 0x2551 DUP6 PUSH2 0x2419 JUMP JUMPDEST DUP4 ADD DUP3 PUSH2 0x24F9 JUMP JUMPDEST POP POP JUMPDEST POP POP POP JUMP JUMPDEST PUSH0 DUP3 DUP3 SHR SWAP1 POP SWAP3 SWAP2 POP POP JUMP JUMPDEST PUSH0 PUSH2 0x257C PUSH0 NOT DUP5 PUSH1 0x8 MUL PUSH2 0x2561 JUMP JUMPDEST NOT DUP1 DUP4 AND SWAP2 POP POP SWAP3 SWAP2 POP POP JUMP JUMPDEST PUSH0 PUSH2 0x2594 DUP4 DUP4 PUSH2 0x256D JUMP JUMPDEST SWAP2 POP DUP3 PUSH1 0x2 MUL DUP3 OR SWAP1 POP SWAP3 SWAP2 POP POP JUMP JUMPDEST PUSH2 0x25AD DUP3 PUSH2 0x1DC7 JUMP JUMPDEST PUSH8 0xFFFFFFFFFFFFFFFF DUP2 GT ISZERO PUSH2 0x25C6 JUMPI PUSH2 0x25C5 PUSH2 0x1B5E JUMP JUMPDEST JUMPDEST PUSH2 0x25D0 DUP3 SLOAD PUSH2 0x23D7 JUMP JUMPDEST PUSH2 0x25DB DUP3 DUP3 DUP6 PUSH2 0x251B JUMP JUMPDEST PUSH0 PUSH1 0x20 SWAP1 POP PUSH1 0x1F DUP4 GT PUSH1 0x1 DUP2 EQ PUSH2 0x260C JUMPI PUSH0 DUP5 ISZERO PUSH2 0x25FA JUMPI DUP3 DUP8 ADD MLOAD SWAP1 POP JUMPDEST PUSH2 0x2604 DUP6 DUP3 PUSH2 0x2589 JUMP JUMPDEST DUP7 SSTORE POP PUSH2 0x266B JUMP JUMPDEST PUSH1 0x1F NOT DUP5 AND PUSH2 0x261A DUP7 PUSH2 0x2407 JUMP JUMPDEST PUSH0 JUMPDEST DUP3 DUP2 LT ISZERO PUSH2 0x2641 JUMPI DUP5 DUP10 ADD MLOAD DUP3 SSTORE PUSH1 0x1 DUP3 ADD SWAP2 POP PUSH1 0x20 DUP6 ADD SWAP5 POP PUSH1 0x20 DUP2 ADD SWAP1 POP PUSH2 0x261C JUMP JUMPDEST DUP7 DUP4 LT ISZERO PUSH2 0x265E JUMPI DUP5 DUP10 ADD MLOAD PUSH2 0x265A PUSH1 0x1F DUP10 AND DUP3 PUSH2 0x256D JUMP JUMPDEST DUP4 SSTORE POP JUMPDEST PUSH1 0x1 PUSH1 0x2 DUP9 MUL ADD DUP9 SSTORE POP POP POP JUMPDEST POP POP POP POP POP POP JUMP JUMPDEST PUSH2 0x267C DUP2 PUSH2 0x1B0B JUMP JUMPDEST DUP3 MSTORE POP POP JUMP JUMPDEST PUSH0 DUP2 SWAP1 POP SWAP2 SWAP1 POP JUMP JUMPDEST PUSH2 0x2694 DUP2 PUSH2 0x2682 JUMP JUMPDEST DUP3 MSTORE POP POP JUMP JUMPDEST PUSH0 PUSH1 0x60 DUP3 ADD SWAP1 POP PUSH2 0x26AD PUSH0 DUP4 ADD DUP7 PUSH2 0x2673 JUMP JUMPDEST DUP2 DUP2 SUB PUSH1 0x20 DUP4 ADD MSTORE PUSH2 0x26BF DUP2 DUP6 PUSH2 0x1F6A JUMP JUMPDEST SWAP1 POP PUSH2 0x26CE PUSH1 0x40 DUP4 ADD DUP5 PUSH2 0x268B JUMP JUMPDEST SWAP5 SWAP4 POP POP POP POP JUMP JUMPDEST PUSH32 0x4E6F2044494420666F756E6420666F7220746869732061646472657373000000 PUSH0 DUP3 ADD MSTORE POP JUMP JUMPDEST PUSH0 PUSH2 0x270A PUSH1 0x1D DUP4 PUSH2 0x1F5A JUMP JUMPDEST SWAP2 POP PUSH2 0x2715 DUP3 PUSH2 0x26D6 JUMP JUMPDEST PUSH1 0x20 DUP3 ADD SWAP1 POP SWAP2 SWAP1 POP JUMP JUMPDEST PUSH0 PUSH1 0x20 DUP3 ADD SWAP1 POP DUP2 DUP2 SUB PUSH0 DUP4 ADD MSTORE PUSH2 0x2737 DUP2 PUSH2 0x26FE JUMP JUMPDEST SWAP1 POP SWAP2 SWAP1 POP JUMP JUMPDEST PUSH32 0x4E616D652063616E6E6F7420626520656D707479000000000000000000000000 PUSH0 DUP3 ADD MSTORE POP JUMP JUMPDEST PUSH0 PUSH2 0x2772 PUSH1 0x14 DUP4 PUSH2 0x1F5A JUMP JUMPDEST SWAP2 POP PUSH2 0x277D DUP3 PUSH2 0x273E JUMP JUMPDEST PUSH1 0x20 DUP3 ADD SWAP1 POP SWAP2 SWAP1 POP JUMP JUMPDEST PUSH0 PUSH1 0x20 DUP3 ADD SWAP1 POP DUP2 DUP2 SUB PUSH0 DUP4 ADD MSTORE PUSH2 0x279F DUP2 PUSH2 0x2766 JUMP JUMPDEST SWAP1 POP SWAP2 SWAP1 POP JUMP JUMPDEST PUSH32 0x456D61696C2063616E6E6F7420626520656D7074790000000000000000000000 PUSH0 DUP3 ADD MSTORE POP JUMP JUMPDEST PUSH0 PUSH2 0x27DA PUSH1 0x15 DUP4 PUSH2 0x1F5A JUMP JUMPDEST SWAP2 POP PUSH2 0x27E5 DUP3 PUSH2 0x27A6 JUMP JUMPDEST PUSH1 0x20 DUP3 ADD SWAP1 POP SWAP2 SWAP1 POP JUMP JUMPDEST PUSH0 PUSH1 0x20 DUP3 ADD SWAP1 POP DUP2 DUP2 SUB PUSH0 DUP4 ADD MSTORE PUSH2 0x2807 DUP2 PUSH2 0x27CE JUMP JUMPDEST SWAP1 POP SWAP2 SWAP1 POP JUMP JUMPDEST PUSH32 0x50726F66696C6520706963747572652063616E6E6F7420626520656D70747900 PUSH0 DUP3 ADD MSTORE POP JUMP JUMPDEST PUSH0 PUSH2 0x2842 PUSH1 0x1F DUP4 PUSH2 0x1F5A JUMP JUMPDEST SWAP2 POP PUSH2 0x284D DUP3 PUSH2 0x280E JUMP JUMPDEST PUSH1 0x20 DUP3 ADD SWAP1 POP SWAP2 SWAP1 POP JUMP JUMPDEST PUSH0 PUSH1 0x20 DUP3 ADD SWAP1 POP DUP2 DUP2 SUB PUSH0 DUP4 ADD MSTORE PUSH2 0x286F DUP2 PUSH2 0x2836 JUMP JUMPDEST SWAP1 POP SWAP2 SWAP1 POP JUMP JUMPDEST PUSH0 PUSH1 0x60 DUP3 ADD SWAP1 POP DUP2 DUP2 SUB PUSH0 DUP4 ADD MSTORE PUSH2 0x288E DUP2 DUP7 PUSH2 0x1F6A JUMP JUMPDEST SWAP1 POP DUP2 DUP2 SUB PUSH1 0x20 DUP4 ADD MSTORE PUSH2 0x28A2 DUP2 DUP6 PUSH2 0x1F6A JUMP JUMPDEST SWAP1 POP DUP2 DUP2 SUB PUSH1 0x40 DUP4 ADD MSTORE PUSH2 0x28B6 DUP2 DUP5 PUSH2 0x1F6A JUMP JUMPDEST SWAP1 POP SWAP5 SWAP4 POP POP POP POP JUMP JUMPDEST PUSH32 0x4964656E7469666965722063616E6E6F7420626520656D707479000000000000 PUSH0 DUP3 ADD MSTORE POP JUMP JUMPDEST PUSH0 PUSH2 0x28F4 PUSH1 0x1A DUP4 PUSH2 0x1F5A JUMP JUMPDEST SWAP2 POP PUSH2 0x28FF DUP3 PUSH2 0x28C0 JUMP JUMPDEST PUSH1 0x20 DUP3 ADD SWAP1 POP SWAP2 SWAP1 POP JUMP JUMPDEST PUSH0 PUSH1 0x20 DUP3 ADD SWAP1 POP DUP2 DUP2 SUB PUSH0 DUP4 ADD MSTORE PUSH2 0x2921 DUP2 PUSH2 0x28E8 JUMP JUMPDEST SWAP1 POP SWAP2 SWAP1 POP JUMP JUMPDEST PUSH32 0x44494420616C7265616479206578697374730000000000000000000000000000 PUSH0 DUP3 ADD MSTORE POP JUMP JUMPDEST PUSH0 PUSH2 0x295C PUSH1 0x12 DUP4 PUSH2 0x1F5A JUMP JUMPDEST SWAP2 POP PUSH2 0x2967 DUP3 PUSH2 0x2928 JUMP JUMPDEST PUSH1 0x20 DUP3 ADD SWAP1 POP SWAP2 SWAP1 POP JUMP JUMPDEST PUSH0 PUSH1 0x20 DUP3 ADD SWAP1 POP DUP2 DUP2 SUB PUSH0 DUP4 ADD MSTORE PUSH2 0x2989 DUP2 PUSH2 0x2950 JUMP JUMPDEST SWAP1 POP SWAP2 SWAP1 POP JUMP JUMPDEST PUSH32 0x4461746120646F6573206E6F7420657869737400000000000000000000000000 PUSH0 DUP3 ADD MSTORE POP JUMP JUMPDEST PUSH0 PUSH2 0x29C4 PUSH1 0x13 DUP4 PUSH2 0x1F5A JUMP JUMPDEST SWAP2 POP PUSH2 0x29CF DUP3 PUSH2 0x2990 JUMP JUMPDEST PUSH1 0x20 DUP3 ADD SWAP1 POP SWAP2 SWAP1 POP JUMP JUMPDEST PUSH0 PUSH1 0x20 DUP3 ADD SWAP1 POP DUP2 DUP2 SUB PUSH0 DUP4 ADD MSTORE PUSH2 0x29F1 DUP2 PUSH2 0x29B8 JUMP JUMPDEST SWAP1 POP SWAP2 SWAP1 POP JUMP JUMPDEST PUSH32 0x496E76616C6964207465737420696E6465780000000000000000000000000000 PUSH0 DUP3 ADD MSTORE POP JUMP JUMPDEST PUSH0 PUSH2 0x2A2C PUSH1 0x12 DUP4 PUSH2 0x1F5A JUMP JUMPDEST SWAP2 POP PUSH2 0x2A37 DUP3 PUSH2 0x29F8 JUMP JUMPDEST PUSH1 0x20 DUP3 ADD SWAP1 POP SWAP2 SWAP1 POP JUMP JUMPDEST PUSH0 PUSH1 0x20 DUP3 ADD SWAP1 POP DUP2 DUP2 SUB PUSH0 DUP4 ADD MSTORE PUSH2 0x2A59 DUP2 PUSH2 0x2A20 JUMP JUMPDEST SWAP1 POP SWAP2 SWAP1 POP JUMP JUMPDEST PUSH32 0x4E487B7100000000000000000000000000000000000000000000000000000000 PUSH0 MSTORE PUSH1 0x32 PUSH1 0x4 MSTORE PUSH1 0x24 PUSH0 REVERT JUMPDEST PUSH32 0x5465737420616C72656164792067726164656400000000000000000000000000 PUSH0 DUP3 ADD MSTORE POP JUMP JUMPDEST PUSH0 PUSH2 0x2AC1 PUSH1 0x13 DUP4 PUSH2 0x1F5A JUMP JUMPDEST SWAP2 POP PUSH2 0x2ACC DUP3 PUSH2 0x2A8D JUMP JUMPDEST PUSH1 0x20 DUP3 ADD SWAP1 POP SWAP2 SWAP1 POP JUMP JUMPDEST PUSH0 PUSH1 0x20 DUP3 ADD SWAP1 POP DUP2 DUP2 SUB PUSH0 DUP4 ADD MSTORE PUSH2 0x2AEE DUP2 PUSH2 0x2AB5 JUMP JUMPDEST SWAP1 POP SWAP2 SWAP1 POP JUMP JUMPDEST PUSH2 0x2AFE DUP2 PUSH2 0x1E27 JUMP JUMPDEST DUP3 MSTORE POP POP JUMP JUMPDEST PUSH0 PUSH1 0x40 DUP3 ADD SWAP1 POP PUSH2 0x2B17 PUSH0 DUP4 ADD DUP6 PUSH2 0x2AF5 JUMP JUMPDEST PUSH2 0x2B24 PUSH1 0x20 DUP4 ADD DUP5 PUSH2 0x2AF5 JUMP JUMPDEST SWAP4 SWAP3 POP POP POP JUMP JUMPDEST PUSH32 0x416E737765727320686173682063616E6E6F7420626520656D70747900000000 PUSH0 DUP3 ADD MSTORE POP JUMP JUMPDEST PUSH0 PUSH2 0x2B5F PUSH1 0x1C DUP4 PUSH2 0x1F5A JUMP JUMPDEST SWAP2 POP PUSH2 0x2B6A DUP3 PUSH2 0x2B2B JUMP JUMPDEST PUSH1 0x20 DUP3 ADD SWAP1 POP SWAP2 SWAP1 POP JUMP JUMPDEST PUSH0 PUSH1 0x20 DUP3 ADD SWAP1 POP DUP2 DUP2 SUB PUSH0 DUP4 ADD MSTORE PUSH2 0x2B8C DUP2 PUSH2 0x2B53 JUMP JUMPDEST SWAP1 POP SWAP2 SWAP1 POP JUMP JUMPDEST PUSH32 0x4E487B7100000000000000000000000000000000000000000000000000000000 PUSH0 MSTORE PUSH1 0x11 PUSH1 0x4 MSTORE PUSH1 0x24 PUSH0 REVERT JUMPDEST PUSH0 PUSH2 0x2BCA DUP3 PUSH2 0x1E27 JUMP JUMPDEST SWAP2 POP PUSH2 0x2BD5 DUP4 PUSH2 0x1E27 JUMP JUMPDEST SWAP3 POP DUP3 DUP3 ADD SWAP1 POP DUP1 DUP3 GT ISZERO PUSH2 0x2BED JUMPI PUSH2 0x2BEC PUSH2 0x2B93 JUMP JUMPDEST JUMPDEST SWAP3 SWAP2 POP POP JUMP JUMPDEST PUSH0 PUSH1 0x40 DUP3 ADD SWAP1 POP DUP2 DUP2 SUB PUSH0 DUP4 ADD MSTORE PUSH2 0x2C0B DUP2 DUP6 PUSH2 0x1F6A JUMP JUMPDEST SWAP1 POP PUSH2 0x2C1A PUSH1 0x20 DUP4 ADD DUP5 PUSH2 0x2AF5 JUMP JUMPDEST SWAP4 SWAP3 POP POP POP JUMP JUMPDEST PUSH32 0x4E6F20726F6C65732061737369676E6564207965740000000000000000000000 PUSH0 DUP3 ADD MSTORE POP JUMP JUMPDEST PUSH0 PUSH2 0x2C55 PUSH1 0x15 DUP4 PUSH2 0x1F5A JUMP JUMPDEST SWAP2 POP PUSH2 0x2C60 DUP3 PUSH2 0x2C21 JUMP JUMPDEST PUSH1 0x20 DUP3 ADD SWAP1 POP SWAP2 SWAP1 POP JUMP JUMPDEST PUSH0 PUSH1 0x20 DUP3 ADD SWAP1 POP DUP2 DUP2 SUB PUSH0 DUP4 ADD MSTORE PUSH2 0x2C82 DUP2 PUSH2 0x2C49 JUMP JUMPDEST SWAP1 POP SWAP2 SWAP1 POP JUMP INVALID LOG2 PUSH5 0x6970667358 0x22 SLT KECCAK256 0xC 0xBF MSIZE 0xAC PUSH1 0x41 SAR 0x4F 0xF 0xD8 JUMP SLOAD 0xB5 0xC4 PUSH26 0xFE43FB3FF94DB6AFA9140BE25FB3FA220F64736F6C634300081A STOP CALLER "
				},
				"gasEstimates": {
					"creation": {
						"codeDepositCost": "2291000",
						"executionCost": "infinite",
						"totalCost": "infinite"
					},
					"external": {
						"assignRole(address,string)": "infinite",
						"createDID(string)": "infinite",
						"getDID()": "infinite",
						"getMetadata()": "infinite",
						"getRole()": "infinite",
						"getTestSubmissions()": "infinite",
						"gradeTest(address,uint256,uint256)": "infinite",
						"issueRole(address,string)": "infinite",
						"setMetadata(string,string,string)": "infinite",
						"submitTest(string)": "infinite"
					}
				},
				"methodIdentifiers": {
					"assignRole(address,string)": "b7dfcbee",
					"createDID(string)": "3457d3e2",
					"getDID()": "bc9c2d55",
					"getMetadata()": "7a5b4f59",
					"getRole()": "fde08174",
					"getTestSubmissions()": "de6db5c7",
					"gradeTest(address,uint256,uint256)": "b4f30a54",
					"issueRole(address,string)": "022bf9c1",
					"setMetadata(string,string,string)": "0890d80c",
					"submitTest(string)": "c303e541"
				}
			},
			"storageLayout": {
				"storage": [
					{
						"astId": 42,
						"contract": "Project.sol:DIDRegistryWithRoles",
						"label": "dids",
						"offset": 0,
						"slot": "0",
						"type": "t_mapping(t_address,t_struct(DID)8_storage)"
					},
					{
						"astId": 46,
						"contract": "Project.sol:DIDRegistryWithRoles",
						"label": "roles",
						"offset": 0,
						"slot": "1",
						"type": "t_mapping(t_address,t_string_storage)"
					},
					{
						"astId": 51,
						"contract": "Project.sol:DIDRegistryWithRoles",
						"label": "roleHistory",
						"offset": 0,
						"slot": "2",
						"type": "t_mapping(t_address,t_array(t_string_storage)dyn_storage)"
					},
					{
						"astId": 56,
						"contract": "Project.sol:DIDRegistryWithRoles",
						"label": "metadatas",
						"offset": 0,
						"slot": "3",
						"type": "t_mapping(t_address,t_struct(MetaData)19_storage)"
					},
					{
						"astId": 62,
						"contract": "Project.sol:DIDRegistryWithRoles",
						"label": "credentials",
						"offset": 0,
						"slot": "4",
						"type": "t_mapping(t_address,t_array(t_struct(credential)37_storage)dyn_storage)"
					},
					{
						"astId": 68,
						"contract": "Project.sol:DIDRegistryWithRoles",
						"label": "testSubmissions",
						"offset": 0,
						"slot": "5",
						"type": "t_mapping(t_address,t_array(t_struct(TestSubmission)28_storage)dyn_storage)"
					}
				],
				"types": {
					"t_address": {
						"encoding": "inplace",
						"label": "address",
						"numberOfBytes": "20"
					},
					"t_array(t_string_storage)dyn_storage": {
						"base": "t_string_storage",
						"encoding": "dynamic_array",
						"label": "string[]",
						"numberOfBytes": "32"
					},
					"t_array(t_struct(TestSubmission)28_storage)dyn_storage": {
						"base": "t_struct(TestSubmission)28_storage",
						"encoding": "dynamic_array",
						"label": "struct DIDRegistryWithRoles.TestSubmission[]",
						"numberOfBytes": "32"
					},
					"t_array(t_struct(credential)37_storage)dyn_storage": {
						"base": "t_struct(credential)37_storage",
						"encoding": "dynamic_array",
						"label": "struct DIDRegistryWithRoles.credential[]",
						"numberOfBytes": "32"
					},
					"t_bool": {
						"encoding": "inplace",
						"label": "bool",
						"numberOfBytes": "1"
					},
					"t_bytes32": {
						"encoding": "inplace",
						"label": "bytes32",
						"numberOfBytes": "32"
					},
					"t_mapping(t_address,t_array(t_string_storage)dyn_storage)": {
						"encoding": "mapping",
						"key": "t_address",
						"label": "mapping(address => string[])",
						"numberOfBytes": "32",
						"value": "t_array(t_string_storage)dyn_storage"
					},
					"t_mapping(t_address,t_array(t_struct(TestSubmission)28_storage)dyn_storage)": {
						"encoding": "mapping",
						"key": "t_address",
						"label": "mapping(address => struct DIDRegistryWithRoles.TestSubmission[])",
						"numberOfBytes": "32",
						"value": "t_array(t_struct(TestSubmission)28_storage)dyn_storage"
					},
					"t_mapping(t_address,t_array(t_struct(credential)37_storage)dyn_storage)": {
						"encoding": "mapping",
						"key": "t_address",
						"label": "mapping(address => struct DIDRegistryWithRoles.credential[])",
						"numberOfBytes": "32",
						"value": "t_array(t_struct(credential)37_storage)dyn_storage"
					},
					"t_mapping(t_address,t_string_storage)": {
						"encoding": "mapping",
						"key": "t_address",
						"label": "mapping(address => string)",
						"numberOfBytes": "32",
						"value": "t_string_storage"
					},
					"t_mapping(t_address,t_struct(DID)8_storage)": {
						"encoding": "mapping",
						"key": "t_address",
						"label": "mapping(address => struct DIDRegistryWithRoles.DID)",
						"numberOfBytes": "32",
						"value": "t_struct(DID)8_storage"
					},
					"t_mapping(t_address,t_struct(MetaData)19_storage)": {
						"encoding": "mapping",
						"key": "t_address",
						"label": "mapping(address => struct DIDRegistryWithRoles.MetaData)",
						"numberOfBytes": "32",
						"value": "t_struct(MetaData)19_storage"
					},
					"t_string_storage": {
						"encoding": "bytes",
						"label": "string",
						"numberOfBytes": "32"
					},
					"t_struct(DID)8_storage": {
						"encoding": "inplace",
						"label": "struct DIDRegistryWithRoles.DID",
						"members": [
							{
								"astId": 3,
								"contract": "Project.sol:DIDRegistryWithRoles",
								"label": "identifier",
								"offset": 0,
								"slot": "0",
								"type": "t_string_storage"
							},
							{
								"astId": 5,
								"contract": "Project.sol:DIDRegistryWithRoles",
								"label": "owner",
								"offset": 0,
								"slot": "1",
								"type": "t_address"
							},
							{
								"astId": 7,
								"contract": "Project.sol:DIDRegistryWithRoles",
								"label": "createdAt",
								"offset": 0,
								"slot": "2",
								"type": "t_uint256"
							}
						],
						"numberOfBytes": "96"
					},
					"t_struct(MetaData)19_storage": {
						"encoding": "inplace",
						"label": "struct DIDRegistryWithRoles.MetaData",
						"members": [
							{
								"astId": 10,
								"contract": "Project.sol:DIDRegistryWithRoles",
								"label": "name",
								"offset": 0,
								"slot": "0",
								"type": "t_string_storage"
							},
							{
								"astId": 12,
								"contract": "Project.sol:DIDRegistryWithRoles",
								"label": "email",
								"offset": 0,
								"slot": "1",
								"type": "t_string_storage"
							},
							{
								"astId": 14,
								"contract": "Project.sol:DIDRegistryWithRoles",
								"label": "profilePicture",
								"offset": 0,
								"slot": "2",
								"type": "t_string_storage"
							},
							{
								"astId": 16,
								"contract": "Project.sol:DIDRegistryWithRoles",
								"label": "totalTestsSubmitted",
								"offset": 0,
								"slot": "3",
								"type": "t_uint256"
							},
							{
								"astId": 18,
								"contract": "Project.sol:DIDRegistryWithRoles",
								"label": "lastTestScore",
								"offset": 0,
								"slot": "4",
								"type": "t_uint256"
							}
						],
						"numberOfBytes": "160"
					},
					"t_struct(TestSubmission)28_storage": {
						"encoding": "inplace",
						"label": "struct DIDRegistryWithRoles.TestSubmission",
						"members": [
							{
								"astId": 21,
								"contract": "Project.sol:DIDRegistryWithRoles",
								"label": "answersHash",
								"offset": 0,
								"slot": "0",
								"type": "t_string_storage"
							},
							{
								"astId": 23,
								"contract": "Project.sol:DIDRegistryWithRoles",
								"label": "submissionTime",
								"offset": 0,
								"slot": "1",
								"type": "t_uint256"
							},
							{
								"astId": 25,
								"contract": "Project.sol:DIDRegistryWithRoles",
								"label": "grade",
								"offset": 0,
								"slot": "2",
								"type": "t_uint256"
							},
							{
								"astId": 27,
								"contract": "Project.sol:DIDRegistryWithRoles",
								"label": "graded",
								"offset": 0,
								"slot": "3",
								"type": "t_bool"
							}
						],
						"numberOfBytes": "128"
					},
					"t_struct(credential)37_storage": {
						"encoding": "inplace",
						"label": "struct DIDRegistryWithRoles.credential",
						"members": [
							{
								"astId": 30,
								"contract": "Project.sol:DIDRegistryWithRoles",
								"label": "issuer",
								"offset": 0,
								"slot": "0",
								"type": "t_address"
							},
							{
								"astId": 32,
								"contract": "Project.sol:DIDRegistryWithRoles",
								"label": "role",
								"offset": 0,
								"slot": "1",
								"type": "t_string_storage"
							},
							{
								"astId": 34,
								"contract": "Project.sol:DIDRegistryWithRoles",
								"label": "issueAt",
								"offset": 0,
								"slot": "2",
								"type": "t_uint256"
							},
							{
								"astId": 36,
								"contract": "Project.sol:DIDRegistryWithRoles",
								"label": "hashes",
								"offset": 0,
								"slot": "3",
								"type": "t_bytes32"
							}
						],
						"numberOfBytes": "128"
					},
					"t_uint256": {
						"encoding": "inplace",
						"label": "uint256",
						"numberOfBytes": "32"
					}
				}
			},
			"userdoc": {
				"kind": "user",
				"methods": {},
				"version": 1
			}
		}
	}
}