{
	"DIDTeacher.sol": {
		"DIDRegistryWithRoles": {
			"abi": [
				{
					"inputs": [],
					"stateMutability": "nonpayable",
					"type": "constructor"
				},
				{
					"anonymous": false,
					"inputs": [
						{
							"indexed": true,
							"internalType": "address",
							"name": "owner",
							"type": "address"
						},
						{
							"indexed": false,
							"internalType": "string",
							"name": "identifier",
							"type": "string"
						}
					],
					"name": "DIDCreated",
					"type": "event"
				},
				{
					"anonymous": false,
					"inputs": [
						{
							"indexed": true,
							"internalType": "address",
							"name": "user",
							"type": "address"
						},
						{
							"indexed": false,
							"internalType": "string",
							"name": "role",
							"type": "string"
						}
					],
					"name": "RoleAssign",
					"type": "event"
				},
				{
					"anonymous": false,
					"inputs": [
						{
							"indexed": true,
							"internalType": "address",
							"name": "user",
							"type": "address"
						},
						{
							"indexed": false,
							"internalType": "address",
							"name": "receiver",
							"type": "address"
						},
						{
							"indexed": false,
							"internalType": "string",
							"name": "role",
							"type": "string"
						},
						{
							"indexed": false,
							"internalType": "bytes32",
							"name": "hash",
							"type": "bytes32"
						}
					],
					"name": "RoleIssued",
					"type": "event"
				},
				{
					"anonymous": false,
					"inputs": [
						{
							"indexed": true,
							"internalType": "address",
							"name": "owner",
							"type": "address"
						},
						{
							"indexed": false,
							"internalType": "string",
							"name": "name",
							"type": "string"
						},
						{
							"indexed": false,
							"internalType": "string",
							"name": "email",
							"type": "string"
						},
						{
							"indexed": false,
							"internalType": "string",
							"name": "profilePicture",
							"type": "string"
						}
					],
					"name": "SetMetaData",
					"type": "event"
				},
				{
					"inputs": [
						{
							"internalType": "address",
							"name": "_user",
							"type": "address"
						},
						{
							"internalType": "string",
							"name": "_role",
							"type": "string"
						}
					],
					"name": "assignRole",
					"outputs": [],
					"stateMutability": "nonpayable",
					"type": "function"
				},
				{
					"inputs": [
						{
							"internalType": "string",
							"name": "_identifier",
							"type": "string"
						}
					],
					"name": "createDID",
					"outputs": [],
					"stateMutability": "nonpayable",
					"type": "function"
				},
				{
					"inputs": [],
					"name": "getDID",
					"outputs": [
						{
							"internalType": "string",
							"name": "",
							"type": "string"
						}
					],
					"stateMutability": "view",
					"type": "function"
				},
				{
					"inputs": [],
					"name": "getMetadata",
					"outputs": [
						{
							"components": [
								{
									"internalType": "string",
									"name": "name",
									"type": "string"
								},
								{
									"internalType": "string",
									"name": "email",
									"type": "string"
								},
								{
									"internalType": "string",
									"name": "profilePicture",
									"type": "string"
								}
							],
							"internalType": "struct DIDRegistryWithRoles.MetaData",
							"name": "",
							"type": "tuple"
						}
					],
					"stateMutability": "view",
					"type": "function"
				},
				{
					"inputs": [
						{
							"internalType": "address",
							"name": "_user",
							"type": "address"
						},
						{
							"internalType": "string",
							"name": "_role",
							"type": "string"
						}
					],
					"name": "issueRole",
					"outputs": [],
					"stateMutability": "nonpayable",
					"type": "function"
				},
				{
					"inputs": [
						{
							"internalType": "string",
							"name": "name",
							"type": "string"
						},
						{
							"internalType": "string",
							"name": "email",
							"type": "string"
						},
						{
							"internalType": "string",
							"name": "profilePicture",
							"type": "string"
						}
					],
					"name": "setMetadata",
					"outputs": [],
					"stateMutability": "nonpayable",
					"type": "function"
				}
			],
			"devdoc": {
				"kind": "dev",
				"methods": {},
				"version": 1
			},
			"evm": {
				"assembly": "    /* \"DIDTeacher.sol\":57:4187  contract DIDRegistryWithRoles {... */\n  mstore(0x40, 0x80)\n    /* \"DIDTeacher.sol\":684:805  constructor()... */\n  callvalue\n  dup1\n  iszero\n  tag_1\n  jumpi\n  0x00\n  dup1\n  revert\ntag_1:\n  pop\n    /* \"DIDTeacher.sol\":712:745  roles[msg.sender] = \"super admin\" */\n  mload(0x40)\n  dup1\n  0x40\n  add\n  0x40\n  mstore\n  dup1\n  0x0b\n  dup2\n  mstore\n  0x20\n  add\n  0x73757065722061646d696e000000000000000000000000000000000000000000\n  dup2\n  mstore\n  pop\n    /* \"DIDTeacher.sol\":712:717  roles */\n  0x01\n    /* \"DIDTeacher.sol\":712:729  roles[msg.sender] */\n  0x00\n    /* \"DIDTeacher.sol\":718:728  msg.sender */\n  caller\n    /* \"DIDTeacher.sol\":712:729  roles[msg.sender] */\n  0xffffffffffffffffffffffffffffffffffffffff\n  and\n  0xffffffffffffffffffffffffffffffffffffffff\n  and\n  dup2\n  mstore\n  0x20\n  add\n  swap1\n  dup2\n  mstore\n  0x20\n  add\n  0x00\n  keccak256\n    /* \"DIDTeacher.sol\":712:745  roles[msg.sender] = \"super admin\" */\n  swap1\n  dup2\n  tag_4\n  swap2\n  swap1\n  tag_5\n  jump\t// in\ntag_4:\n  pop\n    /* \"DIDTeacher.sol\":755:766  roleHistory */\n  0x02\n    /* \"DIDTeacher.sol\":755:778  roleHistory[msg.sender] */\n  0x00\n    /* \"DIDTeacher.sol\":767:777  msg.sender */\n  caller\n    /* \"DIDTeacher.sol\":755:778  roleHistory[msg.sender] */\n  0xffffffffffffffffffffffffffffffffffffffff\n  and\n  0xffffffffffffffffffffffffffffffffffffffff\n  and\n  dup2\n  mstore\n  0x20\n  add\n  swap1\n  dup2\n  mstore\n  0x20\n  add\n  0x00\n  keccak256\n    /* \"DIDTeacher.sol\":755:798  roleHistory[msg.sender].push(\"super admin\") */\n  dup1\n  0x01\n  dup2\n  sload\n  add\n  dup1\n  dup3\n  sstore\n  dup1\n  swap2\n  pop\n  pop\n  0x01\n  swap1\n  sub\n  swap1\n  0x00\n  mstore\n  keccak256(0x00, 0x20)\n  add\n  0x00\n  mload(0x40)\n  dup1\n  0x40\n  add\n  0x40\n  mstore\n  dup1\n  0x0b\n  dup2\n  mstore\n  0x20\n  add\n  0x73757065722061646d696e000000000000000000000000000000000000000000\n  dup2\n  mstore\n  pop\n  swap1\n  swap2\n  swap1\n  swap2\n  pop\n  swap1\n  dup2\n  tag_7\n  swap2\n  swap1\n  tag_5\n  jump\t// in\ntag_7:\n  pop\n    /* \"DIDTeacher.sol\":57:4187  contract DIDRegistryWithRoles {... */\n  jump(tag_8)\n    /* \"#utility.yul\":7:106   */\ntag_9:\n    /* \"#utility.yul\":59:65   */\n  0x00\n    /* \"#utility.yul\":93:98   */\n  dup2\n    /* \"#utility.yul\":87:99   */\n  mload\n    /* \"#utility.yul\":77:99   */\n  swap1\n  pop\n    /* \"#utility.yul\":7:106   */\n  swap2\n  swap1\n  pop\n  jump\t// out\n    /* \"#utility.yul\":112:292   */\ntag_10:\n    /* \"#utility.yul\":160:237   */\n  0x4e487b7100000000000000000000000000000000000000000000000000000000\n    /* \"#utility.yul\":157:158   */\n  0x00\n    /* \"#utility.yul\":150:238   */\n  mstore\n    /* \"#utility.yul\":257:261   */\n  0x41\n    /* \"#utility.yul\":254:255   */\n  0x04\n    /* \"#utility.yul\":247:262   */\n  mstore\n    /* \"#utility.yul\":281:285   */\n  0x24\n    /* \"#utility.yul\":278:279   */\n  0x00\n    /* \"#utility.yul\":271:286   */\n  revert\n    /* \"#utility.yul\":298:478   */\ntag_11:\n    /* \"#utility.yul\":346:423   */\n  0x4e487b7100000000000000000000000000000000000000000000000000000000\n    /* \"#utility.yul\":343:344   */\n  0x00\n    /* \"#utility.yul\":336:424   */\n  mstore\n    /* \"#utility.yul\":443:447   */\n  0x22\n    /* \"#utility.yul\":440:441   */\n  0x04\n    /* \"#utility.yul\":433:448   */\n  mstore\n    /* \"#utility.yul\":467:471   */\n  0x24\n    /* \"#utility.yul\":464:465   */\n  0x00\n    /* \"#utility.yul\":457:472   */\n  revert\n    /* \"#utility.yul\":484:804   */\ntag_12:\n    /* \"#utility.yul\":528:534   */\n  0x00\n    /* \"#utility.yul\":565:566   */\n  0x02\n    /* \"#utility.yul\":559:563   */\n  dup3\n    /* \"#utility.yul\":555:567   */\n  div\n    /* \"#utility.yul\":545:567   */\n  swap1\n  pop\n    /* \"#utility.yul\":612:613   */\n  0x01\n    /* \"#utility.yul\":606:610   */\n  dup3\n    /* \"#utility.yul\":602:614   */\n  and\n    /* \"#utility.yul\":633:651   */\n  dup1\n    /* \"#utility.yul\":623:704   */\n  tag_34\n  jumpi\n    /* \"#utility.yul\":689:693   */\n  0x7f\n    /* \"#utility.yul\":681:687   */\n  dup3\n    /* \"#utility.yul\":677:694   */\n  and\n    /* \"#utility.yul\":667:694   */\n  swap2\n  pop\n    /* \"#utility.yul\":623:704   */\ntag_34:\n    /* \"#utility.yul\":751:753   */\n  0x20\n    /* \"#utility.yul\":743:749   */\n  dup3\n    /* \"#utility.yul\":740:754   */\n  lt\n    /* \"#utility.yul\":720:738   */\n  dup2\n    /* \"#utility.yul\":717:755   */\n  sub\n    /* \"#utility.yul\":714:798   */\n  tag_35\n  jumpi\n    /* \"#utility.yul\":770:788   */\n  tag_36\n  tag_11\n  jump\t// in\ntag_36:\n    /* \"#utility.yul\":714:798   */\ntag_35:\n    /* \"#utility.yul\":535:804   */\n  pop\n    /* \"#utility.yul\":484:804   */\n  swap2\n  swap1\n  pop\n  jump\t// out\n    /* \"#utility.yul\":810:951   */\ntag_13:\n    /* \"#utility.yul\":859:863   */\n  0x00\n    /* \"#utility.yul\":882:885   */\n  dup2\n    /* \"#utility.yul\":874:885   */\n  swap1\n  pop\n    /* \"#utility.yul\":905:908   */\n  dup2\n    /* \"#utility.yul\":902:903   */\n  0x00\n    /* \"#utility.yul\":895:909   */\n  mstore\n    /* \"#utility.yul\":939:943   */\n  0x20\n    /* \"#utility.yul\":936:937   */\n  0x00\n    /* \"#utility.yul\":926:944   */\n  keccak256\n    /* \"#utility.yul\":918:944   */\n  swap1\n  pop\n    /* \"#utility.yul\":810:951   */\n  swap2\n  swap1\n  pop\n  jump\t// out\n    /* \"#utility.yul\":957:1050   */\ntag_14:\n    /* \"#utility.yul\":994:1000   */\n  0x00\n    /* \"#utility.yul\":1041:1043   */\n  0x20\n    /* \"#utility.yul\":1036:1038   */\n  0x1f\n    /* \"#utility.yul\":1029:1034   */\n  dup4\n    /* \"#utility.yul\":1025:1039   */\n  add\n    /* \"#utility.yul\":1021:1044   */\n  div\n    /* \"#utility.yul\":1011:1044   */\n  swap1\n  pop\n    /* \"#utility.yul\":957:1050   */\n  swap2\n  swap1\n  pop\n  jump\t// out\n    /* \"#utility.yul\":1056:1163   */\ntag_15:\n    /* \"#utility.yul\":1100:1108   */\n  0x00\n    /* \"#utility.yul\":1150:1155   */\n  dup3\n    /* \"#utility.yul\":1144:1148   */\n  dup3\n    /* \"#utility.yul\":1140:1156   */\n  shl\n    /* \"#utility.yul\":1119:1156   */\n  swap1\n  pop\n    /* \"#utility.yul\":1056:1163   */\n  swap3\n  swap2\n  pop\n  pop\n  jump\t// out\n    /* \"#utility.yul\":1169:1562   */\ntag_16:\n    /* \"#utility.yul\":1238:1244   */\n  0x00\n    /* \"#utility.yul\":1288:1289   */\n  0x08\n    /* \"#utility.yul\":1276:1286   */\n  dup4\n    /* \"#utility.yul\":1272:1290   */\n  mul\n    /* \"#utility.yul\":1311:1408   */\n  tag_41\n    /* \"#utility.yul\":1341:1407   */\n  0xffffffffffffffffffffffffffffffffffffffffffffffffffffffffffffffff\n    /* \"#utility.yul\":1330:1339   */\n  dup3\n    /* \"#utility.yul\":1311:1408   */\n  tag_15\n  jump\t// in\ntag_41:\n    /* \"#utility.yul\":1429:1468   */\n  tag_42\n    /* \"#utility.yul\":1459:1467   */\n  dup7\n    /* \"#utility.yul\":1448:1457   */\n  dup4\n    /* \"#utility.yul\":1429:1468   */\n  tag_15\n  jump\t// in\ntag_42:\n    /* \"#utility.yul\":1417:1468   */\n  swap6\n  pop\n    /* \"#utility.yul\":1501:1505   */\n  dup1\n    /* \"#utility.yul\":1497:1506   */\n  not\n    /* \"#utility.yul\":1490:1495   */\n  dup5\n    /* \"#utility.yul\":1486:1507   */\n  and\n    /* \"#utility.yul\":1477:1507   */\n  swap4\n  pop\n    /* \"#utility.yul\":1550:1554   */\n  dup1\n    /* \"#utility.yul\":1540:1548   */\n  dup7\n    /* \"#utility.yul\":1536:1555   */\n  and\n    /* \"#utility.yul\":1529:1534   */\n  dup5\n    /* \"#utility.yul\":1526:1556   */\n  or\n    /* \"#utility.yul\":1516:1556   */\n  swap3\n  pop\n    /* \"#utility.yul\":1245:1562   */\n  pop\n  pop\n    /* \"#utility.yul\":1169:1562   */\n  swap4\n  swap3\n  pop\n  pop\n  pop\n  jump\t// out\n    /* \"#utility.yul\":1568:1645   */\ntag_17:\n    /* \"#utility.yul\":1605:1612   */\n  0x00\n    /* \"#utility.yul\":1634:1639   */\n  dup2\n    /* \"#utility.yul\":1623:1639   */\n  swap1\n  pop\n    /* \"#utility.yul\":1568:1645   */\n  swap2\n  swap1\n  pop\n  jump\t// out\n    /* \"#utility.yul\":1651:1711   */\ntag_18:\n    /* \"#utility.yul\":1679:1682   */\n  0x00\n    /* \"#utility.yul\":1700:1705   */\n  dup2\n    /* \"#utility.yul\":1693:1705   */\n  swap1\n  pop\n    /* \"#utility.yul\":1651:1711   */\n  swap2\n  swap1\n  pop\n  jump\t// out\n    /* \"#utility.yul\":1717:1859   */\ntag_19:\n    /* \"#utility.yul\":1767:1776   */\n  0x00\n    /* \"#utility.yul\":1800:1853   */\n  tag_46\n    /* \"#utility.yul\":1818:1852   */\n  tag_47\n    /* \"#utility.yul\":1827:1851   */\n  tag_48\n    /* \"#utility.yul\":1845:1850   */\n  dup5\n    /* \"#utility.yul\":1827:1851   */\n  tag_17\n  jump\t// in\ntag_48:\n    /* \"#utility.yul\":1818:1852   */\n  tag_18\n  jump\t// in\ntag_47:\n    /* \"#utility.yul\":1800:1853   */\n  tag_17\n  jump\t// in\ntag_46:\n    /* \"#utility.yul\":1787:1853   */\n  swap1\n  pop\n    /* \"#utility.yul\":1717:1859   */\n  swap2\n  swap1\n  pop\n  jump\t// out\n    /* \"#utility.yul\":1865:1940   */\ntag_20:\n    /* \"#utility.yul\":1908:1911   */\n  0x00\n    /* \"#utility.yul\":1929:1934   */\n  dup2\n    /* \"#utility.yul\":1922:1934   */\n  swap1\n  pop\n    /* \"#utility.yul\":1865:1940   */\n  swap2\n  swap1\n  pop\n  jump\t// out\n    /* \"#utility.yul\":1946:2215   */\ntag_21:\n    /* \"#utility.yul\":2056:2095   */\n  tag_51\n    /* \"#utility.yul\":2087:2094   */\n  dup4\n    /* \"#utility.yul\":2056:2095   */\n  tag_19\n  jump\t// in\ntag_51:\n    /* \"#utility.yul\":2117:2208   */\n  tag_52\n    /* \"#utility.yul\":2166:2207   */\n  tag_53\n    /* \"#utility.yul\":2190:2206   */\n  dup3\n    /* \"#utility.yul\":2166:2207   */\n  tag_20\n  jump\t// in\ntag_53:\n    /* \"#utility.yul\":2158:2164   */\n  dup5\n    /* \"#utility.yul\":2151:2155   */\n  dup5\n    /* \"#utility.yul\":2145:2156   */\n  sload\n    /* \"#utility.yul\":2117:2208   */\n  tag_16\n  jump\t// in\ntag_52:\n    /* \"#utility.yul\":2111:2115   */\n  dup3\n    /* \"#utility.yul\":2104:2209   */\n  sstore\n    /* \"#utility.yul\":2022:2215   */\n  pop\n    /* \"#utility.yul\":1946:2215   */\n  pop\n  pop\n  pop\n  jump\t// out\n    /* \"#utility.yul\":2221:2294   */\ntag_22:\n    /* \"#utility.yul\":2266:2269   */\n  0x00\n    /* \"#utility.yul\":2221:2294   */\n  swap1\n  jump\t// out\n    /* \"#utility.yul\":2300:2489   */\ntag_23:\n    /* \"#utility.yul\":2377:2409   */\n  tag_56\n  tag_22\n  jump\t// in\ntag_56:\n    /* \"#utility.yul\":2418:2483   */\n  tag_57\n    /* \"#utility.yul\":2476:2482   */\n  dup2\n    /* \"#utility.yul\":2468:2474   */\n  dup5\n    /* \"#utility.yul\":2462:2466   */\n  dup5\n    /* \"#utility.yul\":2418:2483   */\n  tag_21\n  jump\t// in\ntag_57:\n    /* \"#utility.yul\":2353:2489   */\n  pop\n    /* \"#utility.yul\":2300:2489   */\n  pop\n  pop\n  jump\t// out\n    /* \"#utility.yul\":2495:2681   */\ntag_24:\n    /* \"#utility.yul\":2555:2675   */\ntag_59:\n    /* \"#utility.yul\":2572:2575   */\n  dup2\n    /* \"#utility.yul\":2565:2570   */\n  dup2\n    /* \"#utility.yul\":2562:2576   */\n  lt\n    /* \"#utility.yul\":2555:2675   */\n  iszero\n  tag_61\n  jumpi\n    /* \"#utility.yul\":2626:2665   */\n  tag_62\n    /* \"#utility.yul\":2663:2664   */\n  0x00\n    /* \"#utility.yul\":2656:2661   */\n  dup3\n    /* \"#utility.yul\":2626:2665   */\n  tag_23\n  jump\t// in\ntag_62:\n    /* \"#utility.yul\":2599:2600   */\n  0x01\n    /* \"#utility.yul\":2592:2597   */\n  dup2\n    /* \"#utility.yul\":2588:2601   */\n  add\n    /* \"#utility.yul\":2579:2601   */\n  swap1\n  pop\n    /* \"#utility.yul\":2555:2675   */\n  jump(tag_59)\ntag_61:\n    /* \"#utility.yul\":2495:2681   */\n  pop\n  pop\n  jump\t// out\n    /* \"#utility.yul\":2687:3230   */\ntag_25:\n    /* \"#utility.yul\":2788:2790   */\n  0x1f\n    /* \"#utility.yul\":2783:2786   */\n  dup3\n    /* \"#utility.yul\":2780:2791   */\n  gt\n    /* \"#utility.yul\":2777:3223   */\n  iszero\n  tag_64\n  jumpi\n    /* \"#utility.yul\":2822:2860   */\n  tag_65\n    /* \"#utility.yul\":2854:2859   */\n  dup2\n    /* \"#utility.yul\":2822:2860   */\n  tag_13\n  jump\t// in\ntag_65:\n    /* \"#utility.yul\":2906:2935   */\n  tag_66\n    /* \"#utility.yul\":2924:2934   */\n  dup5\n    /* \"#utility.yul\":2906:2935   */\n  tag_14\n  jump\t// in\ntag_66:\n    /* \"#utility.yul\":2896:2904   */\n  dup2\n    /* \"#utility.yul\":2892:2936   */\n  add\n    /* \"#utility.yul\":3089:3091   */\n  0x20\n    /* \"#utility.yul\":3077:3087   */\n  dup6\n    /* \"#utility.yul\":3074:3092   */\n  lt\n    /* \"#utility.yul\":3071:3120   */\n  iszero\n  tag_67\n  jumpi\n    /* \"#utility.yul\":3110:3118   */\n  dup2\n    /* \"#utility.yul\":3095:3118   */\n  swap1\n  pop\n    /* \"#utility.yul\":3071:3120   */\ntag_67:\n    /* \"#utility.yul\":3133:3213   */\n  tag_68\n    /* \"#utility.yul\":3189:3211   */\n  tag_69\n    /* \"#utility.yul\":3207:3210   */\n  dup6\n    /* \"#utility.yul\":3189:3211   */\n  tag_14\n  jump\t// in\ntag_69:\n    /* \"#utility.yul\":3179:3187   */\n  dup4\n    /* \"#utility.yul\":3175:3212   */\n  add\n    /* \"#utility.yul\":3162:3173   */\n  dup3\n    /* \"#utility.yul\":3133:3213   */\n  tag_24\n  jump\t// in\ntag_68:\n    /* \"#utility.yul\":2792:3223   */\n  pop\n  pop\n    /* \"#utility.yul\":2777:3223   */\ntag_64:\n    /* \"#utility.yul\":2687:3230   */\n  pop\n  pop\n  pop\n  jump\t// out\n    /* \"#utility.yul\":3236:3353   */\ntag_26:\n    /* \"#utility.yul\":3290:3298   */\n  0x00\n    /* \"#utility.yul\":3340:3345   */\n  dup3\n    /* \"#utility.yul\":3334:3338   */\n  dup3\n    /* \"#utility.yul\":3330:3346   */\n  shr\n    /* \"#utility.yul\":3309:3346   */\n  swap1\n  pop\n    /* \"#utility.yul\":3236:3353   */\n  swap3\n  swap2\n  pop\n  pop\n  jump\t// out\n    /* \"#utility.yul\":3359:3528   */\ntag_27:\n    /* \"#utility.yul\":3403:3409   */\n  0x00\n    /* \"#utility.yul\":3436:3487   */\n  tag_72\n    /* \"#utility.yul\":3484:3485   */\n  0x00\n    /* \"#utility.yul\":3480:3486   */\n  not\n    /* \"#utility.yul\":3472:3477   */\n  dup5\n    /* \"#utility.yul\":3469:3470   */\n  0x08\n    /* \"#utility.yul\":3465:3478   */\n  mul\n    /* \"#utility.yul\":3436:3487   */\n  tag_26\n  jump\t// in\ntag_72:\n    /* \"#utility.yul\":3432:3488   */\n  not\n    /* \"#utility.yul\":3517:3521   */\n  dup1\n    /* \"#utility.yul\":3511:3515   */\n  dup4\n    /* \"#utility.yul\":3507:3522   */\n  and\n    /* \"#utility.yul\":3497:3522   */\n  swap2\n  pop\n    /* \"#utility.yul\":3410:3528   */\n  pop\n    /* \"#utility.yul\":3359:3528   */\n  swap3\n  swap2\n  pop\n  pop\n  jump\t// out\n    /* \"#utility.yul\":3533:3828   */\ntag_28:\n    /* \"#utility.yul\":3609:3613   */\n  0x00\n    /* \"#utility.yul\":3755:3784   */\n  tag_74\n    /* \"#utility.yul\":3780:3783   */\n  dup4\n    /* \"#utility.yul\":3774:3778   */\n  dup4\n    /* \"#utility.yul\":3755:3784   */\n  tag_27\n  jump\t// in\ntag_74:\n    /* \"#utility.yul\":3747:3784   */\n  swap2\n  pop\n    /* \"#utility.yul\":3817:3820   */\n  dup3\n    /* \"#utility.yul\":3814:3815   */\n  0x02\n    /* \"#utility.yul\":3810:3821   */\n  mul\n    /* \"#utility.yul\":3804:3808   */\n  dup3\n    /* \"#utility.yul\":3801:3822   */\n  or\n    /* \"#utility.yul\":3793:3822   */\n  swap1\n  pop\n    /* \"#utility.yul\":3533:3828   */\n  swap3\n  swap2\n  pop\n  pop\n  jump\t// out\n    /* \"#utility.yul\":3833:5228   */\ntag_5:\n    /* \"#utility.yul\":3950:3987   */\n  tag_76\n    /* \"#utility.yul\":3983:3986   */\n  dup3\n    /* \"#utility.yul\":3950:3987   */\n  tag_9\n  jump\t// in\ntag_76:\n    /* \"#utility.yul\":4052:4070   */\n  0xffffffffffffffff\n    /* \"#utility.yul\":4044:4050   */\n  dup2\n    /* \"#utility.yul\":4041:4071   */\n  gt\n    /* \"#utility.yul\":4038:4094   */\n  iszero\n  tag_77\n  jumpi\n    /* \"#utility.yul\":4074:4092   */\n  tag_78\n  tag_10\n  jump\t// in\ntag_78:\n    /* \"#utility.yul\":4038:4094   */\ntag_77:\n    /* \"#utility.yul\":4118:4156   */\n  tag_79\n    /* \"#utility.yul\":4150:4154   */\n  dup3\n    /* \"#utility.yul\":4144:4155   */\n  sload\n    /* \"#utility.yul\":4118:4156   */\n  tag_12\n  jump\t// in\ntag_79:\n    /* \"#utility.yul\":4203:4270   */\n  tag_80\n    /* \"#utility.yul\":4263:4269   */\n  dup3\n    /* \"#utility.yul\":4255:4261   */\n  dup3\n    /* \"#utility.yul\":4249:4253   */\n  dup6\n    /* \"#utility.yul\":4203:4270   */\n  tag_25\n  jump\t// in\ntag_80:\n    /* \"#utility.yul\":4297:4298   */\n  0x00\n    /* \"#utility.yul\":4321:4325   */\n  0x20\n    /* \"#utility.yul\":4308:4325   */\n  swap1\n  pop\n    /* \"#utility.yul\":4353:4355   */\n  0x1f\n    /* \"#utility.yul\":4345:4351   */\n  dup4\n    /* \"#utility.yul\":4342:4356   */\n  gt\n    /* \"#utility.yul\":4370:4371   */\n  0x01\n    /* \"#utility.yul\":4365:4983   */\n  dup2\n  eq\n  tag_82\n  jumpi\n    /* \"#utility.yul\":5027:5028   */\n  0x00\n    /* \"#utility.yul\":5044:5050   */\n  dup5\n    /* \"#utility.yul\":5041:5118   */\n  iszero\n  tag_83\n  jumpi\n    /* \"#utility.yul\":5093:5102   */\n  dup3\n    /* \"#utility.yul\":5088:5091   */\n  dup8\n    /* \"#utility.yul\":5084:5103   */\n  add\n    /* \"#utility.yul\":5078:5104   */\n  mload\n    /* \"#utility.yul\":5069:5104   */\n  swap1\n  pop\n    /* \"#utility.yul\":5041:5118   */\ntag_83:\n    /* \"#utility.yul\":5144:5211   */\n  tag_84\n    /* \"#utility.yul\":5204:5210   */\n  dup6\n    /* \"#utility.yul\":5197:5202   */\n  dup3\n    /* \"#utility.yul\":5144:5211   */\n  tag_28\n  jump\t// in\ntag_84:\n    /* \"#utility.yul\":5138:5142   */\n  dup7\n    /* \"#utility.yul\":5131:5212   */\n  sstore\n    /* \"#utility.yul\":5000:5222   */\n  pop\n    /* \"#utility.yul\":4335:5222   */\n  jump(tag_81)\n    /* \"#utility.yul\":4365:4983   */\ntag_82:\n    /* \"#utility.yul\":4417:4421   */\n  0x1f\n    /* \"#utility.yul\":4413:4422   */\n  not\n    /* \"#utility.yul\":4405:4411   */\n  dup5\n    /* \"#utility.yul\":4401:4423   */\n  and\n    /* \"#utility.yul\":4451:4488   */\n  tag_85\n    /* \"#utility.yul\":4483:4487   */\n  dup7\n    /* \"#utility.yul\":4451:4488   */\n  tag_13\n  jump\t// in\ntag_85:\n    /* \"#utility.yul\":4510:4511   */\n  0x00\n    /* \"#utility.yul\":4524:4732   */\ntag_86:\n    /* \"#utility.yul\":4538:4545   */\n  dup3\n    /* \"#utility.yul\":4535:4536   */\n  dup2\n    /* \"#utility.yul\":4532:4546   */\n  lt\n    /* \"#utility.yul\":4524:4732   */\n  iszero\n  tag_88\n  jumpi\n    /* \"#utility.yul\":4617:4626   */\n  dup5\n    /* \"#utility.yul\":4612:4615   */\n  dup10\n    /* \"#utility.yul\":4608:4627   */\n  add\n    /* \"#utility.yul\":4602:4628   */\n  mload\n    /* \"#utility.yul\":4594:4600   */\n  dup3\n    /* \"#utility.yul\":4587:4629   */\n  sstore\n    /* \"#utility.yul\":4668:4669   */\n  0x01\n    /* \"#utility.yul\":4660:4666   */\n  dup3\n    /* \"#utility.yul\":4656:4670   */\n  add\n    /* \"#utility.yul\":4646:4670   */\n  swap2\n  pop\n    /* \"#utility.yul\":4715:4717   */\n  0x20\n    /* \"#utility.yul\":4704:4713   */\n  dup6\n    /* \"#utility.yul\":4700:4718   */\n  add\n    /* \"#utility.yul\":4687:4718   */\n  swap5\n  pop\n    /* \"#utility.yul\":4561:4565   */\n  0x20\n    /* \"#utility.yul\":4558:4559   */\n  dup2\n    /* \"#utility.yul\":4554:4566   */\n  add\n    /* \"#utility.yul\":4549:4566   */\n  swap1\n  pop\n    /* \"#utility.yul\":4524:4732   */\n  jump(tag_86)\ntag_88:\n    /* \"#utility.yul\":4760:4766   */\n  dup7\n    /* \"#utility.yul\":4751:4758   */\n  dup4\n    /* \"#utility.yul\":4748:4767   */\n  lt\n    /* \"#utility.yul\":4745:4924   */\n  iszero\n  tag_89\n  jumpi\n    /* \"#utility.yul\":4818:4827   */\n  dup5\n    /* \"#utility.yul\":4813:4816   */\n  dup10\n    /* \"#utility.yul\":4809:4828   */\n  add\n    /* \"#utility.yul\":4803:4829   */\n  mload\n    /* \"#utility.yul\":4861:4909   */\n  tag_90\n    /* \"#utility.yul\":4903:4907   */\n  0x1f\n    /* \"#utility.yul\":4895:4901   */\n  dup10\n    /* \"#utility.yul\":4891:4908   */\n  and\n    /* \"#utility.yul\":4880:4889   */\n  dup3\n    /* \"#utility.yul\":4861:4909   */\n  tag_27\n  jump\t// in\ntag_90:\n    /* \"#utility.yul\":4853:4859   */\n  dup4\n    /* \"#utility.yul\":4846:4910   */\n  sstore\n    /* \"#utility.yul\":4768:4924   */\n  pop\n    /* \"#utility.yul\":4745:4924   */\ntag_89:\n    /* \"#utility.yul\":4970:4971   */\n  0x01\n    /* \"#utility.yul\":4966:4967   */\n  0x02\n    /* \"#utility.yul\":4958:4964   */\n  dup9\n    /* \"#utility.yul\":4954:4968   */\n  mul\n    /* \"#utility.yul\":4950:4972   */\n  add\n    /* \"#utility.yul\":4944:4948   */\n  dup9\n    /* \"#utility.yul\":4937:4973   */\n  sstore\n    /* \"#utility.yul\":4372:4983   */\n  pop\n  pop\n  pop\n    /* \"#utility.yul\":4335:5222   */\ntag_81:\n  pop\n    /* \"#utility.yul\":3925:5228   */\n  pop\n  pop\n  pop\n    /* \"#utility.yul\":3833:5228   */\n  pop\n  pop\n  jump\t// out\n    /* \"DIDTeacher.sol\":57:4187  contract DIDRegistryWithRoles {... */\ntag_8:\n  dataSize(sub_0)\n  dup1\n  dataOffset(sub_0)\n  0x00\n  codecopy\n  0x00\n  return\nstop\n\nsub_0: assembly {\n        /* \"DIDTeacher.sol\":57:4187  contract DIDRegistryWithRoles {... */\n      mstore(0x40, 0x80)\n      callvalue\n      dup1\n      iszero\n      tag_1\n      jumpi\n      0x00\n      dup1\n      revert\n    tag_1:\n      pop\n      jumpi(tag_2, lt(calldatasize, 0x04))\n      shr(0xe0, calldataload(0x00))\n      dup1\n      0x022bf9c1\n      eq\n      tag_3\n      jumpi\n      dup1\n      0x0890d80c\n      eq\n      tag_4\n      jumpi\n      dup1\n      0x3457d3e2\n      eq\n      tag_5\n      jumpi\n      dup1\n      0x7a5b4f59\n      eq\n      tag_6\n      jumpi\n      dup1\n      0xb7dfcbee\n      eq\n      tag_7\n      jumpi\n      dup1\n      0xbc9c2d55\n      eq\n      tag_8\n      jumpi\n    tag_2:\n      0x00\n      dup1\n      revert\n        /* \"DIDTeacher.sol\":1512:2051  function issueRole(address _user, string memory _role ) public ... */\n    tag_3:\n      tag_9\n      0x04\n      dup1\n      calldatasize\n      sub\n      dup2\n      add\n      swap1\n      tag_10\n      swap2\n      swap1\n      tag_11\n      jump\t// in\n    tag_10:\n      tag_12\n      jump\t// in\n    tag_9:\n      stop\n        /* \"DIDTeacher.sol\":3086:3635  function setMetadata(string memory name, string memory email, string memory profilePicture)public{... */\n    tag_4:\n      tag_13\n      0x04\n      dup1\n      calldatasize\n      sub\n      dup2\n      add\n      swap1\n      tag_14\n      swap2\n      swap1\n      tag_15\n      jump\t// in\n    tag_14:\n      tag_16\n      jump\t// in\n    tag_13:\n      stop\n        /* \"DIDTeacher.sol\":2541:2880  function createDID(string memory _identifier) public {... */\n    tag_5:\n      tag_17\n      0x04\n      dup1\n      calldatasize\n      sub\n      dup2\n      add\n      swap1\n      tag_18\n      swap2\n      swap1\n      tag_19\n      jump\t// in\n    tag_18:\n      tag_20\n      jump\t// in\n    tag_17:\n      stop\n        /* \"DIDTeacher.sol\":3641:3824  function getMetadata() public view returns (MetaData memory){... */\n    tag_6:\n      tag_21\n      tag_22\n      jump\t// in\n    tag_21:\n      mload(0x40)\n      tag_23\n      swap2\n      swap1\n      tag_24\n      jump\t// in\n    tag_23:\n      mload(0x40)\n      dup1\n      swap2\n      sub\n      swap1\n      return\n        /* \"DIDTeacher.sol\":1116:1507  function assignRole(address _user, string memory _role) public ... */\n    tag_7:\n      tag_25\n      0x04\n      dup1\n      calldatasize\n      sub\n      dup2\n      add\n      swap1\n      tag_26\n      swap2\n      swap1\n      tag_11\n      jump\t// in\n    tag_26:\n      tag_27\n      jump\t// in\n    tag_25:\n      stop\n        /* \"DIDTeacher.sol\":2886:3080  function getDID() public view returns (string memory) {... */\n    tag_8:\n      tag_28\n      tag_29\n      jump\t// in\n    tag_28:\n      mload(0x40)\n      tag_30\n      swap2\n      swap1\n      tag_31\n      jump\t// in\n    tag_30:\n      mload(0x40)\n      dup1\n      swap2\n      sub\n      swap1\n      return\n        /* \"DIDTeacher.sol\":1512:2051  function issueRole(address _user, string memory _role ) public ... */\n    tag_12:\n        /* \"DIDTeacher.sol\":1632:1633  0 */\n      0x00\n        /* \"DIDTeacher.sol\":1598:1634  dids[msg.sender].owner != address(0) */\n      0xffffffffffffffffffffffffffffffffffffffff\n      and\n        /* \"DIDTeacher.sol\":1598:1602  dids */\n      0x00\n        /* \"DIDTeacher.sol\":1598:1614  dids[msg.sender] */\n      dup1\n        /* \"DIDTeacher.sol\":1603:1613  msg.sender */\n      caller\n        /* \"DIDTeacher.sol\":1598:1614  dids[msg.sender] */\n      0xffffffffffffffffffffffffffffffffffffffff\n      and\n      0xffffffffffffffffffffffffffffffffffffffff\n      and\n      dup2\n      mstore\n      0x20\n      add\n      swap1\n      dup2\n      mstore\n      0x20\n      add\n      0x00\n      keccak256\n        /* \"DIDTeacher.sol\":1598:1620  dids[msg.sender].owner */\n      0x01\n      add\n      0x00\n      swap1\n      sload\n      swap1\n      0x0100\n      exp\n      swap1\n      div\n      0xffffffffffffffffffffffffffffffffffffffff\n      and\n        /* \"DIDTeacher.sol\":1598:1634  dids[msg.sender].owner != address(0) */\n      0xffffffffffffffffffffffffffffffffffffffff\n      and\n      sub\n        /* \"DIDTeacher.sol\":1590:1661  require(dids[msg.sender].owner != address(0), \"Issuer must have a DID\") */\n      tag_33\n      jumpi\n      mload(0x40)\n      0x08c379a000000000000000000000000000000000000000000000000000000000\n      dup2\n      mstore\n      0x04\n      add\n      tag_34\n      swap1\n      tag_35\n      jump\t// in\n    tag_34:\n      mload(0x40)\n      dup1\n      swap2\n      sub\n      swap1\n      revert\n    tag_33:\n        /* \"DIDTeacher.sol\":1701:1702  0 */\n      0x00\n        /* \"DIDTeacher.sol\":1685:1690  _role */\n      dup2\n        /* \"DIDTeacher.sol\":1679:1698  bytes(_role).length */\n      mload\n        /* \"DIDTeacher.sol\":1679:1702  bytes(_role).length > 0 */\n      gt\n        /* \"DIDTeacher.sol\":1671:1727  require(bytes(_role).length > 0, \"Role cannot be empty\") */\n      tag_36\n      jumpi\n      mload(0x40)\n      0x08c379a000000000000000000000000000000000000000000000000000000000\n      dup2\n      mstore\n      0x04\n      add\n      tag_37\n      swap1\n      tag_38\n      jump\t// in\n    tag_37:\n      mload(0x40)\n      dup1\n      swap2\n      sub\n      swap1\n      revert\n    tag_36:\n        /* \"DIDTeacher.sol\":1738:1754  bytes32 roleHash */\n      0x00\n        /* \"DIDTeacher.sol\":1784:1794  msg.sender */\n      caller\n        /* \"DIDTeacher.sol\":1796:1801  _user */\n      dup4\n        /* \"DIDTeacher.sol\":1803:1808  _role */\n      dup4\n        /* \"DIDTeacher.sol\":1810:1825  block.timestamp */\n      timestamp\n        /* \"DIDTeacher.sol\":1767:1826  abi.encodePacked(msg.sender, _user, _role, block.timestamp) */\n      add(0x20, mload(0x40))\n      tag_39\n      swap5\n      swap4\n      swap3\n      swap2\n      swap1\n      tag_40\n      jump\t// in\n    tag_39:\n      mload(0x40)\n      0x20\n      dup2\n      dup4\n      sub\n      sub\n      dup2\n      mstore\n      swap1\n      0x40\n      mstore\n        /* \"DIDTeacher.sol\":1757:1827  keccak256(abi.encodePacked(msg.sender, _user, _role, block.timestamp)) */\n      dup1\n      mload\n      swap1\n      0x20\n      add\n      keccak256\n        /* \"DIDTeacher.sol\":1738:1827  bytes32 roleHash = keccak256(abi.encodePacked(msg.sender, _user, _role, block.timestamp)) */\n      swap1\n      pop\n        /* \"DIDTeacher.sol\":1838:1849  credentials */\n      0x04\n        /* \"DIDTeacher.sol\":1838:1856  credentials[_user] */\n      0x00\n        /* \"DIDTeacher.sol\":1850:1855  _user */\n      dup5\n        /* \"DIDTeacher.sol\":1838:1856  credentials[_user] */\n      0xffffffffffffffffffffffffffffffffffffffff\n      and\n      0xffffffffffffffffffffffffffffffffffffffff\n      and\n      dup2\n      mstore\n      0x20\n      add\n      swap1\n      dup2\n      mstore\n      0x20\n      add\n      0x00\n      keccak256\n        /* \"DIDTeacher.sol\":1875:1931  credential(msg.sender, _role, block.timestamp, roleHash) */\n      mload(0x40)\n      dup1\n      0x80\n      add\n      0x40\n      mstore\n      dup1\n        /* \"DIDTeacher.sol\":1886:1896  msg.sender */\n      caller\n        /* \"DIDTeacher.sol\":1875:1931  credential(msg.sender, _role, block.timestamp, roleHash) */\n      0xffffffffffffffffffffffffffffffffffffffff\n      and\n      dup2\n      mstore\n      0x20\n      add\n        /* \"DIDTeacher.sol\":1898:1903  _role */\n      dup5\n        /* \"DIDTeacher.sol\":1875:1931  credential(msg.sender, _role, block.timestamp, roleHash) */\n      dup2\n      mstore\n      0x20\n      add\n        /* \"DIDTeacher.sol\":1905:1920  block.timestamp */\n      timestamp\n        /* \"DIDTeacher.sol\":1875:1931  credential(msg.sender, _role, block.timestamp, roleHash) */\n      dup2\n      mstore\n      0x20\n      add\n        /* \"DIDTeacher.sol\":1922:1930  roleHash */\n      dup4\n        /* \"DIDTeacher.sol\":1875:1931  credential(msg.sender, _role, block.timestamp, roleHash) */\n      dup2\n      mstore\n      pop\n        /* \"DIDTeacher.sol\":1838:1941  credentials[_user].push(... */\n      swap1\n      dup1\n      0x01\n      dup2\n      sload\n      add\n      dup1\n      dup3\n      sstore\n      dup1\n      swap2\n      pop\n      pop\n      0x01\n      swap1\n      sub\n      swap1\n      0x00\n      mstore\n      keccak256(0x00, 0x20)\n      swap1\n      0x04\n      mul\n      add\n      0x00\n      swap1\n      swap2\n      swap1\n      swap2\n      swap1\n      swap2\n      pop\n      0x00\n      dup3\n      add\n      mload\n      dup2\n      0x00\n      add\n      exp(0x0100, 0x00)\n      dup2\n      sload\n      dup2\n      0xffffffffffffffffffffffffffffffffffffffff\n      mul\n      not\n      and\n      swap1\n      dup4\n      0xffffffffffffffffffffffffffffffffffffffff\n      and\n      mul\n      or\n      swap1\n      sstore\n      pop\n      0x20\n      dup3\n      add\n      mload\n      dup2\n      0x01\n      add\n      swap1\n      dup2\n      tag_42\n      swap2\n      swap1\n      tag_43\n      jump\t// in\n    tag_42:\n      pop\n      0x40\n      dup3\n      add\n      mload\n      dup2\n      0x02\n      add\n      sstore\n      0x60\n      dup3\n      add\n      mload\n      dup2\n      0x03\n      add\n      sstore\n      pop\n      pop\n        /* \"DIDTeacher.sol\":1952:1963  roleHistory */\n      0x02\n        /* \"DIDTeacher.sol\":1952:1970  roleHistory[_user] */\n      0x00\n        /* \"DIDTeacher.sol\":1964:1969  _user */\n      dup5\n        /* \"DIDTeacher.sol\":1952:1970  roleHistory[_user] */\n      0xffffffffffffffffffffffffffffffffffffffff\n      and\n      0xffffffffffffffffffffffffffffffffffffffff\n      and\n      dup2\n      mstore\n      0x20\n      add\n      swap1\n      dup2\n      mstore\n      0x20\n      add\n      0x00\n      keccak256\n        /* \"DIDTeacher.sol\":1976:1981  _role */\n      dup3\n        /* \"DIDTeacher.sol\":1952:1982  roleHistory[_user].push(_role) */\n      swap1\n      dup1\n      0x01\n      dup2\n      sload\n      add\n      dup1\n      dup3\n      sstore\n      dup1\n      swap2\n      pop\n      pop\n      0x01\n      swap1\n      sub\n      swap1\n      0x00\n      mstore\n      keccak256(0x00, 0x20)\n      add\n      0x00\n      swap1\n      swap2\n      swap1\n      swap2\n      swap1\n      swap2\n      pop\n      swap1\n      dup2\n      tag_45\n      swap2\n      swap1\n      tag_43\n      jump\t// in\n    tag_45:\n      pop\n        /* \"DIDTeacher.sol\":2009:2019  msg.sender */\n      caller\n        /* \"DIDTeacher.sol\":1998:2044  RoleIssued(msg.sender, _user, _role, roleHash) */\n      0xffffffffffffffffffffffffffffffffffffffff\n      and\n      0xf4313cb022699889c6eddb590e42342301cdae4824fd424ffdfdeb23d4cdbbe9\n        /* \"DIDTeacher.sol\":2021:2026  _user */\n      dup5\n        /* \"DIDTeacher.sol\":2028:2033  _role */\n      dup5\n        /* \"DIDTeacher.sol\":2035:2043  roleHash */\n      dup5\n        /* \"DIDTeacher.sol\":1998:2044  RoleIssued(msg.sender, _user, _role, roleHash) */\n      mload(0x40)\n      tag_46\n      swap4\n      swap3\n      swap2\n      swap1\n      tag_47\n      jump\t// in\n    tag_46:\n      mload(0x40)\n      dup1\n      swap2\n      sub\n      swap1\n      log2\n        /* \"DIDTeacher.sol\":1580:2051  {... */\n      pop\n        /* \"DIDTeacher.sol\":1512:2051  function issueRole(address _user, string memory _role ) public ... */\n      pop\n      pop\n      jump\t// out\n        /* \"DIDTeacher.sol\":3086:3635  function setMetadata(string memory name, string memory email, string memory profilePicture)public{... */\n    tag_16:\n        /* \"DIDTeacher.sol\":3222:3223  0 */\n      0x00\n        /* \"DIDTeacher.sol\":3207:3211  name */\n      dup4\n        /* \"DIDTeacher.sol\":3201:3219  bytes(name).length */\n      mload\n        /* \"DIDTeacher.sol\":3201:3223  bytes(name).length > 0 */\n      gt\n        /* \"DIDTeacher.sol\":3193:3248  require(bytes(name).length > 0, \"Name cannot be empty\") */\n      tag_49\n      jumpi\n      mload(0x40)\n      0x08c379a000000000000000000000000000000000000000000000000000000000\n      dup2\n      mstore\n      0x04\n      add\n      tag_50\n      swap1\n      tag_51\n      jump\t// in\n    tag_50:\n      mload(0x40)\n      dup1\n      swap2\n      sub\n      swap1\n      revert\n    tag_49:\n        /* \"DIDTeacher.sol\":3288:3289  0 */\n      0x00\n        /* \"DIDTeacher.sol\":3272:3277  email */\n      dup3\n        /* \"DIDTeacher.sol\":3266:3285  bytes(email).length */\n      mload\n        /* \"DIDTeacher.sol\":3266:3289  bytes(email).length > 0 */\n      gt\n        /* \"DIDTeacher.sol\":3258:3315  require(bytes(email).length > 0, \"Email cannot be empty\") */\n      tag_52\n      jumpi\n      mload(0x40)\n      0x08c379a000000000000000000000000000000000000000000000000000000000\n      dup2\n      mstore\n      0x04\n      add\n      tag_53\n      swap1\n      tag_54\n      jump\t// in\n    tag_53:\n      mload(0x40)\n      dup1\n      swap2\n      sub\n      swap1\n      revert\n    tag_52:\n        /* \"DIDTeacher.sol\":3364:3365  0 */\n      0x00\n        /* \"DIDTeacher.sol\":3339:3353  profilePicture */\n      dup2\n        /* \"DIDTeacher.sol\":3333:3361  bytes(profilePicture).length */\n      mload\n        /* \"DIDTeacher.sol\":3333:3365  bytes(profilePicture).length > 0 */\n      gt\n        /* \"DIDTeacher.sol\":3325:3401  require(bytes(profilePicture).length > 0, \"Profile picture cannot be empty\") */\n      tag_55\n      jumpi\n      mload(0x40)\n      0x08c379a000000000000000000000000000000000000000000000000000000000\n      dup2\n      mstore\n      0x04\n      add\n      tag_56\n      swap1\n      tag_57\n      jump\t// in\n    tag_56:\n      mload(0x40)\n      dup1\n      swap2\n      sub\n      swap1\n      revert\n    tag_55:\n        /* \"DIDTeacher.sol\":3453:3454  0 */\n      0x00\n        /* \"DIDTeacher.sol\":3419:3455  dids[msg.sender].owner != address(0) */\n      0xffffffffffffffffffffffffffffffffffffffff\n      and\n        /* \"DIDTeacher.sol\":3419:3423  dids */\n      0x00\n        /* \"DIDTeacher.sol\":3419:3435  dids[msg.sender] */\n      dup1\n        /* \"DIDTeacher.sol\":3424:3434  msg.sender */\n      caller\n        /* \"DIDTeacher.sol\":3419:3435  dids[msg.sender] */\n      0xffffffffffffffffffffffffffffffffffffffff\n      and\n      0xffffffffffffffffffffffffffffffffffffffff\n      and\n      dup2\n      mstore\n      0x20\n      add\n      swap1\n      dup2\n      mstore\n      0x20\n      add\n      0x00\n      keccak256\n        /* \"DIDTeacher.sol\":3419:3441  dids[msg.sender].owner */\n      0x01\n      add\n      0x00\n      swap1\n      sload\n      swap1\n      0x0100\n      exp\n      swap1\n      div\n      0xffffffffffffffffffffffffffffffffffffffff\n      and\n        /* \"DIDTeacher.sol\":3419:3455  dids[msg.sender].owner != address(0) */\n      0xffffffffffffffffffffffffffffffffffffffff\n      and\n      sub\n        /* \"DIDTeacher.sol\":3411:3489  require(dids[msg.sender].owner != address(0), \"No DID found for this address\") */\n      tag_58\n      jumpi\n      mload(0x40)\n      0x08c379a000000000000000000000000000000000000000000000000000000000\n      dup2\n      mstore\n      0x04\n      add\n      tag_59\n      swap1\n      tag_60\n      jump\t// in\n    tag_59:\n      mload(0x40)\n      dup1\n      swap2\n      sub\n      swap1\n      revert\n    tag_58:\n        /* \"DIDTeacher.sol\":3523:3560  MetaData(name, email, profilePicture) */\n      mload(0x40)\n      dup1\n      0x60\n      add\n      0x40\n      mstore\n      dup1\n        /* \"DIDTeacher.sol\":3532:3536  name */\n      dup5\n        /* \"DIDTeacher.sol\":3523:3560  MetaData(name, email, profilePicture) */\n      dup2\n      mstore\n      0x20\n      add\n        /* \"DIDTeacher.sol\":3538:3543  email */\n      dup4\n        /* \"DIDTeacher.sol\":3523:3560  MetaData(name, email, profilePicture) */\n      dup2\n      mstore\n      0x20\n      add\n        /* \"DIDTeacher.sol\":3545:3559  profilePicture */\n      dup3\n        /* \"DIDTeacher.sol\":3523:3560  MetaData(name, email, profilePicture) */\n      dup2\n      mstore\n      pop\n        /* \"DIDTeacher.sol\":3499:3508  metadatas */\n      0x03\n        /* \"DIDTeacher.sol\":3499:3520  metadatas[msg.sender] */\n      0x00\n        /* \"DIDTeacher.sol\":3509:3519  msg.sender */\n      caller\n        /* \"DIDTeacher.sol\":3499:3520  metadatas[msg.sender] */\n      0xffffffffffffffffffffffffffffffffffffffff\n      and\n      0xffffffffffffffffffffffffffffffffffffffff\n      and\n      dup2\n      mstore\n      0x20\n      add\n      swap1\n      dup2\n      mstore\n      0x20\n      add\n      0x00\n      keccak256\n        /* \"DIDTeacher.sol\":3499:3560  metadatas[msg.sender] = MetaData(name, email, profilePicture) */\n      0x00\n      dup3\n      add\n      mload\n      dup2\n      0x00\n      add\n      swap1\n      dup2\n      tag_61\n      swap2\n      swap1\n      tag_43\n      jump\t// in\n    tag_61:\n      pop\n      0x20\n      dup3\n      add\n      mload\n      dup2\n      0x01\n      add\n      swap1\n      dup2\n      tag_62\n      swap2\n      swap1\n      tag_43\n      jump\t// in\n    tag_62:\n      pop\n      0x40\n      dup3\n      add\n      mload\n      dup2\n      0x02\n      add\n      swap1\n      dup2\n      tag_63\n      swap2\n      swap1\n      tag_43\n      jump\t// in\n    tag_63:\n      pop\n      swap1\n      pop\n      pop\n        /* \"DIDTeacher.sol\":3588:3598  msg.sender */\n      caller\n        /* \"DIDTeacher.sol\":3576:3628  SetMetaData(msg.sender, name, email, profilePicture) */\n      0xffffffffffffffffffffffffffffffffffffffff\n      and\n      0x65d0ee13464c98c4cc59b1e8669c3b1e26d6ccc62ec1811070773f0c7903df2f\n        /* \"DIDTeacher.sol\":3600:3604  name */\n      dup5\n        /* \"DIDTeacher.sol\":3606:3611  email */\n      dup5\n        /* \"DIDTeacher.sol\":3613:3627  profilePicture */\n      dup5\n        /* \"DIDTeacher.sol\":3576:3628  SetMetaData(msg.sender, name, email, profilePicture) */\n      mload(0x40)\n      tag_64\n      swap4\n      swap3\n      swap2\n      swap1\n      tag_65\n      jump\t// in\n    tag_64:\n      mload(0x40)\n      dup1\n      swap2\n      sub\n      swap1\n      log2\n        /* \"DIDTeacher.sol\":3086:3635  function setMetadata(string memory name, string memory email, string memory profilePicture)public{... */\n      pop\n      pop\n      pop\n      jump\t// out\n        /* \"DIDTeacher.sol\":2541:2880  function createDID(string memory _identifier) public {... */\n    tag_20:\n        /* \"DIDTeacher.sol\":2640:2641  0 */\n      0x00\n        /* \"DIDTeacher.sol\":2618:2629  _identifier */\n      dup2\n        /* \"DIDTeacher.sol\":2612:2637  bytes(_identifier).length */\n      mload\n        /* \"DIDTeacher.sol\":2612:2641  bytes(_identifier).length > 0 */\n      gt\n        /* \"DIDTeacher.sol\":2604:2672  require(bytes(_identifier).length > 0, \"Identifier cannot be empty\") */\n      tag_67\n      jumpi\n      mload(0x40)\n      0x08c379a000000000000000000000000000000000000000000000000000000000\n      dup2\n      mstore\n      0x04\n      add\n      tag_68\n      swap1\n      tag_69\n      jump\t// in\n    tag_68:\n      mload(0x40)\n      dup1\n      swap2\n      sub\n      swap1\n      revert\n    tag_67:\n        /* \"DIDTeacher.sol\":2724:2725  0 */\n      0x00\n        /* \"DIDTeacher.sol\":2690:2726  dids[msg.sender].owner == address(0) */\n      0xffffffffffffffffffffffffffffffffffffffff\n      and\n        /* \"DIDTeacher.sol\":2690:2694  dids */\n      0x00\n        /* \"DIDTeacher.sol\":2690:2706  dids[msg.sender] */\n      dup1\n        /* \"DIDTeacher.sol\":2695:2705  msg.sender */\n      caller\n        /* \"DIDTeacher.sol\":2690:2706  dids[msg.sender] */\n      0xffffffffffffffffffffffffffffffffffffffff\n      and\n      0xffffffffffffffffffffffffffffffffffffffff\n      and\n      dup2\n      mstore\n      0x20\n      add\n      swap1\n      dup2\n      mstore\n      0x20\n      add\n      0x00\n      keccak256\n        /* \"DIDTeacher.sol\":2690:2712  dids[msg.sender].owner */\n      0x01\n      add\n      0x00\n      swap1\n      sload\n      swap1\n      0x0100\n      exp\n      swap1\n      div\n      0xffffffffffffffffffffffffffffffffffffffff\n      and\n        /* \"DIDTeacher.sol\":2690:2726  dids[msg.sender].owner == address(0) */\n      0xffffffffffffffffffffffffffffffffffffffff\n      and\n      eq\n        /* \"DIDTeacher.sol\":2682:2749  require(dids[msg.sender].owner == address(0), \"DID already exists\") */\n      tag_70\n      jumpi\n      mload(0x40)\n      0x08c379a000000000000000000000000000000000000000000000000000000000\n      dup2\n      mstore\n      0x04\n      add\n      tag_71\n      swap1\n      tag_72\n      jump\t// in\n    tag_71:\n      mload(0x40)\n      dup1\n      swap2\n      sub\n      swap1\n      revert\n    tag_70:\n        /* \"DIDTeacher.sol\":2778:2823  DID(_identifier, msg.sender, block.timestamp) */\n      mload(0x40)\n      dup1\n      0x60\n      add\n      0x40\n      mstore\n      dup1\n        /* \"DIDTeacher.sol\":2782:2793  _identifier */\n      dup3\n        /* \"DIDTeacher.sol\":2778:2823  DID(_identifier, msg.sender, block.timestamp) */\n      dup2\n      mstore\n      0x20\n      add\n        /* \"DIDTeacher.sol\":2795:2805  msg.sender */\n      caller\n        /* \"DIDTeacher.sol\":2778:2823  DID(_identifier, msg.sender, block.timestamp) */\n      0xffffffffffffffffffffffffffffffffffffffff\n      and\n      dup2\n      mstore\n      0x20\n      add\n        /* \"DIDTeacher.sol\":2807:2822  block.timestamp */\n      timestamp\n        /* \"DIDTeacher.sol\":2778:2823  DID(_identifier, msg.sender, block.timestamp) */\n      dup2\n      mstore\n      pop\n        /* \"DIDTeacher.sol\":2759:2763  dids */\n      0x00\n        /* \"DIDTeacher.sol\":2759:2775  dids[msg.sender] */\n      dup1\n        /* \"DIDTeacher.sol\":2764:2774  msg.sender */\n      caller\n        /* \"DIDTeacher.sol\":2759:2775  dids[msg.sender] */\n      0xffffffffffffffffffffffffffffffffffffffff\n      and\n      0xffffffffffffffffffffffffffffffffffffffff\n      and\n      dup2\n      mstore\n      0x20\n      add\n      swap1\n      dup2\n      mstore\n      0x20\n      add\n      0x00\n      keccak256\n        /* \"DIDTeacher.sol\":2759:2823  dids[msg.sender] = DID(_identifier, msg.sender, block.timestamp) */\n      0x00\n      dup3\n      add\n      mload\n      dup2\n      0x00\n      add\n      swap1\n      dup2\n      tag_73\n      swap2\n      swap1\n      tag_43\n      jump\t// in\n    tag_73:\n      pop\n      0x20\n      dup3\n      add\n      mload\n      dup2\n      0x01\n      add\n      exp(0x0100, 0x00)\n      dup2\n      sload\n      dup2\n      0xffffffffffffffffffffffffffffffffffffffff\n      mul\n      not\n      and\n      swap1\n      dup4\n      0xffffffffffffffffffffffffffffffffffffffff\n      and\n      mul\n      or\n      swap1\n      sstore\n      pop\n      0x40\n      dup3\n      add\n      mload\n      dup2\n      0x02\n      add\n      sstore\n      swap1\n      pop\n      pop\n        /* \"DIDTeacher.sol\":2849:2859  msg.sender */\n      caller\n        /* \"DIDTeacher.sol\":2838:2873  DIDCreated(msg.sender, _identifier) */\n      0xffffffffffffffffffffffffffffffffffffffff\n      and\n      0x1b7934654ba536b6962955e057ce42885353bbaad8c605a5ce0678e632f28410\n        /* \"DIDTeacher.sol\":2861:2872  _identifier */\n      dup3\n        /* \"DIDTeacher.sol\":2838:2873  DIDCreated(msg.sender, _identifier) */\n      mload(0x40)\n      tag_74\n      swap2\n      swap1\n      tag_31\n      jump\t// in\n    tag_74:\n      mload(0x40)\n      dup1\n      swap2\n      sub\n      swap1\n      log2\n        /* \"DIDTeacher.sol\":2541:2880  function createDID(string memory _identifier) public {... */\n      pop\n      jump\t// out\n        /* \"DIDTeacher.sol\":3641:3824  function getMetadata() public view returns (MetaData memory){... */\n    tag_22:\n        /* \"DIDTeacher.sol\":3685:3700  MetaData memory */\n      tag_75\n      tag_76\n      jump\t// in\n    tag_75:\n        /* \"DIDTeacher.sol\":3753:3754  0 */\n      0x00\n        /* \"DIDTeacher.sol\":3719:3755  dids[msg.sender].owner != address(0) */\n      0xffffffffffffffffffffffffffffffffffffffff\n      and\n        /* \"DIDTeacher.sol\":3719:3723  dids */\n      0x00\n        /* \"DIDTeacher.sol\":3719:3735  dids[msg.sender] */\n      dup1\n        /* \"DIDTeacher.sol\":3724:3734  msg.sender */\n      caller\n        /* \"DIDTeacher.sol\":3719:3735  dids[msg.sender] */\n      0xffffffffffffffffffffffffffffffffffffffff\n      and\n      0xffffffffffffffffffffffffffffffffffffffff\n      and\n      dup2\n      mstore\n      0x20\n      add\n      swap1\n      dup2\n      mstore\n      0x20\n      add\n      0x00\n      keccak256\n        /* \"DIDTeacher.sol\":3719:3741  dids[msg.sender].owner */\n      0x01\n      add\n      0x00\n      swap1\n      sload\n      swap1\n      0x0100\n      exp\n      swap1\n      div\n      0xffffffffffffffffffffffffffffffffffffffff\n      and\n        /* \"DIDTeacher.sol\":3719:3755  dids[msg.sender].owner != address(0) */\n      0xffffffffffffffffffffffffffffffffffffffff\n      and\n      sub\n        /* \"DIDTeacher.sol\":3711:3779  require(dids[msg.sender].owner != address(0), \"Data does not exist\") */\n      tag_78\n      jumpi\n      mload(0x40)\n      0x08c379a000000000000000000000000000000000000000000000000000000000\n      dup2\n      mstore\n      0x04\n      add\n      tag_79\n      swap1\n      tag_80\n      jump\t// in\n    tag_79:\n      mload(0x40)\n      dup1\n      swap2\n      sub\n      swap1\n      revert\n    tag_78:\n        /* \"DIDTeacher.sol\":3796:3805  metadatas */\n      0x03\n        /* \"DIDTeacher.sol\":3796:3817  metadatas[msg.sender] */\n      0x00\n        /* \"DIDTeacher.sol\":3806:3816  msg.sender */\n      caller\n        /* \"DIDTeacher.sol\":3796:3817  metadatas[msg.sender] */\n      0xffffffffffffffffffffffffffffffffffffffff\n      and\n      0xffffffffffffffffffffffffffffffffffffffff\n      and\n      dup2\n      mstore\n      0x20\n      add\n      swap1\n      dup2\n      mstore\n      0x20\n      add\n      0x00\n      keccak256\n        /* \"DIDTeacher.sol\":3789:3817  return metadatas[msg.sender] */\n      mload(0x40)\n      dup1\n      0x60\n      add\n      0x40\n      mstore\n      swap1\n      dup2\n      0x00\n      dup3\n      add\n      dup1\n      sload\n      tag_81\n      swap1\n      tag_82\n      jump\t// in\n    tag_81:\n      dup1\n      0x1f\n      add\n      0x20\n      dup1\n      swap2\n      div\n      mul\n      0x20\n      add\n      mload(0x40)\n      swap1\n      dup2\n      add\n      0x40\n      mstore\n      dup1\n      swap3\n      swap2\n      swap1\n      dup2\n      dup2\n      mstore\n      0x20\n      add\n      dup3\n      dup1\n      sload\n      tag_83\n      swap1\n      tag_82\n      jump\t// in\n    tag_83:\n      dup1\n      iszero\n      tag_84\n      jumpi\n      dup1\n      0x1f\n      lt\n      tag_85\n      jumpi\n      0x0100\n      dup1\n      dup4\n      sload\n      div\n      mul\n      dup4\n      mstore\n      swap2\n      0x20\n      add\n      swap2\n      jump(tag_84)\n    tag_85:\n      dup3\n      add\n      swap2\n      swap1\n      0x00\n      mstore\n      keccak256(0x00, 0x20)\n      swap1\n    tag_86:\n      dup2\n      sload\n      dup2\n      mstore\n      swap1\n      0x01\n      add\n      swap1\n      0x20\n      add\n      dup1\n      dup4\n      gt\n      tag_86\n      jumpi\n      dup3\n      swap1\n      sub\n      0x1f\n      and\n      dup3\n      add\n      swap2\n    tag_84:\n      pop\n      pop\n      pop\n      pop\n      pop\n      dup2\n      mstore\n      0x20\n      add\n      0x01\n      dup3\n      add\n      dup1\n      sload\n      tag_87\n      swap1\n      tag_82\n      jump\t// in\n    tag_87:\n      dup1\n      0x1f\n      add\n      0x20\n      dup1\n      swap2\n      div\n      mul\n      0x20\n      add\n      mload(0x40)\n      swap1\n      dup2\n      add\n      0x40\n      mstore\n      dup1\n      swap3\n      swap2\n      swap1\n      dup2\n      dup2\n      mstore\n      0x20\n      add\n      dup3\n      dup1\n      sload\n      tag_88\n      swap1\n      tag_82\n      jump\t// in\n    tag_88:\n      dup1\n      iszero\n      tag_89\n      jumpi\n      dup1\n      0x1f\n      lt\n      tag_90\n      jumpi\n      0x0100\n      dup1\n      dup4\n      sload\n      div\n      mul\n      dup4\n      mstore\n      swap2\n      0x20\n      add\n      swap2\n      jump(tag_89)\n    tag_90:\n      dup3\n      add\n      swap2\n      swap1\n      0x00\n      mstore\n      keccak256(0x00, 0x20)\n      swap1\n    tag_91:\n      dup2\n      sload\n      dup2\n      mstore\n      swap1\n      0x01\n      add\n      swap1\n      0x20\n      add\n      dup1\n      dup4\n      gt\n      tag_91\n      jumpi\n      dup3\n      swap1\n      sub\n      0x1f\n      and\n      dup3\n      add\n      swap2\n    tag_89:\n      pop\n      pop\n      pop\n      pop\n      pop\n      dup2\n      mstore\n      0x20\n      add\n      0x02\n      dup3\n      add\n      dup1\n      sload\n      tag_92\n      swap1\n      tag_82\n      jump\t// in\n    tag_92:\n      dup1\n      0x1f\n      add\n      0x20\n      dup1\n      swap2\n      div\n      mul\n      0x20\n      add\n      mload(0x40)\n      swap1\n      dup2\n      add\n      0x40\n      mstore\n      dup1\n      swap3\n      swap2\n      swap1\n      dup2\n      dup2\n      mstore\n      0x20\n      add\n      dup3\n      dup1\n      sload\n      tag_93\n      swap1\n      tag_82\n      jump\t// in\n    tag_93:\n      dup1\n      iszero\n      tag_94\n      jumpi\n      dup1\n      0x1f\n      lt\n      tag_95\n      jumpi\n      0x0100\n      dup1\n      dup4\n      sload\n      div\n      mul\n      dup4\n      mstore\n      swap2\n      0x20\n      add\n      swap2\n      jump(tag_94)\n    tag_95:\n      dup3\n      add\n      swap2\n      swap1\n      0x00\n      mstore\n      keccak256(0x00, 0x20)\n      swap1\n    tag_96:\n      dup2\n      sload\n      dup2\n      mstore\n      swap1\n      0x01\n      add\n      swap1\n      0x20\n      add\n      dup1\n      dup4\n      gt\n      tag_96\n      jumpi\n      dup3\n      swap1\n      sub\n      0x1f\n      and\n      dup3\n      add\n      swap2\n    tag_94:\n      pop\n      pop\n      pop\n      pop\n      pop\n      dup2\n      mstore\n      pop\n      pop\n      swap1\n      pop\n        /* \"DIDTeacher.sol\":3641:3824  function getMetadata() public view returns (MetaData memory){... */\n      swap1\n      jump\t// out\n        /* \"DIDTeacher.sol\":1116:1507  function assignRole(address _user, string memory _role) public ... */\n    tag_27:\n        /* \"DIDTeacher.sol\":1236:1237  0 */\n      0x00\n        /* \"DIDTeacher.sol\":1202:1238  dids[msg.sender].owner != address(0) */\n      0xffffffffffffffffffffffffffffffffffffffff\n      and\n        /* \"DIDTeacher.sol\":1202:1206  dids */\n      0x00\n        /* \"DIDTeacher.sol\":1202:1218  dids[msg.sender] */\n      dup1\n        /* \"DIDTeacher.sol\":1207:1217  msg.sender */\n      caller\n        /* \"DIDTeacher.sol\":1202:1218  dids[msg.sender] */\n      0xffffffffffffffffffffffffffffffffffffffff\n      and\n      0xffffffffffffffffffffffffffffffffffffffff\n      and\n      dup2\n      mstore\n      0x20\n      add\n      swap1\n      dup2\n      mstore\n      0x20\n      add\n      0x00\n      keccak256\n        /* \"DIDTeacher.sol\":1202:1224  dids[msg.sender].owner */\n      0x01\n      add\n      0x00\n      swap1\n      sload\n      swap1\n      0x0100\n      exp\n      swap1\n      div\n      0xffffffffffffffffffffffffffffffffffffffff\n      and\n        /* \"DIDTeacher.sol\":1202:1238  dids[msg.sender].owner != address(0) */\n      0xffffffffffffffffffffffffffffffffffffffff\n      and\n      sub\n        /* \"DIDTeacher.sol\":1194:1265  require(dids[msg.sender].owner != address(0) ,\"Issuer must have a DID\") */\n      tag_98\n      jumpi\n      mload(0x40)\n      0x08c379a000000000000000000000000000000000000000000000000000000000\n      dup2\n      mstore\n      0x04\n      add\n      tag_99\n      swap1\n      tag_35\n      jump\t// in\n    tag_99:\n      mload(0x40)\n      dup1\n      swap2\n      sub\n      swap1\n      revert\n    tag_98:\n        /* \"DIDTeacher.sol\":1305:1306  0 */\n      0x00\n        /* \"DIDTeacher.sol\":1289:1294  _role */\n      dup2\n        /* \"DIDTeacher.sol\":1283:1302  bytes(_role).length */\n      mload\n        /* \"DIDTeacher.sol\":1283:1306  bytes(_role).length > 0 */\n      gt\n        /* \"DIDTeacher.sol\":1275:1332  require(bytes(_role).length > 0 , \"Role cannot be empty\") */\n      tag_100\n      jumpi\n      mload(0x40)\n      0x08c379a000000000000000000000000000000000000000000000000000000000\n      dup2\n      mstore\n      0x04\n      add\n      tag_101\n      swap1\n      tag_38\n      jump\t// in\n    tag_101:\n      mload(0x40)\n      dup1\n      swap2\n      sub\n      swap1\n      revert\n    tag_100:\n        /* \"DIDTeacher.sol\":1357:1362  _role */\n      dup1\n        /* \"DIDTeacher.sol\":1342:1347  roles */\n      0x01\n        /* \"DIDTeacher.sol\":1342:1354  roles[_user] */\n      0x00\n        /* \"DIDTeacher.sol\":1348:1353  _user */\n      dup5\n        /* \"DIDTeacher.sol\":1342:1354  roles[_user] */\n      0xffffffffffffffffffffffffffffffffffffffff\n      and\n      0xffffffffffffffffffffffffffffffffffffffff\n      and\n      dup2\n      mstore\n      0x20\n      add\n      swap1\n      dup2\n      mstore\n      0x20\n      add\n      0x00\n      keccak256\n        /* \"DIDTeacher.sol\":1342:1362  roles[_user] = _role */\n      swap1\n      dup2\n      tag_102\n      swap2\n      swap1\n      tag_43\n      jump\t// in\n    tag_102:\n      pop\n        /* \"DIDTeacher.sol\":1430:1441  roleHistory */\n      0x02\n        /* \"DIDTeacher.sol\":1430:1448  roleHistory[_user] */\n      0x00\n        /* \"DIDTeacher.sol\":1442:1447  _user */\n      dup4\n        /* \"DIDTeacher.sol\":1430:1448  roleHistory[_user] */\n      0xffffffffffffffffffffffffffffffffffffffff\n      and\n      0xffffffffffffffffffffffffffffffffffffffff\n      and\n      dup2\n      mstore\n      0x20\n      add\n      swap1\n      dup2\n      mstore\n      0x20\n      add\n      0x00\n      keccak256\n        /* \"DIDTeacher.sol\":1454:1459  _role */\n      dup2\n        /* \"DIDTeacher.sol\":1430:1460  roleHistory[_user].push(_role) */\n      swap1\n      dup1\n      0x01\n      dup2\n      sload\n      add\n      dup1\n      dup3\n      sstore\n      dup1\n      swap2\n      pop\n      pop\n      0x01\n      swap1\n      sub\n      swap1\n      0x00\n      mstore\n      keccak256(0x00, 0x20)\n      add\n      0x00\n      swap1\n      swap2\n      swap1\n      swap2\n      swap1\n      swap2\n      pop\n      swap1\n      dup2\n      tag_104\n      swap2\n      swap1\n      tag_43\n      jump\t// in\n    tag_104:\n      pop\n        /* \"DIDTeacher.sol\":1486:1491  _user */\n      dup2\n        /* \"DIDTeacher.sol\":1475:1499  RoleAssign(_user, _role) */\n      0xffffffffffffffffffffffffffffffffffffffff\n      and\n      0x955a8164e26d3082026a4713bbcc2102183cd483ccf49d50cc35fb4e97d540d0\n        /* \"DIDTeacher.sol\":1493:1498  _role */\n      dup3\n        /* \"DIDTeacher.sol\":1475:1499  RoleAssign(_user, _role) */\n      mload(0x40)\n      tag_105\n      swap2\n      swap1\n      tag_31\n      jump\t// in\n    tag_105:\n      mload(0x40)\n      dup1\n      swap2\n      sub\n      swap1\n      log2\n        /* \"DIDTeacher.sol\":1116:1507  function assignRole(address _user, string memory _role) public ... */\n      pop\n      pop\n      jump\t// out\n        /* \"DIDTeacher.sol\":2886:3080  function getDID() public view returns (string memory) {... */\n    tag_29:\n        /* \"DIDTeacher.sol\":2925:2938  string memory */\n      0x60\n        /* \"DIDTeacher.sol\":2992:2993  0 */\n      0x00\n        /* \"DIDTeacher.sol\":2958:2994  dids[msg.sender].owner != address(0) */\n      0xffffffffffffffffffffffffffffffffffffffff\n      and\n        /* \"DIDTeacher.sol\":2958:2962  dids */\n      0x00\n        /* \"DIDTeacher.sol\":2958:2974  dids[msg.sender] */\n      dup1\n        /* \"DIDTeacher.sol\":2963:2973  msg.sender */\n      caller\n        /* \"DIDTeacher.sol\":2958:2974  dids[msg.sender] */\n      0xffffffffffffffffffffffffffffffffffffffff\n      and\n      0xffffffffffffffffffffffffffffffffffffffff\n      and\n      dup2\n      mstore\n      0x20\n      add\n      swap1\n      dup2\n      mstore\n      0x20\n      add\n      0x00\n      keccak256\n        /* \"DIDTeacher.sol\":2958:2980  dids[msg.sender].owner */\n      0x01\n      add\n      0x00\n      swap1\n      sload\n      swap1\n      0x0100\n      exp\n      swap1\n      div\n      0xffffffffffffffffffffffffffffffffffffffff\n      and\n        /* \"DIDTeacher.sol\":2958:2994  dids[msg.sender].owner != address(0) */\n      0xffffffffffffffffffffffffffffffffffffffff\n      and\n      sub\n        /* \"DIDTeacher.sol\":2950:3028  require(dids[msg.sender].owner != address(0), \"No DID found for this address\") */\n      tag_107\n      jumpi\n      mload(0x40)\n      0x08c379a000000000000000000000000000000000000000000000000000000000\n      dup2\n      mstore\n      0x04\n      add\n      tag_108\n      swap1\n      tag_60\n      jump\t// in\n    tag_108:\n      mload(0x40)\n      dup1\n      swap2\n      sub\n      swap1\n      revert\n    tag_107:\n        /* \"DIDTeacher.sol\":3046:3050  dids */\n      0x00\n        /* \"DIDTeacher.sol\":3046:3062  dids[msg.sender] */\n      dup1\n        /* \"DIDTeacher.sol\":3051:3061  msg.sender */\n      caller\n        /* \"DIDTeacher.sol\":3046:3062  dids[msg.sender] */\n      0xffffffffffffffffffffffffffffffffffffffff\n      and\n      0xffffffffffffffffffffffffffffffffffffffff\n      and\n      dup2\n      mstore\n      0x20\n      add\n      swap1\n      dup2\n      mstore\n      0x20\n      add\n      0x00\n      keccak256\n        /* \"DIDTeacher.sol\":3046:3073  dids[msg.sender].identifier */\n      0x00\n      add\n        /* \"DIDTeacher.sol\":3039:3073  return dids[msg.sender].identifier */\n      dup1\n      sload\n      tag_109\n      swap1\n      tag_82\n      jump\t// in\n    tag_109:\n      dup1\n      0x1f\n      add\n      0x20\n      dup1\n      swap2\n      div\n      mul\n      0x20\n      add\n      mload(0x40)\n      swap1\n      dup2\n      add\n      0x40\n      mstore\n      dup1\n      swap3\n      swap2\n      swap1\n      dup2\n      dup2\n      mstore\n      0x20\n      add\n      dup3\n      dup1\n      sload\n      tag_110\n      swap1\n      tag_82\n      jump\t// in\n    tag_110:\n      dup1\n      iszero\n      tag_111\n      jumpi\n      dup1\n      0x1f\n      lt\n      tag_112\n      jumpi\n      0x0100\n      dup1\n      dup4\n      sload\n      div\n      mul\n      dup4\n      mstore\n      swap2\n      0x20\n      add\n      swap2\n      jump(tag_111)\n    tag_112:\n      dup3\n      add\n      swap2\n      swap1\n      0x00\n      mstore\n      keccak256(0x00, 0x20)\n      swap1\n    tag_113:\n      dup2\n      sload\n      dup2\n      mstore\n      swap1\n      0x01\n      add\n      swap1\n      0x20\n      add\n      dup1\n      dup4\n      gt\n      tag_113\n      jumpi\n      dup3\n      swap1\n      sub\n      0x1f\n      and\n      dup3\n      add\n      swap2\n    tag_111:\n      pop\n      pop\n      pop\n      pop\n      pop\n      swap1\n      pop\n        /* \"DIDTeacher.sol\":2886:3080  function getDID() public view returns (string memory) {... */\n      swap1\n      jump\t// out\n    tag_76:\n      mload(0x40)\n      dup1\n      0x60\n      add\n      0x40\n      mstore\n      dup1\n      0x60\n      dup2\n      mstore\n      0x20\n      add\n      0x60\n      dup2\n      mstore\n      0x20\n      add\n      0x60\n      dup2\n      mstore\n      pop\n      swap1\n      jump\t// out\n        /* \"#utility.yul\":7:82   */\n    tag_114:\n        /* \"#utility.yul\":40:46   */\n      0x00\n        /* \"#utility.yul\":73:75   */\n      0x40\n        /* \"#utility.yul\":67:76   */\n      mload\n        /* \"#utility.yul\":57:76   */\n      swap1\n      pop\n        /* \"#utility.yul\":7:82   */\n      swap1\n      jump\t// out\n        /* \"#utility.yul\":88:205   */\n    tag_115:\n        /* \"#utility.yul\":197:198   */\n      0x00\n        /* \"#utility.yul\":194:195   */\n      dup1\n        /* \"#utility.yul\":187:199   */\n      revert\n        /* \"#utility.yul\":211:328   */\n    tag_116:\n        /* \"#utility.yul\":320:321   */\n      0x00\n        /* \"#utility.yul\":317:318   */\n      dup1\n        /* \"#utility.yul\":310:322   */\n      revert\n        /* \"#utility.yul\":334:460   */\n    tag_117:\n        /* \"#utility.yul\":371:378   */\n      0x00\n        /* \"#utility.yul\":411:453   */\n      0xffffffffffffffffffffffffffffffffffffffff\n        /* \"#utility.yul\":404:409   */\n      dup3\n        /* \"#utility.yul\":400:454   */\n      and\n        /* \"#utility.yul\":389:454   */\n      swap1\n      pop\n        /* \"#utility.yul\":334:460   */\n      swap2\n      swap1\n      pop\n      jump\t// out\n        /* \"#utility.yul\":466:562   */\n    tag_118:\n        /* \"#utility.yul\":503:510   */\n      0x00\n        /* \"#utility.yul\":532:556   */\n      tag_190\n        /* \"#utility.yul\":550:555   */\n      dup3\n        /* \"#utility.yul\":532:556   */\n      tag_117\n      jump\t// in\n    tag_190:\n        /* \"#utility.yul\":521:556   */\n      swap1\n      pop\n        /* \"#utility.yul\":466:562   */\n      swap2\n      swap1\n      pop\n      jump\t// out\n        /* \"#utility.yul\":568:690   */\n    tag_119:\n        /* \"#utility.yul\":641:665   */\n      tag_192\n        /* \"#utility.yul\":659:664   */\n      dup2\n        /* \"#utility.yul\":641:665   */\n      tag_118\n      jump\t// in\n    tag_192:\n        /* \"#utility.yul\":634:639   */\n      dup2\n        /* \"#utility.yul\":631:666   */\n      eq\n        /* \"#utility.yul\":621:684   */\n      tag_193\n      jumpi\n        /* \"#utility.yul\":680:681   */\n      0x00\n        /* \"#utility.yul\":677:678   */\n      dup1\n        /* \"#utility.yul\":670:682   */\n      revert\n        /* \"#utility.yul\":621:684   */\n    tag_193:\n        /* \"#utility.yul\":568:690   */\n      pop\n      jump\t// out\n        /* \"#utility.yul\":696:835   */\n    tag_120:\n        /* \"#utility.yul\":742:747   */\n      0x00\n        /* \"#utility.yul\":780:786   */\n      dup2\n        /* \"#utility.yul\":767:787   */\n      calldataload\n        /* \"#utility.yul\":758:787   */\n      swap1\n      pop\n        /* \"#utility.yul\":796:829   */\n      tag_195\n        /* \"#utility.yul\":823:828   */\n      dup2\n        /* \"#utility.yul\":796:829   */\n      tag_119\n      jump\t// in\n    tag_195:\n        /* \"#utility.yul\":696:835   */\n      swap3\n      swap2\n      pop\n      pop\n      jump\t// out\n        /* \"#utility.yul\":841:958   */\n    tag_121:\n        /* \"#utility.yul\":950:951   */\n      0x00\n        /* \"#utility.yul\":947:948   */\n      dup1\n        /* \"#utility.yul\":940:952   */\n      revert\n        /* \"#utility.yul\":964:1081   */\n    tag_122:\n        /* \"#utility.yul\":1073:1074   */\n      0x00\n        /* \"#utility.yul\":1070:1071   */\n      dup1\n        /* \"#utility.yul\":1063:1075   */\n      revert\n        /* \"#utility.yul\":1087:1189   */\n    tag_123:\n        /* \"#utility.yul\":1128:1134   */\n      0x00\n        /* \"#utility.yul\":1179:1181   */\n      0x1f\n        /* \"#utility.yul\":1175:1182   */\n      not\n        /* \"#utility.yul\":1170:1172   */\n      0x1f\n        /* \"#utility.yul\":1163:1168   */\n      dup4\n        /* \"#utility.yul\":1159:1173   */\n      add\n        /* \"#utility.yul\":1155:1183   */\n      and\n        /* \"#utility.yul\":1145:1183   */\n      swap1\n      pop\n        /* \"#utility.yul\":1087:1189   */\n      swap2\n      swap1\n      pop\n      jump\t// out\n        /* \"#utility.yul\":1195:1375   */\n    tag_124:\n        /* \"#utility.yul\":1243:1320   */\n      0x4e487b7100000000000000000000000000000000000000000000000000000000\n        /* \"#utility.yul\":1240:1241   */\n      0x00\n        /* \"#utility.yul\":1233:1321   */\n      mstore\n        /* \"#utility.yul\":1340:1344   */\n      0x41\n        /* \"#utility.yul\":1337:1338   */\n      0x04\n        /* \"#utility.yul\":1330:1345   */\n      mstore\n        /* \"#utility.yul\":1364:1368   */\n      0x24\n        /* \"#utility.yul\":1361:1362   */\n      0x00\n        /* \"#utility.yul\":1354:1369   */\n      revert\n        /* \"#utility.yul\":1381:1662   */\n    tag_125:\n        /* \"#utility.yul\":1464:1491   */\n      tag_201\n        /* \"#utility.yul\":1486:1490   */\n      dup3\n        /* \"#utility.yul\":1464:1491   */\n      tag_123\n      jump\t// in\n    tag_201:\n        /* \"#utility.yul\":1456:1462   */\n      dup2\n        /* \"#utility.yul\":1452:1492   */\n      add\n        /* \"#utility.yul\":1594:1600   */\n      dup2\n        /* \"#utility.yul\":1582:1592   */\n      dup2\n        /* \"#utility.yul\":1579:1601   */\n      lt\n        /* \"#utility.yul\":1558:1576   */\n      0xffffffffffffffff\n        /* \"#utility.yul\":1546:1556   */\n      dup3\n        /* \"#utility.yul\":1543:1577   */\n      gt\n        /* \"#utility.yul\":1540:1602   */\n      or\n        /* \"#utility.yul\":1537:1625   */\n      iszero\n      tag_202\n      jumpi\n        /* \"#utility.yul\":1605:1623   */\n      tag_203\n      tag_124\n      jump\t// in\n    tag_203:\n        /* \"#utility.yul\":1537:1625   */\n    tag_202:\n        /* \"#utility.yul\":1645:1655   */\n      dup1\n        /* \"#utility.yul\":1641:1643   */\n      0x40\n        /* \"#utility.yul\":1634:1656   */\n      mstore\n        /* \"#utility.yul\":1424:1662   */\n      pop\n        /* \"#utility.yul\":1381:1662   */\n      pop\n      pop\n      jump\t// out\n        /* \"#utility.yul\":1668:1797   */\n    tag_126:\n        /* \"#utility.yul\":1702:1708   */\n      0x00\n        /* \"#utility.yul\":1729:1749   */\n      tag_205\n      tag_114\n      jump\t// in\n    tag_205:\n        /* \"#utility.yul\":1719:1749   */\n      swap1\n      pop\n        /* \"#utility.yul\":1758:1791   */\n      tag_206\n        /* \"#utility.yul\":1786:1790   */\n      dup3\n        /* \"#utility.yul\":1778:1784   */\n      dup3\n        /* \"#utility.yul\":1758:1791   */\n      tag_125\n      jump\t// in\n    tag_206:\n        /* \"#utility.yul\":1668:1797   */\n      swap2\n      swap1\n      pop\n      jump\t// out\n        /* \"#utility.yul\":1803:2111   */\n    tag_127:\n        /* \"#utility.yul\":1865:1869   */\n      0x00\n        /* \"#utility.yul\":1955:1973   */\n      0xffffffffffffffff\n        /* \"#utility.yul\":1947:1953   */\n      dup3\n        /* \"#utility.yul\":1944:1974   */\n      gt\n        /* \"#utility.yul\":1941:1997   */\n      iszero\n      tag_208\n      jumpi\n        /* \"#utility.yul\":1977:1995   */\n      tag_209\n      tag_124\n      jump\t// in\n    tag_209:\n        /* \"#utility.yul\":1941:1997   */\n    tag_208:\n        /* \"#utility.yul\":2015:2044   */\n      tag_210\n        /* \"#utility.yul\":2037:2043   */\n      dup3\n        /* \"#utility.yul\":2015:2044   */\n      tag_123\n      jump\t// in\n    tag_210:\n        /* \"#utility.yul\":2007:2044   */\n      swap1\n      pop\n        /* \"#utility.yul\":2099:2103   */\n      0x20\n        /* \"#utility.yul\":2093:2097   */\n      dup2\n        /* \"#utility.yul\":2089:2104   */\n      add\n        /* \"#utility.yul\":2081:2104   */\n      swap1\n      pop\n        /* \"#utility.yul\":1803:2111   */\n      swap2\n      swap1\n      pop\n      jump\t// out\n        /* \"#utility.yul\":2117:2265   */\n    tag_128:\n        /* \"#utility.yul\":2215:2221   */\n      dup3\n        /* \"#utility.yul\":2210:2213   */\n      dup2\n        /* \"#utility.yul\":2205:2208   */\n      dup4\n        /* \"#utility.yul\":2192:2222   */\n      calldatacopy\n        /* \"#utility.yul\":2256:2257   */\n      0x00\n        /* \"#utility.yul\":2247:2253   */\n      dup4\n        /* \"#utility.yul\":2242:2245   */\n      dup4\n        /* \"#utility.yul\":2238:2254   */\n      add\n        /* \"#utility.yul\":2231:2258   */\n      mstore\n        /* \"#utility.yul\":2117:2265   */\n      pop\n      pop\n      pop\n      jump\t// out\n        /* \"#utility.yul\":2271:2696   */\n    tag_129:\n        /* \"#utility.yul\":2349:2354   */\n      0x00\n        /* \"#utility.yul\":2374:2440   */\n      tag_213\n        /* \"#utility.yul\":2390:2439   */\n      tag_214\n        /* \"#utility.yul\":2432:2438   */\n      dup5\n        /* \"#utility.yul\":2390:2439   */\n      tag_127\n      jump\t// in\n    tag_214:\n        /* \"#utility.yul\":2374:2440   */\n      tag_126\n      jump\t// in\n    tag_213:\n        /* \"#utility.yul\":2365:2440   */\n      swap1\n      pop\n        /* \"#utility.yul\":2463:2469   */\n      dup3\n        /* \"#utility.yul\":2456:2461   */\n      dup2\n        /* \"#utility.yul\":2449:2470   */\n      mstore\n        /* \"#utility.yul\":2501:2505   */\n      0x20\n        /* \"#utility.yul\":2494:2499   */\n      dup2\n        /* \"#utility.yul\":2490:2506   */\n      add\n        /* \"#utility.yul\":2539:2542   */\n      dup5\n        /* \"#utility.yul\":2530:2536   */\n      dup5\n        /* \"#utility.yul\":2525:2528   */\n      dup5\n        /* \"#utility.yul\":2521:2537   */\n      add\n        /* \"#utility.yul\":2518:2543   */\n      gt\n        /* \"#utility.yul\":2515:2627   */\n      iszero\n      tag_215\n      jumpi\n        /* \"#utility.yul\":2546:2625   */\n      tag_216\n      tag_122\n      jump\t// in\n    tag_216:\n        /* \"#utility.yul\":2515:2627   */\n    tag_215:\n        /* \"#utility.yul\":2636:2690   */\n      tag_217\n        /* \"#utility.yul\":2683:2689   */\n      dup5\n        /* \"#utility.yul\":2678:2681   */\n      dup3\n        /* \"#utility.yul\":2673:2676   */\n      dup6\n        /* \"#utility.yul\":2636:2690   */\n      tag_128\n      jump\t// in\n    tag_217:\n        /* \"#utility.yul\":2355:2696   */\n      pop\n        /* \"#utility.yul\":2271:2696   */\n      swap4\n      swap3\n      pop\n      pop\n      pop\n      jump\t// out\n        /* \"#utility.yul\":2716:3056   */\n    tag_130:\n        /* \"#utility.yul\":2772:2777   */\n      0x00\n        /* \"#utility.yul\":2821:2824   */\n      dup3\n        /* \"#utility.yul\":2814:2818   */\n      0x1f\n        /* \"#utility.yul\":2806:2812   */\n      dup4\n        /* \"#utility.yul\":2802:2819   */\n      add\n        /* \"#utility.yul\":2798:2825   */\n      slt\n        /* \"#utility.yul\":2788:2910   */\n      tag_219\n      jumpi\n        /* \"#utility.yul\":2829:2908   */\n      tag_220\n      tag_121\n      jump\t// in\n    tag_220:\n        /* \"#utility.yul\":2788:2910   */\n    tag_219:\n        /* \"#utility.yul\":2946:2952   */\n      dup2\n        /* \"#utility.yul\":2933:2953   */\n      calldataload\n        /* \"#utility.yul\":2971:3050   */\n      tag_221\n        /* \"#utility.yul\":3046:3049   */\n      dup5\n        /* \"#utility.yul\":3038:3044   */\n      dup3\n        /* \"#utility.yul\":3031:3035   */\n      0x20\n        /* \"#utility.yul\":3023:3029   */\n      dup7\n        /* \"#utility.yul\":3019:3036   */\n      add\n        /* \"#utility.yul\":2971:3050   */\n      tag_129\n      jump\t// in\n    tag_221:\n        /* \"#utility.yul\":2962:3050   */\n      swap2\n      pop\n        /* \"#utility.yul\":2778:3056   */\n      pop\n        /* \"#utility.yul\":2716:3056   */\n      swap3\n      swap2\n      pop\n      pop\n      jump\t// out\n        /* \"#utility.yul\":3062:3716   */\n    tag_11:\n        /* \"#utility.yul\":3140:3146   */\n      0x00\n        /* \"#utility.yul\":3148:3154   */\n      dup1\n        /* \"#utility.yul\":3197:3199   */\n      0x40\n        /* \"#utility.yul\":3185:3194   */\n      dup4\n        /* \"#utility.yul\":3176:3183   */\n      dup6\n        /* \"#utility.yul\":3172:3195   */\n      sub\n        /* \"#utility.yul\":3168:3200   */\n      slt\n        /* \"#utility.yul\":3165:3284   */\n      iszero\n      tag_223\n      jumpi\n        /* \"#utility.yul\":3203:3282   */\n      tag_224\n      tag_115\n      jump\t// in\n    tag_224:\n        /* \"#utility.yul\":3165:3284   */\n    tag_223:\n        /* \"#utility.yul\":3323:3324   */\n      0x00\n        /* \"#utility.yul\":3348:3401   */\n      tag_225\n        /* \"#utility.yul\":3393:3400   */\n      dup6\n        /* \"#utility.yul\":3384:3390   */\n      dup3\n        /* \"#utility.yul\":3373:3382   */\n      dup7\n        /* \"#utility.yul\":3369:3391   */\n      add\n        /* \"#utility.yul\":3348:3401   */\n      tag_120\n      jump\t// in\n    tag_225:\n        /* \"#utility.yul\":3338:3401   */\n      swap3\n      pop\n        /* \"#utility.yul\":3294:3411   */\n      pop\n        /* \"#utility.yul\":3478:3480   */\n      0x20\n        /* \"#utility.yul\":3467:3476   */\n      dup4\n        /* \"#utility.yul\":3463:3481   */\n      add\n        /* \"#utility.yul\":3450:3482   */\n      calldataload\n        /* \"#utility.yul\":3509:3527   */\n      0xffffffffffffffff\n        /* \"#utility.yul\":3501:3507   */\n      dup2\n        /* \"#utility.yul\":3498:3528   */\n      gt\n        /* \"#utility.yul\":3495:3612   */\n      iszero\n      tag_226\n      jumpi\n        /* \"#utility.yul\":3531:3610   */\n      tag_227\n      tag_116\n      jump\t// in\n    tag_227:\n        /* \"#utility.yul\":3495:3612   */\n    tag_226:\n        /* \"#utility.yul\":3636:3699   */\n      tag_228\n        /* \"#utility.yul\":3691:3698   */\n      dup6\n        /* \"#utility.yul\":3682:3688   */\n      dup3\n        /* \"#utility.yul\":3671:3680   */\n      dup7\n        /* \"#utility.yul\":3667:3689   */\n      add\n        /* \"#utility.yul\":3636:3699   */\n      tag_130\n      jump\t// in\n    tag_228:\n        /* \"#utility.yul\":3626:3699   */\n      swap2\n      pop\n        /* \"#utility.yul\":3421:3709   */\n      pop\n        /* \"#utility.yul\":3062:3716   */\n      swap3\n      pop\n      swap3\n      swap1\n      pop\n      jump\t// out\n        /* \"#utility.yul\":3722:4881   */\n    tag_15:\n        /* \"#utility.yul\":3829:3835   */\n      0x00\n        /* \"#utility.yul\":3837:3843   */\n      dup1\n        /* \"#utility.yul\":3845:3851   */\n      0x00\n        /* \"#utility.yul\":3894:3896   */\n      0x60\n        /* \"#utility.yul\":3882:3891   */\n      dup5\n        /* \"#utility.yul\":3873:3880   */\n      dup7\n        /* \"#utility.yul\":3869:3892   */\n      sub\n        /* \"#utility.yul\":3865:3897   */\n      slt\n        /* \"#utility.yul\":3862:3981   */\n      iszero\n      tag_230\n      jumpi\n        /* \"#utility.yul\":3900:3979   */\n      tag_231\n      tag_115\n      jump\t// in\n    tag_231:\n        /* \"#utility.yul\":3862:3981   */\n    tag_230:\n        /* \"#utility.yul\":4048:4049   */\n      0x00\n        /* \"#utility.yul\":4037:4046   */\n      dup5\n        /* \"#utility.yul\":4033:4050   */\n      add\n        /* \"#utility.yul\":4020:4051   */\n      calldataload\n        /* \"#utility.yul\":4078:4096   */\n      0xffffffffffffffff\n        /* \"#utility.yul\":4070:4076   */\n      dup2\n        /* \"#utility.yul\":4067:4097   */\n      gt\n        /* \"#utility.yul\":4064:4181   */\n      iszero\n      tag_232\n      jumpi\n        /* \"#utility.yul\":4100:4179   */\n      tag_233\n      tag_116\n      jump\t// in\n    tag_233:\n        /* \"#utility.yul\":4064:4181   */\n    tag_232:\n        /* \"#utility.yul\":4205:4268   */\n      tag_234\n        /* \"#utility.yul\":4260:4267   */\n      dup7\n        /* \"#utility.yul\":4251:4257   */\n      dup3\n        /* \"#utility.yul\":4240:4249   */\n      dup8\n        /* \"#utility.yul\":4236:4258   */\n      add\n        /* \"#utility.yul\":4205:4268   */\n      tag_130\n      jump\t// in\n    tag_234:\n        /* \"#utility.yul\":4195:4268   */\n      swap4\n      pop\n        /* \"#utility.yul\":3991:4278   */\n      pop\n        /* \"#utility.yul\":4345:4347   */\n      0x20\n        /* \"#utility.yul\":4334:4343   */\n      dup5\n        /* \"#utility.yul\":4330:4348   */\n      add\n        /* \"#utility.yul\":4317:4349   */\n      calldataload\n        /* \"#utility.yul\":4376:4394   */\n      0xffffffffffffffff\n        /* \"#utility.yul\":4368:4374   */\n      dup2\n        /* \"#utility.yul\":4365:4395   */\n      gt\n        /* \"#utility.yul\":4362:4479   */\n      iszero\n      tag_235\n      jumpi\n        /* \"#utility.yul\":4398:4477   */\n      tag_236\n      tag_116\n      jump\t// in\n    tag_236:\n        /* \"#utility.yul\":4362:4479   */\n    tag_235:\n        /* \"#utility.yul\":4503:4566   */\n      tag_237\n        /* \"#utility.yul\":4558:4565   */\n      dup7\n        /* \"#utility.yul\":4549:4555   */\n      dup3\n        /* \"#utility.yul\":4538:4547   */\n      dup8\n        /* \"#utility.yul\":4534:4556   */\n      add\n        /* \"#utility.yul\":4503:4566   */\n      tag_130\n      jump\t// in\n    tag_237:\n        /* \"#utility.yul\":4493:4566   */\n      swap3\n      pop\n        /* \"#utility.yul\":4288:4576   */\n      pop\n        /* \"#utility.yul\":4643:4645   */\n      0x40\n        /* \"#utility.yul\":4632:4641   */\n      dup5\n        /* \"#utility.yul\":4628:4646   */\n      add\n        /* \"#utility.yul\":4615:4647   */\n      calldataload\n        /* \"#utility.yul\":4674:4692   */\n      0xffffffffffffffff\n        /* \"#utility.yul\":4666:4672   */\n      dup2\n        /* \"#utility.yul\":4663:4693   */\n      gt\n        /* \"#utility.yul\":4660:4777   */\n      iszero\n      tag_238\n      jumpi\n        /* \"#utility.yul\":4696:4775   */\n      tag_239\n      tag_116\n      jump\t// in\n    tag_239:\n        /* \"#utility.yul\":4660:4777   */\n    tag_238:\n        /* \"#utility.yul\":4801:4864   */\n      tag_240\n        /* \"#utility.yul\":4856:4863   */\n      dup7\n        /* \"#utility.yul\":4847:4853   */\n      dup3\n        /* \"#utility.yul\":4836:4845   */\n      dup8\n        /* \"#utility.yul\":4832:4854   */\n      add\n        /* \"#utility.yul\":4801:4864   */\n      tag_130\n      jump\t// in\n    tag_240:\n        /* \"#utility.yul\":4791:4864   */\n      swap2\n      pop\n        /* \"#utility.yul\":4586:4874   */\n      pop\n        /* \"#utility.yul\":3722:4881   */\n      swap3\n      pop\n      swap3\n      pop\n      swap3\n      jump\t// out\n        /* \"#utility.yul\":4887:5396   */\n    tag_19:\n        /* \"#utility.yul\":4956:4962   */\n      0x00\n        /* \"#utility.yul\":5005:5007   */\n      0x20\n        /* \"#utility.yul\":4993:5002   */\n      dup3\n        /* \"#utility.yul\":4984:4991   */\n      dup5\n        /* \"#utility.yul\":4980:5003   */\n      sub\n        /* \"#utility.yul\":4976:5008   */\n      slt\n        /* \"#utility.yul\":4973:5092   */\n      iszero\n      tag_242\n      jumpi\n        /* \"#utility.yul\":5011:5090   */\n      tag_243\n      tag_115\n      jump\t// in\n    tag_243:\n        /* \"#utility.yul\":4973:5092   */\n    tag_242:\n        /* \"#utility.yul\":5159:5160   */\n      0x00\n        /* \"#utility.yul\":5148:5157   */\n      dup3\n        /* \"#utility.yul\":5144:5161   */\n      add\n        /* \"#utility.yul\":5131:5162   */\n      calldataload\n        /* \"#utility.yul\":5189:5207   */\n      0xffffffffffffffff\n        /* \"#utility.yul\":5181:5187   */\n      dup2\n        /* \"#utility.yul\":5178:5208   */\n      gt\n        /* \"#utility.yul\":5175:5292   */\n      iszero\n      tag_244\n      jumpi\n        /* \"#utility.yul\":5211:5290   */\n      tag_245\n      tag_116\n      jump\t// in\n    tag_245:\n        /* \"#utility.yul\":5175:5292   */\n    tag_244:\n        /* \"#utility.yul\":5316:5379   */\n      tag_246\n        /* \"#utility.yul\":5371:5378   */\n      dup5\n        /* \"#utility.yul\":5362:5368   */\n      dup3\n        /* \"#utility.yul\":5351:5360   */\n      dup6\n        /* \"#utility.yul\":5347:5369   */\n      add\n        /* \"#utility.yul\":5316:5379   */\n      tag_130\n      jump\t// in\n    tag_246:\n        /* \"#utility.yul\":5306:5379   */\n      swap2\n      pop\n        /* \"#utility.yul\":5102:5389   */\n      pop\n        /* \"#utility.yul\":4887:5396   */\n      swap3\n      swap2\n      pop\n      pop\n      jump\t// out\n        /* \"#utility.yul\":5402:5501   */\n    tag_131:\n        /* \"#utility.yul\":5454:5460   */\n      0x00\n        /* \"#utility.yul\":5488:5493   */\n      dup2\n        /* \"#utility.yul\":5482:5494   */\n      mload\n        /* \"#utility.yul\":5472:5494   */\n      swap1\n      pop\n        /* \"#utility.yul\":5402:5501   */\n      swap2\n      swap1\n      pop\n      jump\t// out\n        /* \"#utility.yul\":5507:5666   */\n    tag_132:\n        /* \"#utility.yul\":5581:5592   */\n      0x00\n        /* \"#utility.yul\":5615:5621   */\n      dup3\n        /* \"#utility.yul\":5610:5613   */\n      dup3\n        /* \"#utility.yul\":5603:5622   */\n      mstore\n        /* \"#utility.yul\":5655:5659   */\n      0x20\n        /* \"#utility.yul\":5650:5653   */\n      dup3\n        /* \"#utility.yul\":5646:5660   */\n      add\n        /* \"#utility.yul\":5631:5660   */\n      swap1\n      pop\n        /* \"#utility.yul\":5507:5666   */\n      swap3\n      swap2\n      pop\n      pop\n      jump\t// out\n        /* \"#utility.yul\":5672:5811   */\n    tag_133:\n        /* \"#utility.yul\":5761:5767   */\n      dup3\n        /* \"#utility.yul\":5756:5759   */\n      dup2\n        /* \"#utility.yul\":5751:5754   */\n      dup4\n        /* \"#utility.yul\":5745:5768   */\n      mcopy\n        /* \"#utility.yul\":5802:5803   */\n      0x00\n        /* \"#utility.yul\":5793:5799   */\n      dup4\n        /* \"#utility.yul\":5788:5791   */\n      dup4\n        /* \"#utility.yul\":5784:5800   */\n      add\n        /* \"#utility.yul\":5777:5804   */\n      mstore\n        /* \"#utility.yul\":5672:5811   */\n      pop\n      pop\n      pop\n      jump\t// out\n        /* \"#utility.yul\":5817:6174   */\n    tag_134:\n        /* \"#utility.yul\":5895:5898   */\n      0x00\n        /* \"#utility.yul\":5923:5962   */\n      tag_251\n        /* \"#utility.yul\":5956:5961   */\n      dup3\n        /* \"#utility.yul\":5923:5962   */\n      tag_131\n      jump\t// in\n    tag_251:\n        /* \"#utility.yul\":5978:6039   */\n      tag_252\n        /* \"#utility.yul\":6032:6038   */\n      dup2\n        /* \"#utility.yul\":6027:6030   */\n      dup6\n        /* \"#utility.yul\":5978:6039   */\n      tag_132\n      jump\t// in\n    tag_252:\n        /* \"#utility.yul\":5971:6039   */\n      swap4\n      pop\n        /* \"#utility.yul\":6048:6113   */\n      tag_253\n        /* \"#utility.yul\":6106:6112   */\n      dup2\n        /* \"#utility.yul\":6101:6104   */\n      dup6\n        /* \"#utility.yul\":6094:6098   */\n      0x20\n        /* \"#utility.yul\":6087:6092   */\n      dup7\n        /* \"#utility.yul\":6083:6099   */\n      add\n        /* \"#utility.yul\":6048:6113   */\n      tag_133\n      jump\t// in\n    tag_253:\n        /* \"#utility.yul\":6138:6167   */\n      tag_254\n        /* \"#utility.yul\":6160:6166   */\n      dup2\n        /* \"#utility.yul\":6138:6167   */\n      tag_123\n      jump\t// in\n    tag_254:\n        /* \"#utility.yul\":6133:6136   */\n      dup5\n        /* \"#utility.yul\":6129:6168   */\n      add\n        /* \"#utility.yul\":6122:6168   */\n      swap2\n      pop\n        /* \"#utility.yul\":5899:6174   */\n      pop\n        /* \"#utility.yul\":5817:6174   */\n      swap3\n      swap2\n      pop\n      pop\n      jump\t// out\n        /* \"#utility.yul\":6264:7195   */\n    tag_135:\n        /* \"#utility.yul\":6381:6384   */\n      0x00\n        /* \"#utility.yul\":6417:6421   */\n      0x60\n        /* \"#utility.yul\":6412:6415   */\n      dup4\n        /* \"#utility.yul\":6408:6422   */\n      add\n        /* \"#utility.yul\":6504:6508   */\n      0x00\n        /* \"#utility.yul\":6497:6502   */\n      dup4\n        /* \"#utility.yul\":6493:6509   */\n      add\n        /* \"#utility.yul\":6487:6510   */\n      mload\n        /* \"#utility.yul\":6557:6560   */\n      dup5\n        /* \"#utility.yul\":6551:6555   */\n      dup3\n        /* \"#utility.yul\":6547:6561   */\n      sub\n        /* \"#utility.yul\":6540:6544   */\n      0x00\n        /* \"#utility.yul\":6535:6538   */\n      dup7\n        /* \"#utility.yul\":6531:6545   */\n      add\n        /* \"#utility.yul\":6524:6562   */\n      mstore\n        /* \"#utility.yul\":6583:6656   */\n      tag_256\n        /* \"#utility.yul\":6651:6655   */\n      dup3\n        /* \"#utility.yul\":6637:6649   */\n      dup3\n        /* \"#utility.yul\":6583:6656   */\n      tag_134\n      jump\t// in\n    tag_256:\n        /* \"#utility.yul\":6575:6656   */\n      swap2\n      pop\n        /* \"#utility.yul\":6432:6667   */\n      pop\n        /* \"#utility.yul\":6750:6754   */\n      0x20\n        /* \"#utility.yul\":6743:6748   */\n      dup4\n        /* \"#utility.yul\":6739:6755   */\n      add\n        /* \"#utility.yul\":6733:6756   */\n      mload\n        /* \"#utility.yul\":6803:6806   */\n      dup5\n        /* \"#utility.yul\":6797:6801   */\n      dup3\n        /* \"#utility.yul\":6793:6807   */\n      sub\n        /* \"#utility.yul\":6786:6790   */\n      0x20\n        /* \"#utility.yul\":6781:6784   */\n      dup7\n        /* \"#utility.yul\":6777:6791   */\n      add\n        /* \"#utility.yul\":6770:6808   */\n      mstore\n        /* \"#utility.yul\":6829:6902   */\n      tag_257\n        /* \"#utility.yul\":6897:6901   */\n      dup3\n        /* \"#utility.yul\":6883:6895   */\n      dup3\n        /* \"#utility.yul\":6829:6902   */\n      tag_134\n      jump\t// in\n    tag_257:\n        /* \"#utility.yul\":6821:6902   */\n      swap2\n      pop\n        /* \"#utility.yul\":6677:6913   */\n      pop\n        /* \"#utility.yul\":7005:7009   */\n      0x40\n        /* \"#utility.yul\":6998:7003   */\n      dup4\n        /* \"#utility.yul\":6994:7010   */\n      add\n        /* \"#utility.yul\":6988:7011   */\n      mload\n        /* \"#utility.yul\":7058:7061   */\n      dup5\n        /* \"#utility.yul\":7052:7056   */\n      dup3\n        /* \"#utility.yul\":7048:7062   */\n      sub\n        /* \"#utility.yul\":7041:7045   */\n      0x40\n        /* \"#utility.yul\":7036:7039   */\n      dup7\n        /* \"#utility.yul\":7032:7046   */\n      add\n        /* \"#utility.yul\":7025:7063   */\n      mstore\n        /* \"#utility.yul\":7084:7157   */\n      tag_258\n        /* \"#utility.yul\":7152:7156   */\n      dup3\n        /* \"#utility.yul\":7138:7150   */\n      dup3\n        /* \"#utility.yul\":7084:7157   */\n      tag_134\n      jump\t// in\n    tag_258:\n        /* \"#utility.yul\":7076:7157   */\n      swap2\n      pop\n        /* \"#utility.yul\":6923:7168   */\n      pop\n        /* \"#utility.yul\":7185:7189   */\n      dup1\n        /* \"#utility.yul\":7178:7189   */\n      swap2\n      pop\n        /* \"#utility.yul\":6386:7195   */\n      pop\n        /* \"#utility.yul\":6264:7195   */\n      swap3\n      swap2\n      pop\n      pop\n      jump\t// out\n        /* \"#utility.yul\":7201:7570   */\n    tag_24:\n        /* \"#utility.yul\":7342:7346   */\n      0x00\n        /* \"#utility.yul\":7380:7382   */\n      0x20\n        /* \"#utility.yul\":7369:7378   */\n      dup3\n        /* \"#utility.yul\":7365:7383   */\n      add\n        /* \"#utility.yul\":7357:7383   */\n      swap1\n      pop\n        /* \"#utility.yul\":7429:7438   */\n      dup2\n        /* \"#utility.yul\":7423:7427   */\n      dup2\n        /* \"#utility.yul\":7419:7439   */\n      sub\n        /* \"#utility.yul\":7415:7416   */\n      0x00\n        /* \"#utility.yul\":7404:7413   */\n      dup4\n        /* \"#utility.yul\":7400:7417   */\n      add\n        /* \"#utility.yul\":7393:7440   */\n      mstore\n        /* \"#utility.yul\":7457:7563   */\n      tag_260\n        /* \"#utility.yul\":7558:7562   */\n      dup2\n        /* \"#utility.yul\":7549:7555   */\n      dup5\n        /* \"#utility.yul\":7457:7563   */\n      tag_135\n      jump\t// in\n    tag_260:\n        /* \"#utility.yul\":7449:7563   */\n      swap1\n      pop\n        /* \"#utility.yul\":7201:7570   */\n      swap3\n      swap2\n      pop\n      pop\n      jump\t// out\n        /* \"#utility.yul\":7576:7745   */\n    tag_136:\n        /* \"#utility.yul\":7660:7671   */\n      0x00\n        /* \"#utility.yul\":7694:7700   */\n      dup3\n        /* \"#utility.yul\":7689:7692   */\n      dup3\n        /* \"#utility.yul\":7682:7701   */\n      mstore\n        /* \"#utility.yul\":7734:7738   */\n      0x20\n        /* \"#utility.yul\":7729:7732   */\n      dup3\n        /* \"#utility.yul\":7725:7739   */\n      add\n        /* \"#utility.yul\":7710:7739   */\n      swap1\n      pop\n        /* \"#utility.yul\":7576:7745   */\n      swap3\n      swap2\n      pop\n      pop\n      jump\t// out\n        /* \"#utility.yul\":7751:8128   */\n    tag_137:\n        /* \"#utility.yul\":7839:7842   */\n      0x00\n        /* \"#utility.yul\":7867:7906   */\n      tag_263\n        /* \"#utility.yul\":7900:7905   */\n      dup3\n        /* \"#utility.yul\":7867:7906   */\n      tag_131\n      jump\t// in\n    tag_263:\n        /* \"#utility.yul\":7922:7993   */\n      tag_264\n        /* \"#utility.yul\":7986:7992   */\n      dup2\n        /* \"#utility.yul\":7981:7984   */\n      dup6\n        /* \"#utility.yul\":7922:7993   */\n      tag_136\n      jump\t// in\n    tag_264:\n        /* \"#utility.yul\":7915:7993   */\n      swap4\n      pop\n        /* \"#utility.yul\":8002:8067   */\n      tag_265\n        /* \"#utility.yul\":8060:8066   */\n      dup2\n        /* \"#utility.yul\":8055:8058   */\n      dup6\n        /* \"#utility.yul\":8048:8052   */\n      0x20\n        /* \"#utility.yul\":8041:8046   */\n      dup7\n        /* \"#utility.yul\":8037:8053   */\n      add\n        /* \"#utility.yul\":8002:8067   */\n      tag_133\n      jump\t// in\n    tag_265:\n        /* \"#utility.yul\":8092:8121   */\n      tag_266\n        /* \"#utility.yul\":8114:8120   */\n      dup2\n        /* \"#utility.yul\":8092:8121   */\n      tag_123\n      jump\t// in\n    tag_266:\n        /* \"#utility.yul\":8087:8090   */\n      dup5\n        /* \"#utility.yul\":8083:8122   */\n      add\n        /* \"#utility.yul\":8076:8122   */\n      swap2\n      pop\n        /* \"#utility.yul\":7843:8128   */\n      pop\n        /* \"#utility.yul\":7751:8128   */\n      swap3\n      swap2\n      pop\n      pop\n      jump\t// out\n        /* \"#utility.yul\":8134:8447   */\n    tag_31:\n        /* \"#utility.yul\":8247:8251   */\n      0x00\n        /* \"#utility.yul\":8285:8287   */\n      0x20\n        /* \"#utility.yul\":8274:8283   */\n      dup3\n        /* \"#utility.yul\":8270:8288   */\n      add\n        /* \"#utility.yul\":8262:8288   */\n      swap1\n      pop\n        /* \"#utility.yul\":8334:8343   */\n      dup2\n        /* \"#utility.yul\":8328:8332   */\n      dup2\n        /* \"#utility.yul\":8324:8344   */\n      sub\n        /* \"#utility.yul\":8320:8321   */\n      0x00\n        /* \"#utility.yul\":8309:8318   */\n      dup4\n        /* \"#utility.yul\":8305:8322   */\n      add\n        /* \"#utility.yul\":8298:8345   */\n      mstore\n        /* \"#utility.yul\":8362:8440   */\n      tag_268\n        /* \"#utility.yul\":8435:8439   */\n      dup2\n        /* \"#utility.yul\":8426:8432   */\n      dup5\n        /* \"#utility.yul\":8362:8440   */\n      tag_137\n      jump\t// in\n    tag_268:\n        /* \"#utility.yul\":8354:8440   */\n      swap1\n      pop\n        /* \"#utility.yul\":8134:8447   */\n      swap3\n      swap2\n      pop\n      pop\n      jump\t// out\n        /* \"#utility.yul\":8453:8625   */\n    tag_138:\n        /* \"#utility.yul\":8593:8617   */\n      0x497373756572206d757374206861766520612044494400000000000000000000\n        /* \"#utility.yul\":8589:8590   */\n      0x00\n        /* \"#utility.yul\":8581:8587   */\n      dup3\n        /* \"#utility.yul\":8577:8591   */\n      add\n        /* \"#utility.yul\":8570:8618   */\n      mstore\n        /* \"#utility.yul\":8453:8625   */\n      pop\n      jump\t// out\n        /* \"#utility.yul\":8631:8997   */\n    tag_139:\n        /* \"#utility.yul\":8773:8776   */\n      0x00\n        /* \"#utility.yul\":8794:8861   */\n      tag_271\n        /* \"#utility.yul\":8858:8860   */\n      0x16\n        /* \"#utility.yul\":8853:8856   */\n      dup4\n        /* \"#utility.yul\":8794:8861   */\n      tag_136\n      jump\t// in\n    tag_271:\n        /* \"#utility.yul\":8787:8861   */\n      swap2\n      pop\n        /* \"#utility.yul\":8870:8963   */\n      tag_272\n        /* \"#utility.yul\":8959:8962   */\n      dup3\n        /* \"#utility.yul\":8870:8963   */\n      tag_138\n      jump\t// in\n    tag_272:\n        /* \"#utility.yul\":8988:8990   */\n      0x20\n        /* \"#utility.yul\":8983:8986   */\n      dup3\n        /* \"#utility.yul\":8979:8991   */\n      add\n        /* \"#utility.yul\":8972:8991   */\n      swap1\n      pop\n        /* \"#utility.yul\":8631:8997   */\n      swap2\n      swap1\n      pop\n      jump\t// out\n        /* \"#utility.yul\":9003:9422   */\n    tag_35:\n        /* \"#utility.yul\":9169:9173   */\n      0x00\n        /* \"#utility.yul\":9207:9209   */\n      0x20\n        /* \"#utility.yul\":9196:9205   */\n      dup3\n        /* \"#utility.yul\":9192:9210   */\n      add\n        /* \"#utility.yul\":9184:9210   */\n      swap1\n      pop\n        /* \"#utility.yul\":9256:9265   */\n      dup2\n        /* \"#utility.yul\":9250:9254   */\n      dup2\n        /* \"#utility.yul\":9246:9266   */\n      sub\n        /* \"#utility.yul\":9242:9243   */\n      0x00\n        /* \"#utility.yul\":9231:9240   */\n      dup4\n        /* \"#utility.yul\":9227:9244   */\n      add\n        /* \"#utility.yul\":9220:9267   */\n      mstore\n        /* \"#utility.yul\":9284:9415   */\n      tag_274\n        /* \"#utility.yul\":9410:9414   */\n      dup2\n        /* \"#utility.yul\":9284:9415   */\n      tag_139\n      jump\t// in\n    tag_274:\n        /* \"#utility.yul\":9276:9415   */\n      swap1\n      pop\n        /* \"#utility.yul\":9003:9422   */\n      swap2\n      swap1\n      pop\n      jump\t// out\n        /* \"#utility.yul\":9428:9598   */\n    tag_140:\n        /* \"#utility.yul\":9568:9590   */\n      0x526f6c652063616e6e6f7420626520656d707479000000000000000000000000\n        /* \"#utility.yul\":9564:9565   */\n      0x00\n        /* \"#utility.yul\":9556:9562   */\n      dup3\n        /* \"#utility.yul\":9552:9566   */\n      add\n        /* \"#utility.yul\":9545:9591   */\n      mstore\n        /* \"#utility.yul\":9428:9598   */\n      pop\n      jump\t// out\n        /* \"#utility.yul\":9604:9970   */\n    tag_141:\n        /* \"#utility.yul\":9746:9749   */\n      0x00\n        /* \"#utility.yul\":9767:9834   */\n      tag_277\n        /* \"#utility.yul\":9831:9833   */\n      0x14\n        /* \"#utility.yul\":9826:9829   */\n      dup4\n        /* \"#utility.yul\":9767:9834   */\n      tag_136\n      jump\t// in\n    tag_277:\n        /* \"#utility.yul\":9760:9834   */\n      swap2\n      pop\n        /* \"#utility.yul\":9843:9936   */\n      tag_278\n        /* \"#utility.yul\":9932:9935   */\n      dup3\n        /* \"#utility.yul\":9843:9936   */\n      tag_140\n      jump\t// in\n    tag_278:\n        /* \"#utility.yul\":9961:9963   */\n      0x20\n        /* \"#utility.yul\":9956:9959   */\n      dup3\n        /* \"#utility.yul\":9952:9964   */\n      add\n        /* \"#utility.yul\":9945:9964   */\n      swap1\n      pop\n        /* \"#utility.yul\":9604:9970   */\n      swap2\n      swap1\n      pop\n      jump\t// out\n        /* \"#utility.yul\":9976:10395   */\n    tag_38:\n        /* \"#utility.yul\":10142:10146   */\n      0x00\n        /* \"#utility.yul\":10180:10182   */\n      0x20\n        /* \"#utility.yul\":10169:10178   */\n      dup3\n        /* \"#utility.yul\":10165:10183   */\n      add\n        /* \"#utility.yul\":10157:10183   */\n      swap1\n      pop\n        /* \"#utility.yul\":10229:10238   */\n      dup2\n        /* \"#utility.yul\":10223:10227   */\n      dup2\n        /* \"#utility.yul\":10219:10239   */\n      sub\n        /* \"#utility.yul\":10215:10216   */\n      0x00\n        /* \"#utility.yul\":10204:10213   */\n      dup4\n        /* \"#utility.yul\":10200:10217   */\n      add\n        /* \"#utility.yul\":10193:10240   */\n      mstore\n        /* \"#utility.yul\":10257:10388   */\n      tag_280\n        /* \"#utility.yul\":10383:10387   */\n      dup2\n        /* \"#utility.yul\":10257:10388   */\n      tag_141\n      jump\t// in\n    tag_280:\n        /* \"#utility.yul\":10249:10388   */\n      swap1\n      pop\n        /* \"#utility.yul\":9976:10395   */\n      swap2\n      swap1\n      pop\n      jump\t// out\n        /* \"#utility.yul\":10401:10495   */\n    tag_142:\n        /* \"#utility.yul\":10434:10442   */\n      0x00\n        /* \"#utility.yul\":10482:10487   */\n      dup2\n        /* \"#utility.yul\":10478:10480   */\n      0x60\n        /* \"#utility.yul\":10474:10488   */\n      shl\n        /* \"#utility.yul\":10453:10488   */\n      swap1\n      pop\n        /* \"#utility.yul\":10401:10495   */\n      swap2\n      swap1\n      pop\n      jump\t// out\n        /* \"#utility.yul\":10501:10595   */\n    tag_143:\n        /* \"#utility.yul\":10540:10547   */\n      0x00\n        /* \"#utility.yul\":10569:10589   */\n      tag_283\n        /* \"#utility.yul\":10583:10588   */\n      dup3\n        /* \"#utility.yul\":10569:10589   */\n      tag_142\n      jump\t// in\n    tag_283:\n        /* \"#utility.yul\":10558:10589   */\n      swap1\n      pop\n        /* \"#utility.yul\":10501:10595   */\n      swap2\n      swap1\n      pop\n      jump\t// out\n        /* \"#utility.yul\":10601:10701   */\n    tag_144:\n        /* \"#utility.yul\":10640:10647   */\n      0x00\n        /* \"#utility.yul\":10669:10695   */\n      tag_285\n        /* \"#utility.yul\":10689:10694   */\n      dup3\n        /* \"#utility.yul\":10669:10695   */\n      tag_143\n      jump\t// in\n    tag_285:\n        /* \"#utility.yul\":10658:10695   */\n      swap1\n      pop\n        /* \"#utility.yul\":10601:10701   */\n      swap2\n      swap1\n      pop\n      jump\t// out\n        /* \"#utility.yul\":10707:10864   */\n    tag_145:\n        /* \"#utility.yul\":10812:10857   */\n      tag_287\n        /* \"#utility.yul\":10832:10856   */\n      tag_288\n        /* \"#utility.yul\":10850:10855   */\n      dup3\n        /* \"#utility.yul\":10832:10856   */\n      tag_118\n      jump\t// in\n    tag_288:\n        /* \"#utility.yul\":10812:10857   */\n      tag_144\n      jump\t// in\n    tag_287:\n        /* \"#utility.yul\":10807:10810   */\n      dup3\n        /* \"#utility.yul\":10800:10858   */\n      mstore\n        /* \"#utility.yul\":10707:10864   */\n      pop\n      pop\n      jump\t// out\n        /* \"#utility.yul\":10870:11018   */\n    tag_146:\n        /* \"#utility.yul\":10972:10983   */\n      0x00\n        /* \"#utility.yul\":11009:11012   */\n      dup2\n        /* \"#utility.yul\":10994:11012   */\n      swap1\n      pop\n        /* \"#utility.yul\":10870:11018   */\n      swap3\n      swap2\n      pop\n      pop\n      jump\t// out\n        /* \"#utility.yul\":11024:11414   */\n    tag_147:\n        /* \"#utility.yul\":11130:11133   */\n      0x00\n        /* \"#utility.yul\":11158:11197   */\n      tag_291\n        /* \"#utility.yul\":11191:11196   */\n      dup3\n        /* \"#utility.yul\":11158:11197   */\n      tag_131\n      jump\t// in\n    tag_291:\n        /* \"#utility.yul\":11213:11302   */\n      tag_292\n        /* \"#utility.yul\":11295:11301   */\n      dup2\n        /* \"#utility.yul\":11290:11293   */\n      dup6\n        /* \"#utility.yul\":11213:11302   */\n      tag_146\n      jump\t// in\n    tag_292:\n        /* \"#utility.yul\":11206:11302   */\n      swap4\n      pop\n        /* \"#utility.yul\":11311:11376   */\n      tag_293\n        /* \"#utility.yul\":11369:11375   */\n      dup2\n        /* \"#utility.yul\":11364:11367   */\n      dup6\n        /* \"#utility.yul\":11357:11361   */\n      0x20\n        /* \"#utility.yul\":11350:11355   */\n      dup7\n        /* \"#utility.yul\":11346:11362   */\n      add\n        /* \"#utility.yul\":11311:11376   */\n      tag_133\n      jump\t// in\n    tag_293:\n        /* \"#utility.yul\":11401:11407   */\n      dup1\n        /* \"#utility.yul\":11396:11399   */\n      dup5\n        /* \"#utility.yul\":11392:11408   */\n      add\n        /* \"#utility.yul\":11385:11408   */\n      swap2\n      pop\n        /* \"#utility.yul\":11134:11414   */\n      pop\n        /* \"#utility.yul\":11024:11414   */\n      swap3\n      swap2\n      pop\n      pop\n      jump\t// out\n        /* \"#utility.yul\":11420:11497   */\n    tag_148:\n        /* \"#utility.yul\":11457:11464   */\n      0x00\n        /* \"#utility.yul\":11486:11491   */\n      dup2\n        /* \"#utility.yul\":11475:11491   */\n      swap1\n      pop\n        /* \"#utility.yul\":11420:11497   */\n      swap2\n      swap1\n      pop\n      jump\t// out\n        /* \"#utility.yul\":11503:11582   */\n    tag_149:\n        /* \"#utility.yul\":11542:11549   */\n      0x00\n        /* \"#utility.yul\":11571:11576   */\n      dup2\n        /* \"#utility.yul\":11560:11576   */\n      swap1\n      pop\n        /* \"#utility.yul\":11503:11582   */\n      swap2\n      swap1\n      pop\n      jump\t// out\n        /* \"#utility.yul\":11588:11745   */\n    tag_150:\n        /* \"#utility.yul\":11693:11738   */\n      tag_297\n        /* \"#utility.yul\":11713:11737   */\n      tag_298\n        /* \"#utility.yul\":11731:11736   */\n      dup3\n        /* \"#utility.yul\":11713:11737   */\n      tag_148\n      jump\t// in\n    tag_298:\n        /* \"#utility.yul\":11693:11738   */\n      tag_149\n      jump\t// in\n    tag_297:\n        /* \"#utility.yul\":11688:11691   */\n      dup3\n        /* \"#utility.yul\":11681:11739   */\n      mstore\n        /* \"#utility.yul\":11588:11745   */\n      pop\n      pop\n      jump\t// out\n        /* \"#utility.yul\":11751:12449   */\n    tag_40:\n        /* \"#utility.yul\":11967:11970   */\n      0x00\n        /* \"#utility.yul\":11982:12057   */\n      tag_300\n        /* \"#utility.yul\":12053:12056   */\n      dup3\n        /* \"#utility.yul\":12044:12050   */\n      dup8\n        /* \"#utility.yul\":11982:12057   */\n      tag_145\n      jump\t// in\n    tag_300:\n        /* \"#utility.yul\":12082:12084   */\n      0x14\n        /* \"#utility.yul\":12077:12080   */\n      dup3\n        /* \"#utility.yul\":12073:12085   */\n      add\n        /* \"#utility.yul\":12066:12085   */\n      swap2\n      pop\n        /* \"#utility.yul\":12095:12170   */\n      tag_301\n        /* \"#utility.yul\":12166:12169   */\n      dup3\n        /* \"#utility.yul\":12157:12163   */\n      dup7\n        /* \"#utility.yul\":12095:12170   */\n      tag_145\n      jump\t// in\n    tag_301:\n        /* \"#utility.yul\":12195:12197   */\n      0x14\n        /* \"#utility.yul\":12190:12193   */\n      dup3\n        /* \"#utility.yul\":12186:12198   */\n      add\n        /* \"#utility.yul\":12179:12198   */\n      swap2\n      pop\n        /* \"#utility.yul\":12215:12310   */\n      tag_302\n        /* \"#utility.yul\":12306:12309   */\n      dup3\n        /* \"#utility.yul\":12297:12303   */\n      dup6\n        /* \"#utility.yul\":12215:12310   */\n      tag_147\n      jump\t// in\n    tag_302:\n        /* \"#utility.yul\":12208:12310   */\n      swap2\n      pop\n        /* \"#utility.yul\":12320:12395   */\n      tag_303\n        /* \"#utility.yul\":12391:12394   */\n      dup3\n        /* \"#utility.yul\":12382:12388   */\n      dup5\n        /* \"#utility.yul\":12320:12395   */\n      tag_150\n      jump\t// in\n    tag_303:\n        /* \"#utility.yul\":12420:12422   */\n      0x20\n        /* \"#utility.yul\":12415:12418   */\n      dup3\n        /* \"#utility.yul\":12411:12423   */\n      add\n        /* \"#utility.yul\":12404:12423   */\n      swap2\n      pop\n        /* \"#utility.yul\":12440:12443   */\n      dup2\n        /* \"#utility.yul\":12433:12443   */\n      swap1\n      pop\n        /* \"#utility.yul\":11751:12449   */\n      swap6\n      swap5\n      pop\n      pop\n      pop\n      pop\n      pop\n      jump\t// out\n        /* \"#utility.yul\":12455:12635   */\n    tag_151:\n        /* \"#utility.yul\":12503:12580   */\n      0x4e487b7100000000000000000000000000000000000000000000000000000000\n        /* \"#utility.yul\":12500:12501   */\n      0x00\n        /* \"#utility.yul\":12493:12581   */\n      mstore\n        /* \"#utility.yul\":12600:12604   */\n      0x22\n        /* \"#utility.yul\":12597:12598   */\n      0x04\n        /* \"#utility.yul\":12590:12605   */\n      mstore\n        /* \"#utility.yul\":12624:12628   */\n      0x24\n        /* \"#utility.yul\":12621:12622   */\n      0x00\n        /* \"#utility.yul\":12614:12629   */\n      revert\n        /* \"#utility.yul\":12641:12961   */\n    tag_82:\n        /* \"#utility.yul\":12685:12691   */\n      0x00\n        /* \"#utility.yul\":12722:12723   */\n      0x02\n        /* \"#utility.yul\":12716:12720   */\n      dup3\n        /* \"#utility.yul\":12712:12724   */\n      div\n        /* \"#utility.yul\":12702:12724   */\n      swap1\n      pop\n        /* \"#utility.yul\":12769:12770   */\n      0x01\n        /* \"#utility.yul\":12763:12767   */\n      dup3\n        /* \"#utility.yul\":12759:12771   */\n      and\n        /* \"#utility.yul\":12790:12808   */\n      dup1\n        /* \"#utility.yul\":12780:12861   */\n      tag_306\n      jumpi\n        /* \"#utility.yul\":12846:12850   */\n      0x7f\n        /* \"#utility.yul\":12838:12844   */\n      dup3\n        /* \"#utility.yul\":12834:12851   */\n      and\n        /* \"#utility.yul\":12824:12851   */\n      swap2\n      pop\n        /* \"#utility.yul\":12780:12861   */\n    tag_306:\n        /* \"#utility.yul\":12908:12910   */\n      0x20\n        /* \"#utility.yul\":12900:12906   */\n      dup3\n        /* \"#utility.yul\":12897:12911   */\n      lt\n        /* \"#utility.yul\":12877:12895   */\n      dup2\n        /* \"#utility.yul\":12874:12912   */\n      sub\n        /* \"#utility.yul\":12871:12955   */\n      tag_307\n      jumpi\n        /* \"#utility.yul\":12927:12945   */\n      tag_308\n      tag_151\n      jump\t// in\n    tag_308:\n        /* \"#utility.yul\":12871:12955   */\n    tag_307:\n        /* \"#utility.yul\":12692:12961   */\n      pop\n        /* \"#utility.yul\":12641:12961   */\n      swap2\n      swap1\n      pop\n      jump\t// out\n        /* \"#utility.yul\":12967:13108   */\n    tag_152:\n        /* \"#utility.yul\":13016:13020   */\n      0x00\n        /* \"#utility.yul\":13039:13042   */\n      dup2\n        /* \"#utility.yul\":13031:13042   */\n      swap1\n      pop\n        /* \"#utility.yul\":13062:13065   */\n      dup2\n        /* \"#utility.yul\":13059:13060   */\n      0x00\n        /* \"#utility.yul\":13052:13066   */\n      mstore\n        /* \"#utility.yul\":13096:13100   */\n      0x20\n        /* \"#utility.yul\":13093:13094   */\n      0x00\n        /* \"#utility.yul\":13083:13101   */\n      keccak256\n        /* \"#utility.yul\":13075:13101   */\n      swap1\n      pop\n        /* \"#utility.yul\":12967:13108   */\n      swap2\n      swap1\n      pop\n      jump\t// out\n        /* \"#utility.yul\":13114:13207   */\n    tag_153:\n        /* \"#utility.yul\":13151:13157   */\n      0x00\n        /* \"#utility.yul\":13198:13200   */\n      0x20\n        /* \"#utility.yul\":13193:13195   */\n      0x1f\n        /* \"#utility.yul\":13186:13191   */\n      dup4\n        /* \"#utility.yul\":13182:13196   */\n      add\n        /* \"#utility.yul\":13178:13201   */\n      div\n        /* \"#utility.yul\":13168:13201   */\n      swap1\n      pop\n        /* \"#utility.yul\":13114:13207   */\n      swap2\n      swap1\n      pop\n      jump\t// out\n        /* \"#utility.yul\":13213:13320   */\n    tag_154:\n        /* \"#utility.yul\":13257:13265   */\n      0x00\n        /* \"#utility.yul\":13307:13312   */\n      dup3\n        /* \"#utility.yul\":13301:13305   */\n      dup3\n        /* \"#utility.yul\":13297:13313   */\n      shl\n        /* \"#utility.yul\":13276:13313   */\n      swap1\n      pop\n        /* \"#utility.yul\":13213:13320   */\n      swap3\n      swap2\n      pop\n      pop\n      jump\t// out\n        /* \"#utility.yul\":13326:13719   */\n    tag_155:\n        /* \"#utility.yul\":13395:13401   */\n      0x00\n        /* \"#utility.yul\":13445:13446   */\n      0x08\n        /* \"#utility.yul\":13433:13443   */\n      dup4\n        /* \"#utility.yul\":13429:13447   */\n      mul\n        /* \"#utility.yul\":13468:13565   */\n      tag_313\n        /* \"#utility.yul\":13498:13564   */\n      0xffffffffffffffffffffffffffffffffffffffffffffffffffffffffffffffff\n        /* \"#utility.yul\":13487:13496   */\n      dup3\n        /* \"#utility.yul\":13468:13565   */\n      tag_154\n      jump\t// in\n    tag_313:\n        /* \"#utility.yul\":13586:13625   */\n      tag_314\n        /* \"#utility.yul\":13616:13624   */\n      dup7\n        /* \"#utility.yul\":13605:13614   */\n      dup4\n        /* \"#utility.yul\":13586:13625   */\n      tag_154\n      jump\t// in\n    tag_314:\n        /* \"#utility.yul\":13574:13625   */\n      swap6\n      pop\n        /* \"#utility.yul\":13658:13662   */\n      dup1\n        /* \"#utility.yul\":13654:13663   */\n      not\n        /* \"#utility.yul\":13647:13652   */\n      dup5\n        /* \"#utility.yul\":13643:13664   */\n      and\n        /* \"#utility.yul\":13634:13664   */\n      swap4\n      pop\n        /* \"#utility.yul\":13707:13711   */\n      dup1\n        /* \"#utility.yul\":13697:13705   */\n      dup7\n        /* \"#utility.yul\":13693:13712   */\n      and\n        /* \"#utility.yul\":13686:13691   */\n      dup5\n        /* \"#utility.yul\":13683:13713   */\n      or\n        /* \"#utility.yul\":13673:13713   */\n      swap3\n      pop\n        /* \"#utility.yul\":13402:13719   */\n      pop\n      pop\n        /* \"#utility.yul\":13326:13719   */\n      swap4\n      swap3\n      pop\n      pop\n      pop\n      jump\t// out\n        /* \"#utility.yul\":13725:13785   */\n    tag_156:\n        /* \"#utility.yul\":13753:13756   */\n      0x00\n        /* \"#utility.yul\":13774:13779   */\n      dup2\n        /* \"#utility.yul\":13767:13779   */\n      swap1\n      pop\n        /* \"#utility.yul\":13725:13785   */\n      swap2\n      swap1\n      pop\n      jump\t// out\n        /* \"#utility.yul\":13791:13933   */\n    tag_157:\n        /* \"#utility.yul\":13841:13850   */\n      0x00\n        /* \"#utility.yul\":13874:13927   */\n      tag_317\n        /* \"#utility.yul\":13892:13926   */\n      tag_318\n        /* \"#utility.yul\":13901:13925   */\n      tag_319\n        /* \"#utility.yul\":13919:13924   */\n      dup5\n        /* \"#utility.yul\":13901:13925   */\n      tag_148\n      jump\t// in\n    tag_319:\n        /* \"#utility.yul\":13892:13926   */\n      tag_156\n      jump\t// in\n    tag_318:\n        /* \"#utility.yul\":13874:13927   */\n      tag_148\n      jump\t// in\n    tag_317:\n        /* \"#utility.yul\":13861:13927   */\n      swap1\n      pop\n        /* \"#utility.yul\":13791:13933   */\n      swap2\n      swap1\n      pop\n      jump\t// out\n        /* \"#utility.yul\":13939:14014   */\n    tag_158:\n        /* \"#utility.yul\":13982:13985   */\n      0x00\n        /* \"#utility.yul\":14003:14008   */\n      dup2\n        /* \"#utility.yul\":13996:14008   */\n      swap1\n      pop\n        /* \"#utility.yul\":13939:14014   */\n      swap2\n      swap1\n      pop\n      jump\t// out\n        /* \"#utility.yul\":14020:14289   */\n    tag_159:\n        /* \"#utility.yul\":14130:14169   */\n      tag_322\n        /* \"#utility.yul\":14161:14168   */\n      dup4\n        /* \"#utility.yul\":14130:14169   */\n      tag_157\n      jump\t// in\n    tag_322:\n        /* \"#utility.yul\":14191:14282   */\n      tag_323\n        /* \"#utility.yul\":14240:14281   */\n      tag_324\n        /* \"#utility.yul\":14264:14280   */\n      dup3\n        /* \"#utility.yul\":14240:14281   */\n      tag_158\n      jump\t// in\n    tag_324:\n        /* \"#utility.yul\":14232:14238   */\n      dup5\n        /* \"#utility.yul\":14225:14229   */\n      dup5\n        /* \"#utility.yul\":14219:14230   */\n      sload\n        /* \"#utility.yul\":14191:14282   */\n      tag_155\n      jump\t// in\n    tag_323:\n        /* \"#utility.yul\":14185:14189   */\n      dup3\n        /* \"#utility.yul\":14178:14283   */\n      sstore\n        /* \"#utility.yul\":14096:14289   */\n      pop\n        /* \"#utility.yul\":14020:14289   */\n      pop\n      pop\n      pop\n      jump\t// out\n        /* \"#utility.yul\":14295:14368   */\n    tag_160:\n        /* \"#utility.yul\":14340:14343   */\n      0x00\n        /* \"#utility.yul\":14295:14368   */\n      swap1\n      jump\t// out\n        /* \"#utility.yul\":14374:14563   */\n    tag_161:\n        /* \"#utility.yul\":14451:14483   */\n      tag_327\n      tag_160\n      jump\t// in\n    tag_327:\n        /* \"#utility.yul\":14492:14557   */\n      tag_328\n        /* \"#utility.yul\":14550:14556   */\n      dup2\n        /* \"#utility.yul\":14542:14548   */\n      dup5\n        /* \"#utility.yul\":14536:14540   */\n      dup5\n        /* \"#utility.yul\":14492:14557   */\n      tag_159\n      jump\t// in\n    tag_328:\n        /* \"#utility.yul\":14427:14563   */\n      pop\n        /* \"#utility.yul\":14374:14563   */\n      pop\n      pop\n      jump\t// out\n        /* \"#utility.yul\":14569:14755   */\n    tag_162:\n        /* \"#utility.yul\":14629:14749   */\n    tag_330:\n        /* \"#utility.yul\":14646:14649   */\n      dup2\n        /* \"#utility.yul\":14639:14644   */\n      dup2\n        /* \"#utility.yul\":14636:14650   */\n      lt\n        /* \"#utility.yul\":14629:14749   */\n      iszero\n      tag_332\n      jumpi\n        /* \"#utility.yul\":14700:14739   */\n      tag_333\n        /* \"#utility.yul\":14737:14738   */\n      0x00\n        /* \"#utility.yul\":14730:14735   */\n      dup3\n        /* \"#utility.yul\":14700:14739   */\n      tag_161\n      jump\t// in\n    tag_333:\n        /* \"#utility.yul\":14673:14674   */\n      0x01\n        /* \"#utility.yul\":14666:14671   */\n      dup2\n        /* \"#utility.yul\":14662:14675   */\n      add\n        /* \"#utility.yul\":14653:14675   */\n      swap1\n      pop\n        /* \"#utility.yul\":14629:14749   */\n      jump(tag_330)\n    tag_332:\n        /* \"#utility.yul\":14569:14755   */\n      pop\n      pop\n      jump\t// out\n        /* \"#utility.yul\":14761:15304   */\n    tag_163:\n        /* \"#utility.yul\":14862:14864   */\n      0x1f\n        /* \"#utility.yul\":14857:14860   */\n      dup3\n        /* \"#utility.yul\":14854:14865   */\n      gt\n        /* \"#utility.yul\":14851:15297   */\n      iszero\n      tag_335\n      jumpi\n        /* \"#utility.yul\":14896:14934   */\n      tag_336\n        /* \"#utility.yul\":14928:14933   */\n      dup2\n        /* \"#utility.yul\":14896:14934   */\n      tag_152\n      jump\t// in\n    tag_336:\n        /* \"#utility.yul\":14980:15009   */\n      tag_337\n        /* \"#utility.yul\":14998:15008   */\n      dup5\n        /* \"#utility.yul\":14980:15009   */\n      tag_153\n      jump\t// in\n    tag_337:\n        /* \"#utility.yul\":14970:14978   */\n      dup2\n        /* \"#utility.yul\":14966:15010   */\n      add\n        /* \"#utility.yul\":15163:15165   */\n      0x20\n        /* \"#utility.yul\":15151:15161   */\n      dup6\n        /* \"#utility.yul\":15148:15166   */\n      lt\n        /* \"#utility.yul\":15145:15194   */\n      iszero\n      tag_338\n      jumpi\n        /* \"#utility.yul\":15184:15192   */\n      dup2\n        /* \"#utility.yul\":15169:15192   */\n      swap1\n      pop\n        /* \"#utility.yul\":15145:15194   */\n    tag_338:\n        /* \"#utility.yul\":15207:15287   */\n      tag_339\n        /* \"#utility.yul\":15263:15285   */\n      tag_340\n        /* \"#utility.yul\":15281:15284   */\n      dup6\n        /* \"#utility.yul\":15263:15285   */\n      tag_153\n      jump\t// in\n    tag_340:\n        /* \"#utility.yul\":15253:15261   */\n      dup4\n        /* \"#utility.yul\":15249:15286   */\n      add\n        /* \"#utility.yul\":15236:15247   */\n      dup3\n        /* \"#utility.yul\":15207:15287   */\n      tag_162\n      jump\t// in\n    tag_339:\n        /* \"#utility.yul\":14866:15297   */\n      pop\n      pop\n        /* \"#utility.yul\":14851:15297   */\n    tag_335:\n        /* \"#utility.yul\":14761:15304   */\n      pop\n      pop\n      pop\n      jump\t// out\n        /* \"#utility.yul\":15310:15427   */\n    tag_164:\n        /* \"#utility.yul\":15364:15372   */\n      0x00\n        /* \"#utility.yul\":15414:15419   */\n      dup3\n        /* \"#utility.yul\":15408:15412   */\n      dup3\n        /* \"#utility.yul\":15404:15420   */\n      shr\n        /* \"#utility.yul\":15383:15420   */\n      swap1\n      pop\n        /* \"#utility.yul\":15310:15427   */\n      swap3\n      swap2\n      pop\n      pop\n      jump\t// out\n        /* \"#utility.yul\":15433:15602   */\n    tag_165:\n        /* \"#utility.yul\":15477:15483   */\n      0x00\n        /* \"#utility.yul\":15510:15561   */\n      tag_343\n        /* \"#utility.yul\":15558:15559   */\n      0x00\n        /* \"#utility.yul\":15554:15560   */\n      not\n        /* \"#utility.yul\":15546:15551   */\n      dup5\n        /* \"#utility.yul\":15543:15544   */\n      0x08\n        /* \"#utility.yul\":15539:15552   */\n      mul\n        /* \"#utility.yul\":15510:15561   */\n      tag_164\n      jump\t// in\n    tag_343:\n        /* \"#utility.yul\":15506:15562   */\n      not\n        /* \"#utility.yul\":15591:15595   */\n      dup1\n        /* \"#utility.yul\":15585:15589   */\n      dup4\n        /* \"#utility.yul\":15581:15596   */\n      and\n        /* \"#utility.yul\":15571:15596   */\n      swap2\n      pop\n        /* \"#utility.yul\":15484:15602   */\n      pop\n        /* \"#utility.yul\":15433:15602   */\n      swap3\n      swap2\n      pop\n      pop\n      jump\t// out\n        /* \"#utility.yul\":15607:15902   */\n    tag_166:\n        /* \"#utility.yul\":15683:15687   */\n      0x00\n        /* \"#utility.yul\":15829:15858   */\n      tag_345\n        /* \"#utility.yul\":15854:15857   */\n      dup4\n        /* \"#utility.yul\":15848:15852   */\n      dup4\n        /* \"#utility.yul\":15829:15858   */\n      tag_165\n      jump\t// in\n    tag_345:\n        /* \"#utility.yul\":15821:15858   */\n      swap2\n      pop\n        /* \"#utility.yul\":15891:15894   */\n      dup3\n        /* \"#utility.yul\":15888:15889   */\n      0x02\n        /* \"#utility.yul\":15884:15895   */\n      mul\n        /* \"#utility.yul\":15878:15882   */\n      dup3\n        /* \"#utility.yul\":15875:15896   */\n      or\n        /* \"#utility.yul\":15867:15896   */\n      swap1\n      pop\n        /* \"#utility.yul\":15607:15902   */\n      swap3\n      swap2\n      pop\n      pop\n      jump\t// out\n        /* \"#utility.yul\":15907:17302   */\n    tag_43:\n        /* \"#utility.yul\":16024:16061   */\n      tag_347\n        /* \"#utility.yul\":16057:16060   */\n      dup3\n        /* \"#utility.yul\":16024:16061   */\n      tag_131\n      jump\t// in\n    tag_347:\n        /* \"#utility.yul\":16126:16144   */\n      0xffffffffffffffff\n        /* \"#utility.yul\":16118:16124   */\n      dup2\n        /* \"#utility.yul\":16115:16145   */\n      gt\n        /* \"#utility.yul\":16112:16168   */\n      iszero\n      tag_348\n      jumpi\n        /* \"#utility.yul\":16148:16166   */\n      tag_349\n      tag_124\n      jump\t// in\n    tag_349:\n        /* \"#utility.yul\":16112:16168   */\n    tag_348:\n        /* \"#utility.yul\":16192:16230   */\n      tag_350\n        /* \"#utility.yul\":16224:16228   */\n      dup3\n        /* \"#utility.yul\":16218:16229   */\n      sload\n        /* \"#utility.yul\":16192:16230   */\n      tag_82\n      jump\t// in\n    tag_350:\n        /* \"#utility.yul\":16277:16344   */\n      tag_351\n        /* \"#utility.yul\":16337:16343   */\n      dup3\n        /* \"#utility.yul\":16329:16335   */\n      dup3\n        /* \"#utility.yul\":16323:16327   */\n      dup6\n        /* \"#utility.yul\":16277:16344   */\n      tag_163\n      jump\t// in\n    tag_351:\n        /* \"#utility.yul\":16371:16372   */\n      0x00\n        /* \"#utility.yul\":16395:16399   */\n      0x20\n        /* \"#utility.yul\":16382:16399   */\n      swap1\n      pop\n        /* \"#utility.yul\":16427:16429   */\n      0x1f\n        /* \"#utility.yul\":16419:16425   */\n      dup4\n        /* \"#utility.yul\":16416:16430   */\n      gt\n        /* \"#utility.yul\":16444:16445   */\n      0x01\n        /* \"#utility.yul\":16439:17057   */\n      dup2\n      eq\n      tag_353\n      jumpi\n        /* \"#utility.yul\":17101:17102   */\n      0x00\n        /* \"#utility.yul\":17118:17124   */\n      dup5\n        /* \"#utility.yul\":17115:17192   */\n      iszero\n      tag_354\n      jumpi\n        /* \"#utility.yul\":17167:17176   */\n      dup3\n        /* \"#utility.yul\":17162:17165   */\n      dup8\n        /* \"#utility.yul\":17158:17177   */\n      add\n        /* \"#utility.yul\":17152:17178   */\n      mload\n        /* \"#utility.yul\":17143:17178   */\n      swap1\n      pop\n        /* \"#utility.yul\":17115:17192   */\n    tag_354:\n        /* \"#utility.yul\":17218:17285   */\n      tag_355\n        /* \"#utility.yul\":17278:17284   */\n      dup6\n        /* \"#utility.yul\":17271:17276   */\n      dup3\n        /* \"#utility.yul\":17218:17285   */\n      tag_166\n      jump\t// in\n    tag_355:\n        /* \"#utility.yul\":17212:17216   */\n      dup7\n        /* \"#utility.yul\":17205:17286   */\n      sstore\n        /* \"#utility.yul\":17074:17296   */\n      pop\n        /* \"#utility.yul\":16409:17296   */\n      jump(tag_352)\n        /* \"#utility.yul\":16439:17057   */\n    tag_353:\n        /* \"#utility.yul\":16491:16495   */\n      0x1f\n        /* \"#utility.yul\":16487:16496   */\n      not\n        /* \"#utility.yul\":16479:16485   */\n      dup5\n        /* \"#utility.yul\":16475:16497   */\n      and\n        /* \"#utility.yul\":16525:16562   */\n      tag_356\n        /* \"#utility.yul\":16557:16561   */\n      dup7\n        /* \"#utility.yul\":16525:16562   */\n      tag_152\n      jump\t// in\n    tag_356:\n        /* \"#utility.yul\":16584:16585   */\n      0x00\n        /* \"#utility.yul\":16598:16806   */\n    tag_357:\n        /* \"#utility.yul\":16612:16619   */\n      dup3\n        /* \"#utility.yul\":16609:16610   */\n      dup2\n        /* \"#utility.yul\":16606:16620   */\n      lt\n        /* \"#utility.yul\":16598:16806   */\n      iszero\n      tag_359\n      jumpi\n        /* \"#utility.yul\":16691:16700   */\n      dup5\n        /* \"#utility.yul\":16686:16689   */\n      dup10\n        /* \"#utility.yul\":16682:16701   */\n      add\n        /* \"#utility.yul\":16676:16702   */\n      mload\n        /* \"#utility.yul\":16668:16674   */\n      dup3\n        /* \"#utility.yul\":16661:16703   */\n      sstore\n        /* \"#utility.yul\":16742:16743   */\n      0x01\n        /* \"#utility.yul\":16734:16740   */\n      dup3\n        /* \"#utility.yul\":16730:16744   */\n      add\n        /* \"#utility.yul\":16720:16744   */\n      swap2\n      pop\n        /* \"#utility.yul\":16789:16791   */\n      0x20\n        /* \"#utility.yul\":16778:16787   */\n      dup6\n        /* \"#utility.yul\":16774:16792   */\n      add\n        /* \"#utility.yul\":16761:16792   */\n      swap5\n      pop\n        /* \"#utility.yul\":16635:16639   */\n      0x20\n        /* \"#utility.yul\":16632:16633   */\n      dup2\n        /* \"#utility.yul\":16628:16640   */\n      add\n        /* \"#utility.yul\":16623:16640   */\n      swap1\n      pop\n        /* \"#utility.yul\":16598:16806   */\n      jump(tag_357)\n    tag_359:\n        /* \"#utility.yul\":16834:16840   */\n      dup7\n        /* \"#utility.yul\":16825:16832   */\n      dup4\n        /* \"#utility.yul\":16822:16841   */\n      lt\n        /* \"#utility.yul\":16819:16998   */\n      iszero\n      tag_360\n      jumpi\n        /* \"#utility.yul\":16892:16901   */\n      dup5\n        /* \"#utility.yul\":16887:16890   */\n      dup10\n        /* \"#utility.yul\":16883:16902   */\n      add\n        /* \"#utility.yul\":16877:16903   */\n      mload\n        /* \"#utility.yul\":16935:16983   */\n      tag_361\n        /* \"#utility.yul\":16977:16981   */\n      0x1f\n        /* \"#utility.yul\":16969:16975   */\n      dup10\n        /* \"#utility.yul\":16965:16982   */\n      and\n        /* \"#utility.yul\":16954:16963   */\n      dup3\n        /* \"#utility.yul\":16935:16983   */\n      tag_165\n      jump\t// in\n    tag_361:\n        /* \"#utility.yul\":16927:16933   */\n      dup4\n        /* \"#utility.yul\":16920:16984   */\n      sstore\n        /* \"#utility.yul\":16842:16998   */\n      pop\n        /* \"#utility.yul\":16819:16998   */\n    tag_360:\n        /* \"#utility.yul\":17044:17045   */\n      0x01\n        /* \"#utility.yul\":17040:17041   */\n      0x02\n        /* \"#utility.yul\":17032:17038   */\n      dup9\n        /* \"#utility.yul\":17028:17042   */\n      mul\n        /* \"#utility.yul\":17024:17046   */\n      add\n        /* \"#utility.yul\":17018:17022   */\n      dup9\n        /* \"#utility.yul\":17011:17047   */\n      sstore\n        /* \"#utility.yul\":16446:17057   */\n      pop\n      pop\n      pop\n        /* \"#utility.yul\":16409:17296   */\n    tag_352:\n      pop\n        /* \"#utility.yul\":15999:17302   */\n      pop\n      pop\n      pop\n        /* \"#utility.yul\":15907:17302   */\n      pop\n      pop\n      jump\t// out\n        /* \"#utility.yul\":17308:17426   */\n    tag_167:\n        /* \"#utility.yul\":17395:17419   */\n      tag_363\n        /* \"#utility.yul\":17413:17418   */\n      dup2\n        /* \"#utility.yul\":17395:17419   */\n      tag_118\n      jump\t// in\n    tag_363:\n        /* \"#utility.yul\":17390:17393   */\n      dup3\n        /* \"#utility.yul\":17383:17420   */\n      mstore\n        /* \"#utility.yul\":17308:17426   */\n      pop\n      pop\n      jump\t// out\n        /* \"#utility.yul\":17432:17509   */\n    tag_168:\n        /* \"#utility.yul\":17469:17476   */\n      0x00\n        /* \"#utility.yul\":17498:17503   */\n      dup2\n        /* \"#utility.yul\":17487:17503   */\n      swap1\n      pop\n        /* \"#utility.yul\":17432:17509   */\n      swap2\n      swap1\n      pop\n      jump\t// out\n        /* \"#utility.yul\":17515:17633   */\n    tag_169:\n        /* \"#utility.yul\":17602:17626   */\n      tag_366\n        /* \"#utility.yul\":17620:17625   */\n      dup2\n        /* \"#utility.yul\":17602:17626   */\n      tag_168\n      jump\t// in\n    tag_366:\n        /* \"#utility.yul\":17597:17600   */\n      dup3\n        /* \"#utility.yul\":17590:17627   */\n      mstore\n        /* \"#utility.yul\":17515:17633   */\n      pop\n      pop\n      jump\t// out\n        /* \"#utility.yul\":17639:18172   */\n    tag_47:\n        /* \"#utility.yul\":17808:17812   */\n      0x00\n        /* \"#utility.yul\":17846:17848   */\n      0x60\n        /* \"#utility.yul\":17835:17844   */\n      dup3\n        /* \"#utility.yul\":17831:17849   */\n      add\n        /* \"#utility.yul\":17823:17849   */\n      swap1\n      pop\n        /* \"#utility.yul\":17859:17930   */\n      tag_368\n        /* \"#utility.yul\":17927:17928   */\n      0x00\n        /* \"#utility.yul\":17916:17925   */\n      dup4\n        /* \"#utility.yul\":17912:17929   */\n      add\n        /* \"#utility.yul\":17903:17909   */\n      dup7\n        /* \"#utility.yul\":17859:17930   */\n      tag_167\n      jump\t// in\n    tag_368:\n        /* \"#utility.yul\":17977:17986   */\n      dup2\n        /* \"#utility.yul\":17971:17975   */\n      dup2\n        /* \"#utility.yul\":17967:17987   */\n      sub\n        /* \"#utility.yul\":17962:17964   */\n      0x20\n        /* \"#utility.yul\":17951:17960   */\n      dup4\n        /* \"#utility.yul\":17947:17965   */\n      add\n        /* \"#utility.yul\":17940:17988   */\n      mstore\n        /* \"#utility.yul\":18005:18083   */\n      tag_369\n        /* \"#utility.yul\":18078:18082   */\n      dup2\n        /* \"#utility.yul\":18069:18075   */\n      dup6\n        /* \"#utility.yul\":18005:18083   */\n      tag_137\n      jump\t// in\n    tag_369:\n        /* \"#utility.yul\":17997:18083   */\n      swap1\n      pop\n        /* \"#utility.yul\":18093:18165   */\n      tag_370\n        /* \"#utility.yul\":18161:18163   */\n      0x40\n        /* \"#utility.yul\":18150:18159   */\n      dup4\n        /* \"#utility.yul\":18146:18164   */\n      add\n        /* \"#utility.yul\":18137:18143   */\n      dup5\n        /* \"#utility.yul\":18093:18165   */\n      tag_169\n      jump\t// in\n    tag_370:\n        /* \"#utility.yul\":17639:18172   */\n      swap5\n      swap4\n      pop\n      pop\n      pop\n      pop\n      jump\t// out\n        /* \"#utility.yul\":18178:18348   */\n    tag_170:\n        /* \"#utility.yul\":18318:18340   */\n      0x4e616d652063616e6e6f7420626520656d707479000000000000000000000000\n        /* \"#utility.yul\":18314:18315   */\n      0x00\n        /* \"#utility.yul\":18306:18312   */\n      dup3\n        /* \"#utility.yul\":18302:18316   */\n      add\n        /* \"#utility.yul\":18295:18341   */\n      mstore\n        /* \"#utility.yul\":18178:18348   */\n      pop\n      jump\t// out\n        /* \"#utility.yul\":18354:18720   */\n    tag_171:\n        /* \"#utility.yul\":18496:18499   */\n      0x00\n        /* \"#utility.yul\":18517:18584   */\n      tag_373\n        /* \"#utility.yul\":18581:18583   */\n      0x14\n        /* \"#utility.yul\":18576:18579   */\n      dup4\n        /* \"#utility.yul\":18517:18584   */\n      tag_136\n      jump\t// in\n    tag_373:\n        /* \"#utility.yul\":18510:18584   */\n      swap2\n      pop\n        /* \"#utility.yul\":18593:18686   */\n      tag_374\n        /* \"#utility.yul\":18682:18685   */\n      dup3\n        /* \"#utility.yul\":18593:18686   */\n      tag_170\n      jump\t// in\n    tag_374:\n        /* \"#utility.yul\":18711:18713   */\n      0x20\n        /* \"#utility.yul\":18706:18709   */\n      dup3\n        /* \"#utility.yul\":18702:18714   */\n      add\n        /* \"#utility.yul\":18695:18714   */\n      swap1\n      pop\n        /* \"#utility.yul\":18354:18720   */\n      swap2\n      swap1\n      pop\n      jump\t// out\n        /* \"#utility.yul\":18726:19145   */\n    tag_51:\n        /* \"#utility.yul\":18892:18896   */\n      0x00\n        /* \"#utility.yul\":18930:18932   */\n      0x20\n        /* \"#utility.yul\":18919:18928   */\n      dup3\n        /* \"#utility.yul\":18915:18933   */\n      add\n        /* \"#utility.yul\":18907:18933   */\n      swap1\n      pop\n        /* \"#utility.yul\":18979:18988   */\n      dup2\n        /* \"#utility.yul\":18973:18977   */\n      dup2\n        /* \"#utility.yul\":18969:18989   */\n      sub\n        /* \"#utility.yul\":18965:18966   */\n      0x00\n        /* \"#utility.yul\":18954:18963   */\n      dup4\n        /* \"#utility.yul\":18950:18967   */\n      add\n        /* \"#utility.yul\":18943:18990   */\n      mstore\n        /* \"#utility.yul\":19007:19138   */\n      tag_376\n        /* \"#utility.yul\":19133:19137   */\n      dup2\n        /* \"#utility.yul\":19007:19138   */\n      tag_171\n      jump\t// in\n    tag_376:\n        /* \"#utility.yul\":18999:19138   */\n      swap1\n      pop\n        /* \"#utility.yul\":18726:19145   */\n      swap2\n      swap1\n      pop\n      jump\t// out\n        /* \"#utility.yul\":19151:19322   */\n    tag_172:\n        /* \"#utility.yul\":19291:19314   */\n      0x456d61696c2063616e6e6f7420626520656d7074790000000000000000000000\n        /* \"#utility.yul\":19287:19288   */\n      0x00\n        /* \"#utility.yul\":19279:19285   */\n      dup3\n        /* \"#utility.yul\":19275:19289   */\n      add\n        /* \"#utility.yul\":19268:19315   */\n      mstore\n        /* \"#utility.yul\":19151:19322   */\n      pop\n      jump\t// out\n        /* \"#utility.yul\":19328:19694   */\n    tag_173:\n        /* \"#utility.yul\":19470:19473   */\n      0x00\n        /* \"#utility.yul\":19491:19558   */\n      tag_379\n        /* \"#utility.yul\":19555:19557   */\n      0x15\n        /* \"#utility.yul\":19550:19553   */\n      dup4\n        /* \"#utility.yul\":19491:19558   */\n      tag_136\n      jump\t// in\n    tag_379:\n        /* \"#utility.yul\":19484:19558   */\n      swap2\n      pop\n        /* \"#utility.yul\":19567:19660   */\n      tag_380\n        /* \"#utility.yul\":19656:19659   */\n      dup3\n        /* \"#utility.yul\":19567:19660   */\n      tag_172\n      jump\t// in\n    tag_380:\n        /* \"#utility.yul\":19685:19687   */\n      0x20\n        /* \"#utility.yul\":19680:19683   */\n      dup3\n        /* \"#utility.yul\":19676:19688   */\n      add\n        /* \"#utility.yul\":19669:19688   */\n      swap1\n      pop\n        /* \"#utility.yul\":19328:19694   */\n      swap2\n      swap1\n      pop\n      jump\t// out\n        /* \"#utility.yul\":19700:20119   */\n    tag_54:\n        /* \"#utility.yul\":19866:19870   */\n      0x00\n        /* \"#utility.yul\":19904:19906   */\n      0x20\n        /* \"#utility.yul\":19893:19902   */\n      dup3\n        /* \"#utility.yul\":19889:19907   */\n      add\n        /* \"#utility.yul\":19881:19907   */\n      swap1\n      pop\n        /* \"#utility.yul\":19953:19962   */\n      dup2\n        /* \"#utility.yul\":19947:19951   */\n      dup2\n        /* \"#utility.yul\":19943:19963   */\n      sub\n        /* \"#utility.yul\":19939:19940   */\n      0x00\n        /* \"#utility.yul\":19928:19937   */\n      dup4\n        /* \"#utility.yul\":19924:19941   */\n      add\n        /* \"#utility.yul\":19917:19964   */\n      mstore\n        /* \"#utility.yul\":19981:20112   */\n      tag_382\n        /* \"#utility.yul\":20107:20111   */\n      dup2\n        /* \"#utility.yul\":19981:20112   */\n      tag_173\n      jump\t// in\n    tag_382:\n        /* \"#utility.yul\":19973:20112   */\n      swap1\n      pop\n        /* \"#utility.yul\":19700:20119   */\n      swap2\n      swap1\n      pop\n      jump\t// out\n        /* \"#utility.yul\":20125:20306   */\n    tag_174:\n        /* \"#utility.yul\":20265:20298   */\n      0x50726f66696c6520706963747572652063616e6e6f7420626520656d70747900\n        /* \"#utility.yul\":20261:20262   */\n      0x00\n        /* \"#utility.yul\":20253:20259   */\n      dup3\n        /* \"#utility.yul\":20249:20263   */\n      add\n        /* \"#utility.yul\":20242:20299   */\n      mstore\n        /* \"#utility.yul\":20125:20306   */\n      pop\n      jump\t// out\n        /* \"#utility.yul\":20312:20678   */\n    tag_175:\n        /* \"#utility.yul\":20454:20457   */\n      0x00\n        /* \"#utility.yul\":20475:20542   */\n      tag_385\n        /* \"#utility.yul\":20539:20541   */\n      0x1f\n        /* \"#utility.yul\":20534:20537   */\n      dup4\n        /* \"#utility.yul\":20475:20542   */\n      tag_136\n      jump\t// in\n    tag_385:\n        /* \"#utility.yul\":20468:20542   */\n      swap2\n      pop\n        /* \"#utility.yul\":20551:20644   */\n      tag_386\n        /* \"#utility.yul\":20640:20643   */\n      dup3\n        /* \"#utility.yul\":20551:20644   */\n      tag_174\n      jump\t// in\n    tag_386:\n        /* \"#utility.yul\":20669:20671   */\n      0x20\n        /* \"#utility.yul\":20664:20667   */\n      dup3\n        /* \"#utility.yul\":20660:20672   */\n      add\n        /* \"#utility.yul\":20653:20672   */\n      swap1\n      pop\n        /* \"#utility.yul\":20312:20678   */\n      swap2\n      swap1\n      pop\n      jump\t// out\n        /* \"#utility.yul\":20684:21103   */\n    tag_57:\n        /* \"#utility.yul\":20850:20854   */\n      0x00\n        /* \"#utility.yul\":20888:20890   */\n      0x20\n        /* \"#utility.yul\":20877:20886   */\n      dup3\n        /* \"#utility.yul\":20873:20891   */\n      add\n        /* \"#utility.yul\":20865:20891   */\n      swap1\n      pop\n        /* \"#utility.yul\":20937:20946   */\n      dup2\n        /* \"#utility.yul\":20931:20935   */\n      dup2\n        /* \"#utility.yul\":20927:20947   */\n      sub\n        /* \"#utility.yul\":20923:20924   */\n      0x00\n        /* \"#utility.yul\":20912:20921   */\n      dup4\n        /* \"#utility.yul\":20908:20925   */\n      add\n        /* \"#utility.yul\":20901:20948   */\n      mstore\n        /* \"#utility.yul\":20965:21096   */\n      tag_388\n        /* \"#utility.yul\":21091:21095   */\n      dup2\n        /* \"#utility.yul\":20965:21096   */\n      tag_175\n      jump\t// in\n    tag_388:\n        /* \"#utility.yul\":20957:21096   */\n      swap1\n      pop\n        /* \"#utility.yul\":20684:21103   */\n      swap2\n      swap1\n      pop\n      jump\t// out\n        /* \"#utility.yul\":21109:21288   */\n    tag_176:\n        /* \"#utility.yul\":21249:21280   */\n      0x4e6f2044494420666f756e6420666f7220746869732061646472657373000000\n        /* \"#utility.yul\":21245:21246   */\n      0x00\n        /* \"#utility.yul\":21237:21243   */\n      dup3\n        /* \"#utility.yul\":21233:21247   */\n      add\n        /* \"#utility.yul\":21226:21281   */\n      mstore\n        /* \"#utility.yul\":21109:21288   */\n      pop\n      jump\t// out\n        /* \"#utility.yul\":21294:21660   */\n    tag_177:\n        /* \"#utility.yul\":21436:21439   */\n      0x00\n        /* \"#utility.yul\":21457:21524   */\n      tag_391\n        /* \"#utility.yul\":21521:21523   */\n      0x1d\n        /* \"#utility.yul\":21516:21519   */\n      dup4\n        /* \"#utility.yul\":21457:21524   */\n      tag_136\n      jump\t// in\n    tag_391:\n        /* \"#utility.yul\":21450:21524   */\n      swap2\n      pop\n        /* \"#utility.yul\":21533:21626   */\n      tag_392\n        /* \"#utility.yul\":21622:21625   */\n      dup3\n        /* \"#utility.yul\":21533:21626   */\n      tag_176\n      jump\t// in\n    tag_392:\n        /* \"#utility.yul\":21651:21653   */\n      0x20\n        /* \"#utility.yul\":21646:21649   */\n      dup3\n        /* \"#utility.yul\":21642:21654   */\n      add\n        /* \"#utility.yul\":21635:21654   */\n      swap1\n      pop\n        /* \"#utility.yul\":21294:21660   */\n      swap2\n      swap1\n      pop\n      jump\t// out\n        /* \"#utility.yul\":21666:22085   */\n    tag_60:\n        /* \"#utility.yul\":21832:21836   */\n      0x00\n        /* \"#utility.yul\":21870:21872   */\n      0x20\n        /* \"#utility.yul\":21859:21868   */\n      dup3\n        /* \"#utility.yul\":21855:21873   */\n      add\n        /* \"#utility.yul\":21847:21873   */\n      swap1\n      pop\n        /* \"#utility.yul\":21919:21928   */\n      dup2\n        /* \"#utility.yul\":21913:21917   */\n      dup2\n        /* \"#utility.yul\":21909:21929   */\n      sub\n        /* \"#utility.yul\":21905:21906   */\n      0x00\n        /* \"#utility.yul\":21894:21903   */\n      dup4\n        /* \"#utility.yul\":21890:21907   */\n      add\n        /* \"#utility.yul\":21883:21930   */\n      mstore\n        /* \"#utility.yul\":21947:22078   */\n      tag_394\n        /* \"#utility.yul\":22073:22077   */\n      dup2\n        /* \"#utility.yul\":21947:22078   */\n      tag_177\n      jump\t// in\n    tag_394:\n        /* \"#utility.yul\":21939:22078   */\n      swap1\n      pop\n        /* \"#utility.yul\":21666:22085   */\n      swap2\n      swap1\n      pop\n      jump\t// out\n        /* \"#utility.yul\":22091:22806   */\n    tag_65:\n        /* \"#utility.yul\":22300:22304   */\n      0x00\n        /* \"#utility.yul\":22338:22340   */\n      0x60\n        /* \"#utility.yul\":22327:22336   */\n      dup3\n        /* \"#utility.yul\":22323:22341   */\n      add\n        /* \"#utility.yul\":22315:22341   */\n      swap1\n      pop\n        /* \"#utility.yul\":22387:22396   */\n      dup2\n        /* \"#utility.yul\":22381:22385   */\n      dup2\n        /* \"#utility.yul\":22377:22397   */\n      sub\n        /* \"#utility.yul\":22373:22374   */\n      0x00\n        /* \"#utility.yul\":22362:22371   */\n      dup4\n        /* \"#utility.yul\":22358:22375   */\n      add\n        /* \"#utility.yul\":22351:22398   */\n      mstore\n        /* \"#utility.yul\":22415:22493   */\n      tag_396\n        /* \"#utility.yul\":22488:22492   */\n      dup2\n        /* \"#utility.yul\":22479:22485   */\n      dup7\n        /* \"#utility.yul\":22415:22493   */\n      tag_137\n      jump\t// in\n    tag_396:\n        /* \"#utility.yul\":22407:22493   */\n      swap1\n      pop\n        /* \"#utility.yul\":22540:22549   */\n      dup2\n        /* \"#utility.yul\":22534:22538   */\n      dup2\n        /* \"#utility.yul\":22530:22550   */\n      sub\n        /* \"#utility.yul\":22525:22527   */\n      0x20\n        /* \"#utility.yul\":22514:22523   */\n      dup4\n        /* \"#utility.yul\":22510:22528   */\n      add\n        /* \"#utility.yul\":22503:22551   */\n      mstore\n        /* \"#utility.yul\":22568:22646   */\n      tag_397\n        /* \"#utility.yul\":22641:22645   */\n      dup2\n        /* \"#utility.yul\":22632:22638   */\n      dup6\n        /* \"#utility.yul\":22568:22646   */\n      tag_137\n      jump\t// in\n    tag_397:\n        /* \"#utility.yul\":22560:22646   */\n      swap1\n      pop\n        /* \"#utility.yul\":22693:22702   */\n      dup2\n        /* \"#utility.yul\":22687:22691   */\n      dup2\n        /* \"#utility.yul\":22683:22703   */\n      sub\n        /* \"#utility.yul\":22678:22680   */\n      0x40\n        /* \"#utility.yul\":22667:22676   */\n      dup4\n        /* \"#utility.yul\":22663:22681   */\n      add\n        /* \"#utility.yul\":22656:22704   */\n      mstore\n        /* \"#utility.yul\":22721:22799   */\n      tag_398\n        /* \"#utility.yul\":22794:22798   */\n      dup2\n        /* \"#utility.yul\":22785:22791   */\n      dup5\n        /* \"#utility.yul\":22721:22799   */\n      tag_137\n      jump\t// in\n    tag_398:\n        /* \"#utility.yul\":22713:22799   */\n      swap1\n      pop\n        /* \"#utility.yul\":22091:22806   */\n      swap5\n      swap4\n      pop\n      pop\n      pop\n      pop\n      jump\t// out\n        /* \"#utility.yul\":22812:22988   */\n    tag_178:\n        /* \"#utility.yul\":22952:22980   */\n      0x4964656e7469666965722063616e6e6f7420626520656d707479000000000000\n        /* \"#utility.yul\":22948:22949   */\n      0x00\n        /* \"#utility.yul\":22940:22946   */\n      dup3\n        /* \"#utility.yul\":22936:22950   */\n      add\n        /* \"#utility.yul\":22929:22981   */\n      mstore\n        /* \"#utility.yul\":22812:22988   */\n      pop\n      jump\t// out\n        /* \"#utility.yul\":22994:23360   */\n    tag_179:\n        /* \"#utility.yul\":23136:23139   */\n      0x00\n        /* \"#utility.yul\":23157:23224   */\n      tag_401\n        /* \"#utility.yul\":23221:23223   */\n      0x1a\n        /* \"#utility.yul\":23216:23219   */\n      dup4\n        /* \"#utility.yul\":23157:23224   */\n      tag_136\n      jump\t// in\n    tag_401:\n        /* \"#utility.yul\":23150:23224   */\n      swap2\n      pop\n        /* \"#utility.yul\":23233:23326   */\n      tag_402\n        /* \"#utility.yul\":23322:23325   */\n      dup3\n        /* \"#utility.yul\":23233:23326   */\n      tag_178\n      jump\t// in\n    tag_402:\n        /* \"#utility.yul\":23351:23353   */\n      0x20\n        /* \"#utility.yul\":23346:23349   */\n      dup3\n        /* \"#utility.yul\":23342:23354   */\n      add\n        /* \"#utility.yul\":23335:23354   */\n      swap1\n      pop\n        /* \"#utility.yul\":22994:23360   */\n      swap2\n      swap1\n      pop\n      jump\t// out\n        /* \"#utility.yul\":23366:23785   */\n    tag_69:\n        /* \"#utility.yul\":23532:23536   */\n      0x00\n        /* \"#utility.yul\":23570:23572   */\n      0x20\n        /* \"#utility.yul\":23559:23568   */\n      dup3\n        /* \"#utility.yul\":23555:23573   */\n      add\n        /* \"#utility.yul\":23547:23573   */\n      swap1\n      pop\n        /* \"#utility.yul\":23619:23628   */\n      dup2\n        /* \"#utility.yul\":23613:23617   */\n      dup2\n        /* \"#utility.yul\":23609:23629   */\n      sub\n        /* \"#utility.yul\":23605:23606   */\n      0x00\n        /* \"#utility.yul\":23594:23603   */\n      dup4\n        /* \"#utility.yul\":23590:23607   */\n      add\n        /* \"#utility.yul\":23583:23630   */\n      mstore\n        /* \"#utility.yul\":23647:23778   */\n      tag_404\n        /* \"#utility.yul\":23773:23777   */\n      dup2\n        /* \"#utility.yul\":23647:23778   */\n      tag_179\n      jump\t// in\n    tag_404:\n        /* \"#utility.yul\":23639:23778   */\n      swap1\n      pop\n        /* \"#utility.yul\":23366:23785   */\n      swap2\n      swap1\n      pop\n      jump\t// out\n        /* \"#utility.yul\":23791:23959   */\n    tag_180:\n        /* \"#utility.yul\":23931:23951   */\n      0x44494420616c7265616479206578697374730000000000000000000000000000\n        /* \"#utility.yul\":23927:23928   */\n      0x00\n        /* \"#utility.yul\":23919:23925   */\n      dup3\n        /* \"#utility.yul\":23915:23929   */\n      add\n        /* \"#utility.yul\":23908:23952   */\n      mstore\n        /* \"#utility.yul\":23791:23959   */\n      pop\n      jump\t// out\n        /* \"#utility.yul\":23965:24331   */\n    tag_181:\n        /* \"#utility.yul\":24107:24110   */\n      0x00\n        /* \"#utility.yul\":24128:24195   */\n      tag_407\n        /* \"#utility.yul\":24192:24194   */\n      0x12\n        /* \"#utility.yul\":24187:24190   */\n      dup4\n        /* \"#utility.yul\":24128:24195   */\n      tag_136\n      jump\t// in\n    tag_407:\n        /* \"#utility.yul\":24121:24195   */\n      swap2\n      pop\n        /* \"#utility.yul\":24204:24297   */\n      tag_408\n        /* \"#utility.yul\":24293:24296   */\n      dup3\n        /* \"#utility.yul\":24204:24297   */\n      tag_180\n      jump\t// in\n    tag_408:\n        /* \"#utility.yul\":24322:24324   */\n      0x20\n        /* \"#utility.yul\":24317:24320   */\n      dup3\n        /* \"#utility.yul\":24313:24325   */\n      add\n        /* \"#utility.yul\":24306:24325   */\n      swap1\n      pop\n        /* \"#utility.yul\":23965:24331   */\n      swap2\n      swap1\n      pop\n      jump\t// out\n        /* \"#utility.yul\":24337:24756   */\n    tag_72:\n        /* \"#utility.yul\":24503:24507   */\n      0x00\n        /* \"#utility.yul\":24541:24543   */\n      0x20\n        /* \"#utility.yul\":24530:24539   */\n      dup3\n        /* \"#utility.yul\":24526:24544   */\n      add\n        /* \"#utility.yul\":24518:24544   */\n      swap1\n      pop\n        /* \"#utility.yul\":24590:24599   */\n      dup2\n        /* \"#utility.yul\":24584:24588   */\n      dup2\n        /* \"#utility.yul\":24580:24600   */\n      sub\n        /* \"#utility.yul\":24576:24577   */\n      0x00\n        /* \"#utility.yul\":24565:24574   */\n      dup4\n        /* \"#utility.yul\":24561:24578   */\n      add\n        /* \"#utility.yul\":24554:24601   */\n      mstore\n        /* \"#utility.yul\":24618:24749   */\n      tag_410\n        /* \"#utility.yul\":24744:24748   */\n      dup2\n        /* \"#utility.yul\":24618:24749   */\n      tag_181\n      jump\t// in\n    tag_410:\n        /* \"#utility.yul\":24610:24749   */\n      swap1\n      pop\n        /* \"#utility.yul\":24337:24756   */\n      swap2\n      swap1\n      pop\n      jump\t// out\n        /* \"#utility.yul\":24762:24931   */\n    tag_182:\n        /* \"#utility.yul\":24902:24923   */\n      0x4461746120646f6573206e6f7420657869737400000000000000000000000000\n        /* \"#utility.yul\":24898:24899   */\n      0x00\n        /* \"#utility.yul\":24890:24896   */\n      dup3\n        /* \"#utility.yul\":24886:24900   */\n      add\n        /* \"#utility.yul\":24879:24924   */\n      mstore\n        /* \"#utility.yul\":24762:24931   */\n      pop\n      jump\t// out\n        /* \"#utility.yul\":24937:25303   */\n    tag_183:\n        /* \"#utility.yul\":25079:25082   */\n      0x00\n        /* \"#utility.yul\":25100:25167   */\n      tag_413\n        /* \"#utility.yul\":25164:25166   */\n      0x13\n        /* \"#utility.yul\":25159:25162   */\n      dup4\n        /* \"#utility.yul\":25100:25167   */\n      tag_136\n      jump\t// in\n    tag_413:\n        /* \"#utility.yul\":25093:25167   */\n      swap2\n      pop\n        /* \"#utility.yul\":25176:25269   */\n      tag_414\n        /* \"#utility.yul\":25265:25268   */\n      dup3\n        /* \"#utility.yul\":25176:25269   */\n      tag_182\n      jump\t// in\n    tag_414:\n        /* \"#utility.yul\":25294:25296   */\n      0x20\n        /* \"#utility.yul\":25289:25292   */\n      dup3\n        /* \"#utility.yul\":25285:25297   */\n      add\n        /* \"#utility.yul\":25278:25297   */\n      swap1\n      pop\n        /* \"#utility.yul\":24937:25303   */\n      swap2\n      swap1\n      pop\n      jump\t// out\n        /* \"#utility.yul\":25309:25728   */\n    tag_80:\n        /* \"#utility.yul\":25475:25479   */\n      0x00\n        /* \"#utility.yul\":25513:25515   */\n      0x20\n        /* \"#utility.yul\":25502:25511   */\n      dup3\n        /* \"#utility.yul\":25498:25516   */\n      add\n        /* \"#utility.yul\":25490:25516   */\n      swap1\n      pop\n        /* \"#utility.yul\":25562:25571   */\n      dup2\n        /* \"#utility.yul\":25556:25560   */\n      dup2\n        /* \"#utility.yul\":25552:25572   */\n      sub\n        /* \"#utility.yul\":25548:25549   */\n      0x00\n        /* \"#utility.yul\":25537:25546   */\n      dup4\n        /* \"#utility.yul\":25533:25550   */\n      add\n        /* \"#utility.yul\":25526:25573   */\n      mstore\n        /* \"#utility.yul\":25590:25721   */\n      tag_416\n        /* \"#utility.yul\":25716:25720   */\n      dup2\n        /* \"#utility.yul\":25590:25721   */\n      tag_183\n      jump\t// in\n    tag_416:\n        /* \"#utility.yul\":25582:25721   */\n      swap1\n      pop\n        /* \"#utility.yul\":25309:25728   */\n      swap2\n      swap1\n      pop\n      jump\t// out\n\n    auxdata: 0xa2646970667358221220623f628e2a2d08b5ed514cba6f951478bfe7be8ead8b1547dc15ea21802e052d64736f6c634300081a0033\n}\n",
				"bytecode": {
					"linkReferences": {},
					"object": "608060405234801561000f575f80fd5b506040518060400160405280600b81526020017f73757065722061646d696e00000000000000000000000000000000000000000081525060015f3373ffffffffffffffffffffffffffffffffffffffff1673ffffffffffffffffffffffffffffffffffffffff1681526020019081526020015f20908161008f919061036e565b5060025f3373ffffffffffffffffffffffffffffffffffffffff1673ffffffffffffffffffffffffffffffffffffffff1681526020019081526020015f208060018154018082558091505060019003905f5260205f20015f6040518060400160405280600b81526020017f73757065722061646d696e0000000000000000000000000000000000000000008152509091909150908161012e919061036e565b5061043d565b5f81519050919050565b7f4e487b71000000000000000000000000000000000000000000000000000000005f52604160045260245ffd5b7f4e487b71000000000000000000000000000000000000000000000000000000005f52602260045260245ffd5b5f60028204905060018216806101af57607f821691505b6020821081036101c2576101c161016b565b5b50919050565b5f819050815f5260205f209050919050565b5f6020601f8301049050919050565b5f82821b905092915050565b5f600883026102247fffffffffffffffffffffffffffffffffffffffffffffffffffffffffffffffff826101e9565b61022e86836101e9565b95508019841693508086168417925050509392505050565b5f819050919050565b5f819050919050565b5f61027261026d61026884610246565b61024f565b610246565b9050919050565b5f819050919050565b61028b83610258565b61029f61029782610279565b8484546101f5565b825550505050565b5f90565b6102b36102a7565b6102be818484610282565b505050565b5b818110156102e1576102d65f826102ab565b6001810190506102c4565b5050565b601f821115610326576102f7816101c8565b610300846101da565b8101602085101561030f578190505b61032361031b856101da565b8301826102c3565b50505b505050565b5f82821c905092915050565b5f6103465f198460080261032b565b1980831691505092915050565b5f61035e8383610337565b9150826002028217905092915050565b61037782610134565b67ffffffffffffffff8111156103905761038f61013e565b5b61039a8254610198565b6103a58282856102e5565b5f60209050601f8311600181146103d6575f84156103c4578287015190505b6103ce8582610353565b865550610435565b601f1984166103e4866101c8565b5f5b8281101561040b578489015182556001820191506020850194506020810190506103e6565b868310156104285784890151610424601f891682610337565b8355505b6001600288020188555050505b505050505050565b611bee8061044a5f395ff3fe608060405234801561000f575f80fd5b5060043610610060575f3560e01c8063022bf9c1146100645780630890d80c146100805780633457d3e21461009c5780637a5b4f59146100b8578063b7dfcbee146100d6578063bc9c2d55146100f2575b5f80fd5b61007e60048036038101906100799190611121565b610110565b005b61009a6004803603810190610095919061117b565b61041d565b005b6100b660048036038101906100b1919061121f565b6106a4565b005b6100c06108d8565b6040516100cd9190611321565b60405180910390f35b6100f060048036038101906100eb9190611121565b610ba8565b005b6100fa610dc1565b6040516101079190611389565b60405180910390f35b5f73ffffffffffffffffffffffffffffffffffffffff165f803373ffffffffffffffffffffffffffffffffffffffff1673ffffffffffffffffffffffffffffffffffffffff1681526020019081526020015f206001015f9054906101000a900473ffffffffffffffffffffffffffffffffffffffff1673ffffffffffffffffffffffffffffffffffffffff16036101dc576040517f08c379a00000000000000000000000000000000000000000000000000000000081526004016101d3906113f3565b60405180910390fd5b5f81511161021f576040517f08c379a00000000000000000000000000000000000000000000000000000000081526004016102169061145b565b60405180910390fd5b5f338383426040516020016102379493929190611521565b60405160208183030381529060405280519060200120905060045f8473ffffffffffffffffffffffffffffffffffffffff1673ffffffffffffffffffffffffffffffffffffffff1681526020019081526020015f2060405180608001604052803373ffffffffffffffffffffffffffffffffffffffff16815260200184815260200142815260200183815250908060018154018082558091505060019003905f5260205f2090600402015f909190919091505f820151815f015f6101000a81548173ffffffffffffffffffffffffffffffffffffffff021916908373ffffffffffffffffffffffffffffffffffffffff16021790555060208201518160010190816103429190611764565b506040820151816002015560608201518160030155505060025f8473ffffffffffffffffffffffffffffffffffffffff1673ffffffffffffffffffffffffffffffffffffffff1681526020019081526020015f2082908060018154018082558091505060019003905f5260205f20015f9091909190915090816103c59190611764565b503373ffffffffffffffffffffffffffffffffffffffff167ff4313cb022699889c6eddb590e42342301cdae4824fd424ffdfdeb23d4cdbbe98484846040516104109392919061185a565b60405180910390a2505050565b5f835111610460576040517f08c379a0000000000000000000000000000000000000000000000000000000008152600401610457906118e0565b60405180910390fd5b5f8251116104a3576040517f08c379a000000000000000000000000000000000000000000000000000000000815260040161049a90611948565b60405180910390fd5b5f8151116104e6576040517f08c379a00000000000000000000000000000000000000000000000000000000081526004016104dd906119b0565b60405180910390fd5b5f73ffffffffffffffffffffffffffffffffffffffff165f803373ffffffffffffffffffffffffffffffffffffffff1673ffffffffffffffffffffffffffffffffffffffff1681526020019081526020015f206001015f9054906101000a900473ffffffffffffffffffffffffffffffffffffffff1673ffffffffffffffffffffffffffffffffffffffff16036105b2576040517f08c379a00000000000000000000000000000000000000000000000000000000081526004016105a990611a18565b60405180910390fd5b60405180606001604052808481526020018381526020018281525060035f3373ffffffffffffffffffffffffffffffffffffffff1673ffffffffffffffffffffffffffffffffffffffff1681526020019081526020015f205f820151815f01908161061d9190611764565b5060208201518160010190816106339190611764565b5060408201518160020190816106499190611764565b509050503373ffffffffffffffffffffffffffffffffffffffff167f65d0ee13464c98c4cc59b1e8669c3b1e26d6ccc62ec1811070773f0c7903df2f84848460405161069793929190611a36565b60405180910390a2505050565b5f8151116106e7576040517f08c379a00000000000000000000000000000000000000000000000000000000081526004016106de90611aca565b60405180910390fd5b5f73ffffffffffffffffffffffffffffffffffffffff165f803373ffffffffffffffffffffffffffffffffffffffff1673ffffffffffffffffffffffffffffffffffffffff1681526020019081526020015f206001015f9054906101000a900473ffffffffffffffffffffffffffffffffffffffff1673ffffffffffffffffffffffffffffffffffffffff16146107b3576040517f08c379a00000000000000000000000000000000000000000000000000000000081526004016107aa90611b32565b60405180910390fd5b60405180606001604052808281526020013373ffffffffffffffffffffffffffffffffffffffff168152602001428152505f803373ffffffffffffffffffffffffffffffffffffffff1673ffffffffffffffffffffffffffffffffffffffff1681526020019081526020015f205f820151815f0190816108339190611764565b506020820151816001015f6101000a81548173ffffffffffffffffffffffffffffffffffffffff021916908373ffffffffffffffffffffffffffffffffffffffff160217905550604082015181600201559050503373ffffffffffffffffffffffffffffffffffffffff167f1b7934654ba536b6962955e057ce42885353bbaad8c605a5ce0678e632f28410826040516108cd9190611389565b60405180910390a250565b6108e0610f59565b5f73ffffffffffffffffffffffffffffffffffffffff165f803373ffffffffffffffffffffffffffffffffffffffff1673ffffffffffffffffffffffffffffffffffffffff1681526020019081526020015f206001015f9054906101000a900473ffffffffffffffffffffffffffffffffffffffff1673ffffffffffffffffffffffffffffffffffffffff16036109ac576040517f08c379a00000000000000000000000000000000000000000000000000000000081526004016109a390611b9a565b60405180910390fd5b60035f3373ffffffffffffffffffffffffffffffffffffffff1673ffffffffffffffffffffffffffffffffffffffff1681526020019081526020015f206040518060600160405290815f82018054610a0390611597565b80601f0160208091040260200160405190810160405280929190818152602001828054610a2f90611597565b8015610a7a5780601f10610a5157610100808354040283529160200191610a7a565b820191905f5260205f20905b815481529060010190602001808311610a5d57829003601f168201915b50505050508152602001600182018054610a9390611597565b80601f0160208091040260200160405190810160405280929190818152602001828054610abf90611597565b8015610b0a5780601f10610ae157610100808354040283529160200191610b0a565b820191905f5260205f20905b815481529060010190602001808311610aed57829003601f168201915b50505050508152602001600282018054610b2390611597565b80601f0160208091040260200160405190810160405280929190818152602001828054610b4f90611597565b8015610b9a5780601f10610b7157610100808354040283529160200191610b9a565b820191905f5260205f20905b815481529060010190602001808311610b7d57829003601f168201915b505050505081525050905090565b5f73ffffffffffffffffffffffffffffffffffffffff165f803373ffffffffffffffffffffffffffffffffffffffff1673ffffffffffffffffffffffffffffffffffffffff1681526020019081526020015f206001015f9054906101000a900473ffffffffffffffffffffffffffffffffffffffff1673ffffffffffffffffffffffffffffffffffffffff1603610c74576040517f08c379a0000000000000000000000000000000000000000000000000000000008152600401610c6b906113f3565b60405180910390fd5b5f815111610cb7576040517f08c379a0000000000000000000000000000000000000000000000000000000008152600401610cae9061145b565b60405180910390fd5b8060015f8473ffffffffffffffffffffffffffffffffffffffff1673ffffffffffffffffffffffffffffffffffffffff1681526020019081526020015f209081610d019190611764565b5060025f8373ffffffffffffffffffffffffffffffffffffffff1673ffffffffffffffffffffffffffffffffffffffff1681526020019081526020015f2081908060018154018082558091505060019003905f5260205f20015f909190919091509081610d6e9190611764565b508173ffffffffffffffffffffffffffffffffffffffff167f955a8164e26d3082026a4713bbcc2102183cd483ccf49d50cc35fb4e97d540d082604051610db59190611389565b60405180910390a25050565b60605f73ffffffffffffffffffffffffffffffffffffffff165f803373ffffffffffffffffffffffffffffffffffffffff1673ffffffffffffffffffffffffffffffffffffffff1681526020019081526020015f206001015f9054906101000a900473ffffffffffffffffffffffffffffffffffffffff1673ffffffffffffffffffffffffffffffffffffffff1603610e8f576040517f08c379a0000000000000000000000000000000000000000000000000000000008152600401610e8690611a18565b60405180910390fd5b5f803373ffffffffffffffffffffffffffffffffffffffff1673ffffffffffffffffffffffffffffffffffffffff1681526020019081526020015f205f018054610ed890611597565b80601f0160208091040260200160405190810160405280929190818152602001828054610f0490611597565b8015610f4f5780601f10610f2657610100808354040283529160200191610f4f565b820191905f5260205f20905b815481529060010190602001808311610f3257829003601f168201915b5050505050905090565b60405180606001604052806060815260200160608152602001606081525090565b5f604051905090565b5f80fd5b5f80fd5b5f73ffffffffffffffffffffffffffffffffffffffff82169050919050565b5f610fb482610f8b565b9050919050565b610fc481610faa565b8114610fce575f80fd5b50565b5f81359050610fdf81610fbb565b92915050565b5f80fd5b5f80fd5b5f601f19601f8301169050919050565b7f4e487b71000000000000000000000000000000000000000000000000000000005f52604160045260245ffd5b61103382610fed565b810181811067ffffffffffffffff8211171561105257611051610ffd565b5b80604052505050565b5f611064610f7a565b9050611070828261102a565b919050565b5f67ffffffffffffffff82111561108f5761108e610ffd565b5b61109882610fed565b9050602081019050919050565b828183375f83830152505050565b5f6110c56110c084611075565b61105b565b9050828152602081018484840111156110e1576110e0610fe9565b5b6110ec8482856110a5565b509392505050565b5f82601f83011261110857611107610fe5565b5b81356111188482602086016110b3565b91505092915050565b5f806040838503121561113757611136610f83565b5b5f61114485828601610fd1565b925050602083013567ffffffffffffffff81111561116557611164610f87565b5b611171858286016110f4565b9150509250929050565b5f805f6060848603121561119257611191610f83565b5b5f84013567ffffffffffffffff8111156111af576111ae610f87565b5b6111bb868287016110f4565b935050602084013567ffffffffffffffff8111156111dc576111db610f87565b5b6111e8868287016110f4565b925050604084013567ffffffffffffffff81111561120957611208610f87565b5b611215868287016110f4565b9150509250925092565b5f6020828403121561123457611233610f83565b5b5f82013567ffffffffffffffff81111561125157611250610f87565b5b61125d848285016110f4565b91505092915050565b5f81519050919050565b5f82825260208201905092915050565b8281835e5f83830152505050565b5f61129882611266565b6112a28185611270565b93506112b2818560208601611280565b6112bb81610fed565b840191505092915050565b5f606083015f8301518482035f8601526112e0828261128e565b915050602083015184820360208601526112fa828261128e565b91505060408301518482036040860152611314828261128e565b9150508091505092915050565b5f6020820190508181035f83015261133981846112c6565b905092915050565b5f82825260208201905092915050565b5f61135b82611266565b6113658185611341565b9350611375818560208601611280565b61137e81610fed565b840191505092915050565b5f6020820190508181035f8301526113a18184611351565b905092915050565b7f497373756572206d7573742068617665206120444944000000000000000000005f82015250565b5f6113dd601683611341565b91506113e8826113a9565b602082019050919050565b5f6020820190508181035f83015261140a816113d1565b9050919050565b7f526f6c652063616e6e6f7420626520656d7074790000000000000000000000005f82015250565b5f611445601483611341565b915061145082611411565b602082019050919050565b5f6020820190508181035f83015261147281611439565b9050919050565b5f8160601b9050919050565b5f61148f82611479565b9050919050565b5f6114a082611485565b9050919050565b6114b86114b382610faa565b611496565b82525050565b5f81905092915050565b5f6114d282611266565b6114dc81856114be565b93506114ec818560208601611280565b80840191505092915050565b5f819050919050565b5f819050919050565b61151b611516826114f8565b611501565b82525050565b5f61152c82876114a7565b60148201915061153c82866114a7565b60148201915061154c82856114c8565b9150611558828461150a565b60208201915081905095945050505050565b7f4e487b71000000000000000000000000000000000000000000000000000000005f52602260045260245ffd5b5f60028204905060018216806115ae57607f821691505b6020821081036115c1576115c061156a565b5b50919050565b5f819050815f5260205f209050919050565b5f6020601f8301049050919050565b5f82821b905092915050565b5f600883026116237fffffffffffffffffffffffffffffffffffffffffffffffffffffffffffffffff826115e8565b61162d86836115e8565b95508019841693508086168417925050509392505050565b5f819050919050565b5f61166861166361165e846114f8565b611645565b6114f8565b9050919050565b5f819050919050565b6116818361164e565b61169561168d8261166f565b8484546115f4565b825550505050565b5f90565b6116a961169d565b6116b4818484611678565b505050565b5b818110156116d7576116cc5f826116a1565b6001810190506116ba565b5050565b601f82111561171c576116ed816115c7565b6116f6846115d9565b81016020851015611705578190505b611719611711856115d9565b8301826116b9565b50505b505050565b5f82821c905092915050565b5f61173c5f1984600802611721565b1980831691505092915050565b5f611754838361172d565b9150826002028217905092915050565b61176d82611266565b67ffffffffffffffff81111561178657611785610ffd565b5b6117908254611597565b61179b8282856116db565b5f60209050601f8311600181146117cc575f84156117ba578287015190505b6117c48582611749565b86555061182b565b601f1984166117da866115c7565b5f5b82811015611801578489015182556001820191506020850194506020810190506117dc565b8683101561181e578489015161181a601f89168261172d565b8355505b6001600288020188555050505b505050505050565b61183c81610faa565b82525050565b5f819050919050565b61185481611842565b82525050565b5f60608201905061186d5f830186611833565b818103602083015261187f8185611351565b905061188e604083018461184b565b949350505050565b7f4e616d652063616e6e6f7420626520656d7074790000000000000000000000005f82015250565b5f6118ca601483611341565b91506118d582611896565b602082019050919050565b5f6020820190508181035f8301526118f7816118be565b9050919050565b7f456d61696c2063616e6e6f7420626520656d70747900000000000000000000005f82015250565b5f611932601583611341565b915061193d826118fe565b602082019050919050565b5f6020820190508181035f83015261195f81611926565b9050919050565b7f50726f66696c6520706963747572652063616e6e6f7420626520656d707479005f82015250565b5f61199a601f83611341565b91506119a582611966565b602082019050919050565b5f6020820190508181035f8301526119c78161198e565b9050919050565b7f4e6f2044494420666f756e6420666f72207468697320616464726573730000005f82015250565b5f611a02601d83611341565b9150611a0d826119ce565b602082019050919050565b5f6020820190508181035f830152611a2f816119f6565b9050919050565b5f6060820190508181035f830152611a4e8186611351565b90508181036020830152611a628185611351565b90508181036040830152611a768184611351565b9050949350505050565b7f4964656e7469666965722063616e6e6f7420626520656d7074790000000000005f82015250565b5f611ab4601a83611341565b9150611abf82611a80565b602082019050919050565b5f6020820190508181035f830152611ae181611aa8565b9050919050565b7f44494420616c72656164792065786973747300000000000000000000000000005f82015250565b5f611b1c601283611341565b9150611b2782611ae8565b602082019050919050565b5f6020820190508181035f830152611b4981611b10565b9050919050565b7f4461746120646f6573206e6f74206578697374000000000000000000000000005f82015250565b5f611b84601383611341565b9150611b8f82611b50565b602082019050919050565b5f6020820190508181035f830152611bb181611b78565b905091905056fea2646970667358221220623f628e2a2d08b5ed514cba6f951478bfe7be8ead8b1547dc15ea21802e052d64736f6c634300081a0033",
					"opcodes": "PUSH1 0x80 PUSH1 0x40 MSTORE CALLVALUE DUP1 ISZERO PUSH2 0xF JUMPI PUSH0 DUP1 REVERT JUMPDEST POP PUSH1 0x40 MLOAD DUP1 PUSH1 0x40 ADD PUSH1 0x40 MSTORE DUP1 PUSH1 0xB DUP2 MSTORE PUSH1 0x20 ADD PUSH32 0x73757065722061646D696E000000000000000000000000000000000000000000 DUP2 MSTORE POP PUSH1 0x1 PUSH0 CALLER PUSH20 0xFFFFFFFFFFFFFFFFFFFFFFFFFFFFFFFFFFFFFFFF AND PUSH20 0xFFFFFFFFFFFFFFFFFFFFFFFFFFFFFFFFFFFFFFFF AND DUP2 MSTORE PUSH1 0x20 ADD SWAP1 DUP2 MSTORE PUSH1 0x20 ADD PUSH0 KECCAK256 SWAP1 DUP2 PUSH2 0x8F SWAP2 SWAP1 PUSH2 0x36E JUMP JUMPDEST POP PUSH1 0x2 PUSH0 CALLER PUSH20 0xFFFFFFFFFFFFFFFFFFFFFFFFFFFFFFFFFFFFFFFF AND PUSH20 0xFFFFFFFFFFFFFFFFFFFFFFFFFFFFFFFFFFFFFFFF AND DUP2 MSTORE PUSH1 0x20 ADD SWAP1 DUP2 MSTORE PUSH1 0x20 ADD PUSH0 KECCAK256 DUP1 PUSH1 0x1 DUP2 SLOAD ADD DUP1 DUP3 SSTORE DUP1 SWAP2 POP POP PUSH1 0x1 SWAP1 SUB SWAP1 PUSH0 MSTORE PUSH1 0x20 PUSH0 KECCAK256 ADD PUSH0 PUSH1 0x40 MLOAD DUP1 PUSH1 0x40 ADD PUSH1 0x40 MSTORE DUP1 PUSH1 0xB DUP2 MSTORE PUSH1 0x20 ADD PUSH32 0x73757065722061646D696E000000000000000000000000000000000000000000 DUP2 MSTORE POP SWAP1 SWAP2 SWAP1 SWAP2 POP SWAP1 DUP2 PUSH2 0x12E SWAP2 SWAP1 PUSH2 0x36E JUMP JUMPDEST POP PUSH2 0x43D JUMP JUMPDEST PUSH0 DUP2 MLOAD SWAP1 POP SWAP2 SWAP1 POP JUMP JUMPDEST PUSH32 0x4E487B7100000000000000000000000000000000000000000000000000000000 PUSH0 MSTORE PUSH1 0x41 PUSH1 0x4 MSTORE PUSH1 0x24 PUSH0 REVERT JUMPDEST PUSH32 0x4E487B7100000000000000000000000000000000000000000000000000000000 PUSH0 MSTORE PUSH1 0x22 PUSH1 0x4 MSTORE PUSH1 0x24 PUSH0 REVERT JUMPDEST PUSH0 PUSH1 0x2 DUP3 DIV SWAP1 POP PUSH1 0x1 DUP3 AND DUP1 PUSH2 0x1AF JUMPI PUSH1 0x7F DUP3 AND SWAP2 POP JUMPDEST PUSH1 0x20 DUP3 LT DUP2 SUB PUSH2 0x1C2 JUMPI PUSH2 0x1C1 PUSH2 0x16B JUMP JUMPDEST JUMPDEST POP SWAP2 SWAP1 POP JUMP JUMPDEST PUSH0 DUP2 SWAP1 POP DUP2 PUSH0 MSTORE PUSH1 0x20 PUSH0 KECCAK256 SWAP1 POP SWAP2 SWAP1 POP JUMP JUMPDEST PUSH0 PUSH1 0x20 PUSH1 0x1F DUP4 ADD DIV SWAP1 POP SWAP2 SWAP1 POP JUMP JUMPDEST PUSH0 DUP3 DUP3 SHL SWAP1 POP SWAP3 SWAP2 POP POP JUMP JUMPDEST PUSH0 PUSH1 0x8 DUP4 MUL PUSH2 0x224 PUSH32 0xFFFFFFFFFFFFFFFFFFFFFFFFFFFFFFFFFFFFFFFFFFFFFFFFFFFFFFFFFFFFFFFF DUP3 PUSH2 0x1E9 JUMP JUMPDEST PUSH2 0x22E DUP7 DUP4 PUSH2 0x1E9 JUMP JUMPDEST SWAP6 POP DUP1 NOT DUP5 AND SWAP4 POP DUP1 DUP7 AND DUP5 OR SWAP3 POP POP POP SWAP4 SWAP3 POP POP POP JUMP JUMPDEST PUSH0 DUP2 SWAP1 POP SWAP2 SWAP1 POP JUMP JUMPDEST PUSH0 DUP2 SWAP1 POP SWAP2 SWAP1 POP JUMP JUMPDEST PUSH0 PUSH2 0x272 PUSH2 0x26D PUSH2 0x268 DUP5 PUSH2 0x246 JUMP JUMPDEST PUSH2 0x24F JUMP JUMPDEST PUSH2 0x246 JUMP JUMPDEST SWAP1 POP SWAP2 SWAP1 POP JUMP JUMPDEST PUSH0 DUP2 SWAP1 POP SWAP2 SWAP1 POP JUMP JUMPDEST PUSH2 0x28B DUP4 PUSH2 0x258 JUMP JUMPDEST PUSH2 0x29F PUSH2 0x297 DUP3 PUSH2 0x279 JUMP JUMPDEST DUP5 DUP5 SLOAD PUSH2 0x1F5 JUMP JUMPDEST DUP3 SSTORE POP POP POP POP JUMP JUMPDEST PUSH0 SWAP1 JUMP JUMPDEST PUSH2 0x2B3 PUSH2 0x2A7 JUMP JUMPDEST PUSH2 0x2BE DUP2 DUP5 DUP5 PUSH2 0x282 JUMP JUMPDEST POP POP POP JUMP JUMPDEST JUMPDEST DUP2 DUP2 LT ISZERO PUSH2 0x2E1 JUMPI PUSH2 0x2D6 PUSH0 DUP3 PUSH2 0x2AB JUMP JUMPDEST PUSH1 0x1 DUP2 ADD SWAP1 POP PUSH2 0x2C4 JUMP JUMPDEST POP POP JUMP JUMPDEST PUSH1 0x1F DUP3 GT ISZERO PUSH2 0x326 JUMPI PUSH2 0x2F7 DUP2 PUSH2 0x1C8 JUMP JUMPDEST PUSH2 0x300 DUP5 PUSH2 0x1DA JUMP JUMPDEST DUP2 ADD PUSH1 0x20 DUP6 LT ISZERO PUSH2 0x30F JUMPI DUP2 SWAP1 POP JUMPDEST PUSH2 0x323 PUSH2 0x31B DUP6 PUSH2 0x1DA JUMP JUMPDEST DUP4 ADD DUP3 PUSH2 0x2C3 JUMP JUMPDEST POP POP JUMPDEST POP POP POP JUMP JUMPDEST PUSH0 DUP3 DUP3 SHR SWAP1 POP SWAP3 SWAP2 POP POP JUMP JUMPDEST PUSH0 PUSH2 0x346 PUSH0 NOT DUP5 PUSH1 0x8 MUL PUSH2 0x32B JUMP JUMPDEST NOT DUP1 DUP4 AND SWAP2 POP POP SWAP3 SWAP2 POP POP JUMP JUMPDEST PUSH0 PUSH2 0x35E DUP4 DUP4 PUSH2 0x337 JUMP JUMPDEST SWAP2 POP DUP3 PUSH1 0x2 MUL DUP3 OR SWAP1 POP SWAP3 SWAP2 POP POP JUMP JUMPDEST PUSH2 0x377 DUP3 PUSH2 0x134 JUMP JUMPDEST PUSH8 0xFFFFFFFFFFFFFFFF DUP2 GT ISZERO PUSH2 0x390 JUMPI PUSH2 0x38F PUSH2 0x13E JUMP JUMPDEST JUMPDEST PUSH2 0x39A DUP3 SLOAD PUSH2 0x198 JUMP JUMPDEST PUSH2 0x3A5 DUP3 DUP3 DUP6 PUSH2 0x2E5 JUMP JUMPDEST PUSH0 PUSH1 0x20 SWAP1 POP PUSH1 0x1F DUP4 GT PUSH1 0x1 DUP2 EQ PUSH2 0x3D6 JUMPI PUSH0 DUP5 ISZERO PUSH2 0x3C4 JUMPI DUP3 DUP8 ADD MLOAD SWAP1 POP JUMPDEST PUSH2 0x3CE DUP6 DUP3 PUSH2 0x353 JUMP JUMPDEST DUP7 SSTORE POP PUSH2 0x435 JUMP JUMPDEST PUSH1 0x1F NOT DUP5 AND PUSH2 0x3E4 DUP7 PUSH2 0x1C8 JUMP JUMPDEST PUSH0 JUMPDEST DUP3 DUP2 LT ISZERO PUSH2 0x40B JUMPI DUP5 DUP10 ADD MLOAD DUP3 SSTORE PUSH1 0x1 DUP3 ADD SWAP2 POP PUSH1 0x20 DUP6 ADD SWAP5 POP PUSH1 0x20 DUP2 ADD SWAP1 POP PUSH2 0x3E6 JUMP JUMPDEST DUP7 DUP4 LT ISZERO PUSH2 0x428 JUMPI DUP5 DUP10 ADD MLOAD PUSH2 0x424 PUSH1 0x1F DUP10 AND DUP3 PUSH2 0x337 JUMP JUMPDEST DUP4 SSTORE POP JUMPDEST PUSH1 0x1 PUSH1 0x2 DUP9 MUL ADD DUP9 SSTORE POP POP POP JUMPDEST POP POP POP POP POP POP JUMP JUMPDEST PUSH2 0x1BEE DUP1 PUSH2 0x44A PUSH0 CODECOPY PUSH0 RETURN INVALID PUSH1 0x80 PUSH1 0x40 MSTORE CALLVALUE DUP1 ISZERO PUSH2 0xF JUMPI PUSH0 DUP1 REVERT JUMPDEST POP PUSH1 0x4 CALLDATASIZE LT PUSH2 0x60 JUMPI PUSH0 CALLDATALOAD PUSH1 0xE0 SHR DUP1 PUSH4 0x22BF9C1 EQ PUSH2 0x64 JUMPI DUP1 PUSH4 0x890D80C EQ PUSH2 0x80 JUMPI DUP1 PUSH4 0x3457D3E2 EQ PUSH2 0x9C JUMPI DUP1 PUSH4 0x7A5B4F59 EQ PUSH2 0xB8 JUMPI DUP1 PUSH4 0xB7DFCBEE EQ PUSH2 0xD6 JUMPI DUP1 PUSH4 0xBC9C2D55 EQ PUSH2 0xF2 JUMPI JUMPDEST PUSH0 DUP1 REVERT JUMPDEST PUSH2 0x7E PUSH1 0x4 DUP1 CALLDATASIZE SUB DUP2 ADD SWAP1 PUSH2 0x79 SWAP2 SWAP1 PUSH2 0x1121 JUMP JUMPDEST PUSH2 0x110 JUMP JUMPDEST STOP JUMPDEST PUSH2 0x9A PUSH1 0x4 DUP1 CALLDATASIZE SUB DUP2 ADD SWAP1 PUSH2 0x95 SWAP2 SWAP1 PUSH2 0x117B JUMP JUMPDEST PUSH2 0x41D JUMP JUMPDEST STOP JUMPDEST PUSH2 0xB6 PUSH1 0x4 DUP1 CALLDATASIZE SUB DUP2 ADD SWAP1 PUSH2 0xB1 SWAP2 SWAP1 PUSH2 0x121F JUMP JUMPDEST PUSH2 0x6A4 JUMP JUMPDEST STOP JUMPDEST PUSH2 0xC0 PUSH2 0x8D8 JUMP JUMPDEST PUSH1 0x40 MLOAD PUSH2 0xCD SWAP2 SWAP1 PUSH2 0x1321 JUMP JUMPDEST PUSH1 0x40 MLOAD DUP1 SWAP2 SUB SWAP1 RETURN JUMPDEST PUSH2 0xF0 PUSH1 0x4 DUP1 CALLDATASIZE SUB DUP2 ADD SWAP1 PUSH2 0xEB SWAP2 SWAP1 PUSH2 0x1121 JUMP JUMPDEST PUSH2 0xBA8 JUMP JUMPDEST STOP JUMPDEST PUSH2 0xFA PUSH2 0xDC1 JUMP JUMPDEST PUSH1 0x40 MLOAD PUSH2 0x107 SWAP2 SWAP1 PUSH2 0x1389 JUMP JUMPDEST PUSH1 0x40 MLOAD DUP1 SWAP2 SUB SWAP1 RETURN JUMPDEST PUSH0 PUSH20 0xFFFFFFFFFFFFFFFFFFFFFFFFFFFFFFFFFFFFFFFF AND PUSH0 DUP1 CALLER PUSH20 0xFFFFFFFFFFFFFFFFFFFFFFFFFFFFFFFFFFFFFFFF AND PUSH20 0xFFFFFFFFFFFFFFFFFFFFFFFFFFFFFFFFFFFFFFFF AND DUP2 MSTORE PUSH1 0x20 ADD SWAP1 DUP2 MSTORE PUSH1 0x20 ADD PUSH0 KECCAK256 PUSH1 0x1 ADD PUSH0 SWAP1 SLOAD SWAP1 PUSH2 0x100 EXP SWAP1 DIV PUSH20 0xFFFFFFFFFFFFFFFFFFFFFFFFFFFFFFFFFFFFFFFF AND PUSH20 0xFFFFFFFFFFFFFFFFFFFFFFFFFFFFFFFFFFFFFFFF AND SUB PUSH2 0x1DC JUMPI PUSH1 0x40 MLOAD PUSH32 0x8C379A000000000000000000000000000000000000000000000000000000000 DUP2 MSTORE PUSH1 0x4 ADD PUSH2 0x1D3 SWAP1 PUSH2 0x13F3 JUMP JUMPDEST PUSH1 0x40 MLOAD DUP1 SWAP2 SUB SWAP1 REVERT JUMPDEST PUSH0 DUP2 MLOAD GT PUSH2 0x21F JUMPI PUSH1 0x40 MLOAD PUSH32 0x8C379A000000000000000000000000000000000000000000000000000000000 DUP2 MSTORE PUSH1 0x4 ADD PUSH2 0x216 SWAP1 PUSH2 0x145B JUMP JUMPDEST PUSH1 0x40 MLOAD DUP1 SWAP2 SUB SWAP1 REVERT JUMPDEST PUSH0 CALLER DUP4 DUP4 TIMESTAMP PUSH1 0x40 MLOAD PUSH1 0x20 ADD PUSH2 0x237 SWAP5 SWAP4 SWAP3 SWAP2 SWAP1 PUSH2 0x1521 JUMP JUMPDEST PUSH1 0x40 MLOAD PUSH1 0x20 DUP2 DUP4 SUB SUB DUP2 MSTORE SWAP1 PUSH1 0x40 MSTORE DUP1 MLOAD SWAP1 PUSH1 0x20 ADD KECCAK256 SWAP1 POP PUSH1 0x4 PUSH0 DUP5 PUSH20 0xFFFFFFFFFFFFFFFFFFFFFFFFFFFFFFFFFFFFFFFF AND PUSH20 0xFFFFFFFFFFFFFFFFFFFFFFFFFFFFFFFFFFFFFFFF AND DUP2 MSTORE PUSH1 0x20 ADD SWAP1 DUP2 MSTORE PUSH1 0x20 ADD PUSH0 KECCAK256 PUSH1 0x40 MLOAD DUP1 PUSH1 0x80 ADD PUSH1 0x40 MSTORE DUP1 CALLER PUSH20 0xFFFFFFFFFFFFFFFFFFFFFFFFFFFFFFFFFFFFFFFF AND DUP2 MSTORE PUSH1 0x20 ADD DUP5 DUP2 MSTORE PUSH1 0x20 ADD TIMESTAMP DUP2 MSTORE PUSH1 0x20 ADD DUP4 DUP2 MSTORE POP SWAP1 DUP1 PUSH1 0x1 DUP2 SLOAD ADD DUP1 DUP3 SSTORE DUP1 SWAP2 POP POP PUSH1 0x1 SWAP1 SUB SWAP1 PUSH0 MSTORE PUSH1 0x20 PUSH0 KECCAK256 SWAP1 PUSH1 0x4 MUL ADD PUSH0 SWAP1 SWAP2 SWAP1 SWAP2 SWAP1 SWAP2 POP PUSH0 DUP3 ADD MLOAD DUP2 PUSH0 ADD PUSH0 PUSH2 0x100 EXP DUP2 SLOAD DUP2 PUSH20 0xFFFFFFFFFFFFFFFFFFFFFFFFFFFFFFFFFFFFFFFF MUL NOT AND SWAP1 DUP4 PUSH20 0xFFFFFFFFFFFFFFFFFFFFFFFFFFFFFFFFFFFFFFFF AND MUL OR SWAP1 SSTORE POP PUSH1 0x20 DUP3 ADD MLOAD DUP2 PUSH1 0x1 ADD SWAP1 DUP2 PUSH2 0x342 SWAP2 SWAP1 PUSH2 0x1764 JUMP JUMPDEST POP PUSH1 0x40 DUP3 ADD MLOAD DUP2 PUSH1 0x2 ADD SSTORE PUSH1 0x60 DUP3 ADD MLOAD DUP2 PUSH1 0x3 ADD SSTORE POP POP PUSH1 0x2 PUSH0 DUP5 PUSH20 0xFFFFFFFFFFFFFFFFFFFFFFFFFFFFFFFFFFFFFFFF AND PUSH20 0xFFFFFFFFFFFFFFFFFFFFFFFFFFFFFFFFFFFFFFFF AND DUP2 MSTORE PUSH1 0x20 ADD SWAP1 DUP2 MSTORE PUSH1 0x20 ADD PUSH0 KECCAK256 DUP3 SWAP1 DUP1 PUSH1 0x1 DUP2 SLOAD ADD DUP1 DUP3 SSTORE DUP1 SWAP2 POP POP PUSH1 0x1 SWAP1 SUB SWAP1 PUSH0 MSTORE PUSH1 0x20 PUSH0 KECCAK256 ADD PUSH0 SWAP1 SWAP2 SWAP1 SWAP2 SWAP1 SWAP2 POP SWAP1 DUP2 PUSH2 0x3C5 SWAP2 SWAP1 PUSH2 0x1764 JUMP JUMPDEST POP CALLER PUSH20 0xFFFFFFFFFFFFFFFFFFFFFFFFFFFFFFFFFFFFFFFF AND PUSH32 0xF4313CB022699889C6EDDB590E42342301CDAE4824FD424FFDFDEB23D4CDBBE9 DUP5 DUP5 DUP5 PUSH1 0x40 MLOAD PUSH2 0x410 SWAP4 SWAP3 SWAP2 SWAP1 PUSH2 0x185A JUMP JUMPDEST PUSH1 0x40 MLOAD DUP1 SWAP2 SUB SWAP1 LOG2 POP POP POP JUMP JUMPDEST PUSH0 DUP4 MLOAD GT PUSH2 0x460 JUMPI PUSH1 0x40 MLOAD PUSH32 0x8C379A000000000000000000000000000000000000000000000000000000000 DUP2 MSTORE PUSH1 0x4 ADD PUSH2 0x457 SWAP1 PUSH2 0x18E0 JUMP JUMPDEST PUSH1 0x40 MLOAD DUP1 SWAP2 SUB SWAP1 REVERT JUMPDEST PUSH0 DUP3 MLOAD GT PUSH2 0x4A3 JUMPI PUSH1 0x40 MLOAD PUSH32 0x8C379A000000000000000000000000000000000000000000000000000000000 DUP2 MSTORE PUSH1 0x4 ADD PUSH2 0x49A SWAP1 PUSH2 0x1948 JUMP JUMPDEST PUSH1 0x40 MLOAD DUP1 SWAP2 SUB SWAP1 REVERT JUMPDEST PUSH0 DUP2 MLOAD GT PUSH2 0x4E6 JUMPI PUSH1 0x40 MLOAD PUSH32 0x8C379A000000000000000000000000000000000000000000000000000000000 DUP2 MSTORE PUSH1 0x4 ADD PUSH2 0x4DD SWAP1 PUSH2 0x19B0 JUMP JUMPDEST PUSH1 0x40 MLOAD DUP1 SWAP2 SUB SWAP1 REVERT JUMPDEST PUSH0 PUSH20 0xFFFFFFFFFFFFFFFFFFFFFFFFFFFFFFFFFFFFFFFF AND PUSH0 DUP1 CALLER PUSH20 0xFFFFFFFFFFFFFFFFFFFFFFFFFFFFFFFFFFFFFFFF AND PUSH20 0xFFFFFFFFFFFFFFFFFFFFFFFFFFFFFFFFFFFFFFFF AND DUP2 MSTORE PUSH1 0x20 ADD SWAP1 DUP2 MSTORE PUSH1 0x20 ADD PUSH0 KECCAK256 PUSH1 0x1 ADD PUSH0 SWAP1 SLOAD SWAP1 PUSH2 0x100 EXP SWAP1 DIV PUSH20 0xFFFFFFFFFFFFFFFFFFFFFFFFFFFFFFFFFFFFFFFF AND PUSH20 0xFFFFFFFFFFFFFFFFFFFFFFFFFFFFFFFFFFFFFFFF AND SUB PUSH2 0x5B2 JUMPI PUSH1 0x40 MLOAD PUSH32 0x8C379A000000000000000000000000000000000000000000000000000000000 DUP2 MSTORE PUSH1 0x4 ADD PUSH2 0x5A9 SWAP1 PUSH2 0x1A18 JUMP JUMPDEST PUSH1 0x40 MLOAD DUP1 SWAP2 SUB SWAP1 REVERT JUMPDEST PUSH1 0x40 MLOAD DUP1 PUSH1 0x60 ADD PUSH1 0x40 MSTORE DUP1 DUP5 DUP2 MSTORE PUSH1 0x20 ADD DUP4 DUP2 MSTORE PUSH1 0x20 ADD DUP3 DUP2 MSTORE POP PUSH1 0x3 PUSH0 CALLER PUSH20 0xFFFFFFFFFFFFFFFFFFFFFFFFFFFFFFFFFFFFFFFF AND PUSH20 0xFFFFFFFFFFFFFFFFFFFFFFFFFFFFFFFFFFFFFFFF AND DUP2 MSTORE PUSH1 0x20 ADD SWAP1 DUP2 MSTORE PUSH1 0x20 ADD PUSH0 KECCAK256 PUSH0 DUP3 ADD MLOAD DUP2 PUSH0 ADD SWAP1 DUP2 PUSH2 0x61D SWAP2 SWAP1 PUSH2 0x1764 JUMP JUMPDEST POP PUSH1 0x20 DUP3 ADD MLOAD DUP2 PUSH1 0x1 ADD SWAP1 DUP2 PUSH2 0x633 SWAP2 SWAP1 PUSH2 0x1764 JUMP JUMPDEST POP PUSH1 0x40 DUP3 ADD MLOAD DUP2 PUSH1 0x2 ADD SWAP1 DUP2 PUSH2 0x649 SWAP2 SWAP1 PUSH2 0x1764 JUMP JUMPDEST POP SWAP1 POP POP CALLER PUSH20 0xFFFFFFFFFFFFFFFFFFFFFFFFFFFFFFFFFFFFFFFF AND PUSH32 0x65D0EE13464C98C4CC59B1E8669C3B1E26D6CCC62EC1811070773F0C7903DF2F DUP5 DUP5 DUP5 PUSH1 0x40 MLOAD PUSH2 0x697 SWAP4 SWAP3 SWAP2 SWAP1 PUSH2 0x1A36 JUMP JUMPDEST PUSH1 0x40 MLOAD DUP1 SWAP2 SUB SWAP1 LOG2 POP POP POP JUMP JUMPDEST PUSH0 DUP2 MLOAD GT PUSH2 0x6E7 JUMPI PUSH1 0x40 MLOAD PUSH32 0x8C379A000000000000000000000000000000000000000000000000000000000 DUP2 MSTORE PUSH1 0x4 ADD PUSH2 0x6DE SWAP1 PUSH2 0x1ACA JUMP JUMPDEST PUSH1 0x40 MLOAD DUP1 SWAP2 SUB SWAP1 REVERT JUMPDEST PUSH0 PUSH20 0xFFFFFFFFFFFFFFFFFFFFFFFFFFFFFFFFFFFFFFFF AND PUSH0 DUP1 CALLER PUSH20 0xFFFFFFFFFFFFFFFFFFFFFFFFFFFFFFFFFFFFFFFF AND PUSH20 0xFFFFFFFFFFFFFFFFFFFFFFFFFFFFFFFFFFFFFFFF AND DUP2 MSTORE PUSH1 0x20 ADD SWAP1 DUP2 MSTORE PUSH1 0x20 ADD PUSH0 KECCAK256 PUSH1 0x1 ADD PUSH0 SWAP1 SLOAD SWAP1 PUSH2 0x100 EXP SWAP1 DIV PUSH20 0xFFFFFFFFFFFFFFFFFFFFFFFFFFFFFFFFFFFFFFFF AND PUSH20 0xFFFFFFFFFFFFFFFFFFFFFFFFFFFFFFFFFFFFFFFF AND EQ PUSH2 0x7B3 JUMPI PUSH1 0x40 MLOAD PUSH32 0x8C379A000000000000000000000000000000000000000000000000000000000 DUP2 MSTORE PUSH1 0x4 ADD PUSH2 0x7AA SWAP1 PUSH2 0x1B32 JUMP JUMPDEST PUSH1 0x40 MLOAD DUP1 SWAP2 SUB SWAP1 REVERT JUMPDEST PUSH1 0x40 MLOAD DUP1 PUSH1 0x60 ADD PUSH1 0x40 MSTORE DUP1 DUP3 DUP2 MSTORE PUSH1 0x20 ADD CALLER PUSH20 0xFFFFFFFFFFFFFFFFFFFFFFFFFFFFFFFFFFFFFFFF AND DUP2 MSTORE PUSH1 0x20 ADD TIMESTAMP DUP2 MSTORE POP PUSH0 DUP1 CALLER PUSH20 0xFFFFFFFFFFFFFFFFFFFFFFFFFFFFFFFFFFFFFFFF AND PUSH20 0xFFFFFFFFFFFFFFFFFFFFFFFFFFFFFFFFFFFFFFFF AND DUP2 MSTORE PUSH1 0x20 ADD SWAP1 DUP2 MSTORE PUSH1 0x20 ADD PUSH0 KECCAK256 PUSH0 DUP3 ADD MLOAD DUP2 PUSH0 ADD SWAP1 DUP2 PUSH2 0x833 SWAP2 SWAP1 PUSH2 0x1764 JUMP JUMPDEST POP PUSH1 0x20 DUP3 ADD MLOAD DUP2 PUSH1 0x1 ADD PUSH0 PUSH2 0x100 EXP DUP2 SLOAD DUP2 PUSH20 0xFFFFFFFFFFFFFFFFFFFFFFFFFFFFFFFFFFFFFFFF MUL NOT AND SWAP1 DUP4 PUSH20 0xFFFFFFFFFFFFFFFFFFFFFFFFFFFFFFFFFFFFFFFF AND MUL OR SWAP1 SSTORE POP PUSH1 0x40 DUP3 ADD MLOAD DUP2 PUSH1 0x2 ADD SSTORE SWAP1 POP POP CALLER PUSH20 0xFFFFFFFFFFFFFFFFFFFFFFFFFFFFFFFFFFFFFFFF AND PUSH32 0x1B7934654BA536B6962955E057CE42885353BBAAD8C605A5CE0678E632F28410 DUP3 PUSH1 0x40 MLOAD PUSH2 0x8CD SWAP2 SWAP1 PUSH2 0x1389 JUMP JUMPDEST PUSH1 0x40 MLOAD DUP1 SWAP2 SUB SWAP1 LOG2 POP JUMP JUMPDEST PUSH2 0x8E0 PUSH2 0xF59 JUMP JUMPDEST PUSH0 PUSH20 0xFFFFFFFFFFFFFFFFFFFFFFFFFFFFFFFFFFFFFFFF AND PUSH0 DUP1 CALLER PUSH20 0xFFFFFFFFFFFFFFFFFFFFFFFFFFFFFFFFFFFFFFFF AND PUSH20 0xFFFFFFFFFFFFFFFFFFFFFFFFFFFFFFFFFFFFFFFF AND DUP2 MSTORE PUSH1 0x20 ADD SWAP1 DUP2 MSTORE PUSH1 0x20 ADD PUSH0 KECCAK256 PUSH1 0x1 ADD PUSH0 SWAP1 SLOAD SWAP1 PUSH2 0x100 EXP SWAP1 DIV PUSH20 0xFFFFFFFFFFFFFFFFFFFFFFFFFFFFFFFFFFFFFFFF AND PUSH20 0xFFFFFFFFFFFFFFFFFFFFFFFFFFFFFFFFFFFFFFFF AND SUB PUSH2 0x9AC JUMPI PUSH1 0x40 MLOAD PUSH32 0x8C379A000000000000000000000000000000000000000000000000000000000 DUP2 MSTORE PUSH1 0x4 ADD PUSH2 0x9A3 SWAP1 PUSH2 0x1B9A JUMP JUMPDEST PUSH1 0x40 MLOAD DUP1 SWAP2 SUB SWAP1 REVERT JUMPDEST PUSH1 0x3 PUSH0 CALLER PUSH20 0xFFFFFFFFFFFFFFFFFFFFFFFFFFFFFFFFFFFFFFFF AND PUSH20 0xFFFFFFFFFFFFFFFFFFFFFFFFFFFFFFFFFFFFFFFF AND DUP2 MSTORE PUSH1 0x20 ADD SWAP1 DUP2 MSTORE PUSH1 0x20 ADD PUSH0 KECCAK256 PUSH1 0x40 MLOAD DUP1 PUSH1 0x60 ADD PUSH1 0x40 MSTORE SWAP1 DUP2 PUSH0 DUP3 ADD DUP1 SLOAD PUSH2 0xA03 SWAP1 PUSH2 0x1597 JUMP JUMPDEST DUP1 PUSH1 0x1F ADD PUSH1 0x20 DUP1 SWAP2 DIV MUL PUSH1 0x20 ADD PUSH1 0x40 MLOAD SWAP1 DUP2 ADD PUSH1 0x40 MSTORE DUP1 SWAP3 SWAP2 SWAP1 DUP2 DUP2 MSTORE PUSH1 0x20 ADD DUP3 DUP1 SLOAD PUSH2 0xA2F SWAP1 PUSH2 0x1597 JUMP JUMPDEST DUP1 ISZERO PUSH2 0xA7A JUMPI DUP1 PUSH1 0x1F LT PUSH2 0xA51 JUMPI PUSH2 0x100 DUP1 DUP4 SLOAD DIV MUL DUP4 MSTORE SWAP2 PUSH1 0x20 ADD SWAP2 PUSH2 0xA7A JUMP JUMPDEST DUP3 ADD SWAP2 SWAP1 PUSH0 MSTORE PUSH1 0x20 PUSH0 KECCAK256 SWAP1 JUMPDEST DUP2 SLOAD DUP2 MSTORE SWAP1 PUSH1 0x1 ADD SWAP1 PUSH1 0x20 ADD DUP1 DUP4 GT PUSH2 0xA5D JUMPI DUP3 SWAP1 SUB PUSH1 0x1F AND DUP3 ADD SWAP2 JUMPDEST POP POP POP POP POP DUP2 MSTORE PUSH1 0x20 ADD PUSH1 0x1 DUP3 ADD DUP1 SLOAD PUSH2 0xA93 SWAP1 PUSH2 0x1597 JUMP JUMPDEST DUP1 PUSH1 0x1F ADD PUSH1 0x20 DUP1 SWAP2 DIV MUL PUSH1 0x20 ADD PUSH1 0x40 MLOAD SWAP1 DUP2 ADD PUSH1 0x40 MSTORE DUP1 SWAP3 SWAP2 SWAP1 DUP2 DUP2 MSTORE PUSH1 0x20 ADD DUP3 DUP1 SLOAD PUSH2 0xABF SWAP1 PUSH2 0x1597 JUMP JUMPDEST DUP1 ISZERO PUSH2 0xB0A JUMPI DUP1 PUSH1 0x1F LT PUSH2 0xAE1 JUMPI PUSH2 0x100 DUP1 DUP4 SLOAD DIV MUL DUP4 MSTORE SWAP2 PUSH1 0x20 ADD SWAP2 PUSH2 0xB0A JUMP JUMPDEST DUP3 ADD SWAP2 SWAP1 PUSH0 MSTORE PUSH1 0x20 PUSH0 KECCAK256 SWAP1 JUMPDEST DUP2 SLOAD DUP2 MSTORE SWAP1 PUSH1 0x1 ADD SWAP1 PUSH1 0x20 ADD DUP1 DUP4 GT PUSH2 0xAED JUMPI DUP3 SWAP1 SUB PUSH1 0x1F AND DUP3 ADD SWAP2 JUMPDEST POP POP POP POP POP DUP2 MSTORE PUSH1 0x20 ADD PUSH1 0x2 DUP3 ADD DUP1 SLOAD PUSH2 0xB23 SWAP1 PUSH2 0x1597 JUMP JUMPDEST DUP1 PUSH1 0x1F ADD PUSH1 0x20 DUP1 SWAP2 DIV MUL PUSH1 0x20 ADD PUSH1 0x40 MLOAD SWAP1 DUP2 ADD PUSH1 0x40 MSTORE DUP1 SWAP3 SWAP2 SWAP1 DUP2 DUP2 MSTORE PUSH1 0x20 ADD DUP3 DUP1 SLOAD PUSH2 0xB4F SWAP1 PUSH2 0x1597 JUMP JUMPDEST DUP1 ISZERO PUSH2 0xB9A JUMPI DUP1 PUSH1 0x1F LT PUSH2 0xB71 JUMPI PUSH2 0x100 DUP1 DUP4 SLOAD DIV MUL DUP4 MSTORE SWAP2 PUSH1 0x20 ADD SWAP2 PUSH2 0xB9A JUMP JUMPDEST DUP3 ADD SWAP2 SWAP1 PUSH0 MSTORE PUSH1 0x20 PUSH0 KECCAK256 SWAP1 JUMPDEST DUP2 SLOAD DUP2 MSTORE SWAP1 PUSH1 0x1 ADD SWAP1 PUSH1 0x20 ADD DUP1 DUP4 GT PUSH2 0xB7D JUMPI DUP3 SWAP1 SUB PUSH1 0x1F AND DUP3 ADD SWAP2 JUMPDEST POP POP POP POP POP DUP2 MSTORE POP POP SWAP1 POP SWAP1 JUMP JUMPDEST PUSH0 PUSH20 0xFFFFFFFFFFFFFFFFFFFFFFFFFFFFFFFFFFFFFFFF AND PUSH0 DUP1 CALLER PUSH20 0xFFFFFFFFFFFFFFFFFFFFFFFFFFFFFFFFFFFFFFFF AND PUSH20 0xFFFFFFFFFFFFFFFFFFFFFFFFFFFFFFFFFFFFFFFF AND DUP2 MSTORE PUSH1 0x20 ADD SWAP1 DUP2 MSTORE PUSH1 0x20 ADD PUSH0 KECCAK256 PUSH1 0x1 ADD PUSH0 SWAP1 SLOAD SWAP1 PUSH2 0x100 EXP SWAP1 DIV PUSH20 0xFFFFFFFFFFFFFFFFFFFFFFFFFFFFFFFFFFFFFFFF AND PUSH20 0xFFFFFFFFFFFFFFFFFFFFFFFFFFFFFFFFFFFFFFFF AND SUB PUSH2 0xC74 JUMPI PUSH1 0x40 MLOAD PUSH32 0x8C379A000000000000000000000000000000000000000000000000000000000 DUP2 MSTORE PUSH1 0x4 ADD PUSH2 0xC6B SWAP1 PUSH2 0x13F3 JUMP JUMPDEST PUSH1 0x40 MLOAD DUP1 SWAP2 SUB SWAP1 REVERT JUMPDEST PUSH0 DUP2 MLOAD GT PUSH2 0xCB7 JUMPI PUSH1 0x40 MLOAD PUSH32 0x8C379A000000000000000000000000000000000000000000000000000000000 DUP2 MSTORE PUSH1 0x4 ADD PUSH2 0xCAE SWAP1 PUSH2 0x145B JUMP JUMPDEST PUSH1 0x40 MLOAD DUP1 SWAP2 SUB SWAP1 REVERT JUMPDEST DUP1 PUSH1 0x1 PUSH0 DUP5 PUSH20 0xFFFFFFFFFFFFFFFFFFFFFFFFFFFFFFFFFFFFFFFF AND PUSH20 0xFFFFFFFFFFFFFFFFFFFFFFFFFFFFFFFFFFFFFFFF AND DUP2 MSTORE PUSH1 0x20 ADD SWAP1 DUP2 MSTORE PUSH1 0x20 ADD PUSH0 KECCAK256 SWAP1 DUP2 PUSH2 0xD01 SWAP2 SWAP1 PUSH2 0x1764 JUMP JUMPDEST POP PUSH1 0x2 PUSH0 DUP4 PUSH20 0xFFFFFFFFFFFFFFFFFFFFFFFFFFFFFFFFFFFFFFFF AND PUSH20 0xFFFFFFFFFFFFFFFFFFFFFFFFFFFFFFFFFFFFFFFF AND DUP2 MSTORE PUSH1 0x20 ADD SWAP1 DUP2 MSTORE PUSH1 0x20 ADD PUSH0 KECCAK256 DUP2 SWAP1 DUP1 PUSH1 0x1 DUP2 SLOAD ADD DUP1 DUP3 SSTORE DUP1 SWAP2 POP POP PUSH1 0x1 SWAP1 SUB SWAP1 PUSH0 MSTORE PUSH1 0x20 PUSH0 KECCAK256 ADD PUSH0 SWAP1 SWAP2 SWAP1 SWAP2 SWAP1 SWAP2 POP SWAP1 DUP2 PUSH2 0xD6E SWAP2 SWAP1 PUSH2 0x1764 JUMP JUMPDEST POP DUP2 PUSH20 0xFFFFFFFFFFFFFFFFFFFFFFFFFFFFFFFFFFFFFFFF AND PUSH32 0x955A8164E26D3082026A4713BBCC2102183CD483CCF49D50CC35FB4E97D540D0 DUP3 PUSH1 0x40 MLOAD PUSH2 0xDB5 SWAP2 SWAP1 PUSH2 0x1389 JUMP JUMPDEST PUSH1 0x40 MLOAD DUP1 SWAP2 SUB SWAP1 LOG2 POP POP JUMP JUMPDEST PUSH1 0x60 PUSH0 PUSH20 0xFFFFFFFFFFFFFFFFFFFFFFFFFFFFFFFFFFFFFFFF AND PUSH0 DUP1 CALLER PUSH20 0xFFFFFFFFFFFFFFFFFFFFFFFFFFFFFFFFFFFFFFFF AND PUSH20 0xFFFFFFFFFFFFFFFFFFFFFFFFFFFFFFFFFFFFFFFF AND DUP2 MSTORE PUSH1 0x20 ADD SWAP1 DUP2 MSTORE PUSH1 0x20 ADD PUSH0 KECCAK256 PUSH1 0x1 ADD PUSH0 SWAP1 SLOAD SWAP1 PUSH2 0x100 EXP SWAP1 DIV PUSH20 0xFFFFFFFFFFFFFFFFFFFFFFFFFFFFFFFFFFFFFFFF AND PUSH20 0xFFFFFFFFFFFFFFFFFFFFFFFFFFFFFFFFFFFFFFFF AND SUB PUSH2 0xE8F JUMPI PUSH1 0x40 MLOAD PUSH32 0x8C379A000000000000000000000000000000000000000000000000000000000 DUP2 MSTORE PUSH1 0x4 ADD PUSH2 0xE86 SWAP1 PUSH2 0x1A18 JUMP JUMPDEST PUSH1 0x40 MLOAD DUP1 SWAP2 SUB SWAP1 REVERT JUMPDEST PUSH0 DUP1 CALLER PUSH20 0xFFFFFFFFFFFFFFFFFFFFFFFFFFFFFFFFFFFFFFFF AND PUSH20 0xFFFFFFFFFFFFFFFFFFFFFFFFFFFFFFFFFFFFFFFF AND DUP2 MSTORE PUSH1 0x20 ADD SWAP1 DUP2 MSTORE PUSH1 0x20 ADD PUSH0 KECCAK256 PUSH0 ADD DUP1 SLOAD PUSH2 0xED8 SWAP1 PUSH2 0x1597 JUMP JUMPDEST DUP1 PUSH1 0x1F ADD PUSH1 0x20 DUP1 SWAP2 DIV MUL PUSH1 0x20 ADD PUSH1 0x40 MLOAD SWAP1 DUP2 ADD PUSH1 0x40 MSTORE DUP1 SWAP3 SWAP2 SWAP1 DUP2 DUP2 MSTORE PUSH1 0x20 ADD DUP3 DUP1 SLOAD PUSH2 0xF04 SWAP1 PUSH2 0x1597 JUMP JUMPDEST DUP1 ISZERO PUSH2 0xF4F JUMPI DUP1 PUSH1 0x1F LT PUSH2 0xF26 JUMPI PUSH2 0x100 DUP1 DUP4 SLOAD DIV MUL DUP4 MSTORE SWAP2 PUSH1 0x20 ADD SWAP2 PUSH2 0xF4F JUMP JUMPDEST DUP3 ADD SWAP2 SWAP1 PUSH0 MSTORE PUSH1 0x20 PUSH0 KECCAK256 SWAP1 JUMPDEST DUP2 SLOAD DUP2 MSTORE SWAP1 PUSH1 0x1 ADD SWAP1 PUSH1 0x20 ADD DUP1 DUP4 GT PUSH2 0xF32 JUMPI DUP3 SWAP1 SUB PUSH1 0x1F AND DUP3 ADD SWAP2 JUMPDEST POP POP POP POP POP SWAP1 POP SWAP1 JUMP JUMPDEST PUSH1 0x40 MLOAD DUP1 PUSH1 0x60 ADD PUSH1 0x40 MSTORE DUP1 PUSH1 0x60 DUP2 MSTORE PUSH1 0x20 ADD PUSH1 0x60 DUP2 MSTORE PUSH1 0x20 ADD PUSH1 0x60 DUP2 MSTORE POP SWAP1 JUMP JUMPDEST PUSH0 PUSH1 0x40 MLOAD SWAP1 POP SWAP1 JUMP JUMPDEST PUSH0 DUP1 REVERT JUMPDEST PUSH0 DUP1 REVERT JUMPDEST PUSH0 PUSH20 0xFFFFFFFFFFFFFFFFFFFFFFFFFFFFFFFFFFFFFFFF DUP3 AND SWAP1 POP SWAP2 SWAP1 POP JUMP JUMPDEST PUSH0 PUSH2 0xFB4 DUP3 PUSH2 0xF8B JUMP JUMPDEST SWAP1 POP SWAP2 SWAP1 POP JUMP JUMPDEST PUSH2 0xFC4 DUP2 PUSH2 0xFAA JUMP JUMPDEST DUP2 EQ PUSH2 0xFCE JUMPI PUSH0 DUP1 REVERT JUMPDEST POP JUMP JUMPDEST PUSH0 DUP2 CALLDATALOAD SWAP1 POP PUSH2 0xFDF DUP2 PUSH2 0xFBB JUMP JUMPDEST SWAP3 SWAP2 POP POP JUMP JUMPDEST PUSH0 DUP1 REVERT JUMPDEST PUSH0 DUP1 REVERT JUMPDEST PUSH0 PUSH1 0x1F NOT PUSH1 0x1F DUP4 ADD AND SWAP1 POP SWAP2 SWAP1 POP JUMP JUMPDEST PUSH32 0x4E487B7100000000000000000000000000000000000000000000000000000000 PUSH0 MSTORE PUSH1 0x41 PUSH1 0x4 MSTORE PUSH1 0x24 PUSH0 REVERT JUMPDEST PUSH2 0x1033 DUP3 PUSH2 0xFED JUMP JUMPDEST DUP2 ADD DUP2 DUP2 LT PUSH8 0xFFFFFFFFFFFFFFFF DUP3 GT OR ISZERO PUSH2 0x1052 JUMPI PUSH2 0x1051 PUSH2 0xFFD JUMP JUMPDEST JUMPDEST DUP1 PUSH1 0x40 MSTORE POP POP POP JUMP JUMPDEST PUSH0 PUSH2 0x1064 PUSH2 0xF7A JUMP JUMPDEST SWAP1 POP PUSH2 0x1070 DUP3 DUP3 PUSH2 0x102A JUMP JUMPDEST SWAP2 SWAP1 POP JUMP JUMPDEST PUSH0 PUSH8 0xFFFFFFFFFFFFFFFF DUP3 GT ISZERO PUSH2 0x108F JUMPI PUSH2 0x108E PUSH2 0xFFD JUMP JUMPDEST JUMPDEST PUSH2 0x1098 DUP3 PUSH2 0xFED JUMP JUMPDEST SWAP1 POP PUSH1 0x20 DUP2 ADD SWAP1 POP SWAP2 SWAP1 POP JUMP JUMPDEST DUP3 DUP2 DUP4 CALLDATACOPY PUSH0 DUP4 DUP4 ADD MSTORE POP POP POP JUMP JUMPDEST PUSH0 PUSH2 0x10C5 PUSH2 0x10C0 DUP5 PUSH2 0x1075 JUMP JUMPDEST PUSH2 0x105B JUMP JUMPDEST SWAP1 POP DUP3 DUP2 MSTORE PUSH1 0x20 DUP2 ADD DUP5 DUP5 DUP5 ADD GT ISZERO PUSH2 0x10E1 JUMPI PUSH2 0x10E0 PUSH2 0xFE9 JUMP JUMPDEST JUMPDEST PUSH2 0x10EC DUP5 DUP3 DUP6 PUSH2 0x10A5 JUMP JUMPDEST POP SWAP4 SWAP3 POP POP POP JUMP JUMPDEST PUSH0 DUP3 PUSH1 0x1F DUP4 ADD SLT PUSH2 0x1108 JUMPI PUSH2 0x1107 PUSH2 0xFE5 JUMP JUMPDEST JUMPDEST DUP2 CALLDATALOAD PUSH2 0x1118 DUP5 DUP3 PUSH1 0x20 DUP7 ADD PUSH2 0x10B3 JUMP JUMPDEST SWAP2 POP POP SWAP3 SWAP2 POP POP JUMP JUMPDEST PUSH0 DUP1 PUSH1 0x40 DUP4 DUP6 SUB SLT ISZERO PUSH2 0x1137 JUMPI PUSH2 0x1136 PUSH2 0xF83 JUMP JUMPDEST JUMPDEST PUSH0 PUSH2 0x1144 DUP6 DUP3 DUP7 ADD PUSH2 0xFD1 JUMP JUMPDEST SWAP3 POP POP PUSH1 0x20 DUP4 ADD CALLDATALOAD PUSH8 0xFFFFFFFFFFFFFFFF DUP2 GT ISZERO PUSH2 0x1165 JUMPI PUSH2 0x1164 PUSH2 0xF87 JUMP JUMPDEST JUMPDEST PUSH2 0x1171 DUP6 DUP3 DUP7 ADD PUSH2 0x10F4 JUMP JUMPDEST SWAP2 POP POP SWAP3 POP SWAP3 SWAP1 POP JUMP JUMPDEST PUSH0 DUP1 PUSH0 PUSH1 0x60 DUP5 DUP7 SUB SLT ISZERO PUSH2 0x1192 JUMPI PUSH2 0x1191 PUSH2 0xF83 JUMP JUMPDEST JUMPDEST PUSH0 DUP5 ADD CALLDATALOAD PUSH8 0xFFFFFFFFFFFFFFFF DUP2 GT ISZERO PUSH2 0x11AF JUMPI PUSH2 0x11AE PUSH2 0xF87 JUMP JUMPDEST JUMPDEST PUSH2 0x11BB DUP7 DUP3 DUP8 ADD PUSH2 0x10F4 JUMP JUMPDEST SWAP4 POP POP PUSH1 0x20 DUP5 ADD CALLDATALOAD PUSH8 0xFFFFFFFFFFFFFFFF DUP2 GT ISZERO PUSH2 0x11DC JUMPI PUSH2 0x11DB PUSH2 0xF87 JUMP JUMPDEST JUMPDEST PUSH2 0x11E8 DUP7 DUP3 DUP8 ADD PUSH2 0x10F4 JUMP JUMPDEST SWAP3 POP POP PUSH1 0x40 DUP5 ADD CALLDATALOAD PUSH8 0xFFFFFFFFFFFFFFFF DUP2 GT ISZERO PUSH2 0x1209 JUMPI PUSH2 0x1208 PUSH2 0xF87 JUMP JUMPDEST JUMPDEST PUSH2 0x1215 DUP7 DUP3 DUP8 ADD PUSH2 0x10F4 JUMP JUMPDEST SWAP2 POP POP SWAP3 POP SWAP3 POP SWAP3 JUMP JUMPDEST PUSH0 PUSH1 0x20 DUP3 DUP5 SUB SLT ISZERO PUSH2 0x1234 JUMPI PUSH2 0x1233 PUSH2 0xF83 JUMP JUMPDEST JUMPDEST PUSH0 DUP3 ADD CALLDATALOAD PUSH8 0xFFFFFFFFFFFFFFFF DUP2 GT ISZERO PUSH2 0x1251 JUMPI PUSH2 0x1250 PUSH2 0xF87 JUMP JUMPDEST JUMPDEST PUSH2 0x125D DUP5 DUP3 DUP6 ADD PUSH2 0x10F4 JUMP JUMPDEST SWAP2 POP POP SWAP3 SWAP2 POP POP JUMP JUMPDEST PUSH0 DUP2 MLOAD SWAP1 POP SWAP2 SWAP1 POP JUMP JUMPDEST PUSH0 DUP3 DUP3 MSTORE PUSH1 0x20 DUP3 ADD SWAP1 POP SWAP3 SWAP2 POP POP JUMP JUMPDEST DUP3 DUP2 DUP4 MCOPY PUSH0 DUP4 DUP4 ADD MSTORE POP POP POP JUMP JUMPDEST PUSH0 PUSH2 0x1298 DUP3 PUSH2 0x1266 JUMP JUMPDEST PUSH2 0x12A2 DUP2 DUP6 PUSH2 0x1270 JUMP JUMPDEST SWAP4 POP PUSH2 0x12B2 DUP2 DUP6 PUSH1 0x20 DUP7 ADD PUSH2 0x1280 JUMP JUMPDEST PUSH2 0x12BB DUP2 PUSH2 0xFED JUMP JUMPDEST DUP5 ADD SWAP2 POP POP SWAP3 SWAP2 POP POP JUMP JUMPDEST PUSH0 PUSH1 0x60 DUP4 ADD PUSH0 DUP4 ADD MLOAD DUP5 DUP3 SUB PUSH0 DUP7 ADD MSTORE PUSH2 0x12E0 DUP3 DUP3 PUSH2 0x128E JUMP JUMPDEST SWAP2 POP POP PUSH1 0x20 DUP4 ADD MLOAD DUP5 DUP3 SUB PUSH1 0x20 DUP7 ADD MSTORE PUSH2 0x12FA DUP3 DUP3 PUSH2 0x128E JUMP JUMPDEST SWAP2 POP POP PUSH1 0x40 DUP4 ADD MLOAD DUP5 DUP3 SUB PUSH1 0x40 DUP7 ADD MSTORE PUSH2 0x1314 DUP3 DUP3 PUSH2 0x128E JUMP JUMPDEST SWAP2 POP POP DUP1 SWAP2 POP POP SWAP3 SWAP2 POP POP JUMP JUMPDEST PUSH0 PUSH1 0x20 DUP3 ADD SWAP1 POP DUP2 DUP2 SUB PUSH0 DUP4 ADD MSTORE PUSH2 0x1339 DUP2 DUP5 PUSH2 0x12C6 JUMP JUMPDEST SWAP1 POP SWAP3 SWAP2 POP POP JUMP JUMPDEST PUSH0 DUP3 DUP3 MSTORE PUSH1 0x20 DUP3 ADD SWAP1 POP SWAP3 SWAP2 POP POP JUMP JUMPDEST PUSH0 PUSH2 0x135B DUP3 PUSH2 0x1266 JUMP JUMPDEST PUSH2 0x1365 DUP2 DUP6 PUSH2 0x1341 JUMP JUMPDEST SWAP4 POP PUSH2 0x1375 DUP2 DUP6 PUSH1 0x20 DUP7 ADD PUSH2 0x1280 JUMP JUMPDEST PUSH2 0x137E DUP2 PUSH2 0xFED JUMP JUMPDEST DUP5 ADD SWAP2 POP POP SWAP3 SWAP2 POP POP JUMP JUMPDEST PUSH0 PUSH1 0x20 DUP3 ADD SWAP1 POP DUP2 DUP2 SUB PUSH0 DUP4 ADD MSTORE PUSH2 0x13A1 DUP2 DUP5 PUSH2 0x1351 JUMP JUMPDEST SWAP1 POP SWAP3 SWAP2 POP POP JUMP JUMPDEST PUSH32 0x497373756572206D757374206861766520612044494400000000000000000000 PUSH0 DUP3 ADD MSTORE POP JUMP JUMPDEST PUSH0 PUSH2 0x13DD PUSH1 0x16 DUP4 PUSH2 0x1341 JUMP JUMPDEST SWAP2 POP PUSH2 0x13E8 DUP3 PUSH2 0x13A9 JUMP JUMPDEST PUSH1 0x20 DUP3 ADD SWAP1 POP SWAP2 SWAP1 POP JUMP JUMPDEST PUSH0 PUSH1 0x20 DUP3 ADD SWAP1 POP DUP2 DUP2 SUB PUSH0 DUP4 ADD MSTORE PUSH2 0x140A DUP2 PUSH2 0x13D1 JUMP JUMPDEST SWAP1 POP SWAP2 SWAP1 POP JUMP JUMPDEST PUSH32 0x526F6C652063616E6E6F7420626520656D707479000000000000000000000000 PUSH0 DUP3 ADD MSTORE POP JUMP JUMPDEST PUSH0 PUSH2 0x1445 PUSH1 0x14 DUP4 PUSH2 0x1341 JUMP JUMPDEST SWAP2 POP PUSH2 0x1450 DUP3 PUSH2 0x1411 JUMP JUMPDEST PUSH1 0x20 DUP3 ADD SWAP1 POP SWAP2 SWAP1 POP JUMP JUMPDEST PUSH0 PUSH1 0x20 DUP3 ADD SWAP1 POP DUP2 DUP2 SUB PUSH0 DUP4 ADD MSTORE PUSH2 0x1472 DUP2 PUSH2 0x1439 JUMP JUMPDEST SWAP1 POP SWAP2 SWAP1 POP JUMP JUMPDEST PUSH0 DUP2 PUSH1 0x60 SHL SWAP1 POP SWAP2 SWAP1 POP JUMP JUMPDEST PUSH0 PUSH2 0x148F DUP3 PUSH2 0x1479 JUMP JUMPDEST SWAP1 POP SWAP2 SWAP1 POP JUMP JUMPDEST PUSH0 PUSH2 0x14A0 DUP3 PUSH2 0x1485 JUMP JUMPDEST SWAP1 POP SWAP2 SWAP1 POP JUMP JUMPDEST PUSH2 0x14B8 PUSH2 0x14B3 DUP3 PUSH2 0xFAA JUMP JUMPDEST PUSH2 0x1496 JUMP JUMPDEST DUP3 MSTORE POP POP JUMP JUMPDEST PUSH0 DUP2 SWAP1 POP SWAP3 SWAP2 POP POP JUMP JUMPDEST PUSH0 PUSH2 0x14D2 DUP3 PUSH2 0x1266 JUMP JUMPDEST PUSH2 0x14DC DUP2 DUP6 PUSH2 0x14BE JUMP JUMPDEST SWAP4 POP PUSH2 0x14EC DUP2 DUP6 PUSH1 0x20 DUP7 ADD PUSH2 0x1280 JUMP JUMPDEST DUP1 DUP5 ADD SWAP2 POP POP SWAP3 SWAP2 POP POP JUMP JUMPDEST PUSH0 DUP2 SWAP1 POP SWAP2 SWAP1 POP JUMP JUMPDEST PUSH0 DUP2 SWAP1 POP SWAP2 SWAP1 POP JUMP JUMPDEST PUSH2 0x151B PUSH2 0x1516 DUP3 PUSH2 0x14F8 JUMP JUMPDEST PUSH2 0x1501 JUMP JUMPDEST DUP3 MSTORE POP POP JUMP JUMPDEST PUSH0 PUSH2 0x152C DUP3 DUP8 PUSH2 0x14A7 JUMP JUMPDEST PUSH1 0x14 DUP3 ADD SWAP2 POP PUSH2 0x153C DUP3 DUP7 PUSH2 0x14A7 JUMP JUMPDEST PUSH1 0x14 DUP3 ADD SWAP2 POP PUSH2 0x154C DUP3 DUP6 PUSH2 0x14C8 JUMP JUMPDEST SWAP2 POP PUSH2 0x1558 DUP3 DUP5 PUSH2 0x150A JUMP JUMPDEST PUSH1 0x20 DUP3 ADD SWAP2 POP DUP2 SWAP1 POP SWAP6 SWAP5 POP POP POP POP POP JUMP JUMPDEST PUSH32 0x4E487B7100000000000000000000000000000000000000000000000000000000 PUSH0 MSTORE PUSH1 0x22 PUSH1 0x4 MSTORE PUSH1 0x24 PUSH0 REVERT JUMPDEST PUSH0 PUSH1 0x2 DUP3 DIV SWAP1 POP PUSH1 0x1 DUP3 AND DUP1 PUSH2 0x15AE JUMPI PUSH1 0x7F DUP3 AND SWAP2 POP JUMPDEST PUSH1 0x20 DUP3 LT DUP2 SUB PUSH2 0x15C1 JUMPI PUSH2 0x15C0 PUSH2 0x156A JUMP JUMPDEST JUMPDEST POP SWAP2 SWAP1 POP JUMP JUMPDEST PUSH0 DUP2 SWAP1 POP DUP2 PUSH0 MSTORE PUSH1 0x20 PUSH0 KECCAK256 SWAP1 POP SWAP2 SWAP1 POP JUMP JUMPDEST PUSH0 PUSH1 0x20 PUSH1 0x1F DUP4 ADD DIV SWAP1 POP SWAP2 SWAP1 POP JUMP JUMPDEST PUSH0 DUP3 DUP3 SHL SWAP1 POP SWAP3 SWAP2 POP POP JUMP JUMPDEST PUSH0 PUSH1 0x8 DUP4 MUL PUSH2 0x1623 PUSH32 0xFFFFFFFFFFFFFFFFFFFFFFFFFFFFFFFFFFFFFFFFFFFFFFFFFFFFFFFFFFFFFFFF DUP3 PUSH2 0x15E8 JUMP JUMPDEST PUSH2 0x162D DUP7 DUP4 PUSH2 0x15E8 JUMP JUMPDEST SWAP6 POP DUP1 NOT DUP5 AND SWAP4 POP DUP1 DUP7 AND DUP5 OR SWAP3 POP POP POP SWAP4 SWAP3 POP POP POP JUMP JUMPDEST PUSH0 DUP2 SWAP1 POP SWAP2 SWAP1 POP JUMP JUMPDEST PUSH0 PUSH2 0x1668 PUSH2 0x1663 PUSH2 0x165E DUP5 PUSH2 0x14F8 JUMP JUMPDEST PUSH2 0x1645 JUMP JUMPDEST PUSH2 0x14F8 JUMP JUMPDEST SWAP1 POP SWAP2 SWAP1 POP JUMP JUMPDEST PUSH0 DUP2 SWAP1 POP SWAP2 SWAP1 POP JUMP JUMPDEST PUSH2 0x1681 DUP4 PUSH2 0x164E JUMP JUMPDEST PUSH2 0x1695 PUSH2 0x168D DUP3 PUSH2 0x166F JUMP JUMPDEST DUP5 DUP5 SLOAD PUSH2 0x15F4 JUMP JUMPDEST DUP3 SSTORE POP POP POP POP JUMP JUMPDEST PUSH0 SWAP1 JUMP JUMPDEST PUSH2 0x16A9 PUSH2 0x169D JUMP JUMPDEST PUSH2 0x16B4 DUP2 DUP5 DUP5 PUSH2 0x1678 JUMP JUMPDEST POP POP POP JUMP JUMPDEST JUMPDEST DUP2 DUP2 LT ISZERO PUSH2 0x16D7 JUMPI PUSH2 0x16CC PUSH0 DUP3 PUSH2 0x16A1 JUMP JUMPDEST PUSH1 0x1 DUP2 ADD SWAP1 POP PUSH2 0x16BA JUMP JUMPDEST POP POP JUMP JUMPDEST PUSH1 0x1F DUP3 GT ISZERO PUSH2 0x171C JUMPI PUSH2 0x16ED DUP2 PUSH2 0x15C7 JUMP JUMPDEST PUSH2 0x16F6 DUP5 PUSH2 0x15D9 JUMP JUMPDEST DUP2 ADD PUSH1 0x20 DUP6 LT ISZERO PUSH2 0x1705 JUMPI DUP2 SWAP1 POP JUMPDEST PUSH2 0x1719 PUSH2 0x1711 DUP6 PUSH2 0x15D9 JUMP JUMPDEST DUP4 ADD DUP3 PUSH2 0x16B9 JUMP JUMPDEST POP POP JUMPDEST POP POP POP JUMP JUMPDEST PUSH0 DUP3 DUP3 SHR SWAP1 POP SWAP3 SWAP2 POP POP JUMP JUMPDEST PUSH0 PUSH2 0x173C PUSH0 NOT DUP5 PUSH1 0x8 MUL PUSH2 0x1721 JUMP JUMPDEST NOT DUP1 DUP4 AND SWAP2 POP POP SWAP3 SWAP2 POP POP JUMP JUMPDEST PUSH0 PUSH2 0x1754 DUP4 DUP4 PUSH2 0x172D JUMP JUMPDEST SWAP2 POP DUP3 PUSH1 0x2 MUL DUP3 OR SWAP1 POP SWAP3 SWAP2 POP POP JUMP JUMPDEST PUSH2 0x176D DUP3 PUSH2 0x1266 JUMP JUMPDEST PUSH8 0xFFFFFFFFFFFFFFFF DUP2 GT ISZERO PUSH2 0x1786 JUMPI PUSH2 0x1785 PUSH2 0xFFD JUMP JUMPDEST JUMPDEST PUSH2 0x1790 DUP3 SLOAD PUSH2 0x1597 JUMP JUMPDEST PUSH2 0x179B DUP3 DUP3 DUP6 PUSH2 0x16DB JUMP JUMPDEST PUSH0 PUSH1 0x20 SWAP1 POP PUSH1 0x1F DUP4 GT PUSH1 0x1 DUP2 EQ PUSH2 0x17CC JUMPI PUSH0 DUP5 ISZERO PUSH2 0x17BA JUMPI DUP3 DUP8 ADD MLOAD SWAP1 POP JUMPDEST PUSH2 0x17C4 DUP6 DUP3 PUSH2 0x1749 JUMP JUMPDEST DUP7 SSTORE POP PUSH2 0x182B JUMP JUMPDEST PUSH1 0x1F NOT DUP5 AND PUSH2 0x17DA DUP7 PUSH2 0x15C7 JUMP JUMPDEST PUSH0 JUMPDEST DUP3 DUP2 LT ISZERO PUSH2 0x1801 JUMPI DUP5 DUP10 ADD MLOAD DUP3 SSTORE PUSH1 0x1 DUP3 ADD SWAP2 POP PUSH1 0x20 DUP6 ADD SWAP5 POP PUSH1 0x20 DUP2 ADD SWAP1 POP PUSH2 0x17DC JUMP JUMPDEST DUP7 DUP4 LT ISZERO PUSH2 0x181E JUMPI DUP5 DUP10 ADD MLOAD PUSH2 0x181A PUSH1 0x1F DUP10 AND DUP3 PUSH2 0x172D JUMP JUMPDEST DUP4 SSTORE POP JUMPDEST PUSH1 0x1 PUSH1 0x2 DUP9 MUL ADD DUP9 SSTORE POP POP POP JUMPDEST POP POP POP POP POP POP JUMP JUMPDEST PUSH2 0x183C DUP2 PUSH2 0xFAA JUMP JUMPDEST DUP3 MSTORE POP POP JUMP JUMPDEST PUSH0 DUP2 SWAP1 POP SWAP2 SWAP1 POP JUMP JUMPDEST PUSH2 0x1854 DUP2 PUSH2 0x1842 JUMP JUMPDEST DUP3 MSTORE POP POP JUMP JUMPDEST PUSH0 PUSH1 0x60 DUP3 ADD SWAP1 POP PUSH2 0x186D PUSH0 DUP4 ADD DUP7 PUSH2 0x1833 JUMP JUMPDEST DUP2 DUP2 SUB PUSH1 0x20 DUP4 ADD MSTORE PUSH2 0x187F DUP2 DUP6 PUSH2 0x1351 JUMP JUMPDEST SWAP1 POP PUSH2 0x188E PUSH1 0x40 DUP4 ADD DUP5 PUSH2 0x184B JUMP JUMPDEST SWAP5 SWAP4 POP POP POP POP JUMP JUMPDEST PUSH32 0x4E616D652063616E6E6F7420626520656D707479000000000000000000000000 PUSH0 DUP3 ADD MSTORE POP JUMP JUMPDEST PUSH0 PUSH2 0x18CA PUSH1 0x14 DUP4 PUSH2 0x1341 JUMP JUMPDEST SWAP2 POP PUSH2 0x18D5 DUP3 PUSH2 0x1896 JUMP JUMPDEST PUSH1 0x20 DUP3 ADD SWAP1 POP SWAP2 SWAP1 POP JUMP JUMPDEST PUSH0 PUSH1 0x20 DUP3 ADD SWAP1 POP DUP2 DUP2 SUB PUSH0 DUP4 ADD MSTORE PUSH2 0x18F7 DUP2 PUSH2 0x18BE JUMP JUMPDEST SWAP1 POP SWAP2 SWAP1 POP JUMP JUMPDEST PUSH32 0x456D61696C2063616E6E6F7420626520656D7074790000000000000000000000 PUSH0 DUP3 ADD MSTORE POP JUMP JUMPDEST PUSH0 PUSH2 0x1932 PUSH1 0x15 DUP4 PUSH2 0x1341 JUMP JUMPDEST SWAP2 POP PUSH2 0x193D DUP3 PUSH2 0x18FE JUMP JUMPDEST PUSH1 0x20 DUP3 ADD SWAP1 POP SWAP2 SWAP1 POP JUMP JUMPDEST PUSH0 PUSH1 0x20 DUP3 ADD SWAP1 POP DUP2 DUP2 SUB PUSH0 DUP4 ADD MSTORE PUSH2 0x195F DUP2 PUSH2 0x1926 JUMP JUMPDEST SWAP1 POP SWAP2 SWAP1 POP JUMP JUMPDEST PUSH32 0x50726F66696C6520706963747572652063616E6E6F7420626520656D70747900 PUSH0 DUP3 ADD MSTORE POP JUMP JUMPDEST PUSH0 PUSH2 0x199A PUSH1 0x1F DUP4 PUSH2 0x1341 JUMP JUMPDEST SWAP2 POP PUSH2 0x19A5 DUP3 PUSH2 0x1966 JUMP JUMPDEST PUSH1 0x20 DUP3 ADD SWAP1 POP SWAP2 SWAP1 POP JUMP JUMPDEST PUSH0 PUSH1 0x20 DUP3 ADD SWAP1 POP DUP2 DUP2 SUB PUSH0 DUP4 ADD MSTORE PUSH2 0x19C7 DUP2 PUSH2 0x198E JUMP JUMPDEST SWAP1 POP SWAP2 SWAP1 POP JUMP JUMPDEST PUSH32 0x4E6F2044494420666F756E6420666F7220746869732061646472657373000000 PUSH0 DUP3 ADD MSTORE POP JUMP JUMPDEST PUSH0 PUSH2 0x1A02 PUSH1 0x1D DUP4 PUSH2 0x1341 JUMP JUMPDEST SWAP2 POP PUSH2 0x1A0D DUP3 PUSH2 0x19CE JUMP JUMPDEST PUSH1 0x20 DUP3 ADD SWAP1 POP SWAP2 SWAP1 POP JUMP JUMPDEST PUSH0 PUSH1 0x20 DUP3 ADD SWAP1 POP DUP2 DUP2 SUB PUSH0 DUP4 ADD MSTORE PUSH2 0x1A2F DUP2 PUSH2 0x19F6 JUMP JUMPDEST SWAP1 POP SWAP2 SWAP1 POP JUMP JUMPDEST PUSH0 PUSH1 0x60 DUP3 ADD SWAP1 POP DUP2 DUP2 SUB PUSH0 DUP4 ADD MSTORE PUSH2 0x1A4E DUP2 DUP7 PUSH2 0x1351 JUMP JUMPDEST SWAP1 POP DUP2 DUP2 SUB PUSH1 0x20 DUP4 ADD MSTORE PUSH2 0x1A62 DUP2 DUP6 PUSH2 0x1351 JUMP JUMPDEST SWAP1 POP DUP2 DUP2 SUB PUSH1 0x40 DUP4 ADD MSTORE PUSH2 0x1A76 DUP2 DUP5 PUSH2 0x1351 JUMP JUMPDEST SWAP1 POP SWAP5 SWAP4 POP POP POP POP JUMP JUMPDEST PUSH32 0x4964656E7469666965722063616E6E6F7420626520656D707479000000000000 PUSH0 DUP3 ADD MSTORE POP JUMP JUMPDEST PUSH0 PUSH2 0x1AB4 PUSH1 0x1A DUP4 PUSH2 0x1341 JUMP JUMPDEST SWAP2 POP PUSH2 0x1ABF DUP3 PUSH2 0x1A80 JUMP JUMPDEST PUSH1 0x20 DUP3 ADD SWAP1 POP SWAP2 SWAP1 POP JUMP JUMPDEST PUSH0 PUSH1 0x20 DUP3 ADD SWAP1 POP DUP2 DUP2 SUB PUSH0 DUP4 ADD MSTORE PUSH2 0x1AE1 DUP2 PUSH2 0x1AA8 JUMP JUMPDEST SWAP1 POP SWAP2 SWAP1 POP JUMP JUMPDEST PUSH32 0x44494420616C7265616479206578697374730000000000000000000000000000 PUSH0 DUP3 ADD MSTORE POP JUMP JUMPDEST PUSH0 PUSH2 0x1B1C PUSH1 0x12 DUP4 PUSH2 0x1341 JUMP JUMPDEST SWAP2 POP PUSH2 0x1B27 DUP3 PUSH2 0x1AE8 JUMP JUMPDEST PUSH1 0x20 DUP3 ADD SWAP1 POP SWAP2 SWAP1 POP JUMP JUMPDEST PUSH0 PUSH1 0x20 DUP3 ADD SWAP1 POP DUP2 DUP2 SUB PUSH0 DUP4 ADD MSTORE PUSH2 0x1B49 DUP2 PUSH2 0x1B10 JUMP JUMPDEST SWAP1 POP SWAP2 SWAP1 POP JUMP JUMPDEST PUSH32 0x4461746120646F6573206E6F7420657869737400000000000000000000000000 PUSH0 DUP3 ADD MSTORE POP JUMP JUMPDEST PUSH0 PUSH2 0x1B84 PUSH1 0x13 DUP4 PUSH2 0x1341 JUMP JUMPDEST SWAP2 POP PUSH2 0x1B8F DUP3 PUSH2 0x1B50 JUMP JUMPDEST PUSH1 0x20 DUP3 ADD SWAP1 POP SWAP2 SWAP1 POP JUMP JUMPDEST PUSH0 PUSH1 0x20 DUP3 ADD SWAP1 POP DUP2 DUP2 SUB PUSH0 DUP4 ADD MSTORE PUSH2 0x1BB1 DUP2 PUSH2 0x1B78 JUMP JUMPDEST SWAP1 POP SWAP2 SWAP1 POP JUMP INVALID LOG2 PUSH5 0x6970667358 0x22 SLT KECCAK256 PUSH3 0x3F628E 0x2A 0x2D ADDMOD 0xB5 0xED MLOAD 0x4C 0xBA PUSH16 0x951478BFE7BE8EAD8B1547DC15EA2180 0x2E SDIV 0x2D PUSH5 0x736F6C6343 STOP ADDMOD BYTE STOP CALLER "
				},
				"gasEstimates": {
					"creation": {
						"codeDepositCost": "1430000",
						"executionCost": "infinite",
						"totalCost": "infinite"
					},
					"external": {
						"assignRole(address,string)": "infinite",
						"createDID(string)": "infinite",
						"getDID()": "infinite",
						"getMetadata()": "infinite",
						"issueRole(address,string)": "infinite",
						"setMetadata(string,string,string)": "infinite"
					}
				},
				"methodIdentifiers": {
					"assignRole(address,string)": "b7dfcbee",
					"createDID(string)": "3457d3e2",
					"getDID()": "bc9c2d55",
					"getMetadata()": "7a5b4f59",
					"issueRole(address,string)": "022bf9c1",
					"setMetadata(string,string,string)": "0890d80c"
				}
			},
			"storageLayout": {
				"storage": [
					{
						"astId": 29,
						"contract": "DIDTeacher.sol:DIDRegistryWithRoles",
						"label": "dids",
						"offset": 0,
						"slot": "0",
						"type": "t_mapping(t_address,t_struct(DID)8_storage)"
					},
					{
						"astId": 33,
						"contract": "DIDTeacher.sol:DIDRegistryWithRoles",
						"label": "roles",
						"offset": 0,
						"slot": "1",
						"type": "t_mapping(t_address,t_string_storage)"
					},
					{
						"astId": 38,
						"contract": "DIDTeacher.sol:DIDRegistryWithRoles",
						"label": "roleHistory",
						"offset": 0,
						"slot": "2",
						"type": "t_mapping(t_address,t_array(t_string_storage)dyn_storage)"
					},
					{
						"astId": 43,
						"contract": "DIDTeacher.sol:DIDRegistryWithRoles",
						"label": "metadatas",
						"offset": 0,
						"slot": "3",
						"type": "t_mapping(t_address,t_struct(MetaData)15_storage)"
					},
					{
						"astId": 49,
						"contract": "DIDTeacher.sol:DIDRegistryWithRoles",
						"label": "credentials",
						"offset": 0,
						"slot": "4",
						"type": "t_mapping(t_address,t_array(t_struct(credential)24_storage)dyn_storage)"
					}
				],
				"types": {
					"t_address": {
						"encoding": "inplace",
						"label": "address",
						"numberOfBytes": "20"
					},
					"t_array(t_string_storage)dyn_storage": {
						"base": "t_string_storage",
						"encoding": "dynamic_array",
						"label": "string[]",
						"numberOfBytes": "32"
					},
					"t_array(t_struct(credential)24_storage)dyn_storage": {
						"base": "t_struct(credential)24_storage",
						"encoding": "dynamic_array",
						"label": "struct DIDRegistryWithRoles.credential[]",
						"numberOfBytes": "32"
					},
					"t_bytes32": {
						"encoding": "inplace",
						"label": "bytes32",
						"numberOfBytes": "32"
					},
					"t_mapping(t_address,t_array(t_string_storage)dyn_storage)": {
						"encoding": "mapping",
						"key": "t_address",
						"label": "mapping(address => string[])",
						"numberOfBytes": "32",
						"value": "t_array(t_string_storage)dyn_storage"
					},
					"t_mapping(t_address,t_array(t_struct(credential)24_storage)dyn_storage)": {
						"encoding": "mapping",
						"key": "t_address",
						"label": "mapping(address => struct DIDRegistryWithRoles.credential[])",
						"numberOfBytes": "32",
						"value": "t_array(t_struct(credential)24_storage)dyn_storage"
					},
					"t_mapping(t_address,t_string_storage)": {
						"encoding": "mapping",
						"key": "t_address",
						"label": "mapping(address => string)",
						"numberOfBytes": "32",
						"value": "t_string_storage"
					},
					"t_mapping(t_address,t_struct(DID)8_storage)": {
						"encoding": "mapping",
						"key": "t_address",
						"label": "mapping(address => struct DIDRegistryWithRoles.DID)",
						"numberOfBytes": "32",
						"value": "t_struct(DID)8_storage"
					},
					"t_mapping(t_address,t_struct(MetaData)15_storage)": {
						"encoding": "mapping",
						"key": "t_address",
						"label": "mapping(address => struct DIDRegistryWithRoles.MetaData)",
						"numberOfBytes": "32",
						"value": "t_struct(MetaData)15_storage"
					},
					"t_string_storage": {
						"encoding": "bytes",
						"label": "string",
						"numberOfBytes": "32"
					},
					"t_struct(DID)8_storage": {
						"encoding": "inplace",
						"label": "struct DIDRegistryWithRoles.DID",
						"members": [
							{
								"astId": 3,
								"contract": "DIDTeacher.sol:DIDRegistryWithRoles",
								"label": "identifier",
								"offset": 0,
								"slot": "0",
								"type": "t_string_storage"
							},
							{
								"astId": 5,
								"contract": "DIDTeacher.sol:DIDRegistryWithRoles",
								"label": "owner",
								"offset": 0,
								"slot": "1",
								"type": "t_address"
							},
							{
								"astId": 7,
								"contract": "DIDTeacher.sol:DIDRegistryWithRoles",
								"label": "createdAt",
								"offset": 0,
								"slot": "2",
								"type": "t_uint256"
							}
						],
						"numberOfBytes": "96"
					},
					"t_struct(MetaData)15_storage": {
						"encoding": "inplace",
						"label": "struct DIDRegistryWithRoles.MetaData",
						"members": [
							{
								"astId": 10,
								"contract": "DIDTeacher.sol:DIDRegistryWithRoles",
								"label": "name",
								"offset": 0,
								"slot": "0",
								"type": "t_string_storage"
							},
							{
								"astId": 12,
								"contract": "DIDTeacher.sol:DIDRegistryWithRoles",
								"label": "email",
								"offset": 0,
								"slot": "1",
								"type": "t_string_storage"
							},
							{
								"astId": 14,
								"contract": "DIDTeacher.sol:DIDRegistryWithRoles",
								"label": "profilePicture",
								"offset": 0,
								"slot": "2",
								"type": "t_string_storage"
							}
						],
						"numberOfBytes": "96"
					},
					"t_struct(credential)24_storage": {
						"encoding": "inplace",
						"label": "struct DIDRegistryWithRoles.credential",
						"members": [
							{
								"astId": 17,
								"contract": "DIDTeacher.sol:DIDRegistryWithRoles",
								"label": "issuer",
								"offset": 0,
								"slot": "0",
								"type": "t_address"
							},
							{
								"astId": 19,
								"contract": "DIDTeacher.sol:DIDRegistryWithRoles",
								"label": "role",
								"offset": 0,
								"slot": "1",
								"type": "t_string_storage"
							},
							{
								"astId": 21,
								"contract": "DIDTeacher.sol:DIDRegistryWithRoles",
								"label": "issueAt",
								"offset": 0,
								"slot": "2",
								"type": "t_uint256"
							},
							{
								"astId": 23,
								"contract": "DIDTeacher.sol:DIDRegistryWithRoles",
								"label": "hashes",
								"offset": 0,
								"slot": "3",
								"type": "t_bytes32"
							}
						],
						"numberOfBytes": "128"
					},
					"t_uint256": {
						"encoding": "inplace",
						"label": "uint256",
						"numberOfBytes": "32"
					}
				}
			},
			"userdoc": {
				"kind": "user",
				"methods": {},
				"version": 1
			}
		}
	}
}