{
	"DidRegistry.sol": {
		"DIDRegistry": {
			"abi": [
				{
					"inputs": [],
					"stateMutability": "nonpayable",
					"type": "constructor"
				},
				{
					"anonymous": false,
					"inputs": [
						{
							"indexed": true,
							"internalType": "address",
							"name": "owner",
							"type": "address"
						},
						{
							"indexed": false,
							"internalType": "string",
							"name": "identifier",
							"type": "string"
						}
					],
					"name": "DIDCreated",
					"type": "event"
				},
				{
					"anonymous": false,
					"inputs": [
						{
							"indexed": true,
							"internalType": "address",
							"name": "owner",
							"type": "address"
						},
						{
							"indexed": false,
							"internalType": "string",
							"name": "oldIdentifier",
							"type": "string"
						},
						{
							"indexed": false,
							"internalType": "string",
							"name": "newIdentifier",
							"type": "string"
						}
					],
					"name": "DIDUpdated",
					"type": "event"
				},
				{
					"anonymous": false,
					"inputs": [
						{
							"indexed": true,
							"internalType": "address",
							"name": "user",
							"type": "address"
						},
						{
							"indexed": false,
							"internalType": "string",
							"name": "name",
							"type": "string"
						},
						{
							"indexed": false,
							"internalType": "string",
							"name": "email",
							"type": "string"
						},
						{
							"indexed": false,
							"internalType": "string",
							"name": "profilePicture",
							"type": "string"
						}
					],
					"name": "MetadataSet",
					"type": "event"
				},
				{
					"anonymous": false,
					"inputs": [
						{
							"indexed": true,
							"internalType": "address",
							"name": "user",
							"type": "address"
						},
						{
							"indexed": false,
							"internalType": "string",
							"name": "role",
							"type": "string"
						}
					],
					"name": "RoleAssigned",
					"type": "event"
				},
				{
					"anonymous": false,
					"inputs": [
						{
							"indexed": true,
							"internalType": "address",
							"name": "user",
							"type": "address"
						},
						{
							"indexed": false,
							"internalType": "string",
							"name": "role",
							"type": "string"
						},
						{
							"indexed": true,
							"internalType": "address",
							"name": "issuer",
							"type": "address"
						}
					],
					"name": "RoleCredentialIssued",
					"type": "event"
				},
				{
					"inputs": [
						{
							"internalType": "address",
							"name": "_user",
							"type": "address"
						},
						{
							"internalType": "string",
							"name": "_role",
							"type": "string"
						}
					],
					"name": "assignRole",
					"outputs": [],
					"stateMutability": "nonpayable",
					"type": "function"
				},
				{
					"inputs": [
						{
							"internalType": "string",
							"name": "_identifier",
							"type": "string"
						}
					],
					"name": "createDID",
					"outputs": [],
					"stateMutability": "nonpayable",
					"type": "function"
				},
				{
					"inputs": [],
					"name": "getDID",
					"outputs": [
						{
							"internalType": "string",
							"name": "",
							"type": "string"
						}
					],
					"stateMutability": "view",
					"type": "function"
				},
				{
					"inputs": [
						{
							"internalType": "address",
							"name": "_user",
							"type": "address"
						}
					],
					"name": "getMetadata",
					"outputs": [
						{
							"components": [
								{
									"internalType": "string",
									"name": "name",
									"type": "string"
								},
								{
									"internalType": "string",
									"name": "email",
									"type": "string"
								},
								{
									"internalType": "string",
									"name": "profilePicture",
									"type": "string"
								}
							],
							"internalType": "struct DIDRegistry.Metadata",
							"name": "",
							"type": "tuple"
						}
					],
					"stateMutability": "view",
					"type": "function"
				},
				{
					"inputs": [
						{
							"internalType": "address",
							"name": "_user",
							"type": "address"
						}
					],
					"name": "getRole",
					"outputs": [
						{
							"internalType": "string",
							"name": "",
							"type": "string"
						}
					],
					"stateMutability": "view",
					"type": "function"
				},
				{
					"inputs": [
						{
							"internalType": "string",
							"name": "_name",
							"type": "string"
						},
						{
							"internalType": "string",
							"name": "_email",
							"type": "string"
						},
						{
							"internalType": "string",
							"name": "_profilePicture",
							"type": "string"
						}
					],
					"name": "setMetadata",
					"outputs": [],
					"stateMutability": "nonpayable",
					"type": "function"
				},
				{
					"inputs": [
						{
							"internalType": "string",
							"name": "_newIdentifier",
							"type": "string"
						}
					],
					"name": "updateDID",
					"outputs": [],
					"stateMutability": "nonpayable",
					"type": "function"
				},
				{
					"inputs": [
						{
							"internalType": "address",
							"name": "_user",
							"type": "address"
						},
						{
							"internalType": "string",
							"name": "_role",
							"type": "string"
						}
					],
					"name": "verifyRoleCredential",
					"outputs": [
						{
							"internalType": "bool",
							"name": "",
							"type": "bool"
						}
					],
					"stateMutability": "view",
					"type": "function"
				}
			],
			"devdoc": {
				"kind": "dev",
				"methods": {},
				"version": 1
			},
			"evm": {
				"assembly": "    /* \"DidRegistry.sol\":57:4264  contract DIDRegistry {... */\n  mstore(0x40, 0x80)\n    /* \"DidRegistry.sol\":996:1092  constructor() {... */\n  callvalue\n  dup1\n  iszero\n  tag_1\n  jumpi\n  0x00\n  dup1\n  revert\ntag_1:\n  pop\n    /* \"DidRegistry.sol\":1028:1038  msg.sender */\n  caller\n    /* \"DidRegistry.sol\":1020:1025  admin */\n  0x04\n  0x00\n    /* \"DidRegistry.sol\":1020:1038  admin = msg.sender */\n  0x0100\n  exp\n  dup2\n  sload\n  dup2\n  0xffffffffffffffffffffffffffffffffffffffff\n  mul\n  not\n  and\n  swap1\n  dup4\n  0xffffffffffffffffffffffffffffffffffffffff\n  and\n  mul\n  or\n  swap1\n  sstore\n  pop\n    /* \"DidRegistry.sol\":57:4264  contract DIDRegistry {... */\n  dataSize(sub_0)\n  dup1\n  dataOffset(sub_0)\n  0x00\n  codecopy\n  0x00\n  return\nstop\n\nsub_0: assembly {\n        /* \"DidRegistry.sol\":57:4264  contract DIDRegistry {... */\n      mstore(0x40, 0x80)\n      callvalue\n      dup1\n      iszero\n      tag_1\n      jumpi\n      0x00\n      dup1\n      revert\n    tag_1:\n      pop\n      jumpi(tag_2, lt(calldatasize, 0x04))\n      shr(0xe0, calldataload(0x00))\n      dup1\n      0x44276733\n      gt\n      tag_11\n      jumpi\n      dup1\n      0x44276733\n      eq\n      tag_7\n      jumpi\n      dup1\n      0xb7dfcbee\n      eq\n      tag_8\n      jumpi\n      dup1\n      0xbc9c2d55\n      eq\n      tag_9\n      jumpi\n      dup1\n      0xe55f67ee\n      eq\n      tag_10\n      jumpi\n      jump(tag_2)\n    tag_11:\n      dup1\n      0x0890d80c\n      eq\n      tag_3\n      jumpi\n      dup1\n      0x14c95832\n      eq\n      tag_4\n      jumpi\n      dup1\n      0x2a50c146\n      eq\n      tag_5\n      jumpi\n      dup1\n      0x3457d3e2\n      eq\n      tag_6\n      jumpi\n    tag_2:\n      0x00\n      dup1\n      revert\n        /* \"DidRegistry.sol\":3170:3518  function setMetadata(string memory _name, string memory _email, string memory _profilePicture) public {... */\n    tag_3:\n      tag_12\n      0x04\n      dup1\n      calldatasize\n      sub\n      dup2\n      add\n      swap1\n      tag_13\n      swap2\n      swap1\n      tag_14\n      jump\t// in\n    tag_13:\n      tag_15\n      jump\t// in\n    tag_12:\n      stop\n        /* \"DidRegistry.sol\":1861:2427  function updateDID(string memory _newIdentifier) public {... */\n    tag_4:\n      tag_16\n      0x04\n      dup1\n      calldatasize\n      sub\n      dup2\n      add\n      swap1\n      tag_17\n      swap2\n      swap1\n      tag_18\n      jump\t// in\n    tag_17:\n      tag_19\n      jump\t// in\n    tag_16:\n      stop\n        /* \"DidRegistry.sol\":3561:3759  function getMetadata(address _user) public view returns (Metadata memory) {... */\n    tag_5:\n      tag_20\n      0x04\n      dup1\n      calldatasize\n      sub\n      dup2\n      add\n      swap1\n      tag_21\n      swap2\n      swap1\n      tag_22\n      jump\t// in\n    tag_21:\n      tag_23\n      jump\t// in\n    tag_20:\n      mload(0x40)\n      tag_24\n      swap2\n      swap1\n      tag_25\n      jump\t// in\n    tag_24:\n      mload(0x40)\n      dup1\n      swap2\n      sub\n      swap1\n      return\n        /* \"DidRegistry.sol\":1251:1591  function createDID(string memory _identifier) public {... */\n    tag_6:\n      tag_26\n      0x04\n      dup1\n      calldatasize\n      sub\n      dup2\n      add\n      swap1\n      tag_27\n      swap2\n      swap1\n      tag_18\n      jump\t// in\n    tag_27:\n      tag_28\n      jump\t// in\n    tag_26:\n      stop\n        /* \"DidRegistry.sol\":2941:3127  function getRole(address _user) public view returns (string memory) {... */\n    tag_7:\n      tag_29\n      0x04\n      dup1\n      calldatasize\n      sub\n      dup2\n      add\n      swap1\n      tag_30\n      swap2\n      swap1\n      tag_22\n      jump\t// in\n    tag_30:\n      tag_31\n      jump\t// in\n    tag_29:\n      mload(0x40)\n      tag_32\n      swap2\n      swap1\n      tag_33\n      jump\t// in\n    tag_32:\n      mload(0x40)\n      dup1\n      swap2\n      sub\n      swap1\n      return\n        /* \"DidRegistry.sol\":2476:2893  function assignRole(address _user, string memory _role) public onlyAdmin {... */\n    tag_8:\n      tag_34\n      0x04\n      dup1\n      calldatasize\n      sub\n      dup2\n      add\n      swap1\n      tag_35\n      swap2\n      swap1\n      tag_36\n      jump\t// in\n    tag_35:\n      tag_37\n      jump\t// in\n    tag_34:\n      stop\n        /* \"DidRegistry.sol\":1628:1821  function getDID() public view returns (string memory) {... */\n    tag_9:\n      tag_38\n      tag_39\n      jump\t// in\n    tag_38:\n      mload(0x40)\n      tag_40\n      swap2\n      swap1\n      tag_33\n      jump\t// in\n    tag_40:\n      mload(0x40)\n      dup1\n      swap2\n      sub\n      swap1\n      return\n        /* \"DidRegistry.sol\":3809:4262  function verifyRoleCredential(address _user, string memory _role) public view returns (bool) {... */\n    tag_10:\n      tag_41\n      0x04\n      dup1\n      calldatasize\n      sub\n      dup2\n      add\n      swap1\n      tag_42\n      swap2\n      swap1\n      tag_36\n      jump\t// in\n    tag_42:\n      tag_43\n      jump\t// in\n    tag_41:\n      mload(0x40)\n      tag_44\n      swap2\n      swap1\n      tag_45\n      jump\t// in\n    tag_44:\n      mload(0x40)\n      dup1\n      swap2\n      sub\n      swap1\n      return\n        /* \"DidRegistry.sol\":3170:3518  function setMetadata(string memory _name, string memory _email, string memory _profilePicture) public {... */\n    tag_15:\n        /* \"DidRegistry.sol\":3324:3325  0 */\n      0x00\n        /* \"DidRegistry.sol\":3290:3326  dids[msg.sender].owner != address(0) */\n      0xffffffffffffffffffffffffffffffffffffffff\n      and\n        /* \"DidRegistry.sol\":3290:3294  dids */\n      0x00\n        /* \"DidRegistry.sol\":3290:3306  dids[msg.sender] */\n      dup1\n        /* \"DidRegistry.sol\":3295:3305  msg.sender */\n      caller\n        /* \"DidRegistry.sol\":3290:3306  dids[msg.sender] */\n      0xffffffffffffffffffffffffffffffffffffffff\n      and\n      0xffffffffffffffffffffffffffffffffffffffff\n      and\n      dup2\n      mstore\n      0x20\n      add\n      swap1\n      dup2\n      mstore\n      0x20\n      add\n      0x00\n      keccak256\n        /* \"DidRegistry.sol\":3290:3312  dids[msg.sender].owner */\n      0x01\n      add\n      0x00\n      swap1\n      sload\n      swap1\n      0x0100\n      exp\n      swap1\n      div\n      0xffffffffffffffffffffffffffffffffffffffff\n      and\n        /* \"DidRegistry.sol\":3290:3326  dids[msg.sender].owner != address(0) */\n      0xffffffffffffffffffffffffffffffffffffffff\n      and\n      sub\n        /* \"DidRegistry.sol\":3282:3367  require(dids[msg.sender].owner != address(0), \"Create a DID before setting metadata\") */\n      tag_47\n      jumpi\n      mload(0x40)\n      0x08c379a000000000000000000000000000000000000000000000000000000000\n      dup2\n      mstore\n      0x04\n      add\n      tag_48\n      swap1\n      tag_49\n      jump\t// in\n    tag_48:\n      mload(0x40)\n      dup1\n      swap2\n      sub\n      swap1\n      revert\n    tag_47:\n        /* \"DidRegistry.sol\":3400:3440  Metadata(_name, _email, _profilePicture) */\n      mload(0x40)\n      dup1\n      0x60\n      add\n      0x40\n      mstore\n      dup1\n        /* \"DidRegistry.sol\":3409:3414  _name */\n      dup5\n        /* \"DidRegistry.sol\":3400:3440  Metadata(_name, _email, _profilePicture) */\n      dup2\n      mstore\n      0x20\n      add\n        /* \"DidRegistry.sol\":3416:3422  _email */\n      dup4\n        /* \"DidRegistry.sol\":3400:3440  Metadata(_name, _email, _profilePicture) */\n      dup2\n      mstore\n      0x20\n      add\n        /* \"DidRegistry.sol\":3424:3439  _profilePicture */\n      dup3\n        /* \"DidRegistry.sol\":3400:3440  Metadata(_name, _email, _profilePicture) */\n      dup2\n      mstore\n      pop\n        /* \"DidRegistry.sol\":3377:3385  metadata */\n      0x01\n        /* \"DidRegistry.sol\":3377:3397  metadata[msg.sender] */\n      0x00\n        /* \"DidRegistry.sol\":3386:3396  msg.sender */\n      caller\n        /* \"DidRegistry.sol\":3377:3397  metadata[msg.sender] */\n      0xffffffffffffffffffffffffffffffffffffffff\n      and\n      0xffffffffffffffffffffffffffffffffffffffff\n      and\n      dup2\n      mstore\n      0x20\n      add\n      swap1\n      dup2\n      mstore\n      0x20\n      add\n      0x00\n      keccak256\n        /* \"DidRegistry.sol\":3377:3440  metadata[msg.sender] = Metadata(_name, _email, _profilePicture) */\n      0x00\n      dup3\n      add\n      mload\n      dup2\n      0x00\n      add\n      swap1\n      dup2\n      tag_50\n      swap2\n      swap1\n      tag_51\n      jump\t// in\n    tag_50:\n      pop\n      0x20\n      dup3\n      add\n      mload\n      dup2\n      0x01\n      add\n      swap1\n      dup2\n      tag_52\n      swap2\n      swap1\n      tag_51\n      jump\t// in\n    tag_52:\n      pop\n      0x40\n      dup3\n      add\n      mload\n      dup2\n      0x02\n      add\n      swap1\n      dup2\n      tag_53\n      swap2\n      swap1\n      tag_51\n      jump\t// in\n    tag_53:\n      pop\n      swap1\n      pop\n      pop\n        /* \"DidRegistry.sol\":3468:3478  msg.sender */\n      caller\n        /* \"DidRegistry.sol\":3456:3511  MetadataSet(msg.sender, _name, _email, _profilePicture) */\n      0xffffffffffffffffffffffffffffffffffffffff\n      and\n      0xfadb49c18b6d26649f36d814608938985376b6c31251d1cc6df89f6e6dfaae3b\n        /* \"DidRegistry.sol\":3480:3485  _name */\n      dup5\n        /* \"DidRegistry.sol\":3487:3493  _email */\n      dup5\n        /* \"DidRegistry.sol\":3495:3510  _profilePicture */\n      dup5\n        /* \"DidRegistry.sol\":3456:3511  MetadataSet(msg.sender, _name, _email, _profilePicture) */\n      mload(0x40)\n      tag_54\n      swap4\n      swap3\n      swap2\n      swap1\n      tag_55\n      jump\t// in\n    tag_54:\n      mload(0x40)\n      dup1\n      swap2\n      sub\n      swap1\n      log2\n        /* \"DidRegistry.sol\":3170:3518  function setMetadata(string memory _name, string memory _email, string memory _profilePicture) public {... */\n      pop\n      pop\n      pop\n      jump\t// out\n        /* \"DidRegistry.sol\":1861:2427  function updateDID(string memory _newIdentifier) public {... */\n    tag_19:\n        /* \"DidRegistry.sol\":1966:1967  0 */\n      0x00\n        /* \"DidRegistry.sol\":1941:1955  _newIdentifier */\n      dup2\n        /* \"DidRegistry.sol\":1935:1963  bytes(_newIdentifier).length */\n      mload\n        /* \"DidRegistry.sol\":1935:1967  bytes(_newIdentifier).length > 0 */\n      gt\n        /* \"DidRegistry.sol\":1927:2002  require(bytes(_newIdentifier).length > 0, \"New identifier cannot be empty\") */\n      tag_57\n      jumpi\n      mload(0x40)\n      0x08c379a000000000000000000000000000000000000000000000000000000000\n      dup2\n      mstore\n      0x04\n      add\n      tag_58\n      swap1\n      tag_59\n      jump\t// in\n    tag_58:\n      mload(0x40)\n      dup1\n      swap2\n      sub\n      swap1\n      revert\n    tag_57:\n        /* \"DidRegistry.sol\":2054:2055  0 */\n      0x00\n        /* \"DidRegistry.sol\":2020:2056  dids[msg.sender].owner != address(0) */\n      0xffffffffffffffffffffffffffffffffffffffff\n      and\n        /* \"DidRegistry.sol\":2020:2024  dids */\n      0x00\n        /* \"DidRegistry.sol\":2020:2036  dids[msg.sender] */\n      dup1\n        /* \"DidRegistry.sol\":2025:2035  msg.sender */\n      caller\n        /* \"DidRegistry.sol\":2020:2036  dids[msg.sender] */\n      0xffffffffffffffffffffffffffffffffffffffff\n      and\n      0xffffffffffffffffffffffffffffffffffffffff\n      and\n      dup2\n      mstore\n      0x20\n      add\n      swap1\n      dup2\n      mstore\n      0x20\n      add\n      0x00\n      keccak256\n        /* \"DidRegistry.sol\":2020:2042  dids[msg.sender].owner */\n      0x01\n      add\n      0x00\n      swap1\n      sload\n      swap1\n      0x0100\n      exp\n      swap1\n      div\n      0xffffffffffffffffffffffffffffffffffffffff\n      and\n        /* \"DidRegistry.sol\":2020:2056  dids[msg.sender].owner != address(0) */\n      0xffffffffffffffffffffffffffffffffffffffff\n      and\n      sub\n        /* \"DidRegistry.sol\":2012:2090  require(dids[msg.sender].owner != address(0), \"No DID found for this address\") */\n      tag_60\n      jumpi\n      mload(0x40)\n      0x08c379a000000000000000000000000000000000000000000000000000000000\n      dup2\n      mstore\n      0x04\n      add\n      tag_61\n      swap1\n      tag_62\n      jump\t// in\n    tag_61:\n      mload(0x40)\n      dup1\n      swap2\n      sub\n      swap1\n      revert\n    tag_60:\n        /* \"DidRegistry.sol\":2101:2121  string memory oldDID */\n      0x00\n        /* \"DidRegistry.sol\":2124:2132  getDID() */\n      tag_63\n        /* \"DidRegistry.sol\":2124:2130  getDID */\n      tag_39\n        /* \"DidRegistry.sol\":2124:2132  getDID() */\n      jump\t// in\n    tag_63:\n        /* \"DidRegistry.sol\":2101:2132  string memory oldDID = getDID() */\n      swap1\n      pop\n        /* \"DidRegistry.sol\":2207:2221  _newIdentifier */\n      dup2\n        /* \"DidRegistry.sol\":2191:2223  keccak256(bytes(_newIdentifier)) */\n      dup1\n      mload\n      swap1\n      0x20\n      add\n      keccak256\n        /* \"DidRegistry.sol\":2179:2185  oldDID */\n      dup2\n        /* \"DidRegistry.sol\":2163:2187  keccak256(bytes(oldDID)) */\n      dup1\n      mload\n      swap1\n      0x20\n      add\n      keccak256\n        /* \"DidRegistry.sol\":2163:2223  keccak256(bytes(oldDID)) != keccak256(bytes(_newIdentifier)) */\n      sub\n        /* \"DidRegistry.sol\":2142:2303  require(... */\n      tag_64\n      jumpi\n      mload(0x40)\n      0x08c379a000000000000000000000000000000000000000000000000000000000\n      dup2\n      mstore\n      0x04\n      add\n      tag_65\n      swap1\n      tag_66\n      jump\t// in\n    tag_65:\n      mload(0x40)\n      dup1\n      swap2\n      sub\n      swap1\n      revert\n    tag_64:\n        /* \"DidRegistry.sol\":2344:2358  _newIdentifier */\n      dup2\n        /* \"DidRegistry.sol\":2314:2318  dids */\n      0x00\n        /* \"DidRegistry.sol\":2314:2330  dids[msg.sender] */\n      dup1\n        /* \"DidRegistry.sol\":2319:2329  msg.sender */\n      caller\n        /* \"DidRegistry.sol\":2314:2330  dids[msg.sender] */\n      0xffffffffffffffffffffffffffffffffffffffff\n      and\n      0xffffffffffffffffffffffffffffffffffffffff\n      and\n      dup2\n      mstore\n      0x20\n      add\n      swap1\n      dup2\n      mstore\n      0x20\n      add\n      0x00\n      keccak256\n        /* \"DidRegistry.sol\":2314:2341  dids[msg.sender].identifier */\n      0x00\n      add\n        /* \"DidRegistry.sol\":2314:2358  dids[msg.sender].identifier = _newIdentifier */\n      swap1\n      dup2\n      tag_67\n      swap2\n      swap1\n      tag_51\n      jump\t// in\n    tag_67:\n      pop\n        /* \"DidRegistry.sol\":2385:2395  msg.sender */\n      caller\n        /* \"DidRegistry.sol\":2374:2420  DIDUpdated(msg.sender, oldDID, _newIdentifier) */\n      0xffffffffffffffffffffffffffffffffffffffff\n      and\n      0x8a349d0aaf30faae66d032977cc9409a8d7676460eabf8c0947986b5d8a48d8c\n        /* \"DidRegistry.sol\":2397:2403  oldDID */\n      dup3\n        /* \"DidRegistry.sol\":2405:2419  _newIdentifier */\n      dup5\n        /* \"DidRegistry.sol\":2374:2420  DIDUpdated(msg.sender, oldDID, _newIdentifier) */\n      mload(0x40)\n      tag_68\n      swap3\n      swap2\n      swap1\n      tag_69\n      jump\t// in\n    tag_68:\n      mload(0x40)\n      dup1\n      swap2\n      sub\n      swap1\n      log2\n        /* \"DidRegistry.sol\":1917:2427  {... */\n      pop\n        /* \"DidRegistry.sol\":1861:2427  function updateDID(string memory _newIdentifier) public {... */\n      pop\n      jump\t// out\n        /* \"DidRegistry.sol\":3561:3759  function getMetadata(address _user) public view returns (Metadata memory) {... */\n    tag_23:\n        /* \"DidRegistry.sol\":3618:3633  Metadata memory */\n      tag_70\n      tag_71\n      jump\t// in\n    tag_70:\n        /* \"DidRegistry.sol\":3682:3683  0 */\n      0x00\n        /* \"DidRegistry.sol\":3653:3684  dids[_user].owner != address(0) */\n      0xffffffffffffffffffffffffffffffffffffffff\n      and\n        /* \"DidRegistry.sol\":3653:3657  dids */\n      0x00\n        /* \"DidRegistry.sol\":3653:3664  dids[_user] */\n      dup1\n        /* \"DidRegistry.sol\":3658:3663  _user */\n      dup5\n        /* \"DidRegistry.sol\":3653:3664  dids[_user] */\n      0xffffffffffffffffffffffffffffffffffffffff\n      and\n      0xffffffffffffffffffffffffffffffffffffffff\n      and\n      dup2\n      mstore\n      0x20\n      add\n      swap1\n      dup2\n      mstore\n      0x20\n      add\n      0x00\n      keccak256\n        /* \"DidRegistry.sol\":3653:3670  dids[_user].owner */\n      0x01\n      add\n      0x00\n      swap1\n      sload\n      swap1\n      0x0100\n      exp\n      swap1\n      div\n      0xffffffffffffffffffffffffffffffffffffffff\n      and\n        /* \"DidRegistry.sol\":3653:3684  dids[_user].owner != address(0) */\n      0xffffffffffffffffffffffffffffffffffffffff\n      and\n      sub\n        /* \"DidRegistry.sol\":3645:3720  require(dids[_user].owner != address(0), \"No metadata found for this user\") */\n      tag_73\n      jumpi\n      mload(0x40)\n      0x08c379a000000000000000000000000000000000000000000000000000000000\n      dup2\n      mstore\n      0x04\n      add\n      tag_74\n      swap1\n      tag_75\n      jump\t// in\n    tag_74:\n      mload(0x40)\n      dup1\n      swap2\n      sub\n      swap1\n      revert\n    tag_73:\n        /* \"DidRegistry.sol\":3737:3745  metadata */\n      0x01\n        /* \"DidRegistry.sol\":3737:3752  metadata[_user] */\n      0x00\n        /* \"DidRegistry.sol\":3746:3751  _user */\n      dup4\n        /* \"DidRegistry.sol\":3737:3752  metadata[_user] */\n      0xffffffffffffffffffffffffffffffffffffffff\n      and\n      0xffffffffffffffffffffffffffffffffffffffff\n      and\n      dup2\n      mstore\n      0x20\n      add\n      swap1\n      dup2\n      mstore\n      0x20\n      add\n      0x00\n      keccak256\n        /* \"DidRegistry.sol\":3730:3752  return metadata[_user] */\n      mload(0x40)\n      dup1\n      0x60\n      add\n      0x40\n      mstore\n      swap1\n      dup2\n      0x00\n      dup3\n      add\n      dup1\n      sload\n      tag_76\n      swap1\n      tag_77\n      jump\t// in\n    tag_76:\n      dup1\n      0x1f\n      add\n      0x20\n      dup1\n      swap2\n      div\n      mul\n      0x20\n      add\n      mload(0x40)\n      swap1\n      dup2\n      add\n      0x40\n      mstore\n      dup1\n      swap3\n      swap2\n      swap1\n      dup2\n      dup2\n      mstore\n      0x20\n      add\n      dup3\n      dup1\n      sload\n      tag_78\n      swap1\n      tag_77\n      jump\t// in\n    tag_78:\n      dup1\n      iszero\n      tag_79\n      jumpi\n      dup1\n      0x1f\n      lt\n      tag_80\n      jumpi\n      0x0100\n      dup1\n      dup4\n      sload\n      div\n      mul\n      dup4\n      mstore\n      swap2\n      0x20\n      add\n      swap2\n      jump(tag_79)\n    tag_80:\n      dup3\n      add\n      swap2\n      swap1\n      0x00\n      mstore\n      keccak256(0x00, 0x20)\n      swap1\n    tag_81:\n      dup2\n      sload\n      dup2\n      mstore\n      swap1\n      0x01\n      add\n      swap1\n      0x20\n      add\n      dup1\n      dup4\n      gt\n      tag_81\n      jumpi\n      dup3\n      swap1\n      sub\n      0x1f\n      and\n      dup3\n      add\n      swap2\n    tag_79:\n      pop\n      pop\n      pop\n      pop\n      pop\n      dup2\n      mstore\n      0x20\n      add\n      0x01\n      dup3\n      add\n      dup1\n      sload\n      tag_82\n      swap1\n      tag_77\n      jump\t// in\n    tag_82:\n      dup1\n      0x1f\n      add\n      0x20\n      dup1\n      swap2\n      div\n      mul\n      0x20\n      add\n      mload(0x40)\n      swap1\n      dup2\n      add\n      0x40\n      mstore\n      dup1\n      swap3\n      swap2\n      swap1\n      dup2\n      dup2\n      mstore\n      0x20\n      add\n      dup3\n      dup1\n      sload\n      tag_83\n      swap1\n      tag_77\n      jump\t// in\n    tag_83:\n      dup1\n      iszero\n      tag_84\n      jumpi\n      dup1\n      0x1f\n      lt\n      tag_85\n      jumpi\n      0x0100\n      dup1\n      dup4\n      sload\n      div\n      mul\n      dup4\n      mstore\n      swap2\n      0x20\n      add\n      swap2\n      jump(tag_84)\n    tag_85:\n      dup3\n      add\n      swap2\n      swap1\n      0x00\n      mstore\n      keccak256(0x00, 0x20)\n      swap1\n    tag_86:\n      dup2\n      sload\n      dup2\n      mstore\n      swap1\n      0x01\n      add\n      swap1\n      0x20\n      add\n      dup1\n      dup4\n      gt\n      tag_86\n      jumpi\n      dup3\n      swap1\n      sub\n      0x1f\n      and\n      dup3\n      add\n      swap2\n    tag_84:\n      pop\n      pop\n      pop\n      pop\n      pop\n      dup2\n      mstore\n      0x20\n      add\n      0x02\n      dup3\n      add\n      dup1\n      sload\n      tag_87\n      swap1\n      tag_77\n      jump\t// in\n    tag_87:\n      dup1\n      0x1f\n      add\n      0x20\n      dup1\n      swap2\n      div\n      mul\n      0x20\n      add\n      mload(0x40)\n      swap1\n      dup2\n      add\n      0x40\n      mstore\n      dup1\n      swap3\n      swap2\n      swap1\n      dup2\n      dup2\n      mstore\n      0x20\n      add\n      dup3\n      dup1\n      sload\n      tag_88\n      swap1\n      tag_77\n      jump\t// in\n    tag_88:\n      dup1\n      iszero\n      tag_89\n      jumpi\n      dup1\n      0x1f\n      lt\n      tag_90\n      jumpi\n      0x0100\n      dup1\n      dup4\n      sload\n      div\n      mul\n      dup4\n      mstore\n      swap2\n      0x20\n      add\n      swap2\n      jump(tag_89)\n    tag_90:\n      dup3\n      add\n      swap2\n      swap1\n      0x00\n      mstore\n      keccak256(0x00, 0x20)\n      swap1\n    tag_91:\n      dup2\n      sload\n      dup2\n      mstore\n      swap1\n      0x01\n      add\n      swap1\n      0x20\n      add\n      dup1\n      dup4\n      gt\n      tag_91\n      jumpi\n      dup3\n      swap1\n      sub\n      0x1f\n      and\n      dup3\n      add\n      swap2\n    tag_89:\n      pop\n      pop\n      pop\n      pop\n      pop\n      dup2\n      mstore\n      pop\n      pop\n      swap1\n      pop\n        /* \"DidRegistry.sol\":3561:3759  function getMetadata(address _user) public view returns (Metadata memory) {... */\n      swap2\n      swap1\n      pop\n      jump\t// out\n        /* \"DidRegistry.sol\":1251:1591  function createDID(string memory _identifier) public {... */\n    tag_28:\n        /* \"DidRegistry.sol\":1350:1351  0 */\n      0x00\n        /* \"DidRegistry.sol\":1328:1339  _identifier */\n      dup2\n        /* \"DidRegistry.sol\":1322:1347  bytes(_identifier).length */\n      mload\n        /* \"DidRegistry.sol\":1322:1351  bytes(_identifier).length > 0 */\n      gt\n        /* \"DidRegistry.sol\":1314:1382  require(bytes(_identifier).length > 0, \"Identifier cannot be empty\") */\n      tag_93\n      jumpi\n      mload(0x40)\n      0x08c379a000000000000000000000000000000000000000000000000000000000\n      dup2\n      mstore\n      0x04\n      add\n      tag_94\n      swap1\n      tag_95\n      jump\t// in\n    tag_94:\n      mload(0x40)\n      dup1\n      swap2\n      sub\n      swap1\n      revert\n    tag_93:\n        /* \"DidRegistry.sol\":1434:1435  0 */\n      0x00\n        /* \"DidRegistry.sol\":1400:1436  dids[msg.sender].owner == address(0) */\n      0xffffffffffffffffffffffffffffffffffffffff\n      and\n        /* \"DidRegistry.sol\":1400:1404  dids */\n      0x00\n        /* \"DidRegistry.sol\":1400:1416  dids[msg.sender] */\n      dup1\n        /* \"DidRegistry.sol\":1405:1415  msg.sender */\n      caller\n        /* \"DidRegistry.sol\":1400:1416  dids[msg.sender] */\n      0xffffffffffffffffffffffffffffffffffffffff\n      and\n      0xffffffffffffffffffffffffffffffffffffffff\n      and\n      dup2\n      mstore\n      0x20\n      add\n      swap1\n      dup2\n      mstore\n      0x20\n      add\n      0x00\n      keccak256\n        /* \"DidRegistry.sol\":1400:1422  dids[msg.sender].owner */\n      0x01\n      add\n      0x00\n      swap1\n      sload\n      swap1\n      0x0100\n      exp\n      swap1\n      div\n      0xffffffffffffffffffffffffffffffffffffffff\n      and\n        /* \"DidRegistry.sol\":1400:1436  dids[msg.sender].owner == address(0) */\n      0xffffffffffffffffffffffffffffffffffffffff\n      and\n      eq\n        /* \"DidRegistry.sol\":1392:1476  require(dids[msg.sender].owner == address(0), \"DID already exists for this address\") */\n      tag_96\n      jumpi\n      mload(0x40)\n      0x08c379a000000000000000000000000000000000000000000000000000000000\n      dup2\n      mstore\n      0x04\n      add\n      tag_97\n      swap1\n      tag_98\n      jump\t// in\n    tag_97:\n      mload(0x40)\n      dup1\n      swap2\n      sub\n      swap1\n      revert\n    tag_96:\n        /* \"DidRegistry.sol\":1505:1533  DID(_identifier, msg.sender) */\n      mload(0x40)\n      dup1\n      0x40\n      add\n      0x40\n      mstore\n      dup1\n        /* \"DidRegistry.sol\":1509:1520  _identifier */\n      dup3\n        /* \"DidRegistry.sol\":1505:1533  DID(_identifier, msg.sender) */\n      dup2\n      mstore\n      0x20\n      add\n        /* \"DidRegistry.sol\":1522:1532  msg.sender */\n      caller\n        /* \"DidRegistry.sol\":1505:1533  DID(_identifier, msg.sender) */\n      0xffffffffffffffffffffffffffffffffffffffff\n      and\n      dup2\n      mstore\n      pop\n        /* \"DidRegistry.sol\":1486:1490  dids */\n      0x00\n        /* \"DidRegistry.sol\":1486:1502  dids[msg.sender] */\n      dup1\n        /* \"DidRegistry.sol\":1491:1501  msg.sender */\n      caller\n        /* \"DidRegistry.sol\":1486:1502  dids[msg.sender] */\n      0xffffffffffffffffffffffffffffffffffffffff\n      and\n      0xffffffffffffffffffffffffffffffffffffffff\n      and\n      dup2\n      mstore\n      0x20\n      add\n      swap1\n      dup2\n      mstore\n      0x20\n      add\n      0x00\n      keccak256\n        /* \"DidRegistry.sol\":1486:1533  dids[msg.sender] = DID(_identifier, msg.sender) */\n      0x00\n      dup3\n      add\n      mload\n      dup2\n      0x00\n      add\n      swap1\n      dup2\n      tag_99\n      swap2\n      swap1\n      tag_51\n      jump\t// in\n    tag_99:\n      pop\n      0x20\n      dup3\n      add\n      mload\n      dup2\n      0x01\n      add\n      exp(0x0100, 0x00)\n      dup2\n      sload\n      dup2\n      0xffffffffffffffffffffffffffffffffffffffff\n      mul\n      not\n      and\n      swap1\n      dup4\n      0xffffffffffffffffffffffffffffffffffffffff\n      and\n      mul\n      or\n      swap1\n      sstore\n      pop\n      swap1\n      pop\n      pop\n        /* \"DidRegistry.sol\":1560:1570  msg.sender */\n      caller\n        /* \"DidRegistry.sol\":1549:1584  DIDCreated(msg.sender, _identifier) */\n      0xffffffffffffffffffffffffffffffffffffffff\n      and\n      0x1b7934654ba536b6962955e057ce42885353bbaad8c605a5ce0678e632f28410\n        /* \"DidRegistry.sol\":1572:1583  _identifier */\n      dup3\n        /* \"DidRegistry.sol\":1549:1584  DIDCreated(msg.sender, _identifier) */\n      mload(0x40)\n      tag_100\n      swap2\n      swap1\n      tag_33\n      jump\t// in\n    tag_100:\n      mload(0x40)\n      dup1\n      swap2\n      sub\n      swap1\n      log2\n        /* \"DidRegistry.sol\":1251:1591  function createDID(string memory _identifier) public {... */\n      pop\n      jump\t// out\n        /* \"DidRegistry.sol\":2941:3127  function getRole(address _user) public view returns (string memory) {... */\n    tag_31:\n        /* \"DidRegistry.sol\":2994:3007  string memory */\n      0x60\n        /* \"DidRegistry.sol\":3056:3057  0 */\n      0x00\n        /* \"DidRegistry.sol\":3033:3038  roles */\n      0x02\n        /* \"DidRegistry.sol\":3033:3045  roles[_user] */\n      0x00\n        /* \"DidRegistry.sol\":3039:3044  _user */\n      dup5\n        /* \"DidRegistry.sol\":3033:3045  roles[_user] */\n      0xffffffffffffffffffffffffffffffffffffffff\n      and\n      0xffffffffffffffffffffffffffffffffffffffff\n      and\n      dup2\n      mstore\n      0x20\n      add\n      swap1\n      dup2\n      mstore\n      0x20\n      add\n      0x00\n      keccak256\n        /* \"DidRegistry.sol\":3027:3053  bytes(roles[_user]).length */\n      dup1\n      sload\n      tag_102\n      swap1\n      tag_77\n      jump\t// in\n    tag_102:\n      swap1\n      pop\n        /* \"DidRegistry.sol\":3027:3057  bytes(roles[_user]).length > 0 */\n      gt\n        /* \"DidRegistry.sol\":3019:3091  require(bytes(roles[_user]).length > 0, \"No role assigned to this user\") */\n      tag_103\n      jumpi\n      mload(0x40)\n      0x08c379a000000000000000000000000000000000000000000000000000000000\n      dup2\n      mstore\n      0x04\n      add\n      tag_104\n      swap1\n      tag_105\n      jump\t// in\n    tag_104:\n      mload(0x40)\n      dup1\n      swap2\n      sub\n      swap1\n      revert\n    tag_103:\n        /* \"DidRegistry.sol\":3108:3113  roles */\n      0x02\n        /* \"DidRegistry.sol\":3108:3120  roles[_user] */\n      0x00\n        /* \"DidRegistry.sol\":3114:3119  _user */\n      dup4\n        /* \"DidRegistry.sol\":3108:3120  roles[_user] */\n      0xffffffffffffffffffffffffffffffffffffffff\n      and\n      0xffffffffffffffffffffffffffffffffffffffff\n      and\n      dup2\n      mstore\n      0x20\n      add\n      swap1\n      dup2\n      mstore\n      0x20\n      add\n      0x00\n      keccak256\n        /* \"DidRegistry.sol\":3101:3120  return roles[_user] */\n      dup1\n      sload\n      tag_106\n      swap1\n      tag_77\n      jump\t// in\n    tag_106:\n      dup1\n      0x1f\n      add\n      0x20\n      dup1\n      swap2\n      div\n      mul\n      0x20\n      add\n      mload(0x40)\n      swap1\n      dup2\n      add\n      0x40\n      mstore\n      dup1\n      swap3\n      swap2\n      swap1\n      dup2\n      dup2\n      mstore\n      0x20\n      add\n      dup3\n      dup1\n      sload\n      tag_107\n      swap1\n      tag_77\n      jump\t// in\n    tag_107:\n      dup1\n      iszero\n      tag_108\n      jumpi\n      dup1\n      0x1f\n      lt\n      tag_109\n      jumpi\n      0x0100\n      dup1\n      dup4\n      sload\n      div\n      mul\n      dup4\n      mstore\n      swap2\n      0x20\n      add\n      swap2\n      jump(tag_108)\n    tag_109:\n      dup3\n      add\n      swap2\n      swap1\n      0x00\n      mstore\n      keccak256(0x00, 0x20)\n      swap1\n    tag_110:\n      dup2\n      sload\n      dup2\n      mstore\n      swap1\n      0x01\n      add\n      swap1\n      0x20\n      add\n      dup1\n      dup4\n      gt\n      tag_110\n      jumpi\n      dup3\n      swap1\n      sub\n      0x1f\n      and\n      dup3\n      add\n      swap2\n    tag_108:\n      pop\n      pop\n      pop\n      pop\n      pop\n      swap1\n      pop\n        /* \"DidRegistry.sol\":2941:3127  function getRole(address _user) public view returns (string memory) {... */\n      swap2\n      swap1\n      pop\n      jump\t// out\n        /* \"DidRegistry.sol\":2476:2893  function assignRole(address _user, string memory _role) public onlyAdmin {... */\n    tag_37:\n        /* \"DidRegistry.sol\":1151:1156  admin */\n      0x04\n      0x00\n      swap1\n      sload\n      swap1\n      0x0100\n      exp\n      swap1\n      div\n      0xffffffffffffffffffffffffffffffffffffffff\n      and\n        /* \"DidRegistry.sol\":1137:1156  msg.sender == admin */\n      0xffffffffffffffffffffffffffffffffffffffff\n      and\n        /* \"DidRegistry.sol\":1137:1147  msg.sender */\n      caller\n        /* \"DidRegistry.sol\":1137:1156  msg.sender == admin */\n      0xffffffffffffffffffffffffffffffffffffffff\n      and\n      eq\n        /* \"DidRegistry.sol\":1129:1195  require(msg.sender == admin, \"Only admin can perform this action\") */\n      tag_112\n      jumpi\n      mload(0x40)\n      0x08c379a000000000000000000000000000000000000000000000000000000000\n      dup2\n      mstore\n      0x04\n      add\n      tag_113\n      swap1\n      tag_114\n      jump\t// in\n    tag_113:\n      mload(0x40)\n      dup1\n      swap2\n      sub\n      swap1\n      revert\n    tag_112:\n        /* \"DidRegistry.sol\":2589:2590  0 */\n      0x00\n        /* \"DidRegistry.sol\":2573:2578  _role */\n      dup2\n        /* \"DidRegistry.sol\":2567:2586  bytes(_role).length */\n      mload\n        /* \"DidRegistry.sol\":2567:2590  bytes(_role).length > 0 */\n      gt\n        /* \"DidRegistry.sol\":2559:2615  require(bytes(_role).length > 0, \"Role cannot be empty\") */\n      tag_116\n      jumpi\n      mload(0x40)\n      0x08c379a000000000000000000000000000000000000000000000000000000000\n      dup2\n      mstore\n      0x04\n      add\n      tag_117\n      swap1\n      tag_118\n      jump\t// in\n    tag_117:\n      mload(0x40)\n      dup1\n      swap2\n      sub\n      swap1\n      revert\n    tag_116:\n        /* \"DidRegistry.sol\":2640:2645  _role */\n      dup1\n        /* \"DidRegistry.sol\":2625:2630  roles */\n      0x02\n        /* \"DidRegistry.sol\":2625:2637  roles[_user] */\n      0x00\n        /* \"DidRegistry.sol\":2631:2636  _user */\n      dup5\n        /* \"DidRegistry.sol\":2625:2637  roles[_user] */\n      0xffffffffffffffffffffffffffffffffffffffff\n      and\n      0xffffffffffffffffffffffffffffffffffffffff\n      and\n      dup2\n      mstore\n      0x20\n      add\n      swap1\n      dup2\n      mstore\n      0x20\n      add\n      0x00\n      keccak256\n        /* \"DidRegistry.sol\":2625:2645  roles[_user] = _role */\n      swap1\n      dup2\n      tag_119\n      swap2\n      swap1\n      tag_51\n      jump\t// in\n    tag_119:\n      pop\n        /* \"DidRegistry.sol\":2697:2708  roleHistory */\n      0x03\n        /* \"DidRegistry.sol\":2697:2715  roleHistory[_user] */\n      0x00\n        /* \"DidRegistry.sol\":2709:2714  _user */\n      dup4\n        /* \"DidRegistry.sol\":2697:2715  roleHistory[_user] */\n      0xffffffffffffffffffffffffffffffffffffffff\n      and\n      0xffffffffffffffffffffffffffffffffffffffff\n      and\n      dup2\n      mstore\n      0x20\n      add\n      swap1\n      dup2\n      mstore\n      0x20\n      add\n      0x00\n      keccak256\n        /* \"DidRegistry.sol\":2721:2843  RoleCredential({... */\n      mload(0x40)\n      dup1\n      0x60\n      add\n      0x40\n      mstore\n      dup1\n        /* \"DidRegistry.sol\":2756:2761  _role */\n      dup4\n        /* \"DidRegistry.sol\":2721:2843  RoleCredential({... */\n      dup2\n      mstore\n      0x20\n      add\n        /* \"DidRegistry.sol\":2783:2793  msg.sender */\n      caller\n        /* \"DidRegistry.sol\":2721:2843  RoleCredential({... */\n      0xffffffffffffffffffffffffffffffffffffffff\n      and\n      dup2\n      mstore\n      0x20\n      add\n        /* \"DidRegistry.sol\":2817:2832  block.timestamp */\n      timestamp\n        /* \"DidRegistry.sol\":2721:2843  RoleCredential({... */\n      dup2\n      mstore\n      pop\n        /* \"DidRegistry.sol\":2697:2844  roleHistory[_user].push(RoleCredential({... */\n      swap1\n      dup1\n      0x01\n      dup2\n      sload\n      add\n      dup1\n      dup3\n      sstore\n      dup1\n      swap2\n      pop\n      pop\n      0x01\n      swap1\n      sub\n      swap1\n      0x00\n      mstore\n      keccak256(0x00, 0x20)\n      swap1\n      0x03\n      mul\n      add\n      0x00\n      swap1\n      swap2\n      swap1\n      swap2\n      swap1\n      swap2\n      pop\n      0x00\n      dup3\n      add\n      mload\n      dup2\n      0x00\n      add\n      swap1\n      dup2\n      tag_121\n      swap2\n      swap1\n      tag_51\n      jump\t// in\n    tag_121:\n      pop\n      0x20\n      dup3\n      add\n      mload\n      dup2\n      0x01\n      add\n      exp(0x0100, 0x00)\n      dup2\n      sload\n      dup2\n      0xffffffffffffffffffffffffffffffffffffffff\n      mul\n      not\n      and\n      swap1\n      dup4\n      0xffffffffffffffffffffffffffffffffffffffff\n      and\n      mul\n      or\n      swap1\n      sstore\n      pop\n      0x40\n      dup3\n      add\n      mload\n      dup2\n      0x02\n      add\n      sstore\n      pop\n      pop\n        /* \"DidRegistry.sol\":2873:2878  _user */\n      dup2\n        /* \"DidRegistry.sol\":2860:2886  RoleAssigned(_user, _role) */\n      0xffffffffffffffffffffffffffffffffffffffff\n      and\n      0x3565795c2fb8842c21347d277937778bbcfe788b5b4f790fc5e408786cbe9c90\n        /* \"DidRegistry.sol\":2880:2885  _role */\n      dup3\n        /* \"DidRegistry.sol\":2860:2886  RoleAssigned(_user, _role) */\n      mload(0x40)\n      tag_122\n      swap2\n      swap1\n      tag_33\n      jump\t// in\n    tag_122:\n      mload(0x40)\n      dup1\n      swap2\n      sub\n      swap1\n      log2\n        /* \"DidRegistry.sol\":2476:2893  function assignRole(address _user, string memory _role) public onlyAdmin {... */\n      pop\n      pop\n      jump\t// out\n        /* \"DidRegistry.sol\":1628:1821  function getDID() public view returns (string memory) {... */\n    tag_39:\n        /* \"DidRegistry.sol\":1667:1680  string memory */\n      0x60\n        /* \"DidRegistry.sol\":1734:1735  0 */\n      0x00\n        /* \"DidRegistry.sol\":1700:1736  dids[msg.sender].owner != address(0) */\n      0xffffffffffffffffffffffffffffffffffffffff\n      and\n        /* \"DidRegistry.sol\":1700:1704  dids */\n      0x00\n        /* \"DidRegistry.sol\":1700:1716  dids[msg.sender] */\n      dup1\n        /* \"DidRegistry.sol\":1705:1715  msg.sender */\n      caller\n        /* \"DidRegistry.sol\":1700:1716  dids[msg.sender] */\n      0xffffffffffffffffffffffffffffffffffffffff\n      and\n      0xffffffffffffffffffffffffffffffffffffffff\n      and\n      dup2\n      mstore\n      0x20\n      add\n      swap1\n      dup2\n      mstore\n      0x20\n      add\n      0x00\n      keccak256\n        /* \"DidRegistry.sol\":1700:1722  dids[msg.sender].owner */\n      0x01\n      add\n      0x00\n      swap1\n      sload\n      swap1\n      0x0100\n      exp\n      swap1\n      div\n      0xffffffffffffffffffffffffffffffffffffffff\n      and\n        /* \"DidRegistry.sol\":1700:1736  dids[msg.sender].owner != address(0) */\n      0xffffffffffffffffffffffffffffffffffffffff\n      and\n      sub\n        /* \"DidRegistry.sol\":1692:1770  require(dids[msg.sender].owner != address(0), \"No DID found for this address\") */\n      tag_124\n      jumpi\n      mload(0x40)\n      0x08c379a000000000000000000000000000000000000000000000000000000000\n      dup2\n      mstore\n      0x04\n      add\n      tag_125\n      swap1\n      tag_62\n      jump\t// in\n    tag_125:\n      mload(0x40)\n      dup1\n      swap2\n      sub\n      swap1\n      revert\n    tag_124:\n        /* \"DidRegistry.sol\":1787:1791  dids */\n      0x00\n        /* \"DidRegistry.sol\":1787:1803  dids[msg.sender] */\n      dup1\n        /* \"DidRegistry.sol\":1792:1802  msg.sender */\n      caller\n        /* \"DidRegistry.sol\":1787:1803  dids[msg.sender] */\n      0xffffffffffffffffffffffffffffffffffffffff\n      and\n      0xffffffffffffffffffffffffffffffffffffffff\n      and\n      dup2\n      mstore\n      0x20\n      add\n      swap1\n      dup2\n      mstore\n      0x20\n      add\n      0x00\n      keccak256\n        /* \"DidRegistry.sol\":1787:1814  dids[msg.sender].identifier */\n      0x00\n      add\n        /* \"DidRegistry.sol\":1780:1814  return dids[msg.sender].identifier */\n      dup1\n      sload\n      tag_126\n      swap1\n      tag_77\n      jump\t// in\n    tag_126:\n      dup1\n      0x1f\n      add\n      0x20\n      dup1\n      swap2\n      div\n      mul\n      0x20\n      add\n      mload(0x40)\n      swap1\n      dup2\n      add\n      0x40\n      mstore\n      dup1\n      swap3\n      swap2\n      swap1\n      dup2\n      dup2\n      mstore\n      0x20\n      add\n      dup3\n      dup1\n      sload\n      tag_127\n      swap1\n      tag_77\n      jump\t// in\n    tag_127:\n      dup1\n      iszero\n      tag_128\n      jumpi\n      dup1\n      0x1f\n      lt\n      tag_129\n      jumpi\n      0x0100\n      dup1\n      dup4\n      sload\n      div\n      mul\n      dup4\n      mstore\n      swap2\n      0x20\n      add\n      swap2\n      jump(tag_128)\n    tag_129:\n      dup3\n      add\n      swap2\n      swap1\n      0x00\n      mstore\n      keccak256(0x00, 0x20)\n      swap1\n    tag_130:\n      dup2\n      sload\n      dup2\n      mstore\n      swap1\n      0x01\n      add\n      swap1\n      0x20\n      add\n      dup1\n      dup4\n      gt\n      tag_130\n      jumpi\n      dup3\n      swap1\n      sub\n      0x1f\n      and\n      dup3\n      add\n      swap2\n    tag_128:\n      pop\n      pop\n      pop\n      pop\n      pop\n      swap1\n      pop\n        /* \"DidRegistry.sol\":1628:1821  function getDID() public view returns (string memory) {... */\n      swap1\n      jump\t// out\n        /* \"DidRegistry.sol\":3809:4262  function verifyRoleCredential(address _user, string memory _role) public view returns (bool) {... */\n    tag_43:\n        /* \"DidRegistry.sol\":3896:3900  bool */\n      0x00\n        /* \"DidRegistry.sol\":3912:3943  RoleCredential[] memory history */\n      dup1\n        /* \"DidRegistry.sol\":3946:3957  roleHistory */\n      0x03\n        /* \"DidRegistry.sol\":3946:3964  roleHistory[_user] */\n      0x00\n        /* \"DidRegistry.sol\":3958:3963  _user */\n      dup6\n        /* \"DidRegistry.sol\":3946:3964  roleHistory[_user] */\n      0xffffffffffffffffffffffffffffffffffffffff\n      and\n      0xffffffffffffffffffffffffffffffffffffffff\n      and\n      dup2\n      mstore\n      0x20\n      add\n      swap1\n      dup2\n      mstore\n      0x20\n      add\n      0x00\n      keccak256\n        /* \"DidRegistry.sol\":3912:3964  RoleCredential[] memory history = roleHistory[_user] */\n      dup1\n      sload\n      dup1\n      0x20\n      mul\n      0x20\n      add\n      mload(0x40)\n      swap1\n      dup2\n      add\n      0x40\n      mstore\n      dup1\n      swap3\n      swap2\n      swap1\n      dup2\n      dup2\n      mstore\n      0x20\n      add\n      0x00\n      swap1\n    tag_132:\n      dup3\n      dup3\n      lt\n      iszero\n      tag_133\n      jumpi\n      dup4\n      dup3\n      swap1\n      0x00\n      mstore\n      keccak256(0x00, 0x20)\n      swap1\n      0x03\n      mul\n      add\n      mload(0x40)\n      dup1\n      0x60\n      add\n      0x40\n      mstore\n      swap1\n      dup2\n      0x00\n      dup3\n      add\n      dup1\n      sload\n      tag_135\n      swap1\n      tag_77\n      jump\t// in\n    tag_135:\n      dup1\n      0x1f\n      add\n      0x20\n      dup1\n      swap2\n      div\n      mul\n      0x20\n      add\n      mload(0x40)\n      swap1\n      dup2\n      add\n      0x40\n      mstore\n      dup1\n      swap3\n      swap2\n      swap1\n      dup2\n      dup2\n      mstore\n      0x20\n      add\n      dup3\n      dup1\n      sload\n      tag_136\n      swap1\n      tag_77\n      jump\t// in\n    tag_136:\n      dup1\n      iszero\n      tag_137\n      jumpi\n      dup1\n      0x1f\n      lt\n      tag_138\n      jumpi\n      0x0100\n      dup1\n      dup4\n      sload\n      div\n      mul\n      dup4\n      mstore\n      swap2\n      0x20\n      add\n      swap2\n      jump(tag_137)\n    tag_138:\n      dup3\n      add\n      swap2\n      swap1\n      0x00\n      mstore\n      keccak256(0x00, 0x20)\n      swap1\n    tag_139:\n      dup2\n      sload\n      dup2\n      mstore\n      swap1\n      0x01\n      add\n      swap1\n      0x20\n      add\n      dup1\n      dup4\n      gt\n      tag_139\n      jumpi\n      dup3\n      swap1\n      sub\n      0x1f\n      and\n      dup3\n      add\n      swap2\n    tag_137:\n      pop\n      pop\n      pop\n      pop\n      pop\n      dup2\n      mstore\n      0x20\n      add\n      0x01\n      dup3\n      add\n      0x00\n      swap1\n      sload\n      swap1\n      0x0100\n      exp\n      swap1\n      div\n      0xffffffffffffffffffffffffffffffffffffffff\n      and\n      0xffffffffffffffffffffffffffffffffffffffff\n      and\n      0xffffffffffffffffffffffffffffffffffffffff\n      and\n      dup2\n      mstore\n      0x20\n      add\n      0x02\n      dup3\n      add\n      sload\n      dup2\n      mstore\n      pop\n      pop\n      dup2\n      mstore\n      0x20\n      add\n      swap1\n      0x01\n      add\n      swap1\n      jump(tag_132)\n    tag_133:\n      pop\n      pop\n      pop\n      pop\n      swap1\n      pop\n        /* \"DidRegistry.sol\":3979:3988  uint256 i */\n      0x00\n        /* \"DidRegistry.sol\":3974:4234  for (uint256 i = 0; i < history.length; i++) {... */\n    tag_140:\n        /* \"DidRegistry.sol\":3998:4005  history */\n      dup2\n        /* \"DidRegistry.sol\":3998:4012  history.length */\n      mload\n        /* \"DidRegistry.sol\":3994:3995  i */\n      dup2\n        /* \"DidRegistry.sol\":3994:4012  i < history.length */\n      lt\n        /* \"DidRegistry.sol\":3974:4234  for (uint256 i = 0; i < history.length; i++) {... */\n      iszero\n      tag_141\n      jumpi\n        /* \"DidRegistry.sol\":4107:4112  _role */\n      dup4\n        /* \"DidRegistry.sol\":4091:4114  keccak256(bytes(_role)) */\n      dup1\n      mload\n      swap1\n      0x20\n      add\n      keccak256\n        /* \"DidRegistry.sol\":4070:4077  history */\n      dup3\n        /* \"DidRegistry.sol\":4078:4079  i */\n      dup3\n        /* \"DidRegistry.sol\":4070:4080  history[i] */\n      dup2\n      mload\n      dup2\n      lt\n      tag_143\n      jumpi\n      tag_144\n      tag_145\n      jump\t// in\n    tag_144:\n    tag_143:\n      0x20\n      mul\n      0x20\n      add\n      add\n      mload\n        /* \"DidRegistry.sol\":4070:4085  history[i].role */\n      0x00\n      add\n      mload\n        /* \"DidRegistry.sol\":4054:4087  keccak256(bytes(history[i].role)) */\n      dup1\n      mload\n      swap1\n      0x20\n      add\n      keccak256\n        /* \"DidRegistry.sol\":4054:4114  keccak256(bytes(history[i].role)) == keccak256(bytes(_role)) */\n      eq\n        /* \"DidRegistry.sol\":4054:4165  keccak256(bytes(history[i].role)) == keccak256(bytes(_role)) &&... */\n      dup1\n      iszero\n      tag_146\n      jumpi\n      pop\n        /* \"DidRegistry.sol\":4163:4164  0 */\n      0x00\n        /* \"DidRegistry.sol\":4134:4165  history[i].issuer != address(0) */\n      0xffffffffffffffffffffffffffffffffffffffff\n      and\n        /* \"DidRegistry.sol\":4134:4141  history */\n      dup3\n        /* \"DidRegistry.sol\":4142:4143  i */\n      dup3\n        /* \"DidRegistry.sol\":4134:4144  history[i] */\n      dup2\n      mload\n      dup2\n      lt\n      tag_147\n      jumpi\n      tag_148\n      tag_145\n      jump\t// in\n    tag_148:\n    tag_147:\n      0x20\n      mul\n      0x20\n      add\n      add\n      mload\n        /* \"DidRegistry.sol\":4134:4151  history[i].issuer */\n      0x20\n      add\n      mload\n        /* \"DidRegistry.sol\":4134:4165  history[i].issuer != address(0) */\n      0xffffffffffffffffffffffffffffffffffffffff\n      and\n      eq\n      iszero\n        /* \"DidRegistry.sol\":4054:4165  keccak256(bytes(history[i].role)) == keccak256(bytes(_role)) &&... */\n    tag_146:\n        /* \"DidRegistry.sol\":4033:4224  if (... */\n      iszero\n      tag_149\n      jumpi\n        /* \"DidRegistry.sol\":4205:4209  true */\n      0x01\n        /* \"DidRegistry.sol\":4198:4209  return true */\n      swap3\n      pop\n      pop\n      pop\n      jump(tag_131)\n        /* \"DidRegistry.sol\":4033:4224  if (... */\n    tag_149:\n        /* \"DidRegistry.sol\":4014:4017  i++ */\n      dup1\n      dup1\n      0x01\n      add\n      swap2\n      pop\n      pop\n        /* \"DidRegistry.sol\":3974:4234  for (uint256 i = 0; i < history.length; i++) {... */\n      jump(tag_140)\n    tag_141:\n      pop\n        /* \"DidRegistry.sol\":4250:4255  false */\n      0x00\n        /* \"DidRegistry.sol\":4243:4255  return false */\n      swap2\n      pop\n      pop\n        /* \"DidRegistry.sol\":3809:4262  function verifyRoleCredential(address _user, string memory _role) public view returns (bool) {... */\n    tag_131:\n      swap3\n      swap2\n      pop\n      pop\n      jump\t// out\n    tag_71:\n      mload(0x40)\n      dup1\n      0x60\n      add\n      0x40\n      mstore\n      dup1\n      0x60\n      dup2\n      mstore\n      0x20\n      add\n      0x60\n      dup2\n      mstore\n      0x20\n      add\n      0x60\n      dup2\n      mstore\n      pop\n      swap1\n      jump\t// out\n        /* \"#utility.yul\":7:82   */\n    tag_150:\n        /* \"#utility.yul\":40:46   */\n      0x00\n        /* \"#utility.yul\":73:75   */\n      0x40\n        /* \"#utility.yul\":67:76   */\n      mload\n        /* \"#utility.yul\":57:76   */\n      swap1\n      pop\n        /* \"#utility.yul\":7:82   */\n      swap1\n      jump\t// out\n        /* \"#utility.yul\":88:205   */\n    tag_151:\n        /* \"#utility.yul\":197:198   */\n      0x00\n        /* \"#utility.yul\":194:195   */\n      dup1\n        /* \"#utility.yul\":187:199   */\n      revert\n        /* \"#utility.yul\":211:328   */\n    tag_152:\n        /* \"#utility.yul\":320:321   */\n      0x00\n        /* \"#utility.yul\":317:318   */\n      dup1\n        /* \"#utility.yul\":310:322   */\n      revert\n        /* \"#utility.yul\":334:451   */\n    tag_153:\n        /* \"#utility.yul\":443:444   */\n      0x00\n        /* \"#utility.yul\":440:441   */\n      dup1\n        /* \"#utility.yul\":433:445   */\n      revert\n        /* \"#utility.yul\":457:574   */\n    tag_154:\n        /* \"#utility.yul\":566:567   */\n      0x00\n        /* \"#utility.yul\":563:564   */\n      dup1\n        /* \"#utility.yul\":556:568   */\n      revert\n        /* \"#utility.yul\":580:682   */\n    tag_155:\n        /* \"#utility.yul\":621:627   */\n      0x00\n        /* \"#utility.yul\":672:674   */\n      0x1f\n        /* \"#utility.yul\":668:675   */\n      not\n        /* \"#utility.yul\":663:665   */\n      0x1f\n        /* \"#utility.yul\":656:661   */\n      dup4\n        /* \"#utility.yul\":652:666   */\n      add\n        /* \"#utility.yul\":648:676   */\n      and\n        /* \"#utility.yul\":638:676   */\n      swap1\n      pop\n        /* \"#utility.yul\":580:682   */\n      swap2\n      swap1\n      pop\n      jump\t// out\n        /* \"#utility.yul\":688:868   */\n    tag_156:\n        /* \"#utility.yul\":736:813   */\n      0x4e487b7100000000000000000000000000000000000000000000000000000000\n        /* \"#utility.yul\":733:734   */\n      0x00\n        /* \"#utility.yul\":726:814   */\n      mstore\n        /* \"#utility.yul\":833:837   */\n      0x41\n        /* \"#utility.yul\":830:831   */\n      0x04\n        /* \"#utility.yul\":823:838   */\n      mstore\n        /* \"#utility.yul\":857:861   */\n      0x24\n        /* \"#utility.yul\":854:855   */\n      0x00\n        /* \"#utility.yul\":847:862   */\n      revert\n        /* \"#utility.yul\":874:1155   */\n    tag_157:\n        /* \"#utility.yul\":957:984   */\n      tag_222\n        /* \"#utility.yul\":979:983   */\n      dup3\n        /* \"#utility.yul\":957:984   */\n      tag_155\n      jump\t// in\n    tag_222:\n        /* \"#utility.yul\":949:955   */\n      dup2\n        /* \"#utility.yul\":945:985   */\n      add\n        /* \"#utility.yul\":1087:1093   */\n      dup2\n        /* \"#utility.yul\":1075:1085   */\n      dup2\n        /* \"#utility.yul\":1072:1094   */\n      lt\n        /* \"#utility.yul\":1051:1069   */\n      0xffffffffffffffff\n        /* \"#utility.yul\":1039:1049   */\n      dup3\n        /* \"#utility.yul\":1036:1070   */\n      gt\n        /* \"#utility.yul\":1033:1095   */\n      or\n        /* \"#utility.yul\":1030:1118   */\n      iszero\n      tag_223\n      jumpi\n        /* \"#utility.yul\":1098:1116   */\n      tag_224\n      tag_156\n      jump\t// in\n    tag_224:\n        /* \"#utility.yul\":1030:1118   */\n    tag_223:\n        /* \"#utility.yul\":1138:1148   */\n      dup1\n        /* \"#utility.yul\":1134:1136   */\n      0x40\n        /* \"#utility.yul\":1127:1149   */\n      mstore\n        /* \"#utility.yul\":917:1155   */\n      pop\n        /* \"#utility.yul\":874:1155   */\n      pop\n      pop\n      jump\t// out\n        /* \"#utility.yul\":1161:1290   */\n    tag_158:\n        /* \"#utility.yul\":1195:1201   */\n      0x00\n        /* \"#utility.yul\":1222:1242   */\n      tag_226\n      tag_150\n      jump\t// in\n    tag_226:\n        /* \"#utility.yul\":1212:1242   */\n      swap1\n      pop\n        /* \"#utility.yul\":1251:1284   */\n      tag_227\n        /* \"#utility.yul\":1279:1283   */\n      dup3\n        /* \"#utility.yul\":1271:1277   */\n      dup3\n        /* \"#utility.yul\":1251:1284   */\n      tag_157\n      jump\t// in\n    tag_227:\n        /* \"#utility.yul\":1161:1290   */\n      swap2\n      swap1\n      pop\n      jump\t// out\n        /* \"#utility.yul\":1296:1604   */\n    tag_159:\n        /* \"#utility.yul\":1358:1362   */\n      0x00\n        /* \"#utility.yul\":1448:1466   */\n      0xffffffffffffffff\n        /* \"#utility.yul\":1440:1446   */\n      dup3\n        /* \"#utility.yul\":1437:1467   */\n      gt\n        /* \"#utility.yul\":1434:1490   */\n      iszero\n      tag_229\n      jumpi\n        /* \"#utility.yul\":1470:1488   */\n      tag_230\n      tag_156\n      jump\t// in\n    tag_230:\n        /* \"#utility.yul\":1434:1490   */\n    tag_229:\n        /* \"#utility.yul\":1508:1537   */\n      tag_231\n        /* \"#utility.yul\":1530:1536   */\n      dup3\n        /* \"#utility.yul\":1508:1537   */\n      tag_155\n      jump\t// in\n    tag_231:\n        /* \"#utility.yul\":1500:1537   */\n      swap1\n      pop\n        /* \"#utility.yul\":1592:1596   */\n      0x20\n        /* \"#utility.yul\":1586:1590   */\n      dup2\n        /* \"#utility.yul\":1582:1597   */\n      add\n        /* \"#utility.yul\":1574:1597   */\n      swap1\n      pop\n        /* \"#utility.yul\":1296:1604   */\n      swap2\n      swap1\n      pop\n      jump\t// out\n        /* \"#utility.yul\":1610:1758   */\n    tag_160:\n        /* \"#utility.yul\":1708:1714   */\n      dup3\n        /* \"#utility.yul\":1703:1706   */\n      dup2\n        /* \"#utility.yul\":1698:1701   */\n      dup4\n        /* \"#utility.yul\":1685:1715   */\n      calldatacopy\n        /* \"#utility.yul\":1749:1750   */\n      0x00\n        /* \"#utility.yul\":1740:1746   */\n      dup4\n        /* \"#utility.yul\":1735:1738   */\n      dup4\n        /* \"#utility.yul\":1731:1747   */\n      add\n        /* \"#utility.yul\":1724:1751   */\n      mstore\n        /* \"#utility.yul\":1610:1758   */\n      pop\n      pop\n      pop\n      jump\t// out\n        /* \"#utility.yul\":1764:2189   */\n    tag_161:\n        /* \"#utility.yul\":1842:1847   */\n      0x00\n        /* \"#utility.yul\":1867:1933   */\n      tag_234\n        /* \"#utility.yul\":1883:1932   */\n      tag_235\n        /* \"#utility.yul\":1925:1931   */\n      dup5\n        /* \"#utility.yul\":1883:1932   */\n      tag_159\n      jump\t// in\n    tag_235:\n        /* \"#utility.yul\":1867:1933   */\n      tag_158\n      jump\t// in\n    tag_234:\n        /* \"#utility.yul\":1858:1933   */\n      swap1\n      pop\n        /* \"#utility.yul\":1956:1962   */\n      dup3\n        /* \"#utility.yul\":1949:1954   */\n      dup2\n        /* \"#utility.yul\":1942:1963   */\n      mstore\n        /* \"#utility.yul\":1994:1998   */\n      0x20\n        /* \"#utility.yul\":1987:1992   */\n      dup2\n        /* \"#utility.yul\":1983:1999   */\n      add\n        /* \"#utility.yul\":2032:2035   */\n      dup5\n        /* \"#utility.yul\":2023:2029   */\n      dup5\n        /* \"#utility.yul\":2018:2021   */\n      dup5\n        /* \"#utility.yul\":2014:2030   */\n      add\n        /* \"#utility.yul\":2011:2036   */\n      gt\n        /* \"#utility.yul\":2008:2120   */\n      iszero\n      tag_236\n      jumpi\n        /* \"#utility.yul\":2039:2118   */\n      tag_237\n      tag_154\n      jump\t// in\n    tag_237:\n        /* \"#utility.yul\":2008:2120   */\n    tag_236:\n        /* \"#utility.yul\":2129:2183   */\n      tag_238\n        /* \"#utility.yul\":2176:2182   */\n      dup5\n        /* \"#utility.yul\":2171:2174   */\n      dup3\n        /* \"#utility.yul\":2166:2169   */\n      dup6\n        /* \"#utility.yul\":2129:2183   */\n      tag_160\n      jump\t// in\n    tag_238:\n        /* \"#utility.yul\":1848:2189   */\n      pop\n        /* \"#utility.yul\":1764:2189   */\n      swap4\n      swap3\n      pop\n      pop\n      pop\n      jump\t// out\n        /* \"#utility.yul\":2209:2549   */\n    tag_162:\n        /* \"#utility.yul\":2265:2270   */\n      0x00\n        /* \"#utility.yul\":2314:2317   */\n      dup3\n        /* \"#utility.yul\":2307:2311   */\n      0x1f\n        /* \"#utility.yul\":2299:2305   */\n      dup4\n        /* \"#utility.yul\":2295:2312   */\n      add\n        /* \"#utility.yul\":2291:2318   */\n      slt\n        /* \"#utility.yul\":2281:2403   */\n      tag_240\n      jumpi\n        /* \"#utility.yul\":2322:2401   */\n      tag_241\n      tag_153\n      jump\t// in\n    tag_241:\n        /* \"#utility.yul\":2281:2403   */\n    tag_240:\n        /* \"#utility.yul\":2439:2445   */\n      dup2\n        /* \"#utility.yul\":2426:2446   */\n      calldataload\n        /* \"#utility.yul\":2464:2543   */\n      tag_242\n        /* \"#utility.yul\":2539:2542   */\n      dup5\n        /* \"#utility.yul\":2531:2537   */\n      dup3\n        /* \"#utility.yul\":2524:2528   */\n      0x20\n        /* \"#utility.yul\":2516:2522   */\n      dup7\n        /* \"#utility.yul\":2512:2529   */\n      add\n        /* \"#utility.yul\":2464:2543   */\n      tag_161\n      jump\t// in\n    tag_242:\n        /* \"#utility.yul\":2455:2543   */\n      swap2\n      pop\n        /* \"#utility.yul\":2271:2549   */\n      pop\n        /* \"#utility.yul\":2209:2549   */\n      swap3\n      swap2\n      pop\n      pop\n      jump\t// out\n        /* \"#utility.yul\":2555:3714   */\n    tag_14:\n        /* \"#utility.yul\":2662:2668   */\n      0x00\n        /* \"#utility.yul\":2670:2676   */\n      dup1\n        /* \"#utility.yul\":2678:2684   */\n      0x00\n        /* \"#utility.yul\":2727:2729   */\n      0x60\n        /* \"#utility.yul\":2715:2724   */\n      dup5\n        /* \"#utility.yul\":2706:2713   */\n      dup7\n        /* \"#utility.yul\":2702:2725   */\n      sub\n        /* \"#utility.yul\":2698:2730   */\n      slt\n        /* \"#utility.yul\":2695:2814   */\n      iszero\n      tag_244\n      jumpi\n        /* \"#utility.yul\":2733:2812   */\n      tag_245\n      tag_151\n      jump\t// in\n    tag_245:\n        /* \"#utility.yul\":2695:2814   */\n    tag_244:\n        /* \"#utility.yul\":2881:2882   */\n      0x00\n        /* \"#utility.yul\":2870:2879   */\n      dup5\n        /* \"#utility.yul\":2866:2883   */\n      add\n        /* \"#utility.yul\":2853:2884   */\n      calldataload\n        /* \"#utility.yul\":2911:2929   */\n      0xffffffffffffffff\n        /* \"#utility.yul\":2903:2909   */\n      dup2\n        /* \"#utility.yul\":2900:2930   */\n      gt\n        /* \"#utility.yul\":2897:3014   */\n      iszero\n      tag_246\n      jumpi\n        /* \"#utility.yul\":2933:3012   */\n      tag_247\n      tag_152\n      jump\t// in\n    tag_247:\n        /* \"#utility.yul\":2897:3014   */\n    tag_246:\n        /* \"#utility.yul\":3038:3101   */\n      tag_248\n        /* \"#utility.yul\":3093:3100   */\n      dup7\n        /* \"#utility.yul\":3084:3090   */\n      dup3\n        /* \"#utility.yul\":3073:3082   */\n      dup8\n        /* \"#utility.yul\":3069:3091   */\n      add\n        /* \"#utility.yul\":3038:3101   */\n      tag_162\n      jump\t// in\n    tag_248:\n        /* \"#utility.yul\":3028:3101   */\n      swap4\n      pop\n        /* \"#utility.yul\":2824:3111   */\n      pop\n        /* \"#utility.yul\":3178:3180   */\n      0x20\n        /* \"#utility.yul\":3167:3176   */\n      dup5\n        /* \"#utility.yul\":3163:3181   */\n      add\n        /* \"#utility.yul\":3150:3182   */\n      calldataload\n        /* \"#utility.yul\":3209:3227   */\n      0xffffffffffffffff\n        /* \"#utility.yul\":3201:3207   */\n      dup2\n        /* \"#utility.yul\":3198:3228   */\n      gt\n        /* \"#utility.yul\":3195:3312   */\n      iszero\n      tag_249\n      jumpi\n        /* \"#utility.yul\":3231:3310   */\n      tag_250\n      tag_152\n      jump\t// in\n    tag_250:\n        /* \"#utility.yul\":3195:3312   */\n    tag_249:\n        /* \"#utility.yul\":3336:3399   */\n      tag_251\n        /* \"#utility.yul\":3391:3398   */\n      dup7\n        /* \"#utility.yul\":3382:3388   */\n      dup3\n        /* \"#utility.yul\":3371:3380   */\n      dup8\n        /* \"#utility.yul\":3367:3389   */\n      add\n        /* \"#utility.yul\":3336:3399   */\n      tag_162\n      jump\t// in\n    tag_251:\n        /* \"#utility.yul\":3326:3399   */\n      swap3\n      pop\n        /* \"#utility.yul\":3121:3409   */\n      pop\n        /* \"#utility.yul\":3476:3478   */\n      0x40\n        /* \"#utility.yul\":3465:3474   */\n      dup5\n        /* \"#utility.yul\":3461:3479   */\n      add\n        /* \"#utility.yul\":3448:3480   */\n      calldataload\n        /* \"#utility.yul\":3507:3525   */\n      0xffffffffffffffff\n        /* \"#utility.yul\":3499:3505   */\n      dup2\n        /* \"#utility.yul\":3496:3526   */\n      gt\n        /* \"#utility.yul\":3493:3610   */\n      iszero\n      tag_252\n      jumpi\n        /* \"#utility.yul\":3529:3608   */\n      tag_253\n      tag_152\n      jump\t// in\n    tag_253:\n        /* \"#utility.yul\":3493:3610   */\n    tag_252:\n        /* \"#utility.yul\":3634:3697   */\n      tag_254\n        /* \"#utility.yul\":3689:3696   */\n      dup7\n        /* \"#utility.yul\":3680:3686   */\n      dup3\n        /* \"#utility.yul\":3669:3678   */\n      dup8\n        /* \"#utility.yul\":3665:3687   */\n      add\n        /* \"#utility.yul\":3634:3697   */\n      tag_162\n      jump\t// in\n    tag_254:\n        /* \"#utility.yul\":3624:3697   */\n      swap2\n      pop\n        /* \"#utility.yul\":3419:3707   */\n      pop\n        /* \"#utility.yul\":2555:3714   */\n      swap3\n      pop\n      swap3\n      pop\n      swap3\n      jump\t// out\n        /* \"#utility.yul\":3720:4229   */\n    tag_18:\n        /* \"#utility.yul\":3789:3795   */\n      0x00\n        /* \"#utility.yul\":3838:3840   */\n      0x20\n        /* \"#utility.yul\":3826:3835   */\n      dup3\n        /* \"#utility.yul\":3817:3824   */\n      dup5\n        /* \"#utility.yul\":3813:3836   */\n      sub\n        /* \"#utility.yul\":3809:3841   */\n      slt\n        /* \"#utility.yul\":3806:3925   */\n      iszero\n      tag_256\n      jumpi\n        /* \"#utility.yul\":3844:3923   */\n      tag_257\n      tag_151\n      jump\t// in\n    tag_257:\n        /* \"#utility.yul\":3806:3925   */\n    tag_256:\n        /* \"#utility.yul\":3992:3993   */\n      0x00\n        /* \"#utility.yul\":3981:3990   */\n      dup3\n        /* \"#utility.yul\":3977:3994   */\n      add\n        /* \"#utility.yul\":3964:3995   */\n      calldataload\n        /* \"#utility.yul\":4022:4040   */\n      0xffffffffffffffff\n        /* \"#utility.yul\":4014:4020   */\n      dup2\n        /* \"#utility.yul\":4011:4041   */\n      gt\n        /* \"#utility.yul\":4008:4125   */\n      iszero\n      tag_258\n      jumpi\n        /* \"#utility.yul\":4044:4123   */\n      tag_259\n      tag_152\n      jump\t// in\n    tag_259:\n        /* \"#utility.yul\":4008:4125   */\n    tag_258:\n        /* \"#utility.yul\":4149:4212   */\n      tag_260\n        /* \"#utility.yul\":4204:4211   */\n      dup5\n        /* \"#utility.yul\":4195:4201   */\n      dup3\n        /* \"#utility.yul\":4184:4193   */\n      dup6\n        /* \"#utility.yul\":4180:4202   */\n      add\n        /* \"#utility.yul\":4149:4212   */\n      tag_162\n      jump\t// in\n    tag_260:\n        /* \"#utility.yul\":4139:4212   */\n      swap2\n      pop\n        /* \"#utility.yul\":3935:4222   */\n      pop\n        /* \"#utility.yul\":3720:4229   */\n      swap3\n      swap2\n      pop\n      pop\n      jump\t// out\n        /* \"#utility.yul\":4235:4361   */\n    tag_163:\n        /* \"#utility.yul\":4272:4279   */\n      0x00\n        /* \"#utility.yul\":4312:4354   */\n      0xffffffffffffffffffffffffffffffffffffffff\n        /* \"#utility.yul\":4305:4310   */\n      dup3\n        /* \"#utility.yul\":4301:4355   */\n      and\n        /* \"#utility.yul\":4290:4355   */\n      swap1\n      pop\n        /* \"#utility.yul\":4235:4361   */\n      swap2\n      swap1\n      pop\n      jump\t// out\n        /* \"#utility.yul\":4367:4463   */\n    tag_164:\n        /* \"#utility.yul\":4404:4411   */\n      0x00\n        /* \"#utility.yul\":4433:4457   */\n      tag_263\n        /* \"#utility.yul\":4451:4456   */\n      dup3\n        /* \"#utility.yul\":4433:4457   */\n      tag_163\n      jump\t// in\n    tag_263:\n        /* \"#utility.yul\":4422:4457   */\n      swap1\n      pop\n        /* \"#utility.yul\":4367:4463   */\n      swap2\n      swap1\n      pop\n      jump\t// out\n        /* \"#utility.yul\":4469:4591   */\n    tag_165:\n        /* \"#utility.yul\":4542:4566   */\n      tag_265\n        /* \"#utility.yul\":4560:4565   */\n      dup2\n        /* \"#utility.yul\":4542:4566   */\n      tag_164\n      jump\t// in\n    tag_265:\n        /* \"#utility.yul\":4535:4540   */\n      dup2\n        /* \"#utility.yul\":4532:4567   */\n      eq\n        /* \"#utility.yul\":4522:4585   */\n      tag_266\n      jumpi\n        /* \"#utility.yul\":4581:4582   */\n      0x00\n        /* \"#utility.yul\":4578:4579   */\n      dup1\n        /* \"#utility.yul\":4571:4583   */\n      revert\n        /* \"#utility.yul\":4522:4585   */\n    tag_266:\n        /* \"#utility.yul\":4469:4591   */\n      pop\n      jump\t// out\n        /* \"#utility.yul\":4597:4736   */\n    tag_166:\n        /* \"#utility.yul\":4643:4648   */\n      0x00\n        /* \"#utility.yul\":4681:4687   */\n      dup2\n        /* \"#utility.yul\":4668:4688   */\n      calldataload\n        /* \"#utility.yul\":4659:4688   */\n      swap1\n      pop\n        /* \"#utility.yul\":4697:4730   */\n      tag_268\n        /* \"#utility.yul\":4724:4729   */\n      dup2\n        /* \"#utility.yul\":4697:4730   */\n      tag_165\n      jump\t// in\n    tag_268:\n        /* \"#utility.yul\":4597:4736   */\n      swap3\n      swap2\n      pop\n      pop\n      jump\t// out\n        /* \"#utility.yul\":4742:5071   */\n    tag_22:\n        /* \"#utility.yul\":4801:4807   */\n      0x00\n        /* \"#utility.yul\":4850:4852   */\n      0x20\n        /* \"#utility.yul\":4838:4847   */\n      dup3\n        /* \"#utility.yul\":4829:4836   */\n      dup5\n        /* \"#utility.yul\":4825:4848   */\n      sub\n        /* \"#utility.yul\":4821:4853   */\n      slt\n        /* \"#utility.yul\":4818:4937   */\n      iszero\n      tag_270\n      jumpi\n        /* \"#utility.yul\":4856:4935   */\n      tag_271\n      tag_151\n      jump\t// in\n    tag_271:\n        /* \"#utility.yul\":4818:4937   */\n    tag_270:\n        /* \"#utility.yul\":4976:4977   */\n      0x00\n        /* \"#utility.yul\":5001:5054   */\n      tag_272\n        /* \"#utility.yul\":5046:5053   */\n      dup5\n        /* \"#utility.yul\":5037:5043   */\n      dup3\n        /* \"#utility.yul\":5026:5035   */\n      dup6\n        /* \"#utility.yul\":5022:5044   */\n      add\n        /* \"#utility.yul\":5001:5054   */\n      tag_166\n      jump\t// in\n    tag_272:\n        /* \"#utility.yul\":4991:5054   */\n      swap2\n      pop\n        /* \"#utility.yul\":4947:5064   */\n      pop\n        /* \"#utility.yul\":4742:5071   */\n      swap3\n      swap2\n      pop\n      pop\n      jump\t// out\n        /* \"#utility.yul\":5077:5176   */\n    tag_167:\n        /* \"#utility.yul\":5129:5135   */\n      0x00\n        /* \"#utility.yul\":5163:5168   */\n      dup2\n        /* \"#utility.yul\":5157:5169   */\n      mload\n        /* \"#utility.yul\":5147:5169   */\n      swap1\n      pop\n        /* \"#utility.yul\":5077:5176   */\n      swap2\n      swap1\n      pop\n      jump\t// out\n        /* \"#utility.yul\":5182:5341   */\n    tag_168:\n        /* \"#utility.yul\":5256:5267   */\n      0x00\n        /* \"#utility.yul\":5290:5296   */\n      dup3\n        /* \"#utility.yul\":5285:5288   */\n      dup3\n        /* \"#utility.yul\":5278:5297   */\n      mstore\n        /* \"#utility.yul\":5330:5334   */\n      0x20\n        /* \"#utility.yul\":5325:5328   */\n      dup3\n        /* \"#utility.yul\":5321:5335   */\n      add\n        /* \"#utility.yul\":5306:5335   */\n      swap1\n      pop\n        /* \"#utility.yul\":5182:5341   */\n      swap3\n      swap2\n      pop\n      pop\n      jump\t// out\n        /* \"#utility.yul\":5347:5486   */\n    tag_169:\n        /* \"#utility.yul\":5436:5442   */\n      dup3\n        /* \"#utility.yul\":5431:5434   */\n      dup2\n        /* \"#utility.yul\":5426:5429   */\n      dup4\n        /* \"#utility.yul\":5420:5443   */\n      mcopy\n        /* \"#utility.yul\":5477:5478   */\n      0x00\n        /* \"#utility.yul\":5468:5474   */\n      dup4\n        /* \"#utility.yul\":5463:5466   */\n      dup4\n        /* \"#utility.yul\":5459:5475   */\n      add\n        /* \"#utility.yul\":5452:5479   */\n      mstore\n        /* \"#utility.yul\":5347:5486   */\n      pop\n      pop\n      pop\n      jump\t// out\n        /* \"#utility.yul\":5492:5849   */\n    tag_170:\n        /* \"#utility.yul\":5570:5573   */\n      0x00\n        /* \"#utility.yul\":5598:5637   */\n      tag_277\n        /* \"#utility.yul\":5631:5636   */\n      dup3\n        /* \"#utility.yul\":5598:5637   */\n      tag_167\n      jump\t// in\n    tag_277:\n        /* \"#utility.yul\":5653:5714   */\n      tag_278\n        /* \"#utility.yul\":5707:5713   */\n      dup2\n        /* \"#utility.yul\":5702:5705   */\n      dup6\n        /* \"#utility.yul\":5653:5714   */\n      tag_168\n      jump\t// in\n    tag_278:\n        /* \"#utility.yul\":5646:5714   */\n      swap4\n      pop\n        /* \"#utility.yul\":5723:5788   */\n      tag_279\n        /* \"#utility.yul\":5781:5787   */\n      dup2\n        /* \"#utility.yul\":5776:5779   */\n      dup6\n        /* \"#utility.yul\":5769:5773   */\n      0x20\n        /* \"#utility.yul\":5762:5767   */\n      dup7\n        /* \"#utility.yul\":5758:5774   */\n      add\n        /* \"#utility.yul\":5723:5788   */\n      tag_169\n      jump\t// in\n    tag_279:\n        /* \"#utility.yul\":5813:5842   */\n      tag_280\n        /* \"#utility.yul\":5835:5841   */\n      dup2\n        /* \"#utility.yul\":5813:5842   */\n      tag_155\n      jump\t// in\n    tag_280:\n        /* \"#utility.yul\":5808:5811   */\n      dup5\n        /* \"#utility.yul\":5804:5843   */\n      add\n        /* \"#utility.yul\":5797:5843   */\n      swap2\n      pop\n        /* \"#utility.yul\":5574:5849   */\n      pop\n        /* \"#utility.yul\":5492:5849   */\n      swap3\n      swap2\n      pop\n      pop\n      jump\t// out\n        /* \"#utility.yul\":5921:6852   */\n    tag_171:\n        /* \"#utility.yul\":6038:6041   */\n      0x00\n        /* \"#utility.yul\":6074:6078   */\n      0x60\n        /* \"#utility.yul\":6069:6072   */\n      dup4\n        /* \"#utility.yul\":6065:6079   */\n      add\n        /* \"#utility.yul\":6161:6165   */\n      0x00\n        /* \"#utility.yul\":6154:6159   */\n      dup4\n        /* \"#utility.yul\":6150:6166   */\n      add\n        /* \"#utility.yul\":6144:6167   */\n      mload\n        /* \"#utility.yul\":6214:6217   */\n      dup5\n        /* \"#utility.yul\":6208:6212   */\n      dup3\n        /* \"#utility.yul\":6204:6218   */\n      sub\n        /* \"#utility.yul\":6197:6201   */\n      0x00\n        /* \"#utility.yul\":6192:6195   */\n      dup7\n        /* \"#utility.yul\":6188:6202   */\n      add\n        /* \"#utility.yul\":6181:6219   */\n      mstore\n        /* \"#utility.yul\":6240:6313   */\n      tag_282\n        /* \"#utility.yul\":6308:6312   */\n      dup3\n        /* \"#utility.yul\":6294:6306   */\n      dup3\n        /* \"#utility.yul\":6240:6313   */\n      tag_170\n      jump\t// in\n    tag_282:\n        /* \"#utility.yul\":6232:6313   */\n      swap2\n      pop\n        /* \"#utility.yul\":6089:6324   */\n      pop\n        /* \"#utility.yul\":6407:6411   */\n      0x20\n        /* \"#utility.yul\":6400:6405   */\n      dup4\n        /* \"#utility.yul\":6396:6412   */\n      add\n        /* \"#utility.yul\":6390:6413   */\n      mload\n        /* \"#utility.yul\":6460:6463   */\n      dup5\n        /* \"#utility.yul\":6454:6458   */\n      dup3\n        /* \"#utility.yul\":6450:6464   */\n      sub\n        /* \"#utility.yul\":6443:6447   */\n      0x20\n        /* \"#utility.yul\":6438:6441   */\n      dup7\n        /* \"#utility.yul\":6434:6448   */\n      add\n        /* \"#utility.yul\":6427:6465   */\n      mstore\n        /* \"#utility.yul\":6486:6559   */\n      tag_283\n        /* \"#utility.yul\":6554:6558   */\n      dup3\n        /* \"#utility.yul\":6540:6552   */\n      dup3\n        /* \"#utility.yul\":6486:6559   */\n      tag_170\n      jump\t// in\n    tag_283:\n        /* \"#utility.yul\":6478:6559   */\n      swap2\n      pop\n        /* \"#utility.yul\":6334:6570   */\n      pop\n        /* \"#utility.yul\":6662:6666   */\n      0x40\n        /* \"#utility.yul\":6655:6660   */\n      dup4\n        /* \"#utility.yul\":6651:6667   */\n      add\n        /* \"#utility.yul\":6645:6668   */\n      mload\n        /* \"#utility.yul\":6715:6718   */\n      dup5\n        /* \"#utility.yul\":6709:6713   */\n      dup3\n        /* \"#utility.yul\":6705:6719   */\n      sub\n        /* \"#utility.yul\":6698:6702   */\n      0x40\n        /* \"#utility.yul\":6693:6696   */\n      dup7\n        /* \"#utility.yul\":6689:6703   */\n      add\n        /* \"#utility.yul\":6682:6720   */\n      mstore\n        /* \"#utility.yul\":6741:6814   */\n      tag_284\n        /* \"#utility.yul\":6809:6813   */\n      dup3\n        /* \"#utility.yul\":6795:6807   */\n      dup3\n        /* \"#utility.yul\":6741:6814   */\n      tag_170\n      jump\t// in\n    tag_284:\n        /* \"#utility.yul\":6733:6814   */\n      swap2\n      pop\n        /* \"#utility.yul\":6580:6825   */\n      pop\n        /* \"#utility.yul\":6842:6846   */\n      dup1\n        /* \"#utility.yul\":6835:6846   */\n      swap2\n      pop\n        /* \"#utility.yul\":6043:6852   */\n      pop\n        /* \"#utility.yul\":5921:6852   */\n      swap3\n      swap2\n      pop\n      pop\n      jump\t// out\n        /* \"#utility.yul\":6858:7227   */\n    tag_25:\n        /* \"#utility.yul\":6999:7003   */\n      0x00\n        /* \"#utility.yul\":7037:7039   */\n      0x20\n        /* \"#utility.yul\":7026:7035   */\n      dup3\n        /* \"#utility.yul\":7022:7040   */\n      add\n        /* \"#utility.yul\":7014:7040   */\n      swap1\n      pop\n        /* \"#utility.yul\":7086:7095   */\n      dup2\n        /* \"#utility.yul\":7080:7084   */\n      dup2\n        /* \"#utility.yul\":7076:7096   */\n      sub\n        /* \"#utility.yul\":7072:7073   */\n      0x00\n        /* \"#utility.yul\":7061:7070   */\n      dup4\n        /* \"#utility.yul\":7057:7074   */\n      add\n        /* \"#utility.yul\":7050:7097   */\n      mstore\n        /* \"#utility.yul\":7114:7220   */\n      tag_286\n        /* \"#utility.yul\":7215:7219   */\n      dup2\n        /* \"#utility.yul\":7206:7212   */\n      dup5\n        /* \"#utility.yul\":7114:7220   */\n      tag_171\n      jump\t// in\n    tag_286:\n        /* \"#utility.yul\":7106:7220   */\n      swap1\n      pop\n        /* \"#utility.yul\":6858:7227   */\n      swap3\n      swap2\n      pop\n      pop\n      jump\t// out\n        /* \"#utility.yul\":7233:7402   */\n    tag_172:\n        /* \"#utility.yul\":7317:7328   */\n      0x00\n        /* \"#utility.yul\":7351:7357   */\n      dup3\n        /* \"#utility.yul\":7346:7349   */\n      dup3\n        /* \"#utility.yul\":7339:7358   */\n      mstore\n        /* \"#utility.yul\":7391:7395   */\n      0x20\n        /* \"#utility.yul\":7386:7389   */\n      dup3\n        /* \"#utility.yul\":7382:7396   */\n      add\n        /* \"#utility.yul\":7367:7396   */\n      swap1\n      pop\n        /* \"#utility.yul\":7233:7402   */\n      swap3\n      swap2\n      pop\n      pop\n      jump\t// out\n        /* \"#utility.yul\":7408:7785   */\n    tag_173:\n        /* \"#utility.yul\":7496:7499   */\n      0x00\n        /* \"#utility.yul\":7524:7563   */\n      tag_289\n        /* \"#utility.yul\":7557:7562   */\n      dup3\n        /* \"#utility.yul\":7524:7563   */\n      tag_167\n      jump\t// in\n    tag_289:\n        /* \"#utility.yul\":7579:7650   */\n      tag_290\n        /* \"#utility.yul\":7643:7649   */\n      dup2\n        /* \"#utility.yul\":7638:7641   */\n      dup6\n        /* \"#utility.yul\":7579:7650   */\n      tag_172\n      jump\t// in\n    tag_290:\n        /* \"#utility.yul\":7572:7650   */\n      swap4\n      pop\n        /* \"#utility.yul\":7659:7724   */\n      tag_291\n        /* \"#utility.yul\":7717:7723   */\n      dup2\n        /* \"#utility.yul\":7712:7715   */\n      dup6\n        /* \"#utility.yul\":7705:7709   */\n      0x20\n        /* \"#utility.yul\":7698:7703   */\n      dup7\n        /* \"#utility.yul\":7694:7710   */\n      add\n        /* \"#utility.yul\":7659:7724   */\n      tag_169\n      jump\t// in\n    tag_291:\n        /* \"#utility.yul\":7749:7778   */\n      tag_292\n        /* \"#utility.yul\":7771:7777   */\n      dup2\n        /* \"#utility.yul\":7749:7778   */\n      tag_155\n      jump\t// in\n    tag_292:\n        /* \"#utility.yul\":7744:7747   */\n      dup5\n        /* \"#utility.yul\":7740:7779   */\n      add\n        /* \"#utility.yul\":7733:7779   */\n      swap2\n      pop\n        /* \"#utility.yul\":7500:7785   */\n      pop\n        /* \"#utility.yul\":7408:7785   */\n      swap3\n      swap2\n      pop\n      pop\n      jump\t// out\n        /* \"#utility.yul\":7791:8104   */\n    tag_33:\n        /* \"#utility.yul\":7904:7908   */\n      0x00\n        /* \"#utility.yul\":7942:7944   */\n      0x20\n        /* \"#utility.yul\":7931:7940   */\n      dup3\n        /* \"#utility.yul\":7927:7945   */\n      add\n        /* \"#utility.yul\":7919:7945   */\n      swap1\n      pop\n        /* \"#utility.yul\":7991:8000   */\n      dup2\n        /* \"#utility.yul\":7985:7989   */\n      dup2\n        /* \"#utility.yul\":7981:8001   */\n      sub\n        /* \"#utility.yul\":7977:7978   */\n      0x00\n        /* \"#utility.yul\":7966:7975   */\n      dup4\n        /* \"#utility.yul\":7962:7979   */\n      add\n        /* \"#utility.yul\":7955:8002   */\n      mstore\n        /* \"#utility.yul\":8019:8097   */\n      tag_294\n        /* \"#utility.yul\":8092:8096   */\n      dup2\n        /* \"#utility.yul\":8083:8089   */\n      dup5\n        /* \"#utility.yul\":8019:8097   */\n      tag_173\n      jump\t// in\n    tag_294:\n        /* \"#utility.yul\":8011:8097   */\n      swap1\n      pop\n        /* \"#utility.yul\":7791:8104   */\n      swap3\n      swap2\n      pop\n      pop\n      jump\t// out\n        /* \"#utility.yul\":8110:8764   */\n    tag_36:\n        /* \"#utility.yul\":8188:8194   */\n      0x00\n        /* \"#utility.yul\":8196:8202   */\n      dup1\n        /* \"#utility.yul\":8245:8247   */\n      0x40\n        /* \"#utility.yul\":8233:8242   */\n      dup4\n        /* \"#utility.yul\":8224:8231   */\n      dup6\n        /* \"#utility.yul\":8220:8243   */\n      sub\n        /* \"#utility.yul\":8216:8248   */\n      slt\n        /* \"#utility.yul\":8213:8332   */\n      iszero\n      tag_296\n      jumpi\n        /* \"#utility.yul\":8251:8330   */\n      tag_297\n      tag_151\n      jump\t// in\n    tag_297:\n        /* \"#utility.yul\":8213:8332   */\n    tag_296:\n        /* \"#utility.yul\":8371:8372   */\n      0x00\n        /* \"#utility.yul\":8396:8449   */\n      tag_298\n        /* \"#utility.yul\":8441:8448   */\n      dup6\n        /* \"#utility.yul\":8432:8438   */\n      dup3\n        /* \"#utility.yul\":8421:8430   */\n      dup7\n        /* \"#utility.yul\":8417:8439   */\n      add\n        /* \"#utility.yul\":8396:8449   */\n      tag_166\n      jump\t// in\n    tag_298:\n        /* \"#utility.yul\":8386:8449   */\n      swap3\n      pop\n        /* \"#utility.yul\":8342:8459   */\n      pop\n        /* \"#utility.yul\":8526:8528   */\n      0x20\n        /* \"#utility.yul\":8515:8524   */\n      dup4\n        /* \"#utility.yul\":8511:8529   */\n      add\n        /* \"#utility.yul\":8498:8530   */\n      calldataload\n        /* \"#utility.yul\":8557:8575   */\n      0xffffffffffffffff\n        /* \"#utility.yul\":8549:8555   */\n      dup2\n        /* \"#utility.yul\":8546:8576   */\n      gt\n        /* \"#utility.yul\":8543:8660   */\n      iszero\n      tag_299\n      jumpi\n        /* \"#utility.yul\":8579:8658   */\n      tag_300\n      tag_152\n      jump\t// in\n    tag_300:\n        /* \"#utility.yul\":8543:8660   */\n    tag_299:\n        /* \"#utility.yul\":8684:8747   */\n      tag_301\n        /* \"#utility.yul\":8739:8746   */\n      dup6\n        /* \"#utility.yul\":8730:8736   */\n      dup3\n        /* \"#utility.yul\":8719:8728   */\n      dup7\n        /* \"#utility.yul\":8715:8737   */\n      add\n        /* \"#utility.yul\":8684:8747   */\n      tag_162\n      jump\t// in\n    tag_301:\n        /* \"#utility.yul\":8674:8747   */\n      swap2\n      pop\n        /* \"#utility.yul\":8469:8757   */\n      pop\n        /* \"#utility.yul\":8110:8764   */\n      swap3\n      pop\n      swap3\n      swap1\n      pop\n      jump\t// out\n        /* \"#utility.yul\":8770:8860   */\n    tag_174:\n        /* \"#utility.yul\":8804:8811   */\n      0x00\n        /* \"#utility.yul\":8847:8852   */\n      dup2\n        /* \"#utility.yul\":8840:8853   */\n      iszero\n        /* \"#utility.yul\":8833:8854   */\n      iszero\n        /* \"#utility.yul\":8822:8854   */\n      swap1\n      pop\n        /* \"#utility.yul\":8770:8860   */\n      swap2\n      swap1\n      pop\n      jump\t// out\n        /* \"#utility.yul\":8866:8975   */\n    tag_175:\n        /* \"#utility.yul\":8947:8968   */\n      tag_304\n        /* \"#utility.yul\":8962:8967   */\n      dup2\n        /* \"#utility.yul\":8947:8968   */\n      tag_174\n      jump\t// in\n    tag_304:\n        /* \"#utility.yul\":8942:8945   */\n      dup3\n        /* \"#utility.yul\":8935:8969   */\n      mstore\n        /* \"#utility.yul\":8866:8975   */\n      pop\n      pop\n      jump\t// out\n        /* \"#utility.yul\":8981:9191   */\n    tag_45:\n        /* \"#utility.yul\":9068:9072   */\n      0x00\n        /* \"#utility.yul\":9106:9108   */\n      0x20\n        /* \"#utility.yul\":9095:9104   */\n      dup3\n        /* \"#utility.yul\":9091:9109   */\n      add\n        /* \"#utility.yul\":9083:9109   */\n      swap1\n      pop\n        /* \"#utility.yul\":9119:9184   */\n      tag_306\n        /* \"#utility.yul\":9181:9182   */\n      0x00\n        /* \"#utility.yul\":9170:9179   */\n      dup4\n        /* \"#utility.yul\":9166:9183   */\n      add\n        /* \"#utility.yul\":9157:9163   */\n      dup5\n        /* \"#utility.yul\":9119:9184   */\n      tag_175\n      jump\t// in\n    tag_306:\n        /* \"#utility.yul\":8981:9191   */\n      swap3\n      swap2\n      pop\n      pop\n      jump\t// out\n        /* \"#utility.yul\":9197:9420   */\n    tag_176:\n        /* \"#utility.yul\":9337:9371   */\n      0x437265617465206120444944206265666f72652073657474696e67206d657461\n        /* \"#utility.yul\":9333:9334   */\n      0x00\n        /* \"#utility.yul\":9325:9331   */\n      dup3\n        /* \"#utility.yul\":9321:9335   */\n      add\n        /* \"#utility.yul\":9314:9372   */\n      mstore\n        /* \"#utility.yul\":9406:9412   */\n      0x6461746100000000000000000000000000000000000000000000000000000000\n        /* \"#utility.yul\":9401:9403   */\n      0x20\n        /* \"#utility.yul\":9393:9399   */\n      dup3\n        /* \"#utility.yul\":9389:9404   */\n      add\n        /* \"#utility.yul\":9382:9413   */\n      mstore\n        /* \"#utility.yul\":9197:9420   */\n      pop\n      jump\t// out\n        /* \"#utility.yul\":9426:9792   */\n    tag_177:\n        /* \"#utility.yul\":9568:9571   */\n      0x00\n        /* \"#utility.yul\":9589:9656   */\n      tag_309\n        /* \"#utility.yul\":9653:9655   */\n      0x24\n        /* \"#utility.yul\":9648:9651   */\n      dup4\n        /* \"#utility.yul\":9589:9656   */\n      tag_172\n      jump\t// in\n    tag_309:\n        /* \"#utility.yul\":9582:9656   */\n      swap2\n      pop\n        /* \"#utility.yul\":9665:9758   */\n      tag_310\n        /* \"#utility.yul\":9754:9757   */\n      dup3\n        /* \"#utility.yul\":9665:9758   */\n      tag_176\n      jump\t// in\n    tag_310:\n        /* \"#utility.yul\":9783:9785   */\n      0x40\n        /* \"#utility.yul\":9778:9781   */\n      dup3\n        /* \"#utility.yul\":9774:9786   */\n      add\n        /* \"#utility.yul\":9767:9786   */\n      swap1\n      pop\n        /* \"#utility.yul\":9426:9792   */\n      swap2\n      swap1\n      pop\n      jump\t// out\n        /* \"#utility.yul\":9798:10217   */\n    tag_49:\n        /* \"#utility.yul\":9964:9968   */\n      0x00\n        /* \"#utility.yul\":10002:10004   */\n      0x20\n        /* \"#utility.yul\":9991:10000   */\n      dup3\n        /* \"#utility.yul\":9987:10005   */\n      add\n        /* \"#utility.yul\":9979:10005   */\n      swap1\n      pop\n        /* \"#utility.yul\":10051:10060   */\n      dup2\n        /* \"#utility.yul\":10045:10049   */\n      dup2\n        /* \"#utility.yul\":10041:10061   */\n      sub\n        /* \"#utility.yul\":10037:10038   */\n      0x00\n        /* \"#utility.yul\":10026:10035   */\n      dup4\n        /* \"#utility.yul\":10022:10039   */\n      add\n        /* \"#utility.yul\":10015:10062   */\n      mstore\n        /* \"#utility.yul\":10079:10210   */\n      tag_312\n        /* \"#utility.yul\":10205:10209   */\n      dup2\n        /* \"#utility.yul\":10079:10210   */\n      tag_177\n      jump\t// in\n    tag_312:\n        /* \"#utility.yul\":10071:10210   */\n      swap1\n      pop\n        /* \"#utility.yul\":9798:10217   */\n      swap2\n      swap1\n      pop\n      jump\t// out\n        /* \"#utility.yul\":10223:10403   */\n    tag_178:\n        /* \"#utility.yul\":10271:10348   */\n      0x4e487b7100000000000000000000000000000000000000000000000000000000\n        /* \"#utility.yul\":10268:10269   */\n      0x00\n        /* \"#utility.yul\":10261:10349   */\n      mstore\n        /* \"#utility.yul\":10368:10372   */\n      0x22\n        /* \"#utility.yul\":10365:10366   */\n      0x04\n        /* \"#utility.yul\":10358:10373   */\n      mstore\n        /* \"#utility.yul\":10392:10396   */\n      0x24\n        /* \"#utility.yul\":10389:10390   */\n      0x00\n        /* \"#utility.yul\":10382:10397   */\n      revert\n        /* \"#utility.yul\":10409:10729   */\n    tag_77:\n        /* \"#utility.yul\":10453:10459   */\n      0x00\n        /* \"#utility.yul\":10490:10491   */\n      0x02\n        /* \"#utility.yul\":10484:10488   */\n      dup3\n        /* \"#utility.yul\":10480:10492   */\n      div\n        /* \"#utility.yul\":10470:10492   */\n      swap1\n      pop\n        /* \"#utility.yul\":10537:10538   */\n      0x01\n        /* \"#utility.yul\":10531:10535   */\n      dup3\n        /* \"#utility.yul\":10527:10539   */\n      and\n        /* \"#utility.yul\":10558:10576   */\n      dup1\n        /* \"#utility.yul\":10548:10629   */\n      tag_315\n      jumpi\n        /* \"#utility.yul\":10614:10618   */\n      0x7f\n        /* \"#utility.yul\":10606:10612   */\n      dup3\n        /* \"#utility.yul\":10602:10619   */\n      and\n        /* \"#utility.yul\":10592:10619   */\n      swap2\n      pop\n        /* \"#utility.yul\":10548:10629   */\n    tag_315:\n        /* \"#utility.yul\":10676:10678   */\n      0x20\n        /* \"#utility.yul\":10668:10674   */\n      dup3\n        /* \"#utility.yul\":10665:10679   */\n      lt\n        /* \"#utility.yul\":10645:10663   */\n      dup2\n        /* \"#utility.yul\":10642:10680   */\n      sub\n        /* \"#utility.yul\":10639:10723   */\n      tag_316\n      jumpi\n        /* \"#utility.yul\":10695:10713   */\n      tag_317\n      tag_178\n      jump\t// in\n    tag_317:\n        /* \"#utility.yul\":10639:10723   */\n    tag_316:\n        /* \"#utility.yul\":10460:10729   */\n      pop\n        /* \"#utility.yul\":10409:10729   */\n      swap2\n      swap1\n      pop\n      jump\t// out\n        /* \"#utility.yul\":10735:10876   */\n    tag_179:\n        /* \"#utility.yul\":10784:10788   */\n      0x00\n        /* \"#utility.yul\":10807:10810   */\n      dup2\n        /* \"#utility.yul\":10799:10810   */\n      swap1\n      pop\n        /* \"#utility.yul\":10830:10833   */\n      dup2\n        /* \"#utility.yul\":10827:10828   */\n      0x00\n        /* \"#utility.yul\":10820:10834   */\n      mstore\n        /* \"#utility.yul\":10864:10868   */\n      0x20\n        /* \"#utility.yul\":10861:10862   */\n      0x00\n        /* \"#utility.yul\":10851:10869   */\n      keccak256\n        /* \"#utility.yul\":10843:10869   */\n      swap1\n      pop\n        /* \"#utility.yul\":10735:10876   */\n      swap2\n      swap1\n      pop\n      jump\t// out\n        /* \"#utility.yul\":10882:10975   */\n    tag_180:\n        /* \"#utility.yul\":10919:10925   */\n      0x00\n        /* \"#utility.yul\":10966:10968   */\n      0x20\n        /* \"#utility.yul\":10961:10963   */\n      0x1f\n        /* \"#utility.yul\":10954:10959   */\n      dup4\n        /* \"#utility.yul\":10950:10964   */\n      add\n        /* \"#utility.yul\":10946:10969   */\n      div\n        /* \"#utility.yul\":10936:10969   */\n      swap1\n      pop\n        /* \"#utility.yul\":10882:10975   */\n      swap2\n      swap1\n      pop\n      jump\t// out\n        /* \"#utility.yul\":10981:11088   */\n    tag_181:\n        /* \"#utility.yul\":11025:11033   */\n      0x00\n        /* \"#utility.yul\":11075:11080   */\n      dup3\n        /* \"#utility.yul\":11069:11073   */\n      dup3\n        /* \"#utility.yul\":11065:11081   */\n      shl\n        /* \"#utility.yul\":11044:11081   */\n      swap1\n      pop\n        /* \"#utility.yul\":10981:11088   */\n      swap3\n      swap2\n      pop\n      pop\n      jump\t// out\n        /* \"#utility.yul\":11094:11487   */\n    tag_182:\n        /* \"#utility.yul\":11163:11169   */\n      0x00\n        /* \"#utility.yul\":11213:11214   */\n      0x08\n        /* \"#utility.yul\":11201:11211   */\n      dup4\n        /* \"#utility.yul\":11197:11215   */\n      mul\n        /* \"#utility.yul\":11236:11333   */\n      tag_322\n        /* \"#utility.yul\":11266:11332   */\n      0xffffffffffffffffffffffffffffffffffffffffffffffffffffffffffffffff\n        /* \"#utility.yul\":11255:11264   */\n      dup3\n        /* \"#utility.yul\":11236:11333   */\n      tag_181\n      jump\t// in\n    tag_322:\n        /* \"#utility.yul\":11354:11393   */\n      tag_323\n        /* \"#utility.yul\":11384:11392   */\n      dup7\n        /* \"#utility.yul\":11373:11382   */\n      dup4\n        /* \"#utility.yul\":11354:11393   */\n      tag_181\n      jump\t// in\n    tag_323:\n        /* \"#utility.yul\":11342:11393   */\n      swap6\n      pop\n        /* \"#utility.yul\":11426:11430   */\n      dup1\n        /* \"#utility.yul\":11422:11431   */\n      not\n        /* \"#utility.yul\":11415:11420   */\n      dup5\n        /* \"#utility.yul\":11411:11432   */\n      and\n        /* \"#utility.yul\":11402:11432   */\n      swap4\n      pop\n        /* \"#utility.yul\":11475:11479   */\n      dup1\n        /* \"#utility.yul\":11465:11473   */\n      dup7\n        /* \"#utility.yul\":11461:11480   */\n      and\n        /* \"#utility.yul\":11454:11459   */\n      dup5\n        /* \"#utility.yul\":11451:11481   */\n      or\n        /* \"#utility.yul\":11441:11481   */\n      swap3\n      pop\n        /* \"#utility.yul\":11170:11487   */\n      pop\n      pop\n        /* \"#utility.yul\":11094:11487   */\n      swap4\n      swap3\n      pop\n      pop\n      pop\n      jump\t// out\n        /* \"#utility.yul\":11493:11570   */\n    tag_183:\n        /* \"#utility.yul\":11530:11537   */\n      0x00\n        /* \"#utility.yul\":11559:11564   */\n      dup2\n        /* \"#utility.yul\":11548:11564   */\n      swap1\n      pop\n        /* \"#utility.yul\":11493:11570   */\n      swap2\n      swap1\n      pop\n      jump\t// out\n        /* \"#utility.yul\":11576:11636   */\n    tag_184:\n        /* \"#utility.yul\":11604:11607   */\n      0x00\n        /* \"#utility.yul\":11625:11630   */\n      dup2\n        /* \"#utility.yul\":11618:11630   */\n      swap1\n      pop\n        /* \"#utility.yul\":11576:11636   */\n      swap2\n      swap1\n      pop\n      jump\t// out\n        /* \"#utility.yul\":11642:11784   */\n    tag_185:\n        /* \"#utility.yul\":11692:11701   */\n      0x00\n        /* \"#utility.yul\":11725:11778   */\n      tag_327\n        /* \"#utility.yul\":11743:11777   */\n      tag_328\n        /* \"#utility.yul\":11752:11776   */\n      tag_329\n        /* \"#utility.yul\":11770:11775   */\n      dup5\n        /* \"#utility.yul\":11752:11776   */\n      tag_183\n      jump\t// in\n    tag_329:\n        /* \"#utility.yul\":11743:11777   */\n      tag_184\n      jump\t// in\n    tag_328:\n        /* \"#utility.yul\":11725:11778   */\n      tag_183\n      jump\t// in\n    tag_327:\n        /* \"#utility.yul\":11712:11778   */\n      swap1\n      pop\n        /* \"#utility.yul\":11642:11784   */\n      swap2\n      swap1\n      pop\n      jump\t// out\n        /* \"#utility.yul\":11790:11865   */\n    tag_186:\n        /* \"#utility.yul\":11833:11836   */\n      0x00\n        /* \"#utility.yul\":11854:11859   */\n      dup2\n        /* \"#utility.yul\":11847:11859   */\n      swap1\n      pop\n        /* \"#utility.yul\":11790:11865   */\n      swap2\n      swap1\n      pop\n      jump\t// out\n        /* \"#utility.yul\":11871:12140   */\n    tag_187:\n        /* \"#utility.yul\":11981:12020   */\n      tag_332\n        /* \"#utility.yul\":12012:12019   */\n      dup4\n        /* \"#utility.yul\":11981:12020   */\n      tag_185\n      jump\t// in\n    tag_332:\n        /* \"#utility.yul\":12042:12133   */\n      tag_333\n        /* \"#utility.yul\":12091:12132   */\n      tag_334\n        /* \"#utility.yul\":12115:12131   */\n      dup3\n        /* \"#utility.yul\":12091:12132   */\n      tag_186\n      jump\t// in\n    tag_334:\n        /* \"#utility.yul\":12083:12089   */\n      dup5\n        /* \"#utility.yul\":12076:12080   */\n      dup5\n        /* \"#utility.yul\":12070:12081   */\n      sload\n        /* \"#utility.yul\":12042:12133   */\n      tag_182\n      jump\t// in\n    tag_333:\n        /* \"#utility.yul\":12036:12040   */\n      dup3\n        /* \"#utility.yul\":12029:12134   */\n      sstore\n        /* \"#utility.yul\":11947:12140   */\n      pop\n        /* \"#utility.yul\":11871:12140   */\n      pop\n      pop\n      pop\n      jump\t// out\n        /* \"#utility.yul\":12146:12219   */\n    tag_188:\n        /* \"#utility.yul\":12191:12194   */\n      0x00\n        /* \"#utility.yul\":12146:12219   */\n      swap1\n      jump\t// out\n        /* \"#utility.yul\":12225:12414   */\n    tag_189:\n        /* \"#utility.yul\":12302:12334   */\n      tag_337\n      tag_188\n      jump\t// in\n    tag_337:\n        /* \"#utility.yul\":12343:12408   */\n      tag_338\n        /* \"#utility.yul\":12401:12407   */\n      dup2\n        /* \"#utility.yul\":12393:12399   */\n      dup5\n        /* \"#utility.yul\":12387:12391   */\n      dup5\n        /* \"#utility.yul\":12343:12408   */\n      tag_187\n      jump\t// in\n    tag_338:\n        /* \"#utility.yul\":12278:12414   */\n      pop\n        /* \"#utility.yul\":12225:12414   */\n      pop\n      pop\n      jump\t// out\n        /* \"#utility.yul\":12420:12606   */\n    tag_190:\n        /* \"#utility.yul\":12480:12600   */\n    tag_340:\n        /* \"#utility.yul\":12497:12500   */\n      dup2\n        /* \"#utility.yul\":12490:12495   */\n      dup2\n        /* \"#utility.yul\":12487:12501   */\n      lt\n        /* \"#utility.yul\":12480:12600   */\n      iszero\n      tag_342\n      jumpi\n        /* \"#utility.yul\":12551:12590   */\n      tag_343\n        /* \"#utility.yul\":12588:12589   */\n      0x00\n        /* \"#utility.yul\":12581:12586   */\n      dup3\n        /* \"#utility.yul\":12551:12590   */\n      tag_189\n      jump\t// in\n    tag_343:\n        /* \"#utility.yul\":12524:12525   */\n      0x01\n        /* \"#utility.yul\":12517:12522   */\n      dup2\n        /* \"#utility.yul\":12513:12526   */\n      add\n        /* \"#utility.yul\":12504:12526   */\n      swap1\n      pop\n        /* \"#utility.yul\":12480:12600   */\n      jump(tag_340)\n    tag_342:\n        /* \"#utility.yul\":12420:12606   */\n      pop\n      pop\n      jump\t// out\n        /* \"#utility.yul\":12612:13155   */\n    tag_191:\n        /* \"#utility.yul\":12713:12715   */\n      0x1f\n        /* \"#utility.yul\":12708:12711   */\n      dup3\n        /* \"#utility.yul\":12705:12716   */\n      gt\n        /* \"#utility.yul\":12702:13148   */\n      iszero\n      tag_345\n      jumpi\n        /* \"#utility.yul\":12747:12785   */\n      tag_346\n        /* \"#utility.yul\":12779:12784   */\n      dup2\n        /* \"#utility.yul\":12747:12785   */\n      tag_179\n      jump\t// in\n    tag_346:\n        /* \"#utility.yul\":12831:12860   */\n      tag_347\n        /* \"#utility.yul\":12849:12859   */\n      dup5\n        /* \"#utility.yul\":12831:12860   */\n      tag_180\n      jump\t// in\n    tag_347:\n        /* \"#utility.yul\":12821:12829   */\n      dup2\n        /* \"#utility.yul\":12817:12861   */\n      add\n        /* \"#utility.yul\":13014:13016   */\n      0x20\n        /* \"#utility.yul\":13002:13012   */\n      dup6\n        /* \"#utility.yul\":12999:13017   */\n      lt\n        /* \"#utility.yul\":12996:13045   */\n      iszero\n      tag_348\n      jumpi\n        /* \"#utility.yul\":13035:13043   */\n      dup2\n        /* \"#utility.yul\":13020:13043   */\n      swap1\n      pop\n        /* \"#utility.yul\":12996:13045   */\n    tag_348:\n        /* \"#utility.yul\":13058:13138   */\n      tag_349\n        /* \"#utility.yul\":13114:13136   */\n      tag_350\n        /* \"#utility.yul\":13132:13135   */\n      dup6\n        /* \"#utility.yul\":13114:13136   */\n      tag_180\n      jump\t// in\n    tag_350:\n        /* \"#utility.yul\":13104:13112   */\n      dup4\n        /* \"#utility.yul\":13100:13137   */\n      add\n        /* \"#utility.yul\":13087:13098   */\n      dup3\n        /* \"#utility.yul\":13058:13138   */\n      tag_190\n      jump\t// in\n    tag_349:\n        /* \"#utility.yul\":12717:13148   */\n      pop\n      pop\n        /* \"#utility.yul\":12702:13148   */\n    tag_345:\n        /* \"#utility.yul\":12612:13155   */\n      pop\n      pop\n      pop\n      jump\t// out\n        /* \"#utility.yul\":13161:13278   */\n    tag_192:\n        /* \"#utility.yul\":13215:13223   */\n      0x00\n        /* \"#utility.yul\":13265:13270   */\n      dup3\n        /* \"#utility.yul\":13259:13263   */\n      dup3\n        /* \"#utility.yul\":13255:13271   */\n      shr\n        /* \"#utility.yul\":13234:13271   */\n      swap1\n      pop\n        /* \"#utility.yul\":13161:13278   */\n      swap3\n      swap2\n      pop\n      pop\n      jump\t// out\n        /* \"#utility.yul\":13284:13453   */\n    tag_193:\n        /* \"#utility.yul\":13328:13334   */\n      0x00\n        /* \"#utility.yul\":13361:13412   */\n      tag_353\n        /* \"#utility.yul\":13409:13410   */\n      0x00\n        /* \"#utility.yul\":13405:13411   */\n      not\n        /* \"#utility.yul\":13397:13402   */\n      dup5\n        /* \"#utility.yul\":13394:13395   */\n      0x08\n        /* \"#utility.yul\":13390:13403   */\n      mul\n        /* \"#utility.yul\":13361:13412   */\n      tag_192\n      jump\t// in\n    tag_353:\n        /* \"#utility.yul\":13357:13413   */\n      not\n        /* \"#utility.yul\":13442:13446   */\n      dup1\n        /* \"#utility.yul\":13436:13440   */\n      dup4\n        /* \"#utility.yul\":13432:13447   */\n      and\n        /* \"#utility.yul\":13422:13447   */\n      swap2\n      pop\n        /* \"#utility.yul\":13335:13453   */\n      pop\n        /* \"#utility.yul\":13284:13453   */\n      swap3\n      swap2\n      pop\n      pop\n      jump\t// out\n        /* \"#utility.yul\":13458:13753   */\n    tag_194:\n        /* \"#utility.yul\":13534:13538   */\n      0x00\n        /* \"#utility.yul\":13680:13709   */\n      tag_355\n        /* \"#utility.yul\":13705:13708   */\n      dup4\n        /* \"#utility.yul\":13699:13703   */\n      dup4\n        /* \"#utility.yul\":13680:13709   */\n      tag_193\n      jump\t// in\n    tag_355:\n        /* \"#utility.yul\":13672:13709   */\n      swap2\n      pop\n        /* \"#utility.yul\":13742:13745   */\n      dup3\n        /* \"#utility.yul\":13739:13740   */\n      0x02\n        /* \"#utility.yul\":13735:13746   */\n      mul\n        /* \"#utility.yul\":13729:13733   */\n      dup3\n        /* \"#utility.yul\":13726:13747   */\n      or\n        /* \"#utility.yul\":13718:13747   */\n      swap1\n      pop\n        /* \"#utility.yul\":13458:13753   */\n      swap3\n      swap2\n      pop\n      pop\n      jump\t// out\n        /* \"#utility.yul\":13758:15153   */\n    tag_51:\n        /* \"#utility.yul\":13875:13912   */\n      tag_357\n        /* \"#utility.yul\":13908:13911   */\n      dup3\n        /* \"#utility.yul\":13875:13912   */\n      tag_167\n      jump\t// in\n    tag_357:\n        /* \"#utility.yul\":13977:13995   */\n      0xffffffffffffffff\n        /* \"#utility.yul\":13969:13975   */\n      dup2\n        /* \"#utility.yul\":13966:13996   */\n      gt\n        /* \"#utility.yul\":13963:14019   */\n      iszero\n      tag_358\n      jumpi\n        /* \"#utility.yul\":13999:14017   */\n      tag_359\n      tag_156\n      jump\t// in\n    tag_359:\n        /* \"#utility.yul\":13963:14019   */\n    tag_358:\n        /* \"#utility.yul\":14043:14081   */\n      tag_360\n        /* \"#utility.yul\":14075:14079   */\n      dup3\n        /* \"#utility.yul\":14069:14080   */\n      sload\n        /* \"#utility.yul\":14043:14081   */\n      tag_77\n      jump\t// in\n    tag_360:\n        /* \"#utility.yul\":14128:14195   */\n      tag_361\n        /* \"#utility.yul\":14188:14194   */\n      dup3\n        /* \"#utility.yul\":14180:14186   */\n      dup3\n        /* \"#utility.yul\":14174:14178   */\n      dup6\n        /* \"#utility.yul\":14128:14195   */\n      tag_191\n      jump\t// in\n    tag_361:\n        /* \"#utility.yul\":14222:14223   */\n      0x00\n        /* \"#utility.yul\":14246:14250   */\n      0x20\n        /* \"#utility.yul\":14233:14250   */\n      swap1\n      pop\n        /* \"#utility.yul\":14278:14280   */\n      0x1f\n        /* \"#utility.yul\":14270:14276   */\n      dup4\n        /* \"#utility.yul\":14267:14281   */\n      gt\n        /* \"#utility.yul\":14295:14296   */\n      0x01\n        /* \"#utility.yul\":14290:14908   */\n      dup2\n      eq\n      tag_363\n      jumpi\n        /* \"#utility.yul\":14952:14953   */\n      0x00\n        /* \"#utility.yul\":14969:14975   */\n      dup5\n        /* \"#utility.yul\":14966:15043   */\n      iszero\n      tag_364\n      jumpi\n        /* \"#utility.yul\":15018:15027   */\n      dup3\n        /* \"#utility.yul\":15013:15016   */\n      dup8\n        /* \"#utility.yul\":15009:15028   */\n      add\n        /* \"#utility.yul\":15003:15029   */\n      mload\n        /* \"#utility.yul\":14994:15029   */\n      swap1\n      pop\n        /* \"#utility.yul\":14966:15043   */\n    tag_364:\n        /* \"#utility.yul\":15069:15136   */\n      tag_365\n        /* \"#utility.yul\":15129:15135   */\n      dup6\n        /* \"#utility.yul\":15122:15127   */\n      dup3\n        /* \"#utility.yul\":15069:15136   */\n      tag_194\n      jump\t// in\n    tag_365:\n        /* \"#utility.yul\":15063:15067   */\n      dup7\n        /* \"#utility.yul\":15056:15137   */\n      sstore\n        /* \"#utility.yul\":14925:15147   */\n      pop\n        /* \"#utility.yul\":14260:15147   */\n      jump(tag_362)\n        /* \"#utility.yul\":14290:14908   */\n    tag_363:\n        /* \"#utility.yul\":14342:14346   */\n      0x1f\n        /* \"#utility.yul\":14338:14347   */\n      not\n        /* \"#utility.yul\":14330:14336   */\n      dup5\n        /* \"#utility.yul\":14326:14348   */\n      and\n        /* \"#utility.yul\":14376:14413   */\n      tag_366\n        /* \"#utility.yul\":14408:14412   */\n      dup7\n        /* \"#utility.yul\":14376:14413   */\n      tag_179\n      jump\t// in\n    tag_366:\n        /* \"#utility.yul\":14435:14436   */\n      0x00\n        /* \"#utility.yul\":14449:14657   */\n    tag_367:\n        /* \"#utility.yul\":14463:14470   */\n      dup3\n        /* \"#utility.yul\":14460:14461   */\n      dup2\n        /* \"#utility.yul\":14457:14471   */\n      lt\n        /* \"#utility.yul\":14449:14657   */\n      iszero\n      tag_369\n      jumpi\n        /* \"#utility.yul\":14542:14551   */\n      dup5\n        /* \"#utility.yul\":14537:14540   */\n      dup10\n        /* \"#utility.yul\":14533:14552   */\n      add\n        /* \"#utility.yul\":14527:14553   */\n      mload\n        /* \"#utility.yul\":14519:14525   */\n      dup3\n        /* \"#utility.yul\":14512:14554   */\n      sstore\n        /* \"#utility.yul\":14593:14594   */\n      0x01\n        /* \"#utility.yul\":14585:14591   */\n      dup3\n        /* \"#utility.yul\":14581:14595   */\n      add\n        /* \"#utility.yul\":14571:14595   */\n      swap2\n      pop\n        /* \"#utility.yul\":14640:14642   */\n      0x20\n        /* \"#utility.yul\":14629:14638   */\n      dup6\n        /* \"#utility.yul\":14625:14643   */\n      add\n        /* \"#utility.yul\":14612:14643   */\n      swap5\n      pop\n        /* \"#utility.yul\":14486:14490   */\n      0x20\n        /* \"#utility.yul\":14483:14484   */\n      dup2\n        /* \"#utility.yul\":14479:14491   */\n      add\n        /* \"#utility.yul\":14474:14491   */\n      swap1\n      pop\n        /* \"#utility.yul\":14449:14657   */\n      jump(tag_367)\n    tag_369:\n        /* \"#utility.yul\":14685:14691   */\n      dup7\n        /* \"#utility.yul\":14676:14683   */\n      dup4\n        /* \"#utility.yul\":14673:14692   */\n      lt\n        /* \"#utility.yul\":14670:14849   */\n      iszero\n      tag_370\n      jumpi\n        /* \"#utility.yul\":14743:14752   */\n      dup5\n        /* \"#utility.yul\":14738:14741   */\n      dup10\n        /* \"#utility.yul\":14734:14753   */\n      add\n        /* \"#utility.yul\":14728:14754   */\n      mload\n        /* \"#utility.yul\":14786:14834   */\n      tag_371\n        /* \"#utility.yul\":14828:14832   */\n      0x1f\n        /* \"#utility.yul\":14820:14826   */\n      dup10\n        /* \"#utility.yul\":14816:14833   */\n      and\n        /* \"#utility.yul\":14805:14814   */\n      dup3\n        /* \"#utility.yul\":14786:14834   */\n      tag_193\n      jump\t// in\n    tag_371:\n        /* \"#utility.yul\":14778:14784   */\n      dup4\n        /* \"#utility.yul\":14771:14835   */\n      sstore\n        /* \"#utility.yul\":14693:14849   */\n      pop\n        /* \"#utility.yul\":14670:14849   */\n    tag_370:\n        /* \"#utility.yul\":14895:14896   */\n      0x01\n        /* \"#utility.yul\":14891:14892   */\n      0x02\n        /* \"#utility.yul\":14883:14889   */\n      dup9\n        /* \"#utility.yul\":14879:14893   */\n      mul\n        /* \"#utility.yul\":14875:14897   */\n      add\n        /* \"#utility.yul\":14869:14873   */\n      dup9\n        /* \"#utility.yul\":14862:14898   */\n      sstore\n        /* \"#utility.yul\":14297:14908   */\n      pop\n      pop\n      pop\n        /* \"#utility.yul\":14260:15147   */\n    tag_362:\n      pop\n        /* \"#utility.yul\":13850:15153   */\n      pop\n      pop\n      pop\n        /* \"#utility.yul\":13758:15153   */\n      pop\n      pop\n      jump\t// out\n        /* \"#utility.yul\":15159:15874   */\n    tag_55:\n        /* \"#utility.yul\":15368:15372   */\n      0x00\n        /* \"#utility.yul\":15406:15408   */\n      0x60\n        /* \"#utility.yul\":15395:15404   */\n      dup3\n        /* \"#utility.yul\":15391:15409   */\n      add\n        /* \"#utility.yul\":15383:15409   */\n      swap1\n      pop\n        /* \"#utility.yul\":15455:15464   */\n      dup2\n        /* \"#utility.yul\":15449:15453   */\n      dup2\n        /* \"#utility.yul\":15445:15465   */\n      sub\n        /* \"#utility.yul\":15441:15442   */\n      0x00\n        /* \"#utility.yul\":15430:15439   */\n      dup4\n        /* \"#utility.yul\":15426:15443   */\n      add\n        /* \"#utility.yul\":15419:15466   */\n      mstore\n        /* \"#utility.yul\":15483:15561   */\n      tag_373\n        /* \"#utility.yul\":15556:15560   */\n      dup2\n        /* \"#utility.yul\":15547:15553   */\n      dup7\n        /* \"#utility.yul\":15483:15561   */\n      tag_173\n      jump\t// in\n    tag_373:\n        /* \"#utility.yul\":15475:15561   */\n      swap1\n      pop\n        /* \"#utility.yul\":15608:15617   */\n      dup2\n        /* \"#utility.yul\":15602:15606   */\n      dup2\n        /* \"#utility.yul\":15598:15618   */\n      sub\n        /* \"#utility.yul\":15593:15595   */\n      0x20\n        /* \"#utility.yul\":15582:15591   */\n      dup4\n        /* \"#utility.yul\":15578:15596   */\n      add\n        /* \"#utility.yul\":15571:15619   */\n      mstore\n        /* \"#utility.yul\":15636:15714   */\n      tag_374\n        /* \"#utility.yul\":15709:15713   */\n      dup2\n        /* \"#utility.yul\":15700:15706   */\n      dup6\n        /* \"#utility.yul\":15636:15714   */\n      tag_173\n      jump\t// in\n    tag_374:\n        /* \"#utility.yul\":15628:15714   */\n      swap1\n      pop\n        /* \"#utility.yul\":15761:15770   */\n      dup2\n        /* \"#utility.yul\":15755:15759   */\n      dup2\n        /* \"#utility.yul\":15751:15771   */\n      sub\n        /* \"#utility.yul\":15746:15748   */\n      0x40\n        /* \"#utility.yul\":15735:15744   */\n      dup4\n        /* \"#utility.yul\":15731:15749   */\n      add\n        /* \"#utility.yul\":15724:15772   */\n      mstore\n        /* \"#utility.yul\":15789:15867   */\n      tag_375\n        /* \"#utility.yul\":15862:15866   */\n      dup2\n        /* \"#utility.yul\":15853:15859   */\n      dup5\n        /* \"#utility.yul\":15789:15867   */\n      tag_173\n      jump\t// in\n    tag_375:\n        /* \"#utility.yul\":15781:15867   */\n      swap1\n      pop\n        /* \"#utility.yul\":15159:15874   */\n      swap5\n      swap4\n      pop\n      pop\n      pop\n      pop\n      jump\t// out\n        /* \"#utility.yul\":15880:16060   */\n    tag_195:\n        /* \"#utility.yul\":16020:16052   */\n      0x4e6577206964656e7469666965722063616e6e6f7420626520656d7074790000\n        /* \"#utility.yul\":16016:16017   */\n      0x00\n        /* \"#utility.yul\":16008:16014   */\n      dup3\n        /* \"#utility.yul\":16004:16018   */\n      add\n        /* \"#utility.yul\":15997:16053   */\n      mstore\n        /* \"#utility.yul\":15880:16060   */\n      pop\n      jump\t// out\n        /* \"#utility.yul\":16066:16432   */\n    tag_196:\n        /* \"#utility.yul\":16208:16211   */\n      0x00\n        /* \"#utility.yul\":16229:16296   */\n      tag_378\n        /* \"#utility.yul\":16293:16295   */\n      0x1e\n        /* \"#utility.yul\":16288:16291   */\n      dup4\n        /* \"#utility.yul\":16229:16296   */\n      tag_172\n      jump\t// in\n    tag_378:\n        /* \"#utility.yul\":16222:16296   */\n      swap2\n      pop\n        /* \"#utility.yul\":16305:16398   */\n      tag_379\n        /* \"#utility.yul\":16394:16397   */\n      dup3\n        /* \"#utility.yul\":16305:16398   */\n      tag_195\n      jump\t// in\n    tag_379:\n        /* \"#utility.yul\":16423:16425   */\n      0x20\n        /* \"#utility.yul\":16418:16421   */\n      dup3\n        /* \"#utility.yul\":16414:16426   */\n      add\n        /* \"#utility.yul\":16407:16426   */\n      swap1\n      pop\n        /* \"#utility.yul\":16066:16432   */\n      swap2\n      swap1\n      pop\n      jump\t// out\n        /* \"#utility.yul\":16438:16857   */\n    tag_59:\n        /* \"#utility.yul\":16604:16608   */\n      0x00\n        /* \"#utility.yul\":16642:16644   */\n      0x20\n        /* \"#utility.yul\":16631:16640   */\n      dup3\n        /* \"#utility.yul\":16627:16645   */\n      add\n        /* \"#utility.yul\":16619:16645   */\n      swap1\n      pop\n        /* \"#utility.yul\":16691:16700   */\n      dup2\n        /* \"#utility.yul\":16685:16689   */\n      dup2\n        /* \"#utility.yul\":16681:16701   */\n      sub\n        /* \"#utility.yul\":16677:16678   */\n      0x00\n        /* \"#utility.yul\":16666:16675   */\n      dup4\n        /* \"#utility.yul\":16662:16679   */\n      add\n        /* \"#utility.yul\":16655:16702   */\n      mstore\n        /* \"#utility.yul\":16719:16850   */\n      tag_381\n        /* \"#utility.yul\":16845:16849   */\n      dup2\n        /* \"#utility.yul\":16719:16850   */\n      tag_196\n      jump\t// in\n    tag_381:\n        /* \"#utility.yul\":16711:16850   */\n      swap1\n      pop\n        /* \"#utility.yul\":16438:16857   */\n      swap2\n      swap1\n      pop\n      jump\t// out\n        /* \"#utility.yul\":16863:17042   */\n    tag_197:\n        /* \"#utility.yul\":17003:17034   */\n      0x4e6f2044494420666f756e6420666f7220746869732061646472657373000000\n        /* \"#utility.yul\":16999:17000   */\n      0x00\n        /* \"#utility.yul\":16991:16997   */\n      dup3\n        /* \"#utility.yul\":16987:17001   */\n      add\n        /* \"#utility.yul\":16980:17035   */\n      mstore\n        /* \"#utility.yul\":16863:17042   */\n      pop\n      jump\t// out\n        /* \"#utility.yul\":17048:17414   */\n    tag_198:\n        /* \"#utility.yul\":17190:17193   */\n      0x00\n        /* \"#utility.yul\":17211:17278   */\n      tag_384\n        /* \"#utility.yul\":17275:17277   */\n      0x1d\n        /* \"#utility.yul\":17270:17273   */\n      dup4\n        /* \"#utility.yul\":17211:17278   */\n      tag_172\n      jump\t// in\n    tag_384:\n        /* \"#utility.yul\":17204:17278   */\n      swap2\n      pop\n        /* \"#utility.yul\":17287:17380   */\n      tag_385\n        /* \"#utility.yul\":17376:17379   */\n      dup3\n        /* \"#utility.yul\":17287:17380   */\n      tag_197\n      jump\t// in\n    tag_385:\n        /* \"#utility.yul\":17405:17407   */\n      0x20\n        /* \"#utility.yul\":17400:17403   */\n      dup3\n        /* \"#utility.yul\":17396:17408   */\n      add\n        /* \"#utility.yul\":17389:17408   */\n      swap1\n      pop\n        /* \"#utility.yul\":17048:17414   */\n      swap2\n      swap1\n      pop\n      jump\t// out\n        /* \"#utility.yul\":17420:17839   */\n    tag_62:\n        /* \"#utility.yul\":17586:17590   */\n      0x00\n        /* \"#utility.yul\":17624:17626   */\n      0x20\n        /* \"#utility.yul\":17613:17622   */\n      dup3\n        /* \"#utility.yul\":17609:17627   */\n      add\n        /* \"#utility.yul\":17601:17627   */\n      swap1\n      pop\n        /* \"#utility.yul\":17673:17682   */\n      dup2\n        /* \"#utility.yul\":17667:17671   */\n      dup2\n        /* \"#utility.yul\":17663:17683   */\n      sub\n        /* \"#utility.yul\":17659:17660   */\n      0x00\n        /* \"#utility.yul\":17648:17657   */\n      dup4\n        /* \"#utility.yul\":17644:17661   */\n      add\n        /* \"#utility.yul\":17637:17684   */\n      mstore\n        /* \"#utility.yul\":17701:17832   */\n      tag_387\n        /* \"#utility.yul\":17827:17831   */\n      dup2\n        /* \"#utility.yul\":17701:17832   */\n      tag_198\n      jump\t// in\n    tag_387:\n        /* \"#utility.yul\":17693:17832   */\n      swap1\n      pop\n        /* \"#utility.yul\":17420:17839   */\n      swap2\n      swap1\n      pop\n      jump\t// out\n        /* \"#utility.yul\":17845:18086   */\n    tag_199:\n        /* \"#utility.yul\":17985:18019   */\n      0x4e6577206964656e746966696572206d757374206e6f74206265207468652073\n        /* \"#utility.yul\":17981:17982   */\n      0x00\n        /* \"#utility.yul\":17973:17979   */\n      dup3\n        /* \"#utility.yul\":17969:17983   */\n      add\n        /* \"#utility.yul\":17962:18020   */\n      mstore\n        /* \"#utility.yul\":18054:18078   */\n      0x616d65206173207468652063757272656e74206f6e6500000000000000000000\n        /* \"#utility.yul\":18049:18051   */\n      0x20\n        /* \"#utility.yul\":18041:18047   */\n      dup3\n        /* \"#utility.yul\":18037:18052   */\n      add\n        /* \"#utility.yul\":18030:18079   */\n      mstore\n        /* \"#utility.yul\":17845:18086   */\n      pop\n      jump\t// out\n        /* \"#utility.yul\":18092:18458   */\n    tag_200:\n        /* \"#utility.yul\":18234:18237   */\n      0x00\n        /* \"#utility.yul\":18255:18322   */\n      tag_390\n        /* \"#utility.yul\":18319:18321   */\n      0x36\n        /* \"#utility.yul\":18314:18317   */\n      dup4\n        /* \"#utility.yul\":18255:18322   */\n      tag_172\n      jump\t// in\n    tag_390:\n        /* \"#utility.yul\":18248:18322   */\n      swap2\n      pop\n        /* \"#utility.yul\":18331:18424   */\n      tag_391\n        /* \"#utility.yul\":18420:18423   */\n      dup3\n        /* \"#utility.yul\":18331:18424   */\n      tag_199\n      jump\t// in\n    tag_391:\n        /* \"#utility.yul\":18449:18451   */\n      0x40\n        /* \"#utility.yul\":18444:18447   */\n      dup3\n        /* \"#utility.yul\":18440:18452   */\n      add\n        /* \"#utility.yul\":18433:18452   */\n      swap1\n      pop\n        /* \"#utility.yul\":18092:18458   */\n      swap2\n      swap1\n      pop\n      jump\t// out\n        /* \"#utility.yul\":18464:18883   */\n    tag_66:\n        /* \"#utility.yul\":18630:18634   */\n      0x00\n        /* \"#utility.yul\":18668:18670   */\n      0x20\n        /* \"#utility.yul\":18657:18666   */\n      dup3\n        /* \"#utility.yul\":18653:18671   */\n      add\n        /* \"#utility.yul\":18645:18671   */\n      swap1\n      pop\n        /* \"#utility.yul\":18717:18726   */\n      dup2\n        /* \"#utility.yul\":18711:18715   */\n      dup2\n        /* \"#utility.yul\":18707:18727   */\n      sub\n        /* \"#utility.yul\":18703:18704   */\n      0x00\n        /* \"#utility.yul\":18692:18701   */\n      dup4\n        /* \"#utility.yul\":18688:18705   */\n      add\n        /* \"#utility.yul\":18681:18728   */\n      mstore\n        /* \"#utility.yul\":18745:18876   */\n      tag_393\n        /* \"#utility.yul\":18871:18875   */\n      dup2\n        /* \"#utility.yul\":18745:18876   */\n      tag_200\n      jump\t// in\n    tag_393:\n        /* \"#utility.yul\":18737:18876   */\n      swap1\n      pop\n        /* \"#utility.yul\":18464:18883   */\n      swap2\n      swap1\n      pop\n      jump\t// out\n        /* \"#utility.yul\":18889:19403   */\n    tag_69:\n        /* \"#utility.yul\":19050:19054   */\n      0x00\n        /* \"#utility.yul\":19088:19090   */\n      0x40\n        /* \"#utility.yul\":19077:19086   */\n      dup3\n        /* \"#utility.yul\":19073:19091   */\n      add\n        /* \"#utility.yul\":19065:19091   */\n      swap1\n      pop\n        /* \"#utility.yul\":19137:19146   */\n      dup2\n        /* \"#utility.yul\":19131:19135   */\n      dup2\n        /* \"#utility.yul\":19127:19147   */\n      sub\n        /* \"#utility.yul\":19123:19124   */\n      0x00\n        /* \"#utility.yul\":19112:19121   */\n      dup4\n        /* \"#utility.yul\":19108:19125   */\n      add\n        /* \"#utility.yul\":19101:19148   */\n      mstore\n        /* \"#utility.yul\":19165:19243   */\n      tag_395\n        /* \"#utility.yul\":19238:19242   */\n      dup2\n        /* \"#utility.yul\":19229:19235   */\n      dup6\n        /* \"#utility.yul\":19165:19243   */\n      tag_173\n      jump\t// in\n    tag_395:\n        /* \"#utility.yul\":19157:19243   */\n      swap1\n      pop\n        /* \"#utility.yul\":19290:19299   */\n      dup2\n        /* \"#utility.yul\":19284:19288   */\n      dup2\n        /* \"#utility.yul\":19280:19300   */\n      sub\n        /* \"#utility.yul\":19275:19277   */\n      0x20\n        /* \"#utility.yul\":19264:19273   */\n      dup4\n        /* \"#utility.yul\":19260:19278   */\n      add\n        /* \"#utility.yul\":19253:19301   */\n      mstore\n        /* \"#utility.yul\":19318:19396   */\n      tag_396\n        /* \"#utility.yul\":19391:19395   */\n      dup2\n        /* \"#utility.yul\":19382:19388   */\n      dup5\n        /* \"#utility.yul\":19318:19396   */\n      tag_173\n      jump\t// in\n    tag_396:\n        /* \"#utility.yul\":19310:19396   */\n      swap1\n      pop\n        /* \"#utility.yul\":18889:19403   */\n      swap4\n      swap3\n      pop\n      pop\n      pop\n      jump\t// out\n        /* \"#utility.yul\":19409:19590   */\n    tag_201:\n        /* \"#utility.yul\":19549:19582   */\n      0x4e6f206d6574616461746120666f756e6420666f722074686973207573657200\n        /* \"#utility.yul\":19545:19546   */\n      0x00\n        /* \"#utility.yul\":19537:19543   */\n      dup3\n        /* \"#utility.yul\":19533:19547   */\n      add\n        /* \"#utility.yul\":19526:19583   */\n      mstore\n        /* \"#utility.yul\":19409:19590   */\n      pop\n      jump\t// out\n        /* \"#utility.yul\":19596:19962   */\n    tag_202:\n        /* \"#utility.yul\":19738:19741   */\n      0x00\n        /* \"#utility.yul\":19759:19826   */\n      tag_399\n        /* \"#utility.yul\":19823:19825   */\n      0x1f\n        /* \"#utility.yul\":19818:19821   */\n      dup4\n        /* \"#utility.yul\":19759:19826   */\n      tag_172\n      jump\t// in\n    tag_399:\n        /* \"#utility.yul\":19752:19826   */\n      swap2\n      pop\n        /* \"#utility.yul\":19835:19928   */\n      tag_400\n        /* \"#utility.yul\":19924:19927   */\n      dup3\n        /* \"#utility.yul\":19835:19928   */\n      tag_201\n      jump\t// in\n    tag_400:\n        /* \"#utility.yul\":19953:19955   */\n      0x20\n        /* \"#utility.yul\":19948:19951   */\n      dup3\n        /* \"#utility.yul\":19944:19956   */\n      add\n        /* \"#utility.yul\":19937:19956   */\n      swap1\n      pop\n        /* \"#utility.yul\":19596:19962   */\n      swap2\n      swap1\n      pop\n      jump\t// out\n        /* \"#utility.yul\":19968:20387   */\n    tag_75:\n        /* \"#utility.yul\":20134:20138   */\n      0x00\n        /* \"#utility.yul\":20172:20174   */\n      0x20\n        /* \"#utility.yul\":20161:20170   */\n      dup3\n        /* \"#utility.yul\":20157:20175   */\n      add\n        /* \"#utility.yul\":20149:20175   */\n      swap1\n      pop\n        /* \"#utility.yul\":20221:20230   */\n      dup2\n        /* \"#utility.yul\":20215:20219   */\n      dup2\n        /* \"#utility.yul\":20211:20231   */\n      sub\n        /* \"#utility.yul\":20207:20208   */\n      0x00\n        /* \"#utility.yul\":20196:20205   */\n      dup4\n        /* \"#utility.yul\":20192:20209   */\n      add\n        /* \"#utility.yul\":20185:20232   */\n      mstore\n        /* \"#utility.yul\":20249:20380   */\n      tag_402\n        /* \"#utility.yul\":20375:20379   */\n      dup2\n        /* \"#utility.yul\":20249:20380   */\n      tag_202\n      jump\t// in\n    tag_402:\n        /* \"#utility.yul\":20241:20380   */\n      swap1\n      pop\n        /* \"#utility.yul\":19968:20387   */\n      swap2\n      swap1\n      pop\n      jump\t// out\n        /* \"#utility.yul\":20393:20569   */\n    tag_203:\n        /* \"#utility.yul\":20533:20561   */\n      0x4964656e7469666965722063616e6e6f7420626520656d707479000000000000\n        /* \"#utility.yul\":20529:20530   */\n      0x00\n        /* \"#utility.yul\":20521:20527   */\n      dup3\n        /* \"#utility.yul\":20517:20531   */\n      add\n        /* \"#utility.yul\":20510:20562   */\n      mstore\n        /* \"#utility.yul\":20393:20569   */\n      pop\n      jump\t// out\n        /* \"#utility.yul\":20575:20941   */\n    tag_204:\n        /* \"#utility.yul\":20717:20720   */\n      0x00\n        /* \"#utility.yul\":20738:20805   */\n      tag_405\n        /* \"#utility.yul\":20802:20804   */\n      0x1a\n        /* \"#utility.yul\":20797:20800   */\n      dup4\n        /* \"#utility.yul\":20738:20805   */\n      tag_172\n      jump\t// in\n    tag_405:\n        /* \"#utility.yul\":20731:20805   */\n      swap2\n      pop\n        /* \"#utility.yul\":20814:20907   */\n      tag_406\n        /* \"#utility.yul\":20903:20906   */\n      dup3\n        /* \"#utility.yul\":20814:20907   */\n      tag_203\n      jump\t// in\n    tag_406:\n        /* \"#utility.yul\":20932:20934   */\n      0x20\n        /* \"#utility.yul\":20927:20930   */\n      dup3\n        /* \"#utility.yul\":20923:20935   */\n      add\n        /* \"#utility.yul\":20916:20935   */\n      swap1\n      pop\n        /* \"#utility.yul\":20575:20941   */\n      swap2\n      swap1\n      pop\n      jump\t// out\n        /* \"#utility.yul\":20947:21366   */\n    tag_95:\n        /* \"#utility.yul\":21113:21117   */\n      0x00\n        /* \"#utility.yul\":21151:21153   */\n      0x20\n        /* \"#utility.yul\":21140:21149   */\n      dup3\n        /* \"#utility.yul\":21136:21154   */\n      add\n        /* \"#utility.yul\":21128:21154   */\n      swap1\n      pop\n        /* \"#utility.yul\":21200:21209   */\n      dup2\n        /* \"#utility.yul\":21194:21198   */\n      dup2\n        /* \"#utility.yul\":21190:21210   */\n      sub\n        /* \"#utility.yul\":21186:21187   */\n      0x00\n        /* \"#utility.yul\":21175:21184   */\n      dup4\n        /* \"#utility.yul\":21171:21188   */\n      add\n        /* \"#utility.yul\":21164:21211   */\n      mstore\n        /* \"#utility.yul\":21228:21359   */\n      tag_408\n        /* \"#utility.yul\":21354:21358   */\n      dup2\n        /* \"#utility.yul\":21228:21359   */\n      tag_204\n      jump\t// in\n    tag_408:\n        /* \"#utility.yul\":21220:21359   */\n      swap1\n      pop\n        /* \"#utility.yul\":20947:21366   */\n      swap2\n      swap1\n      pop\n      jump\t// out\n        /* \"#utility.yul\":21372:21594   */\n    tag_205:\n        /* \"#utility.yul\":21512:21546   */\n      0x44494420616c72656164792065786973747320666f7220746869732061646472\n        /* \"#utility.yul\":21508:21509   */\n      0x00\n        /* \"#utility.yul\":21500:21506   */\n      dup3\n        /* \"#utility.yul\":21496:21510   */\n      add\n        /* \"#utility.yul\":21489:21547   */\n      mstore\n        /* \"#utility.yul\":21581:21586   */\n      0x6573730000000000000000000000000000000000000000000000000000000000\n        /* \"#utility.yul\":21576:21578   */\n      0x20\n        /* \"#utility.yul\":21568:21574   */\n      dup3\n        /* \"#utility.yul\":21564:21579   */\n      add\n        /* \"#utility.yul\":21557:21587   */\n      mstore\n        /* \"#utility.yul\":21372:21594   */\n      pop\n      jump\t// out\n        /* \"#utility.yul\":21600:21966   */\n    tag_206:\n        /* \"#utility.yul\":21742:21745   */\n      0x00\n        /* \"#utility.yul\":21763:21830   */\n      tag_411\n        /* \"#utility.yul\":21827:21829   */\n      0x23\n        /* \"#utility.yul\":21822:21825   */\n      dup4\n        /* \"#utility.yul\":21763:21830   */\n      tag_172\n      jump\t// in\n    tag_411:\n        /* \"#utility.yul\":21756:21830   */\n      swap2\n      pop\n        /* \"#utility.yul\":21839:21932   */\n      tag_412\n        /* \"#utility.yul\":21928:21931   */\n      dup3\n        /* \"#utility.yul\":21839:21932   */\n      tag_205\n      jump\t// in\n    tag_412:\n        /* \"#utility.yul\":21957:21959   */\n      0x40\n        /* \"#utility.yul\":21952:21955   */\n      dup3\n        /* \"#utility.yul\":21948:21960   */\n      add\n        /* \"#utility.yul\":21941:21960   */\n      swap1\n      pop\n        /* \"#utility.yul\":21600:21966   */\n      swap2\n      swap1\n      pop\n      jump\t// out\n        /* \"#utility.yul\":21972:22391   */\n    tag_98:\n        /* \"#utility.yul\":22138:22142   */\n      0x00\n        /* \"#utility.yul\":22176:22178   */\n      0x20\n        /* \"#utility.yul\":22165:22174   */\n      dup3\n        /* \"#utility.yul\":22161:22179   */\n      add\n        /* \"#utility.yul\":22153:22179   */\n      swap1\n      pop\n        /* \"#utility.yul\":22225:22234   */\n      dup2\n        /* \"#utility.yul\":22219:22223   */\n      dup2\n        /* \"#utility.yul\":22215:22235   */\n      sub\n        /* \"#utility.yul\":22211:22212   */\n      0x00\n        /* \"#utility.yul\":22200:22209   */\n      dup4\n        /* \"#utility.yul\":22196:22213   */\n      add\n        /* \"#utility.yul\":22189:22236   */\n      mstore\n        /* \"#utility.yul\":22253:22384   */\n      tag_414\n        /* \"#utility.yul\":22379:22383   */\n      dup2\n        /* \"#utility.yul\":22253:22384   */\n      tag_206\n      jump\t// in\n    tag_414:\n        /* \"#utility.yul\":22245:22384   */\n      swap1\n      pop\n        /* \"#utility.yul\":21972:22391   */\n      swap2\n      swap1\n      pop\n      jump\t// out\n        /* \"#utility.yul\":22397:22576   */\n    tag_207:\n        /* \"#utility.yul\":22537:22568   */\n      0x4e6f20726f6c652061737369676e656420746f20746869732075736572000000\n        /* \"#utility.yul\":22533:22534   */\n      0x00\n        /* \"#utility.yul\":22525:22531   */\n      dup3\n        /* \"#utility.yul\":22521:22535   */\n      add\n        /* \"#utility.yul\":22514:22569   */\n      mstore\n        /* \"#utility.yul\":22397:22576   */\n      pop\n      jump\t// out\n        /* \"#utility.yul\":22582:22948   */\n    tag_208:\n        /* \"#utility.yul\":22724:22727   */\n      0x00\n        /* \"#utility.yul\":22745:22812   */\n      tag_417\n        /* \"#utility.yul\":22809:22811   */\n      0x1d\n        /* \"#utility.yul\":22804:22807   */\n      dup4\n        /* \"#utility.yul\":22745:22812   */\n      tag_172\n      jump\t// in\n    tag_417:\n        /* \"#utility.yul\":22738:22812   */\n      swap2\n      pop\n        /* \"#utility.yul\":22821:22914   */\n      tag_418\n        /* \"#utility.yul\":22910:22913   */\n      dup3\n        /* \"#utility.yul\":22821:22914   */\n      tag_207\n      jump\t// in\n    tag_418:\n        /* \"#utility.yul\":22939:22941   */\n      0x20\n        /* \"#utility.yul\":22934:22937   */\n      dup3\n        /* \"#utility.yul\":22930:22942   */\n      add\n        /* \"#utility.yul\":22923:22942   */\n      swap1\n      pop\n        /* \"#utility.yul\":22582:22948   */\n      swap2\n      swap1\n      pop\n      jump\t// out\n        /* \"#utility.yul\":22954:23373   */\n    tag_105:\n        /* \"#utility.yul\":23120:23124   */\n      0x00\n        /* \"#utility.yul\":23158:23160   */\n      0x20\n        /* \"#utility.yul\":23147:23156   */\n      dup3\n        /* \"#utility.yul\":23143:23161   */\n      add\n        /* \"#utility.yul\":23135:23161   */\n      swap1\n      pop\n        /* \"#utility.yul\":23207:23216   */\n      dup2\n        /* \"#utility.yul\":23201:23205   */\n      dup2\n        /* \"#utility.yul\":23197:23217   */\n      sub\n        /* \"#utility.yul\":23193:23194   */\n      0x00\n        /* \"#utility.yul\":23182:23191   */\n      dup4\n        /* \"#utility.yul\":23178:23195   */\n      add\n        /* \"#utility.yul\":23171:23218   */\n      mstore\n        /* \"#utility.yul\":23235:23366   */\n      tag_420\n        /* \"#utility.yul\":23361:23365   */\n      dup2\n        /* \"#utility.yul\":23235:23366   */\n      tag_208\n      jump\t// in\n    tag_420:\n        /* \"#utility.yul\":23227:23366   */\n      swap1\n      pop\n        /* \"#utility.yul\":22954:23373   */\n      swap2\n      swap1\n      pop\n      jump\t// out\n        /* \"#utility.yul\":23379:23600   */\n    tag_209:\n        /* \"#utility.yul\":23519:23553   */\n      0x4f6e6c792061646d696e2063616e20706572666f726d20746869732061637469\n        /* \"#utility.yul\":23515:23516   */\n      0x00\n        /* \"#utility.yul\":23507:23513   */\n      dup3\n        /* \"#utility.yul\":23503:23517   */\n      add\n        /* \"#utility.yul\":23496:23554   */\n      mstore\n        /* \"#utility.yul\":23588:23592   */\n      0x6f6e000000000000000000000000000000000000000000000000000000000000\n        /* \"#utility.yul\":23583:23585   */\n      0x20\n        /* \"#utility.yul\":23575:23581   */\n      dup3\n        /* \"#utility.yul\":23571:23586   */\n      add\n        /* \"#utility.yul\":23564:23593   */\n      mstore\n        /* \"#utility.yul\":23379:23600   */\n      pop\n      jump\t// out\n        /* \"#utility.yul\":23606:23972   */\n    tag_210:\n        /* \"#utility.yul\":23748:23751   */\n      0x00\n        /* \"#utility.yul\":23769:23836   */\n      tag_423\n        /* \"#utility.yul\":23833:23835   */\n      0x22\n        /* \"#utility.yul\":23828:23831   */\n      dup4\n        /* \"#utility.yul\":23769:23836   */\n      tag_172\n      jump\t// in\n    tag_423:\n        /* \"#utility.yul\":23762:23836   */\n      swap2\n      pop\n        /* \"#utility.yul\":23845:23938   */\n      tag_424\n        /* \"#utility.yul\":23934:23937   */\n      dup3\n        /* \"#utility.yul\":23845:23938   */\n      tag_209\n      jump\t// in\n    tag_424:\n        /* \"#utility.yul\":23963:23965   */\n      0x40\n        /* \"#utility.yul\":23958:23961   */\n      dup3\n        /* \"#utility.yul\":23954:23966   */\n      add\n        /* \"#utility.yul\":23947:23966   */\n      swap1\n      pop\n        /* \"#utility.yul\":23606:23972   */\n      swap2\n      swap1\n      pop\n      jump\t// out\n        /* \"#utility.yul\":23978:24397   */\n    tag_114:\n        /* \"#utility.yul\":24144:24148   */\n      0x00\n        /* \"#utility.yul\":24182:24184   */\n      0x20\n        /* \"#utility.yul\":24171:24180   */\n      dup3\n        /* \"#utility.yul\":24167:24185   */\n      add\n        /* \"#utility.yul\":24159:24185   */\n      swap1\n      pop\n        /* \"#utility.yul\":24231:24240   */\n      dup2\n        /* \"#utility.yul\":24225:24229   */\n      dup2\n        /* \"#utility.yul\":24221:24241   */\n      sub\n        /* \"#utility.yul\":24217:24218   */\n      0x00\n        /* \"#utility.yul\":24206:24215   */\n      dup4\n        /* \"#utility.yul\":24202:24219   */\n      add\n        /* \"#utility.yul\":24195:24242   */\n      mstore\n        /* \"#utility.yul\":24259:24390   */\n      tag_426\n        /* \"#utility.yul\":24385:24389   */\n      dup2\n        /* \"#utility.yul\":24259:24390   */\n      tag_210\n      jump\t// in\n    tag_426:\n        /* \"#utility.yul\":24251:24390   */\n      swap1\n      pop\n        /* \"#utility.yul\":23978:24397   */\n      swap2\n      swap1\n      pop\n      jump\t// out\n        /* \"#utility.yul\":24403:24573   */\n    tag_211:\n        /* \"#utility.yul\":24543:24565   */\n      0x526f6c652063616e6e6f7420626520656d707479000000000000000000000000\n        /* \"#utility.yul\":24539:24540   */\n      0x00\n        /* \"#utility.yul\":24531:24537   */\n      dup3\n        /* \"#utility.yul\":24527:24541   */\n      add\n        /* \"#utility.yul\":24520:24566   */\n      mstore\n        /* \"#utility.yul\":24403:24573   */\n      pop\n      jump\t// out\n        /* \"#utility.yul\":24579:24945   */\n    tag_212:\n        /* \"#utility.yul\":24721:24724   */\n      0x00\n        /* \"#utility.yul\":24742:24809   */\n      tag_429\n        /* \"#utility.yul\":24806:24808   */\n      0x14\n        /* \"#utility.yul\":24801:24804   */\n      dup4\n        /* \"#utility.yul\":24742:24809   */\n      tag_172\n      jump\t// in\n    tag_429:\n        /* \"#utility.yul\":24735:24809   */\n      swap2\n      pop\n        /* \"#utility.yul\":24818:24911   */\n      tag_430\n        /* \"#utility.yul\":24907:24910   */\n      dup3\n        /* \"#utility.yul\":24818:24911   */\n      tag_211\n      jump\t// in\n    tag_430:\n        /* \"#utility.yul\":24936:24938   */\n      0x20\n        /* \"#utility.yul\":24931:24934   */\n      dup3\n        /* \"#utility.yul\":24927:24939   */\n      add\n        /* \"#utility.yul\":24920:24939   */\n      swap1\n      pop\n        /* \"#utility.yul\":24579:24945   */\n      swap2\n      swap1\n      pop\n      jump\t// out\n        /* \"#utility.yul\":24951:25370   */\n    tag_118:\n        /* \"#utility.yul\":25117:25121   */\n      0x00\n        /* \"#utility.yul\":25155:25157   */\n      0x20\n        /* \"#utility.yul\":25144:25153   */\n      dup3\n        /* \"#utility.yul\":25140:25158   */\n      add\n        /* \"#utility.yul\":25132:25158   */\n      swap1\n      pop\n        /* \"#utility.yul\":25204:25213   */\n      dup2\n        /* \"#utility.yul\":25198:25202   */\n      dup2\n        /* \"#utility.yul\":25194:25214   */\n      sub\n        /* \"#utility.yul\":25190:25191   */\n      0x00\n        /* \"#utility.yul\":25179:25188   */\n      dup4\n        /* \"#utility.yul\":25175:25192   */\n      add\n        /* \"#utility.yul\":25168:25215   */\n      mstore\n        /* \"#utility.yul\":25232:25363   */\n      tag_432\n        /* \"#utility.yul\":25358:25362   */\n      dup2\n        /* \"#utility.yul\":25232:25363   */\n      tag_212\n      jump\t// in\n    tag_432:\n        /* \"#utility.yul\":25224:25363   */\n      swap1\n      pop\n        /* \"#utility.yul\":24951:25370   */\n      swap2\n      swap1\n      pop\n      jump\t// out\n        /* \"#utility.yul\":25376:25556   */\n    tag_145:\n        /* \"#utility.yul\":25424:25501   */\n      0x4e487b7100000000000000000000000000000000000000000000000000000000\n        /* \"#utility.yul\":25421:25422   */\n      0x00\n        /* \"#utility.yul\":25414:25502   */\n      mstore\n        /* \"#utility.yul\":25521:25525   */\n      0x32\n        /* \"#utility.yul\":25518:25519   */\n      0x04\n        /* \"#utility.yul\":25511:25526   */\n      mstore\n        /* \"#utility.yul\":25545:25549   */\n      0x24\n        /* \"#utility.yul\":25542:25543   */\n      0x00\n        /* \"#utility.yul\":25535:25550   */\n      revert\n\n    auxdata: 0xa264697066735822122073c29bc2750870c9041651d6b643ebf775de204ea7e8d4500cd8d826a16f76a864736f6c634300081a0033\n}\n",
				"bytecode": {
					"linkReferences": {},
					"object": "6080604052348015600e575f80fd5b503360045f6101000a81548173ffffffffffffffffffffffffffffffffffffffff021916908373ffffffffffffffffffffffffffffffffffffffff160217905550611f038061005c5f395ff3fe608060405234801561000f575f80fd5b5060043610610086575f3560e01c80634427673311610059578063442767331461010e578063b7dfcbee1461013e578063bc9c2d551461015a578063e55f67ee1461017857610086565b80630890d80c1461008a57806314c95832146100a65780632a50c146146100c25780633457d3e2146100f2575b5f80fd5b6100a4600480360381019061009f9190611367565b6101a8565b005b6100c060048036038101906100bb919061140b565b610366565b005b6100dc60048036038101906100d791906114ac565b610570565b6040516100e99190611592565b60405180910390f35b61010c6004803603810190610107919061140b565b610842565b005b610128600480360381019061012391906114ac565b610a66565b60405161013591906115fa565b60405180910390f35b6101586004803603810190610153919061161a565b610bbe565b005b610162610e27565b60405161016f91906115fa565b60405180910390f35b610192600480360381019061018d919061161a565b610fbf565b60405161019f919061168e565b60405180910390f35b5f73ffffffffffffffffffffffffffffffffffffffff165f803373ffffffffffffffffffffffffffffffffffffffff1673ffffffffffffffffffffffffffffffffffffffff1681526020019081526020015f206001015f9054906101000a900473ffffffffffffffffffffffffffffffffffffffff1673ffffffffffffffffffffffffffffffffffffffff1603610274576040517f08c379a000000000000000000000000000000000000000000000000000000000815260040161026b90611717565b60405180910390fd5b60405180606001604052808481526020018381526020018281525060015f3373ffffffffffffffffffffffffffffffffffffffff1673ffffffffffffffffffffffffffffffffffffffff1681526020019081526020015f205f820151815f0190816102df9190611938565b5060208201518160010190816102f59190611938565b50604082015181600201908161030b9190611938565b509050503373ffffffffffffffffffffffffffffffffffffffff167ffadb49c18b6d26649f36d814608938985376b6c31251d1cc6df89f6e6dfaae3b84848460405161035993929190611a07565b60405180910390a2505050565b5f8151116103a9576040517f08c379a00000000000000000000000000000000000000000000000000000000081526004016103a090611a9b565b60405180910390fd5b5f73ffffffffffffffffffffffffffffffffffffffff165f803373ffffffffffffffffffffffffffffffffffffffff1673ffffffffffffffffffffffffffffffffffffffff1681526020019081526020015f206001015f9054906101000a900473ffffffffffffffffffffffffffffffffffffffff1673ffffffffffffffffffffffffffffffffffffffff1603610475576040517f08c379a000000000000000000000000000000000000000000000000000000000815260040161046c90611b03565b60405180910390fd5b5f61047e610e27565b905081805190602001208180519060200120036104d0576040517f08c379a00000000000000000000000000000000000000000000000000000000081526004016104c790611b91565b60405180910390fd5b815f803373ffffffffffffffffffffffffffffffffffffffff1673ffffffffffffffffffffffffffffffffffffffff1681526020019081526020015f205f01908161051b9190611938565b503373ffffffffffffffffffffffffffffffffffffffff167f8a349d0aaf30faae66d032977cc9409a8d7676460eabf8c0947986b5d8a48d8c8284604051610564929190611baf565b60405180910390a25050565b6105786111f9565b5f73ffffffffffffffffffffffffffffffffffffffff165f808473ffffffffffffffffffffffffffffffffffffffff1673ffffffffffffffffffffffffffffffffffffffff1681526020019081526020015f206001015f9054906101000a900473ffffffffffffffffffffffffffffffffffffffff1673ffffffffffffffffffffffffffffffffffffffff1603610644576040517f08c379a000000000000000000000000000000000000000000000000000000000815260040161063b90611c2e565b60405180910390fd5b60015f8373ffffffffffffffffffffffffffffffffffffffff1673ffffffffffffffffffffffffffffffffffffffff1681526020019081526020015f206040518060600160405290815f8201805461069b90611762565b80601f01602080910402602001604051908101604052809291908181526020018280546106c790611762565b80156107125780601f106106e957610100808354040283529160200191610712565b820191905f5260205f20905b8154815290600101906020018083116106f557829003601f168201915b5050505050815260200160018201805461072b90611762565b80601f016020809104026020016040519081016040528092919081815260200182805461075790611762565b80156107a25780601f10610779576101008083540402835291602001916107a2565b820191905f5260205f20905b81548152906001019060200180831161078557829003601f168201915b505050505081526020016002820180546107bb90611762565b80601f01602080910402602001604051908101604052809291908181526020018280546107e790611762565b80156108325780601f1061080957610100808354040283529160200191610832565b820191905f5260205f20905b81548152906001019060200180831161081557829003601f168201915b5050505050815250509050919050565b5f815111610885576040517f08c379a000000000000000000000000000000000000000000000000000000000815260040161087c90611c96565b60405180910390fd5b5f73ffffffffffffffffffffffffffffffffffffffff165f803373ffffffffffffffffffffffffffffffffffffffff1673ffffffffffffffffffffffffffffffffffffffff1681526020019081526020015f206001015f9054906101000a900473ffffffffffffffffffffffffffffffffffffffff1673ffffffffffffffffffffffffffffffffffffffff1614610951576040517f08c379a000000000000000000000000000000000000000000000000000000000815260040161094890611d24565b60405180910390fd5b60405180604001604052808281526020013373ffffffffffffffffffffffffffffffffffffffff168152505f803373ffffffffffffffffffffffffffffffffffffffff1673ffffffffffffffffffffffffffffffffffffffff1681526020019081526020015f205f820151815f0190816109cb9190611938565b506020820151816001015f6101000a81548173ffffffffffffffffffffffffffffffffffffffff021916908373ffffffffffffffffffffffffffffffffffffffff1602179055509050503373ffffffffffffffffffffffffffffffffffffffff167f1b7934654ba536b6962955e057ce42885353bbaad8c605a5ce0678e632f2841082604051610a5b91906115fa565b60405180910390a250565b60605f60025f8473ffffffffffffffffffffffffffffffffffffffff1673ffffffffffffffffffffffffffffffffffffffff1681526020019081526020015f208054610ab190611762565b905011610af3576040517f08c379a0000000000000000000000000000000000000000000000000000000008152600401610aea90611d8c565b60405180910390fd5b60025f8373ffffffffffffffffffffffffffffffffffffffff1673ffffffffffffffffffffffffffffffffffffffff1681526020019081526020015f208054610b3b90611762565b80601f0160208091040260200160405190810160405280929190818152602001828054610b6790611762565b8015610bb25780601f10610b8957610100808354040283529160200191610bb2565b820191905f5260205f20905b815481529060010190602001808311610b9557829003601f168201915b50505050509050919050565b60045f9054906101000a900473ffffffffffffffffffffffffffffffffffffffff1673ffffffffffffffffffffffffffffffffffffffff163373ffffffffffffffffffffffffffffffffffffffff1614610c4d576040517f08c379a0000000000000000000000000000000000000000000000000000000008152600401610c4490611e1a565b60405180910390fd5b5f815111610c90576040517f08c379a0000000000000000000000000000000000000000000000000000000008152600401610c8790611e82565b60405180910390fd5b8060025f8473ffffffffffffffffffffffffffffffffffffffff1673ffffffffffffffffffffffffffffffffffffffff1681526020019081526020015f209081610cda9190611938565b5060035f8373ffffffffffffffffffffffffffffffffffffffff1673ffffffffffffffffffffffffffffffffffffffff1681526020019081526020015f2060405180606001604052808381526020013373ffffffffffffffffffffffffffffffffffffffff16815260200142815250908060018154018082558091505060019003905f5260205f2090600302015f909190919091505f820151815f019081610d829190611938565b506020820151816001015f6101000a81548173ffffffffffffffffffffffffffffffffffffffff021916908373ffffffffffffffffffffffffffffffffffffffff1602179055506040820151816002015550508173ffffffffffffffffffffffffffffffffffffffff167f3565795c2fb8842c21347d277937778bbcfe788b5b4f790fc5e408786cbe9c9082604051610e1b91906115fa565b60405180910390a25050565b60605f73ffffffffffffffffffffffffffffffffffffffff165f803373ffffffffffffffffffffffffffffffffffffffff1673ffffffffffffffffffffffffffffffffffffffff1681526020019081526020015f206001015f9054906101000a900473ffffffffffffffffffffffffffffffffffffffff1673ffffffffffffffffffffffffffffffffffffffff1603610ef5576040517f08c379a0000000000000000000000000000000000000000000000000000000008152600401610eec90611b03565b60405180910390fd5b5f803373ffffffffffffffffffffffffffffffffffffffff1673ffffffffffffffffffffffffffffffffffffffff1681526020019081526020015f205f018054610f3e90611762565b80601f0160208091040260200160405190810160405280929190818152602001828054610f6a90611762565b8015610fb55780601f10610f8c57610100808354040283529160200191610fb5565b820191905f5260205f20905b815481529060010190602001808311610f9857829003601f168201915b5050505050905090565b5f8060035f8573ffffffffffffffffffffffffffffffffffffffff1673ffffffffffffffffffffffffffffffffffffffff1681526020019081526020015f20805480602002602001604051908101604052809291908181526020015f905b8282101561113b578382905f5260205f2090600302016040518060600160405290815f8201805461104d90611762565b80601f016020809104026020016040519081016040528092919081815260200182805461107990611762565b80156110c45780601f1061109b576101008083540402835291602001916110c4565b820191905f5260205f20905b8154815290600101906020018083116110a757829003601f168201915b50505050508152602001600182015f9054906101000a900473ffffffffffffffffffffffffffffffffffffffff1673ffffffffffffffffffffffffffffffffffffffff1673ffffffffffffffffffffffffffffffffffffffff1681526020016002820154815250508152602001906001019061101d565b5050505090505f5b81518110156111ed57838051906020012082828151811061116757611166611ea0565b5b60200260200101515f0151805190602001201480156111d057505f73ffffffffffffffffffffffffffffffffffffffff168282815181106111ab576111aa611ea0565b5b60200260200101516020015173ffffffffffffffffffffffffffffffffffffffff1614155b156111e0576001925050506111f3565b8080600101915050611143565b505f9150505b92915050565b60405180606001604052806060815260200160608152602001606081525090565b5f604051905090565b5f80fd5b5f80fd5b5f80fd5b5f80fd5b5f601f19601f8301169050919050565b7f4e487b71000000000000000000000000000000000000000000000000000000005f52604160045260245ffd5b61127982611233565b810181811067ffffffffffffffff8211171561129857611297611243565b5b80604052505050565b5f6112aa61121a565b90506112b68282611270565b919050565b5f67ffffffffffffffff8211156112d5576112d4611243565b5b6112de82611233565b9050602081019050919050565b828183375f83830152505050565b5f61130b611306846112bb565b6112a1565b9050828152602081018484840111156113275761132661122f565b5b6113328482856112eb565b509392505050565b5f82601f83011261134e5761134d61122b565b5b813561135e8482602086016112f9565b91505092915050565b5f805f6060848603121561137e5761137d611223565b5b5f84013567ffffffffffffffff81111561139b5761139a611227565b5b6113a78682870161133a565b935050602084013567ffffffffffffffff8111156113c8576113c7611227565b5b6113d48682870161133a565b925050604084013567ffffffffffffffff8111156113f5576113f4611227565b5b6114018682870161133a565b9150509250925092565b5f602082840312156114205761141f611223565b5b5f82013567ffffffffffffffff81111561143d5761143c611227565b5b6114498482850161133a565b91505092915050565b5f73ffffffffffffffffffffffffffffffffffffffff82169050919050565b5f61147b82611452565b9050919050565b61148b81611471565b8114611495575f80fd5b50565b5f813590506114a681611482565b92915050565b5f602082840312156114c1576114c0611223565b5b5f6114ce84828501611498565b91505092915050565b5f81519050919050565b5f82825260208201905092915050565b8281835e5f83830152505050565b5f611509826114d7565b61151381856114e1565b93506115238185602086016114f1565b61152c81611233565b840191505092915050565b5f606083015f8301518482035f86015261155182826114ff565b9150506020830151848203602086015261156b82826114ff565b9150506040830151848203604086015261158582826114ff565b9150508091505092915050565b5f6020820190508181035f8301526115aa8184611537565b905092915050565b5f82825260208201905092915050565b5f6115cc826114d7565b6115d681856115b2565b93506115e68185602086016114f1565b6115ef81611233565b840191505092915050565b5f6020820190508181035f83015261161281846115c2565b905092915050565b5f80604083850312156116305761162f611223565b5b5f61163d85828601611498565b925050602083013567ffffffffffffffff81111561165e5761165d611227565b5b61166a8582860161133a565b9150509250929050565b5f8115159050919050565b61168881611674565b82525050565b5f6020820190506116a15f83018461167f565b92915050565b7f437265617465206120444944206265666f72652073657474696e67206d6574615f8201527f6461746100000000000000000000000000000000000000000000000000000000602082015250565b5f6117016024836115b2565b915061170c826116a7565b604082019050919050565b5f6020820190508181035f83015261172e816116f5565b9050919050565b7f4e487b71000000000000000000000000000000000000000000000000000000005f52602260045260245ffd5b5f600282049050600182168061177957607f821691505b60208210810361178c5761178b611735565b5b50919050565b5f819050815f5260205f209050919050565b5f6020601f8301049050919050565b5f82821b905092915050565b5f600883026117ee7fffffffffffffffffffffffffffffffffffffffffffffffffffffffffffffffff826117b3565b6117f886836117b3565b95508019841693508086168417925050509392505050565b5f819050919050565b5f819050919050565b5f61183c61183761183284611810565b611819565b611810565b9050919050565b5f819050919050565b61185583611822565b61186961186182611843565b8484546117bf565b825550505050565b5f90565b61187d611871565b61188881848461184c565b505050565b5b818110156118ab576118a05f82611875565b60018101905061188e565b5050565b601f8211156118f0576118c181611792565b6118ca846117a4565b810160208510156118d9578190505b6118ed6118e5856117a4565b83018261188d565b50505b505050565b5f82821c905092915050565b5f6119105f19846008026118f5565b1980831691505092915050565b5f6119288383611901565b9150826002028217905092915050565b611941826114d7565b67ffffffffffffffff81111561195a57611959611243565b5b6119648254611762565b61196f8282856118af565b5f60209050601f8311600181146119a0575f841561198e578287015190505b611998858261191d565b8655506119ff565b601f1984166119ae86611792565b5f5b828110156119d5578489015182556001820191506020850194506020810190506119b0565b868310156119f257848901516119ee601f891682611901565b8355505b6001600288020188555050505b505050505050565b5f6060820190508181035f830152611a1f81866115c2565b90508181036020830152611a3381856115c2565b90508181036040830152611a4781846115c2565b9050949350505050565b7f4e6577206964656e7469666965722063616e6e6f7420626520656d70747900005f82015250565b5f611a85601e836115b2565b9150611a9082611a51565b602082019050919050565b5f6020820190508181035f830152611ab281611a79565b9050919050565b7f4e6f2044494420666f756e6420666f72207468697320616464726573730000005f82015250565b5f611aed601d836115b2565b9150611af882611ab9565b602082019050919050565b5f6020820190508181035f830152611b1a81611ae1565b9050919050565b7f4e6577206964656e746966696572206d757374206e6f742062652074686520735f8201527f616d65206173207468652063757272656e74206f6e6500000000000000000000602082015250565b5f611b7b6036836115b2565b9150611b8682611b21565b604082019050919050565b5f6020820190508181035f830152611ba881611b6f565b9050919050565b5f6040820190508181035f830152611bc781856115c2565b90508181036020830152611bdb81846115c2565b90509392505050565b7f4e6f206d6574616461746120666f756e6420666f7220746869732075736572005f82015250565b5f611c18601f836115b2565b9150611c2382611be4565b602082019050919050565b5f6020820190508181035f830152611c4581611c0c565b9050919050565b7f4964656e7469666965722063616e6e6f7420626520656d7074790000000000005f82015250565b5f611c80601a836115b2565b9150611c8b82611c4c565b602082019050919050565b5f6020820190508181035f830152611cad81611c74565b9050919050565b7f44494420616c72656164792065786973747320666f72207468697320616464725f8201527f6573730000000000000000000000000000000000000000000000000000000000602082015250565b5f611d0e6023836115b2565b9150611d1982611cb4565b604082019050919050565b5f6020820190508181035f830152611d3b81611d02565b9050919050565b7f4e6f20726f6c652061737369676e656420746f207468697320757365720000005f82015250565b5f611d76601d836115b2565b9150611d8182611d42565b602082019050919050565b5f6020820190508181035f830152611da381611d6a565b9050919050565b7f4f6e6c792061646d696e2063616e20706572666f726d207468697320616374695f8201527f6f6e000000000000000000000000000000000000000000000000000000000000602082015250565b5f611e046022836115b2565b9150611e0f82611daa565b604082019050919050565b5f6020820190508181035f830152611e3181611df8565b9050919050565b7f526f6c652063616e6e6f7420626520656d7074790000000000000000000000005f82015250565b5f611e6c6014836115b2565b9150611e7782611e38565b602082019050919050565b5f6020820190508181035f830152611e9981611e60565b9050919050565b7f4e487b71000000000000000000000000000000000000000000000000000000005f52603260045260245ffdfea264697066735822122073c29bc2750870c9041651d6b643ebf775de204ea7e8d4500cd8d826a16f76a864736f6c634300081a0033",
					"opcodes": "PUSH1 0x80 PUSH1 0x40 MSTORE CALLVALUE DUP1 ISZERO PUSH1 0xE JUMPI PUSH0 DUP1 REVERT JUMPDEST POP CALLER PUSH1 0x4 PUSH0 PUSH2 0x100 EXP DUP2 SLOAD DUP2 PUSH20 0xFFFFFFFFFFFFFFFFFFFFFFFFFFFFFFFFFFFFFFFF MUL NOT AND SWAP1 DUP4 PUSH20 0xFFFFFFFFFFFFFFFFFFFFFFFFFFFFFFFFFFFFFFFF AND MUL OR SWAP1 SSTORE POP PUSH2 0x1F03 DUP1 PUSH2 0x5C PUSH0 CODECOPY PUSH0 RETURN INVALID PUSH1 0x80 PUSH1 0x40 MSTORE CALLVALUE DUP1 ISZERO PUSH2 0xF JUMPI PUSH0 DUP1 REVERT JUMPDEST POP PUSH1 0x4 CALLDATASIZE LT PUSH2 0x86 JUMPI PUSH0 CALLDATALOAD PUSH1 0xE0 SHR DUP1 PUSH4 0x44276733 GT PUSH2 0x59 JUMPI DUP1 PUSH4 0x44276733 EQ PUSH2 0x10E JUMPI DUP1 PUSH4 0xB7DFCBEE EQ PUSH2 0x13E JUMPI DUP1 PUSH4 0xBC9C2D55 EQ PUSH2 0x15A JUMPI DUP1 PUSH4 0xE55F67EE EQ PUSH2 0x178 JUMPI PUSH2 0x86 JUMP JUMPDEST DUP1 PUSH4 0x890D80C EQ PUSH2 0x8A JUMPI DUP1 PUSH4 0x14C95832 EQ PUSH2 0xA6 JUMPI DUP1 PUSH4 0x2A50C146 EQ PUSH2 0xC2 JUMPI DUP1 PUSH4 0x3457D3E2 EQ PUSH2 0xF2 JUMPI JUMPDEST PUSH0 DUP1 REVERT JUMPDEST PUSH2 0xA4 PUSH1 0x4 DUP1 CALLDATASIZE SUB DUP2 ADD SWAP1 PUSH2 0x9F SWAP2 SWAP1 PUSH2 0x1367 JUMP JUMPDEST PUSH2 0x1A8 JUMP JUMPDEST STOP JUMPDEST PUSH2 0xC0 PUSH1 0x4 DUP1 CALLDATASIZE SUB DUP2 ADD SWAP1 PUSH2 0xBB SWAP2 SWAP1 PUSH2 0x140B JUMP JUMPDEST PUSH2 0x366 JUMP JUMPDEST STOP JUMPDEST PUSH2 0xDC PUSH1 0x4 DUP1 CALLDATASIZE SUB DUP2 ADD SWAP1 PUSH2 0xD7 SWAP2 SWAP1 PUSH2 0x14AC JUMP JUMPDEST PUSH2 0x570 JUMP JUMPDEST PUSH1 0x40 MLOAD PUSH2 0xE9 SWAP2 SWAP1 PUSH2 0x1592 JUMP JUMPDEST PUSH1 0x40 MLOAD DUP1 SWAP2 SUB SWAP1 RETURN JUMPDEST PUSH2 0x10C PUSH1 0x4 DUP1 CALLDATASIZE SUB DUP2 ADD SWAP1 PUSH2 0x107 SWAP2 SWAP1 PUSH2 0x140B JUMP JUMPDEST PUSH2 0x842 JUMP JUMPDEST STOP JUMPDEST PUSH2 0x128 PUSH1 0x4 DUP1 CALLDATASIZE SUB DUP2 ADD SWAP1 PUSH2 0x123 SWAP2 SWAP1 PUSH2 0x14AC JUMP JUMPDEST PUSH2 0xA66 JUMP JUMPDEST PUSH1 0x40 MLOAD PUSH2 0x135 SWAP2 SWAP1 PUSH2 0x15FA JUMP JUMPDEST PUSH1 0x40 MLOAD DUP1 SWAP2 SUB SWAP1 RETURN JUMPDEST PUSH2 0x158 PUSH1 0x4 DUP1 CALLDATASIZE SUB DUP2 ADD SWAP1 PUSH2 0x153 SWAP2 SWAP1 PUSH2 0x161A JUMP JUMPDEST PUSH2 0xBBE JUMP JUMPDEST STOP JUMPDEST PUSH2 0x162 PUSH2 0xE27 JUMP JUMPDEST PUSH1 0x40 MLOAD PUSH2 0x16F SWAP2 SWAP1 PUSH2 0x15FA JUMP JUMPDEST PUSH1 0x40 MLOAD DUP1 SWAP2 SUB SWAP1 RETURN JUMPDEST PUSH2 0x192 PUSH1 0x4 DUP1 CALLDATASIZE SUB DUP2 ADD SWAP1 PUSH2 0x18D SWAP2 SWAP1 PUSH2 0x161A JUMP JUMPDEST PUSH2 0xFBF JUMP JUMPDEST PUSH1 0x40 MLOAD PUSH2 0x19F SWAP2 SWAP1 PUSH2 0x168E JUMP JUMPDEST PUSH1 0x40 MLOAD DUP1 SWAP2 SUB SWAP1 RETURN JUMPDEST PUSH0 PUSH20 0xFFFFFFFFFFFFFFFFFFFFFFFFFFFFFFFFFFFFFFFF AND PUSH0 DUP1 CALLER PUSH20 0xFFFFFFFFFFFFFFFFFFFFFFFFFFFFFFFFFFFFFFFF AND PUSH20 0xFFFFFFFFFFFFFFFFFFFFFFFFFFFFFFFFFFFFFFFF AND DUP2 MSTORE PUSH1 0x20 ADD SWAP1 DUP2 MSTORE PUSH1 0x20 ADD PUSH0 KECCAK256 PUSH1 0x1 ADD PUSH0 SWAP1 SLOAD SWAP1 PUSH2 0x100 EXP SWAP1 DIV PUSH20 0xFFFFFFFFFFFFFFFFFFFFFFFFFFFFFFFFFFFFFFFF AND PUSH20 0xFFFFFFFFFFFFFFFFFFFFFFFFFFFFFFFFFFFFFFFF AND SUB PUSH2 0x274 JUMPI PUSH1 0x40 MLOAD PUSH32 0x8C379A000000000000000000000000000000000000000000000000000000000 DUP2 MSTORE PUSH1 0x4 ADD PUSH2 0x26B SWAP1 PUSH2 0x1717 JUMP JUMPDEST PUSH1 0x40 MLOAD DUP1 SWAP2 SUB SWAP1 REVERT JUMPDEST PUSH1 0x40 MLOAD DUP1 PUSH1 0x60 ADD PUSH1 0x40 MSTORE DUP1 DUP5 DUP2 MSTORE PUSH1 0x20 ADD DUP4 DUP2 MSTORE PUSH1 0x20 ADD DUP3 DUP2 MSTORE POP PUSH1 0x1 PUSH0 CALLER PUSH20 0xFFFFFFFFFFFFFFFFFFFFFFFFFFFFFFFFFFFFFFFF AND PUSH20 0xFFFFFFFFFFFFFFFFFFFFFFFFFFFFFFFFFFFFFFFF AND DUP2 MSTORE PUSH1 0x20 ADD SWAP1 DUP2 MSTORE PUSH1 0x20 ADD PUSH0 KECCAK256 PUSH0 DUP3 ADD MLOAD DUP2 PUSH0 ADD SWAP1 DUP2 PUSH2 0x2DF SWAP2 SWAP1 PUSH2 0x1938 JUMP JUMPDEST POP PUSH1 0x20 DUP3 ADD MLOAD DUP2 PUSH1 0x1 ADD SWAP1 DUP2 PUSH2 0x2F5 SWAP2 SWAP1 PUSH2 0x1938 JUMP JUMPDEST POP PUSH1 0x40 DUP3 ADD MLOAD DUP2 PUSH1 0x2 ADD SWAP1 DUP2 PUSH2 0x30B SWAP2 SWAP1 PUSH2 0x1938 JUMP JUMPDEST POP SWAP1 POP POP CALLER PUSH20 0xFFFFFFFFFFFFFFFFFFFFFFFFFFFFFFFFFFFFFFFF AND PUSH32 0xFADB49C18B6D26649F36D814608938985376B6C31251D1CC6DF89F6E6DFAAE3B DUP5 DUP5 DUP5 PUSH1 0x40 MLOAD PUSH2 0x359 SWAP4 SWAP3 SWAP2 SWAP1 PUSH2 0x1A07 JUMP JUMPDEST PUSH1 0x40 MLOAD DUP1 SWAP2 SUB SWAP1 LOG2 POP POP POP JUMP JUMPDEST PUSH0 DUP2 MLOAD GT PUSH2 0x3A9 JUMPI PUSH1 0x40 MLOAD PUSH32 0x8C379A000000000000000000000000000000000000000000000000000000000 DUP2 MSTORE PUSH1 0x4 ADD PUSH2 0x3A0 SWAP1 PUSH2 0x1A9B JUMP JUMPDEST PUSH1 0x40 MLOAD DUP1 SWAP2 SUB SWAP1 REVERT JUMPDEST PUSH0 PUSH20 0xFFFFFFFFFFFFFFFFFFFFFFFFFFFFFFFFFFFFFFFF AND PUSH0 DUP1 CALLER PUSH20 0xFFFFFFFFFFFFFFFFFFFFFFFFFFFFFFFFFFFFFFFF AND PUSH20 0xFFFFFFFFFFFFFFFFFFFFFFFFFFFFFFFFFFFFFFFF AND DUP2 MSTORE PUSH1 0x20 ADD SWAP1 DUP2 MSTORE PUSH1 0x20 ADD PUSH0 KECCAK256 PUSH1 0x1 ADD PUSH0 SWAP1 SLOAD SWAP1 PUSH2 0x100 EXP SWAP1 DIV PUSH20 0xFFFFFFFFFFFFFFFFFFFFFFFFFFFFFFFFFFFFFFFF AND PUSH20 0xFFFFFFFFFFFFFFFFFFFFFFFFFFFFFFFFFFFFFFFF AND SUB PUSH2 0x475 JUMPI PUSH1 0x40 MLOAD PUSH32 0x8C379A000000000000000000000000000000000000000000000000000000000 DUP2 MSTORE PUSH1 0x4 ADD PUSH2 0x46C SWAP1 PUSH2 0x1B03 JUMP JUMPDEST PUSH1 0x40 MLOAD DUP1 SWAP2 SUB SWAP1 REVERT JUMPDEST PUSH0 PUSH2 0x47E PUSH2 0xE27 JUMP JUMPDEST SWAP1 POP DUP2 DUP1 MLOAD SWAP1 PUSH1 0x20 ADD KECCAK256 DUP2 DUP1 MLOAD SWAP1 PUSH1 0x20 ADD KECCAK256 SUB PUSH2 0x4D0 JUMPI PUSH1 0x40 MLOAD PUSH32 0x8C379A000000000000000000000000000000000000000000000000000000000 DUP2 MSTORE PUSH1 0x4 ADD PUSH2 0x4C7 SWAP1 PUSH2 0x1B91 JUMP JUMPDEST PUSH1 0x40 MLOAD DUP1 SWAP2 SUB SWAP1 REVERT JUMPDEST DUP2 PUSH0 DUP1 CALLER PUSH20 0xFFFFFFFFFFFFFFFFFFFFFFFFFFFFFFFFFFFFFFFF AND PUSH20 0xFFFFFFFFFFFFFFFFFFFFFFFFFFFFFFFFFFFFFFFF AND DUP2 MSTORE PUSH1 0x20 ADD SWAP1 DUP2 MSTORE PUSH1 0x20 ADD PUSH0 KECCAK256 PUSH0 ADD SWAP1 DUP2 PUSH2 0x51B SWAP2 SWAP1 PUSH2 0x1938 JUMP JUMPDEST POP CALLER PUSH20 0xFFFFFFFFFFFFFFFFFFFFFFFFFFFFFFFFFFFFFFFF AND PUSH32 0x8A349D0AAF30FAAE66D032977CC9409A8D7676460EABF8C0947986B5D8A48D8C DUP3 DUP5 PUSH1 0x40 MLOAD PUSH2 0x564 SWAP3 SWAP2 SWAP1 PUSH2 0x1BAF JUMP JUMPDEST PUSH1 0x40 MLOAD DUP1 SWAP2 SUB SWAP1 LOG2 POP POP JUMP JUMPDEST PUSH2 0x578 PUSH2 0x11F9 JUMP JUMPDEST PUSH0 PUSH20 0xFFFFFFFFFFFFFFFFFFFFFFFFFFFFFFFFFFFFFFFF AND PUSH0 DUP1 DUP5 PUSH20 0xFFFFFFFFFFFFFFFFFFFFFFFFFFFFFFFFFFFFFFFF AND PUSH20 0xFFFFFFFFFFFFFFFFFFFFFFFFFFFFFFFFFFFFFFFF AND DUP2 MSTORE PUSH1 0x20 ADD SWAP1 DUP2 MSTORE PUSH1 0x20 ADD PUSH0 KECCAK256 PUSH1 0x1 ADD PUSH0 SWAP1 SLOAD SWAP1 PUSH2 0x100 EXP SWAP1 DIV PUSH20 0xFFFFFFFFFFFFFFFFFFFFFFFFFFFFFFFFFFFFFFFF AND PUSH20 0xFFFFFFFFFFFFFFFFFFFFFFFFFFFFFFFFFFFFFFFF AND SUB PUSH2 0x644 JUMPI PUSH1 0x40 MLOAD PUSH32 0x8C379A000000000000000000000000000000000000000000000000000000000 DUP2 MSTORE PUSH1 0x4 ADD PUSH2 0x63B SWAP1 PUSH2 0x1C2E JUMP JUMPDEST PUSH1 0x40 MLOAD DUP1 SWAP2 SUB SWAP1 REVERT JUMPDEST PUSH1 0x1 PUSH0 DUP4 PUSH20 0xFFFFFFFFFFFFFFFFFFFFFFFFFFFFFFFFFFFFFFFF AND PUSH20 0xFFFFFFFFFFFFFFFFFFFFFFFFFFFFFFFFFFFFFFFF AND DUP2 MSTORE PUSH1 0x20 ADD SWAP1 DUP2 MSTORE PUSH1 0x20 ADD PUSH0 KECCAK256 PUSH1 0x40 MLOAD DUP1 PUSH1 0x60 ADD PUSH1 0x40 MSTORE SWAP1 DUP2 PUSH0 DUP3 ADD DUP1 SLOAD PUSH2 0x69B SWAP1 PUSH2 0x1762 JUMP JUMPDEST DUP1 PUSH1 0x1F ADD PUSH1 0x20 DUP1 SWAP2 DIV MUL PUSH1 0x20 ADD PUSH1 0x40 MLOAD SWAP1 DUP2 ADD PUSH1 0x40 MSTORE DUP1 SWAP3 SWAP2 SWAP1 DUP2 DUP2 MSTORE PUSH1 0x20 ADD DUP3 DUP1 SLOAD PUSH2 0x6C7 SWAP1 PUSH2 0x1762 JUMP JUMPDEST DUP1 ISZERO PUSH2 0x712 JUMPI DUP1 PUSH1 0x1F LT PUSH2 0x6E9 JUMPI PUSH2 0x100 DUP1 DUP4 SLOAD DIV MUL DUP4 MSTORE SWAP2 PUSH1 0x20 ADD SWAP2 PUSH2 0x712 JUMP JUMPDEST DUP3 ADD SWAP2 SWAP1 PUSH0 MSTORE PUSH1 0x20 PUSH0 KECCAK256 SWAP1 JUMPDEST DUP2 SLOAD DUP2 MSTORE SWAP1 PUSH1 0x1 ADD SWAP1 PUSH1 0x20 ADD DUP1 DUP4 GT PUSH2 0x6F5 JUMPI DUP3 SWAP1 SUB PUSH1 0x1F AND DUP3 ADD SWAP2 JUMPDEST POP POP POP POP POP DUP2 MSTORE PUSH1 0x20 ADD PUSH1 0x1 DUP3 ADD DUP1 SLOAD PUSH2 0x72B SWAP1 PUSH2 0x1762 JUMP JUMPDEST DUP1 PUSH1 0x1F ADD PUSH1 0x20 DUP1 SWAP2 DIV MUL PUSH1 0x20 ADD PUSH1 0x40 MLOAD SWAP1 DUP2 ADD PUSH1 0x40 MSTORE DUP1 SWAP3 SWAP2 SWAP1 DUP2 DUP2 MSTORE PUSH1 0x20 ADD DUP3 DUP1 SLOAD PUSH2 0x757 SWAP1 PUSH2 0x1762 JUMP JUMPDEST DUP1 ISZERO PUSH2 0x7A2 JUMPI DUP1 PUSH1 0x1F LT PUSH2 0x779 JUMPI PUSH2 0x100 DUP1 DUP4 SLOAD DIV MUL DUP4 MSTORE SWAP2 PUSH1 0x20 ADD SWAP2 PUSH2 0x7A2 JUMP JUMPDEST DUP3 ADD SWAP2 SWAP1 PUSH0 MSTORE PUSH1 0x20 PUSH0 KECCAK256 SWAP1 JUMPDEST DUP2 SLOAD DUP2 MSTORE SWAP1 PUSH1 0x1 ADD SWAP1 PUSH1 0x20 ADD DUP1 DUP4 GT PUSH2 0x785 JUMPI DUP3 SWAP1 SUB PUSH1 0x1F AND DUP3 ADD SWAP2 JUMPDEST POP POP POP POP POP DUP2 MSTORE PUSH1 0x20 ADD PUSH1 0x2 DUP3 ADD DUP1 SLOAD PUSH2 0x7BB SWAP1 PUSH2 0x1762 JUMP JUMPDEST DUP1 PUSH1 0x1F ADD PUSH1 0x20 DUP1 SWAP2 DIV MUL PUSH1 0x20 ADD PUSH1 0x40 MLOAD SWAP1 DUP2 ADD PUSH1 0x40 MSTORE DUP1 SWAP3 SWAP2 SWAP1 DUP2 DUP2 MSTORE PUSH1 0x20 ADD DUP3 DUP1 SLOAD PUSH2 0x7E7 SWAP1 PUSH2 0x1762 JUMP JUMPDEST DUP1 ISZERO PUSH2 0x832 JUMPI DUP1 PUSH1 0x1F LT PUSH2 0x809 JUMPI PUSH2 0x100 DUP1 DUP4 SLOAD DIV MUL DUP4 MSTORE SWAP2 PUSH1 0x20 ADD SWAP2 PUSH2 0x832 JUMP JUMPDEST DUP3 ADD SWAP2 SWAP1 PUSH0 MSTORE PUSH1 0x20 PUSH0 KECCAK256 SWAP1 JUMPDEST DUP2 SLOAD DUP2 MSTORE SWAP1 PUSH1 0x1 ADD SWAP1 PUSH1 0x20 ADD DUP1 DUP4 GT PUSH2 0x815 JUMPI DUP3 SWAP1 SUB PUSH1 0x1F AND DUP3 ADD SWAP2 JUMPDEST POP POP POP POP POP DUP2 MSTORE POP POP SWAP1 POP SWAP2 SWAP1 POP JUMP JUMPDEST PUSH0 DUP2 MLOAD GT PUSH2 0x885 JUMPI PUSH1 0x40 MLOAD PUSH32 0x8C379A000000000000000000000000000000000000000000000000000000000 DUP2 MSTORE PUSH1 0x4 ADD PUSH2 0x87C SWAP1 PUSH2 0x1C96 JUMP JUMPDEST PUSH1 0x40 MLOAD DUP1 SWAP2 SUB SWAP1 REVERT JUMPDEST PUSH0 PUSH20 0xFFFFFFFFFFFFFFFFFFFFFFFFFFFFFFFFFFFFFFFF AND PUSH0 DUP1 CALLER PUSH20 0xFFFFFFFFFFFFFFFFFFFFFFFFFFFFFFFFFFFFFFFF AND PUSH20 0xFFFFFFFFFFFFFFFFFFFFFFFFFFFFFFFFFFFFFFFF AND DUP2 MSTORE PUSH1 0x20 ADD SWAP1 DUP2 MSTORE PUSH1 0x20 ADD PUSH0 KECCAK256 PUSH1 0x1 ADD PUSH0 SWAP1 SLOAD SWAP1 PUSH2 0x100 EXP SWAP1 DIV PUSH20 0xFFFFFFFFFFFFFFFFFFFFFFFFFFFFFFFFFFFFFFFF AND PUSH20 0xFFFFFFFFFFFFFFFFFFFFFFFFFFFFFFFFFFFFFFFF AND EQ PUSH2 0x951 JUMPI PUSH1 0x40 MLOAD PUSH32 0x8C379A000000000000000000000000000000000000000000000000000000000 DUP2 MSTORE PUSH1 0x4 ADD PUSH2 0x948 SWAP1 PUSH2 0x1D24 JUMP JUMPDEST PUSH1 0x40 MLOAD DUP1 SWAP2 SUB SWAP1 REVERT JUMPDEST PUSH1 0x40 MLOAD DUP1 PUSH1 0x40 ADD PUSH1 0x40 MSTORE DUP1 DUP3 DUP2 MSTORE PUSH1 0x20 ADD CALLER PUSH20 0xFFFFFFFFFFFFFFFFFFFFFFFFFFFFFFFFFFFFFFFF AND DUP2 MSTORE POP PUSH0 DUP1 CALLER PUSH20 0xFFFFFFFFFFFFFFFFFFFFFFFFFFFFFFFFFFFFFFFF AND PUSH20 0xFFFFFFFFFFFFFFFFFFFFFFFFFFFFFFFFFFFFFFFF AND DUP2 MSTORE PUSH1 0x20 ADD SWAP1 DUP2 MSTORE PUSH1 0x20 ADD PUSH0 KECCAK256 PUSH0 DUP3 ADD MLOAD DUP2 PUSH0 ADD SWAP1 DUP2 PUSH2 0x9CB SWAP2 SWAP1 PUSH2 0x1938 JUMP JUMPDEST POP PUSH1 0x20 DUP3 ADD MLOAD DUP2 PUSH1 0x1 ADD PUSH0 PUSH2 0x100 EXP DUP2 SLOAD DUP2 PUSH20 0xFFFFFFFFFFFFFFFFFFFFFFFFFFFFFFFFFFFFFFFF MUL NOT AND SWAP1 DUP4 PUSH20 0xFFFFFFFFFFFFFFFFFFFFFFFFFFFFFFFFFFFFFFFF AND MUL OR SWAP1 SSTORE POP SWAP1 POP POP CALLER PUSH20 0xFFFFFFFFFFFFFFFFFFFFFFFFFFFFFFFFFFFFFFFF AND PUSH32 0x1B7934654BA536B6962955E057CE42885353BBAAD8C605A5CE0678E632F28410 DUP3 PUSH1 0x40 MLOAD PUSH2 0xA5B SWAP2 SWAP1 PUSH2 0x15FA JUMP JUMPDEST PUSH1 0x40 MLOAD DUP1 SWAP2 SUB SWAP1 LOG2 POP JUMP JUMPDEST PUSH1 0x60 PUSH0 PUSH1 0x2 PUSH0 DUP5 PUSH20 0xFFFFFFFFFFFFFFFFFFFFFFFFFFFFFFFFFFFFFFFF AND PUSH20 0xFFFFFFFFFFFFFFFFFFFFFFFFFFFFFFFFFFFFFFFF AND DUP2 MSTORE PUSH1 0x20 ADD SWAP1 DUP2 MSTORE PUSH1 0x20 ADD PUSH0 KECCAK256 DUP1 SLOAD PUSH2 0xAB1 SWAP1 PUSH2 0x1762 JUMP JUMPDEST SWAP1 POP GT PUSH2 0xAF3 JUMPI PUSH1 0x40 MLOAD PUSH32 0x8C379A000000000000000000000000000000000000000000000000000000000 DUP2 MSTORE PUSH1 0x4 ADD PUSH2 0xAEA SWAP1 PUSH2 0x1D8C JUMP JUMPDEST PUSH1 0x40 MLOAD DUP1 SWAP2 SUB SWAP1 REVERT JUMPDEST PUSH1 0x2 PUSH0 DUP4 PUSH20 0xFFFFFFFFFFFFFFFFFFFFFFFFFFFFFFFFFFFFFFFF AND PUSH20 0xFFFFFFFFFFFFFFFFFFFFFFFFFFFFFFFFFFFFFFFF AND DUP2 MSTORE PUSH1 0x20 ADD SWAP1 DUP2 MSTORE PUSH1 0x20 ADD PUSH0 KECCAK256 DUP1 SLOAD PUSH2 0xB3B SWAP1 PUSH2 0x1762 JUMP JUMPDEST DUP1 PUSH1 0x1F ADD PUSH1 0x20 DUP1 SWAP2 DIV MUL PUSH1 0x20 ADD PUSH1 0x40 MLOAD SWAP1 DUP2 ADD PUSH1 0x40 MSTORE DUP1 SWAP3 SWAP2 SWAP1 DUP2 DUP2 MSTORE PUSH1 0x20 ADD DUP3 DUP1 SLOAD PUSH2 0xB67 SWAP1 PUSH2 0x1762 JUMP JUMPDEST DUP1 ISZERO PUSH2 0xBB2 JUMPI DUP1 PUSH1 0x1F LT PUSH2 0xB89 JUMPI PUSH2 0x100 DUP1 DUP4 SLOAD DIV MUL DUP4 MSTORE SWAP2 PUSH1 0x20 ADD SWAP2 PUSH2 0xBB2 JUMP JUMPDEST DUP3 ADD SWAP2 SWAP1 PUSH0 MSTORE PUSH1 0x20 PUSH0 KECCAK256 SWAP1 JUMPDEST DUP2 SLOAD DUP2 MSTORE SWAP1 PUSH1 0x1 ADD SWAP1 PUSH1 0x20 ADD DUP1 DUP4 GT PUSH2 0xB95 JUMPI DUP3 SWAP1 SUB PUSH1 0x1F AND DUP3 ADD SWAP2 JUMPDEST POP POP POP POP POP SWAP1 POP SWAP2 SWAP1 POP JUMP JUMPDEST PUSH1 0x4 PUSH0 SWAP1 SLOAD SWAP1 PUSH2 0x100 EXP SWAP1 DIV PUSH20 0xFFFFFFFFFFFFFFFFFFFFFFFFFFFFFFFFFFFFFFFF AND PUSH20 0xFFFFFFFFFFFFFFFFFFFFFFFFFFFFFFFFFFFFFFFF AND CALLER PUSH20 0xFFFFFFFFFFFFFFFFFFFFFFFFFFFFFFFFFFFFFFFF AND EQ PUSH2 0xC4D JUMPI PUSH1 0x40 MLOAD PUSH32 0x8C379A000000000000000000000000000000000000000000000000000000000 DUP2 MSTORE PUSH1 0x4 ADD PUSH2 0xC44 SWAP1 PUSH2 0x1E1A JUMP JUMPDEST PUSH1 0x40 MLOAD DUP1 SWAP2 SUB SWAP1 REVERT JUMPDEST PUSH0 DUP2 MLOAD GT PUSH2 0xC90 JUMPI PUSH1 0x40 MLOAD PUSH32 0x8C379A000000000000000000000000000000000000000000000000000000000 DUP2 MSTORE PUSH1 0x4 ADD PUSH2 0xC87 SWAP1 PUSH2 0x1E82 JUMP JUMPDEST PUSH1 0x40 MLOAD DUP1 SWAP2 SUB SWAP1 REVERT JUMPDEST DUP1 PUSH1 0x2 PUSH0 DUP5 PUSH20 0xFFFFFFFFFFFFFFFFFFFFFFFFFFFFFFFFFFFFFFFF AND PUSH20 0xFFFFFFFFFFFFFFFFFFFFFFFFFFFFFFFFFFFFFFFF AND DUP2 MSTORE PUSH1 0x20 ADD SWAP1 DUP2 MSTORE PUSH1 0x20 ADD PUSH0 KECCAK256 SWAP1 DUP2 PUSH2 0xCDA SWAP2 SWAP1 PUSH2 0x1938 JUMP JUMPDEST POP PUSH1 0x3 PUSH0 DUP4 PUSH20 0xFFFFFFFFFFFFFFFFFFFFFFFFFFFFFFFFFFFFFFFF AND PUSH20 0xFFFFFFFFFFFFFFFFFFFFFFFFFFFFFFFFFFFFFFFF AND DUP2 MSTORE PUSH1 0x20 ADD SWAP1 DUP2 MSTORE PUSH1 0x20 ADD PUSH0 KECCAK256 PUSH1 0x40 MLOAD DUP1 PUSH1 0x60 ADD PUSH1 0x40 MSTORE DUP1 DUP4 DUP2 MSTORE PUSH1 0x20 ADD CALLER PUSH20 0xFFFFFFFFFFFFFFFFFFFFFFFFFFFFFFFFFFFFFFFF AND DUP2 MSTORE PUSH1 0x20 ADD TIMESTAMP DUP2 MSTORE POP SWAP1 DUP1 PUSH1 0x1 DUP2 SLOAD ADD DUP1 DUP3 SSTORE DUP1 SWAP2 POP POP PUSH1 0x1 SWAP1 SUB SWAP1 PUSH0 MSTORE PUSH1 0x20 PUSH0 KECCAK256 SWAP1 PUSH1 0x3 MUL ADD PUSH0 SWAP1 SWAP2 SWAP1 SWAP2 SWAP1 SWAP2 POP PUSH0 DUP3 ADD MLOAD DUP2 PUSH0 ADD SWAP1 DUP2 PUSH2 0xD82 SWAP2 SWAP1 PUSH2 0x1938 JUMP JUMPDEST POP PUSH1 0x20 DUP3 ADD MLOAD DUP2 PUSH1 0x1 ADD PUSH0 PUSH2 0x100 EXP DUP2 SLOAD DUP2 PUSH20 0xFFFFFFFFFFFFFFFFFFFFFFFFFFFFFFFFFFFFFFFF MUL NOT AND SWAP1 DUP4 PUSH20 0xFFFFFFFFFFFFFFFFFFFFFFFFFFFFFFFFFFFFFFFF AND MUL OR SWAP1 SSTORE POP PUSH1 0x40 DUP3 ADD MLOAD DUP2 PUSH1 0x2 ADD SSTORE POP POP DUP2 PUSH20 0xFFFFFFFFFFFFFFFFFFFFFFFFFFFFFFFFFFFFFFFF AND PUSH32 0x3565795C2FB8842C21347D277937778BBCFE788B5B4F790FC5E408786CBE9C90 DUP3 PUSH1 0x40 MLOAD PUSH2 0xE1B SWAP2 SWAP1 PUSH2 0x15FA JUMP JUMPDEST PUSH1 0x40 MLOAD DUP1 SWAP2 SUB SWAP1 LOG2 POP POP JUMP JUMPDEST PUSH1 0x60 PUSH0 PUSH20 0xFFFFFFFFFFFFFFFFFFFFFFFFFFFFFFFFFFFFFFFF AND PUSH0 DUP1 CALLER PUSH20 0xFFFFFFFFFFFFFFFFFFFFFFFFFFFFFFFFFFFFFFFF AND PUSH20 0xFFFFFFFFFFFFFFFFFFFFFFFFFFFFFFFFFFFFFFFF AND DUP2 MSTORE PUSH1 0x20 ADD SWAP1 DUP2 MSTORE PUSH1 0x20 ADD PUSH0 KECCAK256 PUSH1 0x1 ADD PUSH0 SWAP1 SLOAD SWAP1 PUSH2 0x100 EXP SWAP1 DIV PUSH20 0xFFFFFFFFFFFFFFFFFFFFFFFFFFFFFFFFFFFFFFFF AND PUSH20 0xFFFFFFFFFFFFFFFFFFFFFFFFFFFFFFFFFFFFFFFF AND SUB PUSH2 0xEF5 JUMPI PUSH1 0x40 MLOAD PUSH32 0x8C379A000000000000000000000000000000000000000000000000000000000 DUP2 MSTORE PUSH1 0x4 ADD PUSH2 0xEEC SWAP1 PUSH2 0x1B03 JUMP JUMPDEST PUSH1 0x40 MLOAD DUP1 SWAP2 SUB SWAP1 REVERT JUMPDEST PUSH0 DUP1 CALLER PUSH20 0xFFFFFFFFFFFFFFFFFFFFFFFFFFFFFFFFFFFFFFFF AND PUSH20 0xFFFFFFFFFFFFFFFFFFFFFFFFFFFFFFFFFFFFFFFF AND DUP2 MSTORE PUSH1 0x20 ADD SWAP1 DUP2 MSTORE PUSH1 0x20 ADD PUSH0 KECCAK256 PUSH0 ADD DUP1 SLOAD PUSH2 0xF3E SWAP1 PUSH2 0x1762 JUMP JUMPDEST DUP1 PUSH1 0x1F ADD PUSH1 0x20 DUP1 SWAP2 DIV MUL PUSH1 0x20 ADD PUSH1 0x40 MLOAD SWAP1 DUP2 ADD PUSH1 0x40 MSTORE DUP1 SWAP3 SWAP2 SWAP1 DUP2 DUP2 MSTORE PUSH1 0x20 ADD DUP3 DUP1 SLOAD PUSH2 0xF6A SWAP1 PUSH2 0x1762 JUMP JUMPDEST DUP1 ISZERO PUSH2 0xFB5 JUMPI DUP1 PUSH1 0x1F LT PUSH2 0xF8C JUMPI PUSH2 0x100 DUP1 DUP4 SLOAD DIV MUL DUP4 MSTORE SWAP2 PUSH1 0x20 ADD SWAP2 PUSH2 0xFB5 JUMP JUMPDEST DUP3 ADD SWAP2 SWAP1 PUSH0 MSTORE PUSH1 0x20 PUSH0 KECCAK256 SWAP1 JUMPDEST DUP2 SLOAD DUP2 MSTORE SWAP1 PUSH1 0x1 ADD SWAP1 PUSH1 0x20 ADD DUP1 DUP4 GT PUSH2 0xF98 JUMPI DUP3 SWAP1 SUB PUSH1 0x1F AND DUP3 ADD SWAP2 JUMPDEST POP POP POP POP POP SWAP1 POP SWAP1 JUMP JUMPDEST PUSH0 DUP1 PUSH1 0x3 PUSH0 DUP6 PUSH20 0xFFFFFFFFFFFFFFFFFFFFFFFFFFFFFFFFFFFFFFFF AND PUSH20 0xFFFFFFFFFFFFFFFFFFFFFFFFFFFFFFFFFFFFFFFF AND DUP2 MSTORE PUSH1 0x20 ADD SWAP1 DUP2 MSTORE PUSH1 0x20 ADD PUSH0 KECCAK256 DUP1 SLOAD DUP1 PUSH1 0x20 MUL PUSH1 0x20 ADD PUSH1 0x40 MLOAD SWAP1 DUP2 ADD PUSH1 0x40 MSTORE DUP1 SWAP3 SWAP2 SWAP1 DUP2 DUP2 MSTORE PUSH1 0x20 ADD PUSH0 SWAP1 JUMPDEST DUP3 DUP3 LT ISZERO PUSH2 0x113B JUMPI DUP4 DUP3 SWAP1 PUSH0 MSTORE PUSH1 0x20 PUSH0 KECCAK256 SWAP1 PUSH1 0x3 MUL ADD PUSH1 0x40 MLOAD DUP1 PUSH1 0x60 ADD PUSH1 0x40 MSTORE SWAP1 DUP2 PUSH0 DUP3 ADD DUP1 SLOAD PUSH2 0x104D SWAP1 PUSH2 0x1762 JUMP JUMPDEST DUP1 PUSH1 0x1F ADD PUSH1 0x20 DUP1 SWAP2 DIV MUL PUSH1 0x20 ADD PUSH1 0x40 MLOAD SWAP1 DUP2 ADD PUSH1 0x40 MSTORE DUP1 SWAP3 SWAP2 SWAP1 DUP2 DUP2 MSTORE PUSH1 0x20 ADD DUP3 DUP1 SLOAD PUSH2 0x1079 SWAP1 PUSH2 0x1762 JUMP JUMPDEST DUP1 ISZERO PUSH2 0x10C4 JUMPI DUP1 PUSH1 0x1F LT PUSH2 0x109B JUMPI PUSH2 0x100 DUP1 DUP4 SLOAD DIV MUL DUP4 MSTORE SWAP2 PUSH1 0x20 ADD SWAP2 PUSH2 0x10C4 JUMP JUMPDEST DUP3 ADD SWAP2 SWAP1 PUSH0 MSTORE PUSH1 0x20 PUSH0 KECCAK256 SWAP1 JUMPDEST DUP2 SLOAD DUP2 MSTORE SWAP1 PUSH1 0x1 ADD SWAP1 PUSH1 0x20 ADD DUP1 DUP4 GT PUSH2 0x10A7 JUMPI DUP3 SWAP1 SUB PUSH1 0x1F AND DUP3 ADD SWAP2 JUMPDEST POP POP POP POP POP DUP2 MSTORE PUSH1 0x20 ADD PUSH1 0x1 DUP3 ADD PUSH0 SWAP1 SLOAD SWAP1 PUSH2 0x100 EXP SWAP1 DIV PUSH20 0xFFFFFFFFFFFFFFFFFFFFFFFFFFFFFFFFFFFFFFFF AND PUSH20 0xFFFFFFFFFFFFFFFFFFFFFFFFFFFFFFFFFFFFFFFF AND PUSH20 0xFFFFFFFFFFFFFFFFFFFFFFFFFFFFFFFFFFFFFFFF AND DUP2 MSTORE PUSH1 0x20 ADD PUSH1 0x2 DUP3 ADD SLOAD DUP2 MSTORE POP POP DUP2 MSTORE PUSH1 0x20 ADD SWAP1 PUSH1 0x1 ADD SWAP1 PUSH2 0x101D JUMP JUMPDEST POP POP POP POP SWAP1 POP PUSH0 JUMPDEST DUP2 MLOAD DUP2 LT ISZERO PUSH2 0x11ED JUMPI DUP4 DUP1 MLOAD SWAP1 PUSH1 0x20 ADD KECCAK256 DUP3 DUP3 DUP2 MLOAD DUP2 LT PUSH2 0x1167 JUMPI PUSH2 0x1166 PUSH2 0x1EA0 JUMP JUMPDEST JUMPDEST PUSH1 0x20 MUL PUSH1 0x20 ADD ADD MLOAD PUSH0 ADD MLOAD DUP1 MLOAD SWAP1 PUSH1 0x20 ADD KECCAK256 EQ DUP1 ISZERO PUSH2 0x11D0 JUMPI POP PUSH0 PUSH20 0xFFFFFFFFFFFFFFFFFFFFFFFFFFFFFFFFFFFFFFFF AND DUP3 DUP3 DUP2 MLOAD DUP2 LT PUSH2 0x11AB JUMPI PUSH2 0x11AA PUSH2 0x1EA0 JUMP JUMPDEST JUMPDEST PUSH1 0x20 MUL PUSH1 0x20 ADD ADD MLOAD PUSH1 0x20 ADD MLOAD PUSH20 0xFFFFFFFFFFFFFFFFFFFFFFFFFFFFFFFFFFFFFFFF AND EQ ISZERO JUMPDEST ISZERO PUSH2 0x11E0 JUMPI PUSH1 0x1 SWAP3 POP POP POP PUSH2 0x11F3 JUMP JUMPDEST DUP1 DUP1 PUSH1 0x1 ADD SWAP2 POP POP PUSH2 0x1143 JUMP JUMPDEST POP PUSH0 SWAP2 POP POP JUMPDEST SWAP3 SWAP2 POP POP JUMP JUMPDEST PUSH1 0x40 MLOAD DUP1 PUSH1 0x60 ADD PUSH1 0x40 MSTORE DUP1 PUSH1 0x60 DUP2 MSTORE PUSH1 0x20 ADD PUSH1 0x60 DUP2 MSTORE PUSH1 0x20 ADD PUSH1 0x60 DUP2 MSTORE POP SWAP1 JUMP JUMPDEST PUSH0 PUSH1 0x40 MLOAD SWAP1 POP SWAP1 JUMP JUMPDEST PUSH0 DUP1 REVERT JUMPDEST PUSH0 DUP1 REVERT JUMPDEST PUSH0 DUP1 REVERT JUMPDEST PUSH0 DUP1 REVERT JUMPDEST PUSH0 PUSH1 0x1F NOT PUSH1 0x1F DUP4 ADD AND SWAP1 POP SWAP2 SWAP1 POP JUMP JUMPDEST PUSH32 0x4E487B7100000000000000000000000000000000000000000000000000000000 PUSH0 MSTORE PUSH1 0x41 PUSH1 0x4 MSTORE PUSH1 0x24 PUSH0 REVERT JUMPDEST PUSH2 0x1279 DUP3 PUSH2 0x1233 JUMP JUMPDEST DUP2 ADD DUP2 DUP2 LT PUSH8 0xFFFFFFFFFFFFFFFF DUP3 GT OR ISZERO PUSH2 0x1298 JUMPI PUSH2 0x1297 PUSH2 0x1243 JUMP JUMPDEST JUMPDEST DUP1 PUSH1 0x40 MSTORE POP POP POP JUMP JUMPDEST PUSH0 PUSH2 0x12AA PUSH2 0x121A JUMP JUMPDEST SWAP1 POP PUSH2 0x12B6 DUP3 DUP3 PUSH2 0x1270 JUMP JUMPDEST SWAP2 SWAP1 POP JUMP JUMPDEST PUSH0 PUSH8 0xFFFFFFFFFFFFFFFF DUP3 GT ISZERO PUSH2 0x12D5 JUMPI PUSH2 0x12D4 PUSH2 0x1243 JUMP JUMPDEST JUMPDEST PUSH2 0x12DE DUP3 PUSH2 0x1233 JUMP JUMPDEST SWAP1 POP PUSH1 0x20 DUP2 ADD SWAP1 POP SWAP2 SWAP1 POP JUMP JUMPDEST DUP3 DUP2 DUP4 CALLDATACOPY PUSH0 DUP4 DUP4 ADD MSTORE POP POP POP JUMP JUMPDEST PUSH0 PUSH2 0x130B PUSH2 0x1306 DUP5 PUSH2 0x12BB JUMP JUMPDEST PUSH2 0x12A1 JUMP JUMPDEST SWAP1 POP DUP3 DUP2 MSTORE PUSH1 0x20 DUP2 ADD DUP5 DUP5 DUP5 ADD GT ISZERO PUSH2 0x1327 JUMPI PUSH2 0x1326 PUSH2 0x122F JUMP JUMPDEST JUMPDEST PUSH2 0x1332 DUP5 DUP3 DUP6 PUSH2 0x12EB JUMP JUMPDEST POP SWAP4 SWAP3 POP POP POP JUMP JUMPDEST PUSH0 DUP3 PUSH1 0x1F DUP4 ADD SLT PUSH2 0x134E JUMPI PUSH2 0x134D PUSH2 0x122B JUMP JUMPDEST JUMPDEST DUP2 CALLDATALOAD PUSH2 0x135E DUP5 DUP3 PUSH1 0x20 DUP7 ADD PUSH2 0x12F9 JUMP JUMPDEST SWAP2 POP POP SWAP3 SWAP2 POP POP JUMP JUMPDEST PUSH0 DUP1 PUSH0 PUSH1 0x60 DUP5 DUP7 SUB SLT ISZERO PUSH2 0x137E JUMPI PUSH2 0x137D PUSH2 0x1223 JUMP JUMPDEST JUMPDEST PUSH0 DUP5 ADD CALLDATALOAD PUSH8 0xFFFFFFFFFFFFFFFF DUP2 GT ISZERO PUSH2 0x139B JUMPI PUSH2 0x139A PUSH2 0x1227 JUMP JUMPDEST JUMPDEST PUSH2 0x13A7 DUP7 DUP3 DUP8 ADD PUSH2 0x133A JUMP JUMPDEST SWAP4 POP POP PUSH1 0x20 DUP5 ADD CALLDATALOAD PUSH8 0xFFFFFFFFFFFFFFFF DUP2 GT ISZERO PUSH2 0x13C8 JUMPI PUSH2 0x13C7 PUSH2 0x1227 JUMP JUMPDEST JUMPDEST PUSH2 0x13D4 DUP7 DUP3 DUP8 ADD PUSH2 0x133A JUMP JUMPDEST SWAP3 POP POP PUSH1 0x40 DUP5 ADD CALLDATALOAD PUSH8 0xFFFFFFFFFFFFFFFF DUP2 GT ISZERO PUSH2 0x13F5 JUMPI PUSH2 0x13F4 PUSH2 0x1227 JUMP JUMPDEST JUMPDEST PUSH2 0x1401 DUP7 DUP3 DUP8 ADD PUSH2 0x133A JUMP JUMPDEST SWAP2 POP POP SWAP3 POP SWAP3 POP SWAP3 JUMP JUMPDEST PUSH0 PUSH1 0x20 DUP3 DUP5 SUB SLT ISZERO PUSH2 0x1420 JUMPI PUSH2 0x141F PUSH2 0x1223 JUMP JUMPDEST JUMPDEST PUSH0 DUP3 ADD CALLDATALOAD PUSH8 0xFFFFFFFFFFFFFFFF DUP2 GT ISZERO PUSH2 0x143D JUMPI PUSH2 0x143C PUSH2 0x1227 JUMP JUMPDEST JUMPDEST PUSH2 0x1449 DUP5 DUP3 DUP6 ADD PUSH2 0x133A JUMP JUMPDEST SWAP2 POP POP SWAP3 SWAP2 POP POP JUMP JUMPDEST PUSH0 PUSH20 0xFFFFFFFFFFFFFFFFFFFFFFFFFFFFFFFFFFFFFFFF DUP3 AND SWAP1 POP SWAP2 SWAP1 POP JUMP JUMPDEST PUSH0 PUSH2 0x147B DUP3 PUSH2 0x1452 JUMP JUMPDEST SWAP1 POP SWAP2 SWAP1 POP JUMP JUMPDEST PUSH2 0x148B DUP2 PUSH2 0x1471 JUMP JUMPDEST DUP2 EQ PUSH2 0x1495 JUMPI PUSH0 DUP1 REVERT JUMPDEST POP JUMP JUMPDEST PUSH0 DUP2 CALLDATALOAD SWAP1 POP PUSH2 0x14A6 DUP2 PUSH2 0x1482 JUMP JUMPDEST SWAP3 SWAP2 POP POP JUMP JUMPDEST PUSH0 PUSH1 0x20 DUP3 DUP5 SUB SLT ISZERO PUSH2 0x14C1 JUMPI PUSH2 0x14C0 PUSH2 0x1223 JUMP JUMPDEST JUMPDEST PUSH0 PUSH2 0x14CE DUP5 DUP3 DUP6 ADD PUSH2 0x1498 JUMP JUMPDEST SWAP2 POP POP SWAP3 SWAP2 POP POP JUMP JUMPDEST PUSH0 DUP2 MLOAD SWAP1 POP SWAP2 SWAP1 POP JUMP JUMPDEST PUSH0 DUP3 DUP3 MSTORE PUSH1 0x20 DUP3 ADD SWAP1 POP SWAP3 SWAP2 POP POP JUMP JUMPDEST DUP3 DUP2 DUP4 MCOPY PUSH0 DUP4 DUP4 ADD MSTORE POP POP POP JUMP JUMPDEST PUSH0 PUSH2 0x1509 DUP3 PUSH2 0x14D7 JUMP JUMPDEST PUSH2 0x1513 DUP2 DUP6 PUSH2 0x14E1 JUMP JUMPDEST SWAP4 POP PUSH2 0x1523 DUP2 DUP6 PUSH1 0x20 DUP7 ADD PUSH2 0x14F1 JUMP JUMPDEST PUSH2 0x152C DUP2 PUSH2 0x1233 JUMP JUMPDEST DUP5 ADD SWAP2 POP POP SWAP3 SWAP2 POP POP JUMP JUMPDEST PUSH0 PUSH1 0x60 DUP4 ADD PUSH0 DUP4 ADD MLOAD DUP5 DUP3 SUB PUSH0 DUP7 ADD MSTORE PUSH2 0x1551 DUP3 DUP3 PUSH2 0x14FF JUMP JUMPDEST SWAP2 POP POP PUSH1 0x20 DUP4 ADD MLOAD DUP5 DUP3 SUB PUSH1 0x20 DUP7 ADD MSTORE PUSH2 0x156B DUP3 DUP3 PUSH2 0x14FF JUMP JUMPDEST SWAP2 POP POP PUSH1 0x40 DUP4 ADD MLOAD DUP5 DUP3 SUB PUSH1 0x40 DUP7 ADD MSTORE PUSH2 0x1585 DUP3 DUP3 PUSH2 0x14FF JUMP JUMPDEST SWAP2 POP POP DUP1 SWAP2 POP POP SWAP3 SWAP2 POP POP JUMP JUMPDEST PUSH0 PUSH1 0x20 DUP3 ADD SWAP1 POP DUP2 DUP2 SUB PUSH0 DUP4 ADD MSTORE PUSH2 0x15AA DUP2 DUP5 PUSH2 0x1537 JUMP JUMPDEST SWAP1 POP SWAP3 SWAP2 POP POP JUMP JUMPDEST PUSH0 DUP3 DUP3 MSTORE PUSH1 0x20 DUP3 ADD SWAP1 POP SWAP3 SWAP2 POP POP JUMP JUMPDEST PUSH0 PUSH2 0x15CC DUP3 PUSH2 0x14D7 JUMP JUMPDEST PUSH2 0x15D6 DUP2 DUP6 PUSH2 0x15B2 JUMP JUMPDEST SWAP4 POP PUSH2 0x15E6 DUP2 DUP6 PUSH1 0x20 DUP7 ADD PUSH2 0x14F1 JUMP JUMPDEST PUSH2 0x15EF DUP2 PUSH2 0x1233 JUMP JUMPDEST DUP5 ADD SWAP2 POP POP SWAP3 SWAP2 POP POP JUMP JUMPDEST PUSH0 PUSH1 0x20 DUP3 ADD SWAP1 POP DUP2 DUP2 SUB PUSH0 DUP4 ADD MSTORE PUSH2 0x1612 DUP2 DUP5 PUSH2 0x15C2 JUMP JUMPDEST SWAP1 POP SWAP3 SWAP2 POP POP JUMP JUMPDEST PUSH0 DUP1 PUSH1 0x40 DUP4 DUP6 SUB SLT ISZERO PUSH2 0x1630 JUMPI PUSH2 0x162F PUSH2 0x1223 JUMP JUMPDEST JUMPDEST PUSH0 PUSH2 0x163D DUP6 DUP3 DUP7 ADD PUSH2 0x1498 JUMP JUMPDEST SWAP3 POP POP PUSH1 0x20 DUP4 ADD CALLDATALOAD PUSH8 0xFFFFFFFFFFFFFFFF DUP2 GT ISZERO PUSH2 0x165E JUMPI PUSH2 0x165D PUSH2 0x1227 JUMP JUMPDEST JUMPDEST PUSH2 0x166A DUP6 DUP3 DUP7 ADD PUSH2 0x133A JUMP JUMPDEST SWAP2 POP POP SWAP3 POP SWAP3 SWAP1 POP JUMP JUMPDEST PUSH0 DUP2 ISZERO ISZERO SWAP1 POP SWAP2 SWAP1 POP JUMP JUMPDEST PUSH2 0x1688 DUP2 PUSH2 0x1674 JUMP JUMPDEST DUP3 MSTORE POP POP JUMP JUMPDEST PUSH0 PUSH1 0x20 DUP3 ADD SWAP1 POP PUSH2 0x16A1 PUSH0 DUP4 ADD DUP5 PUSH2 0x167F JUMP JUMPDEST SWAP3 SWAP2 POP POP JUMP JUMPDEST PUSH32 0x437265617465206120444944206265666F72652073657474696E67206D657461 PUSH0 DUP3 ADD MSTORE PUSH32 0x6461746100000000000000000000000000000000000000000000000000000000 PUSH1 0x20 DUP3 ADD MSTORE POP JUMP JUMPDEST PUSH0 PUSH2 0x1701 PUSH1 0x24 DUP4 PUSH2 0x15B2 JUMP JUMPDEST SWAP2 POP PUSH2 0x170C DUP3 PUSH2 0x16A7 JUMP JUMPDEST PUSH1 0x40 DUP3 ADD SWAP1 POP SWAP2 SWAP1 POP JUMP JUMPDEST PUSH0 PUSH1 0x20 DUP3 ADD SWAP1 POP DUP2 DUP2 SUB PUSH0 DUP4 ADD MSTORE PUSH2 0x172E DUP2 PUSH2 0x16F5 JUMP JUMPDEST SWAP1 POP SWAP2 SWAP1 POP JUMP JUMPDEST PUSH32 0x4E487B7100000000000000000000000000000000000000000000000000000000 PUSH0 MSTORE PUSH1 0x22 PUSH1 0x4 MSTORE PUSH1 0x24 PUSH0 REVERT JUMPDEST PUSH0 PUSH1 0x2 DUP3 DIV SWAP1 POP PUSH1 0x1 DUP3 AND DUP1 PUSH2 0x1779 JUMPI PUSH1 0x7F DUP3 AND SWAP2 POP JUMPDEST PUSH1 0x20 DUP3 LT DUP2 SUB PUSH2 0x178C JUMPI PUSH2 0x178B PUSH2 0x1735 JUMP JUMPDEST JUMPDEST POP SWAP2 SWAP1 POP JUMP JUMPDEST PUSH0 DUP2 SWAP1 POP DUP2 PUSH0 MSTORE PUSH1 0x20 PUSH0 KECCAK256 SWAP1 POP SWAP2 SWAP1 POP JUMP JUMPDEST PUSH0 PUSH1 0x20 PUSH1 0x1F DUP4 ADD DIV SWAP1 POP SWAP2 SWAP1 POP JUMP JUMPDEST PUSH0 DUP3 DUP3 SHL SWAP1 POP SWAP3 SWAP2 POP POP JUMP JUMPDEST PUSH0 PUSH1 0x8 DUP4 MUL PUSH2 0x17EE PUSH32 0xFFFFFFFFFFFFFFFFFFFFFFFFFFFFFFFFFFFFFFFFFFFFFFFFFFFFFFFFFFFFFFFF DUP3 PUSH2 0x17B3 JUMP JUMPDEST PUSH2 0x17F8 DUP7 DUP4 PUSH2 0x17B3 JUMP JUMPDEST SWAP6 POP DUP1 NOT DUP5 AND SWAP4 POP DUP1 DUP7 AND DUP5 OR SWAP3 POP POP POP SWAP4 SWAP3 POP POP POP JUMP JUMPDEST PUSH0 DUP2 SWAP1 POP SWAP2 SWAP1 POP JUMP JUMPDEST PUSH0 DUP2 SWAP1 POP SWAP2 SWAP1 POP JUMP JUMPDEST PUSH0 PUSH2 0x183C PUSH2 0x1837 PUSH2 0x1832 DUP5 PUSH2 0x1810 JUMP JUMPDEST PUSH2 0x1819 JUMP JUMPDEST PUSH2 0x1810 JUMP JUMPDEST SWAP1 POP SWAP2 SWAP1 POP JUMP JUMPDEST PUSH0 DUP2 SWAP1 POP SWAP2 SWAP1 POP JUMP JUMPDEST PUSH2 0x1855 DUP4 PUSH2 0x1822 JUMP JUMPDEST PUSH2 0x1869 PUSH2 0x1861 DUP3 PUSH2 0x1843 JUMP JUMPDEST DUP5 DUP5 SLOAD PUSH2 0x17BF JUMP JUMPDEST DUP3 SSTORE POP POP POP POP JUMP JUMPDEST PUSH0 SWAP1 JUMP JUMPDEST PUSH2 0x187D PUSH2 0x1871 JUMP JUMPDEST PUSH2 0x1888 DUP2 DUP5 DUP5 PUSH2 0x184C JUMP JUMPDEST POP POP POP JUMP JUMPDEST JUMPDEST DUP2 DUP2 LT ISZERO PUSH2 0x18AB JUMPI PUSH2 0x18A0 PUSH0 DUP3 PUSH2 0x1875 JUMP JUMPDEST PUSH1 0x1 DUP2 ADD SWAP1 POP PUSH2 0x188E JUMP JUMPDEST POP POP JUMP JUMPDEST PUSH1 0x1F DUP3 GT ISZERO PUSH2 0x18F0 JUMPI PUSH2 0x18C1 DUP2 PUSH2 0x1792 JUMP JUMPDEST PUSH2 0x18CA DUP5 PUSH2 0x17A4 JUMP JUMPDEST DUP2 ADD PUSH1 0x20 DUP6 LT ISZERO PUSH2 0x18D9 JUMPI DUP2 SWAP1 POP JUMPDEST PUSH2 0x18ED PUSH2 0x18E5 DUP6 PUSH2 0x17A4 JUMP JUMPDEST DUP4 ADD DUP3 PUSH2 0x188D JUMP JUMPDEST POP POP JUMPDEST POP POP POP JUMP JUMPDEST PUSH0 DUP3 DUP3 SHR SWAP1 POP SWAP3 SWAP2 POP POP JUMP JUMPDEST PUSH0 PUSH2 0x1910 PUSH0 NOT DUP5 PUSH1 0x8 MUL PUSH2 0x18F5 JUMP JUMPDEST NOT DUP1 DUP4 AND SWAP2 POP POP SWAP3 SWAP2 POP POP JUMP JUMPDEST PUSH0 PUSH2 0x1928 DUP4 DUP4 PUSH2 0x1901 JUMP JUMPDEST SWAP2 POP DUP3 PUSH1 0x2 MUL DUP3 OR SWAP1 POP SWAP3 SWAP2 POP POP JUMP JUMPDEST PUSH2 0x1941 DUP3 PUSH2 0x14D7 JUMP JUMPDEST PUSH8 0xFFFFFFFFFFFFFFFF DUP2 GT ISZERO PUSH2 0x195A JUMPI PUSH2 0x1959 PUSH2 0x1243 JUMP JUMPDEST JUMPDEST PUSH2 0x1964 DUP3 SLOAD PUSH2 0x1762 JUMP JUMPDEST PUSH2 0x196F DUP3 DUP3 DUP6 PUSH2 0x18AF JUMP JUMPDEST PUSH0 PUSH1 0x20 SWAP1 POP PUSH1 0x1F DUP4 GT PUSH1 0x1 DUP2 EQ PUSH2 0x19A0 JUMPI PUSH0 DUP5 ISZERO PUSH2 0x198E JUMPI DUP3 DUP8 ADD MLOAD SWAP1 POP JUMPDEST PUSH2 0x1998 DUP6 DUP3 PUSH2 0x191D JUMP JUMPDEST DUP7 SSTORE POP PUSH2 0x19FF JUMP JUMPDEST PUSH1 0x1F NOT DUP5 AND PUSH2 0x19AE DUP7 PUSH2 0x1792 JUMP JUMPDEST PUSH0 JUMPDEST DUP3 DUP2 LT ISZERO PUSH2 0x19D5 JUMPI DUP5 DUP10 ADD MLOAD DUP3 SSTORE PUSH1 0x1 DUP3 ADD SWAP2 POP PUSH1 0x20 DUP6 ADD SWAP5 POP PUSH1 0x20 DUP2 ADD SWAP1 POP PUSH2 0x19B0 JUMP JUMPDEST DUP7 DUP4 LT ISZERO PUSH2 0x19F2 JUMPI DUP5 DUP10 ADD MLOAD PUSH2 0x19EE PUSH1 0x1F DUP10 AND DUP3 PUSH2 0x1901 JUMP JUMPDEST DUP4 SSTORE POP JUMPDEST PUSH1 0x1 PUSH1 0x2 DUP9 MUL ADD DUP9 SSTORE POP POP POP JUMPDEST POP POP POP POP POP POP JUMP JUMPDEST PUSH0 PUSH1 0x60 DUP3 ADD SWAP1 POP DUP2 DUP2 SUB PUSH0 DUP4 ADD MSTORE PUSH2 0x1A1F DUP2 DUP7 PUSH2 0x15C2 JUMP JUMPDEST SWAP1 POP DUP2 DUP2 SUB PUSH1 0x20 DUP4 ADD MSTORE PUSH2 0x1A33 DUP2 DUP6 PUSH2 0x15C2 JUMP JUMPDEST SWAP1 POP DUP2 DUP2 SUB PUSH1 0x40 DUP4 ADD MSTORE PUSH2 0x1A47 DUP2 DUP5 PUSH2 0x15C2 JUMP JUMPDEST SWAP1 POP SWAP5 SWAP4 POP POP POP POP JUMP JUMPDEST PUSH32 0x4E6577206964656E7469666965722063616E6E6F7420626520656D7074790000 PUSH0 DUP3 ADD MSTORE POP JUMP JUMPDEST PUSH0 PUSH2 0x1A85 PUSH1 0x1E DUP4 PUSH2 0x15B2 JUMP JUMPDEST SWAP2 POP PUSH2 0x1A90 DUP3 PUSH2 0x1A51 JUMP JUMPDEST PUSH1 0x20 DUP3 ADD SWAP1 POP SWAP2 SWAP1 POP JUMP JUMPDEST PUSH0 PUSH1 0x20 DUP3 ADD SWAP1 POP DUP2 DUP2 SUB PUSH0 DUP4 ADD MSTORE PUSH2 0x1AB2 DUP2 PUSH2 0x1A79 JUMP JUMPDEST SWAP1 POP SWAP2 SWAP1 POP JUMP JUMPDEST PUSH32 0x4E6F2044494420666F756E6420666F7220746869732061646472657373000000 PUSH0 DUP3 ADD MSTORE POP JUMP JUMPDEST PUSH0 PUSH2 0x1AED PUSH1 0x1D DUP4 PUSH2 0x15B2 JUMP JUMPDEST SWAP2 POP PUSH2 0x1AF8 DUP3 PUSH2 0x1AB9 JUMP JUMPDEST PUSH1 0x20 DUP3 ADD SWAP1 POP SWAP2 SWAP1 POP JUMP JUMPDEST PUSH0 PUSH1 0x20 DUP3 ADD SWAP1 POP DUP2 DUP2 SUB PUSH0 DUP4 ADD MSTORE PUSH2 0x1B1A DUP2 PUSH2 0x1AE1 JUMP JUMPDEST SWAP1 POP SWAP2 SWAP1 POP JUMP JUMPDEST PUSH32 0x4E6577206964656E746966696572206D757374206E6F74206265207468652073 PUSH0 DUP3 ADD MSTORE PUSH32 0x616D65206173207468652063757272656E74206F6E6500000000000000000000 PUSH1 0x20 DUP3 ADD MSTORE POP JUMP JUMPDEST PUSH0 PUSH2 0x1B7B PUSH1 0x36 DUP4 PUSH2 0x15B2 JUMP JUMPDEST SWAP2 POP PUSH2 0x1B86 DUP3 PUSH2 0x1B21 JUMP JUMPDEST PUSH1 0x40 DUP3 ADD SWAP1 POP SWAP2 SWAP1 POP JUMP JUMPDEST PUSH0 PUSH1 0x20 DUP3 ADD SWAP1 POP DUP2 DUP2 SUB PUSH0 DUP4 ADD MSTORE PUSH2 0x1BA8 DUP2 PUSH2 0x1B6F JUMP JUMPDEST SWAP1 POP SWAP2 SWAP1 POP JUMP JUMPDEST PUSH0 PUSH1 0x40 DUP3 ADD SWAP1 POP DUP2 DUP2 SUB PUSH0 DUP4 ADD MSTORE PUSH2 0x1BC7 DUP2 DUP6 PUSH2 0x15C2 JUMP JUMPDEST SWAP1 POP DUP2 DUP2 SUB PUSH1 0x20 DUP4 ADD MSTORE PUSH2 0x1BDB DUP2 DUP5 PUSH2 0x15C2 JUMP JUMPDEST SWAP1 POP SWAP4 SWAP3 POP POP POP JUMP JUMPDEST PUSH32 0x4E6F206D6574616461746120666F756E6420666F722074686973207573657200 PUSH0 DUP3 ADD MSTORE POP JUMP JUMPDEST PUSH0 PUSH2 0x1C18 PUSH1 0x1F DUP4 PUSH2 0x15B2 JUMP JUMPDEST SWAP2 POP PUSH2 0x1C23 DUP3 PUSH2 0x1BE4 JUMP JUMPDEST PUSH1 0x20 DUP3 ADD SWAP1 POP SWAP2 SWAP1 POP JUMP JUMPDEST PUSH0 PUSH1 0x20 DUP3 ADD SWAP1 POP DUP2 DUP2 SUB PUSH0 DUP4 ADD MSTORE PUSH2 0x1C45 DUP2 PUSH2 0x1C0C JUMP JUMPDEST SWAP1 POP SWAP2 SWAP1 POP JUMP JUMPDEST PUSH32 0x4964656E7469666965722063616E6E6F7420626520656D707479000000000000 PUSH0 DUP3 ADD MSTORE POP JUMP JUMPDEST PUSH0 PUSH2 0x1C80 PUSH1 0x1A DUP4 PUSH2 0x15B2 JUMP JUMPDEST SWAP2 POP PUSH2 0x1C8B DUP3 PUSH2 0x1C4C JUMP JUMPDEST PUSH1 0x20 DUP3 ADD SWAP1 POP SWAP2 SWAP1 POP JUMP JUMPDEST PUSH0 PUSH1 0x20 DUP3 ADD SWAP1 POP DUP2 DUP2 SUB PUSH0 DUP4 ADD MSTORE PUSH2 0x1CAD DUP2 PUSH2 0x1C74 JUMP JUMPDEST SWAP1 POP SWAP2 SWAP1 POP JUMP JUMPDEST PUSH32 0x44494420616C72656164792065786973747320666F7220746869732061646472 PUSH0 DUP3 ADD MSTORE PUSH32 0x6573730000000000000000000000000000000000000000000000000000000000 PUSH1 0x20 DUP3 ADD MSTORE POP JUMP JUMPDEST PUSH0 PUSH2 0x1D0E PUSH1 0x23 DUP4 PUSH2 0x15B2 JUMP JUMPDEST SWAP2 POP PUSH2 0x1D19 DUP3 PUSH2 0x1CB4 JUMP JUMPDEST PUSH1 0x40 DUP3 ADD SWAP1 POP SWAP2 SWAP1 POP JUMP JUMPDEST PUSH0 PUSH1 0x20 DUP3 ADD SWAP1 POP DUP2 DUP2 SUB PUSH0 DUP4 ADD MSTORE PUSH2 0x1D3B DUP2 PUSH2 0x1D02 JUMP JUMPDEST SWAP1 POP SWAP2 SWAP1 POP JUMP JUMPDEST PUSH32 0x4E6F20726F6C652061737369676E656420746F20746869732075736572000000 PUSH0 DUP3 ADD MSTORE POP JUMP JUMPDEST PUSH0 PUSH2 0x1D76 PUSH1 0x1D DUP4 PUSH2 0x15B2 JUMP JUMPDEST SWAP2 POP PUSH2 0x1D81 DUP3 PUSH2 0x1D42 JUMP JUMPDEST PUSH1 0x20 DUP3 ADD SWAP1 POP SWAP2 SWAP1 POP JUMP JUMPDEST PUSH0 PUSH1 0x20 DUP3 ADD SWAP1 POP DUP2 DUP2 SUB PUSH0 DUP4 ADD MSTORE PUSH2 0x1DA3 DUP2 PUSH2 0x1D6A JUMP JUMPDEST SWAP1 POP SWAP2 SWAP1 POP JUMP JUMPDEST PUSH32 0x4F6E6C792061646D696E2063616E20706572666F726D20746869732061637469 PUSH0 DUP3 ADD MSTORE PUSH32 0x6F6E000000000000000000000000000000000000000000000000000000000000 PUSH1 0x20 DUP3 ADD MSTORE POP JUMP JUMPDEST PUSH0 PUSH2 0x1E04 PUSH1 0x22 DUP4 PUSH2 0x15B2 JUMP JUMPDEST SWAP2 POP PUSH2 0x1E0F DUP3 PUSH2 0x1DAA JUMP JUMPDEST PUSH1 0x40 DUP3 ADD SWAP1 POP SWAP2 SWAP1 POP JUMP JUMPDEST PUSH0 PUSH1 0x20 DUP3 ADD SWAP1 POP DUP2 DUP2 SUB PUSH0 DUP4 ADD MSTORE PUSH2 0x1E31 DUP2 PUSH2 0x1DF8 JUMP JUMPDEST SWAP1 POP SWAP2 SWAP1 POP JUMP JUMPDEST PUSH32 0x526F6C652063616E6E6F7420626520656D707479000000000000000000000000 PUSH0 DUP3 ADD MSTORE POP JUMP JUMPDEST PUSH0 PUSH2 0x1E6C PUSH1 0x14 DUP4 PUSH2 0x15B2 JUMP JUMPDEST SWAP2 POP PUSH2 0x1E77 DUP3 PUSH2 0x1E38 JUMP JUMPDEST PUSH1 0x20 DUP3 ADD SWAP1 POP SWAP2 SWAP1 POP JUMP JUMPDEST PUSH0 PUSH1 0x20 DUP3 ADD SWAP1 POP DUP2 DUP2 SUB PUSH0 DUP4 ADD MSTORE PUSH2 0x1E99 DUP2 PUSH2 0x1E60 JUMP JUMPDEST SWAP1 POP SWAP2 SWAP1 POP JUMP JUMPDEST PUSH32 0x4E487B7100000000000000000000000000000000000000000000000000000000 PUSH0 MSTORE PUSH1 0x32 PUSH1 0x4 MSTORE PUSH1 0x24 PUSH0 REVERT INVALID LOG2 PUSH5 0x6970667358 0x22 SLT KECCAK256 PUSH20 0xC29BC2750870C9041651D6B643EBF775DE204EA7 0xE8 0xD4 POP 0xC 0xD8 0xD8 0x26 LOG1 PUSH16 0x76A864736F6C634300081A0033000000 "
				},
				"gasEstimates": {
					"creation": {
						"codeDepositCost": "1587800",
						"executionCost": "25929",
						"totalCost": "1613729"
					},
					"external": {
						"assignRole(address,string)": "infinite",
						"createDID(string)": "infinite",
						"getDID()": "infinite",
						"getMetadata(address)": "infinite",
						"getRole(address)": "infinite",
						"setMetadata(string,string,string)": "infinite",
						"updateDID(string)": "infinite",
						"verifyRoleCredential(address,string)": "infinite"
					}
				},
				"methodIdentifiers": {
					"assignRole(address,string)": "b7dfcbee",
					"createDID(string)": "3457d3e2",
					"getDID()": "bc9c2d55",
					"getMetadata(address)": "2a50c146",
					"getRole(address)": "44276733",
					"setMetadata(string,string,string)": "0890d80c",
					"updateDID(string)": "14c95832",
					"verifyRoleCredential(address,string)": "e55f67ee"
				}
			},
			"storageLayout": {
				"storage": [
					{
						"astId": 25,
						"contract": "DidRegistry.sol:DIDRegistry",
						"label": "dids",
						"offset": 0,
						"slot": "0",
						"type": "t_mapping(t_address,t_struct(DID)6_storage)"
					},
					{
						"astId": 30,
						"contract": "DidRegistry.sol:DIDRegistry",
						"label": "metadata",
						"offset": 0,
						"slot": "1",
						"type": "t_mapping(t_address,t_struct(Metadata)13_storage)"
					},
					{
						"astId": 34,
						"contract": "DidRegistry.sol:DIDRegistry",
						"label": "roles",
						"offset": 0,
						"slot": "2",
						"type": "t_mapping(t_address,t_string_storage)"
					},
					{
						"astId": 40,
						"contract": "DidRegistry.sol:DIDRegistry",
						"label": "roleHistory",
						"offset": 0,
						"slot": "3",
						"type": "t_mapping(t_address,t_array(t_struct(RoleCredential)20_storage)dyn_storage)"
					},
					{
						"astId": 42,
						"contract": "DidRegistry.sol:DIDRegistry",
						"label": "admin",
						"offset": 0,
						"slot": "4",
						"type": "t_address"
					}
				],
				"types": {
					"t_address": {
						"encoding": "inplace",
						"label": "address",
						"numberOfBytes": "20"
					},
					"t_array(t_struct(RoleCredential)20_storage)dyn_storage": {
						"base": "t_struct(RoleCredential)20_storage",
						"encoding": "dynamic_array",
						"label": "struct DIDRegistry.RoleCredential[]",
						"numberOfBytes": "32"
					},
					"t_mapping(t_address,t_array(t_struct(RoleCredential)20_storage)dyn_storage)": {
						"encoding": "mapping",
						"key": "t_address",
						"label": "mapping(address => struct DIDRegistry.RoleCredential[])",
						"numberOfBytes": "32",
						"value": "t_array(t_struct(RoleCredential)20_storage)dyn_storage"
					},
					"t_mapping(t_address,t_string_storage)": {
						"encoding": "mapping",
						"key": "t_address",
						"label": "mapping(address => string)",
						"numberOfBytes": "32",
						"value": "t_string_storage"
					},
					"t_mapping(t_address,t_struct(DID)6_storage)": {
						"encoding": "mapping",
						"key": "t_address",
						"label": "mapping(address => struct DIDRegistry.DID)",
						"numberOfBytes": "32",
						"value": "t_struct(DID)6_storage"
					},
					"t_mapping(t_address,t_struct(Metadata)13_storage)": {
						"encoding": "mapping",
						"key": "t_address",
						"label": "mapping(address => struct DIDRegistry.Metadata)",
						"numberOfBytes": "32",
						"value": "t_struct(Metadata)13_storage"
					},
					"t_string_storage": {
						"encoding": "bytes",
						"label": "string",
						"numberOfBytes": "32"
					},
					"t_struct(DID)6_storage": {
						"encoding": "inplace",
						"label": "struct DIDRegistry.DID",
						"members": [
							{
								"astId": 3,
								"contract": "DidRegistry.sol:DIDRegistry",
								"label": "identifier",
								"offset": 0,
								"slot": "0",
								"type": "t_string_storage"
							},
							{
								"astId": 5,
								"contract": "DidRegistry.sol:DIDRegistry",
								"label": "owner",
								"offset": 0,
								"slot": "1",
								"type": "t_address"
							}
						],
						"numberOfBytes": "64"
					},
					"t_struct(Metadata)13_storage": {
						"encoding": "inplace",
						"label": "struct DIDRegistry.Metadata",
						"members": [
							{
								"astId": 8,
								"contract": "DidRegistry.sol:DIDRegistry",
								"label": "name",
								"offset": 0,
								"slot": "0",
								"type": "t_string_storage"
							},
							{
								"astId": 10,
								"contract": "DidRegistry.sol:DIDRegistry",
								"label": "email",
								"offset": 0,
								"slot": "1",
								"type": "t_string_storage"
							},
							{
								"astId": 12,
								"contract": "DidRegistry.sol:DIDRegistry",
								"label": "profilePicture",
								"offset": 0,
								"slot": "2",
								"type": "t_string_storage"
							}
						],
						"numberOfBytes": "96"
					},
					"t_struct(RoleCredential)20_storage": {
						"encoding": "inplace",
						"label": "struct DIDRegistry.RoleCredential",
						"members": [
							{
								"astId": 15,
								"contract": "DidRegistry.sol:DIDRegistry",
								"label": "role",
								"offset": 0,
								"slot": "0",
								"type": "t_string_storage"
							},
							{
								"astId": 17,
								"contract": "DidRegistry.sol:DIDRegistry",
								"label": "issuer",
								"offset": 0,
								"slot": "1",
								"type": "t_address"
							},
							{
								"astId": 19,
								"contract": "DidRegistry.sol:DIDRegistry",
								"label": "issuedAt",
								"offset": 0,
								"slot": "2",
								"type": "t_uint256"
							}
						],
						"numberOfBytes": "96"
					},
					"t_uint256": {
						"encoding": "inplace",
						"label": "uint256",
						"numberOfBytes": "32"
					}
				}
			},
			"userdoc": {
				"kind": "user",
				"methods": {},
				"version": 1
			}
		}
	}
}