{
	"DidRegistry.sol": {
		"DIDRegistry": {
			"abi": [
				{
					"inputs": [],
					"stateMutability": "nonpayable",
					"type": "constructor"
				},
				{
					"anonymous": false,
					"inputs": [
						{
							"indexed": true,
							"internalType": "address",
							"name": "owner",
							"type": "address"
						},
						{
							"indexed": false,
							"internalType": "string",
							"name": "identifier",
							"type": "string"
						}
					],
					"name": "DIDCreated",
					"type": "event"
				},
				{
					"anonymous": false,
					"inputs": [
						{
							"indexed": true,
							"internalType": "address",
							"name": "owner",
							"type": "address"
						},
						{
							"indexed": false,
							"internalType": "string",
							"name": "oldIdentifier",
							"type": "string"
						},
						{
							"indexed": false,
							"internalType": "string",
							"name": "newIdentifier",
							"type": "string"
						}
					],
					"name": "DIDUpdated",
					"type": "event"
				},
				{
					"anonymous": false,
					"inputs": [
						{
							"indexed": true,
							"internalType": "address",
							"name": "user",
							"type": "address"
						},
						{
							"indexed": false,
							"internalType": "string",
							"name": "name",
							"type": "string"
						},
						{
							"indexed": false,
							"internalType": "string",
							"name": "email",
							"type": "string"
						},
						{
							"indexed": false,
							"internalType": "string",
							"name": "profilePicture",
							"type": "string"
						}
					],
					"name": "MetadataSet",
					"type": "event"
				},
				{
					"anonymous": false,
					"inputs": [
						{
							"indexed": true,
							"internalType": "address",
							"name": "user",
							"type": "address"
						},
						{
							"indexed": false,
							"internalType": "string",
							"name": "role",
							"type": "string"
						}
					],
					"name": "RoleAssigned",
					"type": "event"
				},
				{
					"anonymous": false,
					"inputs": [
						{
							"indexed": true,
							"internalType": "address",
							"name": "user",
							"type": "address"
						},
						{
							"indexed": false,
							"internalType": "string",
							"name": "role",
							"type": "string"
						},
						{
							"indexed": true,
							"internalType": "address",
							"name": "issuer",
							"type": "address"
						}
					],
					"name": "RoleCredentialIssued",
					"type": "event"
				},
				{
					"inputs": [
						{
							"internalType": "address",
							"name": "_user",
							"type": "address"
						},
						{
							"internalType": "string",
							"name": "_role",
							"type": "string"
						}
					],
					"name": "assignRole",
					"outputs": [],
					"stateMutability": "nonpayable",
					"type": "function"
				},
				{
					"inputs": [
						{
							"internalType": "string",
							"name": "_identifier",
							"type": "string"
						}
					],
					"name": "createDID",
					"outputs": [],
					"stateMutability": "nonpayable",
					"type": "function"
				},
				{
					"inputs": [],
					"name": "getDID",
					"outputs": [
						{
							"internalType": "string",
							"name": "",
							"type": "string"
						}
					],
					"stateMutability": "view",
					"type": "function"
				},
				{
					"inputs": [
						{
							"internalType": "address",
							"name": "_user",
							"type": "address"
						}
					],
					"name": "getMetadata",
					"outputs": [
						{
							"components": [
								{
									"internalType": "string",
									"name": "name",
									"type": "string"
								},
								{
									"internalType": "string",
									"name": "email",
									"type": "string"
								},
								{
									"internalType": "string",
									"name": "profilePicture",
									"type": "string"
								}
							],
							"internalType": "struct DIDRegistry.Metadata",
							"name": "",
							"type": "tuple"
						}
					],
					"stateMutability": "view",
					"type": "function"
				},
				{
					"inputs": [
						{
							"internalType": "address",
							"name": "_user",
							"type": "address"
						}
					],
					"name": "getRole",
					"outputs": [
						{
							"internalType": "string",
							"name": "",
							"type": "string"
						}
					],
					"stateMutability": "view",
					"type": "function"
				},
				{
					"inputs": [
						{
							"internalType": "address",
							"name": "_user",
							"type": "address"
						}
					],
					"name": "getRoleHistory",
					"outputs": [
						{
							"components": [
								{
									"internalType": "string",
									"name": "role",
									"type": "string"
								},
								{
									"internalType": "address",
									"name": "issuer",
									"type": "address"
								},
								{
									"internalType": "uint256",
									"name": "issuedAt",
									"type": "uint256"
								}
							],
							"internalType": "struct DIDRegistry.RoleCredential[]",
							"name": "",
							"type": "tuple[]"
						}
					],
					"stateMutability": "view",
					"type": "function"
				},
				{
					"inputs": [
						{
							"internalType": "string",
							"name": "_name",
							"type": "string"
						},
						{
							"internalType": "string",
							"name": "_email",
							"type": "string"
						},
						{
							"internalType": "string",
							"name": "_profilePicture",
							"type": "string"
						}
					],
					"name": "setMetadata",
					"outputs": [],
					"stateMutability": "nonpayable",
					"type": "function"
				},
				{
					"inputs": [
						{
							"internalType": "string",
							"name": "_newIdentifier",
							"type": "string"
						}
					],
					"name": "updateDID",
					"outputs": [],
					"stateMutability": "nonpayable",
					"type": "function"
				}
			],
			"devdoc": {
				"kind": "dev",
				"methods": {},
				"version": 1
			},
			"evm": {
				"assembly": "    /* \"DidRegistry.sol\":57:4075  contract DIDRegistry {... */\n  mstore(0x40, 0x80)\n    /* \"DidRegistry.sol\":1027:1123  constructor() {... */\n  callvalue\n  dup1\n  iszero\n  tag_1\n  jumpi\n  0x00\n  dup1\n  revert\ntag_1:\n  pop\n    /* \"DidRegistry.sol\":1059:1069  msg.sender */\n  caller\n    /* \"DidRegistry.sol\":1051:1056  admin */\n  0x04\n  0x00\n    /* \"DidRegistry.sol\":1051:1069  admin = msg.sender */\n  0x0100\n  exp\n  dup2\n  sload\n  dup2\n  0xffffffffffffffffffffffffffffffffffffffff\n  mul\n  not\n  and\n  swap1\n  dup4\n  0xffffffffffffffffffffffffffffffffffffffff\n  and\n  mul\n  or\n  swap1\n  sstore\n  pop\n    /* \"DidRegistry.sol\":57:4075  contract DIDRegistry {... */\n  dataSize(sub_0)\n  dup1\n  dataOffset(sub_0)\n  0x00\n  codecopy\n  0x00\n  return\nstop\n\nsub_0: assembly {\n        /* \"DidRegistry.sol\":57:4075  contract DIDRegistry {... */\n      mstore(0x40, 0x80)\n      callvalue\n      dup1\n      iszero\n      tag_1\n      jumpi\n      0x00\n      dup1\n      revert\n    tag_1:\n      pop\n      jumpi(tag_2, lt(calldatasize, 0x04))\n      shr(0xe0, calldataload(0x00))\n      dup1\n      0x44276733\n      gt\n      tag_11\n      jumpi\n      dup1\n      0x44276733\n      eq\n      tag_7\n      jumpi\n      dup1\n      0x6af7915b\n      eq\n      tag_8\n      jumpi\n      dup1\n      0xb7dfcbee\n      eq\n      tag_9\n      jumpi\n      dup1\n      0xbc9c2d55\n      eq\n      tag_10\n      jumpi\n      jump(tag_2)\n    tag_11:\n      dup1\n      0x0890d80c\n      eq\n      tag_3\n      jumpi\n      dup1\n      0x14c95832\n      eq\n      tag_4\n      jumpi\n      dup1\n      0x2a50c146\n      eq\n      tag_5\n      jumpi\n      dup1\n      0x3457d3e2\n      eq\n      tag_6\n      jumpi\n    tag_2:\n      0x00\n      dup1\n      revert\n        /* \"DidRegistry.sol\":3484:3832  function setMetadata(string memory _name, string memory _email, string memory _profilePicture) public {... */\n    tag_3:\n      tag_12\n      0x04\n      dup1\n      calldatasize\n      sub\n      dup2\n      add\n      swap1\n      tag_13\n      swap2\n      swap1\n      tag_14\n      jump\t// in\n    tag_13:\n      tag_15\n      jump\t// in\n    tag_12:\n      stop\n        /* \"DidRegistry.sol\":1892:2458  function updateDID(string memory _newIdentifier) public {... */\n    tag_4:\n      tag_16\n      0x04\n      dup1\n      calldatasize\n      sub\n      dup2\n      add\n      swap1\n      tag_17\n      swap2\n      swap1\n      tag_18\n      jump\t// in\n    tag_17:\n      tag_19\n      jump\t// in\n    tag_16:\n      stop\n        /* \"DidRegistry.sol\":3875:4073  function getMetadata(address _user) public view returns (Metadata memory) {... */\n    tag_5:\n      tag_20\n      0x04\n      dup1\n      calldatasize\n      sub\n      dup2\n      add\n      swap1\n      tag_21\n      swap2\n      swap1\n      tag_22\n      jump\t// in\n    tag_21:\n      tag_23\n      jump\t// in\n    tag_20:\n      mload(0x40)\n      tag_24\n      swap2\n      swap1\n      tag_25\n      jump\t// in\n    tag_24:\n      mload(0x40)\n      dup1\n      swap2\n      sub\n      swap1\n      return\n        /* \"DidRegistry.sol\":1282:1622  function createDID(string memory _identifier) public {... */\n    tag_6:\n      tag_26\n      0x04\n      dup1\n      calldatasize\n      sub\n      dup2\n      add\n      swap1\n      tag_27\n      swap2\n      swap1\n      tag_18\n      jump\t// in\n    tag_27:\n      tag_28\n      jump\t// in\n    tag_26:\n      stop\n        /* \"DidRegistry.sol\":3072:3258  function getRole(address _user) public view returns (string memory) {... */\n    tag_7:\n      tag_29\n      0x04\n      dup1\n      calldatasize\n      sub\n      dup2\n      add\n      swap1\n      tag_30\n      swap2\n      swap1\n      tag_22\n      jump\t// in\n    tag_30:\n      tag_31\n      jump\t// in\n    tag_29:\n      mload(0x40)\n      tag_32\n      swap2\n      swap1\n      tag_33\n      jump\t// in\n    tag_32:\n      mload(0x40)\n      dup1\n      swap2\n      sub\n      swap1\n      return\n        /* \"DidRegistry.sol\":3314:3441  function getRoleHistory(address _user) public view returns (RoleCredential[] memory) {... */\n    tag_8:\n      tag_34\n      0x04\n      dup1\n      calldatasize\n      sub\n      dup2\n      add\n      swap1\n      tag_35\n      swap2\n      swap1\n      tag_22\n      jump\t// in\n    tag_35:\n      tag_36\n      jump\t// in\n    tag_34:\n      mload(0x40)\n      tag_37\n      swap2\n      swap1\n      tag_38\n      jump\t// in\n    tag_37:\n      mload(0x40)\n      dup1\n      swap2\n      sub\n      swap1\n      return\n        /* \"DidRegistry.sol\":2507:3016  function assignRole(address _user, string memory _role) public onlyAdmin {... */\n    tag_9:\n      tag_39\n      0x04\n      dup1\n      calldatasize\n      sub\n      dup2\n      add\n      swap1\n      tag_40\n      swap2\n      swap1\n      tag_41\n      jump\t// in\n    tag_40:\n      tag_42\n      jump\t// in\n    tag_39:\n      stop\n        /* \"DidRegistry.sol\":1659:1852  function getDID() public view returns (string memory) {... */\n    tag_10:\n      tag_43\n      tag_44\n      jump\t// in\n    tag_43:\n      mload(0x40)\n      tag_45\n      swap2\n      swap1\n      tag_33\n      jump\t// in\n    tag_45:\n      mload(0x40)\n      dup1\n      swap2\n      sub\n      swap1\n      return\n        /* \"DidRegistry.sol\":3484:3832  function setMetadata(string memory _name, string memory _email, string memory _profilePicture) public {... */\n    tag_15:\n        /* \"DidRegistry.sol\":3638:3639  0 */\n      0x00\n        /* \"DidRegistry.sol\":3604:3640  dids[msg.sender].owner != address(0) */\n      0xffffffffffffffffffffffffffffffffffffffff\n      and\n        /* \"DidRegistry.sol\":3604:3608  dids */\n      0x00\n        /* \"DidRegistry.sol\":3604:3620  dids[msg.sender] */\n      dup1\n        /* \"DidRegistry.sol\":3609:3619  msg.sender */\n      caller\n        /* \"DidRegistry.sol\":3604:3620  dids[msg.sender] */\n      0xffffffffffffffffffffffffffffffffffffffff\n      and\n      0xffffffffffffffffffffffffffffffffffffffff\n      and\n      dup2\n      mstore\n      0x20\n      add\n      swap1\n      dup2\n      mstore\n      0x20\n      add\n      0x00\n      keccak256\n        /* \"DidRegistry.sol\":3604:3626  dids[msg.sender].owner */\n      0x01\n      add\n      0x00\n      swap1\n      sload\n      swap1\n      0x0100\n      exp\n      swap1\n      div\n      0xffffffffffffffffffffffffffffffffffffffff\n      and\n        /* \"DidRegistry.sol\":3604:3640  dids[msg.sender].owner != address(0) */\n      0xffffffffffffffffffffffffffffffffffffffff\n      and\n      sub\n        /* \"DidRegistry.sol\":3596:3681  require(dids[msg.sender].owner != address(0), \"Create a DID before setting metadata\") */\n      tag_47\n      jumpi\n      mload(0x40)\n      0x08c379a000000000000000000000000000000000000000000000000000000000\n      dup2\n      mstore\n      0x04\n      add\n      tag_48\n      swap1\n      tag_49\n      jump\t// in\n    tag_48:\n      mload(0x40)\n      dup1\n      swap2\n      sub\n      swap1\n      revert\n    tag_47:\n        /* \"DidRegistry.sol\":3714:3754  Metadata(_name, _email, _profilePicture) */\n      mload(0x40)\n      dup1\n      0x60\n      add\n      0x40\n      mstore\n      dup1\n        /* \"DidRegistry.sol\":3723:3728  _name */\n      dup5\n        /* \"DidRegistry.sol\":3714:3754  Metadata(_name, _email, _profilePicture) */\n      dup2\n      mstore\n      0x20\n      add\n        /* \"DidRegistry.sol\":3730:3736  _email */\n      dup4\n        /* \"DidRegistry.sol\":3714:3754  Metadata(_name, _email, _profilePicture) */\n      dup2\n      mstore\n      0x20\n      add\n        /* \"DidRegistry.sol\":3738:3753  _profilePicture */\n      dup3\n        /* \"DidRegistry.sol\":3714:3754  Metadata(_name, _email, _profilePicture) */\n      dup2\n      mstore\n      pop\n        /* \"DidRegistry.sol\":3691:3699  metadata */\n      0x01\n        /* \"DidRegistry.sol\":3691:3711  metadata[msg.sender] */\n      0x00\n        /* \"DidRegistry.sol\":3700:3710  msg.sender */\n      caller\n        /* \"DidRegistry.sol\":3691:3711  metadata[msg.sender] */\n      0xffffffffffffffffffffffffffffffffffffffff\n      and\n      0xffffffffffffffffffffffffffffffffffffffff\n      and\n      dup2\n      mstore\n      0x20\n      add\n      swap1\n      dup2\n      mstore\n      0x20\n      add\n      0x00\n      keccak256\n        /* \"DidRegistry.sol\":3691:3754  metadata[msg.sender] = Metadata(_name, _email, _profilePicture) */\n      0x00\n      dup3\n      add\n      mload\n      dup2\n      0x00\n      add\n      swap1\n      dup2\n      tag_50\n      swap2\n      swap1\n      tag_51\n      jump\t// in\n    tag_50:\n      pop\n      0x20\n      dup3\n      add\n      mload\n      dup2\n      0x01\n      add\n      swap1\n      dup2\n      tag_52\n      swap2\n      swap1\n      tag_51\n      jump\t// in\n    tag_52:\n      pop\n      0x40\n      dup3\n      add\n      mload\n      dup2\n      0x02\n      add\n      swap1\n      dup2\n      tag_53\n      swap2\n      swap1\n      tag_51\n      jump\t// in\n    tag_53:\n      pop\n      swap1\n      pop\n      pop\n        /* \"DidRegistry.sol\":3782:3792  msg.sender */\n      caller\n        /* \"DidRegistry.sol\":3770:3825  MetadataSet(msg.sender, _name, _email, _profilePicture) */\n      0xffffffffffffffffffffffffffffffffffffffff\n      and\n      0xfadb49c18b6d26649f36d814608938985376b6c31251d1cc6df89f6e6dfaae3b\n        /* \"DidRegistry.sol\":3794:3799  _name */\n      dup5\n        /* \"DidRegistry.sol\":3801:3807  _email */\n      dup5\n        /* \"DidRegistry.sol\":3809:3824  _profilePicture */\n      dup5\n        /* \"DidRegistry.sol\":3770:3825  MetadataSet(msg.sender, _name, _email, _profilePicture) */\n      mload(0x40)\n      tag_54\n      swap4\n      swap3\n      swap2\n      swap1\n      tag_55\n      jump\t// in\n    tag_54:\n      mload(0x40)\n      dup1\n      swap2\n      sub\n      swap1\n      log2\n        /* \"DidRegistry.sol\":3484:3832  function setMetadata(string memory _name, string memory _email, string memory _profilePicture) public {... */\n      pop\n      pop\n      pop\n      jump\t// out\n        /* \"DidRegistry.sol\":1892:2458  function updateDID(string memory _newIdentifier) public {... */\n    tag_19:\n        /* \"DidRegistry.sol\":1997:1998  0 */\n      0x00\n        /* \"DidRegistry.sol\":1972:1986  _newIdentifier */\n      dup2\n        /* \"DidRegistry.sol\":1966:1994  bytes(_newIdentifier).length */\n      mload\n        /* \"DidRegistry.sol\":1966:1998  bytes(_newIdentifier).length > 0 */\n      gt\n        /* \"DidRegistry.sol\":1958:2033  require(bytes(_newIdentifier).length > 0, \"New identifier cannot be empty\") */\n      tag_57\n      jumpi\n      mload(0x40)\n      0x08c379a000000000000000000000000000000000000000000000000000000000\n      dup2\n      mstore\n      0x04\n      add\n      tag_58\n      swap1\n      tag_59\n      jump\t// in\n    tag_58:\n      mload(0x40)\n      dup1\n      swap2\n      sub\n      swap1\n      revert\n    tag_57:\n        /* \"DidRegistry.sol\":2085:2086  0 */\n      0x00\n        /* \"DidRegistry.sol\":2051:2087  dids[msg.sender].owner != address(0) */\n      0xffffffffffffffffffffffffffffffffffffffff\n      and\n        /* \"DidRegistry.sol\":2051:2055  dids */\n      0x00\n        /* \"DidRegistry.sol\":2051:2067  dids[msg.sender] */\n      dup1\n        /* \"DidRegistry.sol\":2056:2066  msg.sender */\n      caller\n        /* \"DidRegistry.sol\":2051:2067  dids[msg.sender] */\n      0xffffffffffffffffffffffffffffffffffffffff\n      and\n      0xffffffffffffffffffffffffffffffffffffffff\n      and\n      dup2\n      mstore\n      0x20\n      add\n      swap1\n      dup2\n      mstore\n      0x20\n      add\n      0x00\n      keccak256\n        /* \"DidRegistry.sol\":2051:2073  dids[msg.sender].owner */\n      0x01\n      add\n      0x00\n      swap1\n      sload\n      swap1\n      0x0100\n      exp\n      swap1\n      div\n      0xffffffffffffffffffffffffffffffffffffffff\n      and\n        /* \"DidRegistry.sol\":2051:2087  dids[msg.sender].owner != address(0) */\n      0xffffffffffffffffffffffffffffffffffffffff\n      and\n      sub\n        /* \"DidRegistry.sol\":2043:2121  require(dids[msg.sender].owner != address(0), \"No DID found for this address\") */\n      tag_60\n      jumpi\n      mload(0x40)\n      0x08c379a000000000000000000000000000000000000000000000000000000000\n      dup2\n      mstore\n      0x04\n      add\n      tag_61\n      swap1\n      tag_62\n      jump\t// in\n    tag_61:\n      mload(0x40)\n      dup1\n      swap2\n      sub\n      swap1\n      revert\n    tag_60:\n        /* \"DidRegistry.sol\":2132:2152  string memory oldDID */\n      0x00\n        /* \"DidRegistry.sol\":2155:2163  getDID() */\n      tag_63\n        /* \"DidRegistry.sol\":2155:2161  getDID */\n      tag_44\n        /* \"DidRegistry.sol\":2155:2163  getDID() */\n      jump\t// in\n    tag_63:\n        /* \"DidRegistry.sol\":2132:2163  string memory oldDID = getDID() */\n      swap1\n      pop\n        /* \"DidRegistry.sol\":2238:2252  _newIdentifier */\n      dup2\n        /* \"DidRegistry.sol\":2222:2254  keccak256(bytes(_newIdentifier)) */\n      dup1\n      mload\n      swap1\n      0x20\n      add\n      keccak256\n        /* \"DidRegistry.sol\":2210:2216  oldDID */\n      dup2\n        /* \"DidRegistry.sol\":2194:2218  keccak256(bytes(oldDID)) */\n      dup1\n      mload\n      swap1\n      0x20\n      add\n      keccak256\n        /* \"DidRegistry.sol\":2194:2254  keccak256(bytes(oldDID)) != keccak256(bytes(_newIdentifier)) */\n      sub\n        /* \"DidRegistry.sol\":2173:2334  require(... */\n      tag_64\n      jumpi\n      mload(0x40)\n      0x08c379a000000000000000000000000000000000000000000000000000000000\n      dup2\n      mstore\n      0x04\n      add\n      tag_65\n      swap1\n      tag_66\n      jump\t// in\n    tag_65:\n      mload(0x40)\n      dup1\n      swap2\n      sub\n      swap1\n      revert\n    tag_64:\n        /* \"DidRegistry.sol\":2375:2389  _newIdentifier */\n      dup2\n        /* \"DidRegistry.sol\":2345:2349  dids */\n      0x00\n        /* \"DidRegistry.sol\":2345:2361  dids[msg.sender] */\n      dup1\n        /* \"DidRegistry.sol\":2350:2360  msg.sender */\n      caller\n        /* \"DidRegistry.sol\":2345:2361  dids[msg.sender] */\n      0xffffffffffffffffffffffffffffffffffffffff\n      and\n      0xffffffffffffffffffffffffffffffffffffffff\n      and\n      dup2\n      mstore\n      0x20\n      add\n      swap1\n      dup2\n      mstore\n      0x20\n      add\n      0x00\n      keccak256\n        /* \"DidRegistry.sol\":2345:2372  dids[msg.sender].identifier */\n      0x00\n      add\n        /* \"DidRegistry.sol\":2345:2389  dids[msg.sender].identifier = _newIdentifier */\n      swap1\n      dup2\n      tag_67\n      swap2\n      swap1\n      tag_51\n      jump\t// in\n    tag_67:\n      pop\n        /* \"DidRegistry.sol\":2416:2426  msg.sender */\n      caller\n        /* \"DidRegistry.sol\":2405:2451  DIDUpdated(msg.sender, oldDID, _newIdentifier) */\n      0xffffffffffffffffffffffffffffffffffffffff\n      and\n      0x8a349d0aaf30faae66d032977cc9409a8d7676460eabf8c0947986b5d8a48d8c\n        /* \"DidRegistry.sol\":2428:2434  oldDID */\n      dup3\n        /* \"DidRegistry.sol\":2436:2450  _newIdentifier */\n      dup5\n        /* \"DidRegistry.sol\":2405:2451  DIDUpdated(msg.sender, oldDID, _newIdentifier) */\n      mload(0x40)\n      tag_68\n      swap3\n      swap2\n      swap1\n      tag_69\n      jump\t// in\n    tag_68:\n      mload(0x40)\n      dup1\n      swap2\n      sub\n      swap1\n      log2\n        /* \"DidRegistry.sol\":1948:2458  {... */\n      pop\n        /* \"DidRegistry.sol\":1892:2458  function updateDID(string memory _newIdentifier) public {... */\n      pop\n      jump\t// out\n        /* \"DidRegistry.sol\":3875:4073  function getMetadata(address _user) public view returns (Metadata memory) {... */\n    tag_23:\n        /* \"DidRegistry.sol\":3932:3947  Metadata memory */\n      tag_70\n      tag_71\n      jump\t// in\n    tag_70:\n        /* \"DidRegistry.sol\":3996:3997  0 */\n      0x00\n        /* \"DidRegistry.sol\":3967:3998  dids[_user].owner != address(0) */\n      0xffffffffffffffffffffffffffffffffffffffff\n      and\n        /* \"DidRegistry.sol\":3967:3971  dids */\n      0x00\n        /* \"DidRegistry.sol\":3967:3978  dids[_user] */\n      dup1\n        /* \"DidRegistry.sol\":3972:3977  _user */\n      dup5\n        /* \"DidRegistry.sol\":3967:3978  dids[_user] */\n      0xffffffffffffffffffffffffffffffffffffffff\n      and\n      0xffffffffffffffffffffffffffffffffffffffff\n      and\n      dup2\n      mstore\n      0x20\n      add\n      swap1\n      dup2\n      mstore\n      0x20\n      add\n      0x00\n      keccak256\n        /* \"DidRegistry.sol\":3967:3984  dids[_user].owner */\n      0x01\n      add\n      0x00\n      swap1\n      sload\n      swap1\n      0x0100\n      exp\n      swap1\n      div\n      0xffffffffffffffffffffffffffffffffffffffff\n      and\n        /* \"DidRegistry.sol\":3967:3998  dids[_user].owner != address(0) */\n      0xffffffffffffffffffffffffffffffffffffffff\n      and\n      sub\n        /* \"DidRegistry.sol\":3959:4034  require(dids[_user].owner != address(0), \"No metadata found for this user\") */\n      tag_73\n      jumpi\n      mload(0x40)\n      0x08c379a000000000000000000000000000000000000000000000000000000000\n      dup2\n      mstore\n      0x04\n      add\n      tag_74\n      swap1\n      tag_75\n      jump\t// in\n    tag_74:\n      mload(0x40)\n      dup1\n      swap2\n      sub\n      swap1\n      revert\n    tag_73:\n        /* \"DidRegistry.sol\":4051:4059  metadata */\n      0x01\n        /* \"DidRegistry.sol\":4051:4066  metadata[_user] */\n      0x00\n        /* \"DidRegistry.sol\":4060:4065  _user */\n      dup4\n        /* \"DidRegistry.sol\":4051:4066  metadata[_user] */\n      0xffffffffffffffffffffffffffffffffffffffff\n      and\n      0xffffffffffffffffffffffffffffffffffffffff\n      and\n      dup2\n      mstore\n      0x20\n      add\n      swap1\n      dup2\n      mstore\n      0x20\n      add\n      0x00\n      keccak256\n        /* \"DidRegistry.sol\":4044:4066  return metadata[_user] */\n      mload(0x40)\n      dup1\n      0x60\n      add\n      0x40\n      mstore\n      swap1\n      dup2\n      0x00\n      dup3\n      add\n      dup1\n      sload\n      tag_76\n      swap1\n      tag_77\n      jump\t// in\n    tag_76:\n      dup1\n      0x1f\n      add\n      0x20\n      dup1\n      swap2\n      div\n      mul\n      0x20\n      add\n      mload(0x40)\n      swap1\n      dup2\n      add\n      0x40\n      mstore\n      dup1\n      swap3\n      swap2\n      swap1\n      dup2\n      dup2\n      mstore\n      0x20\n      add\n      dup3\n      dup1\n      sload\n      tag_78\n      swap1\n      tag_77\n      jump\t// in\n    tag_78:\n      dup1\n      iszero\n      tag_79\n      jumpi\n      dup1\n      0x1f\n      lt\n      tag_80\n      jumpi\n      0x0100\n      dup1\n      dup4\n      sload\n      div\n      mul\n      dup4\n      mstore\n      swap2\n      0x20\n      add\n      swap2\n      jump(tag_79)\n    tag_80:\n      dup3\n      add\n      swap2\n      swap1\n      0x00\n      mstore\n      keccak256(0x00, 0x20)\n      swap1\n    tag_81:\n      dup2\n      sload\n      dup2\n      mstore\n      swap1\n      0x01\n      add\n      swap1\n      0x20\n      add\n      dup1\n      dup4\n      gt\n      tag_81\n      jumpi\n      dup3\n      swap1\n      sub\n      0x1f\n      and\n      dup3\n      add\n      swap2\n    tag_79:\n      pop\n      pop\n      pop\n      pop\n      pop\n      dup2\n      mstore\n      0x20\n      add\n      0x01\n      dup3\n      add\n      dup1\n      sload\n      tag_82\n      swap1\n      tag_77\n      jump\t// in\n    tag_82:\n      dup1\n      0x1f\n      add\n      0x20\n      dup1\n      swap2\n      div\n      mul\n      0x20\n      add\n      mload(0x40)\n      swap1\n      dup2\n      add\n      0x40\n      mstore\n      dup1\n      swap3\n      swap2\n      swap1\n      dup2\n      dup2\n      mstore\n      0x20\n      add\n      dup3\n      dup1\n      sload\n      tag_83\n      swap1\n      tag_77\n      jump\t// in\n    tag_83:\n      dup1\n      iszero\n      tag_84\n      jumpi\n      dup1\n      0x1f\n      lt\n      tag_85\n      jumpi\n      0x0100\n      dup1\n      dup4\n      sload\n      div\n      mul\n      dup4\n      mstore\n      swap2\n      0x20\n      add\n      swap2\n      jump(tag_84)\n    tag_85:\n      dup3\n      add\n      swap2\n      swap1\n      0x00\n      mstore\n      keccak256(0x00, 0x20)\n      swap1\n    tag_86:\n      dup2\n      sload\n      dup2\n      mstore\n      swap1\n      0x01\n      add\n      swap1\n      0x20\n      add\n      dup1\n      dup4\n      gt\n      tag_86\n      jumpi\n      dup3\n      swap1\n      sub\n      0x1f\n      and\n      dup3\n      add\n      swap2\n    tag_84:\n      pop\n      pop\n      pop\n      pop\n      pop\n      dup2\n      mstore\n      0x20\n      add\n      0x02\n      dup3\n      add\n      dup1\n      sload\n      tag_87\n      swap1\n      tag_77\n      jump\t// in\n    tag_87:\n      dup1\n      0x1f\n      add\n      0x20\n      dup1\n      swap2\n      div\n      mul\n      0x20\n      add\n      mload(0x40)\n      swap1\n      dup2\n      add\n      0x40\n      mstore\n      dup1\n      swap3\n      swap2\n      swap1\n      dup2\n      dup2\n      mstore\n      0x20\n      add\n      dup3\n      dup1\n      sload\n      tag_88\n      swap1\n      tag_77\n      jump\t// in\n    tag_88:\n      dup1\n      iszero\n      tag_89\n      jumpi\n      dup1\n      0x1f\n      lt\n      tag_90\n      jumpi\n      0x0100\n      dup1\n      dup4\n      sload\n      div\n      mul\n      dup4\n      mstore\n      swap2\n      0x20\n      add\n      swap2\n      jump(tag_89)\n    tag_90:\n      dup3\n      add\n      swap2\n      swap1\n      0x00\n      mstore\n      keccak256(0x00, 0x20)\n      swap1\n    tag_91:\n      dup2\n      sload\n      dup2\n      mstore\n      swap1\n      0x01\n      add\n      swap1\n      0x20\n      add\n      dup1\n      dup4\n      gt\n      tag_91\n      jumpi\n      dup3\n      swap1\n      sub\n      0x1f\n      and\n      dup3\n      add\n      swap2\n    tag_89:\n      pop\n      pop\n      pop\n      pop\n      pop\n      dup2\n      mstore\n      pop\n      pop\n      swap1\n      pop\n        /* \"DidRegistry.sol\":3875:4073  function getMetadata(address _user) public view returns (Metadata memory) {... */\n      swap2\n      swap1\n      pop\n      jump\t// out\n        /* \"DidRegistry.sol\":1282:1622  function createDID(string memory _identifier) public {... */\n    tag_28:\n        /* \"DidRegistry.sol\":1381:1382  0 */\n      0x00\n        /* \"DidRegistry.sol\":1359:1370  _identifier */\n      dup2\n        /* \"DidRegistry.sol\":1353:1378  bytes(_identifier).length */\n      mload\n        /* \"DidRegistry.sol\":1353:1382  bytes(_identifier).length > 0 */\n      gt\n        /* \"DidRegistry.sol\":1345:1413  require(bytes(_identifier).length > 0, \"Identifier cannot be empty\") */\n      tag_93\n      jumpi\n      mload(0x40)\n      0x08c379a000000000000000000000000000000000000000000000000000000000\n      dup2\n      mstore\n      0x04\n      add\n      tag_94\n      swap1\n      tag_95\n      jump\t// in\n    tag_94:\n      mload(0x40)\n      dup1\n      swap2\n      sub\n      swap1\n      revert\n    tag_93:\n        /* \"DidRegistry.sol\":1465:1466  0 */\n      0x00\n        /* \"DidRegistry.sol\":1431:1467  dids[msg.sender].owner == address(0) */\n      0xffffffffffffffffffffffffffffffffffffffff\n      and\n        /* \"DidRegistry.sol\":1431:1435  dids */\n      0x00\n        /* \"DidRegistry.sol\":1431:1447  dids[msg.sender] */\n      dup1\n        /* \"DidRegistry.sol\":1436:1446  msg.sender */\n      caller\n        /* \"DidRegistry.sol\":1431:1447  dids[msg.sender] */\n      0xffffffffffffffffffffffffffffffffffffffff\n      and\n      0xffffffffffffffffffffffffffffffffffffffff\n      and\n      dup2\n      mstore\n      0x20\n      add\n      swap1\n      dup2\n      mstore\n      0x20\n      add\n      0x00\n      keccak256\n        /* \"DidRegistry.sol\":1431:1453  dids[msg.sender].owner */\n      0x01\n      add\n      0x00\n      swap1\n      sload\n      swap1\n      0x0100\n      exp\n      swap1\n      div\n      0xffffffffffffffffffffffffffffffffffffffff\n      and\n        /* \"DidRegistry.sol\":1431:1467  dids[msg.sender].owner == address(0) */\n      0xffffffffffffffffffffffffffffffffffffffff\n      and\n      eq\n        /* \"DidRegistry.sol\":1423:1507  require(dids[msg.sender].owner == address(0), \"DID already exists for this address\") */\n      tag_96\n      jumpi\n      mload(0x40)\n      0x08c379a000000000000000000000000000000000000000000000000000000000\n      dup2\n      mstore\n      0x04\n      add\n      tag_97\n      swap1\n      tag_98\n      jump\t// in\n    tag_97:\n      mload(0x40)\n      dup1\n      swap2\n      sub\n      swap1\n      revert\n    tag_96:\n        /* \"DidRegistry.sol\":1536:1564  DID(_identifier, msg.sender) */\n      mload(0x40)\n      dup1\n      0x40\n      add\n      0x40\n      mstore\n      dup1\n        /* \"DidRegistry.sol\":1540:1551  _identifier */\n      dup3\n        /* \"DidRegistry.sol\":1536:1564  DID(_identifier, msg.sender) */\n      dup2\n      mstore\n      0x20\n      add\n        /* \"DidRegistry.sol\":1553:1563  msg.sender */\n      caller\n        /* \"DidRegistry.sol\":1536:1564  DID(_identifier, msg.sender) */\n      0xffffffffffffffffffffffffffffffffffffffff\n      and\n      dup2\n      mstore\n      pop\n        /* \"DidRegistry.sol\":1517:1521  dids */\n      0x00\n        /* \"DidRegistry.sol\":1517:1533  dids[msg.sender] */\n      dup1\n        /* \"DidRegistry.sol\":1522:1532  msg.sender */\n      caller\n        /* \"DidRegistry.sol\":1517:1533  dids[msg.sender] */\n      0xffffffffffffffffffffffffffffffffffffffff\n      and\n      0xffffffffffffffffffffffffffffffffffffffff\n      and\n      dup2\n      mstore\n      0x20\n      add\n      swap1\n      dup2\n      mstore\n      0x20\n      add\n      0x00\n      keccak256\n        /* \"DidRegistry.sol\":1517:1564  dids[msg.sender] = DID(_identifier, msg.sender) */\n      0x00\n      dup3\n      add\n      mload\n      dup2\n      0x00\n      add\n      swap1\n      dup2\n      tag_99\n      swap2\n      swap1\n      tag_51\n      jump\t// in\n    tag_99:\n      pop\n      0x20\n      dup3\n      add\n      mload\n      dup2\n      0x01\n      add\n      exp(0x0100, 0x00)\n      dup2\n      sload\n      dup2\n      0xffffffffffffffffffffffffffffffffffffffff\n      mul\n      not\n      and\n      swap1\n      dup4\n      0xffffffffffffffffffffffffffffffffffffffff\n      and\n      mul\n      or\n      swap1\n      sstore\n      pop\n      swap1\n      pop\n      pop\n        /* \"DidRegistry.sol\":1591:1601  msg.sender */\n      caller\n        /* \"DidRegistry.sol\":1580:1615  DIDCreated(msg.sender, _identifier) */\n      0xffffffffffffffffffffffffffffffffffffffff\n      and\n      0x1b7934654ba536b6962955e057ce42885353bbaad8c605a5ce0678e632f28410\n        /* \"DidRegistry.sol\":1603:1614  _identifier */\n      dup3\n        /* \"DidRegistry.sol\":1580:1615  DIDCreated(msg.sender, _identifier) */\n      mload(0x40)\n      tag_100\n      swap2\n      swap1\n      tag_33\n      jump\t// in\n    tag_100:\n      mload(0x40)\n      dup1\n      swap2\n      sub\n      swap1\n      log2\n        /* \"DidRegistry.sol\":1282:1622  function createDID(string memory _identifier) public {... */\n      pop\n      jump\t// out\n        /* \"DidRegistry.sol\":3072:3258  function getRole(address _user) public view returns (string memory) {... */\n    tag_31:\n        /* \"DidRegistry.sol\":3125:3138  string memory */\n      0x60\n        /* \"DidRegistry.sol\":3187:3188  0 */\n      0x00\n        /* \"DidRegistry.sol\":3164:3169  roles */\n      0x02\n        /* \"DidRegistry.sol\":3164:3176  roles[_user] */\n      0x00\n        /* \"DidRegistry.sol\":3170:3175  _user */\n      dup5\n        /* \"DidRegistry.sol\":3164:3176  roles[_user] */\n      0xffffffffffffffffffffffffffffffffffffffff\n      and\n      0xffffffffffffffffffffffffffffffffffffffff\n      and\n      dup2\n      mstore\n      0x20\n      add\n      swap1\n      dup2\n      mstore\n      0x20\n      add\n      0x00\n      keccak256\n        /* \"DidRegistry.sol\":3158:3184  bytes(roles[_user]).length */\n      dup1\n      sload\n      tag_102\n      swap1\n      tag_77\n      jump\t// in\n    tag_102:\n      swap1\n      pop\n        /* \"DidRegistry.sol\":3158:3188  bytes(roles[_user]).length > 0 */\n      gt\n        /* \"DidRegistry.sol\":3150:3222  require(bytes(roles[_user]).length > 0, \"No role assigned to this user\") */\n      tag_103\n      jumpi\n      mload(0x40)\n      0x08c379a000000000000000000000000000000000000000000000000000000000\n      dup2\n      mstore\n      0x04\n      add\n      tag_104\n      swap1\n      tag_105\n      jump\t// in\n    tag_104:\n      mload(0x40)\n      dup1\n      swap2\n      sub\n      swap1\n      revert\n    tag_103:\n        /* \"DidRegistry.sol\":3239:3244  roles */\n      0x02\n        /* \"DidRegistry.sol\":3239:3251  roles[_user] */\n      0x00\n        /* \"DidRegistry.sol\":3245:3250  _user */\n      dup4\n        /* \"DidRegistry.sol\":3239:3251  roles[_user] */\n      0xffffffffffffffffffffffffffffffffffffffff\n      and\n      0xffffffffffffffffffffffffffffffffffffffff\n      and\n      dup2\n      mstore\n      0x20\n      add\n      swap1\n      dup2\n      mstore\n      0x20\n      add\n      0x00\n      keccak256\n        /* \"DidRegistry.sol\":3232:3251  return roles[_user] */\n      dup1\n      sload\n      tag_106\n      swap1\n      tag_77\n      jump\t// in\n    tag_106:\n      dup1\n      0x1f\n      add\n      0x20\n      dup1\n      swap2\n      div\n      mul\n      0x20\n      add\n      mload(0x40)\n      swap1\n      dup2\n      add\n      0x40\n      mstore\n      dup1\n      swap3\n      swap2\n      swap1\n      dup2\n      dup2\n      mstore\n      0x20\n      add\n      dup3\n      dup1\n      sload\n      tag_107\n      swap1\n      tag_77\n      jump\t// in\n    tag_107:\n      dup1\n      iszero\n      tag_108\n      jumpi\n      dup1\n      0x1f\n      lt\n      tag_109\n      jumpi\n      0x0100\n      dup1\n      dup4\n      sload\n      div\n      mul\n      dup4\n      mstore\n      swap2\n      0x20\n      add\n      swap2\n      jump(tag_108)\n    tag_109:\n      dup3\n      add\n      swap2\n      swap1\n      0x00\n      mstore\n      keccak256(0x00, 0x20)\n      swap1\n    tag_110:\n      dup2\n      sload\n      dup2\n      mstore\n      swap1\n      0x01\n      add\n      swap1\n      0x20\n      add\n      dup1\n      dup4\n      gt\n      tag_110\n      jumpi\n      dup3\n      swap1\n      sub\n      0x1f\n      and\n      dup3\n      add\n      swap2\n    tag_108:\n      pop\n      pop\n      pop\n      pop\n      pop\n      swap1\n      pop\n        /* \"DidRegistry.sol\":3072:3258  function getRole(address _user) public view returns (string memory) {... */\n      swap2\n      swap1\n      pop\n      jump\t// out\n        /* \"DidRegistry.sol\":3314:3441  function getRoleHistory(address _user) public view returns (RoleCredential[] memory) {... */\n    tag_36:\n        /* \"DidRegistry.sol\":3374:3397  RoleCredential[] memory */\n      0x60\n        /* \"DidRegistry.sol\":3416:3427  roleHistory */\n      0x03\n        /* \"DidRegistry.sol\":3416:3434  roleHistory[_user] */\n      0x00\n        /* \"DidRegistry.sol\":3428:3433  _user */\n      dup4\n        /* \"DidRegistry.sol\":3416:3434  roleHistory[_user] */\n      0xffffffffffffffffffffffffffffffffffffffff\n      and\n      0xffffffffffffffffffffffffffffffffffffffff\n      and\n      dup2\n      mstore\n      0x20\n      add\n      swap1\n      dup2\n      mstore\n      0x20\n      add\n      0x00\n      keccak256\n        /* \"DidRegistry.sol\":3409:3434  return roleHistory[_user] */\n      dup1\n      sload\n      dup1\n      0x20\n      mul\n      0x20\n      add\n      mload(0x40)\n      swap1\n      dup2\n      add\n      0x40\n      mstore\n      dup1\n      swap3\n      swap2\n      swap1\n      dup2\n      dup2\n      mstore\n      0x20\n      add\n      0x00\n      swap1\n    tag_112:\n      dup3\n      dup3\n      lt\n      iszero\n      tag_113\n      jumpi\n      dup4\n      dup3\n      swap1\n      0x00\n      mstore\n      keccak256(0x00, 0x20)\n      swap1\n      0x03\n      mul\n      add\n      mload(0x40)\n      dup1\n      0x60\n      add\n      0x40\n      mstore\n      swap1\n      dup2\n      0x00\n      dup3\n      add\n      dup1\n      sload\n      tag_115\n      swap1\n      tag_77\n      jump\t// in\n    tag_115:\n      dup1\n      0x1f\n      add\n      0x20\n      dup1\n      swap2\n      div\n      mul\n      0x20\n      add\n      mload(0x40)\n      swap1\n      dup2\n      add\n      0x40\n      mstore\n      dup1\n      swap3\n      swap2\n      swap1\n      dup2\n      dup2\n      mstore\n      0x20\n      add\n      dup3\n      dup1\n      sload\n      tag_116\n      swap1\n      tag_77\n      jump\t// in\n    tag_116:\n      dup1\n      iszero\n      tag_117\n      jumpi\n      dup1\n      0x1f\n      lt\n      tag_118\n      jumpi\n      0x0100\n      dup1\n      dup4\n      sload\n      div\n      mul\n      dup4\n      mstore\n      swap2\n      0x20\n      add\n      swap2\n      jump(tag_117)\n    tag_118:\n      dup3\n      add\n      swap2\n      swap1\n      0x00\n      mstore\n      keccak256(0x00, 0x20)\n      swap1\n    tag_119:\n      dup2\n      sload\n      dup2\n      mstore\n      swap1\n      0x01\n      add\n      swap1\n      0x20\n      add\n      dup1\n      dup4\n      gt\n      tag_119\n      jumpi\n      dup3\n      swap1\n      sub\n      0x1f\n      and\n      dup3\n      add\n      swap2\n    tag_117:\n      pop\n      pop\n      pop\n      pop\n      pop\n      dup2\n      mstore\n      0x20\n      add\n      0x01\n      dup3\n      add\n      0x00\n      swap1\n      sload\n      swap1\n      0x0100\n      exp\n      swap1\n      div\n      0xffffffffffffffffffffffffffffffffffffffff\n      and\n      0xffffffffffffffffffffffffffffffffffffffff\n      and\n      0xffffffffffffffffffffffffffffffffffffffff\n      and\n      dup2\n      mstore\n      0x20\n      add\n      0x02\n      dup3\n      add\n      sload\n      dup2\n      mstore\n      pop\n      pop\n      dup2\n      mstore\n      0x20\n      add\n      swap1\n      0x01\n      add\n      swap1\n      jump(tag_112)\n    tag_113:\n      pop\n      pop\n      pop\n      pop\n      swap1\n      pop\n        /* \"DidRegistry.sol\":3314:3441  function getRoleHistory(address _user) public view returns (RoleCredential[] memory) {... */\n      swap2\n      swap1\n      pop\n      jump\t// out\n        /* \"DidRegistry.sol\":2507:3016  function assignRole(address _user, string memory _role) public onlyAdmin {... */\n    tag_42:\n        /* \"DidRegistry.sol\":1182:1187  admin */\n      0x04\n      0x00\n      swap1\n      sload\n      swap1\n      0x0100\n      exp\n      swap1\n      div\n      0xffffffffffffffffffffffffffffffffffffffff\n      and\n        /* \"DidRegistry.sol\":1168:1187  msg.sender == admin */\n      0xffffffffffffffffffffffffffffffffffffffff\n      and\n        /* \"DidRegistry.sol\":1168:1178  msg.sender */\n      caller\n        /* \"DidRegistry.sol\":1168:1187  msg.sender == admin */\n      0xffffffffffffffffffffffffffffffffffffffff\n      and\n      eq\n        /* \"DidRegistry.sol\":1160:1226  require(msg.sender == admin, \"Only admin can perform this action\") */\n      tag_121\n      jumpi\n      mload(0x40)\n      0x08c379a000000000000000000000000000000000000000000000000000000000\n      dup2\n      mstore\n      0x04\n      add\n      tag_122\n      swap1\n      tag_123\n      jump\t// in\n    tag_122:\n      mload(0x40)\n      dup1\n      swap2\n      sub\n      swap1\n      revert\n    tag_121:\n        /* \"DidRegistry.sol\":2620:2621  0 */\n      0x00\n        /* \"DidRegistry.sol\":2604:2609  _role */\n      dup2\n        /* \"DidRegistry.sol\":2598:2617  bytes(_role).length */\n      mload\n        /* \"DidRegistry.sol\":2598:2621  bytes(_role).length > 0 */\n      gt\n        /* \"DidRegistry.sol\":2590:2646  require(bytes(_role).length > 0, \"Role cannot be empty\") */\n      tag_125\n      jumpi\n      mload(0x40)\n      0x08c379a000000000000000000000000000000000000000000000000000000000\n      dup2\n      mstore\n      0x04\n      add\n      tag_126\n      swap1\n      tag_127\n      jump\t// in\n    tag_126:\n      mload(0x40)\n      dup1\n      swap2\n      sub\n      swap1\n      revert\n    tag_125:\n        /* \"DidRegistry.sol\":2702:2707  _role */\n      dup1\n        /* \"DidRegistry.sol\":2687:2692  roles */\n      0x02\n        /* \"DidRegistry.sol\":2687:2699  roles[_user] */\n      0x00\n        /* \"DidRegistry.sol\":2693:2698  _user */\n      dup5\n        /* \"DidRegistry.sol\":2687:2699  roles[_user] */\n      0xffffffffffffffffffffffffffffffffffffffff\n      and\n      0xffffffffffffffffffffffffffffffffffffffff\n      and\n      dup2\n      mstore\n      0x20\n      add\n      swap1\n      dup2\n      mstore\n      0x20\n      add\n      0x00\n      keccak256\n        /* \"DidRegistry.sol\":2687:2707  roles[_user] = _role */\n      swap1\n      dup2\n      tag_128\n      swap2\n      swap1\n      tag_51\n      jump\t// in\n    tag_128:\n      pop\n        /* \"DidRegistry.sol\":2759:2770  roleHistory */\n      0x03\n        /* \"DidRegistry.sol\":2759:2777  roleHistory[_user] */\n      0x00\n        /* \"DidRegistry.sol\":2771:2776  _user */\n      dup4\n        /* \"DidRegistry.sol\":2759:2777  roleHistory[_user] */\n      0xffffffffffffffffffffffffffffffffffffffff\n      and\n      0xffffffffffffffffffffffffffffffffffffffff\n      and\n      dup2\n      mstore\n      0x20\n      add\n      swap1\n      dup2\n      mstore\n      0x20\n      add\n      0x00\n      keccak256\n        /* \"DidRegistry.sol\":2783:2905  RoleCredential({... */\n      mload(0x40)\n      dup1\n      0x60\n      add\n      0x40\n      mstore\n      dup1\n        /* \"DidRegistry.sol\":2818:2823  _role */\n      dup4\n        /* \"DidRegistry.sol\":2783:2905  RoleCredential({... */\n      dup2\n      mstore\n      0x20\n      add\n        /* \"DidRegistry.sol\":2845:2855  msg.sender */\n      caller\n        /* \"DidRegistry.sol\":2783:2905  RoleCredential({... */\n      0xffffffffffffffffffffffffffffffffffffffff\n      and\n      dup2\n      mstore\n      0x20\n      add\n        /* \"DidRegistry.sol\":2879:2894  block.timestamp */\n      timestamp\n        /* \"DidRegistry.sol\":2783:2905  RoleCredential({... */\n      dup2\n      mstore\n      pop\n        /* \"DidRegistry.sol\":2759:2906  roleHistory[_user].push(RoleCredential({... */\n      swap1\n      dup1\n      0x01\n      dup2\n      sload\n      add\n      dup1\n      dup3\n      sstore\n      dup1\n      swap2\n      pop\n      pop\n      0x01\n      swap1\n      sub\n      swap1\n      0x00\n      mstore\n      keccak256(0x00, 0x20)\n      swap1\n      0x03\n      mul\n      add\n      0x00\n      swap1\n      swap2\n      swap1\n      swap2\n      swap1\n      swap2\n      pop\n      0x00\n      dup3\n      add\n      mload\n      dup2\n      0x00\n      add\n      swap1\n      dup2\n      tag_130\n      swap2\n      swap1\n      tag_51\n      jump\t// in\n    tag_130:\n      pop\n      0x20\n      dup3\n      add\n      mload\n      dup2\n      0x01\n      add\n      exp(0x0100, 0x00)\n      dup2\n      sload\n      dup2\n      0xffffffffffffffffffffffffffffffffffffffff\n      mul\n      not\n      and\n      swap1\n      dup4\n      0xffffffffffffffffffffffffffffffffffffffff\n      and\n      mul\n      or\n      swap1\n      sstore\n      pop\n      0x40\n      dup3\n      add\n      mload\n      dup2\n      0x02\n      add\n      sstore\n      pop\n      pop\n        /* \"DidRegistry.sol\":2935:2940  _user */\n      dup2\n        /* \"DidRegistry.sol\":2922:2948  RoleAssigned(_user, _role) */\n      0xffffffffffffffffffffffffffffffffffffffff\n      and\n      0x3565795c2fb8842c21347d277937778bbcfe788b5b4f790fc5e408786cbe9c90\n        /* \"DidRegistry.sol\":2942:2947  _role */\n      dup3\n        /* \"DidRegistry.sol\":2922:2948  RoleAssigned(_user, _role) */\n      mload(0x40)\n      tag_131\n      swap2\n      swap1\n      tag_33\n      jump\t// in\n    tag_131:\n      mload(0x40)\n      dup1\n      swap2\n      sub\n      swap1\n      log2\n        /* \"DidRegistry.sol\":2998:3008  msg.sender */\n      caller\n        /* \"DidRegistry.sol\":2963:3009  RoleCredentialIssued(_user, _role, msg.sender) */\n      0xffffffffffffffffffffffffffffffffffffffff\n      and\n        /* \"DidRegistry.sol\":2984:2989  _user */\n      dup3\n        /* \"DidRegistry.sol\":2963:3009  RoleCredentialIssued(_user, _role, msg.sender) */\n      0xffffffffffffffffffffffffffffffffffffffff\n      and\n      0xf8278b13f43955be7634ed836ccc6a879fa131634947a5f401e817ebb3fddc04\n        /* \"DidRegistry.sol\":2991:2996  _role */\n      dup4\n        /* \"DidRegistry.sol\":2963:3009  RoleCredentialIssued(_user, _role, msg.sender) */\n      mload(0x40)\n      tag_132\n      swap2\n      swap1\n      tag_33\n      jump\t// in\n    tag_132:\n      mload(0x40)\n      dup1\n      swap2\n      sub\n      swap1\n      log3\n        /* \"DidRegistry.sol\":2507:3016  function assignRole(address _user, string memory _role) public onlyAdmin {... */\n      pop\n      pop\n      jump\t// out\n        /* \"DidRegistry.sol\":1659:1852  function getDID() public view returns (string memory) {... */\n    tag_44:\n        /* \"DidRegistry.sol\":1698:1711  string memory */\n      0x60\n        /* \"DidRegistry.sol\":1765:1766  0 */\n      0x00\n        /* \"DidRegistry.sol\":1731:1767  dids[msg.sender].owner != address(0) */\n      0xffffffffffffffffffffffffffffffffffffffff\n      and\n        /* \"DidRegistry.sol\":1731:1735  dids */\n      0x00\n        /* \"DidRegistry.sol\":1731:1747  dids[msg.sender] */\n      dup1\n        /* \"DidRegistry.sol\":1736:1746  msg.sender */\n      caller\n        /* \"DidRegistry.sol\":1731:1747  dids[msg.sender] */\n      0xffffffffffffffffffffffffffffffffffffffff\n      and\n      0xffffffffffffffffffffffffffffffffffffffff\n      and\n      dup2\n      mstore\n      0x20\n      add\n      swap1\n      dup2\n      mstore\n      0x20\n      add\n      0x00\n      keccak256\n        /* \"DidRegistry.sol\":1731:1753  dids[msg.sender].owner */\n      0x01\n      add\n      0x00\n      swap1\n      sload\n      swap1\n      0x0100\n      exp\n      swap1\n      div\n      0xffffffffffffffffffffffffffffffffffffffff\n      and\n        /* \"DidRegistry.sol\":1731:1767  dids[msg.sender].owner != address(0) */\n      0xffffffffffffffffffffffffffffffffffffffff\n      and\n      sub\n        /* \"DidRegistry.sol\":1723:1801  require(dids[msg.sender].owner != address(0), \"No DID found for this address\") */\n      tag_134\n      jumpi\n      mload(0x40)\n      0x08c379a000000000000000000000000000000000000000000000000000000000\n      dup2\n      mstore\n      0x04\n      add\n      tag_135\n      swap1\n      tag_62\n      jump\t// in\n    tag_135:\n      mload(0x40)\n      dup1\n      swap2\n      sub\n      swap1\n      revert\n    tag_134:\n        /* \"DidRegistry.sol\":1818:1822  dids */\n      0x00\n        /* \"DidRegistry.sol\":1818:1834  dids[msg.sender] */\n      dup1\n        /* \"DidRegistry.sol\":1823:1833  msg.sender */\n      caller\n        /* \"DidRegistry.sol\":1818:1834  dids[msg.sender] */\n      0xffffffffffffffffffffffffffffffffffffffff\n      and\n      0xffffffffffffffffffffffffffffffffffffffff\n      and\n      dup2\n      mstore\n      0x20\n      add\n      swap1\n      dup2\n      mstore\n      0x20\n      add\n      0x00\n      keccak256\n        /* \"DidRegistry.sol\":1818:1845  dids[msg.sender].identifier */\n      0x00\n      add\n        /* \"DidRegistry.sol\":1811:1845  return dids[msg.sender].identifier */\n      dup1\n      sload\n      tag_136\n      swap1\n      tag_77\n      jump\t// in\n    tag_136:\n      dup1\n      0x1f\n      add\n      0x20\n      dup1\n      swap2\n      div\n      mul\n      0x20\n      add\n      mload(0x40)\n      swap1\n      dup2\n      add\n      0x40\n      mstore\n      dup1\n      swap3\n      swap2\n      swap1\n      dup2\n      dup2\n      mstore\n      0x20\n      add\n      dup3\n      dup1\n      sload\n      tag_137\n      swap1\n      tag_77\n      jump\t// in\n    tag_137:\n      dup1\n      iszero\n      tag_138\n      jumpi\n      dup1\n      0x1f\n      lt\n      tag_139\n      jumpi\n      0x0100\n      dup1\n      dup4\n      sload\n      div\n      mul\n      dup4\n      mstore\n      swap2\n      0x20\n      add\n      swap2\n      jump(tag_138)\n    tag_139:\n      dup3\n      add\n      swap2\n      swap1\n      0x00\n      mstore\n      keccak256(0x00, 0x20)\n      swap1\n    tag_140:\n      dup2\n      sload\n      dup2\n      mstore\n      swap1\n      0x01\n      add\n      swap1\n      0x20\n      add\n      dup1\n      dup4\n      gt\n      tag_140\n      jumpi\n      dup3\n      swap1\n      sub\n      0x1f\n      and\n      dup3\n      add\n      swap2\n    tag_138:\n      pop\n      pop\n      pop\n      pop\n      pop\n      swap1\n      pop\n        /* \"DidRegistry.sol\":1659:1852  function getDID() public view returns (string memory) {... */\n      swap1\n      jump\t// out\n    tag_71:\n      mload(0x40)\n      dup1\n      0x60\n      add\n      0x40\n      mstore\n      dup1\n      0x60\n      dup2\n      mstore\n      0x20\n      add\n      0x60\n      dup2\n      mstore\n      0x20\n      add\n      0x60\n      dup2\n      mstore\n      pop\n      swap1\n      jump\t// out\n        /* \"#utility.yul\":7:82   */\n    tag_141:\n        /* \"#utility.yul\":40:46   */\n      0x00\n        /* \"#utility.yul\":73:75   */\n      0x40\n        /* \"#utility.yul\":67:76   */\n      mload\n        /* \"#utility.yul\":57:76   */\n      swap1\n      pop\n        /* \"#utility.yul\":7:82   */\n      swap1\n      jump\t// out\n        /* \"#utility.yul\":88:205   */\n    tag_142:\n        /* \"#utility.yul\":197:198   */\n      0x00\n        /* \"#utility.yul\":194:195   */\n      dup1\n        /* \"#utility.yul\":187:199   */\n      revert\n        /* \"#utility.yul\":211:328   */\n    tag_143:\n        /* \"#utility.yul\":320:321   */\n      0x00\n        /* \"#utility.yul\":317:318   */\n      dup1\n        /* \"#utility.yul\":310:322   */\n      revert\n        /* \"#utility.yul\":334:451   */\n    tag_144:\n        /* \"#utility.yul\":443:444   */\n      0x00\n        /* \"#utility.yul\":440:441   */\n      dup1\n        /* \"#utility.yul\":433:445   */\n      revert\n        /* \"#utility.yul\":457:574   */\n    tag_145:\n        /* \"#utility.yul\":566:567   */\n      0x00\n        /* \"#utility.yul\":563:564   */\n      dup1\n        /* \"#utility.yul\":556:568   */\n      revert\n        /* \"#utility.yul\":580:682   */\n    tag_146:\n        /* \"#utility.yul\":621:627   */\n      0x00\n        /* \"#utility.yul\":672:674   */\n      0x1f\n        /* \"#utility.yul\":668:675   */\n      not\n        /* \"#utility.yul\":663:665   */\n      0x1f\n        /* \"#utility.yul\":656:661   */\n      dup4\n        /* \"#utility.yul\":652:666   */\n      add\n        /* \"#utility.yul\":648:676   */\n      and\n        /* \"#utility.yul\":638:676   */\n      swap1\n      pop\n        /* \"#utility.yul\":580:682   */\n      swap2\n      swap1\n      pop\n      jump\t// out\n        /* \"#utility.yul\":688:868   */\n    tag_147:\n        /* \"#utility.yul\":736:813   */\n      0x4e487b7100000000000000000000000000000000000000000000000000000000\n        /* \"#utility.yul\":733:734   */\n      0x00\n        /* \"#utility.yul\":726:814   */\n      mstore\n        /* \"#utility.yul\":833:837   */\n      0x41\n        /* \"#utility.yul\":830:831   */\n      0x04\n        /* \"#utility.yul\":823:838   */\n      mstore\n        /* \"#utility.yul\":857:861   */\n      0x24\n        /* \"#utility.yul\":854:855   */\n      0x00\n        /* \"#utility.yul\":847:862   */\n      revert\n        /* \"#utility.yul\":874:1155   */\n    tag_148:\n        /* \"#utility.yul\":957:984   */\n      tag_220\n        /* \"#utility.yul\":979:983   */\n      dup3\n        /* \"#utility.yul\":957:984   */\n      tag_146\n      jump\t// in\n    tag_220:\n        /* \"#utility.yul\":949:955   */\n      dup2\n        /* \"#utility.yul\":945:985   */\n      add\n        /* \"#utility.yul\":1087:1093   */\n      dup2\n        /* \"#utility.yul\":1075:1085   */\n      dup2\n        /* \"#utility.yul\":1072:1094   */\n      lt\n        /* \"#utility.yul\":1051:1069   */\n      0xffffffffffffffff\n        /* \"#utility.yul\":1039:1049   */\n      dup3\n        /* \"#utility.yul\":1036:1070   */\n      gt\n        /* \"#utility.yul\":1033:1095   */\n      or\n        /* \"#utility.yul\":1030:1118   */\n      iszero\n      tag_221\n      jumpi\n        /* \"#utility.yul\":1098:1116   */\n      tag_222\n      tag_147\n      jump\t// in\n    tag_222:\n        /* \"#utility.yul\":1030:1118   */\n    tag_221:\n        /* \"#utility.yul\":1138:1148   */\n      dup1\n        /* \"#utility.yul\":1134:1136   */\n      0x40\n        /* \"#utility.yul\":1127:1149   */\n      mstore\n        /* \"#utility.yul\":917:1155   */\n      pop\n        /* \"#utility.yul\":874:1155   */\n      pop\n      pop\n      jump\t// out\n        /* \"#utility.yul\":1161:1290   */\n    tag_149:\n        /* \"#utility.yul\":1195:1201   */\n      0x00\n        /* \"#utility.yul\":1222:1242   */\n      tag_224\n      tag_141\n      jump\t// in\n    tag_224:\n        /* \"#utility.yul\":1212:1242   */\n      swap1\n      pop\n        /* \"#utility.yul\":1251:1284   */\n      tag_225\n        /* \"#utility.yul\":1279:1283   */\n      dup3\n        /* \"#utility.yul\":1271:1277   */\n      dup3\n        /* \"#utility.yul\":1251:1284   */\n      tag_148\n      jump\t// in\n    tag_225:\n        /* \"#utility.yul\":1161:1290   */\n      swap2\n      swap1\n      pop\n      jump\t// out\n        /* \"#utility.yul\":1296:1604   */\n    tag_150:\n        /* \"#utility.yul\":1358:1362   */\n      0x00\n        /* \"#utility.yul\":1448:1466   */\n      0xffffffffffffffff\n        /* \"#utility.yul\":1440:1446   */\n      dup3\n        /* \"#utility.yul\":1437:1467   */\n      gt\n        /* \"#utility.yul\":1434:1490   */\n      iszero\n      tag_227\n      jumpi\n        /* \"#utility.yul\":1470:1488   */\n      tag_228\n      tag_147\n      jump\t// in\n    tag_228:\n        /* \"#utility.yul\":1434:1490   */\n    tag_227:\n        /* \"#utility.yul\":1508:1537   */\n      tag_229\n        /* \"#utility.yul\":1530:1536   */\n      dup3\n        /* \"#utility.yul\":1508:1537   */\n      tag_146\n      jump\t// in\n    tag_229:\n        /* \"#utility.yul\":1500:1537   */\n      swap1\n      pop\n        /* \"#utility.yul\":1592:1596   */\n      0x20\n        /* \"#utility.yul\":1586:1590   */\n      dup2\n        /* \"#utility.yul\":1582:1597   */\n      add\n        /* \"#utility.yul\":1574:1597   */\n      swap1\n      pop\n        /* \"#utility.yul\":1296:1604   */\n      swap2\n      swap1\n      pop\n      jump\t// out\n        /* \"#utility.yul\":1610:1758   */\n    tag_151:\n        /* \"#utility.yul\":1708:1714   */\n      dup3\n        /* \"#utility.yul\":1703:1706   */\n      dup2\n        /* \"#utility.yul\":1698:1701   */\n      dup4\n        /* \"#utility.yul\":1685:1715   */\n      calldatacopy\n        /* \"#utility.yul\":1749:1750   */\n      0x00\n        /* \"#utility.yul\":1740:1746   */\n      dup4\n        /* \"#utility.yul\":1735:1738   */\n      dup4\n        /* \"#utility.yul\":1731:1747   */\n      add\n        /* \"#utility.yul\":1724:1751   */\n      mstore\n        /* \"#utility.yul\":1610:1758   */\n      pop\n      pop\n      pop\n      jump\t// out\n        /* \"#utility.yul\":1764:2189   */\n    tag_152:\n        /* \"#utility.yul\":1842:1847   */\n      0x00\n        /* \"#utility.yul\":1867:1933   */\n      tag_232\n        /* \"#utility.yul\":1883:1932   */\n      tag_233\n        /* \"#utility.yul\":1925:1931   */\n      dup5\n        /* \"#utility.yul\":1883:1932   */\n      tag_150\n      jump\t// in\n    tag_233:\n        /* \"#utility.yul\":1867:1933   */\n      tag_149\n      jump\t// in\n    tag_232:\n        /* \"#utility.yul\":1858:1933   */\n      swap1\n      pop\n        /* \"#utility.yul\":1956:1962   */\n      dup3\n        /* \"#utility.yul\":1949:1954   */\n      dup2\n        /* \"#utility.yul\":1942:1963   */\n      mstore\n        /* \"#utility.yul\":1994:1998   */\n      0x20\n        /* \"#utility.yul\":1987:1992   */\n      dup2\n        /* \"#utility.yul\":1983:1999   */\n      add\n        /* \"#utility.yul\":2032:2035   */\n      dup5\n        /* \"#utility.yul\":2023:2029   */\n      dup5\n        /* \"#utility.yul\":2018:2021   */\n      dup5\n        /* \"#utility.yul\":2014:2030   */\n      add\n        /* \"#utility.yul\":2011:2036   */\n      gt\n        /* \"#utility.yul\":2008:2120   */\n      iszero\n      tag_234\n      jumpi\n        /* \"#utility.yul\":2039:2118   */\n      tag_235\n      tag_145\n      jump\t// in\n    tag_235:\n        /* \"#utility.yul\":2008:2120   */\n    tag_234:\n        /* \"#utility.yul\":2129:2183   */\n      tag_236\n        /* \"#utility.yul\":2176:2182   */\n      dup5\n        /* \"#utility.yul\":2171:2174   */\n      dup3\n        /* \"#utility.yul\":2166:2169   */\n      dup6\n        /* \"#utility.yul\":2129:2183   */\n      tag_151\n      jump\t// in\n    tag_236:\n        /* \"#utility.yul\":1848:2189   */\n      pop\n        /* \"#utility.yul\":1764:2189   */\n      swap4\n      swap3\n      pop\n      pop\n      pop\n      jump\t// out\n        /* \"#utility.yul\":2209:2549   */\n    tag_153:\n        /* \"#utility.yul\":2265:2270   */\n      0x00\n        /* \"#utility.yul\":2314:2317   */\n      dup3\n        /* \"#utility.yul\":2307:2311   */\n      0x1f\n        /* \"#utility.yul\":2299:2305   */\n      dup4\n        /* \"#utility.yul\":2295:2312   */\n      add\n        /* \"#utility.yul\":2291:2318   */\n      slt\n        /* \"#utility.yul\":2281:2403   */\n      tag_238\n      jumpi\n        /* \"#utility.yul\":2322:2401   */\n      tag_239\n      tag_144\n      jump\t// in\n    tag_239:\n        /* \"#utility.yul\":2281:2403   */\n    tag_238:\n        /* \"#utility.yul\":2439:2445   */\n      dup2\n        /* \"#utility.yul\":2426:2446   */\n      calldataload\n        /* \"#utility.yul\":2464:2543   */\n      tag_240\n        /* \"#utility.yul\":2539:2542   */\n      dup5\n        /* \"#utility.yul\":2531:2537   */\n      dup3\n        /* \"#utility.yul\":2524:2528   */\n      0x20\n        /* \"#utility.yul\":2516:2522   */\n      dup7\n        /* \"#utility.yul\":2512:2529   */\n      add\n        /* \"#utility.yul\":2464:2543   */\n      tag_152\n      jump\t// in\n    tag_240:\n        /* \"#utility.yul\":2455:2543   */\n      swap2\n      pop\n        /* \"#utility.yul\":2271:2549   */\n      pop\n        /* \"#utility.yul\":2209:2549   */\n      swap3\n      swap2\n      pop\n      pop\n      jump\t// out\n        /* \"#utility.yul\":2555:3714   */\n    tag_14:\n        /* \"#utility.yul\":2662:2668   */\n      0x00\n        /* \"#utility.yul\":2670:2676   */\n      dup1\n        /* \"#utility.yul\":2678:2684   */\n      0x00\n        /* \"#utility.yul\":2727:2729   */\n      0x60\n        /* \"#utility.yul\":2715:2724   */\n      dup5\n        /* \"#utility.yul\":2706:2713   */\n      dup7\n        /* \"#utility.yul\":2702:2725   */\n      sub\n        /* \"#utility.yul\":2698:2730   */\n      slt\n        /* \"#utility.yul\":2695:2814   */\n      iszero\n      tag_242\n      jumpi\n        /* \"#utility.yul\":2733:2812   */\n      tag_243\n      tag_142\n      jump\t// in\n    tag_243:\n        /* \"#utility.yul\":2695:2814   */\n    tag_242:\n        /* \"#utility.yul\":2881:2882   */\n      0x00\n        /* \"#utility.yul\":2870:2879   */\n      dup5\n        /* \"#utility.yul\":2866:2883   */\n      add\n        /* \"#utility.yul\":2853:2884   */\n      calldataload\n        /* \"#utility.yul\":2911:2929   */\n      0xffffffffffffffff\n        /* \"#utility.yul\":2903:2909   */\n      dup2\n        /* \"#utility.yul\":2900:2930   */\n      gt\n        /* \"#utility.yul\":2897:3014   */\n      iszero\n      tag_244\n      jumpi\n        /* \"#utility.yul\":2933:3012   */\n      tag_245\n      tag_143\n      jump\t// in\n    tag_245:\n        /* \"#utility.yul\":2897:3014   */\n    tag_244:\n        /* \"#utility.yul\":3038:3101   */\n      tag_246\n        /* \"#utility.yul\":3093:3100   */\n      dup7\n        /* \"#utility.yul\":3084:3090   */\n      dup3\n        /* \"#utility.yul\":3073:3082   */\n      dup8\n        /* \"#utility.yul\":3069:3091   */\n      add\n        /* \"#utility.yul\":3038:3101   */\n      tag_153\n      jump\t// in\n    tag_246:\n        /* \"#utility.yul\":3028:3101   */\n      swap4\n      pop\n        /* \"#utility.yul\":2824:3111   */\n      pop\n        /* \"#utility.yul\":3178:3180   */\n      0x20\n        /* \"#utility.yul\":3167:3176   */\n      dup5\n        /* \"#utility.yul\":3163:3181   */\n      add\n        /* \"#utility.yul\":3150:3182   */\n      calldataload\n        /* \"#utility.yul\":3209:3227   */\n      0xffffffffffffffff\n        /* \"#utility.yul\":3201:3207   */\n      dup2\n        /* \"#utility.yul\":3198:3228   */\n      gt\n        /* \"#utility.yul\":3195:3312   */\n      iszero\n      tag_247\n      jumpi\n        /* \"#utility.yul\":3231:3310   */\n      tag_248\n      tag_143\n      jump\t// in\n    tag_248:\n        /* \"#utility.yul\":3195:3312   */\n    tag_247:\n        /* \"#utility.yul\":3336:3399   */\n      tag_249\n        /* \"#utility.yul\":3391:3398   */\n      dup7\n        /* \"#utility.yul\":3382:3388   */\n      dup3\n        /* \"#utility.yul\":3371:3380   */\n      dup8\n        /* \"#utility.yul\":3367:3389   */\n      add\n        /* \"#utility.yul\":3336:3399   */\n      tag_153\n      jump\t// in\n    tag_249:\n        /* \"#utility.yul\":3326:3399   */\n      swap3\n      pop\n        /* \"#utility.yul\":3121:3409   */\n      pop\n        /* \"#utility.yul\":3476:3478   */\n      0x40\n        /* \"#utility.yul\":3465:3474   */\n      dup5\n        /* \"#utility.yul\":3461:3479   */\n      add\n        /* \"#utility.yul\":3448:3480   */\n      calldataload\n        /* \"#utility.yul\":3507:3525   */\n      0xffffffffffffffff\n        /* \"#utility.yul\":3499:3505   */\n      dup2\n        /* \"#utility.yul\":3496:3526   */\n      gt\n        /* \"#utility.yul\":3493:3610   */\n      iszero\n      tag_250\n      jumpi\n        /* \"#utility.yul\":3529:3608   */\n      tag_251\n      tag_143\n      jump\t// in\n    tag_251:\n        /* \"#utility.yul\":3493:3610   */\n    tag_250:\n        /* \"#utility.yul\":3634:3697   */\n      tag_252\n        /* \"#utility.yul\":3689:3696   */\n      dup7\n        /* \"#utility.yul\":3680:3686   */\n      dup3\n        /* \"#utility.yul\":3669:3678   */\n      dup8\n        /* \"#utility.yul\":3665:3687   */\n      add\n        /* \"#utility.yul\":3634:3697   */\n      tag_153\n      jump\t// in\n    tag_252:\n        /* \"#utility.yul\":3624:3697   */\n      swap2\n      pop\n        /* \"#utility.yul\":3419:3707   */\n      pop\n        /* \"#utility.yul\":2555:3714   */\n      swap3\n      pop\n      swap3\n      pop\n      swap3\n      jump\t// out\n        /* \"#utility.yul\":3720:4229   */\n    tag_18:\n        /* \"#utility.yul\":3789:3795   */\n      0x00\n        /* \"#utility.yul\":3838:3840   */\n      0x20\n        /* \"#utility.yul\":3826:3835   */\n      dup3\n        /* \"#utility.yul\":3817:3824   */\n      dup5\n        /* \"#utility.yul\":3813:3836   */\n      sub\n        /* \"#utility.yul\":3809:3841   */\n      slt\n        /* \"#utility.yul\":3806:3925   */\n      iszero\n      tag_254\n      jumpi\n        /* \"#utility.yul\":3844:3923   */\n      tag_255\n      tag_142\n      jump\t// in\n    tag_255:\n        /* \"#utility.yul\":3806:3925   */\n    tag_254:\n        /* \"#utility.yul\":3992:3993   */\n      0x00\n        /* \"#utility.yul\":3981:3990   */\n      dup3\n        /* \"#utility.yul\":3977:3994   */\n      add\n        /* \"#utility.yul\":3964:3995   */\n      calldataload\n        /* \"#utility.yul\":4022:4040   */\n      0xffffffffffffffff\n        /* \"#utility.yul\":4014:4020   */\n      dup2\n        /* \"#utility.yul\":4011:4041   */\n      gt\n        /* \"#utility.yul\":4008:4125   */\n      iszero\n      tag_256\n      jumpi\n        /* \"#utility.yul\":4044:4123   */\n      tag_257\n      tag_143\n      jump\t// in\n    tag_257:\n        /* \"#utility.yul\":4008:4125   */\n    tag_256:\n        /* \"#utility.yul\":4149:4212   */\n      tag_258\n        /* \"#utility.yul\":4204:4211   */\n      dup5\n        /* \"#utility.yul\":4195:4201   */\n      dup3\n        /* \"#utility.yul\":4184:4193   */\n      dup6\n        /* \"#utility.yul\":4180:4202   */\n      add\n        /* \"#utility.yul\":4149:4212   */\n      tag_153\n      jump\t// in\n    tag_258:\n        /* \"#utility.yul\":4139:4212   */\n      swap2\n      pop\n        /* \"#utility.yul\":3935:4222   */\n      pop\n        /* \"#utility.yul\":3720:4229   */\n      swap3\n      swap2\n      pop\n      pop\n      jump\t// out\n        /* \"#utility.yul\":4235:4361   */\n    tag_154:\n        /* \"#utility.yul\":4272:4279   */\n      0x00\n        /* \"#utility.yul\":4312:4354   */\n      0xffffffffffffffffffffffffffffffffffffffff\n        /* \"#utility.yul\":4305:4310   */\n      dup3\n        /* \"#utility.yul\":4301:4355   */\n      and\n        /* \"#utility.yul\":4290:4355   */\n      swap1\n      pop\n        /* \"#utility.yul\":4235:4361   */\n      swap2\n      swap1\n      pop\n      jump\t// out\n        /* \"#utility.yul\":4367:4463   */\n    tag_155:\n        /* \"#utility.yul\":4404:4411   */\n      0x00\n        /* \"#utility.yul\":4433:4457   */\n      tag_261\n        /* \"#utility.yul\":4451:4456   */\n      dup3\n        /* \"#utility.yul\":4433:4457   */\n      tag_154\n      jump\t// in\n    tag_261:\n        /* \"#utility.yul\":4422:4457   */\n      swap1\n      pop\n        /* \"#utility.yul\":4367:4463   */\n      swap2\n      swap1\n      pop\n      jump\t// out\n        /* \"#utility.yul\":4469:4591   */\n    tag_156:\n        /* \"#utility.yul\":4542:4566   */\n      tag_263\n        /* \"#utility.yul\":4560:4565   */\n      dup2\n        /* \"#utility.yul\":4542:4566   */\n      tag_155\n      jump\t// in\n    tag_263:\n        /* \"#utility.yul\":4535:4540   */\n      dup2\n        /* \"#utility.yul\":4532:4567   */\n      eq\n        /* \"#utility.yul\":4522:4585   */\n      tag_264\n      jumpi\n        /* \"#utility.yul\":4581:4582   */\n      0x00\n        /* \"#utility.yul\":4578:4579   */\n      dup1\n        /* \"#utility.yul\":4571:4583   */\n      revert\n        /* \"#utility.yul\":4522:4585   */\n    tag_264:\n        /* \"#utility.yul\":4469:4591   */\n      pop\n      jump\t// out\n        /* \"#utility.yul\":4597:4736   */\n    tag_157:\n        /* \"#utility.yul\":4643:4648   */\n      0x00\n        /* \"#utility.yul\":4681:4687   */\n      dup2\n        /* \"#utility.yul\":4668:4688   */\n      calldataload\n        /* \"#utility.yul\":4659:4688   */\n      swap1\n      pop\n        /* \"#utility.yul\":4697:4730   */\n      tag_266\n        /* \"#utility.yul\":4724:4729   */\n      dup2\n        /* \"#utility.yul\":4697:4730   */\n      tag_156\n      jump\t// in\n    tag_266:\n        /* \"#utility.yul\":4597:4736   */\n      swap3\n      swap2\n      pop\n      pop\n      jump\t// out\n        /* \"#utility.yul\":4742:5071   */\n    tag_22:\n        /* \"#utility.yul\":4801:4807   */\n      0x00\n        /* \"#utility.yul\":4850:4852   */\n      0x20\n        /* \"#utility.yul\":4838:4847   */\n      dup3\n        /* \"#utility.yul\":4829:4836   */\n      dup5\n        /* \"#utility.yul\":4825:4848   */\n      sub\n        /* \"#utility.yul\":4821:4853   */\n      slt\n        /* \"#utility.yul\":4818:4937   */\n      iszero\n      tag_268\n      jumpi\n        /* \"#utility.yul\":4856:4935   */\n      tag_269\n      tag_142\n      jump\t// in\n    tag_269:\n        /* \"#utility.yul\":4818:4937   */\n    tag_268:\n        /* \"#utility.yul\":4976:4977   */\n      0x00\n        /* \"#utility.yul\":5001:5054   */\n      tag_270\n        /* \"#utility.yul\":5046:5053   */\n      dup5\n        /* \"#utility.yul\":5037:5043   */\n      dup3\n        /* \"#utility.yul\":5026:5035   */\n      dup6\n        /* \"#utility.yul\":5022:5044   */\n      add\n        /* \"#utility.yul\":5001:5054   */\n      tag_157\n      jump\t// in\n    tag_270:\n        /* \"#utility.yul\":4991:5054   */\n      swap2\n      pop\n        /* \"#utility.yul\":4947:5064   */\n      pop\n        /* \"#utility.yul\":4742:5071   */\n      swap3\n      swap2\n      pop\n      pop\n      jump\t// out\n        /* \"#utility.yul\":5077:5176   */\n    tag_158:\n        /* \"#utility.yul\":5129:5135   */\n      0x00\n        /* \"#utility.yul\":5163:5168   */\n      dup2\n        /* \"#utility.yul\":5157:5169   */\n      mload\n        /* \"#utility.yul\":5147:5169   */\n      swap1\n      pop\n        /* \"#utility.yul\":5077:5176   */\n      swap2\n      swap1\n      pop\n      jump\t// out\n        /* \"#utility.yul\":5182:5341   */\n    tag_159:\n        /* \"#utility.yul\":5256:5267   */\n      0x00\n        /* \"#utility.yul\":5290:5296   */\n      dup3\n        /* \"#utility.yul\":5285:5288   */\n      dup3\n        /* \"#utility.yul\":5278:5297   */\n      mstore\n        /* \"#utility.yul\":5330:5334   */\n      0x20\n        /* \"#utility.yul\":5325:5328   */\n      dup3\n        /* \"#utility.yul\":5321:5335   */\n      add\n        /* \"#utility.yul\":5306:5335   */\n      swap1\n      pop\n        /* \"#utility.yul\":5182:5341   */\n      swap3\n      swap2\n      pop\n      pop\n      jump\t// out\n        /* \"#utility.yul\":5347:5486   */\n    tag_160:\n        /* \"#utility.yul\":5436:5442   */\n      dup3\n        /* \"#utility.yul\":5431:5434   */\n      dup2\n        /* \"#utility.yul\":5426:5429   */\n      dup4\n        /* \"#utility.yul\":5420:5443   */\n      mcopy\n        /* \"#utility.yul\":5477:5478   */\n      0x00\n        /* \"#utility.yul\":5468:5474   */\n      dup4\n        /* \"#utility.yul\":5463:5466   */\n      dup4\n        /* \"#utility.yul\":5459:5475   */\n      add\n        /* \"#utility.yul\":5452:5479   */\n      mstore\n        /* \"#utility.yul\":5347:5486   */\n      pop\n      pop\n      pop\n      jump\t// out\n        /* \"#utility.yul\":5492:5849   */\n    tag_161:\n        /* \"#utility.yul\":5570:5573   */\n      0x00\n        /* \"#utility.yul\":5598:5637   */\n      tag_275\n        /* \"#utility.yul\":5631:5636   */\n      dup3\n        /* \"#utility.yul\":5598:5637   */\n      tag_158\n      jump\t// in\n    tag_275:\n        /* \"#utility.yul\":5653:5714   */\n      tag_276\n        /* \"#utility.yul\":5707:5713   */\n      dup2\n        /* \"#utility.yul\":5702:5705   */\n      dup6\n        /* \"#utility.yul\":5653:5714   */\n      tag_159\n      jump\t// in\n    tag_276:\n        /* \"#utility.yul\":5646:5714   */\n      swap4\n      pop\n        /* \"#utility.yul\":5723:5788   */\n      tag_277\n        /* \"#utility.yul\":5781:5787   */\n      dup2\n        /* \"#utility.yul\":5776:5779   */\n      dup6\n        /* \"#utility.yul\":5769:5773   */\n      0x20\n        /* \"#utility.yul\":5762:5767   */\n      dup7\n        /* \"#utility.yul\":5758:5774   */\n      add\n        /* \"#utility.yul\":5723:5788   */\n      tag_160\n      jump\t// in\n    tag_277:\n        /* \"#utility.yul\":5813:5842   */\n      tag_278\n        /* \"#utility.yul\":5835:5841   */\n      dup2\n        /* \"#utility.yul\":5813:5842   */\n      tag_146\n      jump\t// in\n    tag_278:\n        /* \"#utility.yul\":5808:5811   */\n      dup5\n        /* \"#utility.yul\":5804:5843   */\n      add\n        /* \"#utility.yul\":5797:5843   */\n      swap2\n      pop\n        /* \"#utility.yul\":5574:5849   */\n      pop\n        /* \"#utility.yul\":5492:5849   */\n      swap3\n      swap2\n      pop\n      pop\n      jump\t// out\n        /* \"#utility.yul\":5921:6852   */\n    tag_162:\n        /* \"#utility.yul\":6038:6041   */\n      0x00\n        /* \"#utility.yul\":6074:6078   */\n      0x60\n        /* \"#utility.yul\":6069:6072   */\n      dup4\n        /* \"#utility.yul\":6065:6079   */\n      add\n        /* \"#utility.yul\":6161:6165   */\n      0x00\n        /* \"#utility.yul\":6154:6159   */\n      dup4\n        /* \"#utility.yul\":6150:6166   */\n      add\n        /* \"#utility.yul\":6144:6167   */\n      mload\n        /* \"#utility.yul\":6214:6217   */\n      dup5\n        /* \"#utility.yul\":6208:6212   */\n      dup3\n        /* \"#utility.yul\":6204:6218   */\n      sub\n        /* \"#utility.yul\":6197:6201   */\n      0x00\n        /* \"#utility.yul\":6192:6195   */\n      dup7\n        /* \"#utility.yul\":6188:6202   */\n      add\n        /* \"#utility.yul\":6181:6219   */\n      mstore\n        /* \"#utility.yul\":6240:6313   */\n      tag_280\n        /* \"#utility.yul\":6308:6312   */\n      dup3\n        /* \"#utility.yul\":6294:6306   */\n      dup3\n        /* \"#utility.yul\":6240:6313   */\n      tag_161\n      jump\t// in\n    tag_280:\n        /* \"#utility.yul\":6232:6313   */\n      swap2\n      pop\n        /* \"#utility.yul\":6089:6324   */\n      pop\n        /* \"#utility.yul\":6407:6411   */\n      0x20\n        /* \"#utility.yul\":6400:6405   */\n      dup4\n        /* \"#utility.yul\":6396:6412   */\n      add\n        /* \"#utility.yul\":6390:6413   */\n      mload\n        /* \"#utility.yul\":6460:6463   */\n      dup5\n        /* \"#utility.yul\":6454:6458   */\n      dup3\n        /* \"#utility.yul\":6450:6464   */\n      sub\n        /* \"#utility.yul\":6443:6447   */\n      0x20\n        /* \"#utility.yul\":6438:6441   */\n      dup7\n        /* \"#utility.yul\":6434:6448   */\n      add\n        /* \"#utility.yul\":6427:6465   */\n      mstore\n        /* \"#utility.yul\":6486:6559   */\n      tag_281\n        /* \"#utility.yul\":6554:6558   */\n      dup3\n        /* \"#utility.yul\":6540:6552   */\n      dup3\n        /* \"#utility.yul\":6486:6559   */\n      tag_161\n      jump\t// in\n    tag_281:\n        /* \"#utility.yul\":6478:6559   */\n      swap2\n      pop\n        /* \"#utility.yul\":6334:6570   */\n      pop\n        /* \"#utility.yul\":6662:6666   */\n      0x40\n        /* \"#utility.yul\":6655:6660   */\n      dup4\n        /* \"#utility.yul\":6651:6667   */\n      add\n        /* \"#utility.yul\":6645:6668   */\n      mload\n        /* \"#utility.yul\":6715:6718   */\n      dup5\n        /* \"#utility.yul\":6709:6713   */\n      dup3\n        /* \"#utility.yul\":6705:6719   */\n      sub\n        /* \"#utility.yul\":6698:6702   */\n      0x40\n        /* \"#utility.yul\":6693:6696   */\n      dup7\n        /* \"#utility.yul\":6689:6703   */\n      add\n        /* \"#utility.yul\":6682:6720   */\n      mstore\n        /* \"#utility.yul\":6741:6814   */\n      tag_282\n        /* \"#utility.yul\":6809:6813   */\n      dup3\n        /* \"#utility.yul\":6795:6807   */\n      dup3\n        /* \"#utility.yul\":6741:6814   */\n      tag_161\n      jump\t// in\n    tag_282:\n        /* \"#utility.yul\":6733:6814   */\n      swap2\n      pop\n        /* \"#utility.yul\":6580:6825   */\n      pop\n        /* \"#utility.yul\":6842:6846   */\n      dup1\n        /* \"#utility.yul\":6835:6846   */\n      swap2\n      pop\n        /* \"#utility.yul\":6043:6852   */\n      pop\n        /* \"#utility.yul\":5921:6852   */\n      swap3\n      swap2\n      pop\n      pop\n      jump\t// out\n        /* \"#utility.yul\":6858:7227   */\n    tag_25:\n        /* \"#utility.yul\":6999:7003   */\n      0x00\n        /* \"#utility.yul\":7037:7039   */\n      0x20\n        /* \"#utility.yul\":7026:7035   */\n      dup3\n        /* \"#utility.yul\":7022:7040   */\n      add\n        /* \"#utility.yul\":7014:7040   */\n      swap1\n      pop\n        /* \"#utility.yul\":7086:7095   */\n      dup2\n        /* \"#utility.yul\":7080:7084   */\n      dup2\n        /* \"#utility.yul\":7076:7096   */\n      sub\n        /* \"#utility.yul\":7072:7073   */\n      0x00\n        /* \"#utility.yul\":7061:7070   */\n      dup4\n        /* \"#utility.yul\":7057:7074   */\n      add\n        /* \"#utility.yul\":7050:7097   */\n      mstore\n        /* \"#utility.yul\":7114:7220   */\n      tag_284\n        /* \"#utility.yul\":7215:7219   */\n      dup2\n        /* \"#utility.yul\":7206:7212   */\n      dup5\n        /* \"#utility.yul\":7114:7220   */\n      tag_162\n      jump\t// in\n    tag_284:\n        /* \"#utility.yul\":7106:7220   */\n      swap1\n      pop\n        /* \"#utility.yul\":6858:7227   */\n      swap3\n      swap2\n      pop\n      pop\n      jump\t// out\n        /* \"#utility.yul\":7233:7402   */\n    tag_163:\n        /* \"#utility.yul\":7317:7328   */\n      0x00\n        /* \"#utility.yul\":7351:7357   */\n      dup3\n        /* \"#utility.yul\":7346:7349   */\n      dup3\n        /* \"#utility.yul\":7339:7358   */\n      mstore\n        /* \"#utility.yul\":7391:7395   */\n      0x20\n        /* \"#utility.yul\":7386:7389   */\n      dup3\n        /* \"#utility.yul\":7382:7396   */\n      add\n        /* \"#utility.yul\":7367:7396   */\n      swap1\n      pop\n        /* \"#utility.yul\":7233:7402   */\n      swap3\n      swap2\n      pop\n      pop\n      jump\t// out\n        /* \"#utility.yul\":7408:7785   */\n    tag_164:\n        /* \"#utility.yul\":7496:7499   */\n      0x00\n        /* \"#utility.yul\":7524:7563   */\n      tag_287\n        /* \"#utility.yul\":7557:7562   */\n      dup3\n        /* \"#utility.yul\":7524:7563   */\n      tag_158\n      jump\t// in\n    tag_287:\n        /* \"#utility.yul\":7579:7650   */\n      tag_288\n        /* \"#utility.yul\":7643:7649   */\n      dup2\n        /* \"#utility.yul\":7638:7641   */\n      dup6\n        /* \"#utility.yul\":7579:7650   */\n      tag_163\n      jump\t// in\n    tag_288:\n        /* \"#utility.yul\":7572:7650   */\n      swap4\n      pop\n        /* \"#utility.yul\":7659:7724   */\n      tag_289\n        /* \"#utility.yul\":7717:7723   */\n      dup2\n        /* \"#utility.yul\":7712:7715   */\n      dup6\n        /* \"#utility.yul\":7705:7709   */\n      0x20\n        /* \"#utility.yul\":7698:7703   */\n      dup7\n        /* \"#utility.yul\":7694:7710   */\n      add\n        /* \"#utility.yul\":7659:7724   */\n      tag_160\n      jump\t// in\n    tag_289:\n        /* \"#utility.yul\":7749:7778   */\n      tag_290\n        /* \"#utility.yul\":7771:7777   */\n      dup2\n        /* \"#utility.yul\":7749:7778   */\n      tag_146\n      jump\t// in\n    tag_290:\n        /* \"#utility.yul\":7744:7747   */\n      dup5\n        /* \"#utility.yul\":7740:7779   */\n      add\n        /* \"#utility.yul\":7733:7779   */\n      swap2\n      pop\n        /* \"#utility.yul\":7500:7785   */\n      pop\n        /* \"#utility.yul\":7408:7785   */\n      swap3\n      swap2\n      pop\n      pop\n      jump\t// out\n        /* \"#utility.yul\":7791:8104   */\n    tag_33:\n        /* \"#utility.yul\":7904:7908   */\n      0x00\n        /* \"#utility.yul\":7942:7944   */\n      0x20\n        /* \"#utility.yul\":7931:7940   */\n      dup3\n        /* \"#utility.yul\":7927:7945   */\n      add\n        /* \"#utility.yul\":7919:7945   */\n      swap1\n      pop\n        /* \"#utility.yul\":7991:8000   */\n      dup2\n        /* \"#utility.yul\":7985:7989   */\n      dup2\n        /* \"#utility.yul\":7981:8001   */\n      sub\n        /* \"#utility.yul\":7977:7978   */\n      0x00\n        /* \"#utility.yul\":7966:7975   */\n      dup4\n        /* \"#utility.yul\":7962:7979   */\n      add\n        /* \"#utility.yul\":7955:8002   */\n      mstore\n        /* \"#utility.yul\":8019:8097   */\n      tag_292\n        /* \"#utility.yul\":8092:8096   */\n      dup2\n        /* \"#utility.yul\":8083:8089   */\n      dup5\n        /* \"#utility.yul\":8019:8097   */\n      tag_164\n      jump\t// in\n    tag_292:\n        /* \"#utility.yul\":8011:8097   */\n      swap1\n      pop\n        /* \"#utility.yul\":7791:8104   */\n      swap3\n      swap2\n      pop\n      pop\n      jump\t// out\n        /* \"#utility.yul\":8110:8254   */\n    tag_165:\n        /* \"#utility.yul\":8207:8213   */\n      0x00\n        /* \"#utility.yul\":8241:8246   */\n      dup2\n        /* \"#utility.yul\":8235:8247   */\n      mload\n        /* \"#utility.yul\":8225:8247   */\n      swap1\n      pop\n        /* \"#utility.yul\":8110:8254   */\n      swap2\n      swap1\n      pop\n      jump\t// out\n        /* \"#utility.yul\":8260:8474   */\n    tag_166:\n        /* \"#utility.yul\":8389:8400   */\n      0x00\n        /* \"#utility.yul\":8423:8429   */\n      dup3\n        /* \"#utility.yul\":8418:8421   */\n      dup3\n        /* \"#utility.yul\":8411:8430   */\n      mstore\n        /* \"#utility.yul\":8463:8467   */\n      0x20\n        /* \"#utility.yul\":8458:8461   */\n      dup3\n        /* \"#utility.yul\":8454:8468   */\n      add\n        /* \"#utility.yul\":8439:8468   */\n      swap1\n      pop\n        /* \"#utility.yul\":8260:8474   */\n      swap3\n      swap2\n      pop\n      pop\n      jump\t// out\n        /* \"#utility.yul\":8480:8642   */\n    tag_167:\n        /* \"#utility.yul\":8577:8581   */\n      0x00\n        /* \"#utility.yul\":8600:8603   */\n      dup2\n        /* \"#utility.yul\":8592:8603   */\n      swap1\n      pop\n        /* \"#utility.yul\":8630:8634   */\n      0x20\n        /* \"#utility.yul\":8625:8628   */\n      dup3\n        /* \"#utility.yul\":8621:8635   */\n      add\n        /* \"#utility.yul\":8613:8635   */\n      swap1\n      pop\n        /* \"#utility.yul\":8480:8642   */\n      swap2\n      swap1\n      pop\n      jump\t// out\n        /* \"#utility.yul\":8648:8756   */\n    tag_168:\n        /* \"#utility.yul\":8725:8749   */\n      tag_297\n        /* \"#utility.yul\":8743:8748   */\n      dup2\n        /* \"#utility.yul\":8725:8749   */\n      tag_155\n      jump\t// in\n    tag_297:\n        /* \"#utility.yul\":8720:8723   */\n      dup3\n        /* \"#utility.yul\":8713:8750   */\n      mstore\n        /* \"#utility.yul\":8648:8756   */\n      pop\n      pop\n      jump\t// out\n        /* \"#utility.yul\":8762:8839   */\n    tag_169:\n        /* \"#utility.yul\":8799:8806   */\n      0x00\n        /* \"#utility.yul\":8828:8833   */\n      dup2\n        /* \"#utility.yul\":8817:8833   */\n      swap1\n      pop\n        /* \"#utility.yul\":8762:8839   */\n      swap2\n      swap1\n      pop\n      jump\t// out\n        /* \"#utility.yul\":8845:8953   */\n    tag_170:\n        /* \"#utility.yul\":8922:8946   */\n      tag_300\n        /* \"#utility.yul\":8940:8945   */\n      dup2\n        /* \"#utility.yul\":8922:8946   */\n      tag_169\n      jump\t// in\n    tag_300:\n        /* \"#utility.yul\":8917:8920   */\n      dup3\n        /* \"#utility.yul\":8910:8947   */\n      mstore\n        /* \"#utility.yul\":8845:8953   */\n      pop\n      pop\n      jump\t// out\n        /* \"#utility.yul\":9037:9823   */\n    tag_171:\n        /* \"#utility.yul\":9156:9159   */\n      0x00\n        /* \"#utility.yul\":9192:9196   */\n      0x60\n        /* \"#utility.yul\":9187:9190   */\n      dup4\n        /* \"#utility.yul\":9183:9197   */\n      add\n        /* \"#utility.yul\":9279:9283   */\n      0x00\n        /* \"#utility.yul\":9272:9277   */\n      dup4\n        /* \"#utility.yul\":9268:9284   */\n      add\n        /* \"#utility.yul\":9262:9285   */\n      mload\n        /* \"#utility.yul\":9332:9335   */\n      dup5\n        /* \"#utility.yul\":9326:9330   */\n      dup3\n        /* \"#utility.yul\":9322:9336   */\n      sub\n        /* \"#utility.yul\":9315:9319   */\n      0x00\n        /* \"#utility.yul\":9310:9313   */\n      dup7\n        /* \"#utility.yul\":9306:9320   */\n      add\n        /* \"#utility.yul\":9299:9337   */\n      mstore\n        /* \"#utility.yul\":9358:9431   */\n      tag_302\n        /* \"#utility.yul\":9426:9430   */\n      dup3\n        /* \"#utility.yul\":9412:9424   */\n      dup3\n        /* \"#utility.yul\":9358:9431   */\n      tag_161\n      jump\t// in\n    tag_302:\n        /* \"#utility.yul\":9350:9431   */\n      swap2\n      pop\n        /* \"#utility.yul\":9207:9442   */\n      pop\n        /* \"#utility.yul\":9526:9530   */\n      0x20\n        /* \"#utility.yul\":9519:9524   */\n      dup4\n        /* \"#utility.yul\":9515:9531   */\n      add\n        /* \"#utility.yul\":9509:9532   */\n      mload\n        /* \"#utility.yul\":9545:9608   */\n      tag_303\n        /* \"#utility.yul\":9602:9606   */\n      0x20\n        /* \"#utility.yul\":9597:9600   */\n      dup7\n        /* \"#utility.yul\":9593:9607   */\n      add\n        /* \"#utility.yul\":9579:9591   */\n      dup3\n        /* \"#utility.yul\":9545:9608   */\n      tag_168\n      jump\t// in\n    tag_303:\n        /* \"#utility.yul\":9452:9618   */\n      pop\n        /* \"#utility.yul\":9704:9708   */\n      0x40\n        /* \"#utility.yul\":9697:9702   */\n      dup4\n        /* \"#utility.yul\":9693:9709   */\n      add\n        /* \"#utility.yul\":9687:9710   */\n      mload\n        /* \"#utility.yul\":9723:9786   */\n      tag_304\n        /* \"#utility.yul\":9780:9784   */\n      0x40\n        /* \"#utility.yul\":9775:9778   */\n      dup7\n        /* \"#utility.yul\":9771:9785   */\n      add\n        /* \"#utility.yul\":9757:9769   */\n      dup3\n        /* \"#utility.yul\":9723:9786   */\n      tag_170\n      jump\t// in\n    tag_304:\n        /* \"#utility.yul\":9628:9796   */\n      pop\n        /* \"#utility.yul\":9813:9817   */\n      dup1\n        /* \"#utility.yul\":9806:9817   */\n      swap2\n      pop\n        /* \"#utility.yul\":9161:9823   */\n      pop\n        /* \"#utility.yul\":9037:9823   */\n      swap3\n      swap2\n      pop\n      pop\n      jump\t// out\n        /* \"#utility.yul\":9829:10105   */\n    tag_172:\n        /* \"#utility.yul\":9958:9968   */\n      0x00\n        /* \"#utility.yul\":9993:10099   */\n      tag_306\n        /* \"#utility.yul\":10095:10098   */\n      dup4\n        /* \"#utility.yul\":10087:10093   */\n      dup4\n        /* \"#utility.yul\":9993:10099   */\n      tag_171\n      jump\t// in\n    tag_306:\n        /* \"#utility.yul\":9979:10099   */\n      swap1\n      pop\n        /* \"#utility.yul\":9829:10105   */\n      swap3\n      swap2\n      pop\n      pop\n      jump\t// out\n        /* \"#utility.yul\":10111:10254   */\n    tag_173:\n        /* \"#utility.yul\":10211:10215   */\n      0x00\n        /* \"#utility.yul\":10243:10247   */\n      0x20\n        /* \"#utility.yul\":10238:10241   */\n      dup3\n        /* \"#utility.yul\":10234:10248   */\n      add\n        /* \"#utility.yul\":10226:10248   */\n      swap1\n      pop\n        /* \"#utility.yul\":10111:10254   */\n      swap2\n      swap1\n      pop\n      jump\t// out\n        /* \"#utility.yul\":10342:11493   */\n    tag_174:\n        /* \"#utility.yul\":10521:10524   */\n      0x00\n        /* \"#utility.yul\":10550:10634   */\n      tag_309\n        /* \"#utility.yul\":10628:10633   */\n      dup3\n        /* \"#utility.yul\":10550:10634   */\n      tag_165\n      jump\t// in\n    tag_309:\n        /* \"#utility.yul\":10650:10766   */\n      tag_310\n        /* \"#utility.yul\":10759:10765   */\n      dup2\n        /* \"#utility.yul\":10754:10757   */\n      dup6\n        /* \"#utility.yul\":10650:10766   */\n      tag_166\n      jump\t// in\n    tag_310:\n        /* \"#utility.yul\":10643:10766   */\n      swap4\n      pop\n        /* \"#utility.yul\":10792:10795   */\n      dup4\n        /* \"#utility.yul\":10837:10841   */\n      0x20\n        /* \"#utility.yul\":10829:10835   */\n      dup3\n        /* \"#utility.yul\":10825:10842   */\n      mul\n        /* \"#utility.yul\":10820:10823   */\n      dup6\n        /* \"#utility.yul\":10816:10843   */\n      add\n        /* \"#utility.yul\":10867:10953   */\n      tag_311\n        /* \"#utility.yul\":10947:10952   */\n      dup6\n        /* \"#utility.yul\":10867:10953   */\n      tag_167\n      jump\t// in\n    tag_311:\n        /* \"#utility.yul\":10976:10983   */\n      dup1\n        /* \"#utility.yul\":11007:11008   */\n      0x00\n        /* \"#utility.yul\":10992:11448   */\n    tag_312:\n        /* \"#utility.yul\":11017:11023   */\n      dup6\n        /* \"#utility.yul\":11014:11015   */\n      dup2\n        /* \"#utility.yul\":11011:11024   */\n      lt\n        /* \"#utility.yul\":10992:11448   */\n      iszero\n      tag_314\n      jumpi\n        /* \"#utility.yul\":11088:11097   */\n      dup5\n        /* \"#utility.yul\":11082:11086   */\n      dup5\n        /* \"#utility.yul\":11078:11098   */\n      sub\n        /* \"#utility.yul\":11073:11076   */\n      dup10\n        /* \"#utility.yul\":11066:11099   */\n      mstore\n        /* \"#utility.yul\":11139:11145   */\n      dup2\n        /* \"#utility.yul\":11133:11146   */\n      mload\n        /* \"#utility.yul\":11167:11291   */\n      tag_315\n        /* \"#utility.yul\":11286:11290   */\n      dup6\n        /* \"#utility.yul\":11271:11284   */\n      dup3\n        /* \"#utility.yul\":11167:11291   */\n      tag_172\n      jump\t// in\n    tag_315:\n        /* \"#utility.yul\":11159:11291   */\n      swap5\n      pop\n        /* \"#utility.yul\":11314:11404   */\n      tag_316\n        /* \"#utility.yul\":11397:11403   */\n      dup4\n        /* \"#utility.yul\":11314:11404   */\n      tag_173\n      jump\t// in\n    tag_316:\n        /* \"#utility.yul\":11304:11404   */\n      swap3\n      pop\n        /* \"#utility.yul\":11433:11437   */\n      0x20\n        /* \"#utility.yul\":11428:11431   */\n      dup11\n        /* \"#utility.yul\":11424:11438   */\n      add\n        /* \"#utility.yul\":11417:11438   */\n      swap10\n      pop\n        /* \"#utility.yul\":11052:11448   */\n      pop\n        /* \"#utility.yul\":11039:11040   */\n      0x01\n        /* \"#utility.yul\":11036:11037   */\n      dup2\n        /* \"#utility.yul\":11032:11041   */\n      add\n        /* \"#utility.yul\":11027:11041   */\n      swap1\n      pop\n        /* \"#utility.yul\":10992:11448   */\n      jump(tag_312)\n    tag_314:\n        /* \"#utility.yul\":10996:11010   */\n      pop\n        /* \"#utility.yul\":11464:11468   */\n      dup3\n        /* \"#utility.yul\":11457:11468   */\n      swap8\n      pop\n        /* \"#utility.yul\":11484:11487   */\n      dup8\n        /* \"#utility.yul\":11477:11487   */\n      swap6\n      pop\n        /* \"#utility.yul\":10526:11493   */\n      pop\n      pop\n      pop\n      pop\n      pop\n        /* \"#utility.yul\":10342:11493   */\n      swap3\n      swap2\n      pop\n      pop\n      jump\t// out\n        /* \"#utility.yul\":11499:11992   */\n    tag_38:\n        /* \"#utility.yul\":11702:11706   */\n      0x00\n        /* \"#utility.yul\":11740:11742   */\n      0x20\n        /* \"#utility.yul\":11729:11738   */\n      dup3\n        /* \"#utility.yul\":11725:11743   */\n      add\n        /* \"#utility.yul\":11717:11743   */\n      swap1\n      pop\n        /* \"#utility.yul\":11789:11798   */\n      dup2\n        /* \"#utility.yul\":11783:11787   */\n      dup2\n        /* \"#utility.yul\":11779:11799   */\n      sub\n        /* \"#utility.yul\":11775:11776   */\n      0x00\n        /* \"#utility.yul\":11764:11773   */\n      dup4\n        /* \"#utility.yul\":11760:11777   */\n      add\n        /* \"#utility.yul\":11753:11800   */\n      mstore\n        /* \"#utility.yul\":11817:11985   */\n      tag_318\n        /* \"#utility.yul\":11980:11984   */\n      dup2\n        /* \"#utility.yul\":11971:11977   */\n      dup5\n        /* \"#utility.yul\":11817:11985   */\n      tag_174\n      jump\t// in\n    tag_318:\n        /* \"#utility.yul\":11809:11985   */\n      swap1\n      pop\n        /* \"#utility.yul\":11499:11992   */\n      swap3\n      swap2\n      pop\n      pop\n      jump\t// out\n        /* \"#utility.yul\":11998:12652   */\n    tag_41:\n        /* \"#utility.yul\":12076:12082   */\n      0x00\n        /* \"#utility.yul\":12084:12090   */\n      dup1\n        /* \"#utility.yul\":12133:12135   */\n      0x40\n        /* \"#utility.yul\":12121:12130   */\n      dup4\n        /* \"#utility.yul\":12112:12119   */\n      dup6\n        /* \"#utility.yul\":12108:12131   */\n      sub\n        /* \"#utility.yul\":12104:12136   */\n      slt\n        /* \"#utility.yul\":12101:12220   */\n      iszero\n      tag_320\n      jumpi\n        /* \"#utility.yul\":12139:12218   */\n      tag_321\n      tag_142\n      jump\t// in\n    tag_321:\n        /* \"#utility.yul\":12101:12220   */\n    tag_320:\n        /* \"#utility.yul\":12259:12260   */\n      0x00\n        /* \"#utility.yul\":12284:12337   */\n      tag_322\n        /* \"#utility.yul\":12329:12336   */\n      dup6\n        /* \"#utility.yul\":12320:12326   */\n      dup3\n        /* \"#utility.yul\":12309:12318   */\n      dup7\n        /* \"#utility.yul\":12305:12327   */\n      add\n        /* \"#utility.yul\":12284:12337   */\n      tag_157\n      jump\t// in\n    tag_322:\n        /* \"#utility.yul\":12274:12337   */\n      swap3\n      pop\n        /* \"#utility.yul\":12230:12347   */\n      pop\n        /* \"#utility.yul\":12414:12416   */\n      0x20\n        /* \"#utility.yul\":12403:12412   */\n      dup4\n        /* \"#utility.yul\":12399:12417   */\n      add\n        /* \"#utility.yul\":12386:12418   */\n      calldataload\n        /* \"#utility.yul\":12445:12463   */\n      0xffffffffffffffff\n        /* \"#utility.yul\":12437:12443   */\n      dup2\n        /* \"#utility.yul\":12434:12464   */\n      gt\n        /* \"#utility.yul\":12431:12548   */\n      iszero\n      tag_323\n      jumpi\n        /* \"#utility.yul\":12467:12546   */\n      tag_324\n      tag_143\n      jump\t// in\n    tag_324:\n        /* \"#utility.yul\":12431:12548   */\n    tag_323:\n        /* \"#utility.yul\":12572:12635   */\n      tag_325\n        /* \"#utility.yul\":12627:12634   */\n      dup6\n        /* \"#utility.yul\":12618:12624   */\n      dup3\n        /* \"#utility.yul\":12607:12616   */\n      dup7\n        /* \"#utility.yul\":12603:12625   */\n      add\n        /* \"#utility.yul\":12572:12635   */\n      tag_153\n      jump\t// in\n    tag_325:\n        /* \"#utility.yul\":12562:12635   */\n      swap2\n      pop\n        /* \"#utility.yul\":12357:12645   */\n      pop\n        /* \"#utility.yul\":11998:12652   */\n      swap3\n      pop\n      swap3\n      swap1\n      pop\n      jump\t// out\n        /* \"#utility.yul\":12658:12881   */\n    tag_175:\n        /* \"#utility.yul\":12798:12832   */\n      0x437265617465206120444944206265666f72652073657474696e67206d657461\n        /* \"#utility.yul\":12794:12795   */\n      0x00\n        /* \"#utility.yul\":12786:12792   */\n      dup3\n        /* \"#utility.yul\":12782:12796   */\n      add\n        /* \"#utility.yul\":12775:12833   */\n      mstore\n        /* \"#utility.yul\":12867:12873   */\n      0x6461746100000000000000000000000000000000000000000000000000000000\n        /* \"#utility.yul\":12862:12864   */\n      0x20\n        /* \"#utility.yul\":12854:12860   */\n      dup3\n        /* \"#utility.yul\":12850:12865   */\n      add\n        /* \"#utility.yul\":12843:12874   */\n      mstore\n        /* \"#utility.yul\":12658:12881   */\n      pop\n      jump\t// out\n        /* \"#utility.yul\":12887:13253   */\n    tag_176:\n        /* \"#utility.yul\":13029:13032   */\n      0x00\n        /* \"#utility.yul\":13050:13117   */\n      tag_328\n        /* \"#utility.yul\":13114:13116   */\n      0x24\n        /* \"#utility.yul\":13109:13112   */\n      dup4\n        /* \"#utility.yul\":13050:13117   */\n      tag_163\n      jump\t// in\n    tag_328:\n        /* \"#utility.yul\":13043:13117   */\n      swap2\n      pop\n        /* \"#utility.yul\":13126:13219   */\n      tag_329\n        /* \"#utility.yul\":13215:13218   */\n      dup3\n        /* \"#utility.yul\":13126:13219   */\n      tag_175\n      jump\t// in\n    tag_329:\n        /* \"#utility.yul\":13244:13246   */\n      0x40\n        /* \"#utility.yul\":13239:13242   */\n      dup3\n        /* \"#utility.yul\":13235:13247   */\n      add\n        /* \"#utility.yul\":13228:13247   */\n      swap1\n      pop\n        /* \"#utility.yul\":12887:13253   */\n      swap2\n      swap1\n      pop\n      jump\t// out\n        /* \"#utility.yul\":13259:13678   */\n    tag_49:\n        /* \"#utility.yul\":13425:13429   */\n      0x00\n        /* \"#utility.yul\":13463:13465   */\n      0x20\n        /* \"#utility.yul\":13452:13461   */\n      dup3\n        /* \"#utility.yul\":13448:13466   */\n      add\n        /* \"#utility.yul\":13440:13466   */\n      swap1\n      pop\n        /* \"#utility.yul\":13512:13521   */\n      dup2\n        /* \"#utility.yul\":13506:13510   */\n      dup2\n        /* \"#utility.yul\":13502:13522   */\n      sub\n        /* \"#utility.yul\":13498:13499   */\n      0x00\n        /* \"#utility.yul\":13487:13496   */\n      dup4\n        /* \"#utility.yul\":13483:13500   */\n      add\n        /* \"#utility.yul\":13476:13523   */\n      mstore\n        /* \"#utility.yul\":13540:13671   */\n      tag_331\n        /* \"#utility.yul\":13666:13670   */\n      dup2\n        /* \"#utility.yul\":13540:13671   */\n      tag_176\n      jump\t// in\n    tag_331:\n        /* \"#utility.yul\":13532:13671   */\n      swap1\n      pop\n        /* \"#utility.yul\":13259:13678   */\n      swap2\n      swap1\n      pop\n      jump\t// out\n        /* \"#utility.yul\":13684:13864   */\n    tag_177:\n        /* \"#utility.yul\":13732:13809   */\n      0x4e487b7100000000000000000000000000000000000000000000000000000000\n        /* \"#utility.yul\":13729:13730   */\n      0x00\n        /* \"#utility.yul\":13722:13810   */\n      mstore\n        /* \"#utility.yul\":13829:13833   */\n      0x22\n        /* \"#utility.yul\":13826:13827   */\n      0x04\n        /* \"#utility.yul\":13819:13834   */\n      mstore\n        /* \"#utility.yul\":13853:13857   */\n      0x24\n        /* \"#utility.yul\":13850:13851   */\n      0x00\n        /* \"#utility.yul\":13843:13858   */\n      revert\n        /* \"#utility.yul\":13870:14190   */\n    tag_77:\n        /* \"#utility.yul\":13914:13920   */\n      0x00\n        /* \"#utility.yul\":13951:13952   */\n      0x02\n        /* \"#utility.yul\":13945:13949   */\n      dup3\n        /* \"#utility.yul\":13941:13953   */\n      div\n        /* \"#utility.yul\":13931:13953   */\n      swap1\n      pop\n        /* \"#utility.yul\":13998:13999   */\n      0x01\n        /* \"#utility.yul\":13992:13996   */\n      dup3\n        /* \"#utility.yul\":13988:14000   */\n      and\n        /* \"#utility.yul\":14019:14037   */\n      dup1\n        /* \"#utility.yul\":14009:14090   */\n      tag_334\n      jumpi\n        /* \"#utility.yul\":14075:14079   */\n      0x7f\n        /* \"#utility.yul\":14067:14073   */\n      dup3\n        /* \"#utility.yul\":14063:14080   */\n      and\n        /* \"#utility.yul\":14053:14080   */\n      swap2\n      pop\n        /* \"#utility.yul\":14009:14090   */\n    tag_334:\n        /* \"#utility.yul\":14137:14139   */\n      0x20\n        /* \"#utility.yul\":14129:14135   */\n      dup3\n        /* \"#utility.yul\":14126:14140   */\n      lt\n        /* \"#utility.yul\":14106:14124   */\n      dup2\n        /* \"#utility.yul\":14103:14141   */\n      sub\n        /* \"#utility.yul\":14100:14184   */\n      tag_335\n      jumpi\n        /* \"#utility.yul\":14156:14174   */\n      tag_336\n      tag_177\n      jump\t// in\n    tag_336:\n        /* \"#utility.yul\":14100:14184   */\n    tag_335:\n        /* \"#utility.yul\":13921:14190   */\n      pop\n        /* \"#utility.yul\":13870:14190   */\n      swap2\n      swap1\n      pop\n      jump\t// out\n        /* \"#utility.yul\":14196:14337   */\n    tag_178:\n        /* \"#utility.yul\":14245:14249   */\n      0x00\n        /* \"#utility.yul\":14268:14271   */\n      dup2\n        /* \"#utility.yul\":14260:14271   */\n      swap1\n      pop\n        /* \"#utility.yul\":14291:14294   */\n      dup2\n        /* \"#utility.yul\":14288:14289   */\n      0x00\n        /* \"#utility.yul\":14281:14295   */\n      mstore\n        /* \"#utility.yul\":14325:14329   */\n      0x20\n        /* \"#utility.yul\":14322:14323   */\n      0x00\n        /* \"#utility.yul\":14312:14330   */\n      keccak256\n        /* \"#utility.yul\":14304:14330   */\n      swap1\n      pop\n        /* \"#utility.yul\":14196:14337   */\n      swap2\n      swap1\n      pop\n      jump\t// out\n        /* \"#utility.yul\":14343:14436   */\n    tag_179:\n        /* \"#utility.yul\":14380:14386   */\n      0x00\n        /* \"#utility.yul\":14427:14429   */\n      0x20\n        /* \"#utility.yul\":14422:14424   */\n      0x1f\n        /* \"#utility.yul\":14415:14420   */\n      dup4\n        /* \"#utility.yul\":14411:14425   */\n      add\n        /* \"#utility.yul\":14407:14430   */\n      div\n        /* \"#utility.yul\":14397:14430   */\n      swap1\n      pop\n        /* \"#utility.yul\":14343:14436   */\n      swap2\n      swap1\n      pop\n      jump\t// out\n        /* \"#utility.yul\":14442:14549   */\n    tag_180:\n        /* \"#utility.yul\":14486:14494   */\n      0x00\n        /* \"#utility.yul\":14536:14541   */\n      dup3\n        /* \"#utility.yul\":14530:14534   */\n      dup3\n        /* \"#utility.yul\":14526:14542   */\n      shl\n        /* \"#utility.yul\":14505:14542   */\n      swap1\n      pop\n        /* \"#utility.yul\":14442:14549   */\n      swap3\n      swap2\n      pop\n      pop\n      jump\t// out\n        /* \"#utility.yul\":14555:14948   */\n    tag_181:\n        /* \"#utility.yul\":14624:14630   */\n      0x00\n        /* \"#utility.yul\":14674:14675   */\n      0x08\n        /* \"#utility.yul\":14662:14672   */\n      dup4\n        /* \"#utility.yul\":14658:14676   */\n      mul\n        /* \"#utility.yul\":14697:14794   */\n      tag_341\n        /* \"#utility.yul\":14727:14793   */\n      0xffffffffffffffffffffffffffffffffffffffffffffffffffffffffffffffff\n        /* \"#utility.yul\":14716:14725   */\n      dup3\n        /* \"#utility.yul\":14697:14794   */\n      tag_180\n      jump\t// in\n    tag_341:\n        /* \"#utility.yul\":14815:14854   */\n      tag_342\n        /* \"#utility.yul\":14845:14853   */\n      dup7\n        /* \"#utility.yul\":14834:14843   */\n      dup4\n        /* \"#utility.yul\":14815:14854   */\n      tag_180\n      jump\t// in\n    tag_342:\n        /* \"#utility.yul\":14803:14854   */\n      swap6\n      pop\n        /* \"#utility.yul\":14887:14891   */\n      dup1\n        /* \"#utility.yul\":14883:14892   */\n      not\n        /* \"#utility.yul\":14876:14881   */\n      dup5\n        /* \"#utility.yul\":14872:14893   */\n      and\n        /* \"#utility.yul\":14863:14893   */\n      swap4\n      pop\n        /* \"#utility.yul\":14936:14940   */\n      dup1\n        /* \"#utility.yul\":14926:14934   */\n      dup7\n        /* \"#utility.yul\":14922:14941   */\n      and\n        /* \"#utility.yul\":14915:14920   */\n      dup5\n        /* \"#utility.yul\":14912:14942   */\n      or\n        /* \"#utility.yul\":14902:14942   */\n      swap3\n      pop\n        /* \"#utility.yul\":14631:14948   */\n      pop\n      pop\n        /* \"#utility.yul\":14555:14948   */\n      swap4\n      swap3\n      pop\n      pop\n      pop\n      jump\t// out\n        /* \"#utility.yul\":14954:15014   */\n    tag_182:\n        /* \"#utility.yul\":14982:14985   */\n      0x00\n        /* \"#utility.yul\":15003:15008   */\n      dup2\n        /* \"#utility.yul\":14996:15008   */\n      swap1\n      pop\n        /* \"#utility.yul\":14954:15014   */\n      swap2\n      swap1\n      pop\n      jump\t// out\n        /* \"#utility.yul\":15020:15162   */\n    tag_183:\n        /* \"#utility.yul\":15070:15079   */\n      0x00\n        /* \"#utility.yul\":15103:15156   */\n      tag_345\n        /* \"#utility.yul\":15121:15155   */\n      tag_346\n        /* \"#utility.yul\":15130:15154   */\n      tag_347\n        /* \"#utility.yul\":15148:15153   */\n      dup5\n        /* \"#utility.yul\":15130:15154   */\n      tag_169\n      jump\t// in\n    tag_347:\n        /* \"#utility.yul\":15121:15155   */\n      tag_182\n      jump\t// in\n    tag_346:\n        /* \"#utility.yul\":15103:15156   */\n      tag_169\n      jump\t// in\n    tag_345:\n        /* \"#utility.yul\":15090:15156   */\n      swap1\n      pop\n        /* \"#utility.yul\":15020:15162   */\n      swap2\n      swap1\n      pop\n      jump\t// out\n        /* \"#utility.yul\":15168:15243   */\n    tag_184:\n        /* \"#utility.yul\":15211:15214   */\n      0x00\n        /* \"#utility.yul\":15232:15237   */\n      dup2\n        /* \"#utility.yul\":15225:15237   */\n      swap1\n      pop\n        /* \"#utility.yul\":15168:15243   */\n      swap2\n      swap1\n      pop\n      jump\t// out\n        /* \"#utility.yul\":15249:15518   */\n    tag_185:\n        /* \"#utility.yul\":15359:15398   */\n      tag_350\n        /* \"#utility.yul\":15390:15397   */\n      dup4\n        /* \"#utility.yul\":15359:15398   */\n      tag_183\n      jump\t// in\n    tag_350:\n        /* \"#utility.yul\":15420:15511   */\n      tag_351\n        /* \"#utility.yul\":15469:15510   */\n      tag_352\n        /* \"#utility.yul\":15493:15509   */\n      dup3\n        /* \"#utility.yul\":15469:15510   */\n      tag_184\n      jump\t// in\n    tag_352:\n        /* \"#utility.yul\":15461:15467   */\n      dup5\n        /* \"#utility.yul\":15454:15458   */\n      dup5\n        /* \"#utility.yul\":15448:15459   */\n      sload\n        /* \"#utility.yul\":15420:15511   */\n      tag_181\n      jump\t// in\n    tag_351:\n        /* \"#utility.yul\":15414:15418   */\n      dup3\n        /* \"#utility.yul\":15407:15512   */\n      sstore\n        /* \"#utility.yul\":15325:15518   */\n      pop\n        /* \"#utility.yul\":15249:15518   */\n      pop\n      pop\n      pop\n      jump\t// out\n        /* \"#utility.yul\":15524:15597   */\n    tag_186:\n        /* \"#utility.yul\":15569:15572   */\n      0x00\n        /* \"#utility.yul\":15524:15597   */\n      swap1\n      jump\t// out\n        /* \"#utility.yul\":15603:15792   */\n    tag_187:\n        /* \"#utility.yul\":15680:15712   */\n      tag_355\n      tag_186\n      jump\t// in\n    tag_355:\n        /* \"#utility.yul\":15721:15786   */\n      tag_356\n        /* \"#utility.yul\":15779:15785   */\n      dup2\n        /* \"#utility.yul\":15771:15777   */\n      dup5\n        /* \"#utility.yul\":15765:15769   */\n      dup5\n        /* \"#utility.yul\":15721:15786   */\n      tag_185\n      jump\t// in\n    tag_356:\n        /* \"#utility.yul\":15656:15792   */\n      pop\n        /* \"#utility.yul\":15603:15792   */\n      pop\n      pop\n      jump\t// out\n        /* \"#utility.yul\":15798:15984   */\n    tag_188:\n        /* \"#utility.yul\":15858:15978   */\n    tag_358:\n        /* \"#utility.yul\":15875:15878   */\n      dup2\n        /* \"#utility.yul\":15868:15873   */\n      dup2\n        /* \"#utility.yul\":15865:15879   */\n      lt\n        /* \"#utility.yul\":15858:15978   */\n      iszero\n      tag_360\n      jumpi\n        /* \"#utility.yul\":15929:15968   */\n      tag_361\n        /* \"#utility.yul\":15966:15967   */\n      0x00\n        /* \"#utility.yul\":15959:15964   */\n      dup3\n        /* \"#utility.yul\":15929:15968   */\n      tag_187\n      jump\t// in\n    tag_361:\n        /* \"#utility.yul\":15902:15903   */\n      0x01\n        /* \"#utility.yul\":15895:15900   */\n      dup2\n        /* \"#utility.yul\":15891:15904   */\n      add\n        /* \"#utility.yul\":15882:15904   */\n      swap1\n      pop\n        /* \"#utility.yul\":15858:15978   */\n      jump(tag_358)\n    tag_360:\n        /* \"#utility.yul\":15798:15984   */\n      pop\n      pop\n      jump\t// out\n        /* \"#utility.yul\":15990:16533   */\n    tag_189:\n        /* \"#utility.yul\":16091:16093   */\n      0x1f\n        /* \"#utility.yul\":16086:16089   */\n      dup3\n        /* \"#utility.yul\":16083:16094   */\n      gt\n        /* \"#utility.yul\":16080:16526   */\n      iszero\n      tag_363\n      jumpi\n        /* \"#utility.yul\":16125:16163   */\n      tag_364\n        /* \"#utility.yul\":16157:16162   */\n      dup2\n        /* \"#utility.yul\":16125:16163   */\n      tag_178\n      jump\t// in\n    tag_364:\n        /* \"#utility.yul\":16209:16238   */\n      tag_365\n        /* \"#utility.yul\":16227:16237   */\n      dup5\n        /* \"#utility.yul\":16209:16238   */\n      tag_179\n      jump\t// in\n    tag_365:\n        /* \"#utility.yul\":16199:16207   */\n      dup2\n        /* \"#utility.yul\":16195:16239   */\n      add\n        /* \"#utility.yul\":16392:16394   */\n      0x20\n        /* \"#utility.yul\":16380:16390   */\n      dup6\n        /* \"#utility.yul\":16377:16395   */\n      lt\n        /* \"#utility.yul\":16374:16423   */\n      iszero\n      tag_366\n      jumpi\n        /* \"#utility.yul\":16413:16421   */\n      dup2\n        /* \"#utility.yul\":16398:16421   */\n      swap1\n      pop\n        /* \"#utility.yul\":16374:16423   */\n    tag_366:\n        /* \"#utility.yul\":16436:16516   */\n      tag_367\n        /* \"#utility.yul\":16492:16514   */\n      tag_368\n        /* \"#utility.yul\":16510:16513   */\n      dup6\n        /* \"#utility.yul\":16492:16514   */\n      tag_179\n      jump\t// in\n    tag_368:\n        /* \"#utility.yul\":16482:16490   */\n      dup4\n        /* \"#utility.yul\":16478:16515   */\n      add\n        /* \"#utility.yul\":16465:16476   */\n      dup3\n        /* \"#utility.yul\":16436:16516   */\n      tag_188\n      jump\t// in\n    tag_367:\n        /* \"#utility.yul\":16095:16526   */\n      pop\n      pop\n        /* \"#utility.yul\":16080:16526   */\n    tag_363:\n        /* \"#utility.yul\":15990:16533   */\n      pop\n      pop\n      pop\n      jump\t// out\n        /* \"#utility.yul\":16539:16656   */\n    tag_190:\n        /* \"#utility.yul\":16593:16601   */\n      0x00\n        /* \"#utility.yul\":16643:16648   */\n      dup3\n        /* \"#utility.yul\":16637:16641   */\n      dup3\n        /* \"#utility.yul\":16633:16649   */\n      shr\n        /* \"#utility.yul\":16612:16649   */\n      swap1\n      pop\n        /* \"#utility.yul\":16539:16656   */\n      swap3\n      swap2\n      pop\n      pop\n      jump\t// out\n        /* \"#utility.yul\":16662:16831   */\n    tag_191:\n        /* \"#utility.yul\":16706:16712   */\n      0x00\n        /* \"#utility.yul\":16739:16790   */\n      tag_371\n        /* \"#utility.yul\":16787:16788   */\n      0x00\n        /* \"#utility.yul\":16783:16789   */\n      not\n        /* \"#utility.yul\":16775:16780   */\n      dup5\n        /* \"#utility.yul\":16772:16773   */\n      0x08\n        /* \"#utility.yul\":16768:16781   */\n      mul\n        /* \"#utility.yul\":16739:16790   */\n      tag_190\n      jump\t// in\n    tag_371:\n        /* \"#utility.yul\":16735:16791   */\n      not\n        /* \"#utility.yul\":16820:16824   */\n      dup1\n        /* \"#utility.yul\":16814:16818   */\n      dup4\n        /* \"#utility.yul\":16810:16825   */\n      and\n        /* \"#utility.yul\":16800:16825   */\n      swap2\n      pop\n        /* \"#utility.yul\":16713:16831   */\n      pop\n        /* \"#utility.yul\":16662:16831   */\n      swap3\n      swap2\n      pop\n      pop\n      jump\t// out\n        /* \"#utility.yul\":16836:17131   */\n    tag_192:\n        /* \"#utility.yul\":16912:16916   */\n      0x00\n        /* \"#utility.yul\":17058:17087   */\n      tag_373\n        /* \"#utility.yul\":17083:17086   */\n      dup4\n        /* \"#utility.yul\":17077:17081   */\n      dup4\n        /* \"#utility.yul\":17058:17087   */\n      tag_191\n      jump\t// in\n    tag_373:\n        /* \"#utility.yul\":17050:17087   */\n      swap2\n      pop\n        /* \"#utility.yul\":17120:17123   */\n      dup3\n        /* \"#utility.yul\":17117:17118   */\n      0x02\n        /* \"#utility.yul\":17113:17124   */\n      mul\n        /* \"#utility.yul\":17107:17111   */\n      dup3\n        /* \"#utility.yul\":17104:17125   */\n      or\n        /* \"#utility.yul\":17096:17125   */\n      swap1\n      pop\n        /* \"#utility.yul\":16836:17131   */\n      swap3\n      swap2\n      pop\n      pop\n      jump\t// out\n        /* \"#utility.yul\":17136:18531   */\n    tag_51:\n        /* \"#utility.yul\":17253:17290   */\n      tag_375\n        /* \"#utility.yul\":17286:17289   */\n      dup3\n        /* \"#utility.yul\":17253:17290   */\n      tag_158\n      jump\t// in\n    tag_375:\n        /* \"#utility.yul\":17355:17373   */\n      0xffffffffffffffff\n        /* \"#utility.yul\":17347:17353   */\n      dup2\n        /* \"#utility.yul\":17344:17374   */\n      gt\n        /* \"#utility.yul\":17341:17397   */\n      iszero\n      tag_376\n      jumpi\n        /* \"#utility.yul\":17377:17395   */\n      tag_377\n      tag_147\n      jump\t// in\n    tag_377:\n        /* \"#utility.yul\":17341:17397   */\n    tag_376:\n        /* \"#utility.yul\":17421:17459   */\n      tag_378\n        /* \"#utility.yul\":17453:17457   */\n      dup3\n        /* \"#utility.yul\":17447:17458   */\n      sload\n        /* \"#utility.yul\":17421:17459   */\n      tag_77\n      jump\t// in\n    tag_378:\n        /* \"#utility.yul\":17506:17573   */\n      tag_379\n        /* \"#utility.yul\":17566:17572   */\n      dup3\n        /* \"#utility.yul\":17558:17564   */\n      dup3\n        /* \"#utility.yul\":17552:17556   */\n      dup6\n        /* \"#utility.yul\":17506:17573   */\n      tag_189\n      jump\t// in\n    tag_379:\n        /* \"#utility.yul\":17600:17601   */\n      0x00\n        /* \"#utility.yul\":17624:17628   */\n      0x20\n        /* \"#utility.yul\":17611:17628   */\n      swap1\n      pop\n        /* \"#utility.yul\":17656:17658   */\n      0x1f\n        /* \"#utility.yul\":17648:17654   */\n      dup4\n        /* \"#utility.yul\":17645:17659   */\n      gt\n        /* \"#utility.yul\":17673:17674   */\n      0x01\n        /* \"#utility.yul\":17668:18286   */\n      dup2\n      eq\n      tag_381\n      jumpi\n        /* \"#utility.yul\":18330:18331   */\n      0x00\n        /* \"#utility.yul\":18347:18353   */\n      dup5\n        /* \"#utility.yul\":18344:18421   */\n      iszero\n      tag_382\n      jumpi\n        /* \"#utility.yul\":18396:18405   */\n      dup3\n        /* \"#utility.yul\":18391:18394   */\n      dup8\n        /* \"#utility.yul\":18387:18406   */\n      add\n        /* \"#utility.yul\":18381:18407   */\n      mload\n        /* \"#utility.yul\":18372:18407   */\n      swap1\n      pop\n        /* \"#utility.yul\":18344:18421   */\n    tag_382:\n        /* \"#utility.yul\":18447:18514   */\n      tag_383\n        /* \"#utility.yul\":18507:18513   */\n      dup6\n        /* \"#utility.yul\":18500:18505   */\n      dup3\n        /* \"#utility.yul\":18447:18514   */\n      tag_192\n      jump\t// in\n    tag_383:\n        /* \"#utility.yul\":18441:18445   */\n      dup7\n        /* \"#utility.yul\":18434:18515   */\n      sstore\n        /* \"#utility.yul\":18303:18525   */\n      pop\n        /* \"#utility.yul\":17638:18525   */\n      jump(tag_380)\n        /* \"#utility.yul\":17668:18286   */\n    tag_381:\n        /* \"#utility.yul\":17720:17724   */\n      0x1f\n        /* \"#utility.yul\":17716:17725   */\n      not\n        /* \"#utility.yul\":17708:17714   */\n      dup5\n        /* \"#utility.yul\":17704:17726   */\n      and\n        /* \"#utility.yul\":17754:17791   */\n      tag_384\n        /* \"#utility.yul\":17786:17790   */\n      dup7\n        /* \"#utility.yul\":17754:17791   */\n      tag_178\n      jump\t// in\n    tag_384:\n        /* \"#utility.yul\":17813:17814   */\n      0x00\n        /* \"#utility.yul\":17827:18035   */\n    tag_385:\n        /* \"#utility.yul\":17841:17848   */\n      dup3\n        /* \"#utility.yul\":17838:17839   */\n      dup2\n        /* \"#utility.yul\":17835:17849   */\n      lt\n        /* \"#utility.yul\":17827:18035   */\n      iszero\n      tag_387\n      jumpi\n        /* \"#utility.yul\":17920:17929   */\n      dup5\n        /* \"#utility.yul\":17915:17918   */\n      dup10\n        /* \"#utility.yul\":17911:17930   */\n      add\n        /* \"#utility.yul\":17905:17931   */\n      mload\n        /* \"#utility.yul\":17897:17903   */\n      dup3\n        /* \"#utility.yul\":17890:17932   */\n      sstore\n        /* \"#utility.yul\":17971:17972   */\n      0x01\n        /* \"#utility.yul\":17963:17969   */\n      dup3\n        /* \"#utility.yul\":17959:17973   */\n      add\n        /* \"#utility.yul\":17949:17973   */\n      swap2\n      pop\n        /* \"#utility.yul\":18018:18020   */\n      0x20\n        /* \"#utility.yul\":18007:18016   */\n      dup6\n        /* \"#utility.yul\":18003:18021   */\n      add\n        /* \"#utility.yul\":17990:18021   */\n      swap5\n      pop\n        /* \"#utility.yul\":17864:17868   */\n      0x20\n        /* \"#utility.yul\":17861:17862   */\n      dup2\n        /* \"#utility.yul\":17857:17869   */\n      add\n        /* \"#utility.yul\":17852:17869   */\n      swap1\n      pop\n        /* \"#utility.yul\":17827:18035   */\n      jump(tag_385)\n    tag_387:\n        /* \"#utility.yul\":18063:18069   */\n      dup7\n        /* \"#utility.yul\":18054:18061   */\n      dup4\n        /* \"#utility.yul\":18051:18070   */\n      lt\n        /* \"#utility.yul\":18048:18227   */\n      iszero\n      tag_388\n      jumpi\n        /* \"#utility.yul\":18121:18130   */\n      dup5\n        /* \"#utility.yul\":18116:18119   */\n      dup10\n        /* \"#utility.yul\":18112:18131   */\n      add\n        /* \"#utility.yul\":18106:18132   */\n      mload\n        /* \"#utility.yul\":18164:18212   */\n      tag_389\n        /* \"#utility.yul\":18206:18210   */\n      0x1f\n        /* \"#utility.yul\":18198:18204   */\n      dup10\n        /* \"#utility.yul\":18194:18211   */\n      and\n        /* \"#utility.yul\":18183:18192   */\n      dup3\n        /* \"#utility.yul\":18164:18212   */\n      tag_191\n      jump\t// in\n    tag_389:\n        /* \"#utility.yul\":18156:18162   */\n      dup4\n        /* \"#utility.yul\":18149:18213   */\n      sstore\n        /* \"#utility.yul\":18071:18227   */\n      pop\n        /* \"#utility.yul\":18048:18227   */\n    tag_388:\n        /* \"#utility.yul\":18273:18274   */\n      0x01\n        /* \"#utility.yul\":18269:18270   */\n      0x02\n        /* \"#utility.yul\":18261:18267   */\n      dup9\n        /* \"#utility.yul\":18257:18271   */\n      mul\n        /* \"#utility.yul\":18253:18275   */\n      add\n        /* \"#utility.yul\":18247:18251   */\n      dup9\n        /* \"#utility.yul\":18240:18276   */\n      sstore\n        /* \"#utility.yul\":17675:18286   */\n      pop\n      pop\n      pop\n        /* \"#utility.yul\":17638:18525   */\n    tag_380:\n      pop\n        /* \"#utility.yul\":17228:18531   */\n      pop\n      pop\n      pop\n        /* \"#utility.yul\":17136:18531   */\n      pop\n      pop\n      jump\t// out\n        /* \"#utility.yul\":18537:19252   */\n    tag_55:\n        /* \"#utility.yul\":18746:18750   */\n      0x00\n        /* \"#utility.yul\":18784:18786   */\n      0x60\n        /* \"#utility.yul\":18773:18782   */\n      dup3\n        /* \"#utility.yul\":18769:18787   */\n      add\n        /* \"#utility.yul\":18761:18787   */\n      swap1\n      pop\n        /* \"#utility.yul\":18833:18842   */\n      dup2\n        /* \"#utility.yul\":18827:18831   */\n      dup2\n        /* \"#utility.yul\":18823:18843   */\n      sub\n        /* \"#utility.yul\":18819:18820   */\n      0x00\n        /* \"#utility.yul\":18808:18817   */\n      dup4\n        /* \"#utility.yul\":18804:18821   */\n      add\n        /* \"#utility.yul\":18797:18844   */\n      mstore\n        /* \"#utility.yul\":18861:18939   */\n      tag_391\n        /* \"#utility.yul\":18934:18938   */\n      dup2\n        /* \"#utility.yul\":18925:18931   */\n      dup7\n        /* \"#utility.yul\":18861:18939   */\n      tag_164\n      jump\t// in\n    tag_391:\n        /* \"#utility.yul\":18853:18939   */\n      swap1\n      pop\n        /* \"#utility.yul\":18986:18995   */\n      dup2\n        /* \"#utility.yul\":18980:18984   */\n      dup2\n        /* \"#utility.yul\":18976:18996   */\n      sub\n        /* \"#utility.yul\":18971:18973   */\n      0x20\n        /* \"#utility.yul\":18960:18969   */\n      dup4\n        /* \"#utility.yul\":18956:18974   */\n      add\n        /* \"#utility.yul\":18949:18997   */\n      mstore\n        /* \"#utility.yul\":19014:19092   */\n      tag_392\n        /* \"#utility.yul\":19087:19091   */\n      dup2\n        /* \"#utility.yul\":19078:19084   */\n      dup6\n        /* \"#utility.yul\":19014:19092   */\n      tag_164\n      jump\t// in\n    tag_392:\n        /* \"#utility.yul\":19006:19092   */\n      swap1\n      pop\n        /* \"#utility.yul\":19139:19148   */\n      dup2\n        /* \"#utility.yul\":19133:19137   */\n      dup2\n        /* \"#utility.yul\":19129:19149   */\n      sub\n        /* \"#utility.yul\":19124:19126   */\n      0x40\n        /* \"#utility.yul\":19113:19122   */\n      dup4\n        /* \"#utility.yul\":19109:19127   */\n      add\n        /* \"#utility.yul\":19102:19150   */\n      mstore\n        /* \"#utility.yul\":19167:19245   */\n      tag_393\n        /* \"#utility.yul\":19240:19244   */\n      dup2\n        /* \"#utility.yul\":19231:19237   */\n      dup5\n        /* \"#utility.yul\":19167:19245   */\n      tag_164\n      jump\t// in\n    tag_393:\n        /* \"#utility.yul\":19159:19245   */\n      swap1\n      pop\n        /* \"#utility.yul\":18537:19252   */\n      swap5\n      swap4\n      pop\n      pop\n      pop\n      pop\n      jump\t// out\n        /* \"#utility.yul\":19258:19438   */\n    tag_193:\n        /* \"#utility.yul\":19398:19430   */\n      0x4e6577206964656e7469666965722063616e6e6f7420626520656d7074790000\n        /* \"#utility.yul\":19394:19395   */\n      0x00\n        /* \"#utility.yul\":19386:19392   */\n      dup3\n        /* \"#utility.yul\":19382:19396   */\n      add\n        /* \"#utility.yul\":19375:19431   */\n      mstore\n        /* \"#utility.yul\":19258:19438   */\n      pop\n      jump\t// out\n        /* \"#utility.yul\":19444:19810   */\n    tag_194:\n        /* \"#utility.yul\":19586:19589   */\n      0x00\n        /* \"#utility.yul\":19607:19674   */\n      tag_396\n        /* \"#utility.yul\":19671:19673   */\n      0x1e\n        /* \"#utility.yul\":19666:19669   */\n      dup4\n        /* \"#utility.yul\":19607:19674   */\n      tag_163\n      jump\t// in\n    tag_396:\n        /* \"#utility.yul\":19600:19674   */\n      swap2\n      pop\n        /* \"#utility.yul\":19683:19776   */\n      tag_397\n        /* \"#utility.yul\":19772:19775   */\n      dup3\n        /* \"#utility.yul\":19683:19776   */\n      tag_193\n      jump\t// in\n    tag_397:\n        /* \"#utility.yul\":19801:19803   */\n      0x20\n        /* \"#utility.yul\":19796:19799   */\n      dup3\n        /* \"#utility.yul\":19792:19804   */\n      add\n        /* \"#utility.yul\":19785:19804   */\n      swap1\n      pop\n        /* \"#utility.yul\":19444:19810   */\n      swap2\n      swap1\n      pop\n      jump\t// out\n        /* \"#utility.yul\":19816:20235   */\n    tag_59:\n        /* \"#utility.yul\":19982:19986   */\n      0x00\n        /* \"#utility.yul\":20020:20022   */\n      0x20\n        /* \"#utility.yul\":20009:20018   */\n      dup3\n        /* \"#utility.yul\":20005:20023   */\n      add\n        /* \"#utility.yul\":19997:20023   */\n      swap1\n      pop\n        /* \"#utility.yul\":20069:20078   */\n      dup2\n        /* \"#utility.yul\":20063:20067   */\n      dup2\n        /* \"#utility.yul\":20059:20079   */\n      sub\n        /* \"#utility.yul\":20055:20056   */\n      0x00\n        /* \"#utility.yul\":20044:20053   */\n      dup4\n        /* \"#utility.yul\":20040:20057   */\n      add\n        /* \"#utility.yul\":20033:20080   */\n      mstore\n        /* \"#utility.yul\":20097:20228   */\n      tag_399\n        /* \"#utility.yul\":20223:20227   */\n      dup2\n        /* \"#utility.yul\":20097:20228   */\n      tag_194\n      jump\t// in\n    tag_399:\n        /* \"#utility.yul\":20089:20228   */\n      swap1\n      pop\n        /* \"#utility.yul\":19816:20235   */\n      swap2\n      swap1\n      pop\n      jump\t// out\n        /* \"#utility.yul\":20241:20420   */\n    tag_195:\n        /* \"#utility.yul\":20381:20412   */\n      0x4e6f2044494420666f756e6420666f7220746869732061646472657373000000\n        /* \"#utility.yul\":20377:20378   */\n      0x00\n        /* \"#utility.yul\":20369:20375   */\n      dup3\n        /* \"#utility.yul\":20365:20379   */\n      add\n        /* \"#utility.yul\":20358:20413   */\n      mstore\n        /* \"#utility.yul\":20241:20420   */\n      pop\n      jump\t// out\n        /* \"#utility.yul\":20426:20792   */\n    tag_196:\n        /* \"#utility.yul\":20568:20571   */\n      0x00\n        /* \"#utility.yul\":20589:20656   */\n      tag_402\n        /* \"#utility.yul\":20653:20655   */\n      0x1d\n        /* \"#utility.yul\":20648:20651   */\n      dup4\n        /* \"#utility.yul\":20589:20656   */\n      tag_163\n      jump\t// in\n    tag_402:\n        /* \"#utility.yul\":20582:20656   */\n      swap2\n      pop\n        /* \"#utility.yul\":20665:20758   */\n      tag_403\n        /* \"#utility.yul\":20754:20757   */\n      dup3\n        /* \"#utility.yul\":20665:20758   */\n      tag_195\n      jump\t// in\n    tag_403:\n        /* \"#utility.yul\":20783:20785   */\n      0x20\n        /* \"#utility.yul\":20778:20781   */\n      dup3\n        /* \"#utility.yul\":20774:20786   */\n      add\n        /* \"#utility.yul\":20767:20786   */\n      swap1\n      pop\n        /* \"#utility.yul\":20426:20792   */\n      swap2\n      swap1\n      pop\n      jump\t// out\n        /* \"#utility.yul\":20798:21217   */\n    tag_62:\n        /* \"#utility.yul\":20964:20968   */\n      0x00\n        /* \"#utility.yul\":21002:21004   */\n      0x20\n        /* \"#utility.yul\":20991:21000   */\n      dup3\n        /* \"#utility.yul\":20987:21005   */\n      add\n        /* \"#utility.yul\":20979:21005   */\n      swap1\n      pop\n        /* \"#utility.yul\":21051:21060   */\n      dup2\n        /* \"#utility.yul\":21045:21049   */\n      dup2\n        /* \"#utility.yul\":21041:21061   */\n      sub\n        /* \"#utility.yul\":21037:21038   */\n      0x00\n        /* \"#utility.yul\":21026:21035   */\n      dup4\n        /* \"#utility.yul\":21022:21039   */\n      add\n        /* \"#utility.yul\":21015:21062   */\n      mstore\n        /* \"#utility.yul\":21079:21210   */\n      tag_405\n        /* \"#utility.yul\":21205:21209   */\n      dup2\n        /* \"#utility.yul\":21079:21210   */\n      tag_196\n      jump\t// in\n    tag_405:\n        /* \"#utility.yul\":21071:21210   */\n      swap1\n      pop\n        /* \"#utility.yul\":20798:21217   */\n      swap2\n      swap1\n      pop\n      jump\t// out\n        /* \"#utility.yul\":21223:21464   */\n    tag_197:\n        /* \"#utility.yul\":21363:21397   */\n      0x4e6577206964656e746966696572206d757374206e6f74206265207468652073\n        /* \"#utility.yul\":21359:21360   */\n      0x00\n        /* \"#utility.yul\":21351:21357   */\n      dup3\n        /* \"#utility.yul\":21347:21361   */\n      add\n        /* \"#utility.yul\":21340:21398   */\n      mstore\n        /* \"#utility.yul\":21432:21456   */\n      0x616d65206173207468652063757272656e74206f6e6500000000000000000000\n        /* \"#utility.yul\":21427:21429   */\n      0x20\n        /* \"#utility.yul\":21419:21425   */\n      dup3\n        /* \"#utility.yul\":21415:21430   */\n      add\n        /* \"#utility.yul\":21408:21457   */\n      mstore\n        /* \"#utility.yul\":21223:21464   */\n      pop\n      jump\t// out\n        /* \"#utility.yul\":21470:21836   */\n    tag_198:\n        /* \"#utility.yul\":21612:21615   */\n      0x00\n        /* \"#utility.yul\":21633:21700   */\n      tag_408\n        /* \"#utility.yul\":21697:21699   */\n      0x36\n        /* \"#utility.yul\":21692:21695   */\n      dup4\n        /* \"#utility.yul\":21633:21700   */\n      tag_163\n      jump\t// in\n    tag_408:\n        /* \"#utility.yul\":21626:21700   */\n      swap2\n      pop\n        /* \"#utility.yul\":21709:21802   */\n      tag_409\n        /* \"#utility.yul\":21798:21801   */\n      dup3\n        /* \"#utility.yul\":21709:21802   */\n      tag_197\n      jump\t// in\n    tag_409:\n        /* \"#utility.yul\":21827:21829   */\n      0x40\n        /* \"#utility.yul\":21822:21825   */\n      dup3\n        /* \"#utility.yul\":21818:21830   */\n      add\n        /* \"#utility.yul\":21811:21830   */\n      swap1\n      pop\n        /* \"#utility.yul\":21470:21836   */\n      swap2\n      swap1\n      pop\n      jump\t// out\n        /* \"#utility.yul\":21842:22261   */\n    tag_66:\n        /* \"#utility.yul\":22008:22012   */\n      0x00\n        /* \"#utility.yul\":22046:22048   */\n      0x20\n        /* \"#utility.yul\":22035:22044   */\n      dup3\n        /* \"#utility.yul\":22031:22049   */\n      add\n        /* \"#utility.yul\":22023:22049   */\n      swap1\n      pop\n        /* \"#utility.yul\":22095:22104   */\n      dup2\n        /* \"#utility.yul\":22089:22093   */\n      dup2\n        /* \"#utility.yul\":22085:22105   */\n      sub\n        /* \"#utility.yul\":22081:22082   */\n      0x00\n        /* \"#utility.yul\":22070:22079   */\n      dup4\n        /* \"#utility.yul\":22066:22083   */\n      add\n        /* \"#utility.yul\":22059:22106   */\n      mstore\n        /* \"#utility.yul\":22123:22254   */\n      tag_411\n        /* \"#utility.yul\":22249:22253   */\n      dup2\n        /* \"#utility.yul\":22123:22254   */\n      tag_198\n      jump\t// in\n    tag_411:\n        /* \"#utility.yul\":22115:22254   */\n      swap1\n      pop\n        /* \"#utility.yul\":21842:22261   */\n      swap2\n      swap1\n      pop\n      jump\t// out\n        /* \"#utility.yul\":22267:22781   */\n    tag_69:\n        /* \"#utility.yul\":22428:22432   */\n      0x00\n        /* \"#utility.yul\":22466:22468   */\n      0x40\n        /* \"#utility.yul\":22455:22464   */\n      dup3\n        /* \"#utility.yul\":22451:22469   */\n      add\n        /* \"#utility.yul\":22443:22469   */\n      swap1\n      pop\n        /* \"#utility.yul\":22515:22524   */\n      dup2\n        /* \"#utility.yul\":22509:22513   */\n      dup2\n        /* \"#utility.yul\":22505:22525   */\n      sub\n        /* \"#utility.yul\":22501:22502   */\n      0x00\n        /* \"#utility.yul\":22490:22499   */\n      dup4\n        /* \"#utility.yul\":22486:22503   */\n      add\n        /* \"#utility.yul\":22479:22526   */\n      mstore\n        /* \"#utility.yul\":22543:22621   */\n      tag_413\n        /* \"#utility.yul\":22616:22620   */\n      dup2\n        /* \"#utility.yul\":22607:22613   */\n      dup6\n        /* \"#utility.yul\":22543:22621   */\n      tag_164\n      jump\t// in\n    tag_413:\n        /* \"#utility.yul\":22535:22621   */\n      swap1\n      pop\n        /* \"#utility.yul\":22668:22677   */\n      dup2\n        /* \"#utility.yul\":22662:22666   */\n      dup2\n        /* \"#utility.yul\":22658:22678   */\n      sub\n        /* \"#utility.yul\":22653:22655   */\n      0x20\n        /* \"#utility.yul\":22642:22651   */\n      dup4\n        /* \"#utility.yul\":22638:22656   */\n      add\n        /* \"#utility.yul\":22631:22679   */\n      mstore\n        /* \"#utility.yul\":22696:22774   */\n      tag_414\n        /* \"#utility.yul\":22769:22773   */\n      dup2\n        /* \"#utility.yul\":22760:22766   */\n      dup5\n        /* \"#utility.yul\":22696:22774   */\n      tag_164\n      jump\t// in\n    tag_414:\n        /* \"#utility.yul\":22688:22774   */\n      swap1\n      pop\n        /* \"#utility.yul\":22267:22781   */\n      swap4\n      swap3\n      pop\n      pop\n      pop\n      jump\t// out\n        /* \"#utility.yul\":22787:22968   */\n    tag_199:\n        /* \"#utility.yul\":22927:22960   */\n      0x4e6f206d6574616461746120666f756e6420666f722074686973207573657200\n        /* \"#utility.yul\":22923:22924   */\n      0x00\n        /* \"#utility.yul\":22915:22921   */\n      dup3\n        /* \"#utility.yul\":22911:22925   */\n      add\n        /* \"#utility.yul\":22904:22961   */\n      mstore\n        /* \"#utility.yul\":22787:22968   */\n      pop\n      jump\t// out\n        /* \"#utility.yul\":22974:23340   */\n    tag_200:\n        /* \"#utility.yul\":23116:23119   */\n      0x00\n        /* \"#utility.yul\":23137:23204   */\n      tag_417\n        /* \"#utility.yul\":23201:23203   */\n      0x1f\n        /* \"#utility.yul\":23196:23199   */\n      dup4\n        /* \"#utility.yul\":23137:23204   */\n      tag_163\n      jump\t// in\n    tag_417:\n        /* \"#utility.yul\":23130:23204   */\n      swap2\n      pop\n        /* \"#utility.yul\":23213:23306   */\n      tag_418\n        /* \"#utility.yul\":23302:23305   */\n      dup3\n        /* \"#utility.yul\":23213:23306   */\n      tag_199\n      jump\t// in\n    tag_418:\n        /* \"#utility.yul\":23331:23333   */\n      0x20\n        /* \"#utility.yul\":23326:23329   */\n      dup3\n        /* \"#utility.yul\":23322:23334   */\n      add\n        /* \"#utility.yul\":23315:23334   */\n      swap1\n      pop\n        /* \"#utility.yul\":22974:23340   */\n      swap2\n      swap1\n      pop\n      jump\t// out\n        /* \"#utility.yul\":23346:23765   */\n    tag_75:\n        /* \"#utility.yul\":23512:23516   */\n      0x00\n        /* \"#utility.yul\":23550:23552   */\n      0x20\n        /* \"#utility.yul\":23539:23548   */\n      dup3\n        /* \"#utility.yul\":23535:23553   */\n      add\n        /* \"#utility.yul\":23527:23553   */\n      swap1\n      pop\n        /* \"#utility.yul\":23599:23608   */\n      dup2\n        /* \"#utility.yul\":23593:23597   */\n      dup2\n        /* \"#utility.yul\":23589:23609   */\n      sub\n        /* \"#utility.yul\":23585:23586   */\n      0x00\n        /* \"#utility.yul\":23574:23583   */\n      dup4\n        /* \"#utility.yul\":23570:23587   */\n      add\n        /* \"#utility.yul\":23563:23610   */\n      mstore\n        /* \"#utility.yul\":23627:23758   */\n      tag_420\n        /* \"#utility.yul\":23753:23757   */\n      dup2\n        /* \"#utility.yul\":23627:23758   */\n      tag_200\n      jump\t// in\n    tag_420:\n        /* \"#utility.yul\":23619:23758   */\n      swap1\n      pop\n        /* \"#utility.yul\":23346:23765   */\n      swap2\n      swap1\n      pop\n      jump\t// out\n        /* \"#utility.yul\":23771:23947   */\n    tag_201:\n        /* \"#utility.yul\":23911:23939   */\n      0x4964656e7469666965722063616e6e6f7420626520656d707479000000000000\n        /* \"#utility.yul\":23907:23908   */\n      0x00\n        /* \"#utility.yul\":23899:23905   */\n      dup3\n        /* \"#utility.yul\":23895:23909   */\n      add\n        /* \"#utility.yul\":23888:23940   */\n      mstore\n        /* \"#utility.yul\":23771:23947   */\n      pop\n      jump\t// out\n        /* \"#utility.yul\":23953:24319   */\n    tag_202:\n        /* \"#utility.yul\":24095:24098   */\n      0x00\n        /* \"#utility.yul\":24116:24183   */\n      tag_423\n        /* \"#utility.yul\":24180:24182   */\n      0x1a\n        /* \"#utility.yul\":24175:24178   */\n      dup4\n        /* \"#utility.yul\":24116:24183   */\n      tag_163\n      jump\t// in\n    tag_423:\n        /* \"#utility.yul\":24109:24183   */\n      swap2\n      pop\n        /* \"#utility.yul\":24192:24285   */\n      tag_424\n        /* \"#utility.yul\":24281:24284   */\n      dup3\n        /* \"#utility.yul\":24192:24285   */\n      tag_201\n      jump\t// in\n    tag_424:\n        /* \"#utility.yul\":24310:24312   */\n      0x20\n        /* \"#utility.yul\":24305:24308   */\n      dup3\n        /* \"#utility.yul\":24301:24313   */\n      add\n        /* \"#utility.yul\":24294:24313   */\n      swap1\n      pop\n        /* \"#utility.yul\":23953:24319   */\n      swap2\n      swap1\n      pop\n      jump\t// out\n        /* \"#utility.yul\":24325:24744   */\n    tag_95:\n        /* \"#utility.yul\":24491:24495   */\n      0x00\n        /* \"#utility.yul\":24529:24531   */\n      0x20\n        /* \"#utility.yul\":24518:24527   */\n      dup3\n        /* \"#utility.yul\":24514:24532   */\n      add\n        /* \"#utility.yul\":24506:24532   */\n      swap1\n      pop\n        /* \"#utility.yul\":24578:24587   */\n      dup2\n        /* \"#utility.yul\":24572:24576   */\n      dup2\n        /* \"#utility.yul\":24568:24588   */\n      sub\n        /* \"#utility.yul\":24564:24565   */\n      0x00\n        /* \"#utility.yul\":24553:24562   */\n      dup4\n        /* \"#utility.yul\":24549:24566   */\n      add\n        /* \"#utility.yul\":24542:24589   */\n      mstore\n        /* \"#utility.yul\":24606:24737   */\n      tag_426\n        /* \"#utility.yul\":24732:24736   */\n      dup2\n        /* \"#utility.yul\":24606:24737   */\n      tag_202\n      jump\t// in\n    tag_426:\n        /* \"#utility.yul\":24598:24737   */\n      swap1\n      pop\n        /* \"#utility.yul\":24325:24744   */\n      swap2\n      swap1\n      pop\n      jump\t// out\n        /* \"#utility.yul\":24750:24972   */\n    tag_203:\n        /* \"#utility.yul\":24890:24924   */\n      0x44494420616c72656164792065786973747320666f7220746869732061646472\n        /* \"#utility.yul\":24886:24887   */\n      0x00\n        /* \"#utility.yul\":24878:24884   */\n      dup3\n        /* \"#utility.yul\":24874:24888   */\n      add\n        /* \"#utility.yul\":24867:24925   */\n      mstore\n        /* \"#utility.yul\":24959:24964   */\n      0x6573730000000000000000000000000000000000000000000000000000000000\n        /* \"#utility.yul\":24954:24956   */\n      0x20\n        /* \"#utility.yul\":24946:24952   */\n      dup3\n        /* \"#utility.yul\":24942:24957   */\n      add\n        /* \"#utility.yul\":24935:24965   */\n      mstore\n        /* \"#utility.yul\":24750:24972   */\n      pop\n      jump\t// out\n        /* \"#utility.yul\":24978:25344   */\n    tag_204:\n        /* \"#utility.yul\":25120:25123   */\n      0x00\n        /* \"#utility.yul\":25141:25208   */\n      tag_429\n        /* \"#utility.yul\":25205:25207   */\n      0x23\n        /* \"#utility.yul\":25200:25203   */\n      dup4\n        /* \"#utility.yul\":25141:25208   */\n      tag_163\n      jump\t// in\n    tag_429:\n        /* \"#utility.yul\":25134:25208   */\n      swap2\n      pop\n        /* \"#utility.yul\":25217:25310   */\n      tag_430\n        /* \"#utility.yul\":25306:25309   */\n      dup3\n        /* \"#utility.yul\":25217:25310   */\n      tag_203\n      jump\t// in\n    tag_430:\n        /* \"#utility.yul\":25335:25337   */\n      0x40\n        /* \"#utility.yul\":25330:25333   */\n      dup3\n        /* \"#utility.yul\":25326:25338   */\n      add\n        /* \"#utility.yul\":25319:25338   */\n      swap1\n      pop\n        /* \"#utility.yul\":24978:25344   */\n      swap2\n      swap1\n      pop\n      jump\t// out\n        /* \"#utility.yul\":25350:25769   */\n    tag_98:\n        /* \"#utility.yul\":25516:25520   */\n      0x00\n        /* \"#utility.yul\":25554:25556   */\n      0x20\n        /* \"#utility.yul\":25543:25552   */\n      dup3\n        /* \"#utility.yul\":25539:25557   */\n      add\n        /* \"#utility.yul\":25531:25557   */\n      swap1\n      pop\n        /* \"#utility.yul\":25603:25612   */\n      dup2\n        /* \"#utility.yul\":25597:25601   */\n      dup2\n        /* \"#utility.yul\":25593:25613   */\n      sub\n        /* \"#utility.yul\":25589:25590   */\n      0x00\n        /* \"#utility.yul\":25578:25587   */\n      dup4\n        /* \"#utility.yul\":25574:25591   */\n      add\n        /* \"#utility.yul\":25567:25614   */\n      mstore\n        /* \"#utility.yul\":25631:25762   */\n      tag_432\n        /* \"#utility.yul\":25757:25761   */\n      dup2\n        /* \"#utility.yul\":25631:25762   */\n      tag_204\n      jump\t// in\n    tag_432:\n        /* \"#utility.yul\":25623:25762   */\n      swap1\n      pop\n        /* \"#utility.yul\":25350:25769   */\n      swap2\n      swap1\n      pop\n      jump\t// out\n        /* \"#utility.yul\":25775:25954   */\n    tag_205:\n        /* \"#utility.yul\":25915:25946   */\n      0x4e6f20726f6c652061737369676e656420746f20746869732075736572000000\n        /* \"#utility.yul\":25911:25912   */\n      0x00\n        /* \"#utility.yul\":25903:25909   */\n      dup3\n        /* \"#utility.yul\":25899:25913   */\n      add\n        /* \"#utility.yul\":25892:25947   */\n      mstore\n        /* \"#utility.yul\":25775:25954   */\n      pop\n      jump\t// out\n        /* \"#utility.yul\":25960:26326   */\n    tag_206:\n        /* \"#utility.yul\":26102:26105   */\n      0x00\n        /* \"#utility.yul\":26123:26190   */\n      tag_435\n        /* \"#utility.yul\":26187:26189   */\n      0x1d\n        /* \"#utility.yul\":26182:26185   */\n      dup4\n        /* \"#utility.yul\":26123:26190   */\n      tag_163\n      jump\t// in\n    tag_435:\n        /* \"#utility.yul\":26116:26190   */\n      swap2\n      pop\n        /* \"#utility.yul\":26199:26292   */\n      tag_436\n        /* \"#utility.yul\":26288:26291   */\n      dup3\n        /* \"#utility.yul\":26199:26292   */\n      tag_205\n      jump\t// in\n    tag_436:\n        /* \"#utility.yul\":26317:26319   */\n      0x20\n        /* \"#utility.yul\":26312:26315   */\n      dup3\n        /* \"#utility.yul\":26308:26320   */\n      add\n        /* \"#utility.yul\":26301:26320   */\n      swap1\n      pop\n        /* \"#utility.yul\":25960:26326   */\n      swap2\n      swap1\n      pop\n      jump\t// out\n        /* \"#utility.yul\":26332:26751   */\n    tag_105:\n        /* \"#utility.yul\":26498:26502   */\n      0x00\n        /* \"#utility.yul\":26536:26538   */\n      0x20\n        /* \"#utility.yul\":26525:26534   */\n      dup3\n        /* \"#utility.yul\":26521:26539   */\n      add\n        /* \"#utility.yul\":26513:26539   */\n      swap1\n      pop\n        /* \"#utility.yul\":26585:26594   */\n      dup2\n        /* \"#utility.yul\":26579:26583   */\n      dup2\n        /* \"#utility.yul\":26575:26595   */\n      sub\n        /* \"#utility.yul\":26571:26572   */\n      0x00\n        /* \"#utility.yul\":26560:26569   */\n      dup4\n        /* \"#utility.yul\":26556:26573   */\n      add\n        /* \"#utility.yul\":26549:26596   */\n      mstore\n        /* \"#utility.yul\":26613:26744   */\n      tag_438\n        /* \"#utility.yul\":26739:26743   */\n      dup2\n        /* \"#utility.yul\":26613:26744   */\n      tag_206\n      jump\t// in\n    tag_438:\n        /* \"#utility.yul\":26605:26744   */\n      swap1\n      pop\n        /* \"#utility.yul\":26332:26751   */\n      swap2\n      swap1\n      pop\n      jump\t// out\n        /* \"#utility.yul\":26757:26978   */\n    tag_207:\n        /* \"#utility.yul\":26897:26931   */\n      0x4f6e6c792061646d696e2063616e20706572666f726d20746869732061637469\n        /* \"#utility.yul\":26893:26894   */\n      0x00\n        /* \"#utility.yul\":26885:26891   */\n      dup3\n        /* \"#utility.yul\":26881:26895   */\n      add\n        /* \"#utility.yul\":26874:26932   */\n      mstore\n        /* \"#utility.yul\":26966:26970   */\n      0x6f6e000000000000000000000000000000000000000000000000000000000000\n        /* \"#utility.yul\":26961:26963   */\n      0x20\n        /* \"#utility.yul\":26953:26959   */\n      dup3\n        /* \"#utility.yul\":26949:26964   */\n      add\n        /* \"#utility.yul\":26942:26971   */\n      mstore\n        /* \"#utility.yul\":26757:26978   */\n      pop\n      jump\t// out\n        /* \"#utility.yul\":26984:27350   */\n    tag_208:\n        /* \"#utility.yul\":27126:27129   */\n      0x00\n        /* \"#utility.yul\":27147:27214   */\n      tag_441\n        /* \"#utility.yul\":27211:27213   */\n      0x22\n        /* \"#utility.yul\":27206:27209   */\n      dup4\n        /* \"#utility.yul\":27147:27214   */\n      tag_163\n      jump\t// in\n    tag_441:\n        /* \"#utility.yul\":27140:27214   */\n      swap2\n      pop\n        /* \"#utility.yul\":27223:27316   */\n      tag_442\n        /* \"#utility.yul\":27312:27315   */\n      dup3\n        /* \"#utility.yul\":27223:27316   */\n      tag_207\n      jump\t// in\n    tag_442:\n        /* \"#utility.yul\":27341:27343   */\n      0x40\n        /* \"#utility.yul\":27336:27339   */\n      dup3\n        /* \"#utility.yul\":27332:27344   */\n      add\n        /* \"#utility.yul\":27325:27344   */\n      swap1\n      pop\n        /* \"#utility.yul\":26984:27350   */\n      swap2\n      swap1\n      pop\n      jump\t// out\n        /* \"#utility.yul\":27356:27775   */\n    tag_123:\n        /* \"#utility.yul\":27522:27526   */\n      0x00\n        /* \"#utility.yul\":27560:27562   */\n      0x20\n        /* \"#utility.yul\":27549:27558   */\n      dup3\n        /* \"#utility.yul\":27545:27563   */\n      add\n        /* \"#utility.yul\":27537:27563   */\n      swap1\n      pop\n        /* \"#utility.yul\":27609:27618   */\n      dup2\n        /* \"#utility.yul\":27603:27607   */\n      dup2\n        /* \"#utility.yul\":27599:27619   */\n      sub\n        /* \"#utility.yul\":27595:27596   */\n      0x00\n        /* \"#utility.yul\":27584:27593   */\n      dup4\n        /* \"#utility.yul\":27580:27597   */\n      add\n        /* \"#utility.yul\":27573:27620   */\n      mstore\n        /* \"#utility.yul\":27637:27768   */\n      tag_444\n        /* \"#utility.yul\":27763:27767   */\n      dup2\n        /* \"#utility.yul\":27637:27768   */\n      tag_208\n      jump\t// in\n    tag_444:\n        /* \"#utility.yul\":27629:27768   */\n      swap1\n      pop\n        /* \"#utility.yul\":27356:27775   */\n      swap2\n      swap1\n      pop\n      jump\t// out\n        /* \"#utility.yul\":27781:27951   */\n    tag_209:\n        /* \"#utility.yul\":27921:27943   */\n      0x526f6c652063616e6e6f7420626520656d707479000000000000000000000000\n        /* \"#utility.yul\":27917:27918   */\n      0x00\n        /* \"#utility.yul\":27909:27915   */\n      dup3\n        /* \"#utility.yul\":27905:27919   */\n      add\n        /* \"#utility.yul\":27898:27944   */\n      mstore\n        /* \"#utility.yul\":27781:27951   */\n      pop\n      jump\t// out\n        /* \"#utility.yul\":27957:28323   */\n    tag_210:\n        /* \"#utility.yul\":28099:28102   */\n      0x00\n        /* \"#utility.yul\":28120:28187   */\n      tag_447\n        /* \"#utility.yul\":28184:28186   */\n      0x14\n        /* \"#utility.yul\":28179:28182   */\n      dup4\n        /* \"#utility.yul\":28120:28187   */\n      tag_163\n      jump\t// in\n    tag_447:\n        /* \"#utility.yul\":28113:28187   */\n      swap2\n      pop\n        /* \"#utility.yul\":28196:28289   */\n      tag_448\n        /* \"#utility.yul\":28285:28288   */\n      dup3\n        /* \"#utility.yul\":28196:28289   */\n      tag_209\n      jump\t// in\n    tag_448:\n        /* \"#utility.yul\":28314:28316   */\n      0x20\n        /* \"#utility.yul\":28309:28312   */\n      dup3\n        /* \"#utility.yul\":28305:28317   */\n      add\n        /* \"#utility.yul\":28298:28317   */\n      swap1\n      pop\n        /* \"#utility.yul\":27957:28323   */\n      swap2\n      swap1\n      pop\n      jump\t// out\n        /* \"#utility.yul\":28329:28748   */\n    tag_127:\n        /* \"#utility.yul\":28495:28499   */\n      0x00\n        /* \"#utility.yul\":28533:28535   */\n      0x20\n        /* \"#utility.yul\":28522:28531   */\n      dup3\n        /* \"#utility.yul\":28518:28536   */\n      add\n        /* \"#utility.yul\":28510:28536   */\n      swap1\n      pop\n        /* \"#utility.yul\":28582:28591   */\n      dup2\n        /* \"#utility.yul\":28576:28580   */\n      dup2\n        /* \"#utility.yul\":28572:28592   */\n      sub\n        /* \"#utility.yul\":28568:28569   */\n      0x00\n        /* \"#utility.yul\":28557:28566   */\n      dup4\n        /* \"#utility.yul\":28553:28570   */\n      add\n        /* \"#utility.yul\":28546:28593   */\n      mstore\n        /* \"#utility.yul\":28610:28741   */\n      tag_450\n        /* \"#utility.yul\":28736:28740   */\n      dup2\n        /* \"#utility.yul\":28610:28741   */\n      tag_210\n      jump\t// in\n    tag_450:\n        /* \"#utility.yul\":28602:28741   */\n      swap1\n      pop\n        /* \"#utility.yul\":28329:28748   */\n      swap2\n      swap1\n      pop\n      jump\t// out\n\n    auxdata: 0xa2646970667358221220f6b2b0508cda4461451ceb68ef9fc08c316afacdd98b7ddbd7581f0b574d3f2664736f6c634300081a0033\n}\n",
				"bytecode": {
					"linkReferences": {},
					"object": "6080604052348015600e575f80fd5b503360045f6101000a81548173ffffffffffffffffffffffffffffffffffffffff021916908373ffffffffffffffffffffffffffffffffffffffff160217905550611f9b8061005c5f395ff3fe608060405234801561000f575f80fd5b5060043610610086575f3560e01c80634427673311610059578063442767331461010e5780636af7915b1461013e578063b7dfcbee1461016e578063bc9c2d551461018a57610086565b80630890d80c1461008a57806314c95832146100a65780632a50c146146100c25780633457d3e2146100f2575b5f80fd5b6100a4600480360381019061009f9190611319565b6101a8565b005b6100c060048036038101906100bb91906113bd565b610366565b005b6100dc60048036038101906100d7919061145e565b610570565b6040516100e99190611544565b60405180910390f35b61010c600480360381019061010791906113bd565b610842565b005b6101286004803603810190610123919061145e565b610a66565b60405161013591906115ac565b60405180910390f35b6101586004803603810190610153919061145e565b610bbe565b60405161016591906116fb565b60405180910390f35b6101886004803603810190610183919061171b565b610d45565b005b610192611013565b60405161019f91906115ac565b60405180910390f35b5f73ffffffffffffffffffffffffffffffffffffffff165f803373ffffffffffffffffffffffffffffffffffffffff1673ffffffffffffffffffffffffffffffffffffffff1681526020019081526020015f206001015f9054906101000a900473ffffffffffffffffffffffffffffffffffffffff1673ffffffffffffffffffffffffffffffffffffffff1603610274576040517f08c379a000000000000000000000000000000000000000000000000000000000815260040161026b906117e5565b60405180910390fd5b60405180606001604052808481526020018381526020018281525060015f3373ffffffffffffffffffffffffffffffffffffffff1673ffffffffffffffffffffffffffffffffffffffff1681526020019081526020015f205f820151815f0190816102df91906119fd565b5060208201518160010190816102f591906119fd565b50604082015181600201908161030b91906119fd565b509050503373ffffffffffffffffffffffffffffffffffffffff167ffadb49c18b6d26649f36d814608938985376b6c31251d1cc6df89f6e6dfaae3b84848460405161035993929190611acc565b60405180910390a2505050565b5f8151116103a9576040517f08c379a00000000000000000000000000000000000000000000000000000000081526004016103a090611b60565b60405180910390fd5b5f73ffffffffffffffffffffffffffffffffffffffff165f803373ffffffffffffffffffffffffffffffffffffffff1673ffffffffffffffffffffffffffffffffffffffff1681526020019081526020015f206001015f9054906101000a900473ffffffffffffffffffffffffffffffffffffffff1673ffffffffffffffffffffffffffffffffffffffff1603610475576040517f08c379a000000000000000000000000000000000000000000000000000000000815260040161046c90611bc8565b60405180910390fd5b5f61047e611013565b905081805190602001208180519060200120036104d0576040517f08c379a00000000000000000000000000000000000000000000000000000000081526004016104c790611c56565b60405180910390fd5b815f803373ffffffffffffffffffffffffffffffffffffffff1673ffffffffffffffffffffffffffffffffffffffff1681526020019081526020015f205f01908161051b91906119fd565b503373ffffffffffffffffffffffffffffffffffffffff167f8a349d0aaf30faae66d032977cc9409a8d7676460eabf8c0947986b5d8a48d8c8284604051610564929190611c74565b60405180910390a25050565b6105786111ab565b5f73ffffffffffffffffffffffffffffffffffffffff165f808473ffffffffffffffffffffffffffffffffffffffff1673ffffffffffffffffffffffffffffffffffffffff1681526020019081526020015f206001015f9054906101000a900473ffffffffffffffffffffffffffffffffffffffff1673ffffffffffffffffffffffffffffffffffffffff1603610644576040517f08c379a000000000000000000000000000000000000000000000000000000000815260040161063b90611cf3565b60405180910390fd5b60015f8373ffffffffffffffffffffffffffffffffffffffff1673ffffffffffffffffffffffffffffffffffffffff1681526020019081526020015f206040518060600160405290815f8201805461069b90611830565b80601f01602080910402602001604051908101604052809291908181526020018280546106c790611830565b80156107125780601f106106e957610100808354040283529160200191610712565b820191905f5260205f20905b8154815290600101906020018083116106f557829003601f168201915b5050505050815260200160018201805461072b90611830565b80601f016020809104026020016040519081016040528092919081815260200182805461075790611830565b80156107a25780601f10610779576101008083540402835291602001916107a2565b820191905f5260205f20905b81548152906001019060200180831161078557829003601f168201915b505050505081526020016002820180546107bb90611830565b80601f01602080910402602001604051908101604052809291908181526020018280546107e790611830565b80156108325780601f1061080957610100808354040283529160200191610832565b820191905f5260205f20905b81548152906001019060200180831161081557829003601f168201915b5050505050815250509050919050565b5f815111610885576040517f08c379a000000000000000000000000000000000000000000000000000000000815260040161087c90611d5b565b60405180910390fd5b5f73ffffffffffffffffffffffffffffffffffffffff165f803373ffffffffffffffffffffffffffffffffffffffff1673ffffffffffffffffffffffffffffffffffffffff1681526020019081526020015f206001015f9054906101000a900473ffffffffffffffffffffffffffffffffffffffff1673ffffffffffffffffffffffffffffffffffffffff1614610951576040517f08c379a000000000000000000000000000000000000000000000000000000000815260040161094890611de9565b60405180910390fd5b60405180604001604052808281526020013373ffffffffffffffffffffffffffffffffffffffff168152505f803373ffffffffffffffffffffffffffffffffffffffff1673ffffffffffffffffffffffffffffffffffffffff1681526020019081526020015f205f820151815f0190816109cb91906119fd565b506020820151816001015f6101000a81548173ffffffffffffffffffffffffffffffffffffffff021916908373ffffffffffffffffffffffffffffffffffffffff1602179055509050503373ffffffffffffffffffffffffffffffffffffffff167f1b7934654ba536b6962955e057ce42885353bbaad8c605a5ce0678e632f2841082604051610a5b91906115ac565b60405180910390a250565b60605f60025f8473ffffffffffffffffffffffffffffffffffffffff1673ffffffffffffffffffffffffffffffffffffffff1681526020019081526020015f208054610ab190611830565b905011610af3576040517f08c379a0000000000000000000000000000000000000000000000000000000008152600401610aea90611e51565b60405180910390fd5b60025f8373ffffffffffffffffffffffffffffffffffffffff1673ffffffffffffffffffffffffffffffffffffffff1681526020019081526020015f208054610b3b90611830565b80601f0160208091040260200160405190810160405280929190818152602001828054610b6790611830565b8015610bb25780601f10610b8957610100808354040283529160200191610bb2565b820191905f5260205f20905b815481529060010190602001808311610b9557829003601f168201915b50505050509050919050565b606060035f8373ffffffffffffffffffffffffffffffffffffffff1673ffffffffffffffffffffffffffffffffffffffff1681526020019081526020015f20805480602002602001604051908101604052809291908181526020015f905b82821015610d3a578382905f5260205f2090600302016040518060600160405290815f82018054610c4c90611830565b80601f0160208091040260200160405190810160405280929190818152602001828054610c7890611830565b8015610cc35780601f10610c9a57610100808354040283529160200191610cc3565b820191905f5260205f20905b815481529060010190602001808311610ca657829003601f168201915b50505050508152602001600182015f9054906101000a900473ffffffffffffffffffffffffffffffffffffffff1673ffffffffffffffffffffffffffffffffffffffff1673ffffffffffffffffffffffffffffffffffffffff16815260200160028201548152505081526020019060010190610c1c565b505050509050919050565b60045f9054906101000a900473ffffffffffffffffffffffffffffffffffffffff1673ffffffffffffffffffffffffffffffffffffffff163373ffffffffffffffffffffffffffffffffffffffff1614610dd4576040517f08c379a0000000000000000000000000000000000000000000000000000000008152600401610dcb90611edf565b60405180910390fd5b5f815111610e17576040517f08c379a0000000000000000000000000000000000000000000000000000000008152600401610e0e90611f47565b60405180910390fd5b8060025f8473ffffffffffffffffffffffffffffffffffffffff1673ffffffffffffffffffffffffffffffffffffffff1681526020019081526020015f209081610e6191906119fd565b5060035f8373ffffffffffffffffffffffffffffffffffffffff1673ffffffffffffffffffffffffffffffffffffffff1681526020019081526020015f2060405180606001604052808381526020013373ffffffffffffffffffffffffffffffffffffffff16815260200142815250908060018154018082558091505060019003905f5260205f2090600302015f909190919091505f820151815f019081610f0991906119fd565b506020820151816001015f6101000a81548173ffffffffffffffffffffffffffffffffffffffff021916908373ffffffffffffffffffffffffffffffffffffffff1602179055506040820151816002015550508173ffffffffffffffffffffffffffffffffffffffff167f3565795c2fb8842c21347d277937778bbcfe788b5b4f790fc5e408786cbe9c9082604051610fa291906115ac565b60405180910390a23373ffffffffffffffffffffffffffffffffffffffff168273ffffffffffffffffffffffffffffffffffffffff167ff8278b13f43955be7634ed836ccc6a879fa131634947a5f401e817ebb3fddc048360405161100791906115ac565b60405180910390a35050565b60605f73ffffffffffffffffffffffffffffffffffffffff165f803373ffffffffffffffffffffffffffffffffffffffff1673ffffffffffffffffffffffffffffffffffffffff1681526020019081526020015f206001015f9054906101000a900473ffffffffffffffffffffffffffffffffffffffff1673ffffffffffffffffffffffffffffffffffffffff16036110e1576040517f08c379a00000000000000000000000000000000000000000000000000000000081526004016110d890611bc8565b60405180910390fd5b5f803373ffffffffffffffffffffffffffffffffffffffff1673ffffffffffffffffffffffffffffffffffffffff1681526020019081526020015f205f01805461112a90611830565b80601f016020809104026020016040519081016040528092919081815260200182805461115690611830565b80156111a15780601f10611178576101008083540402835291602001916111a1565b820191905f5260205f20905b81548152906001019060200180831161118457829003601f168201915b5050505050905090565b60405180606001604052806060815260200160608152602001606081525090565b5f604051905090565b5f80fd5b5f80fd5b5f80fd5b5f80fd5b5f601f19601f8301169050919050565b7f4e487b71000000000000000000000000000000000000000000000000000000005f52604160045260245ffd5b61122b826111e5565b810181811067ffffffffffffffff8211171561124a576112496111f5565b5b80604052505050565b5f61125c6111cc565b90506112688282611222565b919050565b5f67ffffffffffffffff821115611287576112866111f5565b5b611290826111e5565b9050602081019050919050565b828183375f83830152505050565b5f6112bd6112b88461126d565b611253565b9050828152602081018484840111156112d9576112d86111e1565b5b6112e484828561129d565b509392505050565b5f82601f830112611300576112ff6111dd565b5b81356113108482602086016112ab565b91505092915050565b5f805f606084860312156113305761132f6111d5565b5b5f84013567ffffffffffffffff81111561134d5761134c6111d9565b5b611359868287016112ec565b935050602084013567ffffffffffffffff81111561137a576113796111d9565b5b611386868287016112ec565b925050604084013567ffffffffffffffff8111156113a7576113a66111d9565b5b6113b3868287016112ec565b9150509250925092565b5f602082840312156113d2576113d16111d5565b5b5f82013567ffffffffffffffff8111156113ef576113ee6111d9565b5b6113fb848285016112ec565b91505092915050565b5f73ffffffffffffffffffffffffffffffffffffffff82169050919050565b5f61142d82611404565b9050919050565b61143d81611423565b8114611447575f80fd5b50565b5f8135905061145881611434565b92915050565b5f60208284031215611473576114726111d5565b5b5f6114808482850161144a565b91505092915050565b5f81519050919050565b5f82825260208201905092915050565b8281835e5f83830152505050565b5f6114bb82611489565b6114c58185611493565b93506114d58185602086016114a3565b6114de816111e5565b840191505092915050565b5f606083015f8301518482035f86015261150382826114b1565b9150506020830151848203602086015261151d82826114b1565b9150506040830151848203604086015261153782826114b1565b9150508091505092915050565b5f6020820190508181035f83015261155c81846114e9565b905092915050565b5f82825260208201905092915050565b5f61157e82611489565b6115888185611564565b93506115988185602086016114a3565b6115a1816111e5565b840191505092915050565b5f6020820190508181035f8301526115c48184611574565b905092915050565b5f81519050919050565b5f82825260208201905092915050565b5f819050602082019050919050565b6115fe81611423565b82525050565b5f819050919050565b61161681611604565b82525050565b5f606083015f8301518482035f86015261163682826114b1565b915050602083015161164b60208601826115f5565b50604083015161165e604086018261160d565b508091505092915050565b5f611674838361161c565b905092915050565b5f602082019050919050565b5f611692826115cc565b61169c81856115d6565b9350836020820285016116ae856115e6565b805f5b858110156116e957848403895281516116ca8582611669565b94506116d58361167c565b925060208a019950506001810190506116b1565b50829750879550505050505092915050565b5f6020820190508181035f8301526117138184611688565b905092915050565b5f8060408385031215611731576117306111d5565b5b5f61173e8582860161144a565b925050602083013567ffffffffffffffff81111561175f5761175e6111d9565b5b61176b858286016112ec565b9150509250929050565b7f437265617465206120444944206265666f72652073657474696e67206d6574615f8201527f6461746100000000000000000000000000000000000000000000000000000000602082015250565b5f6117cf602483611564565b91506117da82611775565b604082019050919050565b5f6020820190508181035f8301526117fc816117c3565b9050919050565b7f4e487b71000000000000000000000000000000000000000000000000000000005f52602260045260245ffd5b5f600282049050600182168061184757607f821691505b60208210810361185a57611859611803565b5b50919050565b5f819050815f5260205f209050919050565b5f6020601f8301049050919050565b5f82821b905092915050565b5f600883026118bc7fffffffffffffffffffffffffffffffffffffffffffffffffffffffffffffffff82611881565b6118c68683611881565b95508019841693508086168417925050509392505050565b5f819050919050565b5f6119016118fc6118f784611604565b6118de565b611604565b9050919050565b5f819050919050565b61191a836118e7565b61192e61192682611908565b84845461188d565b825550505050565b5f90565b611942611936565b61194d818484611911565b505050565b5b81811015611970576119655f8261193a565b600181019050611953565b5050565b601f8211156119b55761198681611860565b61198f84611872565b8101602085101561199e578190505b6119b26119aa85611872565b830182611952565b50505b505050565b5f82821c905092915050565b5f6119d55f19846008026119ba565b1980831691505092915050565b5f6119ed83836119c6565b9150826002028217905092915050565b611a0682611489565b67ffffffffffffffff811115611a1f57611a1e6111f5565b5b611a298254611830565b611a34828285611974565b5f60209050601f831160018114611a65575f8415611a53578287015190505b611a5d85826119e2565b865550611ac4565b601f198416611a7386611860565b5f5b82811015611a9a57848901518255600182019150602085019450602081019050611a75565b86831015611ab75784890151611ab3601f8916826119c6565b8355505b6001600288020188555050505b505050505050565b5f6060820190508181035f830152611ae48186611574565b90508181036020830152611af88185611574565b90508181036040830152611b0c8184611574565b9050949350505050565b7f4e6577206964656e7469666965722063616e6e6f7420626520656d70747900005f82015250565b5f611b4a601e83611564565b9150611b5582611b16565b602082019050919050565b5f6020820190508181035f830152611b7781611b3e565b9050919050565b7f4e6f2044494420666f756e6420666f72207468697320616464726573730000005f82015250565b5f611bb2601d83611564565b9150611bbd82611b7e565b602082019050919050565b5f6020820190508181035f830152611bdf81611ba6565b9050919050565b7f4e6577206964656e746966696572206d757374206e6f742062652074686520735f8201527f616d65206173207468652063757272656e74206f6e6500000000000000000000602082015250565b5f611c40603683611564565b9150611c4b82611be6565b604082019050919050565b5f6020820190508181035f830152611c6d81611c34565b9050919050565b5f6040820190508181035f830152611c8c8185611574565b90508181036020830152611ca08184611574565b90509392505050565b7f4e6f206d6574616461746120666f756e6420666f7220746869732075736572005f82015250565b5f611cdd601f83611564565b9150611ce882611ca9565b602082019050919050565b5f6020820190508181035f830152611d0a81611cd1565b9050919050565b7f4964656e7469666965722063616e6e6f7420626520656d7074790000000000005f82015250565b5f611d45601a83611564565b9150611d5082611d11565b602082019050919050565b5f6020820190508181035f830152611d7281611d39565b9050919050565b7f44494420616c72656164792065786973747320666f72207468697320616464725f8201527f6573730000000000000000000000000000000000000000000000000000000000602082015250565b5f611dd3602383611564565b9150611dde82611d79565b604082019050919050565b5f6020820190508181035f830152611e0081611dc7565b9050919050565b7f4e6f20726f6c652061737369676e656420746f207468697320757365720000005f82015250565b5f611e3b601d83611564565b9150611e4682611e07565b602082019050919050565b5f6020820190508181035f830152611e6881611e2f565b9050919050565b7f4f6e6c792061646d696e2063616e20706572666f726d207468697320616374695f8201527f6f6e000000000000000000000000000000000000000000000000000000000000602082015250565b5f611ec9602283611564565b9150611ed482611e6f565b604082019050919050565b5f6020820190508181035f830152611ef681611ebd565b9050919050565b7f526f6c652063616e6e6f7420626520656d7074790000000000000000000000005f82015250565b5f611f31601483611564565b9150611f3c82611efd565b602082019050919050565b5f6020820190508181035f830152611f5e81611f25565b905091905056fea2646970667358221220f6b2b0508cda4461451ceb68ef9fc08c316afacdd98b7ddbd7581f0b574d3f2664736f6c634300081a0033",
					"opcodes": "PUSH1 0x80 PUSH1 0x40 MSTORE CALLVALUE DUP1 ISZERO PUSH1 0xE JUMPI PUSH0 DUP1 REVERT JUMPDEST POP CALLER PUSH1 0x4 PUSH0 PUSH2 0x100 EXP DUP2 SLOAD DUP2 PUSH20 0xFFFFFFFFFFFFFFFFFFFFFFFFFFFFFFFFFFFFFFFF MUL NOT AND SWAP1 DUP4 PUSH20 0xFFFFFFFFFFFFFFFFFFFFFFFFFFFFFFFFFFFFFFFF AND MUL OR SWAP1 SSTORE POP PUSH2 0x1F9B DUP1 PUSH2 0x5C PUSH0 CODECOPY PUSH0 RETURN INVALID PUSH1 0x80 PUSH1 0x40 MSTORE CALLVALUE DUP1 ISZERO PUSH2 0xF JUMPI PUSH0 DUP1 REVERT JUMPDEST POP PUSH1 0x4 CALLDATASIZE LT PUSH2 0x86 JUMPI PUSH0 CALLDATALOAD PUSH1 0xE0 SHR DUP1 PUSH4 0x44276733 GT PUSH2 0x59 JUMPI DUP1 PUSH4 0x44276733 EQ PUSH2 0x10E JUMPI DUP1 PUSH4 0x6AF7915B EQ PUSH2 0x13E JUMPI DUP1 PUSH4 0xB7DFCBEE EQ PUSH2 0x16E JUMPI DUP1 PUSH4 0xBC9C2D55 EQ PUSH2 0x18A JUMPI PUSH2 0x86 JUMP JUMPDEST DUP1 PUSH4 0x890D80C EQ PUSH2 0x8A JUMPI DUP1 PUSH4 0x14C95832 EQ PUSH2 0xA6 JUMPI DUP1 PUSH4 0x2A50C146 EQ PUSH2 0xC2 JUMPI DUP1 PUSH4 0x3457D3E2 EQ PUSH2 0xF2 JUMPI JUMPDEST PUSH0 DUP1 REVERT JUMPDEST PUSH2 0xA4 PUSH1 0x4 DUP1 CALLDATASIZE SUB DUP2 ADD SWAP1 PUSH2 0x9F SWAP2 SWAP1 PUSH2 0x1319 JUMP JUMPDEST PUSH2 0x1A8 JUMP JUMPDEST STOP JUMPDEST PUSH2 0xC0 PUSH1 0x4 DUP1 CALLDATASIZE SUB DUP2 ADD SWAP1 PUSH2 0xBB SWAP2 SWAP1 PUSH2 0x13BD JUMP JUMPDEST PUSH2 0x366 JUMP JUMPDEST STOP JUMPDEST PUSH2 0xDC PUSH1 0x4 DUP1 CALLDATASIZE SUB DUP2 ADD SWAP1 PUSH2 0xD7 SWAP2 SWAP1 PUSH2 0x145E JUMP JUMPDEST PUSH2 0x570 JUMP JUMPDEST PUSH1 0x40 MLOAD PUSH2 0xE9 SWAP2 SWAP1 PUSH2 0x1544 JUMP JUMPDEST PUSH1 0x40 MLOAD DUP1 SWAP2 SUB SWAP1 RETURN JUMPDEST PUSH2 0x10C PUSH1 0x4 DUP1 CALLDATASIZE SUB DUP2 ADD SWAP1 PUSH2 0x107 SWAP2 SWAP1 PUSH2 0x13BD JUMP JUMPDEST PUSH2 0x842 JUMP JUMPDEST STOP JUMPDEST PUSH2 0x128 PUSH1 0x4 DUP1 CALLDATASIZE SUB DUP2 ADD SWAP1 PUSH2 0x123 SWAP2 SWAP1 PUSH2 0x145E JUMP JUMPDEST PUSH2 0xA66 JUMP JUMPDEST PUSH1 0x40 MLOAD PUSH2 0x135 SWAP2 SWAP1 PUSH2 0x15AC JUMP JUMPDEST PUSH1 0x40 MLOAD DUP1 SWAP2 SUB SWAP1 RETURN JUMPDEST PUSH2 0x158 PUSH1 0x4 DUP1 CALLDATASIZE SUB DUP2 ADD SWAP1 PUSH2 0x153 SWAP2 SWAP1 PUSH2 0x145E JUMP JUMPDEST PUSH2 0xBBE JUMP JUMPDEST PUSH1 0x40 MLOAD PUSH2 0x165 SWAP2 SWAP1 PUSH2 0x16FB JUMP JUMPDEST PUSH1 0x40 MLOAD DUP1 SWAP2 SUB SWAP1 RETURN JUMPDEST PUSH2 0x188 PUSH1 0x4 DUP1 CALLDATASIZE SUB DUP2 ADD SWAP1 PUSH2 0x183 SWAP2 SWAP1 PUSH2 0x171B JUMP JUMPDEST PUSH2 0xD45 JUMP JUMPDEST STOP JUMPDEST PUSH2 0x192 PUSH2 0x1013 JUMP JUMPDEST PUSH1 0x40 MLOAD PUSH2 0x19F SWAP2 SWAP1 PUSH2 0x15AC JUMP JUMPDEST PUSH1 0x40 MLOAD DUP1 SWAP2 SUB SWAP1 RETURN JUMPDEST PUSH0 PUSH20 0xFFFFFFFFFFFFFFFFFFFFFFFFFFFFFFFFFFFFFFFF AND PUSH0 DUP1 CALLER PUSH20 0xFFFFFFFFFFFFFFFFFFFFFFFFFFFFFFFFFFFFFFFF AND PUSH20 0xFFFFFFFFFFFFFFFFFFFFFFFFFFFFFFFFFFFFFFFF AND DUP2 MSTORE PUSH1 0x20 ADD SWAP1 DUP2 MSTORE PUSH1 0x20 ADD PUSH0 KECCAK256 PUSH1 0x1 ADD PUSH0 SWAP1 SLOAD SWAP1 PUSH2 0x100 EXP SWAP1 DIV PUSH20 0xFFFFFFFFFFFFFFFFFFFFFFFFFFFFFFFFFFFFFFFF AND PUSH20 0xFFFFFFFFFFFFFFFFFFFFFFFFFFFFFFFFFFFFFFFF AND SUB PUSH2 0x274 JUMPI PUSH1 0x40 MLOAD PUSH32 0x8C379A000000000000000000000000000000000000000000000000000000000 DUP2 MSTORE PUSH1 0x4 ADD PUSH2 0x26B SWAP1 PUSH2 0x17E5 JUMP JUMPDEST PUSH1 0x40 MLOAD DUP1 SWAP2 SUB SWAP1 REVERT JUMPDEST PUSH1 0x40 MLOAD DUP1 PUSH1 0x60 ADD PUSH1 0x40 MSTORE DUP1 DUP5 DUP2 MSTORE PUSH1 0x20 ADD DUP4 DUP2 MSTORE PUSH1 0x20 ADD DUP3 DUP2 MSTORE POP PUSH1 0x1 PUSH0 CALLER PUSH20 0xFFFFFFFFFFFFFFFFFFFFFFFFFFFFFFFFFFFFFFFF AND PUSH20 0xFFFFFFFFFFFFFFFFFFFFFFFFFFFFFFFFFFFFFFFF AND DUP2 MSTORE PUSH1 0x20 ADD SWAP1 DUP2 MSTORE PUSH1 0x20 ADD PUSH0 KECCAK256 PUSH0 DUP3 ADD MLOAD DUP2 PUSH0 ADD SWAP1 DUP2 PUSH2 0x2DF SWAP2 SWAP1 PUSH2 0x19FD JUMP JUMPDEST POP PUSH1 0x20 DUP3 ADD MLOAD DUP2 PUSH1 0x1 ADD SWAP1 DUP2 PUSH2 0x2F5 SWAP2 SWAP1 PUSH2 0x19FD JUMP JUMPDEST POP PUSH1 0x40 DUP3 ADD MLOAD DUP2 PUSH1 0x2 ADD SWAP1 DUP2 PUSH2 0x30B SWAP2 SWAP1 PUSH2 0x19FD JUMP JUMPDEST POP SWAP1 POP POP CALLER PUSH20 0xFFFFFFFFFFFFFFFFFFFFFFFFFFFFFFFFFFFFFFFF AND PUSH32 0xFADB49C18B6D26649F36D814608938985376B6C31251D1CC6DF89F6E6DFAAE3B DUP5 DUP5 DUP5 PUSH1 0x40 MLOAD PUSH2 0x359 SWAP4 SWAP3 SWAP2 SWAP1 PUSH2 0x1ACC JUMP JUMPDEST PUSH1 0x40 MLOAD DUP1 SWAP2 SUB SWAP1 LOG2 POP POP POP JUMP JUMPDEST PUSH0 DUP2 MLOAD GT PUSH2 0x3A9 JUMPI PUSH1 0x40 MLOAD PUSH32 0x8C379A000000000000000000000000000000000000000000000000000000000 DUP2 MSTORE PUSH1 0x4 ADD PUSH2 0x3A0 SWAP1 PUSH2 0x1B60 JUMP JUMPDEST PUSH1 0x40 MLOAD DUP1 SWAP2 SUB SWAP1 REVERT JUMPDEST PUSH0 PUSH20 0xFFFFFFFFFFFFFFFFFFFFFFFFFFFFFFFFFFFFFFFF AND PUSH0 DUP1 CALLER PUSH20 0xFFFFFFFFFFFFFFFFFFFFFFFFFFFFFFFFFFFFFFFF AND PUSH20 0xFFFFFFFFFFFFFFFFFFFFFFFFFFFFFFFFFFFFFFFF AND DUP2 MSTORE PUSH1 0x20 ADD SWAP1 DUP2 MSTORE PUSH1 0x20 ADD PUSH0 KECCAK256 PUSH1 0x1 ADD PUSH0 SWAP1 SLOAD SWAP1 PUSH2 0x100 EXP SWAP1 DIV PUSH20 0xFFFFFFFFFFFFFFFFFFFFFFFFFFFFFFFFFFFFFFFF AND PUSH20 0xFFFFFFFFFFFFFFFFFFFFFFFFFFFFFFFFFFFFFFFF AND SUB PUSH2 0x475 JUMPI PUSH1 0x40 MLOAD PUSH32 0x8C379A000000000000000000000000000000000000000000000000000000000 DUP2 MSTORE PUSH1 0x4 ADD PUSH2 0x46C SWAP1 PUSH2 0x1BC8 JUMP JUMPDEST PUSH1 0x40 MLOAD DUP1 SWAP2 SUB SWAP1 REVERT JUMPDEST PUSH0 PUSH2 0x47E PUSH2 0x1013 JUMP JUMPDEST SWAP1 POP DUP2 DUP1 MLOAD SWAP1 PUSH1 0x20 ADD KECCAK256 DUP2 DUP1 MLOAD SWAP1 PUSH1 0x20 ADD KECCAK256 SUB PUSH2 0x4D0 JUMPI PUSH1 0x40 MLOAD PUSH32 0x8C379A000000000000000000000000000000000000000000000000000000000 DUP2 MSTORE PUSH1 0x4 ADD PUSH2 0x4C7 SWAP1 PUSH2 0x1C56 JUMP JUMPDEST PUSH1 0x40 MLOAD DUP1 SWAP2 SUB SWAP1 REVERT JUMPDEST DUP2 PUSH0 DUP1 CALLER PUSH20 0xFFFFFFFFFFFFFFFFFFFFFFFFFFFFFFFFFFFFFFFF AND PUSH20 0xFFFFFFFFFFFFFFFFFFFFFFFFFFFFFFFFFFFFFFFF AND DUP2 MSTORE PUSH1 0x20 ADD SWAP1 DUP2 MSTORE PUSH1 0x20 ADD PUSH0 KECCAK256 PUSH0 ADD SWAP1 DUP2 PUSH2 0x51B SWAP2 SWAP1 PUSH2 0x19FD JUMP JUMPDEST POP CALLER PUSH20 0xFFFFFFFFFFFFFFFFFFFFFFFFFFFFFFFFFFFFFFFF AND PUSH32 0x8A349D0AAF30FAAE66D032977CC9409A8D7676460EABF8C0947986B5D8A48D8C DUP3 DUP5 PUSH1 0x40 MLOAD PUSH2 0x564 SWAP3 SWAP2 SWAP1 PUSH2 0x1C74 JUMP JUMPDEST PUSH1 0x40 MLOAD DUP1 SWAP2 SUB SWAP1 LOG2 POP POP JUMP JUMPDEST PUSH2 0x578 PUSH2 0x11AB JUMP JUMPDEST PUSH0 PUSH20 0xFFFFFFFFFFFFFFFFFFFFFFFFFFFFFFFFFFFFFFFF AND PUSH0 DUP1 DUP5 PUSH20 0xFFFFFFFFFFFFFFFFFFFFFFFFFFFFFFFFFFFFFFFF AND PUSH20 0xFFFFFFFFFFFFFFFFFFFFFFFFFFFFFFFFFFFFFFFF AND DUP2 MSTORE PUSH1 0x20 ADD SWAP1 DUP2 MSTORE PUSH1 0x20 ADD PUSH0 KECCAK256 PUSH1 0x1 ADD PUSH0 SWAP1 SLOAD SWAP1 PUSH2 0x100 EXP SWAP1 DIV PUSH20 0xFFFFFFFFFFFFFFFFFFFFFFFFFFFFFFFFFFFFFFFF AND PUSH20 0xFFFFFFFFFFFFFFFFFFFFFFFFFFFFFFFFFFFFFFFF AND SUB PUSH2 0x644 JUMPI PUSH1 0x40 MLOAD PUSH32 0x8C379A000000000000000000000000000000000000000000000000000000000 DUP2 MSTORE PUSH1 0x4 ADD PUSH2 0x63B SWAP1 PUSH2 0x1CF3 JUMP JUMPDEST PUSH1 0x40 MLOAD DUP1 SWAP2 SUB SWAP1 REVERT JUMPDEST PUSH1 0x1 PUSH0 DUP4 PUSH20 0xFFFFFFFFFFFFFFFFFFFFFFFFFFFFFFFFFFFFFFFF AND PUSH20 0xFFFFFFFFFFFFFFFFFFFFFFFFFFFFFFFFFFFFFFFF AND DUP2 MSTORE PUSH1 0x20 ADD SWAP1 DUP2 MSTORE PUSH1 0x20 ADD PUSH0 KECCAK256 PUSH1 0x40 MLOAD DUP1 PUSH1 0x60 ADD PUSH1 0x40 MSTORE SWAP1 DUP2 PUSH0 DUP3 ADD DUP1 SLOAD PUSH2 0x69B SWAP1 PUSH2 0x1830 JUMP JUMPDEST DUP1 PUSH1 0x1F ADD PUSH1 0x20 DUP1 SWAP2 DIV MUL PUSH1 0x20 ADD PUSH1 0x40 MLOAD SWAP1 DUP2 ADD PUSH1 0x40 MSTORE DUP1 SWAP3 SWAP2 SWAP1 DUP2 DUP2 MSTORE PUSH1 0x20 ADD DUP3 DUP1 SLOAD PUSH2 0x6C7 SWAP1 PUSH2 0x1830 JUMP JUMPDEST DUP1 ISZERO PUSH2 0x712 JUMPI DUP1 PUSH1 0x1F LT PUSH2 0x6E9 JUMPI PUSH2 0x100 DUP1 DUP4 SLOAD DIV MUL DUP4 MSTORE SWAP2 PUSH1 0x20 ADD SWAP2 PUSH2 0x712 JUMP JUMPDEST DUP3 ADD SWAP2 SWAP1 PUSH0 MSTORE PUSH1 0x20 PUSH0 KECCAK256 SWAP1 JUMPDEST DUP2 SLOAD DUP2 MSTORE SWAP1 PUSH1 0x1 ADD SWAP1 PUSH1 0x20 ADD DUP1 DUP4 GT PUSH2 0x6F5 JUMPI DUP3 SWAP1 SUB PUSH1 0x1F AND DUP3 ADD SWAP2 JUMPDEST POP POP POP POP POP DUP2 MSTORE PUSH1 0x20 ADD PUSH1 0x1 DUP3 ADD DUP1 SLOAD PUSH2 0x72B SWAP1 PUSH2 0x1830 JUMP JUMPDEST DUP1 PUSH1 0x1F ADD PUSH1 0x20 DUP1 SWAP2 DIV MUL PUSH1 0x20 ADD PUSH1 0x40 MLOAD SWAP1 DUP2 ADD PUSH1 0x40 MSTORE DUP1 SWAP3 SWAP2 SWAP1 DUP2 DUP2 MSTORE PUSH1 0x20 ADD DUP3 DUP1 SLOAD PUSH2 0x757 SWAP1 PUSH2 0x1830 JUMP JUMPDEST DUP1 ISZERO PUSH2 0x7A2 JUMPI DUP1 PUSH1 0x1F LT PUSH2 0x779 JUMPI PUSH2 0x100 DUP1 DUP4 SLOAD DIV MUL DUP4 MSTORE SWAP2 PUSH1 0x20 ADD SWAP2 PUSH2 0x7A2 JUMP JUMPDEST DUP3 ADD SWAP2 SWAP1 PUSH0 MSTORE PUSH1 0x20 PUSH0 KECCAK256 SWAP1 JUMPDEST DUP2 SLOAD DUP2 MSTORE SWAP1 PUSH1 0x1 ADD SWAP1 PUSH1 0x20 ADD DUP1 DUP4 GT PUSH2 0x785 JUMPI DUP3 SWAP1 SUB PUSH1 0x1F AND DUP3 ADD SWAP2 JUMPDEST POP POP POP POP POP DUP2 MSTORE PUSH1 0x20 ADD PUSH1 0x2 DUP3 ADD DUP1 SLOAD PUSH2 0x7BB SWAP1 PUSH2 0x1830 JUMP JUMPDEST DUP1 PUSH1 0x1F ADD PUSH1 0x20 DUP1 SWAP2 DIV MUL PUSH1 0x20 ADD PUSH1 0x40 MLOAD SWAP1 DUP2 ADD PUSH1 0x40 MSTORE DUP1 SWAP3 SWAP2 SWAP1 DUP2 DUP2 MSTORE PUSH1 0x20 ADD DUP3 DUP1 SLOAD PUSH2 0x7E7 SWAP1 PUSH2 0x1830 JUMP JUMPDEST DUP1 ISZERO PUSH2 0x832 JUMPI DUP1 PUSH1 0x1F LT PUSH2 0x809 JUMPI PUSH2 0x100 DUP1 DUP4 SLOAD DIV MUL DUP4 MSTORE SWAP2 PUSH1 0x20 ADD SWAP2 PUSH2 0x832 JUMP JUMPDEST DUP3 ADD SWAP2 SWAP1 PUSH0 MSTORE PUSH1 0x20 PUSH0 KECCAK256 SWAP1 JUMPDEST DUP2 SLOAD DUP2 MSTORE SWAP1 PUSH1 0x1 ADD SWAP1 PUSH1 0x20 ADD DUP1 DUP4 GT PUSH2 0x815 JUMPI DUP3 SWAP1 SUB PUSH1 0x1F AND DUP3 ADD SWAP2 JUMPDEST POP POP POP POP POP DUP2 MSTORE POP POP SWAP1 POP SWAP2 SWAP1 POP JUMP JUMPDEST PUSH0 DUP2 MLOAD GT PUSH2 0x885 JUMPI PUSH1 0x40 MLOAD PUSH32 0x8C379A000000000000000000000000000000000000000000000000000000000 DUP2 MSTORE PUSH1 0x4 ADD PUSH2 0x87C SWAP1 PUSH2 0x1D5B JUMP JUMPDEST PUSH1 0x40 MLOAD DUP1 SWAP2 SUB SWAP1 REVERT JUMPDEST PUSH0 PUSH20 0xFFFFFFFFFFFFFFFFFFFFFFFFFFFFFFFFFFFFFFFF AND PUSH0 DUP1 CALLER PUSH20 0xFFFFFFFFFFFFFFFFFFFFFFFFFFFFFFFFFFFFFFFF AND PUSH20 0xFFFFFFFFFFFFFFFFFFFFFFFFFFFFFFFFFFFFFFFF AND DUP2 MSTORE PUSH1 0x20 ADD SWAP1 DUP2 MSTORE PUSH1 0x20 ADD PUSH0 KECCAK256 PUSH1 0x1 ADD PUSH0 SWAP1 SLOAD SWAP1 PUSH2 0x100 EXP SWAP1 DIV PUSH20 0xFFFFFFFFFFFFFFFFFFFFFFFFFFFFFFFFFFFFFFFF AND PUSH20 0xFFFFFFFFFFFFFFFFFFFFFFFFFFFFFFFFFFFFFFFF AND EQ PUSH2 0x951 JUMPI PUSH1 0x40 MLOAD PUSH32 0x8C379A000000000000000000000000000000000000000000000000000000000 DUP2 MSTORE PUSH1 0x4 ADD PUSH2 0x948 SWAP1 PUSH2 0x1DE9 JUMP JUMPDEST PUSH1 0x40 MLOAD DUP1 SWAP2 SUB SWAP1 REVERT JUMPDEST PUSH1 0x40 MLOAD DUP1 PUSH1 0x40 ADD PUSH1 0x40 MSTORE DUP1 DUP3 DUP2 MSTORE PUSH1 0x20 ADD CALLER PUSH20 0xFFFFFFFFFFFFFFFFFFFFFFFFFFFFFFFFFFFFFFFF AND DUP2 MSTORE POP PUSH0 DUP1 CALLER PUSH20 0xFFFFFFFFFFFFFFFFFFFFFFFFFFFFFFFFFFFFFFFF AND PUSH20 0xFFFFFFFFFFFFFFFFFFFFFFFFFFFFFFFFFFFFFFFF AND DUP2 MSTORE PUSH1 0x20 ADD SWAP1 DUP2 MSTORE PUSH1 0x20 ADD PUSH0 KECCAK256 PUSH0 DUP3 ADD MLOAD DUP2 PUSH0 ADD SWAP1 DUP2 PUSH2 0x9CB SWAP2 SWAP1 PUSH2 0x19FD JUMP JUMPDEST POP PUSH1 0x20 DUP3 ADD MLOAD DUP2 PUSH1 0x1 ADD PUSH0 PUSH2 0x100 EXP DUP2 SLOAD DUP2 PUSH20 0xFFFFFFFFFFFFFFFFFFFFFFFFFFFFFFFFFFFFFFFF MUL NOT AND SWAP1 DUP4 PUSH20 0xFFFFFFFFFFFFFFFFFFFFFFFFFFFFFFFFFFFFFFFF AND MUL OR SWAP1 SSTORE POP SWAP1 POP POP CALLER PUSH20 0xFFFFFFFFFFFFFFFFFFFFFFFFFFFFFFFFFFFFFFFF AND PUSH32 0x1B7934654BA536B6962955E057CE42885353BBAAD8C605A5CE0678E632F28410 DUP3 PUSH1 0x40 MLOAD PUSH2 0xA5B SWAP2 SWAP1 PUSH2 0x15AC JUMP JUMPDEST PUSH1 0x40 MLOAD DUP1 SWAP2 SUB SWAP1 LOG2 POP JUMP JUMPDEST PUSH1 0x60 PUSH0 PUSH1 0x2 PUSH0 DUP5 PUSH20 0xFFFFFFFFFFFFFFFFFFFFFFFFFFFFFFFFFFFFFFFF AND PUSH20 0xFFFFFFFFFFFFFFFFFFFFFFFFFFFFFFFFFFFFFFFF AND DUP2 MSTORE PUSH1 0x20 ADD SWAP1 DUP2 MSTORE PUSH1 0x20 ADD PUSH0 KECCAK256 DUP1 SLOAD PUSH2 0xAB1 SWAP1 PUSH2 0x1830 JUMP JUMPDEST SWAP1 POP GT PUSH2 0xAF3 JUMPI PUSH1 0x40 MLOAD PUSH32 0x8C379A000000000000000000000000000000000000000000000000000000000 DUP2 MSTORE PUSH1 0x4 ADD PUSH2 0xAEA SWAP1 PUSH2 0x1E51 JUMP JUMPDEST PUSH1 0x40 MLOAD DUP1 SWAP2 SUB SWAP1 REVERT JUMPDEST PUSH1 0x2 PUSH0 DUP4 PUSH20 0xFFFFFFFFFFFFFFFFFFFFFFFFFFFFFFFFFFFFFFFF AND PUSH20 0xFFFFFFFFFFFFFFFFFFFFFFFFFFFFFFFFFFFFFFFF AND DUP2 MSTORE PUSH1 0x20 ADD SWAP1 DUP2 MSTORE PUSH1 0x20 ADD PUSH0 KECCAK256 DUP1 SLOAD PUSH2 0xB3B SWAP1 PUSH2 0x1830 JUMP JUMPDEST DUP1 PUSH1 0x1F ADD PUSH1 0x20 DUP1 SWAP2 DIV MUL PUSH1 0x20 ADD PUSH1 0x40 MLOAD SWAP1 DUP2 ADD PUSH1 0x40 MSTORE DUP1 SWAP3 SWAP2 SWAP1 DUP2 DUP2 MSTORE PUSH1 0x20 ADD DUP3 DUP1 SLOAD PUSH2 0xB67 SWAP1 PUSH2 0x1830 JUMP JUMPDEST DUP1 ISZERO PUSH2 0xBB2 JUMPI DUP1 PUSH1 0x1F LT PUSH2 0xB89 JUMPI PUSH2 0x100 DUP1 DUP4 SLOAD DIV MUL DUP4 MSTORE SWAP2 PUSH1 0x20 ADD SWAP2 PUSH2 0xBB2 JUMP JUMPDEST DUP3 ADD SWAP2 SWAP1 PUSH0 MSTORE PUSH1 0x20 PUSH0 KECCAK256 SWAP1 JUMPDEST DUP2 SLOAD DUP2 MSTORE SWAP1 PUSH1 0x1 ADD SWAP1 PUSH1 0x20 ADD DUP1 DUP4 GT PUSH2 0xB95 JUMPI DUP3 SWAP1 SUB PUSH1 0x1F AND DUP3 ADD SWAP2 JUMPDEST POP POP POP POP POP SWAP1 POP SWAP2 SWAP1 POP JUMP JUMPDEST PUSH1 0x60 PUSH1 0x3 PUSH0 DUP4 PUSH20 0xFFFFFFFFFFFFFFFFFFFFFFFFFFFFFFFFFFFFFFFF AND PUSH20 0xFFFFFFFFFFFFFFFFFFFFFFFFFFFFFFFFFFFFFFFF AND DUP2 MSTORE PUSH1 0x20 ADD SWAP1 DUP2 MSTORE PUSH1 0x20 ADD PUSH0 KECCAK256 DUP1 SLOAD DUP1 PUSH1 0x20 MUL PUSH1 0x20 ADD PUSH1 0x40 MLOAD SWAP1 DUP2 ADD PUSH1 0x40 MSTORE DUP1 SWAP3 SWAP2 SWAP1 DUP2 DUP2 MSTORE PUSH1 0x20 ADD PUSH0 SWAP1 JUMPDEST DUP3 DUP3 LT ISZERO PUSH2 0xD3A JUMPI DUP4 DUP3 SWAP1 PUSH0 MSTORE PUSH1 0x20 PUSH0 KECCAK256 SWAP1 PUSH1 0x3 MUL ADD PUSH1 0x40 MLOAD DUP1 PUSH1 0x60 ADD PUSH1 0x40 MSTORE SWAP1 DUP2 PUSH0 DUP3 ADD DUP1 SLOAD PUSH2 0xC4C SWAP1 PUSH2 0x1830 JUMP JUMPDEST DUP1 PUSH1 0x1F ADD PUSH1 0x20 DUP1 SWAP2 DIV MUL PUSH1 0x20 ADD PUSH1 0x40 MLOAD SWAP1 DUP2 ADD PUSH1 0x40 MSTORE DUP1 SWAP3 SWAP2 SWAP1 DUP2 DUP2 MSTORE PUSH1 0x20 ADD DUP3 DUP1 SLOAD PUSH2 0xC78 SWAP1 PUSH2 0x1830 JUMP JUMPDEST DUP1 ISZERO PUSH2 0xCC3 JUMPI DUP1 PUSH1 0x1F LT PUSH2 0xC9A JUMPI PUSH2 0x100 DUP1 DUP4 SLOAD DIV MUL DUP4 MSTORE SWAP2 PUSH1 0x20 ADD SWAP2 PUSH2 0xCC3 JUMP JUMPDEST DUP3 ADD SWAP2 SWAP1 PUSH0 MSTORE PUSH1 0x20 PUSH0 KECCAK256 SWAP1 JUMPDEST DUP2 SLOAD DUP2 MSTORE SWAP1 PUSH1 0x1 ADD SWAP1 PUSH1 0x20 ADD DUP1 DUP4 GT PUSH2 0xCA6 JUMPI DUP3 SWAP1 SUB PUSH1 0x1F AND DUP3 ADD SWAP2 JUMPDEST POP POP POP POP POP DUP2 MSTORE PUSH1 0x20 ADD PUSH1 0x1 DUP3 ADD PUSH0 SWAP1 SLOAD SWAP1 PUSH2 0x100 EXP SWAP1 DIV PUSH20 0xFFFFFFFFFFFFFFFFFFFFFFFFFFFFFFFFFFFFFFFF AND PUSH20 0xFFFFFFFFFFFFFFFFFFFFFFFFFFFFFFFFFFFFFFFF AND PUSH20 0xFFFFFFFFFFFFFFFFFFFFFFFFFFFFFFFFFFFFFFFF AND DUP2 MSTORE PUSH1 0x20 ADD PUSH1 0x2 DUP3 ADD SLOAD DUP2 MSTORE POP POP DUP2 MSTORE PUSH1 0x20 ADD SWAP1 PUSH1 0x1 ADD SWAP1 PUSH2 0xC1C JUMP JUMPDEST POP POP POP POP SWAP1 POP SWAP2 SWAP1 POP JUMP JUMPDEST PUSH1 0x4 PUSH0 SWAP1 SLOAD SWAP1 PUSH2 0x100 EXP SWAP1 DIV PUSH20 0xFFFFFFFFFFFFFFFFFFFFFFFFFFFFFFFFFFFFFFFF AND PUSH20 0xFFFFFFFFFFFFFFFFFFFFFFFFFFFFFFFFFFFFFFFF AND CALLER PUSH20 0xFFFFFFFFFFFFFFFFFFFFFFFFFFFFFFFFFFFFFFFF AND EQ PUSH2 0xDD4 JUMPI PUSH1 0x40 MLOAD PUSH32 0x8C379A000000000000000000000000000000000000000000000000000000000 DUP2 MSTORE PUSH1 0x4 ADD PUSH2 0xDCB SWAP1 PUSH2 0x1EDF JUMP JUMPDEST PUSH1 0x40 MLOAD DUP1 SWAP2 SUB SWAP1 REVERT JUMPDEST PUSH0 DUP2 MLOAD GT PUSH2 0xE17 JUMPI PUSH1 0x40 MLOAD PUSH32 0x8C379A000000000000000000000000000000000000000000000000000000000 DUP2 MSTORE PUSH1 0x4 ADD PUSH2 0xE0E SWAP1 PUSH2 0x1F47 JUMP JUMPDEST PUSH1 0x40 MLOAD DUP1 SWAP2 SUB SWAP1 REVERT JUMPDEST DUP1 PUSH1 0x2 PUSH0 DUP5 PUSH20 0xFFFFFFFFFFFFFFFFFFFFFFFFFFFFFFFFFFFFFFFF AND PUSH20 0xFFFFFFFFFFFFFFFFFFFFFFFFFFFFFFFFFFFFFFFF AND DUP2 MSTORE PUSH1 0x20 ADD SWAP1 DUP2 MSTORE PUSH1 0x20 ADD PUSH0 KECCAK256 SWAP1 DUP2 PUSH2 0xE61 SWAP2 SWAP1 PUSH2 0x19FD JUMP JUMPDEST POP PUSH1 0x3 PUSH0 DUP4 PUSH20 0xFFFFFFFFFFFFFFFFFFFFFFFFFFFFFFFFFFFFFFFF AND PUSH20 0xFFFFFFFFFFFFFFFFFFFFFFFFFFFFFFFFFFFFFFFF AND DUP2 MSTORE PUSH1 0x20 ADD SWAP1 DUP2 MSTORE PUSH1 0x20 ADD PUSH0 KECCAK256 PUSH1 0x40 MLOAD DUP1 PUSH1 0x60 ADD PUSH1 0x40 MSTORE DUP1 DUP4 DUP2 MSTORE PUSH1 0x20 ADD CALLER PUSH20 0xFFFFFFFFFFFFFFFFFFFFFFFFFFFFFFFFFFFFFFFF AND DUP2 MSTORE PUSH1 0x20 ADD TIMESTAMP DUP2 MSTORE POP SWAP1 DUP1 PUSH1 0x1 DUP2 SLOAD ADD DUP1 DUP3 SSTORE DUP1 SWAP2 POP POP PUSH1 0x1 SWAP1 SUB SWAP1 PUSH0 MSTORE PUSH1 0x20 PUSH0 KECCAK256 SWAP1 PUSH1 0x3 MUL ADD PUSH0 SWAP1 SWAP2 SWAP1 SWAP2 SWAP1 SWAP2 POP PUSH0 DUP3 ADD MLOAD DUP2 PUSH0 ADD SWAP1 DUP2 PUSH2 0xF09 SWAP2 SWAP1 PUSH2 0x19FD JUMP JUMPDEST POP PUSH1 0x20 DUP3 ADD MLOAD DUP2 PUSH1 0x1 ADD PUSH0 PUSH2 0x100 EXP DUP2 SLOAD DUP2 PUSH20 0xFFFFFFFFFFFFFFFFFFFFFFFFFFFFFFFFFFFFFFFF MUL NOT AND SWAP1 DUP4 PUSH20 0xFFFFFFFFFFFFFFFFFFFFFFFFFFFFFFFFFFFFFFFF AND MUL OR SWAP1 SSTORE POP PUSH1 0x40 DUP3 ADD MLOAD DUP2 PUSH1 0x2 ADD SSTORE POP POP DUP2 PUSH20 0xFFFFFFFFFFFFFFFFFFFFFFFFFFFFFFFFFFFFFFFF AND PUSH32 0x3565795C2FB8842C21347D277937778BBCFE788B5B4F790FC5E408786CBE9C90 DUP3 PUSH1 0x40 MLOAD PUSH2 0xFA2 SWAP2 SWAP1 PUSH2 0x15AC JUMP JUMPDEST PUSH1 0x40 MLOAD DUP1 SWAP2 SUB SWAP1 LOG2 CALLER PUSH20 0xFFFFFFFFFFFFFFFFFFFFFFFFFFFFFFFFFFFFFFFF AND DUP3 PUSH20 0xFFFFFFFFFFFFFFFFFFFFFFFFFFFFFFFFFFFFFFFF AND PUSH32 0xF8278B13F43955BE7634ED836CCC6A879FA131634947A5F401E817EBB3FDDC04 DUP4 PUSH1 0x40 MLOAD PUSH2 0x1007 SWAP2 SWAP1 PUSH2 0x15AC JUMP JUMPDEST PUSH1 0x40 MLOAD DUP1 SWAP2 SUB SWAP1 LOG3 POP POP JUMP JUMPDEST PUSH1 0x60 PUSH0 PUSH20 0xFFFFFFFFFFFFFFFFFFFFFFFFFFFFFFFFFFFFFFFF AND PUSH0 DUP1 CALLER PUSH20 0xFFFFFFFFFFFFFFFFFFFFFFFFFFFFFFFFFFFFFFFF AND PUSH20 0xFFFFFFFFFFFFFFFFFFFFFFFFFFFFFFFFFFFFFFFF AND DUP2 MSTORE PUSH1 0x20 ADD SWAP1 DUP2 MSTORE PUSH1 0x20 ADD PUSH0 KECCAK256 PUSH1 0x1 ADD PUSH0 SWAP1 SLOAD SWAP1 PUSH2 0x100 EXP SWAP1 DIV PUSH20 0xFFFFFFFFFFFFFFFFFFFFFFFFFFFFFFFFFFFFFFFF AND PUSH20 0xFFFFFFFFFFFFFFFFFFFFFFFFFFFFFFFFFFFFFFFF AND SUB PUSH2 0x10E1 JUMPI PUSH1 0x40 MLOAD PUSH32 0x8C379A000000000000000000000000000000000000000000000000000000000 DUP2 MSTORE PUSH1 0x4 ADD PUSH2 0x10D8 SWAP1 PUSH2 0x1BC8 JUMP JUMPDEST PUSH1 0x40 MLOAD DUP1 SWAP2 SUB SWAP1 REVERT JUMPDEST PUSH0 DUP1 CALLER PUSH20 0xFFFFFFFFFFFFFFFFFFFFFFFFFFFFFFFFFFFFFFFF AND PUSH20 0xFFFFFFFFFFFFFFFFFFFFFFFFFFFFFFFFFFFFFFFF AND DUP2 MSTORE PUSH1 0x20 ADD SWAP1 DUP2 MSTORE PUSH1 0x20 ADD PUSH0 KECCAK256 PUSH0 ADD DUP1 SLOAD PUSH2 0x112A SWAP1 PUSH2 0x1830 JUMP JUMPDEST DUP1 PUSH1 0x1F ADD PUSH1 0x20 DUP1 SWAP2 DIV MUL PUSH1 0x20 ADD PUSH1 0x40 MLOAD SWAP1 DUP2 ADD PUSH1 0x40 MSTORE DUP1 SWAP3 SWAP2 SWAP1 DUP2 DUP2 MSTORE PUSH1 0x20 ADD DUP3 DUP1 SLOAD PUSH2 0x1156 SWAP1 PUSH2 0x1830 JUMP JUMPDEST DUP1 ISZERO PUSH2 0x11A1 JUMPI DUP1 PUSH1 0x1F LT PUSH2 0x1178 JUMPI PUSH2 0x100 DUP1 DUP4 SLOAD DIV MUL DUP4 MSTORE SWAP2 PUSH1 0x20 ADD SWAP2 PUSH2 0x11A1 JUMP JUMPDEST DUP3 ADD SWAP2 SWAP1 PUSH0 MSTORE PUSH1 0x20 PUSH0 KECCAK256 SWAP1 JUMPDEST DUP2 SLOAD DUP2 MSTORE SWAP1 PUSH1 0x1 ADD SWAP1 PUSH1 0x20 ADD DUP1 DUP4 GT PUSH2 0x1184 JUMPI DUP3 SWAP1 SUB PUSH1 0x1F AND DUP3 ADD SWAP2 JUMPDEST POP POP POP POP POP SWAP1 POP SWAP1 JUMP JUMPDEST PUSH1 0x40 MLOAD DUP1 PUSH1 0x60 ADD PUSH1 0x40 MSTORE DUP1 PUSH1 0x60 DUP2 MSTORE PUSH1 0x20 ADD PUSH1 0x60 DUP2 MSTORE PUSH1 0x20 ADD PUSH1 0x60 DUP2 MSTORE POP SWAP1 JUMP JUMPDEST PUSH0 PUSH1 0x40 MLOAD SWAP1 POP SWAP1 JUMP JUMPDEST PUSH0 DUP1 REVERT JUMPDEST PUSH0 DUP1 REVERT JUMPDEST PUSH0 DUP1 REVERT JUMPDEST PUSH0 DUP1 REVERT JUMPDEST PUSH0 PUSH1 0x1F NOT PUSH1 0x1F DUP4 ADD AND SWAP1 POP SWAP2 SWAP1 POP JUMP JUMPDEST PUSH32 0x4E487B7100000000000000000000000000000000000000000000000000000000 PUSH0 MSTORE PUSH1 0x41 PUSH1 0x4 MSTORE PUSH1 0x24 PUSH0 REVERT JUMPDEST PUSH2 0x122B DUP3 PUSH2 0x11E5 JUMP JUMPDEST DUP2 ADD DUP2 DUP2 LT PUSH8 0xFFFFFFFFFFFFFFFF DUP3 GT OR ISZERO PUSH2 0x124A JUMPI PUSH2 0x1249 PUSH2 0x11F5 JUMP JUMPDEST JUMPDEST DUP1 PUSH1 0x40 MSTORE POP POP POP JUMP JUMPDEST PUSH0 PUSH2 0x125C PUSH2 0x11CC JUMP JUMPDEST SWAP1 POP PUSH2 0x1268 DUP3 DUP3 PUSH2 0x1222 JUMP JUMPDEST SWAP2 SWAP1 POP JUMP JUMPDEST PUSH0 PUSH8 0xFFFFFFFFFFFFFFFF DUP3 GT ISZERO PUSH2 0x1287 JUMPI PUSH2 0x1286 PUSH2 0x11F5 JUMP JUMPDEST JUMPDEST PUSH2 0x1290 DUP3 PUSH2 0x11E5 JUMP JUMPDEST SWAP1 POP PUSH1 0x20 DUP2 ADD SWAP1 POP SWAP2 SWAP1 POP JUMP JUMPDEST DUP3 DUP2 DUP4 CALLDATACOPY PUSH0 DUP4 DUP4 ADD MSTORE POP POP POP JUMP JUMPDEST PUSH0 PUSH2 0x12BD PUSH2 0x12B8 DUP5 PUSH2 0x126D JUMP JUMPDEST PUSH2 0x1253 JUMP JUMPDEST SWAP1 POP DUP3 DUP2 MSTORE PUSH1 0x20 DUP2 ADD DUP5 DUP5 DUP5 ADD GT ISZERO PUSH2 0x12D9 JUMPI PUSH2 0x12D8 PUSH2 0x11E1 JUMP JUMPDEST JUMPDEST PUSH2 0x12E4 DUP5 DUP3 DUP6 PUSH2 0x129D JUMP JUMPDEST POP SWAP4 SWAP3 POP POP POP JUMP JUMPDEST PUSH0 DUP3 PUSH1 0x1F DUP4 ADD SLT PUSH2 0x1300 JUMPI PUSH2 0x12FF PUSH2 0x11DD JUMP JUMPDEST JUMPDEST DUP2 CALLDATALOAD PUSH2 0x1310 DUP5 DUP3 PUSH1 0x20 DUP7 ADD PUSH2 0x12AB JUMP JUMPDEST SWAP2 POP POP SWAP3 SWAP2 POP POP JUMP JUMPDEST PUSH0 DUP1 PUSH0 PUSH1 0x60 DUP5 DUP7 SUB SLT ISZERO PUSH2 0x1330 JUMPI PUSH2 0x132F PUSH2 0x11D5 JUMP JUMPDEST JUMPDEST PUSH0 DUP5 ADD CALLDATALOAD PUSH8 0xFFFFFFFFFFFFFFFF DUP2 GT ISZERO PUSH2 0x134D JUMPI PUSH2 0x134C PUSH2 0x11D9 JUMP JUMPDEST JUMPDEST PUSH2 0x1359 DUP7 DUP3 DUP8 ADD PUSH2 0x12EC JUMP JUMPDEST SWAP4 POP POP PUSH1 0x20 DUP5 ADD CALLDATALOAD PUSH8 0xFFFFFFFFFFFFFFFF DUP2 GT ISZERO PUSH2 0x137A JUMPI PUSH2 0x1379 PUSH2 0x11D9 JUMP JUMPDEST JUMPDEST PUSH2 0x1386 DUP7 DUP3 DUP8 ADD PUSH2 0x12EC JUMP JUMPDEST SWAP3 POP POP PUSH1 0x40 DUP5 ADD CALLDATALOAD PUSH8 0xFFFFFFFFFFFFFFFF DUP2 GT ISZERO PUSH2 0x13A7 JUMPI PUSH2 0x13A6 PUSH2 0x11D9 JUMP JUMPDEST JUMPDEST PUSH2 0x13B3 DUP7 DUP3 DUP8 ADD PUSH2 0x12EC JUMP JUMPDEST SWAP2 POP POP SWAP3 POP SWAP3 POP SWAP3 JUMP JUMPDEST PUSH0 PUSH1 0x20 DUP3 DUP5 SUB SLT ISZERO PUSH2 0x13D2 JUMPI PUSH2 0x13D1 PUSH2 0x11D5 JUMP JUMPDEST JUMPDEST PUSH0 DUP3 ADD CALLDATALOAD PUSH8 0xFFFFFFFFFFFFFFFF DUP2 GT ISZERO PUSH2 0x13EF JUMPI PUSH2 0x13EE PUSH2 0x11D9 JUMP JUMPDEST JUMPDEST PUSH2 0x13FB DUP5 DUP3 DUP6 ADD PUSH2 0x12EC JUMP JUMPDEST SWAP2 POP POP SWAP3 SWAP2 POP POP JUMP JUMPDEST PUSH0 PUSH20 0xFFFFFFFFFFFFFFFFFFFFFFFFFFFFFFFFFFFFFFFF DUP3 AND SWAP1 POP SWAP2 SWAP1 POP JUMP JUMPDEST PUSH0 PUSH2 0x142D DUP3 PUSH2 0x1404 JUMP JUMPDEST SWAP1 POP SWAP2 SWAP1 POP JUMP JUMPDEST PUSH2 0x143D DUP2 PUSH2 0x1423 JUMP JUMPDEST DUP2 EQ PUSH2 0x1447 JUMPI PUSH0 DUP1 REVERT JUMPDEST POP JUMP JUMPDEST PUSH0 DUP2 CALLDATALOAD SWAP1 POP PUSH2 0x1458 DUP2 PUSH2 0x1434 JUMP JUMPDEST SWAP3 SWAP2 POP POP JUMP JUMPDEST PUSH0 PUSH1 0x20 DUP3 DUP5 SUB SLT ISZERO PUSH2 0x1473 JUMPI PUSH2 0x1472 PUSH2 0x11D5 JUMP JUMPDEST JUMPDEST PUSH0 PUSH2 0x1480 DUP5 DUP3 DUP6 ADD PUSH2 0x144A JUMP JUMPDEST SWAP2 POP POP SWAP3 SWAP2 POP POP JUMP JUMPDEST PUSH0 DUP2 MLOAD SWAP1 POP SWAP2 SWAP1 POP JUMP JUMPDEST PUSH0 DUP3 DUP3 MSTORE PUSH1 0x20 DUP3 ADD SWAP1 POP SWAP3 SWAP2 POP POP JUMP JUMPDEST DUP3 DUP2 DUP4 MCOPY PUSH0 DUP4 DUP4 ADD MSTORE POP POP POP JUMP JUMPDEST PUSH0 PUSH2 0x14BB DUP3 PUSH2 0x1489 JUMP JUMPDEST PUSH2 0x14C5 DUP2 DUP6 PUSH2 0x1493 JUMP JUMPDEST SWAP4 POP PUSH2 0x14D5 DUP2 DUP6 PUSH1 0x20 DUP7 ADD PUSH2 0x14A3 JUMP JUMPDEST PUSH2 0x14DE DUP2 PUSH2 0x11E5 JUMP JUMPDEST DUP5 ADD SWAP2 POP POP SWAP3 SWAP2 POP POP JUMP JUMPDEST PUSH0 PUSH1 0x60 DUP4 ADD PUSH0 DUP4 ADD MLOAD DUP5 DUP3 SUB PUSH0 DUP7 ADD MSTORE PUSH2 0x1503 DUP3 DUP3 PUSH2 0x14B1 JUMP JUMPDEST SWAP2 POP POP PUSH1 0x20 DUP4 ADD MLOAD DUP5 DUP3 SUB PUSH1 0x20 DUP7 ADD MSTORE PUSH2 0x151D DUP3 DUP3 PUSH2 0x14B1 JUMP JUMPDEST SWAP2 POP POP PUSH1 0x40 DUP4 ADD MLOAD DUP5 DUP3 SUB PUSH1 0x40 DUP7 ADD MSTORE PUSH2 0x1537 DUP3 DUP3 PUSH2 0x14B1 JUMP JUMPDEST SWAP2 POP POP DUP1 SWAP2 POP POP SWAP3 SWAP2 POP POP JUMP JUMPDEST PUSH0 PUSH1 0x20 DUP3 ADD SWAP1 POP DUP2 DUP2 SUB PUSH0 DUP4 ADD MSTORE PUSH2 0x155C DUP2 DUP5 PUSH2 0x14E9 JUMP JUMPDEST SWAP1 POP SWAP3 SWAP2 POP POP JUMP JUMPDEST PUSH0 DUP3 DUP3 MSTORE PUSH1 0x20 DUP3 ADD SWAP1 POP SWAP3 SWAP2 POP POP JUMP JUMPDEST PUSH0 PUSH2 0x157E DUP3 PUSH2 0x1489 JUMP JUMPDEST PUSH2 0x1588 DUP2 DUP6 PUSH2 0x1564 JUMP JUMPDEST SWAP4 POP PUSH2 0x1598 DUP2 DUP6 PUSH1 0x20 DUP7 ADD PUSH2 0x14A3 JUMP JUMPDEST PUSH2 0x15A1 DUP2 PUSH2 0x11E5 JUMP JUMPDEST DUP5 ADD SWAP2 POP POP SWAP3 SWAP2 POP POP JUMP JUMPDEST PUSH0 PUSH1 0x20 DUP3 ADD SWAP1 POP DUP2 DUP2 SUB PUSH0 DUP4 ADD MSTORE PUSH2 0x15C4 DUP2 DUP5 PUSH2 0x1574 JUMP JUMPDEST SWAP1 POP SWAP3 SWAP2 POP POP JUMP JUMPDEST PUSH0 DUP2 MLOAD SWAP1 POP SWAP2 SWAP1 POP JUMP JUMPDEST PUSH0 DUP3 DUP3 MSTORE PUSH1 0x20 DUP3 ADD SWAP1 POP SWAP3 SWAP2 POP POP JUMP JUMPDEST PUSH0 DUP2 SWAP1 POP PUSH1 0x20 DUP3 ADD SWAP1 POP SWAP2 SWAP1 POP JUMP JUMPDEST PUSH2 0x15FE DUP2 PUSH2 0x1423 JUMP JUMPDEST DUP3 MSTORE POP POP JUMP JUMPDEST PUSH0 DUP2 SWAP1 POP SWAP2 SWAP1 POP JUMP JUMPDEST PUSH2 0x1616 DUP2 PUSH2 0x1604 JUMP JUMPDEST DUP3 MSTORE POP POP JUMP JUMPDEST PUSH0 PUSH1 0x60 DUP4 ADD PUSH0 DUP4 ADD MLOAD DUP5 DUP3 SUB PUSH0 DUP7 ADD MSTORE PUSH2 0x1636 DUP3 DUP3 PUSH2 0x14B1 JUMP JUMPDEST SWAP2 POP POP PUSH1 0x20 DUP4 ADD MLOAD PUSH2 0x164B PUSH1 0x20 DUP7 ADD DUP3 PUSH2 0x15F5 JUMP JUMPDEST POP PUSH1 0x40 DUP4 ADD MLOAD PUSH2 0x165E PUSH1 0x40 DUP7 ADD DUP3 PUSH2 0x160D JUMP JUMPDEST POP DUP1 SWAP2 POP POP SWAP3 SWAP2 POP POP JUMP JUMPDEST PUSH0 PUSH2 0x1674 DUP4 DUP4 PUSH2 0x161C JUMP JUMPDEST SWAP1 POP SWAP3 SWAP2 POP POP JUMP JUMPDEST PUSH0 PUSH1 0x20 DUP3 ADD SWAP1 POP SWAP2 SWAP1 POP JUMP JUMPDEST PUSH0 PUSH2 0x1692 DUP3 PUSH2 0x15CC JUMP JUMPDEST PUSH2 0x169C DUP2 DUP6 PUSH2 0x15D6 JUMP JUMPDEST SWAP4 POP DUP4 PUSH1 0x20 DUP3 MUL DUP6 ADD PUSH2 0x16AE DUP6 PUSH2 0x15E6 JUMP JUMPDEST DUP1 PUSH0 JUMPDEST DUP6 DUP2 LT ISZERO PUSH2 0x16E9 JUMPI DUP5 DUP5 SUB DUP10 MSTORE DUP2 MLOAD PUSH2 0x16CA DUP6 DUP3 PUSH2 0x1669 JUMP JUMPDEST SWAP5 POP PUSH2 0x16D5 DUP4 PUSH2 0x167C JUMP JUMPDEST SWAP3 POP PUSH1 0x20 DUP11 ADD SWAP10 POP POP PUSH1 0x1 DUP2 ADD SWAP1 POP PUSH2 0x16B1 JUMP JUMPDEST POP DUP3 SWAP8 POP DUP8 SWAP6 POP POP POP POP POP POP SWAP3 SWAP2 POP POP JUMP JUMPDEST PUSH0 PUSH1 0x20 DUP3 ADD SWAP1 POP DUP2 DUP2 SUB PUSH0 DUP4 ADD MSTORE PUSH2 0x1713 DUP2 DUP5 PUSH2 0x1688 JUMP JUMPDEST SWAP1 POP SWAP3 SWAP2 POP POP JUMP JUMPDEST PUSH0 DUP1 PUSH1 0x40 DUP4 DUP6 SUB SLT ISZERO PUSH2 0x1731 JUMPI PUSH2 0x1730 PUSH2 0x11D5 JUMP JUMPDEST JUMPDEST PUSH0 PUSH2 0x173E DUP6 DUP3 DUP7 ADD PUSH2 0x144A JUMP JUMPDEST SWAP3 POP POP PUSH1 0x20 DUP4 ADD CALLDATALOAD PUSH8 0xFFFFFFFFFFFFFFFF DUP2 GT ISZERO PUSH2 0x175F JUMPI PUSH2 0x175E PUSH2 0x11D9 JUMP JUMPDEST JUMPDEST PUSH2 0x176B DUP6 DUP3 DUP7 ADD PUSH2 0x12EC JUMP JUMPDEST SWAP2 POP POP SWAP3 POP SWAP3 SWAP1 POP JUMP JUMPDEST PUSH32 0x437265617465206120444944206265666F72652073657474696E67206D657461 PUSH0 DUP3 ADD MSTORE PUSH32 0x6461746100000000000000000000000000000000000000000000000000000000 PUSH1 0x20 DUP3 ADD MSTORE POP JUMP JUMPDEST PUSH0 PUSH2 0x17CF PUSH1 0x24 DUP4 PUSH2 0x1564 JUMP JUMPDEST SWAP2 POP PUSH2 0x17DA DUP3 PUSH2 0x1775 JUMP JUMPDEST PUSH1 0x40 DUP3 ADD SWAP1 POP SWAP2 SWAP1 POP JUMP JUMPDEST PUSH0 PUSH1 0x20 DUP3 ADD SWAP1 POP DUP2 DUP2 SUB PUSH0 DUP4 ADD MSTORE PUSH2 0x17FC DUP2 PUSH2 0x17C3 JUMP JUMPDEST SWAP1 POP SWAP2 SWAP1 POP JUMP JUMPDEST PUSH32 0x4E487B7100000000000000000000000000000000000000000000000000000000 PUSH0 MSTORE PUSH1 0x22 PUSH1 0x4 MSTORE PUSH1 0x24 PUSH0 REVERT JUMPDEST PUSH0 PUSH1 0x2 DUP3 DIV SWAP1 POP PUSH1 0x1 DUP3 AND DUP1 PUSH2 0x1847 JUMPI PUSH1 0x7F DUP3 AND SWAP2 POP JUMPDEST PUSH1 0x20 DUP3 LT DUP2 SUB PUSH2 0x185A JUMPI PUSH2 0x1859 PUSH2 0x1803 JUMP JUMPDEST JUMPDEST POP SWAP2 SWAP1 POP JUMP JUMPDEST PUSH0 DUP2 SWAP1 POP DUP2 PUSH0 MSTORE PUSH1 0x20 PUSH0 KECCAK256 SWAP1 POP SWAP2 SWAP1 POP JUMP JUMPDEST PUSH0 PUSH1 0x20 PUSH1 0x1F DUP4 ADD DIV SWAP1 POP SWAP2 SWAP1 POP JUMP JUMPDEST PUSH0 DUP3 DUP3 SHL SWAP1 POP SWAP3 SWAP2 POP POP JUMP JUMPDEST PUSH0 PUSH1 0x8 DUP4 MUL PUSH2 0x18BC PUSH32 0xFFFFFFFFFFFFFFFFFFFFFFFFFFFFFFFFFFFFFFFFFFFFFFFFFFFFFFFFFFFFFFFF DUP3 PUSH2 0x1881 JUMP JUMPDEST PUSH2 0x18C6 DUP7 DUP4 PUSH2 0x1881 JUMP JUMPDEST SWAP6 POP DUP1 NOT DUP5 AND SWAP4 POP DUP1 DUP7 AND DUP5 OR SWAP3 POP POP POP SWAP4 SWAP3 POP POP POP JUMP JUMPDEST PUSH0 DUP2 SWAP1 POP SWAP2 SWAP1 POP JUMP JUMPDEST PUSH0 PUSH2 0x1901 PUSH2 0x18FC PUSH2 0x18F7 DUP5 PUSH2 0x1604 JUMP JUMPDEST PUSH2 0x18DE JUMP JUMPDEST PUSH2 0x1604 JUMP JUMPDEST SWAP1 POP SWAP2 SWAP1 POP JUMP JUMPDEST PUSH0 DUP2 SWAP1 POP SWAP2 SWAP1 POP JUMP JUMPDEST PUSH2 0x191A DUP4 PUSH2 0x18E7 JUMP JUMPDEST PUSH2 0x192E PUSH2 0x1926 DUP3 PUSH2 0x1908 JUMP JUMPDEST DUP5 DUP5 SLOAD PUSH2 0x188D JUMP JUMPDEST DUP3 SSTORE POP POP POP POP JUMP JUMPDEST PUSH0 SWAP1 JUMP JUMPDEST PUSH2 0x1942 PUSH2 0x1936 JUMP JUMPDEST PUSH2 0x194D DUP2 DUP5 DUP5 PUSH2 0x1911 JUMP JUMPDEST POP POP POP JUMP JUMPDEST JUMPDEST DUP2 DUP2 LT ISZERO PUSH2 0x1970 JUMPI PUSH2 0x1965 PUSH0 DUP3 PUSH2 0x193A JUMP JUMPDEST PUSH1 0x1 DUP2 ADD SWAP1 POP PUSH2 0x1953 JUMP JUMPDEST POP POP JUMP JUMPDEST PUSH1 0x1F DUP3 GT ISZERO PUSH2 0x19B5 JUMPI PUSH2 0x1986 DUP2 PUSH2 0x1860 JUMP JUMPDEST PUSH2 0x198F DUP5 PUSH2 0x1872 JUMP JUMPDEST DUP2 ADD PUSH1 0x20 DUP6 LT ISZERO PUSH2 0x199E JUMPI DUP2 SWAP1 POP JUMPDEST PUSH2 0x19B2 PUSH2 0x19AA DUP6 PUSH2 0x1872 JUMP JUMPDEST DUP4 ADD DUP3 PUSH2 0x1952 JUMP JUMPDEST POP POP JUMPDEST POP POP POP JUMP JUMPDEST PUSH0 DUP3 DUP3 SHR SWAP1 POP SWAP3 SWAP2 POP POP JUMP JUMPDEST PUSH0 PUSH2 0x19D5 PUSH0 NOT DUP5 PUSH1 0x8 MUL PUSH2 0x19BA JUMP JUMPDEST NOT DUP1 DUP4 AND SWAP2 POP POP SWAP3 SWAP2 POP POP JUMP JUMPDEST PUSH0 PUSH2 0x19ED DUP4 DUP4 PUSH2 0x19C6 JUMP JUMPDEST SWAP2 POP DUP3 PUSH1 0x2 MUL DUP3 OR SWAP1 POP SWAP3 SWAP2 POP POP JUMP JUMPDEST PUSH2 0x1A06 DUP3 PUSH2 0x1489 JUMP JUMPDEST PUSH8 0xFFFFFFFFFFFFFFFF DUP2 GT ISZERO PUSH2 0x1A1F JUMPI PUSH2 0x1A1E PUSH2 0x11F5 JUMP JUMPDEST JUMPDEST PUSH2 0x1A29 DUP3 SLOAD PUSH2 0x1830 JUMP JUMPDEST PUSH2 0x1A34 DUP3 DUP3 DUP6 PUSH2 0x1974 JUMP JUMPDEST PUSH0 PUSH1 0x20 SWAP1 POP PUSH1 0x1F DUP4 GT PUSH1 0x1 DUP2 EQ PUSH2 0x1A65 JUMPI PUSH0 DUP5 ISZERO PUSH2 0x1A53 JUMPI DUP3 DUP8 ADD MLOAD SWAP1 POP JUMPDEST PUSH2 0x1A5D DUP6 DUP3 PUSH2 0x19E2 JUMP JUMPDEST DUP7 SSTORE POP PUSH2 0x1AC4 JUMP JUMPDEST PUSH1 0x1F NOT DUP5 AND PUSH2 0x1A73 DUP7 PUSH2 0x1860 JUMP JUMPDEST PUSH0 JUMPDEST DUP3 DUP2 LT ISZERO PUSH2 0x1A9A JUMPI DUP5 DUP10 ADD MLOAD DUP3 SSTORE PUSH1 0x1 DUP3 ADD SWAP2 POP PUSH1 0x20 DUP6 ADD SWAP5 POP PUSH1 0x20 DUP2 ADD SWAP1 POP PUSH2 0x1A75 JUMP JUMPDEST DUP7 DUP4 LT ISZERO PUSH2 0x1AB7 JUMPI DUP5 DUP10 ADD MLOAD PUSH2 0x1AB3 PUSH1 0x1F DUP10 AND DUP3 PUSH2 0x19C6 JUMP JUMPDEST DUP4 SSTORE POP JUMPDEST PUSH1 0x1 PUSH1 0x2 DUP9 MUL ADD DUP9 SSTORE POP POP POP JUMPDEST POP POP POP POP POP POP JUMP JUMPDEST PUSH0 PUSH1 0x60 DUP3 ADD SWAP1 POP DUP2 DUP2 SUB PUSH0 DUP4 ADD MSTORE PUSH2 0x1AE4 DUP2 DUP7 PUSH2 0x1574 JUMP JUMPDEST SWAP1 POP DUP2 DUP2 SUB PUSH1 0x20 DUP4 ADD MSTORE PUSH2 0x1AF8 DUP2 DUP6 PUSH2 0x1574 JUMP JUMPDEST SWAP1 POP DUP2 DUP2 SUB PUSH1 0x40 DUP4 ADD MSTORE PUSH2 0x1B0C DUP2 DUP5 PUSH2 0x1574 JUMP JUMPDEST SWAP1 POP SWAP5 SWAP4 POP POP POP POP JUMP JUMPDEST PUSH32 0x4E6577206964656E7469666965722063616E6E6F7420626520656D7074790000 PUSH0 DUP3 ADD MSTORE POP JUMP JUMPDEST PUSH0 PUSH2 0x1B4A PUSH1 0x1E DUP4 PUSH2 0x1564 JUMP JUMPDEST SWAP2 POP PUSH2 0x1B55 DUP3 PUSH2 0x1B16 JUMP JUMPDEST PUSH1 0x20 DUP3 ADD SWAP1 POP SWAP2 SWAP1 POP JUMP JUMPDEST PUSH0 PUSH1 0x20 DUP3 ADD SWAP1 POP DUP2 DUP2 SUB PUSH0 DUP4 ADD MSTORE PUSH2 0x1B77 DUP2 PUSH2 0x1B3E JUMP JUMPDEST SWAP1 POP SWAP2 SWAP1 POP JUMP JUMPDEST PUSH32 0x4E6F2044494420666F756E6420666F7220746869732061646472657373000000 PUSH0 DUP3 ADD MSTORE POP JUMP JUMPDEST PUSH0 PUSH2 0x1BB2 PUSH1 0x1D DUP4 PUSH2 0x1564 JUMP JUMPDEST SWAP2 POP PUSH2 0x1BBD DUP3 PUSH2 0x1B7E JUMP JUMPDEST PUSH1 0x20 DUP3 ADD SWAP1 POP SWAP2 SWAP1 POP JUMP JUMPDEST PUSH0 PUSH1 0x20 DUP3 ADD SWAP1 POP DUP2 DUP2 SUB PUSH0 DUP4 ADD MSTORE PUSH2 0x1BDF DUP2 PUSH2 0x1BA6 JUMP JUMPDEST SWAP1 POP SWAP2 SWAP1 POP JUMP JUMPDEST PUSH32 0x4E6577206964656E746966696572206D757374206E6F74206265207468652073 PUSH0 DUP3 ADD MSTORE PUSH32 0x616D65206173207468652063757272656E74206F6E6500000000000000000000 PUSH1 0x20 DUP3 ADD MSTORE POP JUMP JUMPDEST PUSH0 PUSH2 0x1C40 PUSH1 0x36 DUP4 PUSH2 0x1564 JUMP JUMPDEST SWAP2 POP PUSH2 0x1C4B DUP3 PUSH2 0x1BE6 JUMP JUMPDEST PUSH1 0x40 DUP3 ADD SWAP1 POP SWAP2 SWAP1 POP JUMP JUMPDEST PUSH0 PUSH1 0x20 DUP3 ADD SWAP1 POP DUP2 DUP2 SUB PUSH0 DUP4 ADD MSTORE PUSH2 0x1C6D DUP2 PUSH2 0x1C34 JUMP JUMPDEST SWAP1 POP SWAP2 SWAP1 POP JUMP JUMPDEST PUSH0 PUSH1 0x40 DUP3 ADD SWAP1 POP DUP2 DUP2 SUB PUSH0 DUP4 ADD MSTORE PUSH2 0x1C8C DUP2 DUP6 PUSH2 0x1574 JUMP JUMPDEST SWAP1 POP DUP2 DUP2 SUB PUSH1 0x20 DUP4 ADD MSTORE PUSH2 0x1CA0 DUP2 DUP5 PUSH2 0x1574 JUMP JUMPDEST SWAP1 POP SWAP4 SWAP3 POP POP POP JUMP JUMPDEST PUSH32 0x4E6F206D6574616461746120666F756E6420666F722074686973207573657200 PUSH0 DUP3 ADD MSTORE POP JUMP JUMPDEST PUSH0 PUSH2 0x1CDD PUSH1 0x1F DUP4 PUSH2 0x1564 JUMP JUMPDEST SWAP2 POP PUSH2 0x1CE8 DUP3 PUSH2 0x1CA9 JUMP JUMPDEST PUSH1 0x20 DUP3 ADD SWAP1 POP SWAP2 SWAP1 POP JUMP JUMPDEST PUSH0 PUSH1 0x20 DUP3 ADD SWAP1 POP DUP2 DUP2 SUB PUSH0 DUP4 ADD MSTORE PUSH2 0x1D0A DUP2 PUSH2 0x1CD1 JUMP JUMPDEST SWAP1 POP SWAP2 SWAP1 POP JUMP JUMPDEST PUSH32 0x4964656E7469666965722063616E6E6F7420626520656D707479000000000000 PUSH0 DUP3 ADD MSTORE POP JUMP JUMPDEST PUSH0 PUSH2 0x1D45 PUSH1 0x1A DUP4 PUSH2 0x1564 JUMP JUMPDEST SWAP2 POP PUSH2 0x1D50 DUP3 PUSH2 0x1D11 JUMP JUMPDEST PUSH1 0x20 DUP3 ADD SWAP1 POP SWAP2 SWAP1 POP JUMP JUMPDEST PUSH0 PUSH1 0x20 DUP3 ADD SWAP1 POP DUP2 DUP2 SUB PUSH0 DUP4 ADD MSTORE PUSH2 0x1D72 DUP2 PUSH2 0x1D39 JUMP JUMPDEST SWAP1 POP SWAP2 SWAP1 POP JUMP JUMPDEST PUSH32 0x44494420616C72656164792065786973747320666F7220746869732061646472 PUSH0 DUP3 ADD MSTORE PUSH32 0x6573730000000000000000000000000000000000000000000000000000000000 PUSH1 0x20 DUP3 ADD MSTORE POP JUMP JUMPDEST PUSH0 PUSH2 0x1DD3 PUSH1 0x23 DUP4 PUSH2 0x1564 JUMP JUMPDEST SWAP2 POP PUSH2 0x1DDE DUP3 PUSH2 0x1D79 JUMP JUMPDEST PUSH1 0x40 DUP3 ADD SWAP1 POP SWAP2 SWAP1 POP JUMP JUMPDEST PUSH0 PUSH1 0x20 DUP3 ADD SWAP1 POP DUP2 DUP2 SUB PUSH0 DUP4 ADD MSTORE PUSH2 0x1E00 DUP2 PUSH2 0x1DC7 JUMP JUMPDEST SWAP1 POP SWAP2 SWAP1 POP JUMP JUMPDEST PUSH32 0x4E6F20726F6C652061737369676E656420746F20746869732075736572000000 PUSH0 DUP3 ADD MSTORE POP JUMP JUMPDEST PUSH0 PUSH2 0x1E3B PUSH1 0x1D DUP4 PUSH2 0x1564 JUMP JUMPDEST SWAP2 POP PUSH2 0x1E46 DUP3 PUSH2 0x1E07 JUMP JUMPDEST PUSH1 0x20 DUP3 ADD SWAP1 POP SWAP2 SWAP1 POP JUMP JUMPDEST PUSH0 PUSH1 0x20 DUP3 ADD SWAP1 POP DUP2 DUP2 SUB PUSH0 DUP4 ADD MSTORE PUSH2 0x1E68 DUP2 PUSH2 0x1E2F JUMP JUMPDEST SWAP1 POP SWAP2 SWAP1 POP JUMP JUMPDEST PUSH32 0x4F6E6C792061646D696E2063616E20706572666F726D20746869732061637469 PUSH0 DUP3 ADD MSTORE PUSH32 0x6F6E000000000000000000000000000000000000000000000000000000000000 PUSH1 0x20 DUP3 ADD MSTORE POP JUMP JUMPDEST PUSH0 PUSH2 0x1EC9 PUSH1 0x22 DUP4 PUSH2 0x1564 JUMP JUMPDEST SWAP2 POP PUSH2 0x1ED4 DUP3 PUSH2 0x1E6F JUMP JUMPDEST PUSH1 0x40 DUP3 ADD SWAP1 POP SWAP2 SWAP1 POP JUMP JUMPDEST PUSH0 PUSH1 0x20 DUP3 ADD SWAP1 POP DUP2 DUP2 SUB PUSH0 DUP4 ADD MSTORE PUSH2 0x1EF6 DUP2 PUSH2 0x1EBD JUMP JUMPDEST SWAP1 POP SWAP2 SWAP1 POP JUMP JUMPDEST PUSH32 0x526F6C652063616E6E6F7420626520656D707479000000000000000000000000 PUSH0 DUP3 ADD MSTORE POP JUMP JUMPDEST PUSH0 PUSH2 0x1F31 PUSH1 0x14 DUP4 PUSH2 0x1564 JUMP JUMPDEST SWAP2 POP PUSH2 0x1F3C DUP3 PUSH2 0x1EFD JUMP JUMPDEST PUSH1 0x20 DUP3 ADD SWAP1 POP SWAP2 SWAP1 POP JUMP JUMPDEST PUSH0 PUSH1 0x20 DUP3 ADD SWAP1 POP DUP2 DUP2 SUB PUSH0 DUP4 ADD MSTORE PUSH2 0x1F5E DUP2 PUSH2 0x1F25 JUMP JUMPDEST SWAP1 POP SWAP2 SWAP1 POP JUMP INVALID LOG2 PUSH5 0x6970667358 0x22 SLT KECCAK256 0xF6 0xB2 0xB0 POP DUP13 0xDA PREVRANDAO PUSH2 0x451C 0xEB PUSH9 0xEF9FC08C316AFACDD9 DUP12 PUSH30 0xDBD7581F0B574D3F2664736F6C634300081A003300000000000000000000 "
				},
				"gasEstimates": {
					"creation": {
						"codeDepositCost": "1618200",
						"executionCost": "25957",
						"totalCost": "1644157"
					},
					"external": {
						"assignRole(address,string)": "infinite",
						"createDID(string)": "infinite",
						"getDID()": "infinite",
						"getMetadata(address)": "infinite",
						"getRole(address)": "infinite",
						"getRoleHistory(address)": "infinite",
						"setMetadata(string,string,string)": "infinite",
						"updateDID(string)": "infinite"
					}
				},
				"methodIdentifiers": {
					"assignRole(address,string)": "b7dfcbee",
					"createDID(string)": "3457d3e2",
					"getDID()": "bc9c2d55",
					"getMetadata(address)": "2a50c146",
					"getRole(address)": "44276733",
					"getRoleHistory(address)": "6af7915b",
					"setMetadata(string,string,string)": "0890d80c",
					"updateDID(string)": "14c95832"
				}
			},
			"storageLayout": {
				"storage": [
					{
						"astId": 25,
						"contract": "DidRegistry.sol:DIDRegistry",
						"label": "dids",
						"offset": 0,
						"slot": "0",
						"type": "t_mapping(t_address,t_struct(DID)6_storage)"
					},
					{
						"astId": 30,
						"contract": "DidRegistry.sol:DIDRegistry",
						"label": "metadata",
						"offset": 0,
						"slot": "1",
						"type": "t_mapping(t_address,t_struct(Metadata)13_storage)"
					},
					{
						"astId": 34,
						"contract": "DidRegistry.sol:DIDRegistry",
						"label": "roles",
						"offset": 0,
						"slot": "2",
						"type": "t_mapping(t_address,t_string_storage)"
					},
					{
						"astId": 40,
						"contract": "DidRegistry.sol:DIDRegistry",
						"label": "roleHistory",
						"offset": 0,
						"slot": "3",
						"type": "t_mapping(t_address,t_array(t_struct(RoleCredential)20_storage)dyn_storage)"
					},
					{
						"astId": 42,
						"contract": "DidRegistry.sol:DIDRegistry",
						"label": "admin",
						"offset": 0,
						"slot": "4",
						"type": "t_address"
					}
				],
				"types": {
					"t_address": {
						"encoding": "inplace",
						"label": "address",
						"numberOfBytes": "20"
					},
					"t_array(t_struct(RoleCredential)20_storage)dyn_storage": {
						"base": "t_struct(RoleCredential)20_storage",
						"encoding": "dynamic_array",
						"label": "struct DIDRegistry.RoleCredential[]",
						"numberOfBytes": "32"
					},
					"t_mapping(t_address,t_array(t_struct(RoleCredential)20_storage)dyn_storage)": {
						"encoding": "mapping",
						"key": "t_address",
						"label": "mapping(address => struct DIDRegistry.RoleCredential[])",
						"numberOfBytes": "32",
						"value": "t_array(t_struct(RoleCredential)20_storage)dyn_storage"
					},
					"t_mapping(t_address,t_string_storage)": {
						"encoding": "mapping",
						"key": "t_address",
						"label": "mapping(address => string)",
						"numberOfBytes": "32",
						"value": "t_string_storage"
					},
					"t_mapping(t_address,t_struct(DID)6_storage)": {
						"encoding": "mapping",
						"key": "t_address",
						"label": "mapping(address => struct DIDRegistry.DID)",
						"numberOfBytes": "32",
						"value": "t_struct(DID)6_storage"
					},
					"t_mapping(t_address,t_struct(Metadata)13_storage)": {
						"encoding": "mapping",
						"key": "t_address",
						"label": "mapping(address => struct DIDRegistry.Metadata)",
						"numberOfBytes": "32",
						"value": "t_struct(Metadata)13_storage"
					},
					"t_string_storage": {
						"encoding": "bytes",
						"label": "string",
						"numberOfBytes": "32"
					},
					"t_struct(DID)6_storage": {
						"encoding": "inplace",
						"label": "struct DIDRegistry.DID",
						"members": [
							{
								"astId": 3,
								"contract": "DidRegistry.sol:DIDRegistry",
								"label": "identifier",
								"offset": 0,
								"slot": "0",
								"type": "t_string_storage"
							},
							{
								"astId": 5,
								"contract": "DidRegistry.sol:DIDRegistry",
								"label": "owner",
								"offset": 0,
								"slot": "1",
								"type": "t_address"
							}
						],
						"numberOfBytes": "64"
					},
					"t_struct(Metadata)13_storage": {
						"encoding": "inplace",
						"label": "struct DIDRegistry.Metadata",
						"members": [
							{
								"astId": 8,
								"contract": "DidRegistry.sol:DIDRegistry",
								"label": "name",
								"offset": 0,
								"slot": "0",
								"type": "t_string_storage"
							},
							{
								"astId": 10,
								"contract": "DidRegistry.sol:DIDRegistry",
								"label": "email",
								"offset": 0,
								"slot": "1",
								"type": "t_string_storage"
							},
							{
								"astId": 12,
								"contract": "DidRegistry.sol:DIDRegistry",
								"label": "profilePicture",
								"offset": 0,
								"slot": "2",
								"type": "t_string_storage"
							}
						],
						"numberOfBytes": "96"
					},
					"t_struct(RoleCredential)20_storage": {
						"encoding": "inplace",
						"label": "struct DIDRegistry.RoleCredential",
						"members": [
							{
								"astId": 15,
								"contract": "DidRegistry.sol:DIDRegistry",
								"label": "role",
								"offset": 0,
								"slot": "0",
								"type": "t_string_storage"
							},
							{
								"astId": 17,
								"contract": "DidRegistry.sol:DIDRegistry",
								"label": "issuer",
								"offset": 0,
								"slot": "1",
								"type": "t_address"
							},
							{
								"astId": 19,
								"contract": "DidRegistry.sol:DIDRegistry",
								"label": "issuedAt",
								"offset": 0,
								"slot": "2",
								"type": "t_uint256"
							}
						],
						"numberOfBytes": "96"
					},
					"t_uint256": {
						"encoding": "inplace",
						"label": "uint256",
						"numberOfBytes": "32"
					}
				}
			},
			"userdoc": {
				"kind": "user",
				"methods": {},
				"version": 1
			}
		}
	}
}